{
  "abi": [
    {
      "type": "constructor",
      "inputs": [],
      "stateMutability": "nonpayable"
    },
    {
      "type": "function",
      "name": "ID_CELESTIAL_SNIPER",
      "inputs": [],
      "outputs": [
        {
          "name": "",
          "type": "uint256",
          "internalType": "uint256"
        }
      ],
      "stateMutability": "view"
    },
    {
      "type": "function",
      "name": "ID_CYBER_PET",
      "inputs": [],
      "outputs": [
        {
          "name": "",
          "type": "uint256",
          "internalType": "uint256"
        }
      ],
      "stateMutability": "view"
    },
    {
      "type": "function",
      "name": "ID_GOLDBOI_VEHICLE",
      "inputs": [],
      "outputs": [
        {
          "name": "",
          "type": "uint256",
          "internalType": "uint256"
        }
      ],
      "stateMutability": "view"
    },
    {
      "type": "function",
      "name": "ID_GOLDBOI_WEAPON",
      "inputs": [],
      "outputs": [
        {
          "name": "",
          "type": "uint256",
          "internalType": "uint256"
        }
      ],
      "stateMutability": "view"
    },
    {
      "type": "function",
      "name": "ID_ROUGH_ARMOR",
      "inputs": [],
      "outputs": [
        {
          "name": "",
          "type": "uint256",
          "internalType": "uint256"
        }
      ],
      "stateMutability": "view"
    },
    {
      "type": "function",
      "name": "_setBaseURI",
      "inputs": [
        {
          "name": "_newBaseURI",
          "type": "string",
          "internalType": "string"
        }
      ],
      "outputs": [],
      "stateMutability": "nonpayable"
    },
    {
      "type": "function",
      "name": "addEligilities",
      "inputs": [
        {
          "name": "_toAddAddresses",
          "type": "address[]",
          "internalType": "address[]"
        },
        {
          "name": "_quantities",
          "type": "uint256[]",
          "internalType": "uint256[]"
        },
        {
          "name": "_tokenId",
          "type": "uint256",
          "internalType": "uint256"
        }
      ],
      "outputs": [],
      "stateMutability": "nonpayable"
    },
    {
      "type": "function",
      "name": "addToken",
      "inputs": [
        {
          "name": "_name",
          "type": "string",
          "internalType": "string"
        },
        {
          "name": "_maxSupply",
          "type": "uint256",
          "internalType": "uint256"
        },
        {
          "name": "_id",
          "type": "uint256",
          "internalType": "uint256"
        },
        {
          "name": "_expireAt",
          "type": "uint256",
          "internalType": "uint256"
        }
      ],
      "outputs": [],
      "stateMutability": "nonpayable"
    },
    {
      "type": "function",
      "name": "airdrop",
      "inputs": [
        {
          "name": "_address",
          "type": "address",
          "internalType": "address"
        },
        {
          "name": "_tokenId",
          "type": "uint256",
          "internalType": "uint256"
        },
        {
          "name": "_quantity",
          "type": "uint256",
          "internalType": "uint256"
        }
      ],
      "outputs": [],
      "stateMutability": "nonpayable"
    },
    {
      "type": "function",
      "name": "balanceOf",
      "inputs": [
        {
          "name": "account",
          "type": "address",
          "internalType": "address"
        },
        {
          "name": "id",
          "type": "uint256",
          "internalType": "uint256"
        }
      ],
      "outputs": [
        {
          "name": "",
          "type": "uint256",
          "internalType": "uint256"
        }
      ],
      "stateMutability": "view"
    },
    {
      "type": "function",
      "name": "balanceOfBatch",
      "inputs": [
        {
          "name": "accounts",
          "type": "address[]",
          "internalType": "address[]"
        },
        {
          "name": "ids",
          "type": "uint256[]",
          "internalType": "uint256[]"
        }
      ],
      "outputs": [
        {
          "name": "",
          "type": "uint256[]",
          "internalType": "uint256[]"
        }
      ],
      "stateMutability": "view"
    },
    {
      "type": "function",
      "name": "baseURI",
      "inputs": [],
      "outputs": [
        {
          "name": "",
          "type": "string",
          "internalType": "string"
        }
      ],
      "stateMutability": "view"
    },
    {
      "type": "function",
      "name": "burn",
      "inputs": [
        {
          "name": "_tokenId",
          "type": "uint256",
          "internalType": "uint256"
        },
        {
          "name": "_quantity",
          "type": "uint256",
          "internalType": "uint256"
        }
      ],
      "outputs": [],
      "stateMutability": "nonpayable"
    },
    {
      "type": "function",
      "name": "collector",
      "inputs": [],
      "outputs": [
        {
          "name": "",
          "type": "address",
          "internalType": "address payable"
        }
      ],
      "stateMutability": "view"
    },
    {
      "type": "function",
      "name": "holderEligibilities",
      "inputs": [
        {
          "name": "",
          "type": "address",
          "internalType": "address"
        },
        {
          "name": "",
          "type": "uint256",
          "internalType": "uint256"
        }
      ],
      "outputs": [
        {
          "name": "total",
          "type": "uint256",
          "internalType": "uint256"
        },
        {
          "name": "claimed",
          "type": "uint256",
          "internalType": "uint256"
        }
      ],
      "stateMutability": "view"
    },
    {
      "type": "function",
      "name": "isApprovedForAll",
      "inputs": [
        {
          "name": "account",
          "type": "address",
          "internalType": "address"
        },
        {
          "name": "operator",
          "type": "address",
          "internalType": "address"
        }
      ],
      "outputs": [
        {
          "name": "",
          "type": "bool",
          "internalType": "bool"
        }
      ],
      "stateMutability": "view"
    },
    {
      "type": "function",
      "name": "isBurnable",
      "inputs": [
        {
          "name": "_tokenId",
          "type": "uint256",
          "internalType": "uint256"
        }
      ],
      "outputs": [
        {
          "name": "",
          "type": "bool",
          "internalType": "bool"
        }
      ],
      "stateMutability": "view"
    },
    {
      "type": "function",
      "name": "mint",
      "inputs": [
        {
          "name": "_tokenId",
          "type": "uint256",
          "internalType": "uint256"
        },
        {
          "name": "_quantity",
          "type": "uint256",
          "internalType": "uint256"
        }
      ],
      "outputs": [],
      "stateMutability": "nonpayable"
    },
    {
      "type": "function",
      "name": "originOwner",
      "inputs": [],
      "outputs": [
        {
          "name": "",
          "type": "address",
          "internalType": "address"
        }
      ],
      "stateMutability": "view"
    },
    {
      "type": "function",
      "name": "owner",
      "inputs": [],
      "outputs": [
        {
          "name": "",
          "type": "address",
          "internalType": "address"
        }
      ],
      "stateMutability": "view"
    },
    {
      "type": "function",
      "name": "remaining",
      "inputs": [
        {
          "name": "wallet",
          "type": "address",
          "internalType": "address"
        },
        {
          "name": "_tokenId",
          "type": "uint256",
          "internalType": "uint256"
        }
      ],
      "outputs": [
        {
          "name": "",
          "type": "uint256",
          "internalType": "uint256"
        }
      ],
      "stateMutability": "view"
    },
    {
      "type": "function",
      "name": "renounceOwnership",
      "inputs": [],
      "outputs": [],
      "stateMutability": "nonpayable"
    },
    {
      "type": "function",
      "name": "safeBatchTransferFrom",
      "inputs": [
        {
          "name": "from",
          "type": "address",
          "internalType": "address"
        },
        {
          "name": "to",
          "type": "address",
          "internalType": "address"
        },
        {
          "name": "ids",
          "type": "uint256[]",
          "internalType": "uint256[]"
        },
        {
          "name": "values",
          "type": "uint256[]",
          "internalType": "uint256[]"
        },
        {
          "name": "data",
          "type": "bytes",
          "internalType": "bytes"
        }
      ],
      "outputs": [],
      "stateMutability": "nonpayable"
    },
    {
      "type": "function",
      "name": "safeTransferFrom",
      "inputs": [
        {
          "name": "from",
          "type": "address",
          "internalType": "address"
        },
        {
          "name": "to",
          "type": "address",
          "internalType": "address"
        },
        {
          "name": "id",
          "type": "uint256",
          "internalType": "uint256"
        },
        {
          "name": "value",
          "type": "uint256",
          "internalType": "uint256"
        },
        {
          "name": "data",
          "type": "bytes",
          "internalType": "bytes"
        }
      ],
      "outputs": [],
      "stateMutability": "nonpayable"
    },
    {
      "type": "function",
      "name": "setApprovalForAll",
      "inputs": [
        {
          "name": "operator",
          "type": "address",
          "internalType": "address"
        },
        {
          "name": "approved",
          "type": "bool",
          "internalType": "bool"
        }
      ],
      "outputs": [],
      "stateMutability": "nonpayable"
    },
    {
      "type": "function",
      "name": "setCollector",
      "inputs": [
        {
          "name": "_newCollector",
          "type": "address",
          "internalType": "address payable"
        }
      ],
      "outputs": [],
      "stateMutability": "nonpayable"
    },
    {
      "type": "function",
      "name": "supportsInterface",
      "inputs": [
        {
          "name": "interfaceId",
          "type": "bytes4",
          "internalType": "bytes4"
        }
      ],
      "outputs": [
        {
          "name": "",
          "type": "bool",
          "internalType": "bool"
        }
      ],
      "stateMutability": "view"
    },
    {
      "type": "function",
      "name": "toggleTokenBurnable",
      "inputs": [
        {
          "name": "_tokenId",
          "type": "uint256",
          "internalType": "uint256"
        }
      ],
      "outputs": [],
      "stateMutability": "nonpayable"
    },
    {
      "type": "function",
      "name": "tokenCollection",
      "inputs": [
        {
          "name": "",
          "type": "uint256",
          "internalType": "uint256"
        }
      ],
      "outputs": [
        {
          "name": "id",
          "type": "uint256",
          "internalType": "uint256"
        },
        {
          "name": "name",
          "type": "string",
          "internalType": "string"
        },
        {
          "name": "totalSupply",
          "type": "uint256",
          "internalType": "uint256"
        },
        {
          "name": "burnable",
          "type": "bool",
          "internalType": "bool"
        },
        {
          "name": "maxSupply",
          "type": "uint256",
          "internalType": "uint256"
        },
        {
          "name": "expireAt",
          "type": "uint256",
          "internalType": "uint256"
        }
      ],
      "stateMutability": "view"
    },
    {
      "type": "function",
      "name": "transferOwnership",
      "inputs": [
        {
          "name": "newOwner",
          "type": "address",
          "internalType": "address"
        }
      ],
      "outputs": [],
      "stateMutability": "nonpayable"
    },
    {
      "type": "function",
      "name": "uri",
      "inputs": [
        {
          "name": "_tokenId",
          "type": "uint256",
          "internalType": "uint256"
        }
      ],
      "outputs": [
        {
          "name": "",
          "type": "string",
          "internalType": "string"
        }
      ],
      "stateMutability": "view"
    },
    {
      "type": "function",
      "name": "withdrawAll",
      "inputs": [],
      "outputs": [],
      "stateMutability": "payable"
    },
    {
      "type": "event",
      "name": "AddedEligibility",
      "inputs": [
        {
          "name": "countAddresses",
          "type": "uint256",
          "indexed": false,
          "internalType": "uint256"
        },
        {
          "name": "total",
          "type": "uint256",
          "indexed": false,
          "internalType": "uint256"
        }
      ],
      "anonymous": false
    },
    {
      "type": "event",
      "name": "Airdropped",
      "inputs": [
        {
          "name": "_address",
          "type": "address",
          "indexed": false,
          "internalType": "address"
        },
        {
          "name": "token",
          "type": "uint256",
          "indexed": false,
          "internalType": "uint256"
        },
        {
          "name": "quantity",
          "type": "uint256",
          "indexed": false,
          "internalType": "uint256"
        },
        {
          "name": "timestamp",
          "type": "uint256",
          "indexed": false,
          "internalType": "uint256"
        }
      ],
      "anonymous": false
    },
    {
      "type": "event",
      "name": "ApprovalForAll",
      "inputs": [
        {
          "name": "account",
          "type": "address",
          "indexed": true,
          "internalType": "address"
        },
        {
          "name": "operator",
          "type": "address",
          "indexed": true,
          "internalType": "address"
        },
        {
          "name": "approved",
          "type": "bool",
          "indexed": false,
          "internalType": "bool"
        }
      ],
      "anonymous": false
    },
    {
      "type": "event",
      "name": "Burned",
      "inputs": [
        {
          "name": "from",
          "type": "address",
          "indexed": true,
          "internalType": "address"
        },
        {
          "name": "timestamp",
          "type": "uint256",
          "indexed": false,
          "internalType": "uint256"
        },
        {
          "name": "tokenId",
          "type": "uint256",
          "indexed": false,
          "internalType": "uint256"
        },
        {
          "name": "quantity",
          "type": "uint256",
          "indexed": false,
          "internalType": "uint256"
        }
      ],
      "anonymous": false
    },
    {
      "type": "event",
      "name": "Minted",
      "inputs": [
        {
          "name": "from",
          "type": "address",
          "indexed": true,
          "internalType": "address"
        },
        {
          "name": "timestamp",
          "type": "uint256",
          "indexed": false,
          "internalType": "uint256"
        },
        {
          "name": "tokenId",
          "type": "uint256",
          "indexed": false,
          "internalType": "uint256"
        },
        {
          "name": "quantity",
          "type": "uint256",
          "indexed": false,
          "internalType": "uint256"
        }
      ],
      "anonymous": false
    },
    {
      "type": "event",
      "name": "OwnershipTransferred",
      "inputs": [
        {
          "name": "previousOwner",
          "type": "address",
          "indexed": true,
          "internalType": "address"
        },
        {
          "name": "newOwner",
          "type": "address",
          "indexed": true,
          "internalType": "address"
        }
      ],
      "anonymous": false
    },
    {
      "type": "event",
      "name": "TransferBatch",
      "inputs": [
        {
          "name": "operator",
          "type": "address",
          "indexed": true,
          "internalType": "address"
        },
        {
          "name": "from",
          "type": "address",
          "indexed": true,
          "internalType": "address"
        },
        {
          "name": "to",
          "type": "address",
          "indexed": true,
          "internalType": "address"
        },
        {
          "name": "ids",
          "type": "uint256[]",
          "indexed": false,
          "internalType": "uint256[]"
        },
        {
          "name": "values",
          "type": "uint256[]",
          "indexed": false,
          "internalType": "uint256[]"
        }
      ],
      "anonymous": false
    },
    {
      "type": "event",
      "name": "TransferSingle",
      "inputs": [
        {
          "name": "operator",
          "type": "address",
          "indexed": true,
          "internalType": "address"
        },
        {
          "name": "from",
          "type": "address",
          "indexed": true,
          "internalType": "address"
        },
        {
          "name": "to",
          "type": "address",
          "indexed": true,
          "internalType": "address"
        },
        {
          "name": "id",
          "type": "uint256",
          "indexed": false,
          "internalType": "uint256"
        },
        {
          "name": "value",
          "type": "uint256",
          "indexed": false,
          "internalType": "uint256"
        }
      ],
      "anonymous": false
    },
    {
      "type": "event",
      "name": "URI",
      "inputs": [
        {
          "name": "value",
          "type": "string",
          "indexed": false,
          "internalType": "string"
        },
        {
          "name": "id",
          "type": "uint256",
          "indexed": true,
          "internalType": "uint256"
        }
      ],
      "anonymous": false
    },
    {
      "type": "error",
      "name": "ERC1155InsufficientBalance",
      "inputs": [
        {
          "name": "sender",
          "type": "address",
          "internalType": "address"
        },
        {
          "name": "balance",
          "type": "uint256",
          "internalType": "uint256"
        },
        {
          "name": "needed",
          "type": "uint256",
          "internalType": "uint256"
        },
        {
          "name": "tokenId",
          "type": "uint256",
          "internalType": "uint256"
        }
      ]
    },
    {
      "type": "error",
      "name": "ERC1155InvalidApprover",
      "inputs": [
        {
          "name": "approver",
          "type": "address",
          "internalType": "address"
        }
      ]
    },
    {
      "type": "error",
      "name": "ERC1155InvalidArrayLength",
      "inputs": [
        {
          "name": "idsLength",
          "type": "uint256",
          "internalType": "uint256"
        },
        {
          "name": "valuesLength",
          "type": "uint256",
          "internalType": "uint256"
        }
      ]
    },
    {
      "type": "error",
      "name": "ERC1155InvalidOperator",
      "inputs": [
        {
          "name": "operator",
          "type": "address",
          "internalType": "address"
        }
      ]
    },
    {
      "type": "error",
      "name": "ERC1155InvalidReceiver",
      "inputs": [
        {
          "name": "receiver",
          "type": "address",
          "internalType": "address"
        }
      ]
    },
    {
      "type": "error",
      "name": "ERC1155InvalidSender",
      "inputs": [
        {
          "name": "sender",
          "type": "address",
          "internalType": "address"
        }
      ]
    },
    {
      "type": "error",
      "name": "ERC1155MissingApprovalForAll",
      "inputs": [
        {
          "name": "operator",
          "type": "address",
          "internalType": "address"
        },
        {
          "name": "owner",
          "type": "address",
          "internalType": "address"
        }
      ]
    },
    {
      "type": "error",
      "name": "OwnableInvalidOwner",
      "inputs": [
        {
          "name": "owner",
          "type": "address",
          "internalType": "address"
        }
      ]
    },
    {
      "type": "error",
      "name": "OwnableUnauthorizedAccount",
      "inputs": [
        {
          "name": "account",
          "type": "address",
          "internalType": "address"
        }
      ]
    },
    {
      "type": "error",
      "name": "ReentrancyGuardReentrantCall",
      "inputs": []
    }
  ],
  "bytecode": {
    "object": "0x60a0604052600060809081526005906100189082610309565b50600780546001600160a01b03191673035982b522ef5a106259c0bf6237f088bd1a5f3f17905534801561004b57600080fd5b506007546040805160208101909152600081526001600160a01b03909116906100738161013d565b506001600160a01b0381166100a357604051631e4fbdf760e01b8152600060048201526024015b60405180910390fd5b6100ac8161014d565b5060016004819055600754600680546001600160a01b0319166001600160a01b0390921691909117905560408051808201909152601281527129b832b1b4b0b6102937bab3b41029b5b4b760711b602082015261011191610258906367c24dff61019f565b60405180608001604052806057815260200161283a605791396005906101379082610309565b506103c7565b60026101498282610309565b5050565b600380546001600160a01b038381166001600160a01b0319831681179093556040519116919082907f8be0079c531659141344cd1fd0a4f28419497f9722a3daafe3b4186f6b6457e090600090a35050565b6101a761023b565b6040805160c08101825283815260208082018781526000838501819052606084018190526080840188905260a08401869052868152600990925292902081518155915190919060018201906101fc9082610309565b5060408201516002820155606082015160038201805460ff19169115159190911790556080820151600482015560a09091015160059091015550505050565b6003546001600160a01b031633146102685760405163118cdaa760e01b815233600482015260240161009a565b565b634e487b7160e01b600052604160045260246000fd5b600181811c9082168061029457607f821691505b6020821081036102b457634e487b7160e01b600052602260045260246000fd5b50919050565b601f82111561030457806000526020600020601f840160051c810160208510156102e15750805b601f840160051c820191505b8181101561030157600081556001016102ed565b50505b505050565b81516001600160401b038111156103225761032261026a565b610336816103308454610280565b846102ba565b6020601f82116001811461036a57600083156103525750848201515b600019600385901b1c1916600184901b178455610301565b600084815260208120601f198516915b8281101561039a578785015182556020948501946001909201910161037a565b50848210156103b85786840151600019600387901b60f8161c191681555b50505050600190811b01905550565b612464806103d66000396000f3fe6080604052600436106101e25760003560e01c80638da5cb5b11610102578063d912a02311610095578063e985e9c511610064578063e985e9c5146105b0578063f242432a146105d0578063f2fde38b146105f0578063fb5b82d01461061057600080fd5b8063d912a02314610530578063e1a977ec14610550578063e1bc296714610570578063e5889f011461059057600080fd5b8063aac927ce116100d1578063aac927ce146104b3578063b390c0ab146104c8578063c6f88d4a146104e8578063d0a85ba11461051b57600080fd5b80638da5cb5b14610435578063913e77ad14610453578063a22cb46514610473578063a5ea87381461049357600080fd5b80632eb2c2d61161017a5780636c0360eb116101495780636c0360eb146103af578063715018a6146103c45780637672e1b6146103d9578063853828b61461042d57600080fd5b80632eb2c2d61461032d57806331b5b9071461034d5780633e67b6821461036d5780634e1273f41461038257600080fd5b80631b2ef1ca116101b65780631b2ef1ca1461028c5780631fb4b4f6146102ae578063282e7811146102c35780632dd883e8146102fb57600080fd5b8062fdd58e146101e757806301ffc9a71461021a5780630e89341c1461024a5780631ae49ed614610277575b600080fd5b3480156101f357600080fd5b50610207610202366004611a63565b610630565b6040519081526020015b60405180910390f35b34801561022657600080fd5b5061023a610235366004611aa5565b610658565b6040519015158152602001610211565b34801561025657600080fd5b5061026a610265366004611ac2565b6106a8565b6040516102119190611b2b565b34801561028357600080fd5b50610207600581565b34801561029857600080fd5b506102ac6102a7366004611b3e565b610706565b005b3480156102ba57600080fd5b50610207600481565b3480156102cf57600080fd5b506007546102e3906001600160a01b031681565b6040516001600160a01b039091168152602001610211565b34801561030757600080fd5b5061031b610316366004611ac2565b6108e3565b60405161021196959493929190611b60565b34801561033957600080fd5b506102ac610348366004611cea565b6109a5565b34801561035957600080fd5b506102ac610368366004611da1565b610a0c565b34801561037957600080fd5b50610207600381565b34801561038e57600080fd5b506103a261039d366004611ddd565b610a24565b6040516102119190611ee2565b3480156103bb57600080fd5b5061026a610af0565b3480156103d057600080fd5b506102ac610b7e565b3480156103e557600080fd5b506104186103f4366004611a63565b60086020908152600092835260408084209091529082529020805460019091015482565b60408051928352602083019190915201610211565b6102ac610b92565b34801561044157600080fd5b506003546001600160a01b03166102e3565b34801561045f57600080fd5b506006546102e3906001600160a01b031681565b34801561047f57600080fd5b506102ac61048e366004611ef5565b610bd6565b34801561049f57600080fd5b506102ac6104ae366004611f7e565b610be1565b3480156104bf57600080fd5b50610207600281565b3480156104d457600080fd5b506102ac6104e3366004611b3e565b610d54565b3480156104f457600080fd5b5061023a610503366004611ac2565b60009081526009602052604090206003015460ff1690565b34801561052757600080fd5b50610207600181565b34801561053c57600080fd5b506102ac61054b366004611ac2565b610e4b565b34801561055c57600080fd5b5061020761056b366004611a63565b610e76565b34801561057c57600080fd5b506102ac61058b366004611ff5565b610eb1565b34801561059c57600080fd5b506102ac6105ab36600461202a565b611013565b3480156105bc57600080fd5b5061023a6105cb36600461207d565b6110af565b3480156105dc57600080fd5b506102ac6105eb3660046120ab565b6110dd565b3480156105fc57600080fd5b506102ac61060b366004612107565b61113c565b34801561061c57600080fd5b506102ac61062b366004612107565b611177565b6000818152602081815260408083206001600160a01b03861684529091529020545b92915050565b60006001600160e01b03198216636cdb3d1360e11b148061068957506001600160e01b031982166303a24d0760e21b145b8061065257506301ffc9a760e01b6001600160e01b0319831614610652565b60606000600580546106b990612124565b9050116106d55760405180602001604052806000815250610652565b60056106e0836111a1565b6040516020016106f192919061215e565b60405160208183030381529060405292915050565b806107113384610e76565b10156107645760405162461bcd60e51b815260206004820152601f60248201527f5175616e746974792067726561746572207468616e2072656d61696e696e670060448201526064015b60405180910390fd5b600082815260096020526040902060048101546002909101546107889083906121fa565b11156107ca5760405162461bcd60e51b81526020600482015260116024820152704e6f7420656e6f75676820737570706c7960781b604482015260640161075b565b60008281526009602052604090206005015442106108265760405162461bcd60e51b8152602060048201526019602482015278486f6c64696e6720726577617264206d696e7420636c6f736560381b604482015260640161075b565b336000908152600860209081526040808320858452909152812060010180548392906108539084906121fa565b9091555050600082815260096020526040812060020180548392906108799084906121fa565b9250508190555061089b33838360405180602001604052806000815250611233565b604080514281526020810184905290810182905233907f5a3358a3d27a5373c0df2604662088d37894d56b7cfd27f315770440f4e0d919906060015b60405180910390a25050565b6009602052600090815260409020805460018201805491929161090590612124565b80601f016020809104026020016040519081016040528092919081815260200182805461093190612124565b801561097e5780601f106109535761010080835404028352916020019161097e565b820191906000526020600020905b81548152906001019060200180831161096157829003601f168201915b505050506002830154600384015460048501546005909501549394919360ff909116925086565b336001600160a01b03861681148015906109c657506109c486826110af565b155b156109f75760405163711bec9160e11b81526001600160a01b0380831660048301528716602482015260440161075b565b610a048686868686611290565b505050505050565b610a146112f7565b6005610a208282612259565b5050565b60608151835114610a555781518351604051635b05999160e01b81526004810192909252602482015260440161075b565b600083516001600160401b03811115610a7057610a70611b9e565b604051908082528060200260200182016040528015610a99578160200160208202803683370190505b50905060005b8451811015610ae857602080820286010151610ac390602080840287010151610630565b828281518110610ad557610ad5612317565b6020908102919091010152600101610a9f565b509392505050565b60058054610afd90612124565b80601f0160208091040260200160405190810160405280929190818152602001828054610b2990612124565b8015610b765780601f10610b4b57610100808354040283529160200191610b76565b820191906000526020600020905b815481529060010190602001808311610b5957829003601f168201915b505050505081565b610b866112f7565b610b906000611324565b565b610b9a6112f7565b6006546040516001600160a01b03909116904780156108fc02916000818181858888f19350505050158015610bd3573d6000803e3d6000fd5b50565b610a20338383611376565b610be96112f7565b838214610c4b5760405162461bcd60e51b815260206004820152602a60248201527f4e62206164647265737320616e64206e62207175616e746974696573206d75736044820152691d08189948195c5d585b60b21b606482015260840161075b565b6000805b85811015610d1257848482818110610c6957610c69612317565b9050602002013560086000898985818110610c8657610c86612317565b9050602002016020810190610c9b9190612107565b6001600160a01b03166001600160a01b0316815260200190815260200160002060008581526020019081526020016000206000016000828254610cde91906121fa565b909155508590508482818110610cf657610cf6612317565b9050602002013582610d0891906121fa565b9150600101610c4f565b5060408051868152602081018390527fa82370edbf4f9f8ecf9132eb357d9a171e6cf346954298950049096aa5ac6470910160405180910390a1505050505050565b60008281526009602052604090206003015460ff16610da75760405162461bcd60e51b815260206004820152600f60248201526e21b0b73a10313ab937103a37b5b2b760891b604482015260640161075b565b80610db23384610630565b1015610e005760405162461bcd60e51b815260206004820152601960248201527f4e6f7420656e6f7567687420746f6b656e20746f206275726e00000000000000604482015260640161075b565b610e0b33838361140c565b604080514281526020810184905290810182905233907f4c60206a5c1de41f3376d1d60f0949d96cb682033c90b1c2d9d9a62d4c4120c0906060016108d7565b610e536112f7565b6000908152600960205260409020600301805460ff19811660ff90911615179055565b6001600160a01b0382166000908152600860209081526040808320848452909152812060018101549054610eaa919061232d565b9392505050565b610eb96112f7565b60008281526009602052604090206004810154600290910154610edd9083906121fa565b1115610f1f5760405162461bcd60e51b81526020600482015260116024820152704e6f7420656e6f75676820737570706c7960781b604482015260640161075b565b6000828152600960205260409020600501544210610f7b5760405162461bcd60e51b8152602060048201526019602482015278486f6c64696e6720726577617264206d696e7420636c6f736560381b604482015260640161075b565b60008281526009602052604081206002018054839290610f9c9084906121fa565b92505081905550610fbe83838360405180602001604052806000815250611233565b604080516001600160a01b0385168152602081018490529081018290524260608201527f18cb0e37fe8e047c244ad6f0d39975cd542dd6361fa6314fd067588ee90d52ad9060800160405180910390a1505050565b61101b6112f7565b6040805160c08101825283815260208082018781526000838501819052606084018190526080840188905260a08401869052868152600990925292902081518155915190919060018201906110709082612259565b5060408201516002820155606082015160038201805460ff19169115159190911790556080820151600482015560a09091015160059091015550505050565b6001600160a01b03918216600090815260016020908152604080832093909416825291909152205460ff1690565b336001600160a01b03861681148015906110fe57506110fc86826110af565b155b1561112f5760405163711bec9160e11b81526001600160a01b0380831660048301528716602482015260440161075b565b610a048686868686611474565b6111446112f7565b6001600160a01b03811661116e57604051631e4fbdf760e01b81526000600482015260240161075b565b610bd381611324565b61117f6112f7565b600680546001600160a01b0319166001600160a01b0392909216919091179055565b606060006111ae83611502565b60010190506000816001600160401b038111156111cd576111cd611b9e565b6040519080825280601f01601f1916602001820160405280156111f7576020820181803683370190505b5090508181016020015b600019016f181899199a1a9b1b9c1cb0b131b232b360811b600a86061a8153600a850494508461120157509392505050565b6001600160a01b03841661125d57604051632bfa23e760e11b81526000600482015260240161075b565b60408051600180825260208201869052818301908152606082018590526080820190925290610a046000878484876115da565b6001600160a01b0384166112ba57604051632bfa23e760e11b81526000600482015260240161075b565b6001600160a01b0385166112e357604051626a0d4560e21b81526000600482015260240161075b565b6112f085858585856115da565b5050505050565b6003546001600160a01b03163314610b905760405163118cdaa760e01b815233600482015260240161075b565b600380546001600160a01b038381166001600160a01b0319831681179093556040519116919082907f8be0079c531659141344cd1fd0a4f28419497f9722a3daafe3b4186f6b6457e090600090a35050565b6001600160a01b03821661139f5760405162ced3e160e81b81526000600482015260240161075b565b6001600160a01b03838116600081815260016020908152604080832094871680845294825291829020805460ff191686151590811790915591519182527f17307eab39ab6107e8899845ad3d59bd9653f200f220920489ca2b5937696c31910160405180910390a3505050565b6001600160a01b03831661143557604051626a0d4560e21b81526000600482015260240161075b565b604080516001808252602082018590528183019081526060820184905260a082019092526000608082018181529192916112f0918791859085906115da565b6001600160a01b03841661149e57604051632bfa23e760e11b81526000600482015260240161075b565b6001600160a01b0385166114c757604051626a0d4560e21b81526000600482015260240161075b565b604080516001808252602082018690528183019081526060820185905260808201909252906114f987878484876115da565b50505050505050565b60008072184f03e93ff9f4daa797ed6e38ed64bf6a1f0160401b83106115415772184f03e93ff9f4daa797ed6e38ed64bf6a1f0160401b830492506040015b6d04ee2d6d415b85acef8100000000831061156d576d04ee2d6d415b85acef8100000000830492506020015b662386f26fc10000831061158b57662386f26fc10000830492506010015b6305f5e10083106115a3576305f5e100830492506008015b61271083106115b757612710830492506004015b606483106115c9576064830492506002015b600a83106106525760010192915050565b6115e68585858561162d565b6001600160a01b038416156112f0578251339060010361161f5760208481015190840151611618838989858589611841565b5050610a04565b610a04818787878787611965565b805182511461165c5781518151604051635b05999160e01b81526004810192909252602482015260440161075b565b3360005b8351811015611762576020818102858101820151908501909101516001600160a01b03881615611713576000828152602081815260408083206001600160a01b038c168452909152902054818110156116ec576040516303dee4c560e01b81526001600160a01b038a16600482015260248101829052604481018390526064810184905260840161075b565b6000838152602081815260408083206001600160a01b038d16845290915290209082900390555b6001600160a01b03871615611758576000828152602081815260408083206001600160a01b038b168452909152812080548392906117529084906121fa565b90915550505b5050600101611660565b5082516001036117e35760208301516000906020840151909150856001600160a01b0316876001600160a01b0316846001600160a01b03167fc3d58168c5ae7397731d063d5bbf3d657854427343f4c083240f7aacaa2d0f6285856040516117d4929190918252602082015260400190565b60405180910390a450506112f0565b836001600160a01b0316856001600160a01b0316826001600160a01b03167f4a39dc06d4c0dbc64b70af90fd698a233a518aa5d07e595d983b8c0526c8f7fb8686604051611832929190612340565b60405180910390a45050505050565b6001600160a01b0384163b15610a045760405163f23a6e6160e01b81526001600160a01b0385169063f23a6e6190611885908990899088908890889060040161236e565b6020604051808303816000875af19250505080156118c0575060408051601f3d908101601f191682019092526118bd918101906123b3565b60015b611929573d8080156118ee576040519150601f19603f3d011682016040523d82523d6000602084013e6118f3565b606091505b50805160000361192157604051632bfa23e760e11b81526001600160a01b038616600482015260240161075b565b805181602001fd5b6001600160e01b0319811663f23a6e6160e01b146114f957604051632bfa23e760e11b81526001600160a01b038616600482015260240161075b565b6001600160a01b0384163b15610a045760405163bc197c8160e01b81526001600160a01b0385169063bc197c81906119a990899089908890889088906004016123d0565b6020604051808303816000875af19250505080156119e4575060408051601f3d908101601f191682019092526119e1918101906123b3565b60015b611a12573d8080156118ee576040519150601f19603f3d011682016040523d82523d6000602084013e6118f3565b6001600160e01b0319811663bc197c8160e01b146114f957604051632bfa23e760e11b81526001600160a01b038616600482015260240161075b565b6001600160a01b0381168114610bd357600080fd5b60008060408385031215611a7657600080fd5b8235611a8181611a4e565b946020939093013593505050565b6001600160e01b031981168114610bd357600080fd5b600060208284031215611ab757600080fd5b8135610eaa81611a8f565b600060208284031215611ad457600080fd5b5035919050565b60005b83811015611af6578181015183820152602001611ade565b50506000910152565b60008151808452611b17816020860160208601611adb565b601f01601f19169290920160200192915050565b602081526000610eaa6020830184611aff565b60008060408385031215611b5157600080fd5b50508035926020909101359150565b86815260c060208201526000611b7960c0830188611aff565b6040830196909652509215156060840152608083019190915260a09091015292915050565b634e487b7160e01b600052604160045260246000fd5b604051601f8201601f191681016001600160401b0381118282101715611bdc57611bdc611b9e565b604052919050565b60006001600160401b03821115611bfd57611bfd611b9e565b5060051b60200190565b600082601f830112611c1857600080fd5b8135611c2b611c2682611be4565b611bb4565b8082825260208201915060208360051b860101925085831115611c4d57600080fd5b602085015b83811015611c6a578035835260209283019201611c52565b5095945050505050565b600082601f830112611c8557600080fd5b8135602083016000806001600160401b03841115611ca557611ca5611b9e565b50601f8301601f1916602001611cba81611bb4565b915050828152858383011115611ccf57600080fd5b82826020830137600092810160200192909252509392505050565b600080600080600060a08688031215611d0257600080fd5b8535611d0d81611a4e565b94506020860135611d1d81611a4e565b935060408601356001600160401b03811115611d3857600080fd5b611d4488828901611c07565b93505060608601356001600160401b03811115611d6057600080fd5b611d6c88828901611c07565b92505060808601356001600160401b03811115611d8857600080fd5b611d9488828901611c74565b9150509295509295909350565b600060208284031215611db357600080fd5b81356001600160401b03811115611dc957600080fd5b611dd584828501611c74565b949350505050565b60008060408385031215611df057600080fd5b82356001600160401b03811115611e0657600080fd5b8301601f81018513611e1757600080fd5b8035611e25611c2682611be4565b8082825260208201915060208360051b850101925087831115611e4757600080fd5b6020840193505b82841015611e72578335611e6181611a4e565b825260209384019390910190611e4e565b945050505060208301356001600160401b03811115611e9057600080fd5b611e9c85828601611c07565b9150509250929050565b600081518084526020840193506020830160005b82811015611ed8578151865260209586019590910190600101611eba565b5093949350505050565b602081526000610eaa6020830184611ea6565b60008060408385031215611f0857600080fd5b8235611f1381611a4e565b915060208301358015158114611f2857600080fd5b809150509250929050565b60008083601f840112611f4557600080fd5b5081356001600160401b03811115611f5c57600080fd5b6020830191508360208260051b8501011115611f7757600080fd5b9250929050565b600080600080600060608688031215611f9657600080fd5b85356001600160401b03811115611fac57600080fd5b611fb888828901611f33565b90965094505060208601356001600160401b03811115611fd757600080fd5b611fe388828901611f33565b96999598509660400135949350505050565b60008060006060848603121561200a57600080fd5b833561201581611a4e565b95602085013595506040909401359392505050565b6000806000806080858703121561204057600080fd5b84356001600160401b0381111561205657600080fd5b61206287828801611c74565b97602087013597506040870135966060013595509350505050565b6000806040838503121561209057600080fd5b823561209b81611a4e565b91506020830135611f2881611a4e565b600080600080600060a086880312156120c357600080fd5b85356120ce81611a4e565b945060208601356120de81611a4e565b9350604086013592506060860135915060808601356001600160401b03811115611d8857600080fd5b60006020828403121561211957600080fd5b8135610eaa81611a4e565b600181811c9082168061213857607f821691505b60208210810361215857634e487b7160e01b600052602260045260246000fd5b50919050565b600080845461216c81612124565b6001821680156121835760018114612198576121c8565b60ff19831686528115158202860193506121c8565b87600052602060002060005b838110156121c0578154888201526001909101906020016121a4565b505081860193505b50505083516121db818360208801611adb565b01949350505050565b634e487b7160e01b600052601160045260246000fd5b80820180821115610652576106526121e4565b601f82111561225457806000526020600020601f840160051c810160208510156122345750805b601f840160051c820191505b818110156112f05760008155600101612240565b505050565b81516001600160401b0381111561227257612272611b9e565b612286816122808454612124565b8461220d565b6020601f8211600181146122ba57600083156122a25750848201515b600019600385901b1c1916600184901b1784556112f0565b600084815260208120601f198516915b828110156122ea57878501518255602094850194600190920191016122ca565b50848210156123085786840151600019600387901b60f8161c191681555b50505050600190811b01905550565b634e487b7160e01b600052603260045260246000fd5b81810381811115610652576106526121e4565b6040815260006123536040830185611ea6565b82810360208401526123658185611ea6565b95945050505050565b6001600160a01b03868116825285166020820152604081018490526060810183905260a0608082018190526000906123a890830184611aff565b979650505050505050565b6000602082840312156123c557600080fd5b8151610eaa81611a8f565b6001600160a01b0386811682528516602082015260a0604082018190526000906123fc90830186611ea6565b828103606084015261240e8186611ea6565b905082810360808401526124228185611aff565b9897505050505050505056fea264697066735822122073682e2acc52dfe9ff87719f052c3431e23aa1c222ae2e02f6a5b5e0429750d064736f6c634300081a003368747470733a2f2f6d6574616c6567656e64732e6d7970696e6174612e636c6f75642f697066732f516d664e5a733941473352505439716b3247324b4b61377732674c5474744242715458506a5a5954766b4d7064782f",
    "linkReferences": {}
  },
  "methodIdentifiers": {
    "ID_CELESTIAL_SNIPER()": "1ae49ed6",
    "ID_CYBER_PET()": "3e67b682",
    "ID_GOLDBOI_VEHICLE()": "1fb4b4f6",
    "ID_GOLDBOI_WEAPON()": "aac927ce",
    "ID_ROUGH_ARMOR()": "d0a85ba1",
    "_setBaseURI(string)": "31b5b907",
    "addEligilities(address[],uint256[],uint256)": "a5ea8738",
    "addToken(string,uint256,uint256,uint256)": "e5889f01",
    "airdrop(address,uint256,uint256)": "e1bc2967",
    "balanceOf(address,uint256)": "00fdd58e",
    "balanceOfBatch(address[],uint256[])": "4e1273f4",
    "baseURI()": "6c0360eb",
    "burn(uint256,uint256)": "b390c0ab",
    "collector()": "913e77ad",
    "holderEligibilities(address,uint256)": "7672e1b6",
    "isApprovedForAll(address,address)": "e985e9c5",
    "isBurnable(uint256)": "c6f88d4a",
    "mint(uint256,uint256)": "1b2ef1ca",
    "originOwner()": "282e7811",
    "owner()": "8da5cb5b",
    "remaining(address,uint256)": "e1a977ec",
    "renounceOwnership()": "715018a6",
    "safeBatchTransferFrom(address,address,uint256[],uint256[],bytes)": "2eb2c2d6",
    "safeTransferFrom(address,address,uint256,uint256,bytes)": "f242432a",
    "setApprovalForAll(address,bool)": "a22cb465",
    "setCollector(address)": "fb5b82d0",
    "supportsInterface(bytes4)": "01ffc9a7",
    "toggleTokenBurnable(uint256)": "d912a023",
    "tokenCollection(uint256)": "2dd883e8",
    "transferOwnership(address)": "f2fde38b",
    "uri(uint256)": "0e89341c",
    "withdrawAll()": "853828b6"
  },
  "id": 35
}