{
  "contractName": "MetaLifeOgPets",
  "abi": [
    {
      "inputs": [],
      "stateMutability": "nonpayable",
      "type": "constructor"
    },
    {
      "inputs": [],
      "name": "AccountBalanceOverflow",
      "type": "error"
    },
    {
      "inputs": [],
      "name": "BalanceQueryForZeroAddress",
      "type": "error"
    },
    {
      "inputs": [],
      "name": "ContractsCannotMint",
      "type": "error"
    },
    {
      "inputs": [],
      "name": "MustMintAtLeastOneToken",
      "type": "error"
    },
    {
      "inputs": [],
      "name": "NotEnoughAvailableTokens",
      "type": "error"
    },
    {
      "inputs": [],
      "name": "NotOwnerNorApproved",
      "type": "error"
    },
    {
      "inputs": [],
      "name": "TokenAlreadyExists",
      "type": "error"
    },
    {
      "inputs": [],
      "name": "TokenDoesNotExist",
      "type": "error"
    },
    {
      "inputs": [],
      "name": "TransferFromIncorrectOwner",
      "type": "error"
    },
    {
      "inputs": [],
      "name": "TransferToNonERC721ReceiverImplementer",
      "type": "error"
    },
    {
      "inputs": [],
      "name": "TransferToZeroAddress",
      "type": "error"
    },
    {
      "anonymous": false,
      "inputs": [
        {
          "indexed": true,
          "internalType": "address",
          "name": "owner",
          "type": "address"
        },
        {
          "indexed": true,
          "internalType": "address",
          "name": "account",
          "type": "address"
        },
        {
          "indexed": true,
          "internalType": "uint256",
          "name": "id",
          "type": "uint256"
        }
      ],
      "name": "Approval",
      "type": "event"
    },
    {
      "anonymous": false,
      "inputs": [
        {
          "indexed": true,
          "internalType": "address",
          "name": "owner",
          "type": "address"
        },
        {
          "indexed": true,
          "internalType": "address",
          "name": "operator",
          "type": "address"
        },
        {
          "indexed": false,
          "internalType": "bool",
          "name": "isApproved",
          "type": "bool"
        }
      ],
      "name": "ApprovalForAll",
      "type": "event"
    },
    {
      "anonymous": false,
      "inputs": [
        {
          "indexed": true,
          "internalType": "address",
          "name": "from",
          "type": "address"
        },
        {
          "indexed": false,
          "internalType": "uint256",
          "name": "timestamp",
          "type": "uint256"
        },
        {
          "indexed": false,
          "internalType": "uint256[]",
          "name": "tokenIds",
          "type": "uint256[]"
        }
      ],
      "name": "MintedCouncil",
      "type": "event"
    },
    {
      "anonymous": false,
      "inputs": [
        {
          "indexed": true,
          "internalType": "address",
          "name": "from",
          "type": "address"
        },
        {
          "indexed": false,
          "internalType": "uint256",
          "name": "timestamp",
          "type": "uint256"
        },
        {
          "indexed": false,
          "internalType": "uint256",
          "name": "tokenId",
          "type": "uint256"
        }
      ],
      "name": "MintedGiveway",
      "type": "event"
    },
    {
      "anonymous": false,
      "inputs": [
        {
          "indexed": true,
          "internalType": "address",
          "name": "from",
          "type": "address"
        },
        {
          "indexed": false,
          "internalType": "uint256",
          "name": "timestamp",
          "type": "uint256"
        },
        {
          "indexed": false,
          "internalType": "uint256",
          "name": "tokenId",
          "type": "uint256"
        }
      ],
      "name": "MintedGuardian",
      "type": "event"
    },
    {
      "anonymous": false,
      "inputs": [
        {
          "indexed": true,
          "internalType": "address",
          "name": "from",
          "type": "address"
        },
        {
          "indexed": false,
          "internalType": "uint256",
          "name": "timestamp",
          "type": "uint256"
        },
        {
          "indexed": false,
          "internalType": "uint256",
          "name": "tokenId",
          "type": "uint256"
        }
      ],
      "name": "MintedHonorary",
      "type": "event"
    },
    {
      "anonymous": false,
      "inputs": [
        {
          "indexed": true,
          "internalType": "address",
          "name": "from",
          "type": "address"
        },
        {
          "indexed": false,
          "internalType": "uint256",
          "name": "timestamp",
          "type": "uint256"
        },
        {
          "indexed": false,
          "internalType": "uint256",
          "name": "tokenId",
          "type": "uint256"
        }
      ],
      "name": "MintedJudge",
      "type": "event"
    },
    {
      "anonymous": false,
      "inputs": [
        {
          "indexed": true,
          "internalType": "address",
          "name": "from",
          "type": "address"
        },
        {
          "indexed": false,
          "internalType": "uint256",
          "name": "timestamp",
          "type": "uint256"
        }
      ],
      "name": "MintedRandom",
      "type": "event"
    },
    {
      "anonymous": false,
      "inputs": [
        {
          "indexed": true,
          "internalType": "address",
          "name": "from",
          "type": "address"
        },
        {
          "indexed": false,
          "internalType": "uint256",
          "name": "timestamp",
          "type": "uint256"
        },
        {
          "indexed": false,
          "internalType": "uint256",
          "name": "tokenId",
          "type": "uint256"
        }
      ],
      "name": "MintedWhale",
      "type": "event"
    },
    {
      "anonymous": false,
      "inputs": [
        {
          "indexed": true,
          "internalType": "address",
          "name": "previousOwner",
          "type": "address"
        },
        {
          "indexed": true,
          "internalType": "address",
          "name": "newOwner",
          "type": "address"
        }
      ],
      "name": "OwnershipTransferred",
      "type": "event"
    },
    {
      "anonymous": false,
      "inputs": [
        {
          "indexed": true,
          "internalType": "address",
          "name": "from",
          "type": "address"
        },
        {
          "indexed": true,
          "internalType": "address",
          "name": "to",
          "type": "address"
        },
        {
          "indexed": true,
          "internalType": "uint256",
          "name": "id",
          "type": "uint256"
        }
      ],
      "name": "Transfer",
      "type": "event"
    },
    {
      "inputs": [
        {
          "internalType": "address",
          "name": "account",
          "type": "address"
        },
        {
          "internalType": "uint256",
          "name": "id",
          "type": "uint256"
        }
      ],
      "name": "approve",
      "outputs": [],
      "stateMutability": "payable",
      "type": "function",
      "payable": true
    },
    {
      "inputs": [
        {
          "internalType": "address",
          "name": "owner",
          "type": "address"
        }
      ],
      "name": "balanceOf",
      "outputs": [
        {
          "internalType": "uint256",
          "name": "result",
          "type": "uint256"
        }
      ],
      "stateMutability": "view",
      "type": "function",
      "constant": true
    },
    {
      "inputs": [],
      "name": "baseURI",
      "outputs": [
        {
          "internalType": "string",
          "name": "",
          "type": "string"
        }
      ],
      "stateMutability": "view",
      "type": "function",
      "constant": true
    },
    {
      "inputs": [
        {
          "internalType": "uint256",
          "name": "id",
          "type": "uint256"
        }
      ],
      "name": "getApproved",
      "outputs": [
        {
          "internalType": "address",
          "name": "result",
          "type": "address"
        }
      ],
      "stateMutability": "view",
      "type": "function",
      "constant": true
    },
    {
      "inputs": [
        {
          "internalType": "address",
          "name": "owner",
          "type": "address"
        },
        {
          "internalType": "address",
          "name": "operator",
          "type": "address"
        }
      ],
      "name": "isApprovedForAll",
      "outputs": [
        {
          "internalType": "bool",
          "name": "result",
          "type": "bool"
        }
      ],
      "stateMutability": "view",
      "type": "function",
      "constant": true
    },
    {
      "inputs": [],
      "name": "limitMintSpecific",
      "outputs": [
        {
          "internalType": "uint256",
          "name": "",
          "type": "uint256"
        }
      ],
      "stateMutability": "view",
      "type": "function",
      "constant": true
    },
    {
      "inputs": [],
      "name": "mainMaxSupply",
      "outputs": [
        {
          "internalType": "uint16",
          "name": "",
          "type": "uint16"
        }
      ],
      "stateMutability": "view",
      "type": "function",
      "constant": true
    },
    {
      "inputs": [],
      "name": "maxSupply",
      "outputs": [
        {
          "internalType": "uint256",
          "name": "",
          "type": "uint256"
        }
      ],
      "stateMutability": "view",
      "type": "function",
      "constant": true
    },
    {
      "inputs": [],
      "name": "maxSupplyCouncil",
      "outputs": [
        {
          "internalType": "uint16",
          "name": "",
          "type": "uint16"
        }
      ],
      "stateMutability": "view",
      "type": "function",
      "constant": true
    },
    {
      "inputs": [],
      "name": "maxSupplyGuardian",
      "outputs": [
        {
          "internalType": "uint16",
          "name": "",
          "type": "uint16"
        }
      ],
      "stateMutability": "view",
      "type": "function",
      "constant": true
    },
    {
      "inputs": [],
      "name": "maxSupplyHonorary",
      "outputs": [
        {
          "internalType": "uint16",
          "name": "",
          "type": "uint16"
        }
      ],
      "stateMutability": "view",
      "type": "function",
      "constant": true
    },
    {
      "inputs": [],
      "name": "maxSupplyJudge",
      "outputs": [
        {
          "internalType": "uint16",
          "name": "",
          "type": "uint16"
        }
      ],
      "stateMutability": "view",
      "type": "function",
      "constant": true
    },
    {
      "inputs": [],
      "name": "maxSupplyWhale",
      "outputs": [
        {
          "internalType": "uint16",
          "name": "",
          "type": "uint16"
        }
      ],
      "stateMutability": "view",
      "type": "function",
      "constant": true
    },
    {
      "inputs": [],
      "name": "name",
      "outputs": [
        {
          "internalType": "string",
          "name": "",
          "type": "string"
        }
      ],
      "stateMutability": "view",
      "type": "function",
      "constant": true
    },
    {
      "inputs": [],
      "name": "nbMintedCouncil",
      "outputs": [
        {
          "internalType": "uint16",
          "name": "",
          "type": "uint16"
        }
      ],
      "stateMutability": "view",
      "type": "function",
      "constant": true
    },
    {
      "inputs": [],
      "name": "nbMintedGuardian",
      "outputs": [
        {
          "internalType": "uint16",
          "name": "",
          "type": "uint16"
        }
      ],
      "stateMutability": "view",
      "type": "function",
      "constant": true
    },
    {
      "inputs": [],
      "name": "nbMintedHonorary",
      "outputs": [
        {
          "internalType": "uint16",
          "name": "",
          "type": "uint16"
        }
      ],
      "stateMutability": "view",
      "type": "function",
      "constant": true
    },
    {
      "inputs": [],
      "name": "nbMintedJudge",
      "outputs": [
        {
          "internalType": "uint16",
          "name": "",
          "type": "uint16"
        }
      ],
      "stateMutability": "view",
      "type": "function",
      "constant": true
    },
    {
      "inputs": [],
      "name": "nbMintedWhale",
      "outputs": [
        {
          "internalType": "uint16",
          "name": "",
          "type": "uint16"
        }
      ],
      "stateMutability": "view",
      "type": "function",
      "constant": true
    },
    {
      "inputs": [
        {
          "internalType": "address",
          "name": "minter",
          "type": "address"
        }
      ],
      "name": "numberMinted",
      "outputs": [
        {
          "internalType": "uint32",
          "name": "",
          "type": "uint32"
        }
      ],
      "stateMutability": "view",
      "type": "function",
      "constant": true
    },
    {
      "inputs": [],
      "name": "owner",
      "outputs": [
        {
          "internalType": "address",
          "name": "",
          "type": "address"
        }
      ],
      "stateMutability": "view",
      "type": "function",
      "constant": true
    },
    {
      "inputs": [
        {
          "internalType": "uint256",
          "name": "id",
          "type": "uint256"
        }
      ],
      "name": "ownerOf",
      "outputs": [
        {
          "internalType": "address",
          "name": "result",
          "type": "address"
        }
      ],
      "stateMutability": "view",
      "type": "function",
      "constant": true
    },
    {
      "inputs": [],
      "name": "remainingSupply",
      "outputs": [
        {
          "internalType": "uint256",
          "name": "",
          "type": "uint256"
        }
      ],
      "stateMutability": "view",
      "type": "function",
      "constant": true
    },
    {
      "inputs": [],
      "name": "renounceOwnership",
      "outputs": [],
      "stateMutability": "nonpayable",
      "type": "function"
    },
    {
      "inputs": [
        {
          "internalType": "address",
          "name": "from",
          "type": "address"
        },
        {
          "internalType": "address",
          "name": "to",
          "type": "address"
        },
        {
          "internalType": "uint256",
          "name": "id",
          "type": "uint256"
        }
      ],
      "name": "safeTransferFrom",
      "outputs": [],
      "stateMutability": "payable",
      "type": "function",
      "payable": true
    },
    {
      "inputs": [
        {
          "internalType": "address",
          "name": "from",
          "type": "address"
        },
        {
          "internalType": "address",
          "name": "to",
          "type": "address"
        },
        {
          "internalType": "uint256",
          "name": "id",
          "type": "uint256"
        },
        {
          "internalType": "bytes",
          "name": "data",
          "type": "bytes"
        }
      ],
      "name": "safeTransferFrom",
      "outputs": [],
      "stateMutability": "payable",
      "type": "function",
      "payable": true
    },
    {
      "inputs": [
        {
          "internalType": "address",
          "name": "operator",
          "type": "address"
        },
        {
          "internalType": "bool",
          "name": "isApproved",
          "type": "bool"
        }
      ],
      "name": "setApprovalForAll",
      "outputs": [],
      "stateMutability": "nonpayable",
      "type": "function"
    },
    {
      "inputs": [
        {
          "internalType": "bytes4",
          "name": "interfaceId",
          "type": "bytes4"
        }
      ],
      "name": "supportsInterface",
      "outputs": [
        {
          "internalType": "bool",
          "name": "result",
          "type": "bool"
        }
      ],
      "stateMutability": "view",
      "type": "function",
      "constant": true
    },
    {
      "inputs": [],
      "name": "symbol",
      "outputs": [
        {
          "internalType": "string",
          "name": "",
          "type": "string"
        }
      ],
      "stateMutability": "view",
      "type": "function",
      "constant": true
    },
    {
      "inputs": [],
      "name": "totalSupply",
      "outputs": [
        {
          "internalType": "uint256",
          "name": "",
          "type": "uint256"
        }
      ],
      "stateMutability": "view",
      "type": "function",
      "constant": true
    },
    {
      "inputs": [
        {
          "internalType": "address",
          "name": "from",
          "type": "address"
        },
        {
          "internalType": "address",
          "name": "to",
          "type": "address"
        },
        {
          "internalType": "uint256",
          "name": "id",
          "type": "uint256"
        }
      ],
      "name": "transferFrom",
      "outputs": [],
      "stateMutability": "payable",
      "type": "function",
      "payable": true
    },
    {
      "inputs": [
        {
          "internalType": "address",
          "name": "newOwner",
          "type": "address"
        }
      ],
      "name": "transferOwnership",
      "outputs": [],
      "stateMutability": "nonpayable",
      "type": "function"
    },
    {
      "inputs": [],
      "name": "withdrawAll",
      "outputs": [],
      "stateMutability": "payable",
      "type": "function",
      "payable": true
    },
    {
      "inputs": [
        {
          "internalType": "address payable",
          "name": "_newCollector",
          "type": "address"
        }
      ],
      "name": "setCollector",
      "outputs": [],
      "stateMutability": "nonpayable",
      "type": "function"
    },
    {
      "inputs": [
        {
          "internalType": "string",
          "name": "_newBaseURI",
          "type": "string"
        }
      ],
      "name": "_setBaseURI",
      "outputs": [],
      "stateMutability": "nonpayable",
      "type": "function"
    },
    {
      "inputs": [
        {
          "internalType": "uint256",
          "name": "tokenId",
          "type": "uint256"
        }
      ],
      "name": "tokenURI",
      "outputs": [
        {
          "internalType": "string",
          "name": "",
          "type": "string"
        }
      ],
      "stateMutability": "view",
      "type": "function",
      "constant": true
    },
    {
      "inputs": [
        {
          "internalType": "address[]",
          "name": "_toAddAddresses",
          "type": "address[]"
        },
        {
          "internalType": "uint8[]",
          "name": "_quantities",
          "type": "uint8[]"
        }
      ],
      "name": "addAddressesRandom",
      "outputs": [],
      "stateMutability": "nonpayable",
      "type": "function"
    },
    {
      "inputs": [
        {
          "internalType": "address[]",
          "name": "_toAddAddresses",
          "type": "address[]"
        },
        {
          "internalType": "uint8[]",
          "name": "_quantities",
          "type": "uint8[]"
        }
      ],
      "name": "addAddressesCouncil",
      "outputs": [],
      "stateMutability": "nonpayable",
      "type": "function"
    },
    {
      "inputs": [
        {
          "internalType": "address[]",
          "name": "_toAddAddresses",
          "type": "address[]"
        }
      ],
      "name": "addAddressesHonorary",
      "outputs": [],
      "stateMutability": "nonpayable",
      "type": "function"
    },
    {
      "inputs": [
        {
          "internalType": "address[]",
          "name": "_toAddAddresses",
          "type": "address[]"
        }
      ],
      "name": "addAddressesGuardian",
      "outputs": [],
      "stateMutability": "nonpayable",
      "type": "function"
    },
    {
      "inputs": [
        {
          "internalType": "address[]",
          "name": "_toAddAddresses",
          "type": "address[]"
        }
      ],
      "name": "addAddressesJudge",
      "outputs": [],
      "stateMutability": "nonpayable",
      "type": "function"
    },
    {
      "inputs": [
        {
          "internalType": "address[]",
          "name": "_toAddAddresses",
          "type": "address[]"
        },
        {
          "internalType": "uint8[]",
          "name": "_quantities",
          "type": "uint8[]"
        }
      ],
      "name": "addAddressesWhale",
      "outputs": [],
      "stateMutability": "nonpayable",
      "type": "function"
    },
    {
      "inputs": [
        {
          "internalType": "address",
          "name": "_wallet",
          "type": "address"
        }
      ],
      "name": "addressClaimbleRandom",
      "outputs": [
        {
          "internalType": "uint8",
          "name": "",
          "type": "uint8"
        }
      ],
      "stateMutability": "view",
      "type": "function",
      "constant": true
    },
    {
      "inputs": [
        {
          "internalType": "address",
          "name": "_wallet",
          "type": "address"
        }
      ],
      "name": "addressClaimbleCouncil",
      "outputs": [
        {
          "internalType": "uint8",
          "name": "",
          "type": "uint8"
        }
      ],
      "stateMutability": "view",
      "type": "function",
      "constant": true
    },
    {
      "inputs": [
        {
          "internalType": "address",
          "name": "_wallet",
          "type": "address"
        }
      ],
      "name": "addressClaimbleHonorary",
      "outputs": [
        {
          "internalType": "uint8",
          "name": "",
          "type": "uint8"
        }
      ],
      "stateMutability": "view",
      "type": "function",
      "constant": true
    },
    {
      "inputs": [
        {
          "internalType": "address",
          "name": "_wallet",
          "type": "address"
        }
      ],
      "name": "addressClaimbleGuardian",
      "outputs": [
        {
          "internalType": "uint8",
          "name": "",
          "type": "uint8"
        }
      ],
      "stateMutability": "view",
      "type": "function",
      "constant": true
    },
    {
      "inputs": [
        {
          "internalType": "address",
          "name": "_wallet",
          "type": "address"
        }
      ],
      "name": "addressClaimbleJudge",
      "outputs": [
        {
          "internalType": "uint8",
          "name": "",
          "type": "uint8"
        }
      ],
      "stateMutability": "view",
      "type": "function",
      "constant": true
    },
    {
      "inputs": [
        {
          "internalType": "address",
          "name": "_wallet",
          "type": "address"
        }
      ],
      "name": "addressClaimbleWhale",
      "outputs": [
        {
          "internalType": "uint8",
          "name": "",
          "type": "uint8"
        }
      ],
      "stateMutability": "view",
      "type": "function",
      "constant": true
    },
    {
      "inputs": [
        {
          "internalType": "uint8",
          "name": "_nb",
          "type": "uint8"
        }
      ],
      "name": "mintRandom",
      "outputs": [],
      "stateMutability": "nonpayable",
      "type": "function"
    },
    {
      "inputs": [],
      "name": "mainTotalSupply",
      "outputs": [
        {
          "internalType": "uint256",
          "name": "",
          "type": "uint256"
        }
      ],
      "stateMutability": "view",
      "type": "function",
      "constant": true
    },
    {
      "inputs": [
        {
          "internalType": "uint256",
          "name": "_nb",
          "type": "uint256"
        }
      ],
      "name": "mintCouncil",
      "outputs": [],
      "stateMutability": "nonpayable",
      "type": "function"
    },
    {
      "inputs": [],
      "name": "mintHonorary",
      "outputs": [],
      "stateMutability": "nonpayable",
      "type": "function"
    },
    {
      "inputs": [],
      "name": "mintGuardian",
      "outputs": [],
      "stateMutability": "nonpayable",
      "type": "function"
    },
    {
      "inputs": [],
      "name": "mintJudge",
      "outputs": [],
      "stateMutability": "nonpayable",
      "type": "function"
    },
    {
      "inputs": [],
      "name": "mintWhale",
      "outputs": [],
      "stateMutability": "nonpayable",
      "type": "function"
    },
    {
      "inputs": [
        {
          "internalType": "uint256",
          "name": "tokenId",
          "type": "uint256"
        }
      ],
      "name": "tokenExist",
      "outputs": [
        {
          "internalType": "bool",
          "name": "",
          "type": "bool"
        }
      ],
      "stateMutability": "view",
      "type": "function",
      "constant": true
    },
    {
      "inputs": [
        {
          "internalType": "uint256[]",
          "name": "_tokenIdsAvailable",
          "type": "uint256[]"
        }
      ],
      "name": "setTokenAvailables",
      "outputs": [],
      "stateMutability": "nonpayable",
      "type": "function"
    },
    {
      "inputs": [],
      "name": "getTokenAvailables",
      "outputs": [
        {
          "internalType": "uint256[]",
          "name": "",
          "type": "uint256[]"
        }
      ],
      "stateMutability": "view",
      "type": "function",
      "constant": true
    },
    {
      "inputs": [],
      "name": "countTokenAvailables",
      "outputs": [
        {
          "internalType": "uint256",
          "name": "",
          "type": "uint256"
        }
      ],
      "stateMutability": "view",
      "type": "function",
      "constant": true
    },
    {
      "inputs": [
        {
          "internalType": "address[]",
          "name": "_toAddAddresses",
          "type": "address[]"
        }
      ],
      "name": "addAddressesGiveway",
      "outputs": [],
      "stateMutability": "nonpayable",
      "type": "function"
    },
    {
      "inputs": [],
      "name": "mintGiveway",
      "outputs": [],
      "stateMutability": "nonpayable",
      "type": "function"
    }
  ],
  "bytecode": "0x60a06040526105dc600760006101000a81548161ffff021916908361ffff1602179055506000600760026101000a81548161ffff021916908361ffff1602179055506000600760046101000a81548161ffff021916908361ffff1602179055506000600760066101000a81548161ffff021916908361ffff1602179055506000600760086101000a81548161ffff021916908361ffff16021790555060006007600a6101000a81548161ffff021916908361ffff1602179055506101316007600c6101000a81548161ffff021916908361ffff16021790555060426007600e6101000a81548161ffff021916908361ffff1602179055506024600760106101000a81548161ffff021916908361ffff160217905550600b600760126101000a81548161ffff021916908361ffff160217905550601a600760146101000a81548161ffff021916908361ffff1602179055506000600855610421600b60006101000a81548161ffff021916908361ffff160217905550610552600d60006101000a81548161ffff021916908361ffff160217905550610594600f60006101000a81548161ffff021916908361ffff1602179055506105b8601160006101000a81548161ffff021916908361ffff1602179055506105c3601360006101000a81548161ffff021916908361ffff1602179055506000601560006101000a81548161ffff021916908361ffff1602179055503480156200021b57600080fd5b506040518060400160405280601081526020017f4d6574614c696665204f472050657473000000000000000000000000000000008152506040518060400160405280600381526020017f4d4c5000000000000000000000000000000000000000000000000000000000008152506104206001600081905550620002b3620002a76200030660201b60201c565b6200030e60201b60201c565b8260029081620002c491906200064e565b508160039081620002d691906200064e565b5080608081815250508060058190555050505062f099c042620002fa919062000764565b6008819055506200079f565b600033905090565b6000600160009054906101000a900473ffffffffffffffffffffffffffffffffffffffff16905081600160006101000a81548173ffffffffffffffffffffffffffffffffffffffff021916908373ffffffffffffffffffffffffffffffffffffffff1602179055508173ffffffffffffffffffffffffffffffffffffffff168173ffffffffffffffffffffffffffffffffffffffff167f8be0079c531659141344cd1fd0a4f28419497f9722a3daafe3b4186f6b6457e060405160405180910390a35050565b600081519050919050565b7f4e487b7100000000000000000000000000000000000000000000000000000000600052604160045260246000fd5b7f4e487b7100000000000000000000000000000000000000000000000000000000600052602260045260246000fd5b600060028204905060018216806200045657607f821691505b6020821081036200046c576200046b6200040e565b5b50919050565b60008190508160005260206000209050919050565b60006020601f8301049050919050565b600082821b905092915050565b600060088302620004d67fffffffffffffffffffffffffffffffffffffffffffffffffffffffffffffffff8262000497565b620004e2868362000497565b95508019841693508086168417925050509392505050565b6000819050919050565b6000819050919050565b60006200052f620005296200052384620004fa565b62000504565b620004fa565b9050919050565b6000819050919050565b6200054b836200050e565b620005636200055a8262000536565b848454620004a4565b825550505050565b600090565b6200057a6200056b565b6200058781848462000540565b505050565b5b81811015620005af57620005a360008262000570565b6001810190506200058d565b5050565b601f821115620005fe57620005c88162000472565b620005d38462000487565b81016020851015620005e3578190505b620005fb620005f28562000487565b8301826200058c565b50505b505050565b600082821c905092915050565b6000620006236000198460080262000603565b1980831691505092915050565b60006200063e838362000610565b9150826002028217905092915050565b6200065982620003d4565b67ffffffffffffffff811115620006755762000674620003df565b5b6200068182546200043d565b6200068e828285620005b3565b600060209050601f831160018114620006c65760008415620006b1578287015190505b620006bd858262000630565b8655506200072d565b601f198416620006d68662000472565b60005b828110156200070057848901518255600182019150602085019450602081019050620006d9565b868310156200072057848901516200071c601f89168262000610565b8355505b6001600288020188555050505b505050505050565b7f4e487b7100000000000000000000000000000000000000000000000000000000600052601160045260246000fd5b60006200077182620004fa565b91506200077e83620004fa565b925082820190508082111562000799576200079862000735565b5b92915050565b6080516159e3620007c9600039600081816115d701528181611a720152612f1401526159e36000f3fe6080604052600436106103a15760003560e01c8063715018a6116101e7578063b88d4fde1161010d578063dcc4d445116100a0578063f2fde38b1161006f578063f2fde38b14610d5c578063f6d8853614610d85578063fb5b82d014610d9c578063fc89067914610dc5576103a1565b8063dcc4d44514610c8e578063e985e9c514610cb7578063ea3d741814610cf4578063f058a4d114610d1f576103a1565b8063d5abeb01116100dc578063d5abeb0114610bd2578063d8ae7c9d14610bfd578063da0239a614610c26578063dc33e68114610c51576103a1565b8063b88d4fde14610b25578063c733fe0d14610b41578063c87b56dd14610b58578063cc0c523614610b95576103a1565b8063916ec2c611610185578063a2cd568911610154578063a2cd568914610a67578063a58a426d14610a92578063a7c7021314610abd578063acc34a3e14610ae8576103a1565b8063916ec2c6146109bd57806391ec4b4c146109e857806395d89b4114610a13578063a22cb46514610a3e576103a1565b8063853828b6116101c1578063853828b6146109205780638b4303a61461092a5780638b4f6325146109555780638da5cb5b14610992576103a1565b8063715018a6146108b5578063787b9712146108cc5780637ca470b1146108f5576103a1565b80632db5b8e7116102cc578063468409ce1161026a5780636902e20d116102395780636902e20d146107e75780636c0360eb146108105780636d632d891461083b57806370a0823114610878576103a1565b8063468409ce1461072b57806346fbed6f146107545780636352211e1461077f5780636802e529146107bc576103a1565b8063376dde7f116102a6578063376dde7f14610692578063376e1b1f146106bb57806337e49eed146106d257806342842e0e1461070f576103a1565b80632db5b8e71461061557806331b5b9071461063e57806333a3600714610667576103a1565b8063095ea7b31161034457806322d1464c1161031357806322d1464c1461057c57806323b872dd146105a5578063257e7ff4146105c15780632b9c3bf4146105ec576103a1565b8063095ea7b3146104e15780630ff9cc6b146104fd57806318160ddd146105265780631d490ee314610551576103a1565b806306fdde031161038057806306fdde031461041157806307c3841d1461043c57806307edf9ef14610479578063081812fc146104a4576103a1565b80627c3566146103a657806301ffc9a7146103bd578063022c0199146103fa575b600080fd5b3480156103b257600080fd5b506103bb610df0565b005b3480156103c957600080fd5b506103e460048036038101906103df9190613f59565b61108c565b6040516103f19190613fa1565b60405180910390f35b34801561040657600080fd5b5061040f6110b1565b005b34801561041d57600080fd5b5061042661134d565b604051610433919061404c565b60405180910390f35b34801561044857600080fd5b50610463600480360381019061045e91906140cc565b6113df565b6040516104709190614115565b60405180910390f35b34801561048557600080fd5b5061048e611435565b60405161049b919061414d565b60405180910390f35b3480156104b057600080fd5b506104cb60048036038101906104c6919061419e565b611449565b6040516104d891906141da565b60405180910390f35b6104fb60048036038101906104f691906141f5565b6114a3565b005b34801561050957600080fd5b50610524600480360381019061051f91906142f0565b6114b2565b005b34801561053257600080fd5b5061053b6115d0565b6040516105489190614380565b60405180910390f35b34801561055d57600080fd5b50610566611605565b604051610573919061414d565b60405180910390f35b34801561058857600080fd5b506105a3600480360381019061059e919061439b565b611619565b005b6105bf60048036038101906105ba91906143e8565b6116c7565b005b3480156105cd57600080fd5b506105d661180f565b6040516105e39190614380565b60405180910390f35b3480156105f857600080fd5b50610613600480360381019061060e91906142f0565b611815565b005b34801561062157600080fd5b5061063c60048036038101906106379190614467565b611933565b005b34801561064a57600080fd5b50610665600480360381019061066091906145c4565b611c26565b005b34801561067357600080fd5b5061067c611c41565b6040516106899190614380565b60405180910390f35b34801561069e57600080fd5b506106b960048036038101906106b4919061439b565b611ceb565b005b3480156106c757600080fd5b506106d0611d99565b005b3480156106de57600080fd5b506106f960048036038101906106f491906140cc565b612035565b6040516107069190614115565b60405180910390f35b610729600480360381019061072491906143e8565b61208b565b005b34801561073757600080fd5b50610752600480360381019061074d919061439b565b6120c5565b005b34801561076057600080fd5b50610769612173565b604051610776919061414d565b60405180910390f35b34801561078b57600080fd5b506107a660048036038101906107a1919061419e565b612187565b6040516107b391906141da565b60405180910390f35b3480156107c857600080fd5b506107d16121ac565b6040516107de919061414d565b60405180910390f35b3480156107f357600080fd5b5061080e6004803603810190610809919061419e565b6121c0565b005b34801561081c57600080fd5b506108256125ec565b604051610832919061404c565b60405180910390f35b34801561084757600080fd5b50610862600480360381019061085d91906140cc565b61267a565b60405161086f9190614115565b60405180910390f35b34801561088457600080fd5b5061089f600480360381019061089a91906140cc565b6126d0565b6040516108ac9190614380565b60405180910390f35b3480156108c157600080fd5b506108ca612720565b005b3480156108d857600080fd5b506108f360048036038101906108ee91906142f0565b612734565b005b34801561090157600080fd5b5061090a612852565b604051610917919061414d565b60405180910390f35b610928612866565b005b34801561093657600080fd5b5061093f6128d9565b60405161094c919061414d565b60405180910390f35b34801561096157600080fd5b5061097c600480360381019061097791906140cc565b6128ed565b6040516109899190614115565b60405180910390f35b34801561099e57600080fd5b506109a7612943565b6040516109b491906141da565b60405180910390f35b3480156109c957600080fd5b506109d261296d565b6040516109df919061414d565b60405180910390f35b3480156109f457600080fd5b506109fd612981565b604051610a0a919061414d565b60405180910390f35b348015610a1f57600080fd5b50610a28612995565b604051610a35919061404c565b60405180910390f35b348015610a4a57600080fd5b50610a656004803603810190610a609190614639565b612a27565b005b348015610a7357600080fd5b50610a7c612a7d565b604051610a89919061414d565b60405180910390f35b348015610a9e57600080fd5b50610aa7612a91565b604051610ab49190614380565b60405180910390f35b348015610ac957600080fd5b50610ad2612a9e565b604051610adf9190614737565b60405180910390f35b348015610af457600080fd5b50610b0f6004803603810190610b0a91906140cc565b612af6565b604051610b1c9190614115565b60405180910390f35b610b3f6004803603810190610b3a91906147af565b612b4c565b005b348015610b4d57600080fd5b50610b56612bbd565b005b348015610b6457600080fd5b50610b7f6004803603810190610b7a919061419e565b612e59565b604051610b8c919061404c565b60405180910390f35b348015610ba157600080fd5b50610bbc6004803603810190610bb7919061419e565b612f00565b604051610bc99190613fa1565b60405180910390f35b348015610bde57600080fd5b50610be7612f12565b604051610bf49190614380565b60405180910390f35b348015610c0957600080fd5b50610c246004803603810190610c1f919061439b565b612f36565b005b348015610c3257600080fd5b50610c3b612fe4565b604051610c489190614380565b60405180910390f35b348015610c5d57600080fd5b50610c786004803603810190610c7391906140cc565b612fea565b604051610c859190614856565b60405180910390f35b348015610c9a57600080fd5b50610cb56004803603810190610cb091906148c7565b61301e565b005b348015610cc357600080fd5b50610cde6004803603810190610cd99190614914565b613080565b604051610ceb9190613fa1565b60405180910390f35b348015610d0057600080fd5b50610d096130a4565b604051610d16919061414d565b60405180910390f35b348015610d2b57600080fd5b50610d466004803603810190610d4191906140cc565b6130b8565b604051610d539190614115565b60405180910390f35b348015610d6857600080fd5b50610d836004803603810190610d7e91906140cc565b61310e565b005b348015610d9157600080fd5b50610d9a613191565b005b348015610da857600080fd5b50610dc36004803603810190610dbe9190614992565b6133e1565b005b348015610dd157600080fd5b50610dda61342d565b604051610de7919061414d565b60405180910390f35b6008544210610e34576040517f08c379a0000000000000000000000000000000000000000000000000000000008152600401610e2b90614a0b565b60405180910390fd5b6000600e60003373ffffffffffffffffffffffffffffffffffffffff1673ffffffffffffffffffffffffffffffffffffffff16815260200190815260200160002060009054906101000a900460ff1660ff1611610ec6576040517f08c379a0000000000000000000000000000000000000000000000000000000008152600401610ebd90614a77565b60405180910390fd5b6007600e9054906101000a900461ffff1661ffff166001600760049054906101000a900461ffff16610ef89190614ac6565b61ffff161115610f3d576040517f08c379a0000000000000000000000000000000000000000000000000000000008152600401610f3490614b48565b60405180910390fd5b6000600e60003373ffffffffffffffffffffffffffffffffffffffff1673ffffffffffffffffffffffffffffffffffffffff16815260200190815260200160002060006101000a81548160ff021916908360ff160217905550610fb433600d60009054906101000a900461ffff1661ffff16613441565b3373ffffffffffffffffffffffffffffffffffffffff167ff70b403b1d50cef877cafdc0f6c3c47f58a42f1e5f5f17173f255ef7b00762a042600d60009054906101000a900461ffff1660405161100c929190614ba3565b60405180910390a2600d600081819054906101000a900461ffff168092919061103490614bcc565b91906101000a81548161ffff021916908361ffff160217905550506007600481819054906101000a900461ffff168092919061106f90614bcc565b91906101000a81548161ffff021916908361ffff16021790555050565b60008160e01c635b5e139f81146380ac58cd82146301ffc9a783141717915050919050565b60085442106110f5576040517f08c379a00000000000000000000000000000000000000000000000000000000081526004016110ec90614c42565b60405180910390fd5b6000601260003373ffffffffffffffffffffffffffffffffffffffff1673ffffffffffffffffffffffffffffffffffffffff16815260200190815260200160002060009054906101000a900460ff1660ff1611611187576040517f08c379a000000000000000000000000000000000000000000000000000000000815260040161117e90614cae565b60405180910390fd5b600760129054906101000a900461ffff1661ffff166001600760089054906101000a900461ffff166111b99190614ac6565b61ffff1611156111fe576040517f08c379a00000000000000000000000000000000000000000000000000000000081526004016111f590614d1a565b60405180910390fd5b6000601260003373ffffffffffffffffffffffffffffffffffffffff1673ffffffffffffffffffffffffffffffffffffffff16815260200190815260200160002060006101000a81548160ff021916908360ff16021790555061127533601160009054906101000a900461ffff1661ffff16613441565b3373ffffffffffffffffffffffffffffffffffffffff167f76f9e85ff7722d043b09d71ddb1f2e240963d9f9072c84082432fd9efd24677642601160009054906101000a900461ffff166040516112cd929190614ba3565b60405180910390a26011600081819054906101000a900461ffff16809291906112f590614bcc565b91906101000a81548161ffff021916908361ffff160217905550506007600881819054906101000a900461ffff168092919061133090614bcc565b91906101000a81548161ffff021916908361ffff16021790555050565b60606002805461135c90614d69565b80601f016020809104026020016040519081016040528092919081815260200182805461138890614d69565b80156113d55780601f106113aa576101008083540402835291602001916113d5565b820191906000526020600020905b8154815290600101906020018083116113b857829003601f168201915b5050505050905090565b6000600a60008373ffffffffffffffffffffffffffffffffffffffff1673ffffffffffffffffffffffffffffffffffffffff16815260200190815260200160002060009054906101000a900460ff169050919050565b600760029054906101000a900461ffff1681565b6000816000527f7d8825530a5a2e7a000000000000000000000000000000000000000000000000601c52602060002082018201805460601b60601c6114965763ceea21b66000526004601cfd5b8060010154915050919050565b6114ae33838361345f565b5050565b6114ba613516565b818190508484905014611502576040517f08c379a00000000000000000000000000000000000000000000000000000000081526004016114f990614e0c565b60405180910390fd5b60005b848490508110156115c95782828281811061152357611522614e2c565b5b90506020020160208101906115389190614467565b600a600087878581811061154f5761154e614e2c565b5b905060200201602081019061156491906140cc565b73ffffffffffffffffffffffffffffffffffffffff1673ffffffffffffffffffffffffffffffffffffffff16815260200190815260200160002060006101000a81548160ff021916908360ff16021790555080806115c190614e5b565b915050611505565b5050505050565b60006005547f00000000000000000000000000000000000000000000000000000000000000006116009190614ea3565b905090565b6007600e9054906101000a900461ffff1681565b611621613516565b60005b828290508110156116c25760016010600085858581811061164857611647614e2c565b5b905060200201602081019061165d91906140cc565b73ffffffffffffffffffffffffffffffffffffffff1673ffffffffffffffffffffffffffffffffffffffff16815260200190815260200160002060006101000a81548160ff021916908360ff16021790555080806116ba90614e5b565b915050611624565b505050565b6116d2838383613594565b60001960601c8381169350828116925081600052337f7d8825530a5a2e7a00000000000000000000000000000000000000000000000017601c526020600020820182018054808316868114810261174457806117365763ceea21b66000526004601cfd5b63a11481006000526004601cfd5b856117575763ea553b346000526004601cfd5b86600052826001015480331488331417611784576030600c205461178357634b6e7f186000526004601cfd5b5b801561179257600084600101555b5085871882188355601c600c20600181540381555085600052601c600c20600181540163ffffffff81166117ce576301336cea6000526004601cfd5b80825550508486887fddf252ad1be2c89b69c2b068fc378daa952ba7f163c4a11628f55a4df523b3ef600080a45050505061180a838383613599565b505050565b60085481565b61181d613516565b818190508484905014611865576040517f08c379a000000000000000000000000000000000000000000000000000000000815260040161185c90614e0c565b60405180910390fd5b60005b8484905081101561192c5782828281811061188657611885614e2c565b5b905060200201602081019061189b9190614467565b601460008787858181106118b2576118b1614e2c565b5b90506020020160208101906118c791906140cc565b73ffffffffffffffffffffffffffffffffffffffff1673ffffffffffffffffffffffffffffffffffffffff16815260200190815260200160002060006101000a81548160ff021916908360ff160217905550808061192490614e5b565b915050611868565b5050505050565b6000600a60003373ffffffffffffffffffffffffffffffffffffffff1673ffffffffffffffffffffffffffffffffffffffff16815260200190815260200160002060009054906101000a900460ff1660ff16116119c5576040517f08c379a00000000000000000000000000000000000000000000000000000000081526004016119bc90614cae565b60405180910390fd5b8060ff16600a60003373ffffffffffffffffffffffffffffffffffffffff1673ffffffffffffffffffffffffffffffffffffffff16815260200190815260200160002060009054906101000a900460ff1660ff161015611a5a576040517f08c379a0000000000000000000000000000000000000000000000000000000008152600401611a5190614f23565b60405180910390fd5b8060ff16611a666115d0565b611a709190614f43565b7f00000000000000000000000000000000000000000000000000000000000000001015611ad2576040517f08c379a0000000000000000000000000000000000000000000000000000000008152600401611ac990614fc3565b60405180910390fd5b60058160ff161115611b19576040517f08c379a0000000000000000000000000000000000000000000000000000000008152600401611b109061502f565b60405180910390fd5b80600a60003373ffffffffffffffffffffffffffffffffffffffff1673ffffffffffffffffffffffffffffffffffffffff16815260200190815260200160002060009054906101000a900460ff16611b71919061504f565b600a60003373ffffffffffffffffffffffffffffffffffffffff1673ffffffffffffffffffffffffffffffffffffffff16815260200190815260200160002060006101000a81548160ff021916908360ff160217905550611bd5338260ff1661359e565b3373ffffffffffffffffffffffffffffffffffffffff167f30603f56befad35715d530ed1090c153118f6822d031c1e03fc5bc0e3f30808942604051611c1b9190614380565b60405180910390a250565b611c2e613516565b8060069081611c3d9190615226565b5050565b60006007600a9054906101000a900461ffff1661ffff16600760089054906101000a900461ffff1661ffff16600760069054906101000a900461ffff1661ffff16600760049054906101000a900461ffff1661ffff16600760029054906101000a900461ffff1661ffff16611cb46115d0565b611cbe9190614f43565b611cc89190614f43565b611cd29190614f43565b611cdc9190614f43565b611ce69190614f43565b905090565b611cf3613516565b60005b82829050811015611d9457600160166000858585818110611d1a57611d19614e2c565b5b9050602002016020810190611d2f91906140cc565b73ffffffffffffffffffffffffffffffffffffffff1673ffffffffffffffffffffffffffffffffffffffff16815260200190815260200160002060006101000a81548160ff021916908360ff1602179055508080611d8c90614e5b565b915050611cf6565b505050565b6008544210611ddd576040517f08c379a0000000000000000000000000000000000000000000000000000000008152600401611dd490615344565b60405180910390fd5b6000601060003373ffffffffffffffffffffffffffffffffffffffff1673ffffffffffffffffffffffffffffffffffffffff16815260200190815260200160002060009054906101000a900460ff1660ff1611611e6f576040517f08c379a0000000000000000000000000000000000000000000000000000000008152600401611e6690614a77565b60405180910390fd5b600760109054906101000a900461ffff1661ffff166001600760069054906101000a900461ffff16611ea19190614ac6565b61ffff161115611ee6576040517f08c379a0000000000000000000000000000000000000000000000000000000008152600401611edd906153b0565b60405180910390fd5b6000601060003373ffffffffffffffffffffffffffffffffffffffff1673ffffffffffffffffffffffffffffffffffffffff16815260200190815260200160002060006101000a81548160ff021916908360ff160217905550611f5d33600f60009054906101000a900461ffff1661ffff16613441565b3373ffffffffffffffffffffffffffffffffffffffff167f3068eb10a9f5bc0a2d97cbc29c967a612136c9d03efe312432d0cff3ece88d5542600f60009054906101000a900461ffff16604051611fb5929190614ba3565b60405180910390a2600f600081819054906101000a900461ffff1680929190611fdd90614bcc565b91906101000a81548161ffff021916908361ffff160217905550506007600681819054906101000a900461ffff168092919061201890614bcc565b91906101000a81548161ffff021916908361ffff16021790555050565b6000600e60008373ffffffffffffffffffffffffffffffffffffffff1673ffffffffffffffffffffffffffffffffffffffff16815260200190815260200160002060009054906101000a900460ff169050919050565b6120968383836116c7565b61209f82613729565b156120c0576120bf83838360405180602001604052806000815250613734565b5b505050565b6120cd613516565b60005b8282905081101561216e576001600e60008585858181106120f4576120f3614e2c565b5b905060200201602081019061210991906140cc565b73ffffffffffffffffffffffffffffffffffffffff1673ffffffffffffffffffffffffffffffffffffffff16815260200190815260200160002060006101000a81548160ff021916908360ff160217905550808061216690614e5b565b9150506120d0565b505050565b600760049054906101000a900461ffff1681565b6000612192826137c6565b9050806121a75763ceea21b66000526004601cfd5b919050565b6007600a9054906101000a900461ffff1681565b6008544210612204576040517f08c379a00000000000000000000000000000000000000000000000000000000081526004016121fb9061541c565b60405180910390fd5b6000600c60003373ffffffffffffffffffffffffffffffffffffffff1673ffffffffffffffffffffffffffffffffffffffff16815260200190815260200160002060009054906101000a900460ff1660ff1611612296576040517f08c379a000000000000000000000000000000000000000000000000000000000815260040161228d90614cae565b60405180910390fd5b80600c60003373ffffffffffffffffffffffffffffffffffffffff1673ffffffffffffffffffffffffffffffffffffffff16815260200190815260200160002060009054906101000a900460ff1660ff161015612328576040517f08c379a000000000000000000000000000000000000000000000000000000000815260040161231f90614f23565b60405180910390fd5b6007600c9054906101000a900461ffff1661ffff166001600760029054906101000a900461ffff1661235a9190614ac6565b61ffff16111561239f576040517f08c379a000000000000000000000000000000000000000000000000000000000815260040161239690615488565b60405180910390fd5b60058111156123e3576040517f08c379a00000000000000000000000000000000000000000000000000000000081526004016123da9061502f565b60405180910390fd5b60008167ffffffffffffffff8111156123ff576123fe614499565b5b60405190808252806020026020018201604052801561242d5781602001602082028036833780820191505090505b50905060005b828163ffffffff16101561259757600c60003373ffffffffffffffffffffffffffffffffffffffff1673ffffffffffffffffffffffffffffffffffffffff168152602001908152602001600020600081819054906101000a900460ff168092919061249d906154a8565b91906101000a81548160ff021916908360ff160217905550506124d433600b60009054906101000a900461ffff1661ffff16613441565b600b60009054906101000a900461ffff1661ffff16828263ffffffff168151811061250257612501614e2c565b5b602002602001018181525050600b600081819054906101000a900461ffff168092919061252e90614bcc565b91906101000a81548161ffff021916908361ffff160217905550506007600281819054906101000a900461ffff168092919061256990614bcc565b91906101000a81548161ffff021916908361ffff16021790555050808061258f906154d1565b915050612433565b503373ffffffffffffffffffffffffffffffffffffffff167f925a1c03df0f625e3645b782d2a6fc1ccee76de332fba5dc74ad672526a0d39942836040516125e09291906154fd565b60405180910390a25050565b600680546125f990614d69565b80601f016020809104026020016040519081016040528092919081815260200182805461262590614d69565b80156126725780601f1061264757610100808354040283529160200191612672565b820191906000526020600020905b81548152906001019060200180831161265557829003601f168201915b505050505081565b6000601460008373ffffffffffffffffffffffffffffffffffffffff1673ffffffffffffffffffffffffffffffffffffffff16815260200190815260200160002060009054906101000a900460ff169050919050565b6000816126e557638f4eb6046000526004601cfd5b7f7d8825530a5a2e7a000000000000000000000000000000000000000000000000601c528160005263ffffffff601c600c2054169050919050565b612728613516565b6127326000613807565b565b61273c613516565b818190508484905014612784576040517f08c379a000000000000000000000000000000000000000000000000000000000815260040161277b90614e0c565b60405180910390fd5b60005b8484905081101561284b578282828181106127a5576127a4614e2c565b5b90506020020160208101906127ba9190614467565b600c60008787858181106127d1576127d0614e2c565b5b90506020020160208101906127e691906140cc565b73ffffffffffffffffffffffffffffffffffffffff1673ffffffffffffffffffffffffffffffffffffffff16815260200190815260200160002060006101000a81548160ff021916908360ff160217905550808061284390614e5b565b915050612787565b5050505050565b600760149054906101000a900461ffff1681565b61286e613516565b600960009054906101000a900473ffffffffffffffffffffffffffffffffffffffff1673ffffffffffffffffffffffffffffffffffffffff166108fc479081150290604051600060405180830381858888f193505050501580156128d6573d6000803e3d6000fd5b50565b600760009054906101000a900461ffff1681565b6000600c60008373ffffffffffffffffffffffffffffffffffffffff1673ffffffffffffffffffffffffffffffffffffffff16815260200190815260200160002060009054906101000a900460ff169050919050565b6000600160009054906101000a900473ffffffffffffffffffffffffffffffffffffffff16905090565b6007600c9054906101000a900461ffff1681565b600760089054906101000a900461ffff1681565b6060600380546129a490614d69565b80601f01602080910402602001604051908101604052809291908181526020018280546129d090614d69565b8015612a1d5780601f106129f257610100808354040283529160200191612a1d565b820191906000526020600020905b815481529060010190602001808311612a0057829003601f168201915b5050505050905090565b801515905081601c52670a5a2e7a0000000060085233600052806030600c2055806000528160601b60601c337f17307eab39ab6107e8899845ad3d59bd9653f200f220920489ca2b5937696c3160206000a35050565b600760069054906101000a900461ffff1681565b6000601780549050905090565b60606017805480602002602001604051908101604052809291908181526020018280548015612aec57602002820191906000526020600020905b815481526020019060010190808311612ad8575b5050505050905090565b6000601060008373ffffffffffffffffffffffffffffffffffffffff1673ffffffffffffffffffffffffffffffffffffffff16815260200190815260200160002060009054906101000a900460ff169050919050565b612b578585856116c7565b612b6084613729565b15612bb657612bb585858585858080601f016020809104026020016040519081016040528093929190818152602001838380828437600081840152601f19601f82011690508083019250505050505050613734565b5b5050505050565b6008544210612c01576040517f08c379a0000000000000000000000000000000000000000000000000000000008152600401612bf890615579565b60405180910390fd5b6000601460003373ffffffffffffffffffffffffffffffffffffffff1673ffffffffffffffffffffffffffffffffffffffff16815260200190815260200160002060009054906101000a900460ff1660ff1611612c93576040517f08c379a0000000000000000000000000000000000000000000000000000000008152600401612c8a90614a77565b60405180910390fd5b600760149054906101000a900461ffff1661ffff1660016007600a9054906101000a900461ffff16612cc59190614ac6565b61ffff161115612d0a576040517f08c379a0000000000000000000000000000000000000000000000000000000008152600401612d01906155e5565b60405180910390fd5b6000601460003373ffffffffffffffffffffffffffffffffffffffff1673ffffffffffffffffffffffffffffffffffffffff16815260200190815260200160002060006101000a81548160ff021916908360ff160217905550612d8133601360009054906101000a900461ffff1661ffff16613441565b3373ffffffffffffffffffffffffffffffffffffffff167f11f17ae42a0904709076e999b53fe5d9a2094552d1e26167334b0a1df43db8bd42601360009054906101000a900461ffff16604051612dd9929190614ba3565b60405180910390a26013600081819054906101000a900461ffff1680929190612e0190614bcc565b91906101000a81548161ffff021916908361ffff160217905550506007600a81819054906101000a900461ffff1680929190612e3c90614bcc565b91906101000a81548161ffff021916908361ffff16021790555050565b6060612e64826138cd565b612ea3576040517f08c379a0000000000000000000000000000000000000000000000000000000008152600401612e9a90615651565b60405180910390fd5b6000612ead61390b565b90506000815111612ecd5760405180602001604052806000815250612ef8565b80612ed78461399d565b604051602001612ee89291906156ad565b6040516020818303038152906040525b915050919050565b6000612f0b826138cd565b9050919050565b7f000000000000000000000000000000000000000000000000000000000000000081565b612f3e613516565b60005b82829050811015612fdf57600160126000858585818110612f6557612f64614e2c565b5b9050602002016020810190612f7a91906140cc565b73ffffffffffffffffffffffffffffffffffffffff1673ffffffffffffffffffffffffffffffffffffffff16815260200190815260200160002060006101000a81548160ff021916908360ff1602179055508080612fd790614e5b565b915050612f41565b505050565b60055481565b600060c0612ff783613a6b565b7bffffffffffffffffffffffffffffffffffffffffffffffffffffffff16901c9050919050565b613026613516565b600854421161306a576040517f08c379a00000000000000000000000000000000000000000000000000000000081526004016130619061571d565b60405180910390fd5b81816017919061307b929190613e83565b505050565b600081601c52670a5a2e7a00000000600852826000526030600c2054905092915050565b600760109054906101000a900461ffff1681565b6000601260008373ffffffffffffffffffffffffffffffffffffffff1673ffffffffffffffffffffffffffffffffffffffff16815260200190815260200160002060009054906101000a900460ff169050919050565b613116613516565b600073ffffffffffffffffffffffffffffffffffffffff168173ffffffffffffffffffffffffffffffffffffffff1603613185576040517f08c379a000000000000000000000000000000000000000000000000000000000815260040161317c906157af565b60405180910390fd5b61318e81613807565b50565b6000601660003373ffffffffffffffffffffffffffffffffffffffff1673ffffffffffffffffffffffffffffffffffffffff16815260200190815260200160002060009054906101000a900460ff1660ff1611613223576040517f08c379a000000000000000000000000000000000000000000000000000000000815260040161321a90614a77565b60405180910390fd5b600161322d611c41565b6132379190614f43565b600760009054906101000a900461ffff1661ffff16101561328d576040517f08c379a00000000000000000000000000000000000000000000000000000000081526004016132849061581b565b60405180910390fd5b6000601660003373ffffffffffffffffffffffffffffffffffffffff1673ffffffffffffffffffffffffffffffffffffffff16815260200190815260200160002060006101000a81548160ff021916908360ff160217905550613322336017601560009054906101000a900461ffff1661ffff168154811061331257613311614e2c565b5b9060005260206000200154613441565b3373ffffffffffffffffffffffffffffffffffffffff167fa72aa19bfd87e001e03ac6bf966e0f914e84e90c84f842017e87ffc32547505f426017601560009054906101000a900461ffff1661ffff168154811061338357613382614e2c565b5b906000526020600020015460405161339c92919061583b565b60405180910390a26015600081819054906101000a900461ffff16809291906133c490614bcc565b91906101000a81548161ffff021916908361ffff16021790555050565b6133e9613516565b80600960006101000a81548173ffffffffffffffffffffffffffffffffffffffff021916908373ffffffffffffffffffffffffffffffffffffffff16021790555050565b600760129054906101000a900461ffff1681565b61345b828260405180602001604052806000815250613aa5565b5050565b60001960601c8281169250838116935081600052837f7d8825530a5a2e7a00000000000000000000000000000000000000000000000017601c5260206000208201820180548216806134b95763ceea21b66000526004601cfd5b8086148615176134e057806000526030600c20546134df57634b6e7f186000526004601cfd5b5b8482600101558385827f8c5be1e5ebec7d5bd14f71427d1e84f3dd0314c0f7b2291e5b200ac8c7c3b925600080a4505050505050565b61351e613ad0565b73ffffffffffffffffffffffffffffffffffffffff1661353c612943565b73ffffffffffffffffffffffffffffffffffffffff1614613592576040517f08c379a0000000000000000000000000000000000000000000000000000000008152600401613589906158b0565b60405180910390fd5b565b505050565b505050565b3273ffffffffffffffffffffffffffffffffffffffff163373ffffffffffffffffffffffffffffffffffffffff1614613603576040517fd9d552c900000000000000000000000000000000000000000000000000000000815260040160405180910390fd5b6000810361363d576040517f4600cfe900000000000000000000000000000000000000000000000000000000815260040160405180910390fd5b806005541015613679576040517f7775abdd00000000000000000000000000000000000000000000000000000000815260040160405180910390fd5b6000604051806020016040528042446040516020016136999291906158f1565b6040516020818303038152906040528051906020012060001c81525090506000600554905060005b838110156137115760006136de8385613ad890919063ffffffff16565b905060006136ec8285613b03565b90506136f88782613baf565b836137029061591d565b935082600101925050506136c1565b5061371c8484613c8d565b8060058190555050505050565b6000813b9050919050565b60405163150b7a028082523360208301528560601b60601c604083015283606083015260808083015282518060a0840152801561377b578060c08401826020870160045afa505b60208360a48301601c860160008a5af16137a4573d1561379f573d6000803e3d6000fd5b600083525b8160e01b8351146137bd5763d1a57ed66000526004601cfd5b50505050505050565b6000816000527f7d8825530a5a2e7a000000000000000000000000000000000000000000000000601c526020600020820182015460601b60601c9050919050565b6000600160009054906101000a900473ffffffffffffffffffffffffffffffffffffffff16905081600160006101000a81548173ffffffffffffffffffffffffffffffffffffffff021916908373ffffffffffffffffffffffffffffffffffffffff1602179055508173ffffffffffffffffffffffffffffffffffffffff168173ffffffffffffffffffffffffffffffffffffffff167f8be0079c531659141344cd1fd0a4f28419497f9722a3daafe3b4186f6b6457e060405160405180910390a35050565b6000816000527f7d8825530a5a2e7a000000000000000000000000000000000000000000000000601c526020600020820182015460601b9050919050565b60606006805461391a90614d69565b80601f016020809104026020016040519081016040528092919081815260200182805461394690614d69565b80156139935780601f1061396857610100808354040283529160200191613993565b820191906000526020600020905b81548152906001019060200180831161397657829003601f168201915b5050505050905090565b6060600060016139ac84613cee565b01905060008167ffffffffffffffff8111156139cb576139ca614499565b5b6040519080825280601f01601f1916602001820160405280156139fd5781602001600182028036833780820191505090505b509050600082602001820190505b600115613a60578080600190039150507f3031323334353637383961626364656600000000000000000000000000000000600a86061a8153600a8581613a5457613a53615946565b5b04945060008503613a0b575b819350505050919050565b60007f7d8825530a5a2e7a000000000000000000000000000000000000000000000000601c5281600052601c600c205460201c9050919050565b613aaf8383613baf565b613ab883613729565b15613acb57613aca6000848484613734565b5b505050565b600033905090565b60005b600115613af8576020832090508083528182600003068110613adb575b818106905092915050565b600080600460008581526020019081526020016000205490506000600184613b2b9190614ea3565b905060006004600083815260200190815260200160002054905060008314613b535782613b55565b855b9350818614613b865760008114613b6c5780613b6e565b815b60046000888152602001908152602001600020819055505b60008114613ba65760046000838152602001908152602001600020600090555b50505092915050565b613bbb60008383613594565b8160601b60601c915081613bd75763ea553b346000526004601cfd5b806000527f7d8825530a5a2e7a000000000000000000000000000000000000000000000000601c5260206000208101810180548060601b15613c215763c991cbb16000526004601cfd5b838117825583600052601c600c20600181540163ffffffff8116613c4d576301336cea6000526004601cfd5b8082555050828460007fddf252ad1be2c89b69c2b068fc378daa952ba7f163c4a11628f55a4df523b3ef600080a45050613c8960008383613599565b5050565b6000613c9883612fea565b905060008282613ca89190615975565b90506000613cb585613a6b565b9050613ce7858277ffffffffffffffffffffffffffffffffffffffffffffffff1660c08563ffffffff16901b17613e41565b5050505050565b600080600090507a184f03e93ff9f4daa797ed6e38ed64bf6a1f0100000000000000008310613d4c577a184f03e93ff9f4daa797ed6e38ed64bf6a1f0100000000000000008381613d4257613d41615946565b5b0492506040810190505b6d04ee2d6d415b85acef81000000008310613d89576d04ee2d6d415b85acef81000000008381613d7f57613d7e615946565b5b0492506020810190505b662386f26fc100008310613db857662386f26fc100008381613dae57613dad615946565b5b0492506010810190505b6305f5e1008310613de1576305f5e1008381613dd757613dd6615946565b5b0492506008810190505b6127108310613e06576127108381613dfc57613dfb615946565b5b0492506004810190505b60648310613e295760648381613e1f57613e1e615946565b5b0492506002810190505b600a8310613e38576001810190505b80915050919050565b7f7d8825530a5a2e7a000000000000000000000000000000000000000000000000601c5281600052601c600c2080548060201c831860201b8118825550505050565b828054828255906000526020600020908101928215613ebf579160200282015b82811115613ebe578235825591602001919060010190613ea3565b5b509050613ecc9190613ed0565b5090565b5b80821115613ee9576000816000905550600101613ed1565b5090565b6000604051905090565b600080fd5b600080fd5b60007fffffffff0000000000000000000000000000000000000000000000000000000082169050919050565b613f3681613f01565b8114613f4157600080fd5b50565b600081359050613f5381613f2d565b92915050565b600060208284031215613f6f57613f6e613ef7565b5b6000613f7d84828501613f44565b91505092915050565b60008115159050919050565b613f9b81613f86565b82525050565b6000602082019050613fb66000830184613f92565b92915050565b600081519050919050565b600082825260208201905092915050565b60005b83811015613ff6578082015181840152602081019050613fdb565b60008484015250505050565b6000601f19601f8301169050919050565b600061401e82613fbc565b6140288185613fc7565b9350614038818560208601613fd8565b61404181614002565b840191505092915050565b600060208201905081810360008301526140668184614013565b905092915050565b600073ffffffffffffffffffffffffffffffffffffffff82169050919050565b60006140998261406e565b9050919050565b6140a98161408e565b81146140b457600080fd5b50565b6000813590506140c6816140a0565b92915050565b6000602082840312156140e2576140e1613ef7565b5b60006140f0848285016140b7565b91505092915050565b600060ff82169050919050565b61410f816140f9565b82525050565b600060208201905061412a6000830184614106565b92915050565b600061ffff82169050919050565b61414781614130565b82525050565b6000602082019050614162600083018461413e565b92915050565b6000819050919050565b61417b81614168565b811461418657600080fd5b50565b60008135905061419881614172565b92915050565b6000602082840312156141b4576141b3613ef7565b5b60006141c284828501614189565b91505092915050565b6141d48161408e565b82525050565b60006020820190506141ef60008301846141cb565b92915050565b6000806040838503121561420c5761420b613ef7565b5b600061421a858286016140b7565b925050602061422b85828601614189565b9150509250929050565b600080fd5b600080fd5b600080fd5b60008083601f84011261425a57614259614235565b5b8235905067ffffffffffffffff8111156142775761427661423a565b5b6020830191508360208202830111156142935761429261423f565b5b9250929050565b60008083601f8401126142b0576142af614235565b5b8235905067ffffffffffffffff8111156142cd576142cc61423a565b5b6020830191508360208202830111156142e9576142e861423f565b5b9250929050565b6000806000806040858703121561430a57614309613ef7565b5b600085013567ffffffffffffffff81111561432857614327613efc565b5b61433487828801614244565b9450945050602085013567ffffffffffffffff81111561435757614356613efc565b5b6143638782880161429a565b925092505092959194509250565b61437a81614168565b82525050565b60006020820190506143956000830184614371565b92915050565b600080602083850312156143b2576143b1613ef7565b5b600083013567ffffffffffffffff8111156143d0576143cf613efc565b5b6143dc85828601614244565b92509250509250929050565b60008060006060848603121561440157614400613ef7565b5b600061440f868287016140b7565b9350506020614420868287016140b7565b925050604061443186828701614189565b9150509250925092565b614444816140f9565b811461444f57600080fd5b50565b6000813590506144618161443b565b92915050565b60006020828403121561447d5761447c613ef7565b5b600061448b84828501614452565b91505092915050565b600080fd5b7f4e487b7100000000000000000000000000000000000000000000000000000000600052604160045260246000fd5b6144d182614002565b810181811067ffffffffffffffff821117156144f0576144ef614499565b5b80604052505050565b6000614503613eed565b905061450f82826144c8565b919050565b600067ffffffffffffffff82111561452f5761452e614499565b5b61453882614002565b9050602081019050919050565b82818337600083830152505050565b600061456761456284614514565b6144f9565b90508281526020810184848401111561458357614582614494565b5b61458e848285614545565b509392505050565b600082601f8301126145ab576145aa614235565b5b81356145bb848260208601614554565b91505092915050565b6000602082840312156145da576145d9613ef7565b5b600082013567ffffffffffffffff8111156145f8576145f7613efc565b5b61460484828501614596565b91505092915050565b61461681613f86565b811461462157600080fd5b50565b6000813590506146338161460d565b92915050565b600080604083850312156146505761464f613ef7565b5b600061465e858286016140b7565b925050602061466f85828601614624565b9150509250929050565b600081519050919050565b600082825260208201905092915050565b6000819050602082019050919050565b6146ae81614168565b82525050565b60006146c083836146a5565b60208301905092915050565b6000602082019050919050565b60006146e482614679565b6146ee8185614684565b93506146f983614695565b8060005b8381101561472a57815161471188826146b4565b975061471c836146cc565b9250506001810190506146fd565b5085935050505092915050565b6000602082019050818103600083015261475181846146d9565b905092915050565b60008083601f84011261476f5761476e614235565b5b8235905067ffffffffffffffff81111561478c5761478b61423a565b5b6020830191508360018202830111156147a8576147a761423f565b5b9250929050565b6000806000806000608086880312156147cb576147ca613ef7565b5b60006147d9888289016140b7565b95505060206147ea888289016140b7565b94505060406147fb88828901614189565b935050606086013567ffffffffffffffff81111561481c5761481b613efc565b5b61482888828901614759565b92509250509295509295909350565b600063ffffffff82169050919050565b61485081614837565b82525050565b600060208201905061486b6000830184614847565b92915050565b60008083601f84011261488757614886614235565b5b8235905067ffffffffffffffff8111156148a4576148a361423a565b5b6020830191508360208202830111156148c0576148bf61423f565b5b9250929050565b600080602083850312156148de576148dd613ef7565b5b600083013567ffffffffffffffff8111156148fc576148fb613efc565b5b61490885828601614871565b92509250509250929050565b6000806040838503121561492b5761492a613ef7565b5b6000614939858286016140b7565b925050602061494a858286016140b7565b9150509250929050565b600061495f8261406e565b9050919050565b61496f81614954565b811461497a57600080fd5b50565b60008135905061498c81614966565b92915050565b6000602082840312156149a8576149a7613ef7565b5b60006149b68482850161497d565b91505092915050565b7f486f6e6f72617279206d696e7420636c6f736500000000000000000000000000600082015250565b60006149f5601383613fc7565b9150614a00826149bf565b602082019050919050565b60006020820190508181036000830152614a24816149e8565b9050919050565b7f4e6f206769766577617900000000000000000000000000000000000000000000600082015250565b6000614a61600a83613fc7565b9150614a6c82614a2b565b602082019050919050565b60006020820190508181036000830152614a9081614a54565b9050919050565b7f4e487b7100000000000000000000000000000000000000000000000000000000600052601160045260246000fd5b6000614ad182614130565b9150614adc83614130565b9250828201905061ffff811115614af657614af5614a97565b5b92915050565b7f4d617820737570706c7920686f6e6f7261727920657863656564000000000000600082015250565b6000614b32601a83613fc7565b9150614b3d82614afc565b602082019050919050565b60006020820190508181036000830152614b6181614b25565b9050919050565b6000819050919050565b6000614b8d614b88614b8384614130565b614b68565b614168565b9050919050565b614b9d81614b72565b82525050565b6000604082019050614bb86000830185614371565b614bc56020830184614b94565b9392505050565b6000614bd782614130565b915061ffff8203614beb57614bea614a97565b5b600182019050919050565b7f4a75646765206d696e7420636c6f736500000000000000000000000000000000600082015250565b6000614c2c601083613fc7565b9150614c3782614bf6565b602082019050919050565b60006020820190508181036000830152614c5b81614c1f565b9050919050565b7f4e6f7420656c696769626c650000000000000000000000000000000000000000600082015250565b6000614c98600c83613fc7565b9150614ca382614c62565b602082019050919050565b60006020820190508181036000830152614cc781614c8b565b9050919050565b7f4d617820737570706c79206a7564676520657863656564000000000000000000600082015250565b6000614d04601783613fc7565b9150614d0f82614cce565b602082019050919050565b60006020820190508181036000830152614d3381614cf7565b9050919050565b7f4e487b7100000000000000000000000000000000000000000000000000000000600052602260045260246000fd5b60006002820490506001821680614d8157607f821691505b602082108103614d9457614d93614d3a565b5b50919050565b7f4e62206164647265737320616e64206e62207175616e746974696573206d757360008201527f7420626520657175616c00000000000000000000000000000000000000000000602082015250565b6000614df6602a83613fc7565b9150614e0182614d9a565b604082019050919050565b60006020820190508181036000830152614e2581614de9565b9050919050565b7f4e487b7100000000000000000000000000000000000000000000000000000000600052603260045260246000fd5b6000614e6682614168565b91507fffffffffffffffffffffffffffffffffffffffffffffffffffffffffffffffff8203614e9857614e97614a97565b5b600182019050919050565b6000614eae82614168565b9150614eb983614168565b9250828203905081811115614ed157614ed0614a97565b5b92915050565b7f4e6f7420656e6f75676820636c61696d61626c6520746f6b656e730000000000600082015250565b6000614f0d601b83613fc7565b9150614f1882614ed7565b602082019050919050565b60006020820190508181036000830152614f3c81614f00565b9050919050565b6000614f4e82614168565b9150614f5983614168565b9250828201905080821115614f7157614f70614a97565b5b92915050565b7f537570706c79206c696d69742065786565647800000000000000000000000000600082015250565b6000614fad601383613fc7565b9150614fb882614f77565b602082019050919050565b60006020820190508181036000830152614fdc81614fa0565b9050919050565b7f4c696d6974206d61780000000000000000000000000000000000000000000000600082015250565b6000615019600983613fc7565b915061502482614fe3565b602082019050919050565b600060208201905081810360008301526150488161500c565b9050919050565b600061505a826140f9565b9150615065836140f9565b9250828203905060ff81111561507e5761507d614a97565b5b92915050565b60008190508160005260206000209050919050565b60006020601f8301049050919050565b600082821b905092915050565b6000600883026150e67fffffffffffffffffffffffffffffffffffffffffffffffffffffffffffffffff826150a9565b6150f086836150a9565b95508019841693508086168417925050509392505050565b600061512361511e61511984614168565b614b68565b614168565b9050919050565b6000819050919050565b61513d83615108565b6151516151498261512a565b8484546150b6565b825550505050565b600090565b615166615159565b615171818484615134565b505050565b5b818110156151955761518a60008261515e565b600181019050615177565b5050565b601f8211156151da576151ab81615084565b6151b484615099565b810160208510156151c3578190505b6151d76151cf85615099565b830182615176565b50505b505050565b600082821c905092915050565b60006151fd600019846008026151df565b1980831691505092915050565b600061521683836151ec565b9150826002028217905092915050565b61522f82613fbc565b67ffffffffffffffff81111561524857615247614499565b5b6152528254614d69565b61525d828285615199565b600060209050601f831160018114615290576000841561527e578287015190505b615288858261520a565b8655506152f0565b601f19841661529e86615084565b60005b828110156152c6578489015182556001820191506020850194506020810190506152a1565b868310156152e357848901516152df601f8916826151ec565b8355505b6001600288020188555050505b505050505050565b7f477561726469616e206d696e7420636c6f736500000000000000000000000000600082015250565b600061532e601383613fc7565b9150615339826152f8565b602082019050919050565b6000602082019050818103600083015261535d81615321565b9050919050565b7f4d617820737570706c7920677561726469616e20657863656564000000000000600082015250565b600061539a601a83613fc7565b91506153a582615364565b602082019050919050565b600060208201905081810360008301526153c98161538d565b9050919050565b7f436f756e63696c206d696e7420636c6f73650000000000000000000000000000600082015250565b6000615406601283613fc7565b9150615411826153d0565b602082019050919050565b60006020820190508181036000830152615435816153f9565b9050919050565b7f4d617820737570706c7920636f756e63696c2065786365656400000000000000600082015250565b6000615472601983613fc7565b915061547d8261543c565b602082019050919050565b600060208201905081810360008301526154a181615465565b9050919050565b60006154b3826140f9565b9150600082036154c6576154c5614a97565b5b600182039050919050565b60006154dc82614837565b915063ffffffff82036154f2576154f1614a97565b5b600182019050919050565b60006040820190506155126000830185614371565b818103602083015261552481846146d9565b90509392505050565b7f5768616c65206d696e7420636c6f736500000000000000000000000000000000600082015250565b6000615563601083613fc7565b915061556e8261552d565b602082019050919050565b6000602082019050818103600083015261559281615556565b9050919050565b7f4d617820737570706c79207768616c6520657863656564000000000000000000600082015250565b60006155cf601783613fc7565b91506155da82615599565b602082019050919050565b600060208201905081810360008301526155fe816155c2565b9050919050565b7f756e6b6e6f7720746f6b656e0000000000000000000000000000000000000000600082015250565b600061563b600c83613fc7565b915061564682615605565b602082019050919050565b6000602082019050818103600083015261566a8161562e565b9050919050565b600081905092915050565b600061568782613fbc565b6156918185615671565b93506156a1818560208601613fd8565b80840191505092915050565b60006156b9828561567c565b91506156c5828461567c565b91508190509392505050565b7f47697665776179206e6f74206163746976617465000000000000000000000000600082015250565b6000615707601483613fc7565b9150615712826156d1565b602082019050919050565b60006020820190508181036000830152615736816156fa565b9050919050565b7f4f776e61626c653a206e6577206f776e657220697320746865207a65726f206160008201527f6464726573730000000000000000000000000000000000000000000000000000602082015250565b6000615799602683613fc7565b91506157a48261573d565b604082019050919050565b600060208201905081810360008301526157c88161578c565b9050919050565b7f4d617820737570706c7920657863656564000000000000000000000000000000600082015250565b6000615805601183613fc7565b9150615810826157cf565b602082019050919050565b60006020820190508181036000830152615834816157f8565b9050919050565b60006040820190506158506000830185614371565b61585d6020830184614371565b9392505050565b7f4f776e61626c653a2063616c6c6572206973206e6f7420746865206f776e6572600082015250565b600061589a602083613fc7565b91506158a582615864565b602082019050919050565b600060208201905081810360008301526158c98161588d565b9050919050565b6000819050919050565b6158eb6158e682614168565b6158d0565b82525050565b60006158fd82856158da565b60208201915061590d82846158da565b6020820191508190509392505050565b600061592882614168565b91506000820361593b5761593a614a97565b5b600182039050919050565b7f4e487b7100000000000000000000000000000000000000000000000000000000600052601260045260246000fd5b600061598082614837565b915061598b83614837565b9250828201905063ffffffff8111156159a7576159a6614a97565b5b9291505056fea2646970667358221220e02f5df0ed0ae0fb3113d47cc2f981cc746571691c69ab197f38679537e2689b64736f6c63430008130033",
  "immutableReferences": {
    "1972": [
      {
        "length": 32,
        "start": 5591
      },
      {
        "length": 32,
        "start": 6770
      },
      {
        "length": 32,
        "start": 12052
      }
    ]
  },
  "source": "// SPDX-License-Identifier: MIT\npragma solidity 0.8.19;\n\nimport \"@openzeppelin/contracts/utils/Strings.sol\";\nimport \"@openzeppelin/contracts/access/Ownable.sol\";\nimport \"@openzeppelin/contracts/security/ReentrancyGuard.sol\";\nimport \"./ERC721r.sol\";\n\ncontract MetaLifeOgPets is ReentrancyGuard, Ownable, ERC721r {\n\n  using Strings for uint256;\n  string public baseURI;                              // PUBLIC\n  uint16 public mainMaxSupply = 1500;                // PRIVATE\n\n  uint16 public nbMintedCouncil = 0;\n  uint16 public nbMintedHonorary = 0;\n  uint16 public nbMintedGuardian = 0;\n  uint16 public nbMintedJudge = 0;\n  uint16 public nbMintedWhale = 0;\n\n  uint16 public maxSupplyCouncil = 305;\n  uint16 public maxSupplyHonorary = 66;\n  uint16 public maxSupplyGuardian = 36;\n  uint16 public maxSupplyJudge = 11;\n  uint16 public maxSupplyWhale = 26;\n\n  uint256 public limitMintSpecific = 0;\n  address payable private collector;\n\n  mapping(address => uint8) private addressesRandom;\n  event MintedRandom(address indexed from, uint256 timestamp);\n  uint16 private _tokenIdCurrentCouncil = 1057;\n  mapping(address => uint8) private addressesCouncil;\n  event MintedCouncil(address indexed from, uint256 timestamp, uint256[] tokenIds);\n  uint16 private _tokenIdCurrentHonorary = 1362;\n  mapping(address => uint8) private addressesHonorary;\n  event MintedHonorary(address indexed from, uint256 timestamp, uint256 tokenId);\n  uint16 private _tokenIdCurrentGuardian = 1428;\n  mapping(address => uint8) private addressesGuardian;\n  event MintedGuardian(address indexed from, uint256 timestamp, uint256 tokenId);\n  uint16 private _tokenIdCurrentJudge = 1464;\n  mapping(address => uint8) private addressesJudge;\n  event MintedJudge(address indexed from, uint256 timestamp, uint256 tokenId);\n  uint16 private _tokenIdCurrentWhale = 1475;\n  mapping(address => uint8) private addressesWhale;\n  event MintedWhale(address indexed from, uint256 timestamp, uint256 tokenId);\n\n  uint16 private tokenGivewayIndex = 0;\n  mapping(address => uint8) private addressesGiveway;\n  uint256[] private tokenAvailables;\n  event MintedGiveway(address indexed from, uint256 timestamp, uint256 tokenId);\n\n  constructor() ERC721r('MetaLife OG Pets', 'MLP', 10_56){\n    limitMintSpecific = block.timestamp + ((365/2) * 24 * 60 * 60);\n  }\n\n  function withdrawAll() public payable onlyOwner {\n    collector.transfer(address(this).balance);\n  }\n\n  function setCollector(address payable _newCollector) public onlyOwner {\n    collector = _newCollector;\n  }\n\n  function _setBaseURI(string memory _newBaseURI) public onlyOwner {\n    baseURI = _newBaseURI;\n  }\n\n  function _baseURI() internal view virtual returns (string memory) {\n    return baseURI;\n  }\n\n  function tokenURI(uint256 tokenId) public view virtual override returns (string memory) {\n    require(_exists(tokenId), 'unknow token');\n\n    string memory uri = _baseURI();\n    return bytes(uri).length > 0 ? string(abi.encodePacked(uri, tokenId.toString())) : \"\";\n  }\n\n  function addAddressesRandom(address[] calldata _toAddAddresses, uint8[] calldata _quantities) external onlyOwner {\n    require(_toAddAddresses.length == _quantities.length, 'Nb address and nb quantities must be equal');\n    for (uint i = 0; i < _toAddAddresses.length; i++) {\n      addressesRandom[_toAddAddresses[i]] = _quantities[i];\n    }\n  }\n\n  function addAddressesCouncil(address[] calldata _toAddAddresses, uint8[] calldata _quantities) external onlyOwner {\n    require(_toAddAddresses.length == _quantities.length, 'Nb address and nb quantities must be equal');\n    for (uint i = 0; i < _toAddAddresses.length; i++) {\n      addressesCouncil[_toAddAddresses[i]] = _quantities[i];\n    }\n  }\n\n  function addAddressesHonorary(address[] calldata _toAddAddresses) external onlyOwner {\n    for (uint i = 0; i < _toAddAddresses.length; i++) {\n      addressesHonorary[_toAddAddresses[i]] = 1;\n    }\n  }\n\n  function addAddressesGuardian(address[] calldata _toAddAddresses) external onlyOwner {\n    for (uint i = 0; i < _toAddAddresses.length; i++) {\n      addressesGuardian[_toAddAddresses[i]] = 1;\n    }\n  }\n\n  function addAddressesJudge(address[] calldata _toAddAddresses) external onlyOwner {\n    for (uint i = 0; i < _toAddAddresses.length; i++) {\n      addressesJudge[_toAddAddresses[i]] = 1;\n    }\n  }\n\n  function addAddressesWhale(address[] calldata _toAddAddresses, uint8[] calldata _quantities) external onlyOwner {\n    require(_toAddAddresses.length == _quantities.length, 'Nb address and nb quantities must be equal');\n    for (uint i = 0; i < _toAddAddresses.length; i++) {\n      addressesWhale[_toAddAddresses[i]] = _quantities[i];\n    }\n  }\n\n  function addressClaimbleRandom(address _wallet) public view returns(uint8) {\n    return addressesRandom[_wallet];\n  }\n\n  function addressClaimbleCouncil(address _wallet) public view returns(uint8) {\n    return addressesCouncil[_wallet];\n  }\n\n  function addressClaimbleHonorary(address _wallet) public view returns(uint8) {\n    return addressesHonorary[_wallet];\n  }\n\n  function addressClaimbleGuardian(address _wallet) public view returns(uint8) {\n    return addressesGuardian[_wallet];\n  }\n\n  function addressClaimbleJudge(address _wallet) public view returns(uint8) {\n    return addressesJudge[_wallet];\n  }\n\n  function addressClaimbleWhale(address _wallet) public view returns(uint8) {\n    return addressesWhale[_wallet];\n  }\n\n  function mintRandom(uint8 _nb) external {\n    require(addressesRandom[msg.sender] > 0, \"Not eligible\");\n    require(addressesRandom[msg.sender] >= _nb, \"Not enough claimable tokens\");\n    require(maxSupply >= totalSupply() + _nb, \"Supply limit exeedx\");\n    require(_nb <= 5, \"Limit max\");\n    addressesRandom[msg.sender] = addressesRandom[msg.sender] - _nb;\n    _mintRandom(msg.sender, _nb);\n    emit MintedRandom(msg.sender, block.timestamp);\n  }\n\n  function mainTotalSupply() public view returns (uint256){\n    return totalSupply() + nbMintedCouncil + nbMintedHonorary + nbMintedGuardian + nbMintedJudge + nbMintedWhale;\n  }\n\n  function mintCouncil(uint256 _nb) external {\n    require(block.timestamp < limitMintSpecific, \"Council mint close\");\n    require(addressesCouncil[msg.sender] > 0, \"Not eligible\");\n    require(addressesCouncil[msg.sender] >= _nb, \"Not enough claimable tokens\");\n    require(nbMintedCouncil + 1 <= maxSupplyCouncil, \"Max supply council exceed\");\n    require(_nb <= 5, \"Limit max\");\n    uint256[] memory _tokenIdsMinted = new uint256[](_nb);\n    for (uint32 i = 0; i < _nb; i++) {\n      addressesCouncil[msg.sender]--;\n      _safeMint(msg.sender, _tokenIdCurrentCouncil);\n      _tokenIdsMinted[i] = _tokenIdCurrentCouncil;\n      _tokenIdCurrentCouncil++;\n      nbMintedCouncil++;\n    }\n    emit MintedCouncil(msg.sender, block.timestamp, _tokenIdsMinted);\n  }\n\n  function mintHonorary() external {\n    require(block.timestamp < limitMintSpecific, \"Honorary mint close\");\n    require(addressesHonorary[msg.sender] > 0, \"No giveway\");\n    require(nbMintedHonorary + 1 <= maxSupplyHonorary, \"Max supply honorary exceed\");\n    addressesHonorary[msg.sender] = 0;\n    _safeMint(msg.sender, _tokenIdCurrentHonorary);\n    emit MintedHonorary(msg.sender, block.timestamp, _tokenIdCurrentHonorary);\n    _tokenIdCurrentHonorary++;\n    nbMintedHonorary++;\n  }\n\n  function mintGuardian() external {\n    require(block.timestamp < limitMintSpecific, \"Guardian mint close\");\n    require(addressesGuardian[msg.sender] > 0, \"No giveway\");\n    require(nbMintedGuardian + 1 <= maxSupplyGuardian, \"Max supply guardian exceed\");\n    addressesGuardian[msg.sender] = 0;\n    _safeMint(msg.sender, _tokenIdCurrentGuardian);\n    emit MintedGuardian(msg.sender, block.timestamp, _tokenIdCurrentGuardian);\n    _tokenIdCurrentGuardian++;\n    nbMintedGuardian++;\n  }\n\n  function mintJudge() external {\n    require(block.timestamp < limitMintSpecific, \"Judge mint close\");\n    require(addressesJudge[msg.sender] > 0, \"Not eligible\");\n    require(nbMintedJudge + 1 <= maxSupplyJudge, \"Max supply judge exceed\");\n    addressesJudge[msg.sender] = 0;\n    _safeMint(msg.sender, _tokenIdCurrentJudge);\n    emit MintedJudge(msg.sender, block.timestamp, _tokenIdCurrentJudge);\n    _tokenIdCurrentJudge++;\n    nbMintedJudge++;\n  }\n\n  function mintWhale() external {\n    require(block.timestamp < limitMintSpecific, \"Whale mint close\");\n    require(addressesWhale[msg.sender] > 0, \"No giveway\");\n    require(nbMintedWhale + 1 <= maxSupplyWhale, \"Max supply whale exceed\");\n    addressesWhale[msg.sender] = 0;\n    _safeMint(msg.sender, _tokenIdCurrentWhale);\n    emit MintedWhale(msg.sender, block.timestamp, _tokenIdCurrentWhale);\n    _tokenIdCurrentWhale++;\n    nbMintedWhale++;\n  }\n\n  function tokenExist(uint256 tokenId) public view returns(bool) {\n    return _exists(tokenId);\n  }\n\n  function setTokenAvailables(uint256[] calldata _tokenIdsAvailable) external onlyOwner {\n    require(block.timestamp > limitMintSpecific, \"Giveway not activate\");\n    tokenAvailables = _tokenIdsAvailable;\n  }\n\n  function getTokenAvailables() public view returns(uint256[] memory) {\n    return tokenAvailables;\n  }\n\n  function countTokenAvailables() public view returns(uint256) {\n    return tokenAvailables.length;\n  }\n\n  function addAddressesGiveway(address[] calldata _toAddAddresses) external onlyOwner {\n    for (uint i = 0; i < _toAddAddresses.length; i++) {\n      addressesGiveway[_toAddAddresses[i]] = 1;\n    }\n  }\n\n  function mintGiveway() external {\n    require(addressesGiveway[msg.sender] > 0, \"No giveway\");\n    require(mainMaxSupply >= mainTotalSupply() + 1, \"Max supply exceed\");\n    addressesGiveway[msg.sender] = 0;\n    _safeMint(msg.sender, tokenAvailables[tokenGivewayIndex]);\n    emit MintedGiveway(msg.sender, block.timestamp, tokenAvailables[tokenGivewayIndex]);\n    tokenGivewayIndex++;\n  }\n}\n",
  "sourcePath": "/Users/rchea/workspaces/MetaLegends/contract-pet/contracts/MetaLifeOgPets.sol",
  "compiler": {
    "name": "solc",
    "version": "0.8.19+commit.7dd6d404.Emscripten.clang"
  },
  "schemaVersion": "3.4.13",
  "updatedAt": "2023-07-06T20:17:02.472Z",
  "networkType": "ethereum",
  "devdoc": {
    "errors": {
      "AccountBalanceOverflow()": [
        {
          "details": "The recipient's balance has overflowed."
        }
      ],
      "BalanceQueryForZeroAddress()": [
        {
          "details": "Cannot query the balance for the zero address."
        }
      ],
      "NotOwnerNorApproved()": [
        {
          "details": "Only the token owner or an approved account can manage the token."
        }
      ],
      "TokenAlreadyExists()": [
        {
          "details": "The token already exists."
        }
      ],
      "TokenDoesNotExist()": [
        {
          "details": "The token does not exist."
        }
      ],
      "TransferFromIncorrectOwner()": [
        {
          "details": "The token must be owned by `from`."
        }
      ],
      "TransferToNonERC721ReceiverImplementer()": [
        {
          "details": "Cannot safely transfer to a contract that does not implement the ERC721Receiver interface."
        }
      ],
      "TransferToZeroAddress()": [
        {
          "details": "Cannot mint or transfer to the zero address."
        }
      ]
    },
    "events": {
      "Approval(address,address,uint256)": {
        "details": "Emitted when `owner` enables `account` to manage the `id` token."
      },
      "ApprovalForAll(address,address,bool)": {
        "details": "Emitted when `owner` enables or disables `operator` to manage all of their tokens."
      },
      "Transfer(address,address,uint256)": {
        "details": "Emitted when token `id` is transferred from `from` to `to`."
      }
    },
    "kind": "dev",
    "methods": {
      "approve(address,uint256)": {
        "details": "Sets `account` as the approved account to manage token `id`. Requirements: - Token `id` must exist. - The caller must be the owner of the token,   or an approved operator for the token owner. Emits a {Approval} event."
      },
      "balanceOf(address)": {
        "details": "Returns the number of tokens owned by `owner`. Requirements: - `owner` must not be the zero address."
      },
      "getApproved(uint256)": {
        "details": "Returns the account approved to managed token `id`. Requirements: - Token `id` must exist."
      },
      "isApprovedForAll(address,address)": {
        "details": "Returns whether `operator` is approved to manage the tokens of `owner`."
      },
      "name()": {
        "details": "Returns the token collection name."
      },
      "owner()": {
        "details": "Returns the address of the current owner."
      },
      "ownerOf(uint256)": {
        "details": "Returns the owner of token `id`. Requirements: - Token `id` must exist."
      },
      "renounceOwnership()": {
        "details": "Leaves the contract without owner. It will not be possible to call `onlyOwner` functions anymore. Can only be called by the current owner. NOTE: Renouncing ownership will leave the contract without an owner, thereby removing any functionality that is only available to the owner."
      },
      "safeTransferFrom(address,address,uint256)": {
        "details": "Equivalent to `safeTransferFrom(from, to, id, \"\")`."
      },
      "safeTransferFrom(address,address,uint256,bytes)": {
        "details": "Transfers token `id` from `from` to `to`. Requirements: - Token `id` must exist. - `from` must be the owner of the token. - `to` cannot be the zero address. - The caller must be the owner of the token, or be approved to manage the token. - If `to` refers to a smart contract, it must implement   {IERC721Receiver-onERC721Received}, which is called upon a safe transfer. Emits a {Transfer} event."
      },
      "setApprovalForAll(address,bool)": {
        "details": "Sets whether `operator` is approved to manage the tokens of the caller. Emits a {ApprovalForAll} event."
      },
      "supportsInterface(bytes4)": {
        "details": "Returns true if this contract implements the interface defined by `interfaceId`. See: https://eips.ethereum.org/EIPS/eip-165 This function call must use less than 30000 gas."
      },
      "symbol()": {
        "details": "Returns the token collection symbol."
      },
      "transferFrom(address,address,uint256)": {
        "details": "Transfers token `id` from `from` to `to`. Requirements: - Token `id` must exist. - `from` must be the owner of the token. - `to` cannot be the zero address. - The caller must be the owner of the token, or be approved to manage the token. Emits a {Transfer} event."
      },
      "transferOwnership(address)": {
        "details": "Transfers ownership of the contract to a new account (`newOwner`). Can only be called by the current owner."
      }
    },
    "version": 1
  },
  "userdoc": {
    "kind": "user",
    "methods": {},
    "version": 1
  }
}