{
  "contractName": "MetaLifeHealingDrone",
  "abi": [
    {
      "inputs": [],
      "stateMutability": "nonpayable",
      "type": "constructor"
    },
    {
      "inputs": [],
      "name": "AccountBalanceOverflow",
      "type": "error"
    },
    {
      "inputs": [],
      "name": "BalanceQueryForZeroAddress",
      "type": "error"
    },
    {
      "inputs": [],
      "name": "ContractsCannotMint",
      "type": "error"
    },
    {
      "inputs": [],
      "name": "MustMintAtLeastOneToken",
      "type": "error"
    },
    {
      "inputs": [],
      "name": "NotEnoughAvailableTokens",
      "type": "error"
    },
    {
      "inputs": [],
      "name": "NotOwnerNorApproved",
      "type": "error"
    },
    {
      "inputs": [],
      "name": "TokenAlreadyExists",
      "type": "error"
    },
    {
      "inputs": [],
      "name": "TokenDoesNotExist",
      "type": "error"
    },
    {
      "inputs": [],
      "name": "TransferFromIncorrectOwner",
      "type": "error"
    },
    {
      "inputs": [],
      "name": "TransferToNonERC721ReceiverImplementer",
      "type": "error"
    },
    {
      "inputs": [],
      "name": "TransferToZeroAddress",
      "type": "error"
    },
    {
      "anonymous": false,
      "inputs": [
        {
          "indexed": true,
          "internalType": "address",
          "name": "owner",
          "type": "address"
        },
        {
          "indexed": true,
          "internalType": "address",
          "name": "account",
          "type": "address"
        },
        {
          "indexed": true,
          "internalType": "uint256",
          "name": "id",
          "type": "uint256"
        }
      ],
      "name": "Approval",
      "type": "event"
    },
    {
      "anonymous": false,
      "inputs": [
        {
          "indexed": true,
          "internalType": "address",
          "name": "owner",
          "type": "address"
        },
        {
          "indexed": true,
          "internalType": "address",
          "name": "operator",
          "type": "address"
        },
        {
          "indexed": false,
          "internalType": "bool",
          "name": "isApproved",
          "type": "bool"
        }
      ],
      "name": "ApprovalForAll",
      "type": "event"
    },
    {
      "anonymous": false,
      "inputs": [
        {
          "indexed": true,
          "internalType": "address",
          "name": "from",
          "type": "address"
        },
        {
          "indexed": false,
          "internalType": "uint256",
          "name": "timestamp",
          "type": "uint256"
        }
      ],
      "name": "Minted",
      "type": "event"
    },
    {
      "anonymous": false,
      "inputs": [
        {
          "indexed": true,
          "internalType": "address",
          "name": "previousOwner",
          "type": "address"
        },
        {
          "indexed": true,
          "internalType": "address",
          "name": "newOwner",
          "type": "address"
        }
      ],
      "name": "OwnershipTransferred",
      "type": "event"
    },
    {
      "anonymous": false,
      "inputs": [
        {
          "indexed": true,
          "internalType": "address",
          "name": "from",
          "type": "address"
        },
        {
          "indexed": true,
          "internalType": "address",
          "name": "to",
          "type": "address"
        },
        {
          "indexed": true,
          "internalType": "uint256",
          "name": "id",
          "type": "uint256"
        }
      ],
      "name": "Transfer",
      "type": "event"
    },
    {
      "inputs": [
        {
          "internalType": "address",
          "name": "account",
          "type": "address"
        },
        {
          "internalType": "uint256",
          "name": "id",
          "type": "uint256"
        }
      ],
      "name": "approve",
      "outputs": [],
      "stateMutability": "payable",
      "type": "function",
      "payable": true
    },
    {
      "inputs": [
        {
          "internalType": "address",
          "name": "owner",
          "type": "address"
        }
      ],
      "name": "balanceOf",
      "outputs": [
        {
          "internalType": "uint256",
          "name": "result",
          "type": "uint256"
        }
      ],
      "stateMutability": "view",
      "type": "function",
      "constant": true
    },
    {
      "inputs": [],
      "name": "baseURI",
      "outputs": [
        {
          "internalType": "string",
          "name": "",
          "type": "string"
        }
      ],
      "stateMutability": "view",
      "type": "function",
      "constant": true
    },
    {
      "inputs": [
        {
          "internalType": "uint256",
          "name": "id",
          "type": "uint256"
        }
      ],
      "name": "getApproved",
      "outputs": [
        {
          "internalType": "address",
          "name": "result",
          "type": "address"
        }
      ],
      "stateMutability": "view",
      "type": "function",
      "constant": true
    },
    {
      "inputs": [
        {
          "internalType": "address",
          "name": "owner",
          "type": "address"
        },
        {
          "internalType": "address",
          "name": "operator",
          "type": "address"
        }
      ],
      "name": "isApprovedForAll",
      "outputs": [
        {
          "internalType": "bool",
          "name": "result",
          "type": "bool"
        }
      ],
      "stateMutability": "view",
      "type": "function",
      "constant": true
    },
    {
      "inputs": [],
      "name": "limitMint",
      "outputs": [
        {
          "internalType": "uint256",
          "name": "",
          "type": "uint256"
        }
      ],
      "stateMutability": "view",
      "type": "function",
      "constant": true
    },
    {
      "inputs": [],
      "name": "maxSupply",
      "outputs": [
        {
          "internalType": "uint256",
          "name": "",
          "type": "uint256"
        }
      ],
      "stateMutability": "view",
      "type": "function",
      "constant": true
    },
    {
      "inputs": [],
      "name": "name",
      "outputs": [
        {
          "internalType": "string",
          "name": "",
          "type": "string"
        }
      ],
      "stateMutability": "view",
      "type": "function",
      "constant": true
    },
    {
      "inputs": [
        {
          "internalType": "address",
          "name": "minter",
          "type": "address"
        }
      ],
      "name": "numberMinted",
      "outputs": [
        {
          "internalType": "uint32",
          "name": "",
          "type": "uint32"
        }
      ],
      "stateMutability": "view",
      "type": "function",
      "constant": true
    },
    {
      "inputs": [],
      "name": "owner",
      "outputs": [
        {
          "internalType": "address",
          "name": "",
          "type": "address"
        }
      ],
      "stateMutability": "view",
      "type": "function",
      "constant": true
    },
    {
      "inputs": [
        {
          "internalType": "uint256",
          "name": "id",
          "type": "uint256"
        }
      ],
      "name": "ownerOf",
      "outputs": [
        {
          "internalType": "address",
          "name": "result",
          "type": "address"
        }
      ],
      "stateMutability": "view",
      "type": "function",
      "constant": true
    },
    {
      "inputs": [],
      "name": "remainingSupply",
      "outputs": [
        {
          "internalType": "uint256",
          "name": "",
          "type": "uint256"
        }
      ],
      "stateMutability": "view",
      "type": "function",
      "constant": true
    },
    {
      "inputs": [],
      "name": "renounceOwnership",
      "outputs": [],
      "stateMutability": "nonpayable",
      "type": "function"
    },
    {
      "inputs": [
        {
          "internalType": "address",
          "name": "from",
          "type": "address"
        },
        {
          "internalType": "address",
          "name": "to",
          "type": "address"
        },
        {
          "internalType": "uint256",
          "name": "id",
          "type": "uint256"
        }
      ],
      "name": "safeTransferFrom",
      "outputs": [],
      "stateMutability": "payable",
      "type": "function",
      "payable": true
    },
    {
      "inputs": [
        {
          "internalType": "address",
          "name": "from",
          "type": "address"
        },
        {
          "internalType": "address",
          "name": "to",
          "type": "address"
        },
        {
          "internalType": "uint256",
          "name": "id",
          "type": "uint256"
        },
        {
          "internalType": "bytes",
          "name": "data",
          "type": "bytes"
        }
      ],
      "name": "safeTransferFrom",
      "outputs": [],
      "stateMutability": "payable",
      "type": "function",
      "payable": true
    },
    {
      "inputs": [
        {
          "internalType": "address",
          "name": "operator",
          "type": "address"
        },
        {
          "internalType": "bool",
          "name": "isApproved",
          "type": "bool"
        }
      ],
      "name": "setApprovalForAll",
      "outputs": [],
      "stateMutability": "nonpayable",
      "type": "function"
    },
    {
      "inputs": [
        {
          "internalType": "bytes4",
          "name": "interfaceId",
          "type": "bytes4"
        }
      ],
      "name": "supportsInterface",
      "outputs": [
        {
          "internalType": "bool",
          "name": "result",
          "type": "bool"
        }
      ],
      "stateMutability": "view",
      "type": "function",
      "constant": true
    },
    {
      "inputs": [],
      "name": "symbol",
      "outputs": [
        {
          "internalType": "string",
          "name": "",
          "type": "string"
        }
      ],
      "stateMutability": "view",
      "type": "function",
      "constant": true
    },
    {
      "inputs": [],
      "name": "totalSupply",
      "outputs": [
        {
          "internalType": "uint256",
          "name": "",
          "type": "uint256"
        }
      ],
      "stateMutability": "view",
      "type": "function",
      "constant": true
    },
    {
      "inputs": [
        {
          "internalType": "address",
          "name": "from",
          "type": "address"
        },
        {
          "internalType": "address",
          "name": "to",
          "type": "address"
        },
        {
          "internalType": "uint256",
          "name": "id",
          "type": "uint256"
        }
      ],
      "name": "transferFrom",
      "outputs": [],
      "stateMutability": "payable",
      "type": "function",
      "payable": true
    },
    {
      "inputs": [
        {
          "internalType": "address",
          "name": "newOwner",
          "type": "address"
        }
      ],
      "name": "transferOwnership",
      "outputs": [],
      "stateMutability": "nonpayable",
      "type": "function"
    },
    {
      "inputs": [],
      "name": "withdrawAll",
      "outputs": [],
      "stateMutability": "payable",
      "type": "function",
      "payable": true
    },
    {
      "inputs": [
        {
          "internalType": "address payable",
          "name": "_newCollector",
          "type": "address"
        }
      ],
      "name": "setCollector",
      "outputs": [],
      "stateMutability": "nonpayable",
      "type": "function"
    },
    {
      "inputs": [
        {
          "internalType": "string",
          "name": "_newBaseURI",
          "type": "string"
        }
      ],
      "name": "_setBaseURI",
      "outputs": [],
      "stateMutability": "nonpayable",
      "type": "function"
    },
    {
      "inputs": [
        {
          "internalType": "uint256",
          "name": "tokenId",
          "type": "uint256"
        }
      ],
      "name": "tokenURI",
      "outputs": [
        {
          "internalType": "string",
          "name": "",
          "type": "string"
        }
      ],
      "stateMutability": "view",
      "type": "function",
      "constant": true
    },
    {
      "inputs": [
        {
          "internalType": "address[]",
          "name": "_addresses",
          "type": "address[]"
        },
        {
          "internalType": "uint8[]",
          "name": "_quantities",
          "type": "uint8[]"
        }
      ],
      "name": "addEligibilities",
      "outputs": [],
      "stateMutability": "nonpayable",
      "type": "function"
    },
    {
      "inputs": [
        {
          "internalType": "address",
          "name": "_wallet",
          "type": "address"
        }
      ],
      "name": "addressEligible",
      "outputs": [
        {
          "internalType": "uint8",
          "name": "",
          "type": "uint8"
        }
      ],
      "stateMutability": "view",
      "type": "function",
      "constant": true
    },
    {
      "inputs": [
        {
          "internalType": "uint8",
          "name": "_nb",
          "type": "uint8"
        }
      ],
      "name": "mint",
      "outputs": [],
      "stateMutability": "nonpayable",
      "type": "function"
    },
    {
      "inputs": [
        {
          "internalType": "uint256",
          "name": "tokenId",
          "type": "uint256"
        }
      ],
      "name": "tokenExist",
      "outputs": [
        {
          "internalType": "bool",
          "name": "",
          "type": "bool"
        }
      ],
      "stateMutability": "view",
      "type": "function",
      "constant": true
    }
  ],
  "bytecode": "0x60a060405260006007553480156200001657600080fd5b506040518060400160405280601781526020017f4d6574612d4c696665204865616c696e672044726f6e650000000000000000008152506040518060400160405280600381526020017f4d4c4800000000000000000000000000000000000000000000000000000000008152506115386001600081905550620000ae620000a2620000f560201b60201c565b620000fd60201b60201c565b8260029081620000bf91906200043d565b508160039081620000d191906200043d565b50806080818152505080600581905550505050636681d55f60078190555062000524565b600033905090565b6000600160009054906101000a900473ffffffffffffffffffffffffffffffffffffffff16905081600160006101000a81548173ffffffffffffffffffffffffffffffffffffffff021916908373ffffffffffffffffffffffffffffffffffffffff1602179055508173ffffffffffffffffffffffffffffffffffffffff168173ffffffffffffffffffffffffffffffffffffffff167f8be0079c531659141344cd1fd0a4f28419497f9722a3daafe3b4186f6b6457e060405160405180910390a35050565b600081519050919050565b7f4e487b7100000000000000000000000000000000000000000000000000000000600052604160045260246000fd5b7f4e487b7100000000000000000000000000000000000000000000000000000000600052602260045260246000fd5b600060028204905060018216806200024557607f821691505b6020821081036200025b576200025a620001fd565b5b50919050565b60008190508160005260206000209050919050565b60006020601f8301049050919050565b600082821b905092915050565b600060088302620002c57fffffffffffffffffffffffffffffffffffffffffffffffffffffffffffffffff8262000286565b620002d1868362000286565b95508019841693508086168417925050509392505050565b6000819050919050565b6000819050919050565b60006200031e620003186200031284620002e9565b620002f3565b620002e9565b9050919050565b6000819050919050565b6200033a83620002fd565b62000352620003498262000325565b84845462000293565b825550505050565b600090565b620003696200035a565b620003768184846200032f565b505050565b5b818110156200039e57620003926000826200035f565b6001810190506200037c565b5050565b601f821115620003ed57620003b78162000261565b620003c28462000276565b81016020851015620003d2578190505b620003ea620003e18562000276565b8301826200037b565b50505b505050565b600082821c905092915050565b60006200041260001984600802620003f2565b1980831691505092915050565b60006200042d8383620003ff565b9150826002028217905092915050565b6200044882620001c3565b67ffffffffffffffff811115620004645762000463620001ce565b5b6200047082546200022c565b6200047d828285620003a2565b600060209050601f831160018114620004b55760008415620004a0578287015190505b620004ac85826200041f565b8655506200051c565b601f198416620004c58662000261565b60005b82811015620004ef57848901518255600182019150602085019450602081019050620004c8565b868310156200050f57848901516200050b601f891682620003ff565b8355505b6001600288020188555050505b505050505050565b608051612f416200054e600039600081816107f201528181610d1101526111990152612f416000f3fe6080604052600436106101c25760003560e01c8063853828b6116100f7578063cc0c523611610095578063e985e9c511610064578063e985e9c5146105ff578063f25edc4a1461063c578063f2fde38b14610679578063fb5b82d0146106a2576101c2565b8063cc0c52361461052f578063d5abeb011461056c578063da0239a614610597578063dc33e681146105c2576101c2565b80639b525924116100d15780639b52592414610482578063a22cb465146104ad578063b88d4fde146104d6578063c87b56dd146104f2576101c2565b8063853828b6146104225780638da5cb5b1461042c57806395d89b4114610457576101c2565b806342842e0e116101645780636c0360eb1161013e5780636c0360eb1461037a5780636ecd2306146103a557806370a08231146103ce578063715018a61461040b576101c2565b806342842e0e146102f85780634d37c425146103145780636352211e1461033d576101c2565b8063095ea7b3116101a0578063095ea7b31461026c57806318160ddd1461028857806323b872dd146102b357806331b5b907146102cf576101c2565b806301ffc9a7146101c757806306fdde0314610204578063081812fc1461022f575b600080fd5b3480156101d357600080fd5b506101ee60048036038101906101e99190611da3565b6106cb565b6040516101fb9190611deb565b60405180910390f35b34801561021057600080fd5b506102196106f0565b6040516102269190611e96565b60405180910390f35b34801561023b57600080fd5b5061025660048036038101906102519190611eee565b610782565b6040516102639190611f5c565b60405180910390f35b61028660048036038101906102819190611fa3565b6107dc565b005b34801561029457600080fd5b5061029d6107eb565b6040516102aa9190611ff2565b60405180910390f35b6102cd60048036038101906102c8919061200d565b610820565b005b3480156102db57600080fd5b506102f660048036038101906102f19190612195565b610968565b005b610312600480360381019061030d919061200d565b610983565b005b34801561032057600080fd5b5061033b60048036038101906103369190612294565b6109bd565b005b34801561034957600080fd5b50610364600480360381019061035f9190611eee565b610adb565b6040516103719190611f5c565b60405180910390f35b34801561038657600080fd5b5061038f610b00565b60405161039c9190611e96565b60405180910390f35b3480156103b157600080fd5b506103cc60048036038101906103c7919061234e565b610b8e565b005b3480156103da57600080fd5b506103f560048036038101906103f0919061237b565b610e7e565b6040516104029190611ff2565b60405180910390f35b34801561041757600080fd5b50610420610ece565b005b61042a610ee2565b005b34801561043857600080fd5b50610441610f55565b60405161044e9190611f5c565b60405180910390f35b34801561046357600080fd5b5061046c610f7f565b6040516104799190611e96565b60405180910390f35b34801561048e57600080fd5b50610497611011565b6040516104a49190611ff2565b60405180910390f35b3480156104b957600080fd5b506104d460048036038101906104cf91906123d4565b611017565b005b6104f060048036038101906104eb919061246a565b61106d565b005b3480156104fe57600080fd5b5061051960048036038101906105149190611eee565b6110de565b6040516105269190611e96565b60405180910390f35b34801561053b57600080fd5b5061055660048036038101906105519190611eee565b611185565b6040516105639190611deb565b60405180910390f35b34801561057857600080fd5b50610581611197565b60405161058e9190611ff2565b60405180910390f35b3480156105a357600080fd5b506105ac6111bb565b6040516105b99190611ff2565b60405180910390f35b3480156105ce57600080fd5b506105e960048036038101906105e4919061237b565b6111c1565b6040516105f69190612511565b60405180910390f35b34801561060b57600080fd5b506106266004803603810190610621919061252c565b6111f5565b6040516106339190611deb565b60405180910390f35b34801561064857600080fd5b50610663600480360381019061065e919061237b565b611219565b604051610670919061257b565b60405180910390f35b34801561068557600080fd5b506106a0600480360381019061069b919061237b565b61126f565b005b3480156106ae57600080fd5b506106c960048036038101906106c491906125d4565b6112f2565b005b60008160e01c635b5e139f81146380ac58cd82146301ffc9a783141717915050919050565b6060600280546106ff90612630565b80601f016020809104026020016040519081016040528092919081815260200182805461072b90612630565b80156107785780601f1061074d57610100808354040283529160200191610778565b820191906000526020600020905b81548152906001019060200180831161075b57829003601f168201915b5050505050905090565b6000816000527f7d8825530a5a2e7a000000000000000000000000000000000000000000000000601c52602060002082018201805460601b60601c6107cf5763ceea21b66000526004601cfd5b8060010154915050919050565b6107e733838361133e565b5050565b60006005547f000000000000000000000000000000000000000000000000000000000000000061081b9190612690565b905090565b61082b8383836113f5565b60001960601c8381169350828116925081600052337f7d8825530a5a2e7a00000000000000000000000000000000000000000000000017601c526020600020820182018054808316868114810261089d578061088f5763ceea21b66000526004601cfd5b63a11481006000526004601cfd5b856108b05763ea553b346000526004601cfd5b866000528260010154803314883314176108dd576030600c20546108dc57634b6e7f186000526004601cfd5b5b80156108eb57600084600101555b5085871882188355601c600c20600181540381555085600052601c600c20600181540163ffffffff8116610927576301336cea6000526004601cfd5b80825550508486887fddf252ad1be2c89b69c2b068fc378daa952ba7f163c4a11628f55a4df523b3ef600080a4505050506109638383836113fa565b505050565b6109706113ff565b806006908161097f9190612870565b5050565b61098e838383610820565b6109978261147d565b156109b8576109b783838360405180602001604052806000815250611488565b5b505050565b6109c56113ff565b818190508484905014610a0d576040517f08c379a0000000000000000000000000000000000000000000000000000000008152600401610a04906129b4565b60405180910390fd5b60005b84849050811015610ad457828282818110610a2e57610a2d6129d4565b5b9050602002016020810190610a43919061234e565b60096000878785818110610a5a57610a596129d4565b5b9050602002016020810190610a6f919061237b565b73ffffffffffffffffffffffffffffffffffffffff1673ffffffffffffffffffffffffffffffffffffffff16815260200190815260200160002060006101000a81548160ff021916908360ff1602179055508080610acc90612a03565b915050610a10565b5050505050565b6000610ae68261151a565b905080610afb5763ceea21b66000526004601cfd5b919050565b60068054610b0d90612630565b80601f0160208091040260200160405190810160405280929190818152602001828054610b3990612630565b8015610b865780601f10610b5b57610100808354040283529160200191610b86565b820191906000526020600020905b815481529060010190602001808311610b6957829003601f168201915b505050505081565b6007544210610bd2576040517f08c379a0000000000000000000000000000000000000000000000000000000008152600401610bc990612a97565b60405180910390fd5b6000600960003373ffffffffffffffffffffffffffffffffffffffff1673ffffffffffffffffffffffffffffffffffffffff16815260200190815260200160002060009054906101000a900460ff1660ff1611610c64576040517f08c379a0000000000000000000000000000000000000000000000000000000008152600401610c5b90612b03565b60405180910390fd5b8060ff16600960003373ffffffffffffffffffffffffffffffffffffffff1673ffffffffffffffffffffffffffffffffffffffff16815260200190815260200160002060009054906101000a900460ff1660ff161015610cf9576040517f08c379a0000000000000000000000000000000000000000000000000000000008152600401610cf090612b6f565b60405180910390fd5b8060ff16610d056107eb565b610d0f9190612b8f565b7f00000000000000000000000000000000000000000000000000000000000000001015610d71576040517f08c379a0000000000000000000000000000000000000000000000000000000008152600401610d6890612c0f565b60405180910390fd5b80600960003373ffffffffffffffffffffffffffffffffffffffff1673ffffffffffffffffffffffffffffffffffffffff16815260200190815260200160002060009054906101000a900460ff16610dc99190612c2f565b600960003373ffffffffffffffffffffffffffffffffffffffff1673ffffffffffffffffffffffffffffffffffffffff16815260200190815260200160002060006101000a81548160ff021916908360ff160217905550610e2d338260ff1661155b565b3373ffffffffffffffffffffffffffffffffffffffff167f30385c845b448a36257a6a1716e6ad2e1bc2cbe333cde1e69fe849ad6511adfe42604051610e739190611ff2565b60405180910390a250565b600081610e9357638f4eb6046000526004601cfd5b7f7d8825530a5a2e7a000000000000000000000000000000000000000000000000601c528160005263ffffffff601c600c2054169050919050565b610ed66113ff565b610ee060006116e6565b565b610eea6113ff565b600860009054906101000a900473ffffffffffffffffffffffffffffffffffffffff1673ffffffffffffffffffffffffffffffffffffffff166108fc479081150290604051600060405180830381858888f19350505050158015610f52573d6000803e3d6000fd5b50565b6000600160009054906101000a900473ffffffffffffffffffffffffffffffffffffffff16905090565b606060038054610f8e90612630565b80601f0160208091040260200160405190810160405280929190818152602001828054610fba90612630565b80156110075780601f10610fdc57610100808354040283529160200191611007565b820191906000526020600020905b815481529060010190602001808311610fea57829003601f168201915b5050505050905090565b60075481565b801515905081601c52670a5a2e7a0000000060085233600052806030600c2055806000528160601b60601c337f17307eab39ab6107e8899845ad3d59bd9653f200f220920489ca2b5937696c3160206000a35050565b611078858585610820565b6110818461147d565b156110d7576110d685858585858080601f016020809104026020016040519081016040528093929190818152602001838380828437600081840152601f19601f82011690508083019250505050505050611488565b5b5050505050565b60606110e9826117ac565b611128576040517f08c379a000000000000000000000000000000000000000000000000000000000815260040161111f90612cb0565b60405180910390fd5b60006111326117ea565b90506000815111611152576040518060200160405280600081525061117d565b8061115c8461187c565b60405160200161116d929190612d0c565b6040516020818303038152906040525b915050919050565b6000611190826117ac565b9050919050565b7f000000000000000000000000000000000000000000000000000000000000000081565b60055481565b600060c06111ce8361194a565b7bffffffffffffffffffffffffffffffffffffffffffffffffffffffff16901c9050919050565b600081601c52670a5a2e7a00000000600852826000526030600c2054905092915050565b6000600960008373ffffffffffffffffffffffffffffffffffffffff1673ffffffffffffffffffffffffffffffffffffffff16815260200190815260200160002060009054906101000a900460ff169050919050565b6112776113ff565b600073ffffffffffffffffffffffffffffffffffffffff168173ffffffffffffffffffffffffffffffffffffffff16036112e6576040517f08c379a00000000000000000000000000000000000000000000000000000000081526004016112dd90612da2565b60405180910390fd5b6112ef816116e6565b50565b6112fa6113ff565b80600860006101000a81548173ffffffffffffffffffffffffffffffffffffffff021916908373ffffffffffffffffffffffffffffffffffffffff16021790555050565b60001960601c8281169250838116935081600052837f7d8825530a5a2e7a00000000000000000000000000000000000000000000000017601c5260206000208201820180548216806113985763ceea21b66000526004601cfd5b8086148615176113bf57806000526030600c20546113be57634b6e7f186000526004601cfd5b5b8482600101558385827f8c5be1e5ebec7d5bd14f71427d1e84f3dd0314c0f7b2291e5b200ac8c7c3b925600080a4505050505050565b505050565b505050565b611407611984565b73ffffffffffffffffffffffffffffffffffffffff16611425610f55565b73ffffffffffffffffffffffffffffffffffffffff161461147b576040517f08c379a000000000000000000000000000000000000000000000000000000000815260040161147290612e0e565b60405180910390fd5b565b6000813b9050919050565b60405163150b7a028082523360208301528560601b60601c604083015283606083015260808083015282518060a084015280156114cf578060c08401826020870160045afa505b60208360a48301601c860160008a5af16114f8573d156114f3573d6000803e3d6000fd5b600083525b8160e01b8351146115115763d1a57ed66000526004601cfd5b50505050505050565b6000816000527f7d8825530a5a2e7a000000000000000000000000000000000000000000000000601c526020600020820182015460601b60601c9050919050565b3273ffffffffffffffffffffffffffffffffffffffff163373ffffffffffffffffffffffffffffffffffffffff16146115c0576040517fd9d552c900000000000000000000000000000000000000000000000000000000815260040160405180910390fd5b600081036115fa576040517f4600cfe900000000000000000000000000000000000000000000000000000000815260040160405180910390fd5b806005541015611636576040517f7775abdd00000000000000000000000000000000000000000000000000000000815260040160405180910390fd5b600060405180602001604052804244604051602001611656929190612e4f565b6040516020818303038152906040528051906020012060001c81525090506000600554905060005b838110156116ce57600061169b838561198c90919063ffffffff16565b905060006116a982856119b7565b90506116b58782611a63565b836116bf90612e7b565b9350826001019250505061167e565b506116d98484611b41565b8060058190555050505050565b6000600160009054906101000a900473ffffffffffffffffffffffffffffffffffffffff16905081600160006101000a81548173ffffffffffffffffffffffffffffffffffffffff021916908373ffffffffffffffffffffffffffffffffffffffff1602179055508173ffffffffffffffffffffffffffffffffffffffff168173ffffffffffffffffffffffffffffffffffffffff167f8be0079c531659141344cd1fd0a4f28419497f9722a3daafe3b4186f6b6457e060405160405180910390a35050565b6000816000527f7d8825530a5a2e7a000000000000000000000000000000000000000000000000601c526020600020820182015460601b9050919050565b6060600680546117f990612630565b80601f016020809104026020016040519081016040528092919081815260200182805461182590612630565b80156118725780601f1061184757610100808354040283529160200191611872565b820191906000526020600020905b81548152906001019060200180831161185557829003601f168201915b5050505050905090565b60606000600161188b84611ba2565b01905060008167ffffffffffffffff8111156118aa576118a961206a565b5b6040519080825280601f01601f1916602001820160405280156118dc5781602001600182028036833780820191505090505b509050600082602001820190505b60011561193f578080600190039150507f3031323334353637383961626364656600000000000000000000000000000000600a86061a8153600a858161193357611932612ea4565b5b049450600085036118ea575b819350505050919050565b60007f7d8825530a5a2e7a000000000000000000000000000000000000000000000000601c5281600052601c600c205460201c9050919050565b600033905090565b60005b6001156119ac57602083209050808352818260000306811061198f575b818106905092915050565b6000806004600085815260200190815260200160002054905060006001846119df9190612690565b905060006004600083815260200190815260200160002054905060008314611a075782611a09565b855b9350818614611a3a5760008114611a205780611a22565b815b60046000888152602001908152602001600020819055505b60008114611a5a5760046000838152602001908152602001600020600090555b50505092915050565b611a6f600083836113f5565b8160601b60601c915081611a8b5763ea553b346000526004601cfd5b806000527f7d8825530a5a2e7a000000000000000000000000000000000000000000000000601c5260206000208101810180548060601b15611ad55763c991cbb16000526004601cfd5b838117825583600052601c600c20600181540163ffffffff8116611b01576301336cea6000526004601cfd5b8082555050828460007fddf252ad1be2c89b69c2b068fc378daa952ba7f163c4a11628f55a4df523b3ef600080a45050611b3d600083836113fa565b5050565b6000611b4c836111c1565b905060008282611b5c9190612ed3565b90506000611b698561194a565b9050611b9b858277ffffffffffffffffffffffffffffffffffffffffffffffff1660c08563ffffffff16901b17611cf5565b5050505050565b600080600090507a184f03e93ff9f4daa797ed6e38ed64bf6a1f0100000000000000008310611c00577a184f03e93ff9f4daa797ed6e38ed64bf6a1f0100000000000000008381611bf657611bf5612ea4565b5b0492506040810190505b6d04ee2d6d415b85acef81000000008310611c3d576d04ee2d6d415b85acef81000000008381611c3357611c32612ea4565b5b0492506020810190505b662386f26fc100008310611c6c57662386f26fc100008381611c6257611c61612ea4565b5b0492506010810190505b6305f5e1008310611c95576305f5e1008381611c8b57611c8a612ea4565b5b0492506008810190505b6127108310611cba576127108381611cb057611caf612ea4565b5b0492506004810190505b60648310611cdd5760648381611cd357611cd2612ea4565b5b0492506002810190505b600a8310611cec576001810190505b80915050919050565b7f7d8825530a5a2e7a000000000000000000000000000000000000000000000000601c5281600052601c600c2080548060201c831860201b8118825550505050565b6000604051905090565b600080fd5b600080fd5b60007fffffffff0000000000000000000000000000000000000000000000000000000082169050919050565b611d8081611d4b565b8114611d8b57600080fd5b50565b600081359050611d9d81611d77565b92915050565b600060208284031215611db957611db8611d41565b5b6000611dc784828501611d8e565b91505092915050565b60008115159050919050565b611de581611dd0565b82525050565b6000602082019050611e006000830184611ddc565b92915050565b600081519050919050565b600082825260208201905092915050565b60005b83811015611e40578082015181840152602081019050611e25565b60008484015250505050565b6000601f19601f8301169050919050565b6000611e6882611e06565b611e728185611e11565b9350611e82818560208601611e22565b611e8b81611e4c565b840191505092915050565b60006020820190508181036000830152611eb08184611e5d565b905092915050565b6000819050919050565b611ecb81611eb8565b8114611ed657600080fd5b50565b600081359050611ee881611ec2565b92915050565b600060208284031215611f0457611f03611d41565b5b6000611f1284828501611ed9565b91505092915050565b600073ffffffffffffffffffffffffffffffffffffffff82169050919050565b6000611f4682611f1b565b9050919050565b611f5681611f3b565b82525050565b6000602082019050611f716000830184611f4d565b92915050565b611f8081611f3b565b8114611f8b57600080fd5b50565b600081359050611f9d81611f77565b92915050565b60008060408385031215611fba57611fb9611d41565b5b6000611fc885828601611f8e565b9250506020611fd985828601611ed9565b9150509250929050565b611fec81611eb8565b82525050565b60006020820190506120076000830184611fe3565b92915050565b60008060006060848603121561202657612025611d41565b5b600061203486828701611f8e565b935050602061204586828701611f8e565b925050604061205686828701611ed9565b9150509250925092565b600080fd5b600080fd5b7f4e487b7100000000000000000000000000000000000000000000000000000000600052604160045260246000fd5b6120a282611e4c565b810181811067ffffffffffffffff821117156120c1576120c061206a565b5b80604052505050565b60006120d4611d37565b90506120e08282612099565b919050565b600067ffffffffffffffff821115612100576120ff61206a565b5b61210982611e4c565b9050602081019050919050565b82818337600083830152505050565b6000612138612133846120e5565b6120ca565b90508281526020810184848401111561215457612153612065565b5b61215f848285612116565b509392505050565b600082601f83011261217c5761217b612060565b5b813561218c848260208601612125565b91505092915050565b6000602082840312156121ab576121aa611d41565b5b600082013567ffffffffffffffff8111156121c9576121c8611d46565b5b6121d584828501612167565b91505092915050565b600080fd5b600080fd5b60008083601f8401126121fe576121fd612060565b5b8235905067ffffffffffffffff81111561221b5761221a6121de565b5b602083019150836020820283011115612237576122366121e3565b5b9250929050565b60008083601f84011261225457612253612060565b5b8235905067ffffffffffffffff811115612271576122706121de565b5b60208301915083602082028301111561228d5761228c6121e3565b5b9250929050565b600080600080604085870312156122ae576122ad611d41565b5b600085013567ffffffffffffffff8111156122cc576122cb611d46565b5b6122d8878288016121e8565b9450945050602085013567ffffffffffffffff8111156122fb576122fa611d46565b5b6123078782880161223e565b925092505092959194509250565b600060ff82169050919050565b61232b81612315565b811461233657600080fd5b50565b60008135905061234881612322565b92915050565b60006020828403121561236457612363611d41565b5b600061237284828501612339565b91505092915050565b60006020828403121561239157612390611d41565b5b600061239f84828501611f8e565b91505092915050565b6123b181611dd0565b81146123bc57600080fd5b50565b6000813590506123ce816123a8565b92915050565b600080604083850312156123eb576123ea611d41565b5b60006123f985828601611f8e565b925050602061240a858286016123bf565b9150509250929050565b60008083601f84011261242a57612429612060565b5b8235905067ffffffffffffffff811115612447576124466121de565b5b602083019150836001820283011115612463576124626121e3565b5b9250929050565b60008060008060006080868803121561248657612485611d41565b5b600061249488828901611f8e565b95505060206124a588828901611f8e565b94505060406124b688828901611ed9565b935050606086013567ffffffffffffffff8111156124d7576124d6611d46565b5b6124e388828901612414565b92509250509295509295909350565b600063ffffffff82169050919050565b61250b816124f2565b82525050565b60006020820190506125266000830184612502565b92915050565b6000806040838503121561254357612542611d41565b5b600061255185828601611f8e565b925050602061256285828601611f8e565b9150509250929050565b61257581612315565b82525050565b6000602082019050612590600083018461256c565b92915050565b60006125a182611f1b565b9050919050565b6125b181612596565b81146125bc57600080fd5b50565b6000813590506125ce816125a8565b92915050565b6000602082840312156125ea576125e9611d41565b5b60006125f8848285016125bf565b91505092915050565b7f4e487b7100000000000000000000000000000000000000000000000000000000600052602260045260246000fd5b6000600282049050600182168061264857607f821691505b60208210810361265b5761265a612601565b5b50919050565b7f4e487b7100000000000000000000000000000000000000000000000000000000600052601160045260246000fd5b600061269b82611eb8565b91506126a683611eb8565b92508282039050818111156126be576126bd612661565b5b92915050565b60008190508160005260206000209050919050565b60006020601f8301049050919050565b600082821b905092915050565b6000600883026127267fffffffffffffffffffffffffffffffffffffffffffffffffffffffffffffffff826126e9565b61273086836126e9565b95508019841693508086168417925050509392505050565b6000819050919050565b600061276d61276861276384611eb8565b612748565b611eb8565b9050919050565b6000819050919050565b61278783612752565b61279b61279382612774565b8484546126f6565b825550505050565b600090565b6127b06127a3565b6127bb81848461277e565b505050565b5b818110156127df576127d46000826127a8565b6001810190506127c1565b5050565b601f821115612824576127f5816126c4565b6127fe846126d9565b8101602085101561280d578190505b612821612819856126d9565b8301826127c0565b50505b505050565b600082821c905092915050565b600061284760001984600802612829565b1980831691505092915050565b60006128608383612836565b9150826002028217905092915050565b61287982611e06565b67ffffffffffffffff8111156128925761289161206a565b5b61289c8254612630565b6128a78282856127e3565b600060209050601f8311600181146128da57600084156128c8578287015190505b6128d28582612854565b86555061293a565b601f1984166128e8866126c4565b60005b82811015612910578489015182556001820191506020850194506020810190506128eb565b8683101561292d5784890151612929601f891682612836565b8355505b6001600288020188555050505b505050505050565b7f4e62206164647265737320616e64206e62207175616e746974696573206d757360008201527f7420626520657175616c00000000000000000000000000000000000000000000602082015250565b600061299e602a83611e11565b91506129a982612942565b604082019050919050565b600060208201905081810360008301526129cd81612991565b9050919050565b7f4e487b7100000000000000000000000000000000000000000000000000000000600052603260045260246000fd5b6000612a0e82611eb8565b91507fffffffffffffffffffffffffffffffffffffffffffffffffffffffffffffffff8203612a4057612a3f612661565b5b600182019050919050565b7f4865616c696e672064726f6e65206d696e7420636c6f73650000000000000000600082015250565b6000612a81601883611e11565b9150612a8c82612a4b565b602082019050919050565b60006020820190508181036000830152612ab081612a74565b9050919050565b7f4e6f7420656c696769626c650000000000000000000000000000000000000000600082015250565b6000612aed600c83611e11565b9150612af882612ab7565b602082019050919050565b60006020820190508181036000830152612b1c81612ae0565b9050919050565b7f4e6f7420656e6f75676820636c61696d61626c6520746f6b656e730000000000600082015250565b6000612b59601b83611e11565b9150612b6482612b23565b602082019050919050565b60006020820190508181036000830152612b8881612b4c565b9050919050565b6000612b9a82611eb8565b9150612ba583611eb8565b9250828201905080821115612bbd57612bbc612661565b5b92915050565b7f537570706c79206c696d69742065786365656400000000000000000000000000600082015250565b6000612bf9601383611e11565b9150612c0482612bc3565b602082019050919050565b60006020820190508181036000830152612c2881612bec565b9050919050565b6000612c3a82612315565b9150612c4583612315565b9250828203905060ff811115612c5e57612c5d612661565b5b92915050565b7f756e6b6e6f7720746f6b656e0000000000000000000000000000000000000000600082015250565b6000612c9a600c83611e11565b9150612ca582612c64565b602082019050919050565b60006020820190508181036000830152612cc981612c8d565b9050919050565b600081905092915050565b6000612ce682611e06565b612cf08185612cd0565b9350612d00818560208601611e22565b80840191505092915050565b6000612d188285612cdb565b9150612d248284612cdb565b91508190509392505050565b7f4f776e61626c653a206e6577206f776e657220697320746865207a65726f206160008201527f6464726573730000000000000000000000000000000000000000000000000000602082015250565b6000612d8c602683611e11565b9150612d9782612d30565b604082019050919050565b60006020820190508181036000830152612dbb81612d7f565b9050919050565b7f4f776e61626c653a2063616c6c6572206973206e6f7420746865206f776e6572600082015250565b6000612df8602083611e11565b9150612e0382612dc2565b602082019050919050565b60006020820190508181036000830152612e2781612deb565b9050919050565b6000819050919050565b612e49612e4482611eb8565b612e2e565b82525050565b6000612e5b8285612e38565b602082019150612e6b8284612e38565b6020820191508190509392505050565b6000612e8682611eb8565b915060008203612e9957612e98612661565b5b600182039050919050565b7f4e487b7100000000000000000000000000000000000000000000000000000000600052601260045260246000fd5b6000612ede826124f2565b9150612ee9836124f2565b9250828201905063ffffffff811115612f0557612f04612661565b5b9291505056fea2646970667358221220674e49416a187c69e7f2d0a3764acf29159a35feffe96ff8d16cfb17e96b6ccc64736f6c63430008130033",
  "immutableReferences": {
    "2143": [
      {
        "length": 32,
        "start": 2034
      },
      {
        "length": 32,
        "start": 3345
      },
      {
        "length": 32,
        "start": 4505
      }
    ]
  },
  "source": "// SPDX-License-Identifier: MIT\npragma solidity 0.8.19;\n\nimport \"@openzeppelin/contracts/utils/Strings.sol\";\nimport \"@openzeppelin/contracts/access/Ownable.sol\";\nimport \"@openzeppelin/contracts/security/ReentrancyGuard.sol\";\nimport \"./ERC721r.sol\";\n\ncontract MetaLifeHealingDrone is ReentrancyGuard, Ownable, ERC721r {\n\n    using Strings for uint256;\n    string public baseURI;\n\n    uint256 public limitMint = 0;\n    address payable private collector;\n\n    mapping(address => uint8) private eligibilities;\n    event Minted(address indexed from, uint256 timestamp);\n\n    constructor() ERC721r('Meta-Life Healing Drone', 'MLH', 54_32){\n        limitMint = 1719784799;\n    }\n\n    function withdrawAll() public payable onlyOwner {\n        collector.transfer(address(this).balance);\n    }\n\n    function setCollector(address payable _newCollector) public onlyOwner {\n        // GMT Sunday 30 June 2024 21:59:59\n        collector = _newCollector;\n    }\n\n    function _setBaseURI(string memory _newBaseURI) public onlyOwner {\n        baseURI = _newBaseURI;\n    }\n\n    function _baseURI() internal view virtual returns (string memory) {\n        return baseURI;\n    }\n\n    function tokenURI(uint256 tokenId) public view virtual override returns (string memory) {\n        require(_exists(tokenId), 'unknow token');\n\n        string memory uri = _baseURI();\n        return bytes(uri).length > 0 ? string(abi.encodePacked(uri, tokenId.toString())) : \"\";\n    }\n\n    function addEligibilities(address[] calldata _addresses, uint8[] calldata _quantities) external onlyOwner {\n        require(_addresses.length == _quantities.length, 'Nb address and nb quantities must be equal');\n        for (uint i = 0; i < _addresses.length; i++) {\n            eligibilities[_addresses[i]] = _quantities[i];\n        }\n    }\n\n    function addressEligible(address _wallet) public view returns(uint8) {\n        return eligibilities[_wallet];\n    }\n\n    function mint(uint8 _nb) external {\n        require(block.timestamp < limitMint, \"Healing drone mint close\");\n        require(eligibilities[msg.sender] > 0, \"Not eligible\");\n        require(eligibilities[msg.sender] >= _nb, \"Not enough claimable tokens\");\n        require(maxSupply >= totalSupply() + _nb, \"Supply limit exceed\");\n\n        eligibilities[msg.sender] = eligibilities[msg.sender] - _nb;\n        _mintRandom(msg.sender, _nb);\n        emit Minted(msg.sender, block.timestamp);\n    }\n\n    function tokenExist(uint256 tokenId) public view returns(bool) {\n        return _exists(tokenId);\n    }\n}\n",
  "sourcePath": "/Users/rchea/workspaces/MetaLegends/contract-healing-drone/contracts/MetaLifeHealingDrone.sol",
  "compiler": {
    "name": "solc",
    "version": "0.8.19+commit.7dd6d404.Emscripten.clang"
  },
  "schemaVersion": "3.4.13",
  "updatedAt": "2023-10-15T06:08:52.807Z",
  "networkType": "ethereum",
  "devdoc": {
    "errors": {
      "AccountBalanceOverflow()": [
        {
          "details": "The recipient's balance has overflowed."
        }
      ],
      "BalanceQueryForZeroAddress()": [
        {
          "details": "Cannot query the balance for the zero address."
        }
      ],
      "NotOwnerNorApproved()": [
        {
          "details": "Only the token owner or an approved account can manage the token."
        }
      ],
      "TokenAlreadyExists()": [
        {
          "details": "The token already exists."
        }
      ],
      "TokenDoesNotExist()": [
        {
          "details": "The token does not exist."
        }
      ],
      "TransferFromIncorrectOwner()": [
        {
          "details": "The token must be owned by `from`."
        }
      ],
      "TransferToNonERC721ReceiverImplementer()": [
        {
          "details": "Cannot safely transfer to a contract that does not implement the ERC721Receiver interface."
        }
      ],
      "TransferToZeroAddress()": [
        {
          "details": "Cannot mint or transfer to the zero address."
        }
      ]
    },
    "events": {
      "Approval(address,address,uint256)": {
        "details": "Emitted when `owner` enables `account` to manage the `id` token."
      },
      "ApprovalForAll(address,address,bool)": {
        "details": "Emitted when `owner` enables or disables `operator` to manage all of their tokens."
      },
      "Transfer(address,address,uint256)": {
        "details": "Emitted when token `id` is transferred from `from` to `to`."
      }
    },
    "kind": "dev",
    "methods": {
      "approve(address,uint256)": {
        "details": "Sets `account` as the approved account to manage token `id`. Requirements: - Token `id` must exist. - The caller must be the owner of the token,   or an approved operator for the token owner. Emits a {Approval} event."
      },
      "balanceOf(address)": {
        "details": "Returns the number of tokens owned by `owner`. Requirements: - `owner` must not be the zero address."
      },
      "getApproved(uint256)": {
        "details": "Returns the account approved to managed token `id`. Requirements: - Token `id` must exist."
      },
      "isApprovedForAll(address,address)": {
        "details": "Returns whether `operator` is approved to manage the tokens of `owner`."
      },
      "name()": {
        "details": "Returns the token collection name."
      },
      "owner()": {
        "details": "Returns the address of the current owner."
      },
      "ownerOf(uint256)": {
        "details": "Returns the owner of token `id`. Requirements: - Token `id` must exist."
      },
      "renounceOwnership()": {
        "details": "Leaves the contract without owner. It will not be possible to call `onlyOwner` functions. Can only be called by the current owner. NOTE: Renouncing ownership will leave the contract without an owner, thereby disabling any functionality that is only available to the owner."
      },
      "safeTransferFrom(address,address,uint256)": {
        "details": "Equivalent to `safeTransferFrom(from, to, id, \"\")`."
      },
      "safeTransferFrom(address,address,uint256,bytes)": {
        "details": "Transfers token `id` from `from` to `to`. Requirements: - Token `id` must exist. - `from` must be the owner of the token. - `to` cannot be the zero address. - The caller must be the owner of the token, or be approved to manage the token. - If `to` refers to a smart contract, it must implement   {IERC721Receiver-onERC721Received}, which is called upon a safe transfer. Emits a {Transfer} event."
      },
      "setApprovalForAll(address,bool)": {
        "details": "Sets whether `operator` is approved to manage the tokens of the caller. Emits a {ApprovalForAll} event."
      },
      "supportsInterface(bytes4)": {
        "details": "Returns true if this contract implements the interface defined by `interfaceId`. See: https://eips.ethereum.org/EIPS/eip-165 This function call must use less than 30000 gas."
      },
      "symbol()": {
        "details": "Returns the token collection symbol."
      },
      "transferFrom(address,address,uint256)": {
        "details": "Transfers token `id` from `from` to `to`. Requirements: - Token `id` must exist. - `from` must be the owner of the token. - `to` cannot be the zero address. - The caller must be the owner of the token, or be approved to manage the token. Emits a {Transfer} event."
      },
      "transferOwnership(address)": {
        "details": "Transfers ownership of the contract to a new account (`newOwner`). Can only be called by the current owner."
      }
    },
    "version": 1
  },
  "userdoc": {
    "kind": "user",
    "methods": {},
    "version": 1
  }
}