{
  "abi": [
    {
      "type": "constructor",
      "inputs": [],
      "stateMutability": "nonpayable"
    },
    {
      "type": "function",
      "name": "DEFAULT_ADMIN_ROLE",
      "inputs": [],
      "outputs": [
        {
          "name": "",
          "type": "bytes32",
          "internalType": "bytes32"
        }
      ],
      "stateMutability": "view"
    },
    {
      "type": "function",
      "name": "_setBaseURI",
      "inputs": [
        {
          "name": "_newBaseURI",
          "type": "string",
          "internalType": "string"
        }
      ],
      "outputs": [],
      "stateMutability": "nonpayable"
    },
    {
      "type": "function",
      "name": "addAdmin",
      "inputs": [
        {
          "name": "account",
          "type": "address",
          "internalType": "address"
        }
      ],
      "outputs": [],
      "stateMutability": "nonpayable"
    },
    {
      "type": "function",
      "name": "approve",
      "inputs": [
        {
          "name": "to",
          "type": "address",
          "internalType": "address"
        },
        {
          "name": "tokenId",
          "type": "uint256",
          "internalType": "uint256"
        }
      ],
      "outputs": [],
      "stateMutability": "nonpayable"
    },
    {
      "type": "function",
      "name": "balanceOf",
      "inputs": [
        {
          "name": "owner",
          "type": "address",
          "internalType": "address"
        }
      ],
      "outputs": [
        {
          "name": "",
          "type": "uint256",
          "internalType": "uint256"
        }
      ],
      "stateMutability": "view"
    },
    {
      "type": "function",
      "name": "baseURI",
      "inputs": [],
      "outputs": [
        {
          "name": "",
          "type": "string",
          "internalType": "string"
        }
      ],
      "stateMutability": "view"
    },
    {
      "type": "function",
      "name": "getApproved",
      "inputs": [
        {
          "name": "tokenId",
          "type": "uint256",
          "internalType": "uint256"
        }
      ],
      "outputs": [
        {
          "name": "",
          "type": "address",
          "internalType": "address"
        }
      ],
      "stateMutability": "view"
    },
    {
      "type": "function",
      "name": "getRoleAdmin",
      "inputs": [
        {
          "name": "role",
          "type": "bytes32",
          "internalType": "bytes32"
        }
      ],
      "outputs": [
        {
          "name": "",
          "type": "bytes32",
          "internalType": "bytes32"
        }
      ],
      "stateMutability": "view"
    },
    {
      "type": "function",
      "name": "grantRole",
      "inputs": [
        {
          "name": "role",
          "type": "bytes32",
          "internalType": "bytes32"
        },
        {
          "name": "account",
          "type": "address",
          "internalType": "address"
        }
      ],
      "outputs": [],
      "stateMutability": "nonpayable"
    },
    {
      "type": "function",
      "name": "hasRole",
      "inputs": [
        {
          "name": "role",
          "type": "bytes32",
          "internalType": "bytes32"
        },
        {
          "name": "account",
          "type": "address",
          "internalType": "address"
        }
      ],
      "outputs": [
        {
          "name": "",
          "type": "bool",
          "internalType": "bool"
        }
      ],
      "stateMutability": "view"
    },
    {
      "type": "function",
      "name": "isApprovedForAll",
      "inputs": [
        {
          "name": "owner",
          "type": "address",
          "internalType": "address"
        },
        {
          "name": "operator",
          "type": "address",
          "internalType": "address"
        }
      ],
      "outputs": [
        {
          "name": "",
          "type": "bool",
          "internalType": "bool"
        }
      ],
      "stateMutability": "view"
    },
    {
      "type": "function",
      "name": "mint",
      "inputs": [
        {
          "name": "_quantity",
          "type": "uint256",
          "internalType": "uint256"
        }
      ],
      "outputs": [],
      "stateMutability": "nonpayable"
    },
    {
      "type": "function",
      "name": "name",
      "inputs": [],
      "outputs": [
        {
          "name": "",
          "type": "string",
          "internalType": "string"
        }
      ],
      "stateMutability": "view"
    },
    {
      "type": "function",
      "name": "originOwner",
      "inputs": [],
      "outputs": [
        {
          "name": "",
          "type": "address",
          "internalType": "address"
        }
      ],
      "stateMutability": "view"
    },
    {
      "type": "function",
      "name": "owner",
      "inputs": [],
      "outputs": [
        {
          "name": "",
          "type": "address",
          "internalType": "address"
        }
      ],
      "stateMutability": "view"
    },
    {
      "type": "function",
      "name": "ownerOf",
      "inputs": [
        {
          "name": "tokenId",
          "type": "uint256",
          "internalType": "uint256"
        }
      ],
      "outputs": [
        {
          "name": "",
          "type": "address",
          "internalType": "address"
        }
      ],
      "stateMutability": "view"
    },
    {
      "type": "function",
      "name": "removeAdmin",
      "inputs": [
        {
          "name": "account",
          "type": "address",
          "internalType": "address"
        }
      ],
      "outputs": [],
      "stateMutability": "nonpayable"
    },
    {
      "type": "function",
      "name": "renounceOwnership",
      "inputs": [],
      "outputs": [],
      "stateMutability": "nonpayable"
    },
    {
      "type": "function",
      "name": "renounceRole",
      "inputs": [
        {
          "name": "role",
          "type": "bytes32",
          "internalType": "bytes32"
        },
        {
          "name": "callerConfirmation",
          "type": "address",
          "internalType": "address"
        }
      ],
      "outputs": [],
      "stateMutability": "nonpayable"
    },
    {
      "type": "function",
      "name": "revokeRole",
      "inputs": [
        {
          "name": "role",
          "type": "bytes32",
          "internalType": "bytes32"
        },
        {
          "name": "account",
          "type": "address",
          "internalType": "address"
        }
      ],
      "outputs": [],
      "stateMutability": "nonpayable"
    },
    {
      "type": "function",
      "name": "safeTransferFrom",
      "inputs": [
        {
          "name": "from",
          "type": "address",
          "internalType": "address"
        },
        {
          "name": "to",
          "type": "address",
          "internalType": "address"
        },
        {
          "name": "tokenId",
          "type": "uint256",
          "internalType": "uint256"
        }
      ],
      "outputs": [],
      "stateMutability": "nonpayable"
    },
    {
      "type": "function",
      "name": "safeTransferFrom",
      "inputs": [
        {
          "name": "from",
          "type": "address",
          "internalType": "address"
        },
        {
          "name": "to",
          "type": "address",
          "internalType": "address"
        },
        {
          "name": "tokenId",
          "type": "uint256",
          "internalType": "uint256"
        },
        {
          "name": "data",
          "type": "bytes",
          "internalType": "bytes"
        }
      ],
      "outputs": [],
      "stateMutability": "nonpayable"
    },
    {
      "type": "function",
      "name": "setApprovalForAll",
      "inputs": [
        {
          "name": "operator",
          "type": "address",
          "internalType": "address"
        },
        {
          "name": "approved",
          "type": "bool",
          "internalType": "bool"
        }
      ],
      "outputs": [],
      "stateMutability": "nonpayable"
    },
    {
      "type": "function",
      "name": "supportsInterface",
      "inputs": [
        {
          "name": "interfaceId",
          "type": "bytes4",
          "internalType": "bytes4"
        }
      ],
      "outputs": [
        {
          "name": "",
          "type": "bool",
          "internalType": "bool"
        }
      ],
      "stateMutability": "view"
    },
    {
      "type": "function",
      "name": "symbol",
      "inputs": [],
      "outputs": [
        {
          "name": "",
          "type": "string",
          "internalType": "string"
        }
      ],
      "stateMutability": "view"
    },
    {
      "type": "function",
      "name": "tokenByIndex",
      "inputs": [
        {
          "name": "index",
          "type": "uint256",
          "internalType": "uint256"
        }
      ],
      "outputs": [
        {
          "name": "",
          "type": "uint256",
          "internalType": "uint256"
        }
      ],
      "stateMutability": "view"
    },
    {
      "type": "function",
      "name": "tokenOfOwnerByIndex",
      "inputs": [
        {
          "name": "owner",
          "type": "address",
          "internalType": "address"
        },
        {
          "name": "index",
          "type": "uint256",
          "internalType": "uint256"
        }
      ],
      "outputs": [
        {
          "name": "",
          "type": "uint256",
          "internalType": "uint256"
        }
      ],
      "stateMutability": "view"
    },
    {
      "type": "function",
      "name": "tokenURI",
      "inputs": [
        {
          "name": "tokenId",
          "type": "uint256",
          "internalType": "uint256"
        }
      ],
      "outputs": [
        {
          "name": "",
          "type": "string",
          "internalType": "string"
        }
      ],
      "stateMutability": "view"
    },
    {
      "type": "function",
      "name": "totalSupply",
      "inputs": [],
      "outputs": [
        {
          "name": "",
          "type": "uint256",
          "internalType": "uint256"
        }
      ],
      "stateMutability": "view"
    },
    {
      "type": "function",
      "name": "transferFrom",
      "inputs": [
        {
          "name": "from",
          "type": "address",
          "internalType": "address"
        },
        {
          "name": "to",
          "type": "address",
          "internalType": "address"
        },
        {
          "name": "tokenId",
          "type": "uint256",
          "internalType": "uint256"
        }
      ],
      "outputs": [],
      "stateMutability": "nonpayable"
    },
    {
      "type": "function",
      "name": "transferOwnership",
      "inputs": [
        {
          "name": "newOwner",
          "type": "address",
          "internalType": "address"
        }
      ],
      "outputs": [],
      "stateMutability": "nonpayable"
    },
    {
      "type": "function",
      "name": "withdrawAll",
      "inputs": [],
      "outputs": [],
      "stateMutability": "nonpayable"
    },
    {
      "type": "event",
      "name": "Approval",
      "inputs": [
        {
          "name": "owner",
          "type": "address",
          "indexed": true,
          "internalType": "address"
        },
        {
          "name": "approved",
          "type": "address",
          "indexed": true,
          "internalType": "address"
        },
        {
          "name": "tokenId",
          "type": "uint256",
          "indexed": true,
          "internalType": "uint256"
        }
      ],
      "anonymous": false
    },
    {
      "type": "event",
      "name": "ApprovalForAll",
      "inputs": [
        {
          "name": "owner",
          "type": "address",
          "indexed": true,
          "internalType": "address"
        },
        {
          "name": "operator",
          "type": "address",
          "indexed": true,
          "internalType": "address"
        },
        {
          "name": "approved",
          "type": "bool",
          "indexed": false,
          "internalType": "bool"
        }
      ],
      "anonymous": false
    },
    {
      "type": "event",
      "name": "OwnershipTransferred",
      "inputs": [
        {
          "name": "previousOwner",
          "type": "address",
          "indexed": true,
          "internalType": "address"
        },
        {
          "name": "newOwner",
          "type": "address",
          "indexed": true,
          "internalType": "address"
        }
      ],
      "anonymous": false
    },
    {
      "type": "event",
      "name": "RoleAdminChanged",
      "inputs": [
        {
          "name": "role",
          "type": "bytes32",
          "indexed": true,
          "internalType": "bytes32"
        },
        {
          "name": "previousAdminRole",
          "type": "bytes32",
          "indexed": true,
          "internalType": "bytes32"
        },
        {
          "name": "newAdminRole",
          "type": "bytes32",
          "indexed": true,
          "internalType": "bytes32"
        }
      ],
      "anonymous": false
    },
    {
      "type": "event",
      "name": "RoleGranted",
      "inputs": [
        {
          "name": "role",
          "type": "bytes32",
          "indexed": true,
          "internalType": "bytes32"
        },
        {
          "name": "account",
          "type": "address",
          "indexed": true,
          "internalType": "address"
        },
        {
          "name": "sender",
          "type": "address",
          "indexed": true,
          "internalType": "address"
        }
      ],
      "anonymous": false
    },
    {
      "type": "event",
      "name": "RoleRevoked",
      "inputs": [
        {
          "name": "role",
          "type": "bytes32",
          "indexed": true,
          "internalType": "bytes32"
        },
        {
          "name": "account",
          "type": "address",
          "indexed": true,
          "internalType": "address"
        },
        {
          "name": "sender",
          "type": "address",
          "indexed": true,
          "internalType": "address"
        }
      ],
      "anonymous": false
    },
    {
      "type": "event",
      "name": "Transfer",
      "inputs": [
        {
          "name": "from",
          "type": "address",
          "indexed": true,
          "internalType": "address"
        },
        {
          "name": "to",
          "type": "address",
          "indexed": true,
          "internalType": "address"
        },
        {
          "name": "tokenId",
          "type": "uint256",
          "indexed": true,
          "internalType": "uint256"
        }
      ],
      "anonymous": false
    },
    {
      "type": "error",
      "name": "AccessControlBadConfirmation",
      "inputs": []
    },
    {
      "type": "error",
      "name": "AccessControlUnauthorizedAccount",
      "inputs": [
        {
          "name": "account",
          "type": "address",
          "internalType": "address"
        },
        {
          "name": "neededRole",
          "type": "bytes32",
          "internalType": "bytes32"
        }
      ]
    },
    {
      "type": "error",
      "name": "AddressInsufficientBalance",
      "inputs": [
        {
          "name": "account",
          "type": "address",
          "internalType": "address"
        }
      ]
    },
    {
      "type": "error",
      "name": "ERC721EnumerableForbiddenBatchMint",
      "inputs": []
    },
    {
      "type": "error",
      "name": "ERC721IncorrectOwner",
      "inputs": [
        {
          "name": "sender",
          "type": "address",
          "internalType": "address"
        },
        {
          "name": "tokenId",
          "type": "uint256",
          "internalType": "uint256"
        },
        {
          "name": "owner",
          "type": "address",
          "internalType": "address"
        }
      ]
    },
    {
      "type": "error",
      "name": "ERC721InsufficientApproval",
      "inputs": [
        {
          "name": "operator",
          "type": "address",
          "internalType": "address"
        },
        {
          "name": "tokenId",
          "type": "uint256",
          "internalType": "uint256"
        }
      ]
    },
    {
      "type": "error",
      "name": "ERC721InvalidApprover",
      "inputs": [
        {
          "name": "approver",
          "type": "address",
          "internalType": "address"
        }
      ]
    },
    {
      "type": "error",
      "name": "ERC721InvalidOperator",
      "inputs": [
        {
          "name": "operator",
          "type": "address",
          "internalType": "address"
        }
      ]
    },
    {
      "type": "error",
      "name": "ERC721InvalidOwner",
      "inputs": [
        {
          "name": "owner",
          "type": "address",
          "internalType": "address"
        }
      ]
    },
    {
      "type": "error",
      "name": "ERC721InvalidReceiver",
      "inputs": [
        {
          "name": "receiver",
          "type": "address",
          "internalType": "address"
        }
      ]
    },
    {
      "type": "error",
      "name": "ERC721InvalidSender",
      "inputs": [
        {
          "name": "sender",
          "type": "address",
          "internalType": "address"
        }
      ]
    },
    {
      "type": "error",
      "name": "ERC721NonexistentToken",
      "inputs": [
        {
          "name": "tokenId",
          "type": "uint256",
          "internalType": "uint256"
        }
      ]
    },
    {
      "type": "error",
      "name": "ERC721OutOfBoundsIndex",
      "inputs": [
        {
          "name": "owner",
          "type": "address",
          "internalType": "address"
        },
        {
          "name": "index",
          "type": "uint256",
          "internalType": "uint256"
        }
      ]
    },
    {
      "type": "error",
      "name": "FailedInnerCall",
      "inputs": []
    },
    {
      "type": "error",
      "name": "OwnableInvalidOwner",
      "inputs": [
        {
          "name": "owner",
          "type": "address",
          "internalType": "address"
        }
      ]
    },
    {
      "type": "error",
      "name": "OwnableUnauthorizedAccount",
      "inputs": [
        {
          "name": "account",
          "type": "address",
          "internalType": "address"
        }
      ]
    }
  ],
  "bytecode": {
    "object": "0x6080604052600c80547379cfd6a38748bbddf15712222333476730d9028b6001600160a01b03199182168117909255600d805490911690911790556001600f5534801561004b57600080fd5b50600d54604080518082018252600c81526b4d6574612d4c6567656e647360a01b60208083019190915282518084019093526002835261135360f21b908301526001600160a01b03909216919060006100a4838261033b565b5060016100b1828261033b565b5050506001600160a01b0381166100e257604051631e4fbdf760e01b81526000600482015260240160405180910390fd5b6100eb8161014f565b506101177f0f888941bd07ea31c6e78b607c9e2c2f0a375eb86daa19a04e532dffc7545ca860006101a1565b6101226000336101ec565b5060405180608001604052806057815260200161209660579139600e90610149908261033b565b506103f9565b600b80546001600160a01b038381166001600160a01b0319831681179093556040519116919082907f8be0079c531659141344cd1fd0a4f28419497f9722a3daafe3b4186f6b6457e090600090a35050565b6000828152600a6020526040808220600101805490849055905190918391839186917fbd79b86ffe0ab8e8776151514217cd7cacd52c909f66475c3af44e129f0b00ff9190a4505050565b6000828152600a602090815260408083206001600160a01b038516845290915281205460ff16610292576000838152600a602090815260408083206001600160a01b03861684529091529020805460ff1916600117905561024a3390565b6001600160a01b0316826001600160a01b0316847f2f8788117e7eff1d82e926ec794901d17c78024a50270940304540a733656f0d60405160405180910390a4506001610296565b5060005b92915050565b634e487b7160e01b600052604160045260246000fd5b600181811c908216806102c657607f821691505b6020821081036102e657634e487b7160e01b600052602260045260246000fd5b50919050565b601f82111561033657806000526020600020601f840160051c810160208510156103135750805b601f840160051c820191505b81811015610333576000815560010161031f565b50505b505050565b81516001600160401b038111156103545761035461029c565b6103688161036284546102b2565b846102ec565b6020601f82116001811461039c57600083156103845750848201515b600019600385901b1c1916600184901b178455610333565b600084815260208120601f198516915b828110156103cc57878501518255602094850194600190920191016103ac565b50848210156103ea5786840151600019600387901b60f8161c191681555b50505050600190811b01905550565b611c8e806104086000396000f3fe608060405234801561001057600080fd5b50600436106101f05760003560e01c80636c0360eb1161010f578063a0712d68116100a2578063c87b56dd11610071578063c87b56dd14610410578063d547741f14610423578063e985e9c514610436578063f2fde38b1461044957600080fd5b8063a0712d68146103cf578063a217fddf146103e2578063a22cb465146103ea578063b88d4fde146103fd57600080fd5b8063853828b6116100de578063853828b61461039b5780638da5cb5b146103a357806391d14854146103b457806395d89b41146103c757600080fd5b80636c0360eb14610365578063704802751461036d57806370a0823114610380578063715018a61461039357600080fd5b8063282e78111161018757806336568abe1161015657806336568abe1461031957806342842e0e1461032c5780634f6ccce71461033f5780636352211e1461035257600080fd5b8063282e7811146102cd5780632f2ff15d146102e05780632f745c59146102f357806331b5b9071461030657600080fd5b80631785f53c116101c35780631785f53c1461027257806318160ddd1461028557806323b872dd14610297578063248a9ca3146102aa57600080fd5b806301ffc9a7146101f557806306fdde031461021d578063081812fc14610232578063095ea7b31461025d575b600080fd5b6102086102033660046116af565b61045c565b60405190151581526020015b60405180910390f35b61022561046d565b604051610214919061171c565b61024561024036600461172f565b6104ff565b6040516001600160a01b039091168152602001610214565b61027061026b366004611764565b610528565b005b61027061028036600461178e565b610537565b6008545b604051908152602001610214565b6102706102a53660046117a9565b610575565b6102896102b836600461172f565b6000908152600a602052604090206001015490565b600d54610245906001600160a01b031681565b6102706102ee3660046117e6565b610600565b610289610301366004611764565b610625565b6102706103143660046118a2565b61068a565b6102706103273660046117e6565b6106bd565b61027061033a3660046117a9565b6106f5565b61028961034d36600461172f565b610710565b61024561036036600461172f565b610769565b610225610774565b61027061037b36600461178e565b610802565b61028961038e36600461178e565b610834565b61027061087c565b610270610890565b600b546001600160a01b0316610245565b6102086103c23660046117e6565b6108cd565b6102256108f8565b6102706103dd36600461172f565b610907565b610289600081565b6102706103f83660046118eb565b61094e565b61027061040b366004611927565b610959565b61022561041e36600461172f565b610970565b6102706104313660046117e6565b6109ce565b6102086104443660046119a3565b6109f3565b61027061045736600461178e565b610a21565b600061046782610a5c565b92915050565b60606000805461047c906119cd565b80601f01602080910402602001604051908101604052809291908181526020018280546104a8906119cd565b80156104f55780601f106104ca576101008083540402835291602001916104f5565b820191906000526020600020905b8154815290600101906020018083116104d857829003601f168201915b5050505050905090565b600061050a82610a81565b506000828152600460205260409020546001600160a01b0316610467565b610533828233610aba565b5050565b6105426000336108cd565b6105675760405162461bcd60e51b815260040161055e90611a07565b60405180910390fd5b6105726000826109ce565b50565b6001600160a01b03821661059f57604051633250574960e11b81526000600482015260240161055e565b60006105ac838333610ac7565b9050836001600160a01b0316816001600160a01b0316146105fa576040516364283d7b60e01b81526001600160a01b038086166004830152602482018490528216604482015260640161055e565b50505050565b6000828152600a602052604090206001015461061b81610b9c565b6105fa8383610ba6565b600061063083610834565b82106106615760405163295f44f760e21b81526001600160a01b03841660048201526024810183905260440161055e565b506001600160a01b03919091166000908152600660209081526040808320938352929052205490565b6106956000336108cd565b6106b15760405162461bcd60e51b815260040161055e90611a07565b600e6105338282611a7d565b6001600160a01b03811633146106e65760405163334bd91960e11b815260040160405180910390fd5b6106f08282610c3a565b505050565b6106f083838360405180602001604052806000815250610959565b600061071b60085490565b82106107445760405163295f44f760e21b8152600060048201526024810183905260440161055e565b6008828154811061075757610757611b3c565b90600052602060002001549050919050565b600061046782610a81565b600e8054610781906119cd565b80601f01602080910402602001604051908101604052809291908181526020018280546107ad906119cd565b80156107fa5780601f106107cf576101008083540402835291602001916107fa565b820191906000526020600020905b8154815290600101906020018083116107dd57829003601f168201915b505050505081565b61080d6000336108cd565b6108295760405162461bcd60e51b815260040161055e90611a07565b610572600082610600565b60006001600160a01b038216610860576040516322718ad960e21b81526000600482015260240161055e565b506001600160a01b031660009081526003602052604090205490565b610884610ca7565b61088e6000610cd4565b565b61089b6000336108cd565b6108b75760405162461bcd60e51b815260040161055e90611a07565b600c5461088e906001600160a01b031647610d26565b6000918252600a602090815260408084206001600160a01b0393909316845291905290205460ff1690565b60606001805461047c906119cd565b60005b818163ffffffff16101561053357600f546109253382610dbd565b600f805490600061093583611b68565b919050555050808061094690611b81565b91505061090a565b610533338383610dd7565b610964848484610575565b6105fa84848484610e76565b6060600061097c610f9f565b9050600081511161099c57604051806020016040528060008152506109c7565b806109a684610fae565b6040516020016109b7929190611ba6565b6040516020818303038152906040525b9392505050565b6000828152600a60205260409020600101546109e981610b9c565b6105fa8383610c3a565b6001600160a01b03918216600090815260056020908152604080832093909416825291909152205460ff1690565b610a29610ca7565b6001600160a01b038116610a5357604051631e4fbdf760e01b81526000600482015260240161055e565b61057281610cd4565b60006001600160e01b03198216637965db0b60e01b1480610467575061046782611041565b6000818152600260205260408120546001600160a01b03168061046757604051637e27328960e01b81526004810184905260240161055e565b6106f08383836001611066565b600080610ad585858561116c565b90506001600160a01b038116610b3257610b2d84600880546000838152600960205260408120829055600182018355919091527ff3f7a9fe364faab93b216da50a3214154f22a0a2b415b23a84c8169e8b636ee30155565b610b55565b846001600160a01b0316816001600160a01b031614610b5557610b558185611265565b6001600160a01b038516610b7157610b6c846112f6565b610b94565b846001600160a01b0316816001600160a01b031614610b9457610b9485856113a5565b949350505050565b61057281336113f5565b6000610bb283836108cd565b610c32576000838152600a602090815260408083206001600160a01b03861684529091529020805460ff19166001179055610bea3390565b6001600160a01b0316826001600160a01b0316847f2f8788117e7eff1d82e926ec794901d17c78024a50270940304540a733656f0d60405160405180910390a4506001610467565b506000610467565b6000610c4683836108cd565b15610c32576000838152600a602090815260408083206001600160a01b0386168085529252808320805460ff1916905551339286917ff6391f5c32d9c69d2a47ea670b442974b53935d1edc7fd64eb21e047a839171b9190a4506001610467565b600b546001600160a01b0316331461088e5760405163118cdaa760e01b815233600482015260240161055e565b600b80546001600160a01b038381166001600160a01b0319831681179093556040519116919082907f8be0079c531659141344cd1fd0a4f28419497f9722a3daafe3b4186f6b6457e090600090a35050565b80471015610d495760405163cd78605960e01b815230600482015260240161055e565b6000826001600160a01b03168260405160006040518083038185875af1925050503d8060008114610d96576040519150601f19603f3d011682016040523d82523d6000602084013e610d9b565b606091505b50509050806106f057604051630a12f52160e11b815260040160405180910390fd5b61053382826040518060200160405280600081525061142e565b6001600160a01b038216610e0957604051630b61174360e31b81526001600160a01b038316600482015260240161055e565b6001600160a01b03838116600081815260056020908152604080832094871680845294825291829020805460ff191686151590811790915591519182527f17307eab39ab6107e8899845ad3d59bd9653f200f220920489ca2b5937696c31910160405180910390a3505050565b6001600160a01b0383163b156105fa57604051630a85bd0160e11b81526001600160a01b0384169063150b7a0290610eb8903390889087908790600401611bd5565b6020604051808303816000875af1925050508015610ef3575060408051601f3d908101601f19168201909252610ef091810190611c12565b60015b610f5c573d808015610f21576040519150601f19603f3d011682016040523d82523d6000602084013e610f26565b606091505b508051600003610f5457604051633250574960e11b81526001600160a01b038516600482015260240161055e565b805181602001fd5b6001600160e01b03198116630a85bd0160e11b14610f9857604051633250574960e11b81526001600160a01b038516600482015260240161055e565b5050505050565b6060600e805461047c906119cd565b60606000610fbb83611445565b600101905060008167ffffffffffffffff811115610fdb57610fdb611812565b6040519080825280601f01601f191660200182016040528015611005576020820181803683370190505b5090508181016020015b600019016f181899199a1a9b1b9c1cb0b131b232b360811b600a86061a8153600a850494508461100f57509392505050565b60006001600160e01b0319821663780e9d6360e01b148061046757506104678261151d565b808061107a57506001600160a01b03821615155b1561113c57600061108a84610a81565b90506001600160a01b038316158015906110b65750826001600160a01b0316816001600160a01b031614155b80156110c957506110c781846109f3565b155b156110f25760405163a9fbf51f60e01b81526001600160a01b038416600482015260240161055e565b811561113a5783856001600160a01b0316826001600160a01b03167f8c5be1e5ebec7d5bd14f71427d1e84f3dd0314c0f7b2291e5b200ac8c7c3b92560405160405180910390a45b505b5050600090815260046020526040902080546001600160a01b0319166001600160a01b0392909216919091179055565b6000828152600260205260408120546001600160a01b03908116908316156111995761119981848661156d565b6001600160a01b038116156111d7576111b6600085600080611066565b6001600160a01b038116600090815260036020526040902080546000190190555b6001600160a01b03851615611206576001600160a01b0385166000908152600360205260409020805460010190555b60008481526002602052604080822080546001600160a01b0319166001600160a01b0389811691821790925591518793918516917fddf252ad1be2c89b69c2b068fc378daa952ba7f163c4a11628f55a4df523b3ef91a4949350505050565b600061127083610834565b6000838152600760205260409020549091508082146112c3576001600160a01b03841660009081526006602090815260408083208584528252808320548484528184208190558352600790915290208190555b5060009182526007602090815260408084208490556001600160a01b039094168352600681528383209183525290812055565b60085460009061130890600190611c2f565b6000838152600960205260408120546008805493945090928490811061133057611330611b3c565b90600052602060002001549050806008838154811061135157611351611b3c565b600091825260208083209091019290925582815260099091526040808220849055858252812055600880548061138957611389611c42565b6001900381819060005260206000200160009055905550505050565b600060016113b284610834565b6113bc9190611c2f565b6001600160a01b039093166000908152600660209081526040808320868452825280832085905593825260079052919091209190915550565b6113ff82826108cd565b6105335760405163e2517d3f60e01b81526001600160a01b03821660048201526024810183905260440161055e565b61143883836115d1565b6106f06000848484610e76565b60008072184f03e93ff9f4daa797ed6e38ed64bf6a1f0160401b83106114845772184f03e93ff9f4daa797ed6e38ed64bf6a1f0160401b830492506040015b6d04ee2d6d415b85acef810000000083106114b0576d04ee2d6d415b85acef8100000000830492506020015b662386f26fc1000083106114ce57662386f26fc10000830492506010015b6305f5e10083106114e6576305f5e100830492506008015b61271083106114fa57612710830492506004015b6064831061150c576064830492506002015b600a83106104675760010192915050565b60006001600160e01b031982166380ac58cd60e01b148061154e57506001600160e01b03198216635b5e139f60e01b145b8061046757506301ffc9a760e01b6001600160e01b0319831614610467565b611578838383611636565b6106f0576001600160a01b0383166115a657604051637e27328960e01b81526004810182905260240161055e565b60405163177e802f60e01b81526001600160a01b03831660048201526024810182905260440161055e565b6001600160a01b0382166115fb57604051633250574960e11b81526000600482015260240161055e565b600061160983836000610ac7565b90506001600160a01b038116156106f0576040516339e3563760e11b81526000600482015260240161055e565b60006001600160a01b03831615801590610b945750826001600160a01b0316846001600160a01b03161480611670575061167084846109f3565b80610b945750506000908152600460205260409020546001600160a01b03908116911614919050565b6001600160e01b03198116811461057257600080fd5b6000602082840312156116c157600080fd5b81356109c781611699565b60005b838110156116e75781810151838201526020016116cf565b50506000910152565b600081518084526117088160208601602086016116cc565b601f01601f19169290920160200192915050565b6020815260006109c760208301846116f0565b60006020828403121561174157600080fd5b5035919050565b80356001600160a01b038116811461175f57600080fd5b919050565b6000806040838503121561177757600080fd5b61178083611748565b946020939093013593505050565b6000602082840312156117a057600080fd5b6109c782611748565b6000806000606084860312156117be57600080fd5b6117c784611748565b92506117d560208501611748565b929592945050506040919091013590565b600080604083850312156117f957600080fd5b8235915061180960208401611748565b90509250929050565b634e487b7160e01b600052604160045260246000fd5b60008067ffffffffffffffff84111561184357611843611812565b50604051601f19601f85018116603f0116810181811067ffffffffffffffff8211171561187257611872611812565b60405283815290508082840185101561188a57600080fd5b83836020830137600060208583010152509392505050565b6000602082840312156118b457600080fd5b813567ffffffffffffffff8111156118cb57600080fd5b8201601f810184136118dc57600080fd5b610b9484823560208401611828565b600080604083850312156118fe57600080fd5b61190783611748565b91506020830135801515811461191c57600080fd5b809150509250929050565b6000806000806080858703121561193d57600080fd5b61194685611748565b935061195460208601611748565b925060408501359150606085013567ffffffffffffffff81111561197757600080fd5b8501601f8101871361198857600080fd5b61199787823560208401611828565b91505092959194509250565b600080604083850312156119b657600080fd5b6119bf83611748565b915061180960208401611748565b600181811c908216806119e157607f821691505b602082108103611a0157634e487b7160e01b600052602260045260246000fd5b50919050565b6020808252601590820152742932b9ba3934b1ba32b2103a379030b236b4b7399760591b604082015260600190565b601f8211156106f057806000526020600020601f840160051c81016020851015611a5d5750805b601f840160051c820191505b81811015610f985760008155600101611a69565b815167ffffffffffffffff811115611a9757611a97611812565b611aab81611aa584546119cd565b84611a36565b6020601f821160018114611adf5760008315611ac75750848201515b600019600385901b1c1916600184901b178455610f98565b600084815260208120601f198516915b82811015611b0f5787850151825560209485019460019092019101611aef565b5084821015611b2d5786840151600019600387901b60f8161c191681555b50505050600190811b01905550565b634e487b7160e01b600052603260045260246000fd5b634e487b7160e01b600052601160045260246000fd5b600060018201611b7a57611b7a611b52565b5060010190565b600063ffffffff821663ffffffff8103611b9d57611b9d611b52565b60010192915050565b60008351611bb88184602088016116cc565b835190830190611bcc8183602088016116cc565b01949350505050565b6001600160a01b0385811682528416602082015260408101839052608060608201819052600090611c08908301846116f0565b9695505050505050565b600060208284031215611c2457600080fd5b81516109c781611699565b8181038181111561046757610467611b52565b634e487b7160e01b600052603160045260246000fdfea2646970667358221220018fc35a9039e412119fd7b8e564645feaaf7e8f505a0acc91373efa9444e34164736f6c634300081a003368747470733a2f2f6d6574616c6567656e64732e6d7970696e6174612e636c6f75642f697066732f516d4e636e4e5432483579337678454b516e6832627558736941766831614b386f6f58317355354e58556f3535332f",
    "linkReferences": {}
  },
  "methodIdentifiers": {
    "DEFAULT_ADMIN_ROLE()": "a217fddf",
    "_setBaseURI(string)": "31b5b907",
    "addAdmin(address)": "70480275",
    "approve(address,uint256)": "095ea7b3",
    "balanceOf(address)": "70a08231",
    "baseURI()": "6c0360eb",
    "getApproved(uint256)": "081812fc",
    "getRoleAdmin(bytes32)": "248a9ca3",
    "grantRole(bytes32,address)": "2f2ff15d",
    "hasRole(bytes32,address)": "91d14854",
    "isApprovedForAll(address,address)": "e985e9c5",
    "mint(uint256)": "a0712d68",
    "name()": "06fdde03",
    "originOwner()": "282e7811",
    "owner()": "8da5cb5b",
    "ownerOf(uint256)": "6352211e",
    "removeAdmin(address)": "1785f53c",
    "renounceOwnership()": "715018a6",
    "renounceRole(bytes32,address)": "36568abe",
    "revokeRole(bytes32,address)": "d547741f",
    "safeTransferFrom(address,address,uint256)": "42842e0e",
    "safeTransferFrom(address,address,uint256,bytes)": "b88d4fde",
    "setApprovalForAll(address,bool)": "a22cb465",
    "supportsInterface(bytes4)": "01ffc9a7",
    "symbol()": "95d89b41",
    "tokenByIndex(uint256)": "4f6ccce7",
    "tokenOfOwnerByIndex(address,uint256)": "2f745c59",
    "tokenURI(uint256)": "c87b56dd",
    "totalSupply()": "18160ddd",
    "transferFrom(address,address,uint256)": "23b872dd",
    "transferOwnership(address)": "f2fde38b",
    "withdrawAll()": "853828b6"
  },
  "id": 43
}