{
  "contractName": "MetaLifeResidence",
  "abi": [
    {
      "inputs": [],
      "stateMutability": "nonpayable",
      "type": "constructor"
    },
    {
      "inputs": [],
      "name": "AccountBalanceOverflow",
      "type": "error"
    },
    {
      "inputs": [],
      "name": "BalanceQueryForZeroAddress",
      "type": "error"
    },
    {
      "inputs": [],
      "name": "ContractsCannotMint",
      "type": "error"
    },
    {
      "inputs": [],
      "name": "MustMintAtLeastOneToken",
      "type": "error"
    },
    {
      "inputs": [],
      "name": "NotEnoughAvailableTokens",
      "type": "error"
    },
    {
      "inputs": [],
      "name": "NotOwnerNorApproved",
      "type": "error"
    },
    {
      "inputs": [
        {
          "internalType": "address",
          "name": "owner",
          "type": "address"
        }
      ],
      "name": "OwnableInvalidOwner",
      "type": "error"
    },
    {
      "inputs": [
        {
          "internalType": "address",
          "name": "account",
          "type": "address"
        }
      ],
      "name": "OwnableUnauthorizedAccount",
      "type": "error"
    },
    {
      "inputs": [],
      "name": "ReentrancyGuardReentrantCall",
      "type": "error"
    },
    {
      "inputs": [],
      "name": "TokenAlreadyExists",
      "type": "error"
    },
    {
      "inputs": [],
      "name": "TokenDoesNotExist",
      "type": "error"
    },
    {
      "inputs": [],
      "name": "TransferFromIncorrectOwner",
      "type": "error"
    },
    {
      "inputs": [],
      "name": "TransferToNonERC721ReceiverImplementer",
      "type": "error"
    },
    {
      "inputs": [],
      "name": "TransferToZeroAddress",
      "type": "error"
    },
    {
      "anonymous": false,
      "inputs": [
        {
          "indexed": true,
          "internalType": "address",
          "name": "owner",
          "type": "address"
        },
        {
          "indexed": true,
          "internalType": "address",
          "name": "account",
          "type": "address"
        },
        {
          "indexed": true,
          "internalType": "uint256",
          "name": "id",
          "type": "uint256"
        }
      ],
      "name": "Approval",
      "type": "event"
    },
    {
      "anonymous": false,
      "inputs": [
        {
          "indexed": true,
          "internalType": "address",
          "name": "owner",
          "type": "address"
        },
        {
          "indexed": true,
          "internalType": "address",
          "name": "operator",
          "type": "address"
        },
        {
          "indexed": false,
          "internalType": "bool",
          "name": "isApproved",
          "type": "bool"
        }
      ],
      "name": "ApprovalForAll",
      "type": "event"
    },
    {
      "anonymous": false,
      "inputs": [
        {
          "indexed": true,
          "internalType": "address",
          "name": "from",
          "type": "address"
        },
        {
          "indexed": false,
          "internalType": "uint256",
          "name": "timestamp",
          "type": "uint256"
        }
      ],
      "name": "Minted",
      "type": "event"
    },
    {
      "anonymous": false,
      "inputs": [
        {
          "indexed": true,
          "internalType": "address",
          "name": "previousOwner",
          "type": "address"
        },
        {
          "indexed": true,
          "internalType": "address",
          "name": "newOwner",
          "type": "address"
        }
      ],
      "name": "OwnershipTransferred",
      "type": "event"
    },
    {
      "anonymous": false,
      "inputs": [
        {
          "indexed": true,
          "internalType": "address",
          "name": "from",
          "type": "address"
        },
        {
          "indexed": true,
          "internalType": "address",
          "name": "to",
          "type": "address"
        },
        {
          "indexed": true,
          "internalType": "uint256",
          "name": "id",
          "type": "uint256"
        }
      ],
      "name": "Transfer",
      "type": "event"
    },
    {
      "inputs": [
        {
          "internalType": "address",
          "name": "",
          "type": "address"
        }
      ],
      "name": "allowlist",
      "outputs": [
        {
          "internalType": "uint8",
          "name": "total",
          "type": "uint8"
        },
        {
          "internalType": "uint8",
          "name": "claimed",
          "type": "uint8"
        }
      ],
      "stateMutability": "view",
      "type": "function",
      "constant": true
    },
    {
      "inputs": [
        {
          "internalType": "address",
          "name": "account",
          "type": "address"
        },
        {
          "internalType": "uint256",
          "name": "id",
          "type": "uint256"
        }
      ],
      "name": "approve",
      "outputs": [],
      "stateMutability": "payable",
      "type": "function",
      "payable": true
    },
    {
      "inputs": [
        {
          "internalType": "address",
          "name": "owner",
          "type": "address"
        }
      ],
      "name": "balanceOf",
      "outputs": [
        {
          "internalType": "uint256",
          "name": "result",
          "type": "uint256"
        }
      ],
      "stateMutability": "view",
      "type": "function",
      "constant": true
    },
    {
      "inputs": [],
      "name": "baseURI",
      "outputs": [
        {
          "internalType": "string",
          "name": "",
          "type": "string"
        }
      ],
      "stateMutability": "view",
      "type": "function",
      "constant": true
    },
    {
      "inputs": [],
      "name": "collector",
      "outputs": [
        {
          "internalType": "address payable",
          "name": "",
          "type": "address"
        }
      ],
      "stateMutability": "view",
      "type": "function",
      "constant": true
    },
    {
      "inputs": [
        {
          "internalType": "uint256",
          "name": "id",
          "type": "uint256"
        }
      ],
      "name": "getApproved",
      "outputs": [
        {
          "internalType": "address",
          "name": "result",
          "type": "address"
        }
      ],
      "stateMutability": "view",
      "type": "function",
      "constant": true
    },
    {
      "inputs": [
        {
          "internalType": "address",
          "name": "owner",
          "type": "address"
        },
        {
          "internalType": "address",
          "name": "operator",
          "type": "address"
        }
      ],
      "name": "isApprovedForAll",
      "outputs": [
        {
          "internalType": "bool",
          "name": "result",
          "type": "bool"
        }
      ],
      "stateMutability": "view",
      "type": "function",
      "constant": true
    },
    {
      "inputs": [],
      "name": "maxSupply",
      "outputs": [
        {
          "internalType": "uint256",
          "name": "",
          "type": "uint256"
        }
      ],
      "stateMutability": "view",
      "type": "function",
      "constant": true
    },
    {
      "inputs": [],
      "name": "name",
      "outputs": [
        {
          "internalType": "string",
          "name": "",
          "type": "string"
        }
      ],
      "stateMutability": "view",
      "type": "function",
      "constant": true
    },
    {
      "inputs": [
        {
          "internalType": "address",
          "name": "minter",
          "type": "address"
        }
      ],
      "name": "numberMinted",
      "outputs": [
        {
          "internalType": "uint32",
          "name": "",
          "type": "uint32"
        }
      ],
      "stateMutability": "view",
      "type": "function",
      "constant": true
    },
    {
      "inputs": [],
      "name": "originOwner",
      "outputs": [
        {
          "internalType": "address",
          "name": "",
          "type": "address"
        }
      ],
      "stateMutability": "view",
      "type": "function",
      "constant": true
    },
    {
      "inputs": [],
      "name": "owner",
      "outputs": [
        {
          "internalType": "address",
          "name": "",
          "type": "address"
        }
      ],
      "stateMutability": "view",
      "type": "function",
      "constant": true
    },
    {
      "inputs": [
        {
          "internalType": "uint256",
          "name": "id",
          "type": "uint256"
        }
      ],
      "name": "ownerOf",
      "outputs": [
        {
          "internalType": "address",
          "name": "result",
          "type": "address"
        }
      ],
      "stateMutability": "view",
      "type": "function",
      "constant": true
    },
    {
      "inputs": [],
      "name": "remainingSupply",
      "outputs": [
        {
          "internalType": "uint256",
          "name": "",
          "type": "uint256"
        }
      ],
      "stateMutability": "view",
      "type": "function",
      "constant": true
    },
    {
      "inputs": [],
      "name": "renounceOwnership",
      "outputs": [],
      "stateMutability": "nonpayable",
      "type": "function"
    },
    {
      "inputs": [
        {
          "internalType": "address",
          "name": "from",
          "type": "address"
        },
        {
          "internalType": "address",
          "name": "to",
          "type": "address"
        },
        {
          "internalType": "uint256",
          "name": "id",
          "type": "uint256"
        }
      ],
      "name": "safeTransferFrom",
      "outputs": [],
      "stateMutability": "payable",
      "type": "function",
      "payable": true
    },
    {
      "inputs": [
        {
          "internalType": "address",
          "name": "from",
          "type": "address"
        },
        {
          "internalType": "address",
          "name": "to",
          "type": "address"
        },
        {
          "internalType": "uint256",
          "name": "id",
          "type": "uint256"
        },
        {
          "internalType": "bytes",
          "name": "data",
          "type": "bytes"
        }
      ],
      "name": "safeTransferFrom",
      "outputs": [],
      "stateMutability": "payable",
      "type": "function",
      "payable": true
    },
    {
      "inputs": [
        {
          "internalType": "address",
          "name": "operator",
          "type": "address"
        },
        {
          "internalType": "bool",
          "name": "isApproved",
          "type": "bool"
        }
      ],
      "name": "setApprovalForAll",
      "outputs": [],
      "stateMutability": "nonpayable",
      "type": "function"
    },
    {
      "inputs": [
        {
          "internalType": "bytes4",
          "name": "interfaceId",
          "type": "bytes4"
        }
      ],
      "name": "supportsInterface",
      "outputs": [
        {
          "internalType": "bool",
          "name": "result",
          "type": "bool"
        }
      ],
      "stateMutability": "view",
      "type": "function",
      "constant": true
    },
    {
      "inputs": [],
      "name": "symbol",
      "outputs": [
        {
          "internalType": "string",
          "name": "",
          "type": "string"
        }
      ],
      "stateMutability": "view",
      "type": "function",
      "constant": true
    },
    {
      "inputs": [],
      "name": "totalSupply",
      "outputs": [
        {
          "internalType": "uint256",
          "name": "",
          "type": "uint256"
        }
      ],
      "stateMutability": "view",
      "type": "function",
      "constant": true
    },
    {
      "inputs": [
        {
          "internalType": "address",
          "name": "from",
          "type": "address"
        },
        {
          "internalType": "address",
          "name": "to",
          "type": "address"
        },
        {
          "internalType": "uint256",
          "name": "id",
          "type": "uint256"
        }
      ],
      "name": "transferFrom",
      "outputs": [],
      "stateMutability": "payable",
      "type": "function",
      "payable": true
    },
    {
      "inputs": [
        {
          "internalType": "address",
          "name": "newOwner",
          "type": "address"
        }
      ],
      "name": "transferOwnership",
      "outputs": [],
      "stateMutability": "nonpayable",
      "type": "function"
    },
    {
      "inputs": [],
      "name": "withdrawAll",
      "outputs": [],
      "stateMutability": "payable",
      "type": "function",
      "payable": true
    },
    {
      "inputs": [
        {
          "internalType": "address payable",
          "name": "_newCollector",
          "type": "address"
        }
      ],
      "name": "setCollector",
      "outputs": [],
      "stateMutability": "nonpayable",
      "type": "function"
    },
    {
      "inputs": [
        {
          "internalType": "string",
          "name": "_newBaseURI",
          "type": "string"
        }
      ],
      "name": "_setBaseURI",
      "outputs": [],
      "stateMutability": "nonpayable",
      "type": "function"
    },
    {
      "inputs": [
        {
          "internalType": "uint256",
          "name": "tokenId",
          "type": "uint256"
        }
      ],
      "name": "tokenURI",
      "outputs": [
        {
          "internalType": "string",
          "name": "",
          "type": "string"
        }
      ],
      "stateMutability": "view",
      "type": "function",
      "constant": true
    },
    {
      "inputs": [
        {
          "internalType": "uint256",
          "name": "tokenId",
          "type": "uint256"
        }
      ],
      "name": "tokenExist",
      "outputs": [
        {
          "internalType": "bool",
          "name": "",
          "type": "bool"
        }
      ],
      "stateMutability": "view",
      "type": "function",
      "constant": true
    },
    {
      "inputs": [
        {
          "internalType": "address",
          "name": "wallet",
          "type": "address"
        }
      ],
      "name": "remaining",
      "outputs": [
        {
          "internalType": "uint8",
          "name": "",
          "type": "uint8"
        }
      ],
      "stateMutability": "view",
      "type": "function",
      "constant": true
    },
    {
      "inputs": [
        {
          "internalType": "address[]",
          "name": "_toAddAddresses",
          "type": "address[]"
        },
        {
          "internalType": "uint8[]",
          "name": "_quantities",
          "type": "uint8[]"
        }
      ],
      "name": "addAllowlist",
      "outputs": [],
      "stateMutability": "nonpayable",
      "type": "function"
    },
    {
      "inputs": [
        {
          "internalType": "address[]",
          "name": "_addresses",
          "type": "address[]"
        },
        {
          "internalType": "uint8[]",
          "name": "_quantities",
          "type": "uint8[]"
        }
      ],
      "name": "removeAllowlist",
      "outputs": [],
      "stateMutability": "nonpayable",
      "type": "function"
    },
    {
      "inputs": [
        {
          "internalType": "uint8",
          "name": "_quantities",
          "type": "uint8"
        }
      ],
      "name": "mintRandom",
      "outputs": [],
      "stateMutability": "nonpayable",
      "type": "function"
    }
  ],
  "bytecode": "0x60a0604052734abd9bd6f92654b45c42a9e0f9a3d23c7c14406e60075f6101000a81548173ffffffffffffffffffffffffffffffffffffffff021916908373ffffffffffffffffffffffffffffffffffffffff16021790555034801562000064575f80fd5b506040518060400160405280601381526020017f4d6574612d4c696665205265736964656e6365000000000000000000000000008152506040518060400160405280600381526020017f4d4c5200000000000000000000000000000000000000000000000000000000008152506102bc60075f9054906101000a900473ffffffffffffffffffffffffffffffffffffffff1660015f819055505f73ffffffffffffffffffffffffffffffffffffffff168173ffffffffffffffffffffffffffffffffffffffff160362000170575f6040517f1e4fbdf7000000000000000000000000000000000000000000000000000000008152600401620001679190620002c4565b60405180910390fd5b6200018181620001be60201b60201c565b50826002908162000193919062000543565b508160039081620001a5919062000543565b5080608081815250508060058190555050505062000627565b5f60015f9054906101000a900473ffffffffffffffffffffffffffffffffffffffff1690508160015f6101000a81548173ffffffffffffffffffffffffffffffffffffffff021916908373ffffffffffffffffffffffffffffffffffffffff1602179055508173ffffffffffffffffffffffffffffffffffffffff168173ffffffffffffffffffffffffffffffffffffffff167f8be0079c531659141344cd1fd0a4f28419497f9722a3daafe3b4186f6b6457e060405160405180910390a35050565b5f73ffffffffffffffffffffffffffffffffffffffff82169050919050565b5f620002ac8262000281565b9050919050565b620002be81620002a0565b82525050565b5f602082019050620002d95f830184620002b3565b92915050565b5f81519050919050565b7f4e487b71000000000000000000000000000000000000000000000000000000005f52604160045260245ffd5b7f4e487b71000000000000000000000000000000000000000000000000000000005f52602260045260245ffd5b5f60028204905060018216806200035b57607f821691505b60208210810362000371576200037062000316565b5b50919050565b5f819050815f5260205f209050919050565b5f6020601f8301049050919050565b5f82821b905092915050565b5f60088302620003d57fffffffffffffffffffffffffffffffffffffffffffffffffffffffffffffffff8262000398565b620003e1868362000398565b95508019841693508086168417925050509392505050565b5f819050919050565b5f819050919050565b5f6200042b620004256200041f84620003f9565b62000402565b620003f9565b9050919050565b5f819050919050565b62000446836200040b565b6200045e620004558262000432565b848454620003a4565b825550505050565b5f90565b6200047462000466565b620004818184846200043b565b505050565b5b81811015620004a8576200049c5f826200046a565b60018101905062000487565b5050565b601f821115620004f757620004c18162000377565b620004cc8462000389565b81016020851015620004dc578190505b620004f4620004eb8562000389565b83018262000486565b50505b505050565b5f82821c905092915050565b5f620005195f1984600802620004fc565b1980831691505092915050565b5f62000533838362000508565b9150826002028217905092915050565b6200054e82620002df565b67ffffffffffffffff8111156200056a5762000569620002e9565b5b62000576825462000343565b62000583828285620004ac565b5f60209050601f831160018114620005b9575f8415620005a4578287015190505b620005b0858262000526565b8655506200061f565b601f198416620005c98662000377565b5f5b82811015620005f257848901518255600182019150602085019450602081019050620005cb565b868310156200061257848901516200060e601f89168262000508565b8355505b6001600288020188555050505b505050505050565b608051612f256200064e5f395f818161088001528181610ac501526113d00152612f255ff3fe6080604052600436106101e2575f3560e01c8063853828b611610101578063c87b56dd11610094578063dc33e68111610063578063dc33e68114610699578063e985e9c5146106d5578063f2fde38b14610711578063fb5b82d014610739576101e2565b8063c87b56dd146105cd578063cc0c523614610609578063d5abeb0114610645578063da0239a61461066f576101e2565b8063a22cb465116100d0578063a22cb46514610510578063a7cd52cb14610538578063b399b0bc14610575578063b88d4fde146105b1576101e2565b8063853828b6146104885780638da5cb5b14610492578063913e77ad146104bc57806395d89b41146104e6576101e2565b806331b5b907116101795780636352211e116101485780636352211e146103d05780636c0360eb1461040c57806370a0823114610436578063715018a614610472576101e2565b806331b5b9071461033c5780633fb580f71461036457806342842e0e1461038c578063594bf62b146103a8576101e2565b806318160ddd116101b557806318160ddd146102a457806323b872dd146102ce578063282e7811146102ea5780632db5b8e714610314576101e2565b806301ffc9a7146101e657806306fdde0314610222578063081812fc1461024c578063095ea7b314610288575b5f80fd5b3480156101f1575f80fd5b5061020c60048036038101906102079190611f3d565b610761565b6040516102199190611f82565b60405180910390f35b34801561022d575f80fd5b50610236610785565b6040516102439190612025565b60405180910390f35b348015610257575f80fd5b50610272600480360381019061026d9190612078565b610815565b60405161027f91906120e2565b60405180910390f35b6102a2600480360381019061029d9190612125565b61086b565b005b3480156102af575f80fd5b506102b861087a565b6040516102c59190612172565b60405180910390f35b6102e860048036038101906102e3919061218b565b6108ae565b005b3480156102f5575f80fd5b506102fe6109ea565b60405161030b91906120e2565b60405180910390f35b34801561031f575f80fd5b5061033a60048036038101906103359190612211565b610a0f565b005b348015610347575f80fd5b50610362600480360381019061035d9190612368565b610bf6565b005b34801561036f575f80fd5b5061038a60048036038101906103859190612461565b610c11565b005b6103a660048036038101906103a1919061218b565b610d42565b005b3480156103b3575f80fd5b506103ce60048036038101906103c99190612461565b610d7b565b005b3480156103db575f80fd5b506103f660048036038101906103f19190612078565b610f18565b60405161040391906120e2565b60405180910390f35b348015610417575f80fd5b50610420610f3b565b60405161042d9190612025565b60405180910390f35b348015610441575f80fd5b5061045c600480360381019061045791906124df565b610fc7565b6040516104699190612172565b60405180910390f35b34801561047d575f80fd5b50610486611014565b005b610490611027565b005b34801561049d575f80fd5b506104a6611096565b6040516104b391906120e2565b60405180910390f35b3480156104c7575f80fd5b506104d06110be565b6040516104dd919061252a565b60405180910390f35b3480156104f1575f80fd5b506104fa6110e3565b6040516105079190612025565b60405180910390f35b34801561051b575f80fd5b506105366004803603810190610531919061256d565b611173565b005b348015610543575f80fd5b5061055e600480360381019061055991906124df565b6111c6565b60405161056c9291906125ba565b60405180910390f35b348015610580575f80fd5b5061059b600480360381019061059691906124df565b6111fe565b6040516105a891906125e1565b60405180910390f35b6105cb60048036038101906105c6919061264f565b6112a9565b005b3480156105d8575f80fd5b506105f360048036038101906105ee9190612078565b611319565b6040516106009190612025565b60405180910390f35b348015610614575f80fd5b5061062f600480360381019061062a9190612078565b6113bd565b60405161063c9190611f82565b60405180910390f35b348015610650575f80fd5b506106596113ce565b6040516106669190612172565b60405180910390f35b34801561067a575f80fd5b506106836113f2565b6040516106909190612172565b60405180910390f35b3480156106a4575f80fd5b506106bf60048036038101906106ba91906124df565b6113f8565b6040516106cc91906126f1565b60405180910390f35b3480156106e0575f80fd5b506106fb60048036038101906106f6919061270a565b61142b565b6040516107089190611f82565b60405180910390f35b34801561071c575f80fd5b50610737600480360381019061073291906124df565b61144d565b005b348015610744575f80fd5b5061075f600480360381019061075a9190612772565b6114d1565b005b5f8160e01c635b5e139f81146380ac58cd82146301ffc9a783141717915050919050565b606060028054610794906127ca565b80601f01602080910402602001604051908101604052809291908181526020018280546107c0906127ca565b801561080b5780601f106107e25761010080835404028352916020019161080b565b820191905f5260205f20905b8154815290600101906020018083116107ee57829003601f168201915b5050505050905090565b5f815f527f7d8825530a5a2e7a000000000000000000000000000000000000000000000000601c5260205f2082018201805460601b60601c61085e5763ceea21b65f526004601cfd5b8060010154915050919050565b61087633838361151c565b5050565b5f6005547f00000000000000000000000000000000000000000000000000000000000000006108a99190612827565b905090565b6108b98383836115cc565b5f1960601c83811693508281169250815f52337f7d8825530a5a2e7a00000000000000000000000000000000000000000000000017601c5260205f20820182018054808316868114810261092657806109195763ceea21b65f526004601cfd5b63a11481005f526004601cfd5b856109385763ea553b345f526004601cfd5b865f52826001015480331488331417610963576030600c205461096257634b6e7f185f526004601cfd5b5b8015610970575f84600101555b5085871882188355601c600c206001815403815550855f52601c600c20600181540163ffffffff81166109aa576301336cea5f526004601cfd5b80825550508486887fddf252ad1be2c89b69c2b068fc378daa952ba7f163c4a11628f55a4df523b3ef5f80a4505050506109e58383836115d1565b505050565b60075f9054906101000a900473ffffffffffffffffffffffffffffffffffffffff1681565b5f610a19336111fe565b60ff1611610a5c576040517f08c379a0000000000000000000000000000000000000000000000000000000008152600401610a53906128a4565b60405180910390fd5b8060ff16610a69336111fe565b60ff161015610aad576040517f08c379a0000000000000000000000000000000000000000000000000000000008152600401610aa49061290c565b60405180910390fd5b8060ff16610ab961087a565b610ac3919061292a565b7f00000000000000000000000000000000000000000000000000000000000000001015610b25576040517f08c379a0000000000000000000000000000000000000000000000000000000008152600401610b1c906129a7565b60405180910390fd5b8060095f3373ffffffffffffffffffffffffffffffffffffffff1673ffffffffffffffffffffffffffffffffffffffff1681526020019081526020015f205f0160018282829054906101000a900460ff16610b8091906129c5565b92506101000a81548160ff021916908360ff160217905550610ba5338260ff166115d6565b3373ffffffffffffffffffffffffffffffffffffffff167f30385c845b448a36257a6a1716e6ad2e1bc2cbe333cde1e69fe849ad6511adfe42604051610beb9190612172565b60405180910390a250565b610bfe61175a565b8060069081610c0d9190612b96565b5050565b610c1961175a565b818190508484905014610c61576040517f08c379a0000000000000000000000000000000000000000000000000000000008152600401610c5890612cd5565b60405180910390fd5b5f5b84849050811015610d3b57828282818110610c8157610c80612cf3565b5b9050602002016020810190610c969190612211565b60095f878785818110610cac57610cab612cf3565b5b9050602002016020810190610cc191906124df565b73ffffffffffffffffffffffffffffffffffffffff1673ffffffffffffffffffffffffffffffffffffffff1681526020019081526020015f205f015f8282829054906101000a900460ff16610d1691906129c5565b92506101000a81548160ff021916908360ff1602179055508080600101915050610c63565b5050505050565b610d4d8383836108ae565b610d56826117e1565b15610d7657610d7583838360405180602001604052805f8152506117eb565b5b505050565b610d8361175a565b818190508484905014610dcb576040517f08c379a0000000000000000000000000000000000000000000000000000000008152600401610dc290612cd5565b60405180910390fd5b5f5b84849050811015610f11575f838383818110610dec57610deb612cf3565b5b9050602002016020810190610e019190612211565b610e31878785818110610e1757610e16612cf3565b5b9050602002016020810190610e2c91906124df565b6111fe565b610e3b9190612d20565b60ff1610610f0457828282818110610e5657610e55612cf3565b5b9050602002016020810190610e6b9190612211565b60095f878785818110610e8157610e80612cf3565b5b9050602002016020810190610e9691906124df565b73ffffffffffffffffffffffffffffffffffffffff1673ffffffffffffffffffffffffffffffffffffffff1681526020019081526020015f205f015f8282829054906101000a900460ff16610eeb9190612d20565b92506101000a81548160ff021916908360ff1602179055505b8080600101915050610dcd565b5050505050565b5f610f2282611878565b905080610f365763ceea21b65f526004601cfd5b919050565b60068054610f48906127ca565b80601f0160208091040260200160405190810160405280929190818152602001828054610f74906127ca565b8015610fbf5780601f10610f9657610100808354040283529160200191610fbf565b820191905f5260205f20905b815481529060010190602001808311610fa257829003601f168201915b505050505081565b5f81610fda57638f4eb6045f526004601cfd5b7f7d8825530a5a2e7a000000000000000000000000000000000000000000000000601c52815f5263ffffffff601c600c2054169050919050565b61101c61175a565b6110255f6118b6565b565b61102f61175a565b60085f9054906101000a900473ffffffffffffffffffffffffffffffffffffffff1673ffffffffffffffffffffffffffffffffffffffff166108fc4790811502906040515f60405180830381858888f19350505050158015611093573d5f803e3d5ffd5b50565b5f60015f9054906101000a900473ffffffffffffffffffffffffffffffffffffffff16905090565b60085f9054906101000a900473ffffffffffffffffffffffffffffffffffffffff1681565b6060600380546110f2906127ca565b80601f016020809104026020016040519081016040528092919081815260200182805461111e906127ca565b80156111695780601f1061114057610100808354040283529160200191611169565b820191905f5260205f20905b81548152906001019060200180831161114c57829003601f168201915b5050505050905090565b801515905081601c52670a5a2e7a00000000600852335f52806030600c2055805f528160601b60601c337f17307eab39ab6107e8899845ad3d59bd9653f200f220920489ca2b5937696c3160205fa35050565b6009602052805f5260405f205f91509050805f015f9054906101000a900460ff1690805f0160019054906101000a900460ff16905082565b5f60095f8373ffffffffffffffffffffffffffffffffffffffff1673ffffffffffffffffffffffffffffffffffffffff1681526020019081526020015f205f0160019054906101000a900460ff1660095f8473ffffffffffffffffffffffffffffffffffffffff1673ffffffffffffffffffffffffffffffffffffffff1681526020019081526020015f205f015f9054906101000a900460ff166112a29190612d20565b9050919050565b6112b48585856108ae565b6112bd846117e1565b156113125761131185858585858080601f0160208091040260200160405190810160405280939291908181526020018383808284375f81840152601f19601f820116905080830192505050505050506117eb565b5b5050505050565b606061132482611979565b611363576040517f08c379a000000000000000000000000000000000000000000000000000000000815260040161135a90612d9e565b60405180910390fd5b5f61136c6119b4565b90505f81511161138a5760405180602001604052805f8152506113b5565b8061139484611a44565b6040516020016113a5929190612df6565b6040516020818303038152906040525b915050919050565b5f6113c782611979565b9050919050565b7f000000000000000000000000000000000000000000000000000000000000000081565b60055481565b5f60c061140483611b0e565b7bffffffffffffffffffffffffffffffffffffffffffffffffffffffff16901c9050919050565b5f81601c52670a5a2e7a00000000600852825f526030600c2054905092915050565b61145561175a565b5f73ffffffffffffffffffffffffffffffffffffffff168173ffffffffffffffffffffffffffffffffffffffff16036114c5575f6040517f1e4fbdf70000000000000000000000000000000000000000000000000000000081526004016114bc91906120e2565b60405180910390fd5b6114ce816118b6565b50565b6114d961175a565b8060085f6101000a81548173ffffffffffffffffffffffffffffffffffffffff021916908373ffffffffffffffffffffffffffffffffffffffff16021790555050565b5f1960601c82811692508381169350815f52837f7d8825530a5a2e7a00000000000000000000000000000000000000000000000017601c5260205f208201820180548216806115725763ceea21b65f526004601cfd5b80861486151761159757805f526030600c205461159657634b6e7f185f526004601cfd5b5b8482600101558385827f8c5be1e5ebec7d5bd14f71427d1e84f3dd0314c0f7b2291e5b200ac8c7c3b9255f80a4505050505050565b505050565b505050565b3273ffffffffffffffffffffffffffffffffffffffff163373ffffffffffffffffffffffffffffffffffffffff161461163b576040517fd9d552c900000000000000000000000000000000000000000000000000000000815260040160405180910390fd5b5f8103611674576040517f4600cfe900000000000000000000000000000000000000000000000000000000815260040160405180910390fd5b8060055410156116b0576040517f7775abdd00000000000000000000000000000000000000000000000000000000815260040160405180910390fd5b5f604051806020016040528042446040516020016116cf929190612e39565b604051602081830303815290604052805190602001205f1c81525090505f60055490505f5b83811015611742575f6117108385611b4690919063ffffffff16565b90505f61171d8285611b6f565b90506117298782611c0c565b8361173390612e64565b935082600101925050506116f4565b5061174d8484611ce0565b8060058190555050505050565b611762611d3e565b73ffffffffffffffffffffffffffffffffffffffff16611780611096565b73ffffffffffffffffffffffffffffffffffffffff16146117df576117a3611d3e565b6040517f118cdaa70000000000000000000000000000000000000000000000000000000081526004016117d691906120e2565b60405180910390fd5b565b5f813b9050919050565b60405163150b7a028082523360208301528560601b60601c604083015283606083015260808083015282518060a08401528015611832578060c08401826020870160045afa505b60208360a48301601c86015f8a5af1611857573d15611853573d5f803e3d5ffd5b5f83525b8160e01b83511461186f5763d1a57ed65f526004601cfd5b50505050505050565b5f815f527f7d8825530a5a2e7a000000000000000000000000000000000000000000000000601c5260205f20820182015460601b60601c9050919050565b5f60015f9054906101000a900473ffffffffffffffffffffffffffffffffffffffff1690508160015f6101000a81548173ffffffffffffffffffffffffffffffffffffffff021916908373ffffffffffffffffffffffffffffffffffffffff1602179055508173ffffffffffffffffffffffffffffffffffffffff168173ffffffffffffffffffffffffffffffffffffffff167f8be0079c531659141344cd1fd0a4f28419497f9722a3daafe3b4186f6b6457e060405160405180910390a35050565b5f815f527f7d8825530a5a2e7a000000000000000000000000000000000000000000000000601c5260205f20820182015460601b9050919050565b6060600680546119c3906127ca565b80601f01602080910402602001604051908101604052809291908181526020018280546119ef906127ca565b8015611a3a5780601f10611a1157610100808354040283529160200191611a3a565b820191905f5260205f20905b815481529060010190602001808311611a1d57829003601f168201915b5050505050905090565b60605f6001611a5284611d45565b0190505f8167ffffffffffffffff811115611a7057611a6f612244565b5b6040519080825280601f01601f191660200182016040528015611aa25781602001600182028036833780820191505090505b5090505f82602001820190505b600115611b03578080600190039150507f3031323334353637383961626364656600000000000000000000000000000000600a86061a8153600a8581611af857611af7612e8b565b5b0494505f8503611aaf575b819350505050919050565b5f7f7d8825530a5a2e7a000000000000000000000000000000000000000000000000601c52815f52601c600c205460201c9050919050565b5f5b600115611b645760208320905080835281825f03068110611b48575b818106905092915050565b5f8060045f8581526020019081526020015f205490505f600184611b939190612827565b90505f60045f8381526020019081526020015f205490505f8314611bb75782611bb9565b855b9350818614611be7575f8114611bcf5780611bd1565b815b60045f8881526020019081526020015f20819055505b5f8114611c035760045f8381526020019081526020015f205f90555b50505092915050565b611c175f83836115cc565b8160601b60601c915081611c325763ea553b345f526004601cfd5b805f527f7d8825530a5a2e7a000000000000000000000000000000000000000000000000601c5260205f208101810180548060601b15611c795763c991cbb15f526004601cfd5b8381178255835f52601c600c20600181540163ffffffff8116611ca3576301336cea5f526004601cfd5b808255505082845f7fddf252ad1be2c89b69c2b068fc378daa952ba7f163c4a11628f55a4df523b3ef5f80a45050611cdc5f83836115d1565b5050565b5f611cea836113f8565b90505f8282611cf99190612eb8565b90505f611d0585611b0e565b9050611d37858277ffffffffffffffffffffffffffffffffffffffffffffffff1660c08563ffffffff16901b17611e96565b5050505050565b5f33905090565b5f805f90507a184f03e93ff9f4daa797ed6e38ed64bf6a1f0100000000000000008310611da1577a184f03e93ff9f4daa797ed6e38ed64bf6a1f0100000000000000008381611d9757611d96612e8b565b5b0492506040810190505b6d04ee2d6d415b85acef81000000008310611dde576d04ee2d6d415b85acef81000000008381611dd457611dd3612e8b565b5b0492506020810190505b662386f26fc100008310611e0d57662386f26fc100008381611e0357611e02612e8b565b5b0492506010810190505b6305f5e1008310611e36576305f5e1008381611e2c57611e2b612e8b565b5b0492506008810190505b6127108310611e5b576127108381611e5157611e50612e8b565b5b0492506004810190505b60648310611e7e5760648381611e7457611e73612e8b565b5b0492506002810190505b600a8310611e8d576001810190505b80915050919050565b7f7d8825530a5a2e7a000000000000000000000000000000000000000000000000601c52815f52601c600c2080548060201c831860201b8118825550505050565b5f604051905090565b5f80fd5b5f80fd5b5f7fffffffff0000000000000000000000000000000000000000000000000000000082169050919050565b611f1c81611ee8565b8114611f26575f80fd5b50565b5f81359050611f3781611f13565b92915050565b5f60208284031215611f5257611f51611ee0565b5b5f611f5f84828501611f29565b91505092915050565b5f8115159050919050565b611f7c81611f68565b82525050565b5f602082019050611f955f830184611f73565b92915050565b5f81519050919050565b5f82825260208201905092915050565b5f5b83811015611fd2578082015181840152602081019050611fb7565b5f8484015250505050565b5f601f19601f8301169050919050565b5f611ff782611f9b565b6120018185611fa5565b9350612011818560208601611fb5565b61201a81611fdd565b840191505092915050565b5f6020820190508181035f83015261203d8184611fed565b905092915050565b5f819050919050565b61205781612045565b8114612061575f80fd5b50565b5f813590506120728161204e565b92915050565b5f6020828403121561208d5761208c611ee0565b5b5f61209a84828501612064565b91505092915050565b5f73ffffffffffffffffffffffffffffffffffffffff82169050919050565b5f6120cc826120a3565b9050919050565b6120dc816120c2565b82525050565b5f6020820190506120f55f8301846120d3565b92915050565b612104816120c2565b811461210e575f80fd5b50565b5f8135905061211f816120fb565b92915050565b5f806040838503121561213b5761213a611ee0565b5b5f61214885828601612111565b925050602061215985828601612064565b9150509250929050565b61216c81612045565b82525050565b5f6020820190506121855f830184612163565b92915050565b5f805f606084860312156121a2576121a1611ee0565b5b5f6121af86828701612111565b93505060206121c086828701612111565b92505060406121d186828701612064565b9150509250925092565b5f60ff82169050919050565b6121f0816121db565b81146121fa575f80fd5b50565b5f8135905061220b816121e7565b92915050565b5f6020828403121561222657612225611ee0565b5b5f612233848285016121fd565b91505092915050565b5f80fd5b5f80fd5b7f4e487b71000000000000000000000000000000000000000000000000000000005f52604160045260245ffd5b61227a82611fdd565b810181811067ffffffffffffffff8211171561229957612298612244565b5b80604052505050565b5f6122ab611ed7565b90506122b78282612271565b919050565b5f67ffffffffffffffff8211156122d6576122d5612244565b5b6122df82611fdd565b9050602081019050919050565b828183375f83830152505050565b5f61230c612307846122bc565b6122a2565b90508281526020810184848401111561232857612327612240565b5b6123338482856122ec565b509392505050565b5f82601f83011261234f5761234e61223c565b5b813561235f8482602086016122fa565b91505092915050565b5f6020828403121561237d5761237c611ee0565b5b5f82013567ffffffffffffffff81111561239a57612399611ee4565b5b6123a68482850161233b565b91505092915050565b5f80fd5b5f80fd5b5f8083601f8401126123cc576123cb61223c565b5b8235905067ffffffffffffffff8111156123e9576123e86123af565b5b602083019150836020820283011115612405576124046123b3565b5b9250929050565b5f8083601f8401126124215761242061223c565b5b8235905067ffffffffffffffff81111561243e5761243d6123af565b5b60208301915083602082028301111561245a576124596123b3565b5b9250929050565b5f805f806040858703121561247957612478611ee0565b5b5f85013567ffffffffffffffff81111561249657612495611ee4565b5b6124a2878288016123b7565b9450945050602085013567ffffffffffffffff8111156124c5576124c4611ee4565b5b6124d18782880161240c565b925092505092959194509250565b5f602082840312156124f4576124f3611ee0565b5b5f61250184828501612111565b91505092915050565b5f612514826120a3565b9050919050565b6125248161250a565b82525050565b5f60208201905061253d5f83018461251b565b92915050565b61254c81611f68565b8114612556575f80fd5b50565b5f8135905061256781612543565b92915050565b5f806040838503121561258357612582611ee0565b5b5f61259085828601612111565b92505060206125a185828601612559565b9150509250929050565b6125b4816121db565b82525050565b5f6040820190506125cd5f8301856125ab565b6125da60208301846125ab565b9392505050565b5f6020820190506125f45f8301846125ab565b92915050565b5f8083601f84011261260f5761260e61223c565b5b8235905067ffffffffffffffff81111561262c5761262b6123af565b5b602083019150836001820283011115612648576126476123b3565b5b9250929050565b5f805f805f6080868803121561266857612667611ee0565b5b5f61267588828901612111565b955050602061268688828901612111565b945050604061269788828901612064565b935050606086013567ffffffffffffffff8111156126b8576126b7611ee4565b5b6126c4888289016125fa565b92509250509295509295909350565b5f63ffffffff82169050919050565b6126eb816126d3565b82525050565b5f6020820190506127045f8301846126e2565b92915050565b5f80604083850312156127205761271f611ee0565b5b5f61272d85828601612111565b925050602061273e85828601612111565b9150509250929050565b6127518161250a565b811461275b575f80fd5b50565b5f8135905061276c81612748565b92915050565b5f6020828403121561278757612786611ee0565b5b5f6127948482850161275e565b91505092915050565b7f4e487b71000000000000000000000000000000000000000000000000000000005f52602260045260245ffd5b5f60028204905060018216806127e157607f821691505b6020821081036127f4576127f361279d565b5b50919050565b7f4e487b71000000000000000000000000000000000000000000000000000000005f52601160045260245ffd5b5f61283182612045565b915061283c83612045565b9250828203905081811115612854576128536127fa565b5b92915050565b7f4e6f7420656c696769626c6500000000000000000000000000000000000000005f82015250565b5f61288e600c83611fa5565b91506128998261285a565b602082019050919050565b5f6020820190508181035f8301526128bb81612882565b9050919050565b7f4e6f7420656e6f75676820636c61696d61626c6520746f6b656e7300000000005f82015250565b5f6128f6601b83611fa5565b9150612901826128c2565b602082019050919050565b5f6020820190508181035f830152612923816128ea565b9050919050565b5f61293482612045565b915061293f83612045565b9250828201905080821115612957576129566127fa565b5b92915050565b7f537570706c79206c696d697420657863656564000000000000000000000000005f82015250565b5f612991601383611fa5565b915061299c8261295d565b602082019050919050565b5f6020820190508181035f8301526129be81612985565b9050919050565b5f6129cf826121db565b91506129da836121db565b9250828201905060ff8111156129f3576129f26127fa565b5b92915050565b5f819050815f5260205f209050919050565b5f6020601f8301049050919050565b5f82821b905092915050565b5f60088302612a557fffffffffffffffffffffffffffffffffffffffffffffffffffffffffffffffff82612a1a565b612a5f8683612a1a565b95508019841693508086168417925050509392505050565b5f819050919050565b5f612a9a612a95612a9084612045565b612a77565b612045565b9050919050565b5f819050919050565b612ab383612a80565b612ac7612abf82612aa1565b848454612a26565b825550505050565b5f90565b612adb612acf565b612ae6818484612aaa565b505050565b5b81811015612b0957612afe5f82612ad3565b600181019050612aec565b5050565b601f821115612b4e57612b1f816129f9565b612b2884612a0b565b81016020851015612b37578190505b612b4b612b4385612a0b565b830182612aeb565b50505b505050565b5f82821c905092915050565b5f612b6e5f1984600802612b53565b1980831691505092915050565b5f612b868383612b5f565b9150826002028217905092915050565b612b9f82611f9b565b67ffffffffffffffff811115612bb857612bb7612244565b5b612bc282546127ca565b612bcd828285612b0d565b5f60209050601f831160018114612bfe575f8415612bec578287015190505b612bf68582612b7b565b865550612c5d565b601f198416612c0c866129f9565b5f5b82811015612c3357848901518255600182019150602085019450602081019050612c0e565b86831015612c505784890151612c4c601f891682612b5f565b8355505b6001600288020188555050505b505050505050565b7f4e62206164647265737320616e64206e62207175616e746974696573206d75735f8201527f7420626520657175616c00000000000000000000000000000000000000000000602082015250565b5f612cbf602a83611fa5565b9150612cca82612c65565b604082019050919050565b5f6020820190508181035f830152612cec81612cb3565b9050919050565b7f4e487b71000000000000000000000000000000000000000000000000000000005f52603260045260245ffd5b5f612d2a826121db565b9150612d35836121db565b9250828203905060ff811115612d4e57612d4d6127fa565b5b92915050565b7f756e6b6e6f7720746f6b656e00000000000000000000000000000000000000005f82015250565b5f612d88600c83611fa5565b9150612d9382612d54565b602082019050919050565b5f6020820190508181035f830152612db581612d7c565b9050919050565b5f81905092915050565b5f612dd082611f9b565b612dda8185612dbc565b9350612dea818560208601611fb5565b80840191505092915050565b5f612e018285612dc6565b9150612e0d8284612dc6565b91508190509392505050565b5f819050919050565b612e33612e2e82612045565b612e19565b82525050565b5f612e448285612e22565b602082019150612e548284612e22565b6020820191508190509392505050565b5f612e6e82612045565b91505f8203612e8057612e7f6127fa565b5b600182039050919050565b7f4e487b71000000000000000000000000000000000000000000000000000000005f52601260045260245ffd5b5f612ec2826126d3565b9150612ecd836126d3565b9250828201905063ffffffff811115612ee957612ee86127fa565b5b9291505056fea26469706673582212200301a752ab31e32af58249b818b9b30564912b19fa1ef18dbb27885d3234451564736f6c63430008170033",
  "immutableReferences": {
    "2404": [
      {
        "length": 32,
        "start": 2176
      },
      {
        "length": 32,
        "start": 2757
      },
      {
        "length": 32,
        "start": 5072
      }
    ]
  },
  "source": "// SPDX-License-Identifier: MIT\npragma solidity 0.8.23;\n\nimport \"@openzeppelin/contracts/utils/Strings.sol\";\nimport \"@openzeppelin/contracts/access/Ownable.sol\";\nimport \"@openzeppelin/contracts/utils/ReentrancyGuard.sol\";\nimport \"./ERC721r.sol\";\n\ncontract MetaLifeResidence is ReentrancyGuard, Ownable, ERC721r {\n\n  using Strings for uint256;\n  string public baseURI;\n\n  address public originOwner = 0x4aBd9bd6f92654b45C42A9e0f9a3D23C7c14406e;\n  address payable public collector;\n\n  struct Eligibility {\n    uint8 total;\n    uint8 claimed;\n  }\n\n  mapping(address => Eligibility) public allowlist;\n  event Minted(address indexed from, uint256 timestamp);\n\n  constructor() ERC721r('Meta-Life Residence', 'MLR', 7_00) Ownable(originOwner){}\n\n  function withdrawAll() public payable onlyOwner {\n    collector.transfer(address(this).balance);\n  }\n\n  function setCollector(address payable _newCollector) public onlyOwner {\n    collector = _newCollector;\n  }\n\n  function _setBaseURI(string memory _newBaseURI) public onlyOwner {\n    baseURI = _newBaseURI;\n  }\n\n  function _baseURI() internal view virtual returns (string memory) {\n    return baseURI;\n  }\n\n  function tokenURI(uint256 tokenId) public view virtual override returns (string memory) {\n    require(_exists(tokenId), 'unknow token');\n    string memory uri = _baseURI();\n    return bytes(uri).length > 0 ? string(abi.encodePacked(uri, tokenId.toString())) : \"\";\n  }\n\n  function tokenExist(uint256 tokenId) public view returns(bool) {\n    return _exists(tokenId);\n  }\n\n  function remaining(address wallet) public view virtual returns (uint8) {\n    return allowlist[wallet].total - allowlist[wallet].claimed;\n  }\n\n  function addAllowlist(address[] calldata _toAddAddresses, uint8[] calldata _quantities) external onlyOwner {\n    require(_toAddAddresses.length == _quantities.length, 'Nb address and nb quantities must be equal');\n    for (uint i = 0; i < _toAddAddresses.length; i++) {\n      allowlist[_toAddAddresses[i]].total += _quantities[i];\n    }\n  }\n\n  function removeAllowlist(address[] calldata _addresses, uint8[] calldata _quantities) external onlyOwner {\n    require(_addresses.length == _quantities.length, 'Nb address and nb quantities must be equal');\n    for (uint i = 0; i < _addresses.length; i++) {\n      if (remaining(_addresses[i]) - _quantities[i] >= 0) {\n        allowlist[_addresses[i]].total -= _quantities[i];\n      }\n    }\n  }\n\n  function mintRandom(uint8 _quantities) external {\n    require(remaining(msg.sender) > 0, \"Not eligible\");\n    require(remaining(msg.sender) >= _quantities, \"Not enough claimable tokens\");\n    require(maxSupply >= totalSupply() + _quantities, \"Supply limit exceed\");\n    allowlist[msg.sender].claimed += _quantities;\n    _mintRandom(msg.sender, _quantities);\n    emit Minted(msg.sender, block.timestamp);\n  }\n}\n",
  "sourcePath": "/Users/rchea/workspaces/MetaLegends/contract-residence/contracts/MetaLifeResidence.sol",
  "compiler": {
    "name": "solc",
    "version": "0.8.23+commit.f704f362.Emscripten.clang"
  },
  "schemaVersion": "3.4.16",
  "updatedAt": "2024-01-27T15:59:26.782Z",
  "networkType": "ethereum",
  "devdoc": {
    "errors": {
      "AccountBalanceOverflow()": [
        {
          "details": "The recipient's balance has overflowed."
        }
      ],
      "BalanceQueryForZeroAddress()": [
        {
          "details": "Cannot query the balance for the zero address."
        }
      ],
      "NotOwnerNorApproved()": [
        {
          "details": "Only the token owner or an approved account can manage the token."
        }
      ],
      "OwnableInvalidOwner(address)": [
        {
          "details": "The owner is not a valid owner account. (eg. `address(0)`)"
        }
      ],
      "OwnableUnauthorizedAccount(address)": [
        {
          "details": "The caller account is not authorized to perform an operation."
        }
      ],
      "ReentrancyGuardReentrantCall()": [
        {
          "details": "Unauthorized reentrant call."
        }
      ],
      "TokenAlreadyExists()": [
        {
          "details": "The token already exists."
        }
      ],
      "TokenDoesNotExist()": [
        {
          "details": "The token does not exist."
        }
      ],
      "TransferFromIncorrectOwner()": [
        {
          "details": "The token must be owned by `from`."
        }
      ],
      "TransferToNonERC721ReceiverImplementer()": [
        {
          "details": "Cannot safely transfer to a contract that does not implement the ERC721Receiver interface."
        }
      ],
      "TransferToZeroAddress()": [
        {
          "details": "Cannot mint or transfer to the zero address."
        }
      ]
    },
    "events": {
      "Approval(address,address,uint256)": {
        "details": "Emitted when `owner` enables `account` to manage the `id` token."
      },
      "ApprovalForAll(address,address,bool)": {
        "details": "Emitted when `owner` enables or disables `operator` to manage all of their tokens."
      },
      "Transfer(address,address,uint256)": {
        "details": "Emitted when token `id` is transferred from `from` to `to`."
      }
    },
    "kind": "dev",
    "methods": {
      "approve(address,uint256)": {
        "details": "Sets `account` as the approved account to manage token `id`. Requirements: - Token `id` must exist. - The caller must be the owner of the token,   or an approved operator for the token owner. Emits a {Approval} event."
      },
      "balanceOf(address)": {
        "details": "Returns the number of tokens owned by `owner`. Requirements: - `owner` must not be the zero address."
      },
      "getApproved(uint256)": {
        "details": "Returns the account approved to managed token `id`. Requirements: - Token `id` must exist."
      },
      "isApprovedForAll(address,address)": {
        "details": "Returns whether `operator` is approved to manage the tokens of `owner`."
      },
      "name()": {
        "details": "Returns the token collection name."
      },
      "owner()": {
        "details": "Returns the address of the current owner."
      },
      "ownerOf(uint256)": {
        "details": "Returns the owner of token `id`. Requirements: - Token `id` must exist."
      },
      "renounceOwnership()": {
        "details": "Leaves the contract without owner. It will not be possible to call `onlyOwner` functions. Can only be called by the current owner. NOTE: Renouncing ownership will leave the contract without an owner, thereby disabling any functionality that is only available to the owner."
      },
      "safeTransferFrom(address,address,uint256)": {
        "details": "Equivalent to `safeTransferFrom(from, to, id, \"\")`."
      },
      "safeTransferFrom(address,address,uint256,bytes)": {
        "details": "Transfers token `id` from `from` to `to`. Requirements: - Token `id` must exist. - `from` must be the owner of the token. - `to` cannot be the zero address. - The caller must be the owner of the token, or be approved to manage the token. - If `to` refers to a smart contract, it must implement   {IERC721Receiver-onERC721Received}, which is called upon a safe transfer. Emits a {Transfer} event."
      },
      "setApprovalForAll(address,bool)": {
        "details": "Sets whether `operator` is approved to manage the tokens of the caller. Emits a {ApprovalForAll} event."
      },
      "supportsInterface(bytes4)": {
        "details": "Returns true if this contract implements the interface defined by `interfaceId`. See: https://eips.ethereum.org/EIPS/eip-165 This function call must use less than 30000 gas."
      },
      "symbol()": {
        "details": "Returns the token collection symbol."
      },
      "transferFrom(address,address,uint256)": {
        "details": "Transfers token `id` from `from` to `to`. Requirements: - Token `id` must exist. - `from` must be the owner of the token. - `to` cannot be the zero address. - The caller must be the owner of the token, or be approved to manage the token. Emits a {Transfer} event."
      },
      "transferOwnership(address)": {
        "details": "Transfers ownership of the contract to a new account (`newOwner`). Can only be called by the current owner."
      }
    },
    "version": 1
  },
  "userdoc": {
    "kind": "user",
    "methods": {},
    "version": 1
  }
}