{
  "contractName": "DarkLegendsRewards",
  "abi": [
    {
      "inputs": [],
      "stateMutability": "nonpayable",
      "type": "constructor"
    },
    {
      "anonymous": false,
      "inputs": [
        {
          "indexed": false,
          "internalType": "uint256",
          "name": "countAddresses",
          "type": "uint256"
        },
        {
          "indexed": false,
          "internalType": "uint256",
          "name": "total",
          "type": "uint256"
        }
      ],
      "name": "AddedEligibility",
      "type": "event"
    },
    {
      "anonymous": false,
      "inputs": [
        {
          "indexed": true,
          "internalType": "address",
          "name": "account",
          "type": "address"
        },
        {
          "indexed": true,
          "internalType": "address",
          "name": "operator",
          "type": "address"
        },
        {
          "indexed": false,
          "internalType": "bool",
          "name": "approved",
          "type": "bool"
        }
      ],
      "name": "ApprovalForAll",
      "type": "event"
    },
    {
      "anonymous": false,
      "inputs": [
        {
          "indexed": true,
          "internalType": "address",
          "name": "from",
          "type": "address"
        },
        {
          "indexed": false,
          "internalType": "uint256",
          "name": "timestamp",
          "type": "uint256"
        },
        {
          "indexed": false,
          "internalType": "uint256",
          "name": "tokenId",
          "type": "uint256"
        },
        {
          "indexed": false,
          "internalType": "uint256",
          "name": "quantity",
          "type": "uint256"
        }
      ],
      "name": "Burned",
      "type": "event"
    },
    {
      "anonymous": false,
      "inputs": [
        {
          "indexed": true,
          "internalType": "address",
          "name": "from",
          "type": "address"
        },
        {
          "indexed": false,
          "internalType": "uint256",
          "name": "timestamp",
          "type": "uint256"
        },
        {
          "indexed": false,
          "internalType": "uint256",
          "name": "tokenId",
          "type": "uint256"
        },
        {
          "indexed": false,
          "internalType": "uint256",
          "name": "quantity",
          "type": "uint256"
        }
      ],
      "name": "Minted",
      "type": "event"
    },
    {
      "anonymous": false,
      "inputs": [
        {
          "indexed": true,
          "internalType": "address",
          "name": "previousOwner",
          "type": "address"
        },
        {
          "indexed": true,
          "internalType": "address",
          "name": "newOwner",
          "type": "address"
        }
      ],
      "name": "OwnershipTransferred",
      "type": "event"
    },
    {
      "anonymous": false,
      "inputs": [
        {
          "indexed": true,
          "internalType": "address",
          "name": "operator",
          "type": "address"
        },
        {
          "indexed": true,
          "internalType": "address",
          "name": "from",
          "type": "address"
        },
        {
          "indexed": true,
          "internalType": "address",
          "name": "to",
          "type": "address"
        },
        {
          "indexed": false,
          "internalType": "uint256[]",
          "name": "ids",
          "type": "uint256[]"
        },
        {
          "indexed": false,
          "internalType": "uint256[]",
          "name": "values",
          "type": "uint256[]"
        }
      ],
      "name": "TransferBatch",
      "type": "event"
    },
    {
      "anonymous": false,
      "inputs": [
        {
          "indexed": true,
          "internalType": "address",
          "name": "operator",
          "type": "address"
        },
        {
          "indexed": true,
          "internalType": "address",
          "name": "from",
          "type": "address"
        },
        {
          "indexed": true,
          "internalType": "address",
          "name": "to",
          "type": "address"
        },
        {
          "indexed": false,
          "internalType": "uint256",
          "name": "id",
          "type": "uint256"
        },
        {
          "indexed": false,
          "internalType": "uint256",
          "name": "value",
          "type": "uint256"
        }
      ],
      "name": "TransferSingle",
      "type": "event"
    },
    {
      "anonymous": false,
      "inputs": [
        {
          "indexed": false,
          "internalType": "string",
          "name": "value",
          "type": "string"
        },
        {
          "indexed": true,
          "internalType": "uint256",
          "name": "id",
          "type": "uint256"
        }
      ],
      "name": "URI",
      "type": "event"
    },
    {
      "inputs": [],
      "name": "ID_DARK_ARMOR",
      "outputs": [
        {
          "internalType": "uint256",
          "name": "",
          "type": "uint256"
        }
      ],
      "stateMutability": "view",
      "type": "function",
      "constant": true
    },
    {
      "inputs": [
        {
          "internalType": "address",
          "name": "account",
          "type": "address"
        },
        {
          "internalType": "uint256",
          "name": "id",
          "type": "uint256"
        }
      ],
      "name": "balanceOf",
      "outputs": [
        {
          "internalType": "uint256",
          "name": "",
          "type": "uint256"
        }
      ],
      "stateMutability": "view",
      "type": "function",
      "constant": true
    },
    {
      "inputs": [
        {
          "internalType": "address[]",
          "name": "accounts",
          "type": "address[]"
        },
        {
          "internalType": "uint256[]",
          "name": "ids",
          "type": "uint256[]"
        }
      ],
      "name": "balanceOfBatch",
      "outputs": [
        {
          "internalType": "uint256[]",
          "name": "",
          "type": "uint256[]"
        }
      ],
      "stateMutability": "view",
      "type": "function",
      "constant": true
    },
    {
      "inputs": [],
      "name": "baseURI",
      "outputs": [
        {
          "internalType": "string",
          "name": "",
          "type": "string"
        }
      ],
      "stateMutability": "view",
      "type": "function",
      "constant": true
    },
    {
      "inputs": [],
      "name": "collector",
      "outputs": [
        {
          "internalType": "address payable",
          "name": "",
          "type": "address"
        }
      ],
      "stateMutability": "view",
      "type": "function",
      "constant": true
    },
    {
      "inputs": [
        {
          "internalType": "address",
          "name": "",
          "type": "address"
        },
        {
          "internalType": "uint256",
          "name": "",
          "type": "uint256"
        }
      ],
      "name": "holderEligibilities",
      "outputs": [
        {
          "internalType": "uint256",
          "name": "total",
          "type": "uint256"
        },
        {
          "internalType": "uint256",
          "name": "claimed",
          "type": "uint256"
        }
      ],
      "stateMutability": "view",
      "type": "function",
      "constant": true
    },
    {
      "inputs": [
        {
          "internalType": "address",
          "name": "account",
          "type": "address"
        },
        {
          "internalType": "address",
          "name": "operator",
          "type": "address"
        }
      ],
      "name": "isApprovedForAll",
      "outputs": [
        {
          "internalType": "bool",
          "name": "",
          "type": "bool"
        }
      ],
      "stateMutability": "view",
      "type": "function",
      "constant": true
    },
    {
      "inputs": [],
      "name": "owner",
      "outputs": [
        {
          "internalType": "address",
          "name": "",
          "type": "address"
        }
      ],
      "stateMutability": "view",
      "type": "function",
      "constant": true
    },
    {
      "inputs": [],
      "name": "renounceOwnership",
      "outputs": [],
      "stateMutability": "nonpayable",
      "type": "function"
    },
    {
      "inputs": [
        {
          "internalType": "address",
          "name": "from",
          "type": "address"
        },
        {
          "internalType": "address",
          "name": "to",
          "type": "address"
        },
        {
          "internalType": "uint256[]",
          "name": "ids",
          "type": "uint256[]"
        },
        {
          "internalType": "uint256[]",
          "name": "amounts",
          "type": "uint256[]"
        },
        {
          "internalType": "bytes",
          "name": "data",
          "type": "bytes"
        }
      ],
      "name": "safeBatchTransferFrom",
      "outputs": [],
      "stateMutability": "nonpayable",
      "type": "function"
    },
    {
      "inputs": [
        {
          "internalType": "address",
          "name": "from",
          "type": "address"
        },
        {
          "internalType": "address",
          "name": "to",
          "type": "address"
        },
        {
          "internalType": "uint256",
          "name": "id",
          "type": "uint256"
        },
        {
          "internalType": "uint256",
          "name": "amount",
          "type": "uint256"
        },
        {
          "internalType": "bytes",
          "name": "data",
          "type": "bytes"
        }
      ],
      "name": "safeTransferFrom",
      "outputs": [],
      "stateMutability": "nonpayable",
      "type": "function"
    },
    {
      "inputs": [
        {
          "internalType": "address",
          "name": "operator",
          "type": "address"
        },
        {
          "internalType": "bool",
          "name": "approved",
          "type": "bool"
        }
      ],
      "name": "setApprovalForAll",
      "outputs": [],
      "stateMutability": "nonpayable",
      "type": "function"
    },
    {
      "inputs": [
        {
          "internalType": "bytes4",
          "name": "interfaceId",
          "type": "bytes4"
        }
      ],
      "name": "supportsInterface",
      "outputs": [
        {
          "internalType": "bool",
          "name": "",
          "type": "bool"
        }
      ],
      "stateMutability": "view",
      "type": "function",
      "constant": true
    },
    {
      "inputs": [
        {
          "internalType": "uint256",
          "name": "",
          "type": "uint256"
        }
      ],
      "name": "tokenCollection",
      "outputs": [
        {
          "internalType": "uint256",
          "name": "id",
          "type": "uint256"
        },
        {
          "internalType": "string",
          "name": "name",
          "type": "string"
        },
        {
          "internalType": "uint256",
          "name": "totalSupply",
          "type": "uint256"
        },
        {
          "internalType": "bool",
          "name": "mintable",
          "type": "bool"
        },
        {
          "internalType": "bool",
          "name": "burnable",
          "type": "bool"
        },
        {
          "internalType": "uint256",
          "name": "maxSupply",
          "type": "uint256"
        },
        {
          "internalType": "uint256",
          "name": "expireAt",
          "type": "uint256"
        }
      ],
      "stateMutability": "view",
      "type": "function",
      "constant": true
    },
    {
      "inputs": [
        {
          "internalType": "address",
          "name": "newOwner",
          "type": "address"
        }
      ],
      "name": "transferOwnership",
      "outputs": [],
      "stateMutability": "nonpayable",
      "type": "function"
    },
    {
      "inputs": [],
      "name": "withdrawAll",
      "outputs": [],
      "stateMutability": "payable",
      "type": "function",
      "payable": true
    },
    {
      "inputs": [
        {
          "internalType": "address payable",
          "name": "_newCollector",
          "type": "address"
        }
      ],
      "name": "setCollector",
      "outputs": [],
      "stateMutability": "nonpayable",
      "type": "function"
    },
    {
      "inputs": [
        {
          "internalType": "uint256",
          "name": "_tokenId",
          "type": "uint256"
        }
      ],
      "name": "toggleTokenMint",
      "outputs": [],
      "stateMutability": "nonpayable",
      "type": "function"
    },
    {
      "inputs": [
        {
          "internalType": "uint256",
          "name": "_tokenId",
          "type": "uint256"
        }
      ],
      "name": "toggleTokenBurnable",
      "outputs": [],
      "stateMutability": "nonpayable",
      "type": "function"
    },
    {
      "inputs": [
        {
          "internalType": "uint256",
          "name": "_tokenId",
          "type": "uint256"
        }
      ],
      "name": "getTokenRewardStatus",
      "outputs": [
        {
          "internalType": "bool",
          "name": "",
          "type": "bool"
        }
      ],
      "stateMutability": "view",
      "type": "function",
      "constant": true
    },
    {
      "inputs": [
        {
          "internalType": "uint256",
          "name": "_tokenId",
          "type": "uint256"
        }
      ],
      "name": "isBurnable",
      "outputs": [
        {
          "internalType": "bool",
          "name": "",
          "type": "bool"
        }
      ],
      "stateMutability": "view",
      "type": "function",
      "constant": true
    },
    {
      "inputs": [
        {
          "internalType": "address",
          "name": "wallet",
          "type": "address"
        },
        {
          "internalType": "uint256",
          "name": "_tokenId",
          "type": "uint256"
        }
      ],
      "name": "remaining",
      "outputs": [
        {
          "internalType": "uint256",
          "name": "",
          "type": "uint256"
        }
      ],
      "stateMutability": "view",
      "type": "function",
      "constant": true
    },
    {
      "inputs": [
        {
          "internalType": "string",
          "name": "_newBaseURI",
          "type": "string"
        }
      ],
      "name": "_setBaseURI",
      "outputs": [],
      "stateMutability": "nonpayable",
      "type": "function"
    },
    {
      "inputs": [
        {
          "internalType": "uint256",
          "name": "_tokenId",
          "type": "uint256"
        }
      ],
      "name": "uri",
      "outputs": [
        {
          "internalType": "string",
          "name": "",
          "type": "string"
        }
      ],
      "stateMutability": "view",
      "type": "function",
      "constant": true
    },
    {
      "inputs": [
        {
          "internalType": "string",
          "name": "_name",
          "type": "string"
        },
        {
          "internalType": "bool",
          "name": "_mintable",
          "type": "bool"
        },
        {
          "internalType": "bool",
          "name": "_burnable",
          "type": "bool"
        },
        {
          "internalType": "uint256",
          "name": "_maxSupply",
          "type": "uint256"
        },
        {
          "internalType": "uint256",
          "name": "_id",
          "type": "uint256"
        },
        {
          "internalType": "uint256",
          "name": "_expireAt",
          "type": "uint256"
        }
      ],
      "name": "addToken",
      "outputs": [],
      "stateMutability": "nonpayable",
      "type": "function"
    },
    {
      "inputs": [
        {
          "internalType": "address[]",
          "name": "_toAddAddresses",
          "type": "address[]"
        },
        {
          "internalType": "uint256[]",
          "name": "_quantities",
          "type": "uint256[]"
        },
        {
          "internalType": "uint256",
          "name": "_tokenId",
          "type": "uint256"
        }
      ],
      "name": "addEligilities",
      "outputs": [],
      "stateMutability": "nonpayable",
      "type": "function"
    },
    {
      "inputs": [
        {
          "internalType": "uint256",
          "name": "_tokenId",
          "type": "uint256"
        },
        {
          "internalType": "uint256",
          "name": "_quantity",
          "type": "uint256"
        }
      ],
      "name": "mint",
      "outputs": [],
      "stateMutability": "nonpayable",
      "type": "function"
    },
    {
      "inputs": [
        {
          "internalType": "uint256",
          "name": "_tokenId",
          "type": "uint256"
        },
        {
          "internalType": "uint256",
          "name": "_quantity",
          "type": "uint256"
        }
      ],
      "name": "burn",
      "outputs": [],
      "stateMutability": "nonpayable",
      "type": "function"
    }
  ],
  "bytecode": "0x60806040526040518060200160405280600081525060059081620000249190620005ff565b503480156200003257600080fd5b506040518060200160405280600081525062000054816200010160201b60201c565b5062000075620000696200011660201b60201c565b6200011e60201b60201c565b6001600481905550620000d06040518060400160405280600a81526020017f6461726b2d61726d6f720000000000000000000000000000000000000000000081525060018061012c60016366185d5f620001e460201b60201c565b604051806080016040528060578152602001620051fd6057913960059081620000fa9190620005ff565b5062000769565b8060029081620001129190620005ff565b5050565b600033905090565b6000600360009054906101000a900473ffffffffffffffffffffffffffffffffffffffff16905081600360006101000a81548173ffffffffffffffffffffffffffffffffffffffff021916908373ffffffffffffffffffffffffffffffffffffffff1602179055508173ffffffffffffffffffffffffffffffffffffffff168173ffffffffffffffffffffffffffffffffffffffff167f8be0079c531659141344cd1fd0a4f28419497f9722a3daafe3b4186f6b6457e060405160405180910390a35050565b620001f4620002ca60201b60201c565b6040518060e0016040528083815260200187815260200160008152602001861515815260200185151581526020018481526020018281525060086000848152602001908152602001600020600082015181600001556020820151816001019081620002609190620005ff565b506040820151816002015560608201518160030160006101000a81548160ff02191690831515021790555060808201518160030160016101000a81548160ff02191690831515021790555060a0820151816004015560c08201518160050155905050505050505050565b620002da6200011660201b60201c565b73ffffffffffffffffffffffffffffffffffffffff16620003006200035b60201b60201c565b73ffffffffffffffffffffffffffffffffffffffff161462000359576040517f08c379a0000000000000000000000000000000000000000000000000000000008152600401620003509062000747565b60405180910390fd5b565b6000600360009054906101000a900473ffffffffffffffffffffffffffffffffffffffff16905090565b600081519050919050565b7f4e487b7100000000000000000000000000000000000000000000000000000000600052604160045260246000fd5b7f4e487b7100000000000000000000000000000000000000000000000000000000600052602260045260246000fd5b600060028204905060018216806200040757607f821691505b6020821081036200041d576200041c620003bf565b5b50919050565b60008190508160005260206000209050919050565b60006020601f8301049050919050565b600082821b905092915050565b600060088302620004877fffffffffffffffffffffffffffffffffffffffffffffffffffffffffffffffff8262000448565b62000493868362000448565b95508019841693508086168417925050509392505050565b6000819050919050565b6000819050919050565b6000620004e0620004da620004d484620004ab565b620004b5565b620004ab565b9050919050565b6000819050919050565b620004fc83620004bf565b620005146200050b82620004e7565b84845462000455565b825550505050565b600090565b6200052b6200051c565b62000538818484620004f1565b505050565b5b8181101562000560576200055460008262000521565b6001810190506200053e565b5050565b601f821115620005af57620005798162000423565b620005848462000438565b8101602085101562000594578190505b620005ac620005a38562000438565b8301826200053d565b50505b505050565b600082821c905092915050565b6000620005d460001984600802620005b4565b1980831691505092915050565b6000620005ef8383620005c1565b9150826002028217905092915050565b6200060a8262000385565b67ffffffffffffffff81111562000626576200062562000390565b5b620006328254620003ee565b6200063f82828562000564565b600060209050601f83116001811462000677576000841562000662578287015190505b6200066e8582620005e1565b865550620006de565b601f198416620006878662000423565b60005b82811015620006b1578489015182556001820191506020850194506020810190506200068a565b86831015620006d15784890151620006cd601f891682620005c1565b8355505b6001600288020188555050505b505050505050565b600082825260208201905092915050565b7f4f776e61626c653a2063616c6c6572206973206e6f7420746865206f776e6572600082015250565b60006200072f602083620006e6565b91506200073c82620006f7565b602082019050919050565b60006020820190508181036000830152620007628162000720565b9050919050565b614a8480620007796000396000f3fe6080604052600436106101b65760003560e01c8063913e77ad116100ec578063e1a977ec1161008a578063e985e9c511610064578063e985e9c514610625578063f242432a14610662578063f2fde38b1461068b578063fb5b82d0146106b4576101b6565b8063e1a977ec14610580578063e7cb8636146105bd578063e7d0094d146105e8576101b6565b8063b390c0ab116100c6578063b390c0ab146104c8578063bb12d5d8146104f1578063c6f88d4a1461051a578063d912a02314610557576101b6565b8063913e77ad1461044b578063a22cb46514610476578063a5ea87381461049f576101b6565b80634636b95111610159578063715018a611610133578063715018a6146103c15780637672e1b6146103d8578063853828b6146104165780638da5cb5b14610420576101b6565b80634636b951146103305780634e1273f4146103595780636c0360eb14610396576101b6565b80631b2ef1ca116101955780631b2ef1ca146102725780632dd883e81461029b5780632eb2c2d6146102de57806331b5b90714610307576101b6565b8062fdd58e146101bb57806301ffc9a7146101f85780630e89341c14610235575b600080fd5b3480156101c757600080fd5b506101e260048036038101906101dd9190612b08565b6106dd565b6040516101ef9190612b57565b60405180910390f35b34801561020457600080fd5b5061021f600480360381019061021a9190612bca565b6107a5565b60405161022c9190612c12565b60405180910390f35b34801561024157600080fd5b5061025c60048036038101906102579190612c2d565b610887565b6040516102699190612cea565b60405180910390f35b34801561027e57600080fd5b5061029960048036038101906102949190612d0c565b6108e7565b005b3480156102a757600080fd5b506102c260048036038101906102bd9190612c2d565b610b70565b6040516102d59796959493929190612d4c565b60405180910390f35b3480156102ea57600080fd5b5061030560048036038101906103009190612fbf565b610c54565b005b34801561031357600080fd5b5061032e6004803603810190610329919061312f565b610cf5565b005b34801561033c57600080fd5b50610357600480360381019061035291906131a4565b610d10565b005b34801561036557600080fd5b50610380600480360381019061037b9190613310565b610dec565b60405161038d9190613446565b60405180910390f35b3480156103a257600080fd5b506103ab610f05565b6040516103b89190612cea565b60405180910390f35b3480156103cd57600080fd5b506103d6610f93565b005b3480156103e457600080fd5b506103ff60048036038101906103fa9190612b08565b610fa7565b60405161040d929190613468565b60405180910390f35b61041e610fd8565b005b34801561042c57600080fd5b5061043561104b565b60405161044291906134a0565b60405180910390f35b34801561045757600080fd5b50610460611075565b60405161046d91906134dc565b60405180910390f35b34801561048257600080fd5b5061049d600480360381019061049891906134f7565b61109b565b005b3480156104ab57600080fd5b506104c660048036038101906104c191906135e8565b6110b1565b005b3480156104d457600080fd5b506104ef60048036038101906104ea9190612d0c565b611227565b005b3480156104fd57600080fd5b5061051860048036038101906105139190612c2d565b611337565b005b34801561052657600080fd5b50610541600480360381019061053c9190612c2d565b611394565b60405161054e9190612c12565b60405180910390f35b34801561056357600080fd5b5061057e60048036038101906105799190612c2d565b6113c1565b005b34801561058c57600080fd5b506105a760048036038101906105a29190612b08565b61141e565b6040516105b49190612b57565b60405180910390f35b3480156105c957600080fd5b506105d26114da565b6040516105df9190612b57565b60405180910390f35b3480156105f457600080fd5b5061060f600480360381019061060a9190612c2d565b6114df565b60405161061c9190612c12565b60405180910390f35b34801561063157600080fd5b5061064c6004803603810190610647919061367d565b61150c565b6040516106599190612c12565b60405180910390f35b34801561066e57600080fd5b50610689600480360381019061068491906136bd565b6115a0565b005b34801561069757600080fd5b506106b260048036038101906106ad9190613754565b611641565b005b3480156106c057600080fd5b506106db60048036038101906106d691906137ad565b6116c4565b005b60008073ffffffffffffffffffffffffffffffffffffffff168373ffffffffffffffffffffffffffffffffffffffff160361074d576040517f08c379a00000000000000000000000000000000000000000000000000000000081526004016107449061384c565b60405180910390fd5b60008083815260200190815260200160002060008473ffffffffffffffffffffffffffffffffffffffff1673ffffffffffffffffffffffffffffffffffffffff16815260200190815260200160002054905092915050565b60007fd9b67a26000000000000000000000000000000000000000000000000000000007bffffffffffffffffffffffffffffffffffffffffffffffffffffffff1916827bffffffffffffffffffffffffffffffffffffffffffffffffffffffff1916148061087057507f0e89341c000000000000000000000000000000000000000000000000000000007bffffffffffffffffffffffffffffffffffffffffffffffffffffffff1916827bffffffffffffffffffffffffffffffffffffffffffffffffffffffff1916145b80610880575061087f82611710565b5b9050919050565b60606000600580546108989061389b565b9050116108b457604051806020016040528060008152506108e0565b60056108bf8361177a565b6040516020016108d09291906139a0565b6040516020818303038152906040525b9050919050565b806108f2338461141e565b1015610933576040517f08c379a000000000000000000000000000000000000000000000000000000000815260040161092a90613a10565b60405180910390fd5b6008600083815260200190815260200160002060030160009054906101000a900460ff16610996576040517f08c379a000000000000000000000000000000000000000000000000000000000815260040161098d90613a7c565b60405180910390fd5b60086000838152602001908152602001600020600401548160086000858152602001908152602001600020600201546109cf9190613acb565b1115610a10576040517f08c379a0000000000000000000000000000000000000000000000000000000008152600401610a0790613b4b565b60405180910390fd5b60086000838152602001908152602001600020600501544210610a68576040517f08c379a0000000000000000000000000000000000000000000000000000000008152600401610a5f90613bb7565b60405180910390fd5b80600760003373ffffffffffffffffffffffffffffffffffffffff1673ffffffffffffffffffffffffffffffffffffffff16815260200190815260200160002060008481526020019081526020016000206001016000828254610acb9190613acb565b9250508190555080600860008481526020019081526020016000206002016000828254610af89190613acb565b92505081905550610b1a33838360405180602001604052806000815250611848565b3373ffffffffffffffffffffffffffffffffffffffff167f5a3358a3d27a5373c0df2604662088d37894d56b7cfd27f315770440f4e0d919428484604051610b6493929190613bd7565b60405180910390a25050565b6008602052806000526040600020600091509050806000015490806001018054610b999061389b565b80601f0160208091040260200160405190810160405280929190818152602001828054610bc59061389b565b8015610c125780601f10610be757610100808354040283529160200191610c12565b820191906000526020600020905b815481529060010190602001808311610bf557829003601f168201915b5050505050908060020154908060030160009054906101000a900460ff16908060030160019054906101000a900460ff16908060040154908060050154905087565b610c5c6119f8565b73ffffffffffffffffffffffffffffffffffffffff168573ffffffffffffffffffffffffffffffffffffffff161480610ca25750610ca185610c9c6119f8565b61150c565b5b610ce1576040517f08c379a0000000000000000000000000000000000000000000000000000000008152600401610cd890613c80565b60405180910390fd5b610cee8585858585611a00565b5050505050565b610cfd611d21565b8060059081610d0c9190613e37565b5050565b610d18611d21565b6040518060e0016040528083815260200187815260200160008152602001861515815260200185151581526020018481526020018281525060086000848152602001908152602001600020600082015181600001556020820151816001019081610d829190613e37565b506040820151816002015560608201518160030160006101000a81548160ff02191690831515021790555060808201518160030160016101000a81548160ff02191690831515021790555060a0820151816004015560c08201518160050155905050505050505050565b60608151835114610e32576040517f08c379a0000000000000000000000000000000000000000000000000000000008152600401610e2990613f7b565b60405180910390fd5b6000835167ffffffffffffffff811115610e4f57610e4e612dc7565b5b604051908082528060200260200182016040528015610e7d5781602001602082028036833780820191505090505b50905060005b8451811015610efa57610eca858281518110610ea257610ea1613f9b565b5b6020026020010151858381518110610ebd57610ebc613f9b565b5b60200260200101516106dd565b828281518110610edd57610edc613f9b565b5b60200260200101818152505080610ef390613fca565b9050610e83565b508091505092915050565b60058054610f129061389b565b80601f0160208091040260200160405190810160405280929190818152602001828054610f3e9061389b565b8015610f8b5780601f10610f6057610100808354040283529160200191610f8b565b820191906000526020600020905b815481529060010190602001808311610f6e57829003601f168201915b505050505081565b610f9b611d21565b610fa56000611d9f565b565b6007602052816000526040600020602052806000526040600020600091509150508060000154908060010154905082565b610fe0611d21565b600660009054906101000a900473ffffffffffffffffffffffffffffffffffffffff1673ffffffffffffffffffffffffffffffffffffffff166108fc479081150290604051600060405180830381858888f19350505050158015611048573d6000803e3d6000fd5b50565b6000600360009054906101000a900473ffffffffffffffffffffffffffffffffffffffff16905090565b600660009054906101000a900473ffffffffffffffffffffffffffffffffffffffff1681565b6110ad6110a66119f8565b8383611e65565b5050565b6110b9611d21565b828290508585905014611101576040517f08c379a00000000000000000000000000000000000000000000000000000000081526004016110f890614084565b60405180910390fd5b6000805b868690508110156111e25784848281811061112357611122613f9b565b5b905060200201356007600089898581811061114157611140613f9b565b5b90506020020160208101906111569190613754565b73ffffffffffffffffffffffffffffffffffffffff1673ffffffffffffffffffffffffffffffffffffffff1681526020019081526020016000206000858152602001908152602001600020600001819055508484828181106111bb576111ba613f9b565b5b90506020020135826111cd9190613acb565b915080806111da90613fca565b915050611105565b507fa82370edbf4f9f8ecf9132eb357d9a171e6cf346954298950049096aa5ac64708686905082604051611217929190613468565b60405180910390a1505050505050565b6008600083815260200190815260200160002060030160019054906101000a900460ff1661128a576040517f08c379a0000000000000000000000000000000000000000000000000000000008152600401611281906140f0565b60405180910390fd5b8061129533846106dd565b10156112d6576040517f08c379a00000000000000000000000000000000000000000000000000000000081526004016112cd9061415c565b60405180910390fd5b6112e1338383611fd1565b3373ffffffffffffffffffffffffffffffffffffffff167f4c60206a5c1de41f3376d1d60f0949d96cb682033c90b1c2d9d9a62d4c4120c042848460405161132b93929190613bd7565b60405180910390a25050565b61133f611d21565b6008600082815260200190815260200160002060030160009054906101000a900460ff16156008600083815260200190815260200160002060030160006101000a81548160ff02191690831515021790555050565b60006008600083815260200190815260200160002060030160019054906101000a900460ff169050919050565b6113c9611d21565b6008600082815260200190815260200160002060030160019054906101000a900460ff16156008600083815260200190815260200160002060030160016101000a81548160ff02191690831515021790555050565b6000600760008473ffffffffffffffffffffffffffffffffffffffff1673ffffffffffffffffffffffffffffffffffffffff168152602001908152602001600020600083815260200190815260200160002060010154600760008573ffffffffffffffffffffffffffffffffffffffff1673ffffffffffffffffffffffffffffffffffffffff1681526020019081526020016000206000848152602001908152602001600020600001546114d2919061417c565b905092915050565b600181565b60006008600083815260200190815260200160002060030160009054906101000a900460ff169050919050565b6000600160008473ffffffffffffffffffffffffffffffffffffffff1673ffffffffffffffffffffffffffffffffffffffff16815260200190815260200160002060008373ffffffffffffffffffffffffffffffffffffffff1673ffffffffffffffffffffffffffffffffffffffff16815260200190815260200160002060009054906101000a900460ff16905092915050565b6115a86119f8565b73ffffffffffffffffffffffffffffffffffffffff168573ffffffffffffffffffffffffffffffffffffffff1614806115ee57506115ed856115e86119f8565b61150c565b5b61162d576040517f08c379a000000000000000000000000000000000000000000000000000000000815260040161162490613c80565b60405180910390fd5b61163a8585858585612217565b5050505050565b611649611d21565b600073ffffffffffffffffffffffffffffffffffffffff168173ffffffffffffffffffffffffffffffffffffffff16036116b8576040517f08c379a00000000000000000000000000000000000000000000000000000000081526004016116af90614222565b60405180910390fd5b6116c181611d9f565b50565b6116cc611d21565b80600660006101000a81548173ffffffffffffffffffffffffffffffffffffffff021916908373ffffffffffffffffffffffffffffffffffffffff16021790555050565b60007f01ffc9a7000000000000000000000000000000000000000000000000000000007bffffffffffffffffffffffffffffffffffffffffffffffffffffffff1916827bffffffffffffffffffffffffffffffffffffffffffffffffffffffff1916149050919050565b606060006001611789846124b2565b01905060008167ffffffffffffffff8111156117a8576117a7612dc7565b5b6040519080825280601f01601f1916602001820160405280156117da5781602001600182028036833780820191505090505b509050600082602001820190505b60011561183d578080600190039150507f3031323334353637383961626364656600000000000000000000000000000000600a86061a8153600a858161183157611830614242565b5b049450600085036117e8575b819350505050919050565b600073ffffffffffffffffffffffffffffffffffffffff168473ffffffffffffffffffffffffffffffffffffffff16036118b7576040517f08c379a00000000000000000000000000000000000000000000000000000000081526004016118ae906142e3565b60405180910390fd5b60006118c16119f8565b905060006118ce85612605565b905060006118db85612605565b90506118ec8360008985858961267f565b8460008088815260200190815260200160002060008973ffffffffffffffffffffffffffffffffffffffff1673ffffffffffffffffffffffffffffffffffffffff168152602001908152602001600020600082825461194b9190613acb565b925050819055508673ffffffffffffffffffffffffffffffffffffffff16600073ffffffffffffffffffffffffffffffffffffffff168473ffffffffffffffffffffffffffffffffffffffff167fc3d58168c5ae7397731d063d5bbf3d657854427343f4c083240f7aacaa2d0f6289896040516119c9929190613468565b60405180910390a46119e083600089858589612687565b6119ef8360008989898961268f565b50505050505050565b600033905090565b8151835114611a44576040517f08c379a0000000000000000000000000000000000000000000000000000000008152600401611a3b90614375565b60405180910390fd5b600073ffffffffffffffffffffffffffffffffffffffff168473ffffffffffffffffffffffffffffffffffffffff1603611ab3576040517f08c379a0000000000000000000000000000000000000000000000000000000008152600401611aaa90614407565b60405180910390fd5b6000611abd6119f8565b9050611acd81878787878761267f565b60005b8451811015611c7e576000858281518110611aee57611aed613f9b565b5b602002602001015190506000858381518110611b0d57611b0c613f9b565b5b60200260200101519050600080600084815260200190815260200160002060008b73ffffffffffffffffffffffffffffffffffffffff1673ffffffffffffffffffffffffffffffffffffffff16815260200190815260200160002054905081811015611bae576040517f08c379a0000000000000000000000000000000000000000000000000000000008152600401611ba590614499565b60405180910390fd5b81810360008085815260200190815260200160002060008c73ffffffffffffffffffffffffffffffffffffffff1673ffffffffffffffffffffffffffffffffffffffff168152602001908152602001600020819055508160008085815260200190815260200160002060008b73ffffffffffffffffffffffffffffffffffffffff1673ffffffffffffffffffffffffffffffffffffffff1681526020019081526020016000206000828254611c639190613acb565b9250508190555050505080611c7790613fca565b9050611ad0565b508473ffffffffffffffffffffffffffffffffffffffff168673ffffffffffffffffffffffffffffffffffffffff168273ffffffffffffffffffffffffffffffffffffffff167f4a39dc06d4c0dbc64b70af90fd698a233a518aa5d07e595d983b8c0526c8f7fb8787604051611cf59291906144b9565b60405180910390a4611d0b818787878787612687565b611d19818787878787612866565b505050505050565b611d296119f8565b73ffffffffffffffffffffffffffffffffffffffff16611d4761104b565b73ffffffffffffffffffffffffffffffffffffffff1614611d9d576040517f08c379a0000000000000000000000000000000000000000000000000000000008152600401611d949061453c565b60405180910390fd5b565b6000600360009054906101000a900473ffffffffffffffffffffffffffffffffffffffff16905081600360006101000a81548173ffffffffffffffffffffffffffffffffffffffff021916908373ffffffffffffffffffffffffffffffffffffffff1602179055508173ffffffffffffffffffffffffffffffffffffffff168173ffffffffffffffffffffffffffffffffffffffff167f8be0079c531659141344cd1fd0a4f28419497f9722a3daafe3b4186f6b6457e060405160405180910390a35050565b8173ffffffffffffffffffffffffffffffffffffffff168373ffffffffffffffffffffffffffffffffffffffff1603611ed3576040517f08c379a0000000000000000000000000000000000000000000000000000000008152600401611eca906145ce565b60405180910390fd5b80600160008573ffffffffffffffffffffffffffffffffffffffff1673ffffffffffffffffffffffffffffffffffffffff16815260200190815260200160002060008473ffffffffffffffffffffffffffffffffffffffff1673ffffffffffffffffffffffffffffffffffffffff16815260200190815260200160002060006101000a81548160ff0219169083151502179055508173ffffffffffffffffffffffffffffffffffffffff168373ffffffffffffffffffffffffffffffffffffffff167f17307eab39ab6107e8899845ad3d59bd9653f200f220920489ca2b5937696c3183604051611fc49190612c12565b60405180910390a3505050565b600073ffffffffffffffffffffffffffffffffffffffff168373ffffffffffffffffffffffffffffffffffffffff1603612040576040517f08c379a000000000000000000000000000000000000000000000000000000000815260040161203790614660565b60405180910390fd5b600061204a6119f8565b9050600061205784612605565b9050600061206484612605565b90506120848387600085856040518060200160405280600081525061267f565b600080600087815260200190815260200160002060008873ffffffffffffffffffffffffffffffffffffffff1673ffffffffffffffffffffffffffffffffffffffff1681526020019081526020016000205490508481101561211b576040517f08c379a0000000000000000000000000000000000000000000000000000000008152600401612112906146f2565b60405180910390fd5b84810360008088815260200190815260200160002060008973ffffffffffffffffffffffffffffffffffffffff1673ffffffffffffffffffffffffffffffffffffffff16815260200190815260200160002081905550600073ffffffffffffffffffffffffffffffffffffffff168773ffffffffffffffffffffffffffffffffffffffff168573ffffffffffffffffffffffffffffffffffffffff167fc3d58168c5ae7397731d063d5bbf3d657854427343f4c083240f7aacaa2d0f6289896040516121e8929190613468565b60405180910390a461220e84886000868660405180602001604052806000815250612687565b50505050505050565b600073ffffffffffffffffffffffffffffffffffffffff168473ffffffffffffffffffffffffffffffffffffffff1603612286576040517f08c379a000000000000000000000000000000000000000000000000000000000815260040161227d90614407565b60405180910390fd5b60006122906119f8565b9050600061229d85612605565b905060006122aa85612605565b90506122ba83898985858961267f565b600080600088815260200190815260200160002060008a73ffffffffffffffffffffffffffffffffffffffff1673ffffffffffffffffffffffffffffffffffffffff16815260200190815260200160002054905085811015612351576040517f08c379a000000000000000000000000000000000000000000000000000000000815260040161234890614499565b60405180910390fd5b85810360008089815260200190815260200160002060008b73ffffffffffffffffffffffffffffffffffffffff1673ffffffffffffffffffffffffffffffffffffffff168152602001908152602001600020819055508560008089815260200190815260200160002060008a73ffffffffffffffffffffffffffffffffffffffff1673ffffffffffffffffffffffffffffffffffffffff16815260200190815260200160002060008282546124069190613acb565b925050819055508773ffffffffffffffffffffffffffffffffffffffff168973ffffffffffffffffffffffffffffffffffffffff168573ffffffffffffffffffffffffffffffffffffffff167fc3d58168c5ae7397731d063d5bbf3d657854427343f4c083240f7aacaa2d0f628a8a604051612483929190613468565b60405180910390a4612499848a8a86868a612687565b6124a7848a8a8a8a8a61268f565b505050505050505050565b600080600090507a184f03e93ff9f4daa797ed6e38ed64bf6a1f0100000000000000008310612510577a184f03e93ff9f4daa797ed6e38ed64bf6a1f010000000000000000838161250657612505614242565b5b0492506040810190505b6d04ee2d6d415b85acef8100000000831061254d576d04ee2d6d415b85acef8100000000838161254357612542614242565b5b0492506020810190505b662386f26fc10000831061257c57662386f26fc10000838161257257612571614242565b5b0492506010810190505b6305f5e10083106125a5576305f5e100838161259b5761259a614242565b5b0492506008810190505b61271083106125ca5761271083816125c0576125bf614242565b5b0492506004810190505b606483106125ed57606483816125e3576125e2614242565b5b0492506002810190505b600a83106125fc576001810190505b80915050919050565b60606000600167ffffffffffffffff81111561262457612623612dc7565b5b6040519080825280602002602001820160405280156126525781602001602082028036833780820191505090505b509050828160008151811061266a57612669613f9b565b5b60200260200101818152505080915050919050565b505050505050565b505050505050565b6126ae8473ffffffffffffffffffffffffffffffffffffffff16612a3d565b1561285e578373ffffffffffffffffffffffffffffffffffffffff1663f23a6e6187878686866040518663ffffffff1660e01b81526004016126f4959493929190614767565b6020604051808303816000875af192505050801561273057506040513d601f19601f8201168201806040525081019061272d91906147d6565b60015b6127d55761273c614810565b806308c379a0036127985750612750614832565b8061275b575061279a565b806040517f08c379a000000000000000000000000000000000000000000000000000000000815260040161278f9190612cea565b60405180910390fd5b505b6040517f08c379a00000000000000000000000000000000000000000000000000000000081526004016127cc90614934565b60405180910390fd5b63f23a6e6160e01b7bffffffffffffffffffffffffffffffffffffffffffffffffffffffff1916817bffffffffffffffffffffffffffffffffffffffffffffffffffffffff19161461285c576040517f08c379a0000000000000000000000000000000000000000000000000000000008152600401612853906149c6565b60405180910390fd5b505b505050505050565b6128858473ffffffffffffffffffffffffffffffffffffffff16612a3d565b15612a35578373ffffffffffffffffffffffffffffffffffffffff1663bc197c8187878686866040518663ffffffff1660e01b81526004016128cb9594939291906149e6565b6020604051808303816000875af192505050801561290757506040513d601f19601f8201168201806040525081019061290491906147d6565b60015b6129ac57612913614810565b806308c379a00361296f5750612927614832565b806129325750612971565b806040517f08c379a00000000000000000000000000000000000000000000000000000000081526004016129669190612cea565b60405180910390fd5b505b6040517f08c379a00000000000000000000000000000000000000000000000000000000081526004016129a390614934565b60405180910390fd5b63bc197c8160e01b7bffffffffffffffffffffffffffffffffffffffffffffffffffffffff1916817bffffffffffffffffffffffffffffffffffffffffffffffffffffffff191614612a33576040517f08c379a0000000000000000000000000000000000000000000000000000000008152600401612a2a906149c6565b60405180910390fd5b505b505050505050565b6000808273ffffffffffffffffffffffffffffffffffffffff163b119050919050565b6000604051905090565b600080fd5b600080fd5b600073ffffffffffffffffffffffffffffffffffffffff82169050919050565b6000612a9f82612a74565b9050919050565b612aaf81612a94565b8114612aba57600080fd5b50565b600081359050612acc81612aa6565b92915050565b6000819050919050565b612ae581612ad2565b8114612af057600080fd5b50565b600081359050612b0281612adc565b92915050565b60008060408385031215612b1f57612b1e612a6a565b5b6000612b2d85828601612abd565b9250506020612b3e85828601612af3565b9150509250929050565b612b5181612ad2565b82525050565b6000602082019050612b6c6000830184612b48565b92915050565b60007fffffffff0000000000000000000000000000000000000000000000000000000082169050919050565b612ba781612b72565b8114612bb257600080fd5b50565b600081359050612bc481612b9e565b92915050565b600060208284031215612be057612bdf612a6a565b5b6000612bee84828501612bb5565b91505092915050565b60008115159050919050565b612c0c81612bf7565b82525050565b6000602082019050612c276000830184612c03565b92915050565b600060208284031215612c4357612c42612a6a565b5b6000612c5184828501612af3565b91505092915050565b600081519050919050565b600082825260208201905092915050565b60005b83811015612c94578082015181840152602081019050612c79565b60008484015250505050565b6000601f19601f8301169050919050565b6000612cbc82612c5a565b612cc68185612c65565b9350612cd6818560208601612c76565b612cdf81612ca0565b840191505092915050565b60006020820190508181036000830152612d048184612cb1565b905092915050565b60008060408385031215612d2357612d22612a6a565b5b6000612d3185828601612af3565b9250506020612d4285828601612af3565b9150509250929050565b600060e082019050612d61600083018a612b48565b8181036020830152612d738189612cb1565b9050612d826040830188612b48565b612d8f6060830187612c03565b612d9c6080830186612c03565b612da960a0830185612b48565b612db660c0830184612b48565b98975050505050505050565b600080fd5b7f4e487b7100000000000000000000000000000000000000000000000000000000600052604160045260246000fd5b612dff82612ca0565b810181811067ffffffffffffffff82111715612e1e57612e1d612dc7565b5b80604052505050565b6000612e31612a60565b9050612e3d8282612df6565b919050565b600067ffffffffffffffff821115612e5d57612e5c612dc7565b5b602082029050602081019050919050565b600080fd5b6000612e86612e8184612e42565b612e27565b90508083825260208201905060208402830185811115612ea957612ea8612e6e565b5b835b81811015612ed25780612ebe8882612af3565b845260208401935050602081019050612eab565b5050509392505050565b600082601f830112612ef157612ef0612dc2565b5b8135612f01848260208601612e73565b91505092915050565b600080fd5b600067ffffffffffffffff821115612f2a57612f29612dc7565b5b612f3382612ca0565b9050602081019050919050565b82818337600083830152505050565b6000612f62612f5d84612f0f565b612e27565b905082815260208101848484011115612f7e57612f7d612f0a565b5b612f89848285612f40565b509392505050565b600082601f830112612fa657612fa5612dc2565b5b8135612fb6848260208601612f4f565b91505092915050565b600080600080600060a08688031215612fdb57612fda612a6a565b5b6000612fe988828901612abd565b9550506020612ffa88828901612abd565b945050604086013567ffffffffffffffff81111561301b5761301a612a6f565b5b61302788828901612edc565b935050606086013567ffffffffffffffff81111561304857613047612a6f565b5b61305488828901612edc565b925050608086013567ffffffffffffffff81111561307557613074612a6f565b5b61308188828901612f91565b9150509295509295909350565b600067ffffffffffffffff8211156130a9576130a8612dc7565b5b6130b282612ca0565b9050602081019050919050565b60006130d26130cd8461308e565b612e27565b9050828152602081018484840111156130ee576130ed612f0a565b5b6130f9848285612f40565b509392505050565b600082601f83011261311657613115612dc2565b5b81356131268482602086016130bf565b91505092915050565b60006020828403121561314557613144612a6a565b5b600082013567ffffffffffffffff81111561316357613162612a6f565b5b61316f84828501613101565b91505092915050565b61318181612bf7565b811461318c57600080fd5b50565b60008135905061319e81613178565b92915050565b60008060008060008060c087890312156131c1576131c0612a6a565b5b600087013567ffffffffffffffff8111156131df576131de612a6f565b5b6131eb89828a01613101565b96505060206131fc89828a0161318f565b955050604061320d89828a0161318f565b945050606061321e89828a01612af3565b935050608061322f89828a01612af3565b92505060a061324089828a01612af3565b9150509295509295509295565b600067ffffffffffffffff82111561326857613267612dc7565b5b602082029050602081019050919050565b600061328c6132878461324d565b612e27565b905080838252602082019050602084028301858111156132af576132ae612e6e565b5b835b818110156132d857806132c48882612abd565b8452602084019350506020810190506132b1565b5050509392505050565b600082601f8301126132f7576132f6612dc2565b5b8135613307848260208601613279565b91505092915050565b6000806040838503121561332757613326612a6a565b5b600083013567ffffffffffffffff81111561334557613344612a6f565b5b613351858286016132e2565b925050602083013567ffffffffffffffff81111561337257613371612a6f565b5b61337e85828601612edc565b9150509250929050565b600081519050919050565b600082825260208201905092915050565b6000819050602082019050919050565b6133bd81612ad2565b82525050565b60006133cf83836133b4565b60208301905092915050565b6000602082019050919050565b60006133f382613388565b6133fd8185613393565b9350613408836133a4565b8060005b8381101561343957815161342088826133c3565b975061342b836133db565b92505060018101905061340c565b5085935050505092915050565b6000602082019050818103600083015261346081846133e8565b905092915050565b600060408201905061347d6000830185612b48565b61348a6020830184612b48565b9392505050565b61349a81612a94565b82525050565b60006020820190506134b56000830184613491565b92915050565b60006134c682612a74565b9050919050565b6134d6816134bb565b82525050565b60006020820190506134f160008301846134cd565b92915050565b6000806040838503121561350e5761350d612a6a565b5b600061351c85828601612abd565b925050602061352d8582860161318f565b9150509250929050565b600080fd5b60008083601f84011261355257613551612dc2565b5b8235905067ffffffffffffffff81111561356f5761356e613537565b5b60208301915083602082028301111561358b5761358a612e6e565b5b9250929050565b60008083601f8401126135a8576135a7612dc2565b5b8235905067ffffffffffffffff8111156135c5576135c4613537565b5b6020830191508360208202830111156135e1576135e0612e6e565b5b9250929050565b60008060008060006060868803121561360457613603612a6a565b5b600086013567ffffffffffffffff81111561362257613621612a6f565b5b61362e8882890161353c565b9550955050602086013567ffffffffffffffff81111561365157613650612a6f565b5b61365d88828901613592565b9350935050604061367088828901612af3565b9150509295509295909350565b6000806040838503121561369457613693612a6a565b5b60006136a285828601612abd565b92505060206136b385828601612abd565b9150509250929050565b600080600080600060a086880312156136d9576136d8612a6a565b5b60006136e788828901612abd565b95505060206136f888828901612abd565b945050604061370988828901612af3565b935050606061371a88828901612af3565b925050608086013567ffffffffffffffff81111561373b5761373a612a6f565b5b61374788828901612f91565b9150509295509295909350565b60006020828403121561376a57613769612a6a565b5b600061377884828501612abd565b91505092915050565b61378a816134bb565b811461379557600080fd5b50565b6000813590506137a781613781565b92915050565b6000602082840312156137c3576137c2612a6a565b5b60006137d184828501613798565b91505092915050565b7f455243313135353a2061646472657373207a65726f206973206e6f742061207660008201527f616c6964206f776e657200000000000000000000000000000000000000000000602082015250565b6000613836602a83612c65565b9150613841826137da565b604082019050919050565b6000602082019050818103600083015261386581613829565b9050919050565b7f4e487b7100000000000000000000000000000000000000000000000000000000600052602260045260246000fd5b600060028204905060018216806138b357607f821691505b6020821081036138c6576138c561386c565b5b50919050565b600081905092915050565b60008190508160005260206000209050919050565b600081546138f98161389b565b61390381866138cc565b9450600182166000811461391e576001811461393357613966565b60ff1983168652811515820286019350613966565b61393c856138d7565b60005b8381101561395e5781548189015260018201915060208101905061393f565b838801955050505b50505092915050565b600061397a82612c5a565b61398481856138cc565b9350613994818560208601612c76565b80840191505092915050565b60006139ac82856138ec565b91506139b8828461396f565b91508190509392505050565b7f5175616e746974792067726561746572207468616e2072656d61696e696e6700600082015250565b60006139fa601f83612c65565b9150613a05826139c4565b602082019050919050565b60006020820190508181036000830152613a29816139ed565b9050919050565b7f546f6b656e2072657761726420636c6f73650000000000000000000000000000600082015250565b6000613a66601283612c65565b9150613a7182613a30565b602082019050919050565b60006020820190508181036000830152613a9581613a59565b9050919050565b7f4e487b7100000000000000000000000000000000000000000000000000000000600052601160045260246000fd5b6000613ad682612ad2565b9150613ae183612ad2565b9250828201905080821115613af957613af8613a9c565b5b92915050565b7f4e6f7420656e6f75676820737570706c79000000000000000000000000000000600082015250565b6000613b35601183612c65565b9150613b4082613aff565b602082019050919050565b60006020820190508181036000830152613b6481613b28565b9050919050565b7f486f6c64696e6720726577617264206d696e7420636c6f736500000000000000600082015250565b6000613ba1601983612c65565b9150613bac82613b6b565b602082019050919050565b60006020820190508181036000830152613bd081613b94565b9050919050565b6000606082019050613bec6000830186612b48565b613bf96020830185612b48565b613c066040830184612b48565b949350505050565b7f455243313135353a2063616c6c6572206973206e6f7420746f6b656e206f776e60008201527f6572206f7220617070726f766564000000000000000000000000000000000000602082015250565b6000613c6a602e83612c65565b9150613c7582613c0e565b604082019050919050565b60006020820190508181036000830152613c9981613c5d565b9050919050565b60006020601f8301049050919050565b600082821b905092915050565b600060088302613ced7fffffffffffffffffffffffffffffffffffffffffffffffffffffffffffffffff82613cb0565b613cf78683613cb0565b95508019841693508086168417925050509392505050565b6000819050919050565b6000613d34613d2f613d2a84612ad2565b613d0f565b612ad2565b9050919050565b6000819050919050565b613d4e83613d19565b613d62613d5a82613d3b565b848454613cbd565b825550505050565b600090565b613d77613d6a565b613d82818484613d45565b505050565b5b81811015613da657613d9b600082613d6f565b600181019050613d88565b5050565b601f821115613deb57613dbc816138d7565b613dc584613ca0565b81016020851015613dd4578190505b613de8613de085613ca0565b830182613d87565b50505b505050565b600082821c905092915050565b6000613e0e60001984600802613df0565b1980831691505092915050565b6000613e278383613dfd565b9150826002028217905092915050565b613e4082612c5a565b67ffffffffffffffff811115613e5957613e58612dc7565b5b613e63825461389b565b613e6e828285613daa565b600060209050601f831160018114613ea15760008415613e8f578287015190505b613e998582613e1b565b865550613f01565b601f198416613eaf866138d7565b60005b82811015613ed757848901518255600182019150602085019450602081019050613eb2565b86831015613ef45784890151613ef0601f891682613dfd565b8355505b6001600288020188555050505b505050505050565b7f455243313135353a206163636f756e747320616e6420696473206c656e67746860008201527f206d69736d617463680000000000000000000000000000000000000000000000602082015250565b6000613f65602983612c65565b9150613f7082613f09565b604082019050919050565b60006020820190508181036000830152613f9481613f58565b9050919050565b7f4e487b7100000000000000000000000000000000000000000000000000000000600052603260045260246000fd5b6000613fd582612ad2565b91507fffffffffffffffffffffffffffffffffffffffffffffffffffffffffffffffff820361400757614006613a9c565b5b600182019050919050565b7f4e62206164647265737320616e64206e62207175616e746974696573206d757360008201527f7420626520657175616c00000000000000000000000000000000000000000000602082015250565b600061406e602a83612c65565b915061407982614012565b604082019050919050565b6000602082019050818103600083015261409d81614061565b9050919050565b7f43616e74206275726e20746f6b656e0000000000000000000000000000000000600082015250565b60006140da600f83612c65565b91506140e5826140a4565b602082019050919050565b60006020820190508181036000830152614109816140cd565b9050919050565b7f4e6f7420656e6f7567687420746f6b656e20746f206275726e00000000000000600082015250565b6000614146601983612c65565b915061415182614110565b602082019050919050565b6000602082019050818103600083015261417581614139565b9050919050565b600061418782612ad2565b915061419283612ad2565b92508282039050818111156141aa576141a9613a9c565b5b92915050565b7f4f776e61626c653a206e6577206f776e657220697320746865207a65726f206160008201527f6464726573730000000000000000000000000000000000000000000000000000602082015250565b600061420c602683612c65565b9150614217826141b0565b604082019050919050565b6000602082019050818103600083015261423b816141ff565b9050919050565b7f4e487b7100000000000000000000000000000000000000000000000000000000600052601260045260246000fd5b7f455243313135353a206d696e7420746f20746865207a65726f2061646472657360008201527f7300000000000000000000000000000000000000000000000000000000000000602082015250565b60006142cd602183612c65565b91506142d882614271565b604082019050919050565b600060208201905081810360008301526142fc816142c0565b9050919050565b7f455243313135353a2069647320616e6420616d6f756e7473206c656e6774682060008201527f6d69736d61746368000000000000000000000000000000000000000000000000602082015250565b600061435f602883612c65565b915061436a82614303565b604082019050919050565b6000602082019050818103600083015261438e81614352565b9050919050565b7f455243313135353a207472616e7366657220746f20746865207a65726f20616460008201527f6472657373000000000000000000000000000000000000000000000000000000602082015250565b60006143f1602583612c65565b91506143fc82614395565b604082019050919050565b60006020820190508181036000830152614420816143e4565b9050919050565b7f455243313135353a20696e73756666696369656e742062616c616e636520666f60008201527f72207472616e7366657200000000000000000000000000000000000000000000602082015250565b6000614483602a83612c65565b915061448e82614427565b604082019050919050565b600060208201905081810360008301526144b281614476565b9050919050565b600060408201905081810360008301526144d381856133e8565b905081810360208301526144e781846133e8565b90509392505050565b7f4f776e61626c653a2063616c6c6572206973206e6f7420746865206f776e6572600082015250565b6000614526602083612c65565b9150614531826144f0565b602082019050919050565b6000602082019050818103600083015261455581614519565b9050919050565b7f455243313135353a2073657474696e6720617070726f76616c2073746174757360008201527f20666f722073656c660000000000000000000000000000000000000000000000602082015250565b60006145b8602983612c65565b91506145c38261455c565b604082019050919050565b600060208201905081810360008301526145e7816145ab565b9050919050565b7f455243313135353a206275726e2066726f6d20746865207a65726f206164647260008201527f6573730000000000000000000000000000000000000000000000000000000000602082015250565b600061464a602383612c65565b9150614655826145ee565b604082019050919050565b600060208201905081810360008301526146798161463d565b9050919050565b7f455243313135353a206275726e20616d6f756e7420657863656564732062616c60008201527f616e636500000000000000000000000000000000000000000000000000000000602082015250565b60006146dc602483612c65565b91506146e782614680565b604082019050919050565b6000602082019050818103600083015261470b816146cf565b9050919050565b600081519050919050565b600082825260208201905092915050565b600061473982614712565b614743818561471d565b9350614753818560208601612c76565b61475c81612ca0565b840191505092915050565b600060a08201905061477c6000830188613491565b6147896020830187613491565b6147966040830186612b48565b6147a36060830185612b48565b81810360808301526147b5818461472e565b90509695505050505050565b6000815190506147d081612b9e565b92915050565b6000602082840312156147ec576147eb612a6a565b5b60006147fa848285016147c1565b91505092915050565b60008160e01c9050919050565b600060033d111561482f5760046000803e61482c600051614803565b90505b90565b600060443d106148bf57614844612a60565b60043d036004823e80513d602482011167ffffffffffffffff8211171561486c5750506148bf565b808201805167ffffffffffffffff81111561488a57505050506148bf565b80602083010160043d0385018111156148a75750505050506148bf565b6148b682602001850186612df6565b82955050505050505b90565b7f455243313135353a207472616e7366657220746f206e6f6e2d4552433131353560008201527f526563656976657220696d706c656d656e746572000000000000000000000000602082015250565b600061491e603483612c65565b9150614929826148c2565b604082019050919050565b6000602082019050818103600083015261494d81614911565b9050919050565b7f455243313135353a204552433131353552656365697665722072656a6563746560008201527f6420746f6b656e73000000000000000000000000000000000000000000000000602082015250565b60006149b0602883612c65565b91506149bb82614954565b604082019050919050565b600060208201905081810360008301526149df816149a3565b9050919050565b600060a0820190506149fb6000830188613491565b614a086020830187613491565b8181036040830152614a1a81866133e8565b90508181036060830152614a2e81856133e8565b90508181036080830152614a42818461472e565b9050969550505050505056fea2646970667358221220c55d63aefeee5309c5a01a5fd595bc25519ae2487aa51dbbbe76e855d4e68a6e64736f6c6343000813003368747470733a2f2f6d6574616c6567656e64732e6d7970696e6174612e636c6f75642f697066732f516d56616d53687976467a7076704a4274474d35775731794a5145367a5961674338337a5361516736774c7370552f",
  "immutableReferences": {},
  "source": "// SPDX-License-Identifier: MIT\npragma solidity 0.8.19;\n\nimport \"@openzeppelin/contracts/token/ERC1155/ERC1155.sol\";\nimport \"@openzeppelin/contracts/utils/Strings.sol\";\nimport \"@openzeppelin/contracts/access/Ownable.sol\";\nimport \"@openzeppelin/contracts/security/ReentrancyGuard.sol\";\n\n/// @title Meta-Life: Dark legends rewards\n/// @author Hando Masahashi\ncontract DarkLegendsRewards is ERC1155, Ownable, ReentrancyGuard {\n\n    using Strings for uint256;\n    string public baseURI = \"\";\n\n    address payable public collector;\n    uint256 public constant ID_DARK_ARMOR = 1;\n    struct TokenReward {\n        uint256 id;\n        string name;\n        uint256 totalSupply;\n        bool mintable;\n        bool burnable;\n        uint256 maxSupply;\n        uint256 expireAt;\n    }\n\n    struct Eligibility {\n        uint256 total;\n        uint256 claimed;\n    }\n\n    mapping(address => mapping(uint256 => Eligibility)) public holderEligibilities;\n    mapping(uint256 => TokenReward) public tokenCollection;\n\n    event AddedEligibility(uint256 countAddresses, uint256 total);\n    event Minted(address indexed from, uint256 timestamp, uint256 tokenId, uint256 quantity);\n    event Burned(address indexed from, uint256 timestamp, uint256 tokenId, uint256 quantity);\n\n    constructor() ERC1155(\"\") {\n        // Thursday 11 April 2024 21:59:59\n        addToken(\"dark-armor\", true, true, 300, ID_DARK_ARMOR, 1712872799);\n        baseURI = \"https://metalegends.mypinata.cloud/ipfs/QmVamShyvFzpvpJBtGM5wW1yJQE6zYagC83zSaQg6wLspU/\";\n    }\n\n    function withdrawAll() public payable onlyOwner {\n        collector.transfer(address(this).balance);\n    }\n\n    function setCollector(address payable _newCollector) public onlyOwner {\n        collector = _newCollector;\n    }\n\n    function toggleTokenMint(uint256 _tokenId) public onlyOwner {\n        tokenCollection[_tokenId].mintable = !tokenCollection[_tokenId].mintable;\n    }\n\n    function toggleTokenBurnable(uint256 _tokenId) public onlyOwner {\n        tokenCollection[_tokenId].burnable = !tokenCollection[_tokenId].burnable;\n    }\n\n    function getTokenRewardStatus(uint256 _tokenId) public view returns (bool) {\n        return tokenCollection[_tokenId].mintable;\n    }\n\n    function isBurnable(uint256 _tokenId) public view returns (bool) {\n        return tokenCollection[_tokenId].burnable;\n    }\n\n    function remaining(address wallet, uint256 _tokenId) public view virtual returns (uint256) {\n        return holderEligibilities[wallet][_tokenId].total - holderEligibilities[wallet][_tokenId].claimed;\n    }\n\n    function _setBaseURI(string memory _newBaseURI) public onlyOwner {\n        baseURI = _newBaseURI;\n    }\n\n    function _baseURI() internal view virtual returns (string memory) {\n        return baseURI;\n    }\n\n    function uri(uint256 _tokenId) public view virtual override returns (string memory) {\n        return bytes(baseURI).length > 0 ? string(abi.encodePacked(baseURI, _tokenId.toString())) : \"\";\n    }\n\n    function addToken(string memory _name, bool _mintable, bool _burnable, uint256 _maxSupply, uint256 _id, uint256 _expireAt) public onlyOwner {\n        tokenCollection[_id] = TokenReward({\n            id: _id,\n            name: _name,\n            totalSupply: 0,\n            mintable: _mintable,\n            burnable: _burnable,\n            maxSupply: _maxSupply,\n            expireAt: _expireAt\n        });\n    }\n\n    function addEligilities(address[] calldata _toAddAddresses, uint256[] calldata _quantities, uint256 _tokenId)  external onlyOwner {\n        require(_toAddAddresses.length == _quantities.length, \"Nb address and nb quantities must be equal\");\n\n        uint256 total = 0;\n        for (uint256 i = 0; i < _toAddAddresses.length; i++) {\n            holderEligibilities[_toAddAddresses[i]][_tokenId].total = _quantities[i];\n            total += _quantities[i];\n        }\n\n        emit AddedEligibility(_toAddAddresses.length, total);\n    }\n\n    function mint(uint256 _tokenId, uint256 _quantity) external {\n        require(remaining(msg.sender, _tokenId) >= _quantity, \"Quantity greater than remaining\");\n        require(tokenCollection[_tokenId].mintable, \"Token reward close\");\n        require(tokenCollection[_tokenId].totalSupply + _quantity <= tokenCollection[_tokenId].maxSupply, \"Not enough supply\");\n        require(block.timestamp < tokenCollection[_tokenId].expireAt, \"Holding reward mint close\");\n        holderEligibilities[msg.sender][_tokenId].claimed += _quantity;\n        tokenCollection[_tokenId].totalSupply += _quantity;\n        _mint(msg.sender, _tokenId, _quantity, \"\");\n\n        emit Minted(msg.sender, block.timestamp, _tokenId, _quantity);\n    }\n\n    function burn(uint256 _tokenId, uint256 _quantity) external {\n        require(tokenCollection[_tokenId].burnable, \"Cant burn token\");\n        require(balanceOf(msg.sender, _tokenId) >= _quantity, \"Not enought token to burn\");\n\n        _burn(msg.sender, _tokenId, _quantity);\n\n        emit Burned(msg.sender, block.timestamp, _tokenId, _quantity);\n    }\n}\n",
  "sourcePath": "/Users/rchea/workspaces/MetaLegends/contract-dark-legends/contracts/DarkLegendsRewards.sol",
  "compiler": {
    "name": "solc",
    "version": "0.8.19+commit.7dd6d404.Emscripten.clang"
  },
  "schemaVersion": "3.4.16",
  "updatedAt": "2024-03-09T21:45:28.811Z",
  "networkType": "ethereum",
  "devdoc": {
    "author": "Hando Masahashi",
    "events": {
      "ApprovalForAll(address,address,bool)": {
        "details": "Emitted when `account` grants or revokes permission to `operator` to transfer their tokens, according to `approved`."
      },
      "TransferBatch(address,address,address,uint256[],uint256[])": {
        "details": "Equivalent to multiple {TransferSingle} events, where `operator`, `from` and `to` are the same for all transfers."
      },
      "TransferSingle(address,address,address,uint256,uint256)": {
        "details": "Emitted when `value` tokens of token type `id` are transferred from `from` to `to` by `operator`."
      },
      "URI(string,uint256)": {
        "details": "Emitted when the URI for token type `id` changes to `value`, if it is a non-programmatic URI. If an {URI} event was emitted for `id`, the standard https://eips.ethereum.org/EIPS/eip-1155#metadata-extensions[guarantees] that `value` will equal the value returned by {IERC1155MetadataURI-uri}."
      }
    },
    "kind": "dev",
    "methods": {
      "balanceOf(address,uint256)": {
        "details": "See {IERC1155-balanceOf}. Requirements: - `account` cannot be the zero address."
      },
      "balanceOfBatch(address[],uint256[])": {
        "details": "See {IERC1155-balanceOfBatch}. Requirements: - `accounts` and `ids` must have the same length."
      },
      "isApprovedForAll(address,address)": {
        "details": "See {IERC1155-isApprovedForAll}."
      },
      "owner()": {
        "details": "Returns the address of the current owner."
      },
      "renounceOwnership()": {
        "details": "Leaves the contract without owner. It will not be possible to call `onlyOwner` functions. Can only be called by the current owner. NOTE: Renouncing ownership will leave the contract without an owner, thereby disabling any functionality that is only available to the owner."
      },
      "safeBatchTransferFrom(address,address,uint256[],uint256[],bytes)": {
        "details": "See {IERC1155-safeBatchTransferFrom}."
      },
      "safeTransferFrom(address,address,uint256,uint256,bytes)": {
        "details": "See {IERC1155-safeTransferFrom}."
      },
      "setApprovalForAll(address,bool)": {
        "details": "See {IERC1155-setApprovalForAll}."
      },
      "supportsInterface(bytes4)": {
        "details": "See {IERC165-supportsInterface}."
      },
      "transferOwnership(address)": {
        "details": "Transfers ownership of the contract to a new account (`newOwner`). Can only be called by the current owner."
      }
    },
    "title": "Meta-Life: Dark legends rewards",
    "version": 1
  },
  "userdoc": {
    "kind": "user",
    "methods": {},
    "version": 1
  }
}