{
  "contractName": "LegendsZoneRewards",
  "abi": [
    {
      "inputs": [],
      "stateMutability": "nonpayable",
      "type": "constructor"
    },
    {
      "anonymous": false,
      "inputs": [
        {
          "indexed": false,
          "internalType": "uint256",
          "name": "countAddresses",
          "type": "uint256"
        },
        {
          "indexed": false,
          "internalType": "uint256",
          "name": "total",
          "type": "uint256"
        }
      ],
      "name": "AddedEligibility",
      "type": "event"
    },
    {
      "anonymous": false,
      "inputs": [
        {
          "indexed": true,
          "internalType": "address",
          "name": "account",
          "type": "address"
        },
        {
          "indexed": true,
          "internalType": "address",
          "name": "operator",
          "type": "address"
        },
        {
          "indexed": false,
          "internalType": "bool",
          "name": "approved",
          "type": "bool"
        }
      ],
      "name": "ApprovalForAll",
      "type": "event"
    },
    {
      "anonymous": false,
      "inputs": [
        {
          "indexed": true,
          "internalType": "address",
          "name": "from",
          "type": "address"
        },
        {
          "indexed": false,
          "internalType": "uint256",
          "name": "timestamp",
          "type": "uint256"
        },
        {
          "indexed": false,
          "internalType": "uint256",
          "name": "tokenId",
          "type": "uint256"
        },
        {
          "indexed": false,
          "internalType": "uint256",
          "name": "quantity",
          "type": "uint256"
        }
      ],
      "name": "Burned",
      "type": "event"
    },
    {
      "anonymous": false,
      "inputs": [
        {
          "indexed": true,
          "internalType": "address",
          "name": "from",
          "type": "address"
        },
        {
          "indexed": false,
          "internalType": "uint256",
          "name": "timestamp",
          "type": "uint256"
        },
        {
          "indexed": false,
          "internalType": "uint256",
          "name": "tokenId",
          "type": "uint256"
        },
        {
          "indexed": false,
          "internalType": "uint256",
          "name": "quantity",
          "type": "uint256"
        }
      ],
      "name": "Minted",
      "type": "event"
    },
    {
      "anonymous": false,
      "inputs": [
        {
          "indexed": true,
          "internalType": "address",
          "name": "previousOwner",
          "type": "address"
        },
        {
          "indexed": true,
          "internalType": "address",
          "name": "newOwner",
          "type": "address"
        }
      ],
      "name": "OwnershipTransferred",
      "type": "event"
    },
    {
      "anonymous": false,
      "inputs": [
        {
          "indexed": true,
          "internalType": "address",
          "name": "operator",
          "type": "address"
        },
        {
          "indexed": true,
          "internalType": "address",
          "name": "from",
          "type": "address"
        },
        {
          "indexed": true,
          "internalType": "address",
          "name": "to",
          "type": "address"
        },
        {
          "indexed": false,
          "internalType": "uint256[]",
          "name": "ids",
          "type": "uint256[]"
        },
        {
          "indexed": false,
          "internalType": "uint256[]",
          "name": "values",
          "type": "uint256[]"
        }
      ],
      "name": "TransferBatch",
      "type": "event"
    },
    {
      "anonymous": false,
      "inputs": [
        {
          "indexed": true,
          "internalType": "address",
          "name": "operator",
          "type": "address"
        },
        {
          "indexed": true,
          "internalType": "address",
          "name": "from",
          "type": "address"
        },
        {
          "indexed": true,
          "internalType": "address",
          "name": "to",
          "type": "address"
        },
        {
          "indexed": false,
          "internalType": "uint256",
          "name": "id",
          "type": "uint256"
        },
        {
          "indexed": false,
          "internalType": "uint256",
          "name": "value",
          "type": "uint256"
        }
      ],
      "name": "TransferSingle",
      "type": "event"
    },
    {
      "anonymous": false,
      "inputs": [
        {
          "indexed": false,
          "internalType": "string",
          "name": "value",
          "type": "string"
        },
        {
          "indexed": true,
          "internalType": "uint256",
          "name": "id",
          "type": "uint256"
        }
      ],
      "name": "URI",
      "type": "event"
    },
    {
      "inputs": [
        {
          "internalType": "address",
          "name": "account",
          "type": "address"
        },
        {
          "internalType": "uint256",
          "name": "id",
          "type": "uint256"
        }
      ],
      "name": "balanceOf",
      "outputs": [
        {
          "internalType": "uint256",
          "name": "",
          "type": "uint256"
        }
      ],
      "stateMutability": "view",
      "type": "function"
    },
    {
      "inputs": [
        {
          "internalType": "address[]",
          "name": "accounts",
          "type": "address[]"
        },
        {
          "internalType": "uint256[]",
          "name": "ids",
          "type": "uint256[]"
        }
      ],
      "name": "balanceOfBatch",
      "outputs": [
        {
          "internalType": "uint256[]",
          "name": "",
          "type": "uint256[]"
        }
      ],
      "stateMutability": "view",
      "type": "function"
    },
    {
      "inputs": [],
      "name": "baseURI",
      "outputs": [
        {
          "internalType": "string",
          "name": "",
          "type": "string"
        }
      ],
      "stateMutability": "view",
      "type": "function"
    },
    {
      "inputs": [],
      "name": "collector",
      "outputs": [
        {
          "internalType": "address payable",
          "name": "",
          "type": "address"
        }
      ],
      "stateMutability": "view",
      "type": "function"
    },
    {
      "inputs": [
        {
          "internalType": "address",
          "name": "",
          "type": "address"
        },
        {
          "internalType": "uint256",
          "name": "",
          "type": "uint256"
        }
      ],
      "name": "holderEligibilities",
      "outputs": [
        {
          "internalType": "uint256",
          "name": "total",
          "type": "uint256"
        },
        {
          "internalType": "uint256",
          "name": "claimed",
          "type": "uint256"
        }
      ],
      "stateMutability": "view",
      "type": "function"
    },
    {
      "inputs": [
        {
          "internalType": "address",
          "name": "account",
          "type": "address"
        },
        {
          "internalType": "address",
          "name": "operator",
          "type": "address"
        }
      ],
      "name": "isApprovedForAll",
      "outputs": [
        {
          "internalType": "bool",
          "name": "",
          "type": "bool"
        }
      ],
      "stateMutability": "view",
      "type": "function"
    },
    {
      "inputs": [],
      "name": "owner",
      "outputs": [
        {
          "internalType": "address",
          "name": "",
          "type": "address"
        }
      ],
      "stateMutability": "view",
      "type": "function"
    },
    {
      "inputs": [],
      "name": "renounceOwnership",
      "outputs": [],
      "stateMutability": "nonpayable",
      "type": "function"
    },
    {
      "inputs": [
        {
          "internalType": "address",
          "name": "from",
          "type": "address"
        },
        {
          "internalType": "address",
          "name": "to",
          "type": "address"
        },
        {
          "internalType": "uint256[]",
          "name": "ids",
          "type": "uint256[]"
        },
        {
          "internalType": "uint256[]",
          "name": "amounts",
          "type": "uint256[]"
        },
        {
          "internalType": "bytes",
          "name": "data",
          "type": "bytes"
        }
      ],
      "name": "safeBatchTransferFrom",
      "outputs": [],
      "stateMutability": "nonpayable",
      "type": "function"
    },
    {
      "inputs": [
        {
          "internalType": "address",
          "name": "from",
          "type": "address"
        },
        {
          "internalType": "address",
          "name": "to",
          "type": "address"
        },
        {
          "internalType": "uint256",
          "name": "id",
          "type": "uint256"
        },
        {
          "internalType": "uint256",
          "name": "amount",
          "type": "uint256"
        },
        {
          "internalType": "bytes",
          "name": "data",
          "type": "bytes"
        }
      ],
      "name": "safeTransferFrom",
      "outputs": [],
      "stateMutability": "nonpayable",
      "type": "function"
    },
    {
      "inputs": [
        {
          "internalType": "address",
          "name": "operator",
          "type": "address"
        },
        {
          "internalType": "bool",
          "name": "approved",
          "type": "bool"
        }
      ],
      "name": "setApprovalForAll",
      "outputs": [],
      "stateMutability": "nonpayable",
      "type": "function"
    },
    {
      "inputs": [
        {
          "internalType": "bytes4",
          "name": "interfaceId",
          "type": "bytes4"
        }
      ],
      "name": "supportsInterface",
      "outputs": [
        {
          "internalType": "bool",
          "name": "",
          "type": "bool"
        }
      ],
      "stateMutability": "view",
      "type": "function"
    },
    {
      "inputs": [
        {
          "internalType": "uint256",
          "name": "",
          "type": "uint256"
        }
      ],
      "name": "tokenCollection",
      "outputs": [
        {
          "internalType": "uint256",
          "name": "id",
          "type": "uint256"
        },
        {
          "internalType": "string",
          "name": "name",
          "type": "string"
        },
        {
          "internalType": "uint256",
          "name": "totalSupply",
          "type": "uint256"
        },
        {
          "internalType": "bool",
          "name": "mintable",
          "type": "bool"
        },
        {
          "internalType": "bool",
          "name": "burnable",
          "type": "bool"
        },
        {
          "internalType": "uint256",
          "name": "maxSupply",
          "type": "uint256"
        },
        {
          "internalType": "uint256",
          "name": "expireAt",
          "type": "uint256"
        }
      ],
      "stateMutability": "view",
      "type": "function"
    },
    {
      "inputs": [
        {
          "internalType": "address",
          "name": "newOwner",
          "type": "address"
        }
      ],
      "name": "transferOwnership",
      "outputs": [],
      "stateMutability": "nonpayable",
      "type": "function"
    },
    {
      "inputs": [],
      "name": "withdrawAll",
      "outputs": [],
      "stateMutability": "payable",
      "type": "function"
    },
    {
      "inputs": [
        {
          "internalType": "address payable",
          "name": "_newCollector",
          "type": "address"
        }
      ],
      "name": "setCollector",
      "outputs": [],
      "stateMutability": "nonpayable",
      "type": "function"
    },
    {
      "inputs": [
        {
          "internalType": "uint256",
          "name": "_tokenId",
          "type": "uint256"
        }
      ],
      "name": "toggleTokenMint",
      "outputs": [],
      "stateMutability": "nonpayable",
      "type": "function"
    },
    {
      "inputs": [
        {
          "internalType": "uint256",
          "name": "_tokenId",
          "type": "uint256"
        }
      ],
      "name": "toggleTokenBurnable",
      "outputs": [],
      "stateMutability": "nonpayable",
      "type": "function"
    },
    {
      "inputs": [
        {
          "internalType": "uint256",
          "name": "_tokenId",
          "type": "uint256"
        }
      ],
      "name": "getTokenRewardStatus",
      "outputs": [
        {
          "internalType": "bool",
          "name": "",
          "type": "bool"
        }
      ],
      "stateMutability": "view",
      "type": "function"
    },
    {
      "inputs": [
        {
          "internalType": "uint256",
          "name": "_tokenId",
          "type": "uint256"
        }
      ],
      "name": "isBurnable",
      "outputs": [
        {
          "internalType": "bool",
          "name": "",
          "type": "bool"
        }
      ],
      "stateMutability": "view",
      "type": "function"
    },
    {
      "inputs": [
        {
          "internalType": "address",
          "name": "wallet",
          "type": "address"
        },
        {
          "internalType": "uint256",
          "name": "_tokenId",
          "type": "uint256"
        }
      ],
      "name": "remaining",
      "outputs": [
        {
          "internalType": "uint256",
          "name": "",
          "type": "uint256"
        }
      ],
      "stateMutability": "view",
      "type": "function"
    },
    {
      "inputs": [
        {
          "internalType": "string",
          "name": "_newBaseURI",
          "type": "string"
        }
      ],
      "name": "_setBaseURI",
      "outputs": [],
      "stateMutability": "nonpayable",
      "type": "function"
    },
    {
      "inputs": [
        {
          "internalType": "uint256",
          "name": "_tokenId",
          "type": "uint256"
        }
      ],
      "name": "uri",
      "outputs": [
        {
          "internalType": "string",
          "name": "",
          "type": "string"
        }
      ],
      "stateMutability": "view",
      "type": "function"
    },
    {
      "inputs": [
        {
          "internalType": "string",
          "name": "_name",
          "type": "string"
        },
        {
          "internalType": "bool",
          "name": "_mintable",
          "type": "bool"
        },
        {
          "internalType": "bool",
          "name": "_burnable",
          "type": "bool"
        },
        {
          "internalType": "uint256",
          "name": "_maxSupply",
          "type": "uint256"
        },
        {
          "internalType": "uint256",
          "name": "_id",
          "type": "uint256"
        },
        {
          "internalType": "uint256",
          "name": "_expireAt",
          "type": "uint256"
        }
      ],
      "name": "addToken",
      "outputs": [],
      "stateMutability": "nonpayable",
      "type": "function"
    },
    {
      "inputs": [
        {
          "internalType": "address[]",
          "name": "_toAddAddresses",
          "type": "address[]"
        },
        {
          "internalType": "uint256[]",
          "name": "_quantities",
          "type": "uint256[]"
        },
        {
          "internalType": "uint256",
          "name": "_tokenId",
          "type": "uint256"
        }
      ],
      "name": "addEligilities",
      "outputs": [],
      "stateMutability": "nonpayable",
      "type": "function"
    },
    {
      "inputs": [
        {
          "internalType": "uint256",
          "name": "_tokenId",
          "type": "uint256"
        },
        {
          "internalType": "uint256",
          "name": "_quantity",
          "type": "uint256"
        }
      ],
      "name": "mint",
      "outputs": [],
      "stateMutability": "nonpayable",
      "type": "function"
    },
    {
      "inputs": [
        {
          "internalType": "uint256",
          "name": "_tokenId",
          "type": "uint256"
        },
        {
          "internalType": "uint256",
          "name": "_quantity",
          "type": "uint256"
        }
      ],
      "name": "burn",
      "outputs": [],
      "stateMutability": "nonpayable",
      "type": "function"
    }
  ],
  "bytecode": "0x608060405260405180602001604052805f8152506005908162000023919062000403565b5034801562000030575f80fd5b5060405180602001604052805f8152506200005181620000c060201b60201c565b506200007262000066620000d560201b60201c565b620000dc60201b60201c565b60016004819055503360065f6101000a81548173ffffffffffffffffffffffffffffffffffffffff021916908373ffffffffffffffffffffffffffffffffffffffff160217905550620004e7565b8060029081620000d1919062000403565b5050565b5f33905090565b5f60035f9054906101000a900473ffffffffffffffffffffffffffffffffffffffff1690508160035f6101000a81548173ffffffffffffffffffffffffffffffffffffffff021916908373ffffffffffffffffffffffffffffffffffffffff1602179055508173ffffffffffffffffffffffffffffffffffffffff168173ffffffffffffffffffffffffffffffffffffffff167f8be0079c531659141344cd1fd0a4f28419497f9722a3daafe3b4186f6b6457e060405160405180910390a35050565b5f81519050919050565b7f4e487b71000000000000000000000000000000000000000000000000000000005f52604160045260245ffd5b7f4e487b71000000000000000000000000000000000000000000000000000000005f52602260045260245ffd5b5f60028204905060018216806200021b57607f821691505b602082108103620002315762000230620001d6565b5b50919050565b5f819050815f5260205f209050919050565b5f6020601f8301049050919050565b5f82821b905092915050565b5f60088302620002957fffffffffffffffffffffffffffffffffffffffffffffffffffffffffffffffff8262000258565b620002a1868362000258565b95508019841693508086168417925050509392505050565b5f819050919050565b5f819050919050565b5f620002eb620002e5620002df84620002b9565b620002c2565b620002b9565b9050919050565b5f819050919050565b6200030683620002cb565b6200031e6200031582620002f2565b84845462000264565b825550505050565b5f90565b6200033462000326565b62000341818484620002fb565b505050565b5b8181101562000368576200035c5f826200032a565b60018101905062000347565b5050565b601f821115620003b757620003818162000237565b6200038c8462000249565b810160208510156200039c578190505b620003b4620003ab8562000249565b83018262000346565b50505b505050565b5f82821c905092915050565b5f620003d95f1984600802620003bc565b1980831691505092915050565b5f620003f38383620003c8565b9150826002028217905092915050565b6200040e826200019f565b67ffffffffffffffff8111156200042a5762000429620001a9565b5b62000436825462000203565b620004438282856200036c565b5f60209050601f83116001811462000479575f841562000464578287015190505b620004708582620003e6565b865550620004df565b601f198416620004898662000237565b5f5b82811015620004b2578489015182556001820191506020850194506020810190506200048b565b86831015620004d25784890151620004ce601f891682620003c8565b8355505b6001600288020188555050505b505050505050565b61481280620004f55f395ff3fe60806040526004361061019a575f3560e01c80638da5cb5b116100eb578063d912a02311610089578063e985e9c511610063578063e985e9c5146105c7578063f242432a14610603578063f2fde38b1461062b578063fb5b82d0146106535761019a565b8063d912a02314610527578063e1a977ec1461054f578063e7d0094d1461058b5761019a565b8063a5ea8738116100c5578063a5ea873814610473578063b390c0ab1461049b578063bb12d5d8146104c3578063c6f88d4a146104eb5761019a565b80638da5cb5b146103f7578063913e77ad14610421578063a22cb4651461044b5761019a565b806331b5b907116101585780636c0360eb116101325780636c0360eb14610370578063715018a61461039a5780637672e1b6146103b0578063853828b6146103ed5761019a565b806331b5b907146102e45780634636b9511461030c5780634e1273f4146103345761019a565b8062fdd58e1461019e57806301ffc9a7146101da5780630e89341c146102165780631b2ef1ca146102525780632dd883e81461027a5780632eb2c2d6146102bc575b5f80fd5b3480156101a9575f80fd5b506101c460048036038101906101bf91906129c8565b61067b565b6040516101d19190612a15565b60405180910390f35b3480156101e5575f80fd5b5061020060048036038101906101fb9190612a83565b61073e565b60405161020d9190612ac8565b60405180910390f35b348015610221575f80fd5b5061023c60048036038101906102379190612ae1565b61081f565b6040516102499190612b96565b60405180910390f35b34801561025d575f80fd5b5061027860048036038101906102739190612bb6565b61087d565b005b348015610285575f80fd5b506102a0600480360381019061029b9190612ae1565b610af4565b6040516102b39796959493929190612bf4565b60405180910390f35b3480156102c7575f80fd5b506102e260048036038101906102dd9190612e58565b610bd1565b005b3480156102ef575f80fd5b5061030a60048036038101906103059190612fc1565b610c72565b005b348015610317575f80fd5b50610332600480360381019061032d9190613032565b610c8d565b005b34801561033f575f80fd5b5061035a60048036038101906103559190613197565b610d63565b60405161036791906132c4565b60405180910390f35b34801561037b575f80fd5b50610384610e74565b6040516103919190612b96565b60405180910390f35b3480156103a5575f80fd5b506103ae610f00565b005b3480156103bb575f80fd5b506103d660048036038101906103d191906129c8565b610f13565b6040516103e49291906132e4565b60405180910390f35b6103f5610f3e565b005b348015610402575f80fd5b5061040b610fad565b604051610418919061331a565b60405180910390f35b34801561042c575f80fd5b50610435610fd5565b6040516104429190613353565b60405180910390f35b348015610456575f80fd5b50610471600480360381019061046c919061336c565b610ffa565b005b34801561047e575f80fd5b5061049960048036038101906104949190613458565b611010565b005b3480156104a6575f80fd5b506104c160048036038101906104bc9190612bb6565b61117a565b005b3480156104ce575f80fd5b506104e960048036038101906104e49190612ae1565b611288565b005b3480156104f6575f80fd5b50610511600480360381019061050c9190612ae1565b6112df565b60405161051e9190612ac8565b60405180910390f35b348015610532575f80fd5b5061054d60048036038101906105489190612ae1565b611309565b005b34801561055a575f80fd5b50610575600480360381019061057091906129c8565b611362565b6040516105829190612a15565b60405180910390f35b348015610596575f80fd5b506105b160048036038101906105ac9190612ae1565b611414565b6040516105be9190612ac8565b60405180910390f35b3480156105d2575f80fd5b506105ed60048036038101906105e891906134e9565b61143d565b6040516105fa9190612ac8565b60405180910390f35b34801561060e575f80fd5b5061062960048036038101906106249190613527565b6114cb565b005b348015610636575f80fd5b50610651600480360381019061064c91906135ba565b61156c565b005b34801561065e575f80fd5b506106796004803603810190610674919061360f565b6115ee565b005b5f8073ffffffffffffffffffffffffffffffffffffffff168373ffffffffffffffffffffffffffffffffffffffff16036106ea576040517f08c379a00000000000000000000000000000000000000000000000000000000081526004016106e1906136aa565b60405180910390fd5b5f808381526020019081526020015f205f8473ffffffffffffffffffffffffffffffffffffffff1673ffffffffffffffffffffffffffffffffffffffff1681526020019081526020015f2054905092915050565b5f7fd9b67a26000000000000000000000000000000000000000000000000000000007bffffffffffffffffffffffffffffffffffffffffffffffffffffffff1916827bffffffffffffffffffffffffffffffffffffffffffffffffffffffff1916148061080857507f0e89341c000000000000000000000000000000000000000000000000000000007bffffffffffffffffffffffffffffffffffffffffffffffffffffffff1916827bffffffffffffffffffffffffffffffffffffffffffffffffffffffff1916145b80610818575061081782611639565b5b9050919050565b60605f6005805461082f906136f5565b90501161084a5760405180602001604052805f815250610876565b6005610855836116a2565b6040516020016108669291906137f1565b6040516020818303038152906040525b9050919050565b806108883384611362565b10156108c9576040517f08c379a00000000000000000000000000000000000000000000000000000000081526004016108c09061385e565b60405180910390fd5b60085f8381526020019081526020015f206003015f9054906101000a900460ff16610929576040517f08c379a0000000000000000000000000000000000000000000000000000000008152600401610920906138c6565b60405180910390fd5b60085f8381526020019081526020015f20600401548160085f8581526020019081526020015f206002015461095e9190613911565b111561099f576040517f08c379a00000000000000000000000000000000000000000000000000000000081526004016109969061398e565b60405180910390fd5b60085f8381526020019081526020015f206005015442106109f5576040517f08c379a00000000000000000000000000000000000000000000000000000000081526004016109ec906139f6565b60405180910390fd5b8060075f3373ffffffffffffffffffffffffffffffffffffffff1673ffffffffffffffffffffffffffffffffffffffff1681526020019081526020015f205f8481526020019081526020015f206001015f828254610a539190613911565b925050819055508060085f8481526020019081526020015f206002015f828254610a7d9190613911565b92505081905550610a9e33838360405180602001604052805f81525061176c565b3373ffffffffffffffffffffffffffffffffffffffff167f5a3358a3d27a5373c0df2604662088d37894d56b7cfd27f315770440f4e0d919428484604051610ae893929190613a14565b60405180910390a25050565b6008602052805f5260405f205f91509050805f015490806001018054610b19906136f5565b80601f0160208091040260200160405190810160405280929190818152602001828054610b45906136f5565b8015610b905780601f10610b6757610100808354040283529160200191610b90565b820191905f5260205f20905b815481529060010190602001808311610b7357829003601f168201915b505050505090806002015490806003015f9054906101000a900460ff16908060030160019054906101000a900460ff16908060040154908060050154905087565b610bd961190f565b73ffffffffffffffffffffffffffffffffffffffff168573ffffffffffffffffffffffffffffffffffffffff161480610c1f5750610c1e85610c1961190f565b61143d565b5b610c5e576040517f08c379a0000000000000000000000000000000000000000000000000000000008152600401610c5590613ab9565b60405180910390fd5b610c6b8585858585611916565b5050505050565b610c7a611c1e565b8060059081610c899190613c62565b5050565b610c95611c1e565b6040518060e001604052808381526020018781526020015f8152602001861515815260200185151581526020018481526020018281525060085f8481526020019081526020015f205f820151815f01556020820151816001019081610cfa9190613c62565b50604082015181600201556060820151816003015f6101000a81548160ff02191690831515021790555060808201518160030160016101000a81548160ff02191690831515021790555060a0820151816004015560c08201518160050155905050505050505050565b60608151835114610da9576040517f08c379a0000000000000000000000000000000000000000000000000000000008152600401610da090613da1565b60405180910390fd5b5f835167ffffffffffffffff811115610dc557610dc4612c6c565b5b604051908082528060200260200182016040528015610df35781602001602082028036833780820191505090505b5090505f5b8451811015610e6957610e3f858281518110610e1757610e16613dbf565b5b6020026020010151858381518110610e3257610e31613dbf565b5b602002602001015161067b565b828281518110610e5257610e51613dbf565b5b602002602001018181525050806001019050610df8565b508091505092915050565b60058054610e81906136f5565b80601f0160208091040260200160405190810160405280929190818152602001828054610ead906136f5565b8015610ef85780601f10610ecf57610100808354040283529160200191610ef8565b820191905f5260205f20905b815481529060010190602001808311610edb57829003601f168201915b505050505081565b610f08611c1e565b610f115f611c9c565b565b6007602052815f5260405f20602052805f5260405f205f9150915050805f0154908060010154905082565b610f46611c1e565b60065f9054906101000a900473ffffffffffffffffffffffffffffffffffffffff1673ffffffffffffffffffffffffffffffffffffffff166108fc4790811502906040515f60405180830381858888f19350505050158015610faa573d5f803e3d5ffd5b50565b5f60035f9054906101000a900473ffffffffffffffffffffffffffffffffffffffff16905090565b60065f9054906101000a900473ffffffffffffffffffffffffffffffffffffffff1681565b61100c61100561190f565b8383611d5f565b5050565b611018611c1e565b828290508585905014611060576040517f08c379a000000000000000000000000000000000000000000000000000000000815260040161105790613e5c565b60405180910390fd5b5f805b868690508110156111355784848281811061108157611080613dbf565b5b9050602002013560075f89898581811061109e5761109d613dbf565b5b90506020020160208101906110b391906135ba565b73ffffffffffffffffffffffffffffffffffffffff1673ffffffffffffffffffffffffffffffffffffffff1681526020019081526020015f205f8581526020019081526020015f205f018190555084848281811061111457611113613dbf565b5b90506020020135826111269190613911565b91508080600101915050611063565b507fa82370edbf4f9f8ecf9132eb357d9a171e6cf346954298950049096aa5ac6470868690508260405161116a9291906132e4565b60405180910390a1505050505050565b60085f8381526020019081526020015f2060030160019054906101000a900460ff166111db576040517f08c379a00000000000000000000000000000000000000000000000000000000081526004016111d290613ec4565b60405180910390fd5b806111e6338461067b565b1015611227576040517f08c379a000000000000000000000000000000000000000000000000000000000815260040161121e90613f2c565b60405180910390fd5b611232338383611ec6565b3373ffffffffffffffffffffffffffffffffffffffff167f4c60206a5c1de41f3376d1d60f0949d96cb682033c90b1c2d9d9a62d4c4120c042848460405161127c93929190613a14565b60405180910390a25050565b611290611c1e565b60085f8281526020019081526020015f206003015f9054906101000a900460ff161560085f8381526020019081526020015f206003015f6101000a81548160ff02191690831515021790555050565b5f60085f8381526020019081526020015f2060030160019054906101000a900460ff169050919050565b611311611c1e565b60085f8281526020019081526020015f2060030160019054906101000a900460ff161560085f8381526020019081526020015f2060030160016101000a81548160ff02191690831515021790555050565b5f60075f8473ffffffffffffffffffffffffffffffffffffffff1673ffffffffffffffffffffffffffffffffffffffff1681526020019081526020015f205f8381526020019081526020015f206001015460075f8573ffffffffffffffffffffffffffffffffffffffff1673ffffffffffffffffffffffffffffffffffffffff1681526020019081526020015f205f8481526020019081526020015f205f015461140c9190613f4a565b905092915050565b5f60085f8381526020019081526020015f206003015f9054906101000a900460ff169050919050565b5f60015f8473ffffffffffffffffffffffffffffffffffffffff1673ffffffffffffffffffffffffffffffffffffffff1681526020019081526020015f205f8373ffffffffffffffffffffffffffffffffffffffff1673ffffffffffffffffffffffffffffffffffffffff1681526020019081526020015f205f9054906101000a900460ff16905092915050565b6114d361190f565b73ffffffffffffffffffffffffffffffffffffffff168573ffffffffffffffffffffffffffffffffffffffff16148061151957506115188561151361190f565b61143d565b5b611558576040517f08c379a000000000000000000000000000000000000000000000000000000000815260040161154f90613ab9565b60405180910390fd5b61156585858585856120fa565b5050505050565b611574611c1e565b5f73ffffffffffffffffffffffffffffffffffffffff168173ffffffffffffffffffffffffffffffffffffffff16036115e2576040517f08c379a00000000000000000000000000000000000000000000000000000000081526004016115d990613fed565b60405180910390fd5b6115eb81611c9c565b50565b6115f6611c1e565b8060065f6101000a81548173ffffffffffffffffffffffffffffffffffffffff021916908373ffffffffffffffffffffffffffffffffffffffff16021790555050565b5f7f01ffc9a7000000000000000000000000000000000000000000000000000000007bffffffffffffffffffffffffffffffffffffffffffffffffffffffff1916827bffffffffffffffffffffffffffffffffffffffffffffffffffffffff1916149050919050565b60605f60016116b084612383565b0190505f8167ffffffffffffffff8111156116ce576116cd612c6c565b5b6040519080825280601f01601f1916602001820160405280156117005781602001600182028036833780820191505090505b5090505f82602001820190505b600115611761578080600190039150507f3031323334353637383961626364656600000000000000000000000000000000600a86061a8153600a85816117565761175561400b565b5b0494505f850361170d575b819350505050919050565b5f73ffffffffffffffffffffffffffffffffffffffff168473ffffffffffffffffffffffffffffffffffffffff16036117da576040517f08c379a00000000000000000000000000000000000000000000000000000000081526004016117d1906140a8565b60405180910390fd5b5f6117e361190f565b90505f6117ef856124d4565b90505f6117fb856124d4565b905061180b835f8985858961254c565b845f808881526020019081526020015f205f8973ffffffffffffffffffffffffffffffffffffffff1673ffffffffffffffffffffffffffffffffffffffff1681526020019081526020015f205f8282546118659190613911565b925050819055508673ffffffffffffffffffffffffffffffffffffffff165f73ffffffffffffffffffffffffffffffffffffffff168473ffffffffffffffffffffffffffffffffffffffff167fc3d58168c5ae7397731d063d5bbf3d657854427343f4c083240f7aacaa2d0f6289896040516118e29291906132e4565b60405180910390a46118f8835f89858589612554565b611906835f8989898961255c565b50505050505050565b5f33905090565b815183511461195a576040517f08c379a000000000000000000000000000000000000000000000000000000000815260040161195190614136565b60405180910390fd5b5f73ffffffffffffffffffffffffffffffffffffffff168473ffffffffffffffffffffffffffffffffffffffff16036119c8576040517f08c379a00000000000000000000000000000000000000000000000000000000081526004016119bf906141c4565b60405180910390fd5b5f6119d161190f565b90506119e181878787878761254c565b5f5b8451811015611b7b575f858281518110611a00576119ff613dbf565b5b602002602001015190505f858381518110611a1e57611a1d613dbf565b5b602002602001015190505f805f8481526020019081526020015f205f8b73ffffffffffffffffffffffffffffffffffffffff1673ffffffffffffffffffffffffffffffffffffffff1681526020019081526020015f2054905081811015611aba576040517f08c379a0000000000000000000000000000000000000000000000000000000008152600401611ab190614252565b60405180910390fd5b8181035f808581526020019081526020015f205f8c73ffffffffffffffffffffffffffffffffffffffff1673ffffffffffffffffffffffffffffffffffffffff1681526020019081526020015f2081905550815f808581526020019081526020015f205f8b73ffffffffffffffffffffffffffffffffffffffff1673ffffffffffffffffffffffffffffffffffffffff1681526020019081526020015f205f828254611b669190613911565b925050819055505050508060010190506119e3565b508473ffffffffffffffffffffffffffffffffffffffff168673ffffffffffffffffffffffffffffffffffffffff168273ffffffffffffffffffffffffffffffffffffffff167f4a39dc06d4c0dbc64b70af90fd698a233a518aa5d07e595d983b8c0526c8f7fb8787604051611bf2929190614270565b60405180910390a4611c08818787878787612554565b611c16818787878787612732565b505050505050565b611c2661190f565b73ffffffffffffffffffffffffffffffffffffffff16611c44610fad565b73ffffffffffffffffffffffffffffffffffffffff1614611c9a576040517f08c379a0000000000000000000000000000000000000000000000000000000008152600401611c91906142ef565b60405180910390fd5b565b5f60035f9054906101000a900473ffffffffffffffffffffffffffffffffffffffff1690508160035f6101000a81548173ffffffffffffffffffffffffffffffffffffffff021916908373ffffffffffffffffffffffffffffffffffffffff1602179055508173ffffffffffffffffffffffffffffffffffffffff168173ffffffffffffffffffffffffffffffffffffffff167f8be0079c531659141344cd1fd0a4f28419497f9722a3daafe3b4186f6b6457e060405160405180910390a35050565b8173ffffffffffffffffffffffffffffffffffffffff168373ffffffffffffffffffffffffffffffffffffffff1603611dcd576040517f08c379a0000000000000000000000000000000000000000000000000000000008152600401611dc49061437d565b60405180910390fd5b8060015f8573ffffffffffffffffffffffffffffffffffffffff1673ffffffffffffffffffffffffffffffffffffffff1681526020019081526020015f205f8473ffffffffffffffffffffffffffffffffffffffff1673ffffffffffffffffffffffffffffffffffffffff1681526020019081526020015f205f6101000a81548160ff0219169083151502179055508173ffffffffffffffffffffffffffffffffffffffff168373ffffffffffffffffffffffffffffffffffffffff167f17307eab39ab6107e8899845ad3d59bd9653f200f220920489ca2b5937696c3183604051611eb99190612ac8565b60405180910390a3505050565b5f73ffffffffffffffffffffffffffffffffffffffff168373ffffffffffffffffffffffffffffffffffffffff1603611f34576040517f08c379a0000000000000000000000000000000000000000000000000000000008152600401611f2b9061440b565b60405180910390fd5b5f611f3d61190f565b90505f611f49846124d4565b90505f611f55846124d4565b9050611f7383875f858560405180602001604052805f81525061254c565b5f805f8781526020019081526020015f205f8873ffffffffffffffffffffffffffffffffffffffff1673ffffffffffffffffffffffffffffffffffffffff1681526020019081526020015f2054905084811015612005576040517f08c379a0000000000000000000000000000000000000000000000000000000008152600401611ffc90614499565b60405180910390fd5b8481035f808881526020019081526020015f205f8973ffffffffffffffffffffffffffffffffffffffff1673ffffffffffffffffffffffffffffffffffffffff1681526020019081526020015f20819055505f73ffffffffffffffffffffffffffffffffffffffff168773ffffffffffffffffffffffffffffffffffffffff168573ffffffffffffffffffffffffffffffffffffffff167fc3d58168c5ae7397731d063d5bbf3d657854427343f4c083240f7aacaa2d0f6289896040516120cd9291906132e4565b60405180910390a46120f184885f868660405180602001604052805f815250612554565b50505050505050565b5f73ffffffffffffffffffffffffffffffffffffffff168473ffffffffffffffffffffffffffffffffffffffff1603612168576040517f08c379a000000000000000000000000000000000000000000000000000000000815260040161215f906141c4565b60405180910390fd5b5f61217161190f565b90505f61217d856124d4565b90505f612189856124d4565b905061219983898985858961254c565b5f805f8881526020019081526020015f205f8a73ffffffffffffffffffffffffffffffffffffffff1673ffffffffffffffffffffffffffffffffffffffff1681526020019081526020015f205490508581101561222b576040517f08c379a000000000000000000000000000000000000000000000000000000000815260040161222290614252565b60405180910390fd5b8581035f808981526020019081526020015f205f8b73ffffffffffffffffffffffffffffffffffffffff1673ffffffffffffffffffffffffffffffffffffffff1681526020019081526020015f2081905550855f808981526020019081526020015f205f8a73ffffffffffffffffffffffffffffffffffffffff1673ffffffffffffffffffffffffffffffffffffffff1681526020019081526020015f205f8282546122d79190613911565b925050819055508773ffffffffffffffffffffffffffffffffffffffff168973ffffffffffffffffffffffffffffffffffffffff168573ffffffffffffffffffffffffffffffffffffffff167fc3d58168c5ae7397731d063d5bbf3d657854427343f4c083240f7aacaa2d0f628a8a6040516123549291906132e4565b60405180910390a461236a848a8a86868a612554565b612378848a8a8a8a8a61255c565b505050505050505050565b5f805f90507a184f03e93ff9f4daa797ed6e38ed64bf6a1f01000000000000000083106123df577a184f03e93ff9f4daa797ed6e38ed64bf6a1f01000000000000000083816123d5576123d461400b565b5b0492506040810190505b6d04ee2d6d415b85acef8100000000831061241c576d04ee2d6d415b85acef810000000083816124125761241161400b565b5b0492506020810190505b662386f26fc10000831061244b57662386f26fc1000083816124415761244061400b565b5b0492506010810190505b6305f5e1008310612474576305f5e100838161246a5761246961400b565b5b0492506008810190505b612710831061249957612710838161248f5761248e61400b565b5b0492506004810190505b606483106124bc57606483816124b2576124b161400b565b5b0492506002810190505b600a83106124cb576001810190505b80915050919050565b60605f600167ffffffffffffffff8111156124f2576124f1612c6c565b5b6040519080825280602002602001820160405280156125205781602001602082028036833780820191505090505b50905082815f8151811061253757612536613dbf565b5b60200260200101818152505080915050919050565b505050505050565b505050505050565b61257b8473ffffffffffffffffffffffffffffffffffffffff16612908565b1561272a578373ffffffffffffffffffffffffffffffffffffffff1663f23a6e6187878686866040518663ffffffff1660e01b81526004016125c1959493929190614509565b6020604051808303815f875af19250505080156125fc57506040513d601f19601f820116820180604052508101906125f99190614575565b60015b6126a1576126086145ac565b806308c379a003612664575061261c6145cb565b806126275750612666565b806040517f08c379a000000000000000000000000000000000000000000000000000000000815260040161265b9190612b96565b60405180910390fd5b505b6040517f08c379a0000000000000000000000000000000000000000000000000000000008152600401612698906146ca565b60405180910390fd5b63f23a6e6160e01b7bffffffffffffffffffffffffffffffffffffffffffffffffffffffff1916817bffffffffffffffffffffffffffffffffffffffffffffffffffffffff191614612728576040517f08c379a000000000000000000000000000000000000000000000000000000000815260040161271f90614758565b60405180910390fd5b505b505050505050565b6127518473ffffffffffffffffffffffffffffffffffffffff16612908565b15612900578373ffffffffffffffffffffffffffffffffffffffff1663bc197c8187878686866040518663ffffffff1660e01b8152600401612797959493929190614776565b6020604051808303815f875af19250505080156127d257506040513d601f19601f820116820180604052508101906127cf9190614575565b60015b612877576127de6145ac565b806308c379a00361283a57506127f26145cb565b806127fd575061283c565b806040517f08c379a00000000000000000000000000000000000000000000000000000000081526004016128319190612b96565b60405180910390fd5b505b6040517f08c379a000000000000000000000000000000000000000000000000000000000815260040161286e906146ca565b60405180910390fd5b63bc197c8160e01b7bffffffffffffffffffffffffffffffffffffffffffffffffffffffff1916817bffffffffffffffffffffffffffffffffffffffffffffffffffffffff1916146128fe576040517f08c379a00000000000000000000000000000000000000000000000000000000081526004016128f590614758565b60405180910390fd5b505b505050505050565b5f808273ffffffffffffffffffffffffffffffffffffffff163b119050919050565b5f604051905090565b5f80fd5b5f80fd5b5f73ffffffffffffffffffffffffffffffffffffffff82169050919050565b5f6129648261293b565b9050919050565b6129748161295a565b811461297e575f80fd5b50565b5f8135905061298f8161296b565b92915050565b5f819050919050565b6129a781612995565b81146129b1575f80fd5b50565b5f813590506129c28161299e565b92915050565b5f80604083850312156129de576129dd612933565b5b5f6129eb85828601612981565b92505060206129fc858286016129b4565b9150509250929050565b612a0f81612995565b82525050565b5f602082019050612a285f830184612a06565b92915050565b5f7fffffffff0000000000000000000000000000000000000000000000000000000082169050919050565b612a6281612a2e565b8114612a6c575f80fd5b50565b5f81359050612a7d81612a59565b92915050565b5f60208284031215612a9857612a97612933565b5b5f612aa584828501612a6f565b91505092915050565b5f8115159050919050565b612ac281612aae565b82525050565b5f602082019050612adb5f830184612ab9565b92915050565b5f60208284031215612af657612af5612933565b5b5f612b03848285016129b4565b91505092915050565b5f81519050919050565b5f82825260208201905092915050565b5f5b83811015612b43578082015181840152602081019050612b28565b5f8484015250505050565b5f601f19601f8301169050919050565b5f612b6882612b0c565b612b728185612b16565b9350612b82818560208601612b26565b612b8b81612b4e565b840191505092915050565b5f6020820190508181035f830152612bae8184612b5e565b905092915050565b5f8060408385031215612bcc57612bcb612933565b5b5f612bd9858286016129b4565b9250506020612bea858286016129b4565b9150509250929050565b5f60e082019050612c075f83018a612a06565b8181036020830152612c198189612b5e565b9050612c286040830188612a06565b612c356060830187612ab9565b612c426080830186612ab9565b612c4f60a0830185612a06565b612c5c60c0830184612a06565b98975050505050505050565b5f80fd5b7f4e487b71000000000000000000000000000000000000000000000000000000005f52604160045260245ffd5b612ca282612b4e565b810181811067ffffffffffffffff82111715612cc157612cc0612c6c565b5b80604052505050565b5f612cd361292a565b9050612cdf8282612c99565b919050565b5f67ffffffffffffffff821115612cfe57612cfd612c6c565b5b602082029050602081019050919050565b5f80fd5b5f612d25612d2084612ce4565b612cca565b90508083825260208201905060208402830185811115612d4857612d47612d0f565b5b835b81811015612d715780612d5d88826129b4565b845260208401935050602081019050612d4a565b5050509392505050565b5f82601f830112612d8f57612d8e612c68565b5b8135612d9f848260208601612d13565b91505092915050565b5f80fd5b5f67ffffffffffffffff821115612dc657612dc5612c6c565b5b612dcf82612b4e565b9050602081019050919050565b828183375f83830152505050565b5f612dfc612df784612dac565b612cca565b905082815260208101848484011115612e1857612e17612da8565b5b612e23848285612ddc565b509392505050565b5f82601f830112612e3f57612e3e612c68565b5b8135612e4f848260208601612dea565b91505092915050565b5f805f805f60a08688031215612e7157612e70612933565b5b5f612e7e88828901612981565b9550506020612e8f88828901612981565b945050604086013567ffffffffffffffff811115612eb057612eaf612937565b5b612ebc88828901612d7b565b935050606086013567ffffffffffffffff811115612edd57612edc612937565b5b612ee988828901612d7b565b925050608086013567ffffffffffffffff811115612f0a57612f09612937565b5b612f1688828901612e2b565b9150509295509295909350565b5f67ffffffffffffffff821115612f3d57612f3c612c6c565b5b612f4682612b4e565b9050602081019050919050565b5f612f65612f6084612f23565b612cca565b905082815260208101848484011115612f8157612f80612da8565b5b612f8c848285612ddc565b509392505050565b5f82601f830112612fa857612fa7612c68565b5b8135612fb8848260208601612f53565b91505092915050565b5f60208284031215612fd657612fd5612933565b5b5f82013567ffffffffffffffff811115612ff357612ff2612937565b5b612fff84828501612f94565b91505092915050565b61301181612aae565b811461301b575f80fd5b50565b5f8135905061302c81613008565b92915050565b5f805f805f8060c0878903121561304c5761304b612933565b5b5f87013567ffffffffffffffff81111561306957613068612937565b5b61307589828a01612f94565b965050602061308689828a0161301e565b955050604061309789828a0161301e565b94505060606130a889828a016129b4565b93505060806130b989828a016129b4565b92505060a06130ca89828a016129b4565b9150509295509295509295565b5f67ffffffffffffffff8211156130f1576130f0612c6c565b5b602082029050602081019050919050565b5f61311461310f846130d7565b612cca565b9050808382526020820190506020840283018581111561313757613136612d0f565b5b835b81811015613160578061314c8882612981565b845260208401935050602081019050613139565b5050509392505050565b5f82601f83011261317e5761317d612c68565b5b813561318e848260208601613102565b91505092915050565b5f80604083850312156131ad576131ac612933565b5b5f83013567ffffffffffffffff8111156131ca576131c9612937565b5b6131d68582860161316a565b925050602083013567ffffffffffffffff8111156131f7576131f6612937565b5b61320385828601612d7b565b9150509250929050565b5f81519050919050565b5f82825260208201905092915050565b5f819050602082019050919050565b61323f81612995565b82525050565b5f6132508383613236565b60208301905092915050565b5f602082019050919050565b5f6132728261320d565b61327c8185613217565b935061328783613227565b805f5b838110156132b757815161329e8882613245565b97506132a98361325c565b92505060018101905061328a565b5085935050505092915050565b5f6020820190508181035f8301526132dc8184613268565b905092915050565b5f6040820190506132f75f830185612a06565b6133046020830184612a06565b9392505050565b6133148161295a565b82525050565b5f60208201905061332d5f83018461330b565b92915050565b5f61333d8261293b565b9050919050565b61334d81613333565b82525050565b5f6020820190506133665f830184613344565b92915050565b5f806040838503121561338257613381612933565b5b5f61338f85828601612981565b92505060206133a08582860161301e565b9150509250929050565b5f80fd5b5f8083601f8401126133c3576133c2612c68565b5b8235905067ffffffffffffffff8111156133e0576133df6133aa565b5b6020830191508360208202830111156133fc576133fb612d0f565b5b9250929050565b5f8083601f84011261341857613417612c68565b5b8235905067ffffffffffffffff811115613435576134346133aa565b5b60208301915083602082028301111561345157613450612d0f565b5b9250929050565b5f805f805f6060868803121561347157613470612933565b5b5f86013567ffffffffffffffff81111561348e5761348d612937565b5b61349a888289016133ae565b9550955050602086013567ffffffffffffffff8111156134bd576134bc612937565b5b6134c988828901613403565b935093505060406134dc888289016129b4565b9150509295509295909350565b5f80604083850312156134ff576134fe612933565b5b5f61350c85828601612981565b925050602061351d85828601612981565b9150509250929050565b5f805f805f60a086880312156135405761353f612933565b5b5f61354d88828901612981565b955050602061355e88828901612981565b945050604061356f888289016129b4565b9350506060613580888289016129b4565b925050608086013567ffffffffffffffff8111156135a1576135a0612937565b5b6135ad88828901612e2b565b9150509295509295909350565b5f602082840312156135cf576135ce612933565b5b5f6135dc84828501612981565b91505092915050565b6135ee81613333565b81146135f8575f80fd5b50565b5f81359050613609816135e5565b92915050565b5f6020828403121561362457613623612933565b5b5f613631848285016135fb565b91505092915050565b7f455243313135353a2061646472657373207a65726f206973206e6f74206120765f8201527f616c6964206f776e657200000000000000000000000000000000000000000000602082015250565b5f613694602a83612b16565b915061369f8261363a565b604082019050919050565b5f6020820190508181035f8301526136c181613688565b9050919050565b7f4e487b71000000000000000000000000000000000000000000000000000000005f52602260045260245ffd5b5f600282049050600182168061370c57607f821691505b60208210810361371f5761371e6136c8565b5b50919050565b5f81905092915050565b5f819050815f5260205f209050919050565b5f815461374d816136f5565b6137578186613725565b9450600182165f81146137715760018114613786576137b8565b60ff19831686528115158202860193506137b8565b61378f8561372f565b5f5b838110156137b057815481890152600182019150602081019050613791565b838801955050505b50505092915050565b5f6137cb82612b0c565b6137d58185613725565b93506137e5818560208601612b26565b80840191505092915050565b5f6137fc8285613741565b915061380882846137c1565b91508190509392505050565b7f5175616e746974792067726561746572207468616e2072656d61696e696e67005f82015250565b5f613848601f83612b16565b915061385382613814565b602082019050919050565b5f6020820190508181035f8301526138758161383c565b9050919050565b7f546f6b656e2072657761726420636c6f736500000000000000000000000000005f82015250565b5f6138b0601283612b16565b91506138bb8261387c565b602082019050919050565b5f6020820190508181035f8301526138dd816138a4565b9050919050565b7f4e487b71000000000000000000000000000000000000000000000000000000005f52601160045260245ffd5b5f61391b82612995565b915061392683612995565b925082820190508082111561393e5761393d6138e4565b5b92915050565b7f4e6f7420656e6f75676820737570706c790000000000000000000000000000005f82015250565b5f613978601183612b16565b915061398382613944565b602082019050919050565b5f6020820190508181035f8301526139a58161396c565b9050919050565b7f486f6c64696e6720726577617264206d696e7420636c6f7365000000000000005f82015250565b5f6139e0601983612b16565b91506139eb826139ac565b602082019050919050565b5f6020820190508181035f830152613a0d816139d4565b9050919050565b5f606082019050613a275f830186612a06565b613a346020830185612a06565b613a416040830184612a06565b949350505050565b7f455243313135353a2063616c6c6572206973206e6f7420746f6b656e206f776e5f8201527f6572206f7220617070726f766564000000000000000000000000000000000000602082015250565b5f613aa3602e83612b16565b9150613aae82613a49565b604082019050919050565b5f6020820190508181035f830152613ad081613a97565b9050919050565b5f6020601f8301049050919050565b5f82821b905092915050565b5f60088302613b217fffffffffffffffffffffffffffffffffffffffffffffffffffffffffffffffff82613ae6565b613b2b8683613ae6565b95508019841693508086168417925050509392505050565b5f819050919050565b5f613b66613b61613b5c84612995565b613b43565b612995565b9050919050565b5f819050919050565b613b7f83613b4c565b613b93613b8b82613b6d565b848454613af2565b825550505050565b5f90565b613ba7613b9b565b613bb2818484613b76565b505050565b5b81811015613bd557613bca5f82613b9f565b600181019050613bb8565b5050565b601f821115613c1a57613beb8161372f565b613bf484613ad7565b81016020851015613c03578190505b613c17613c0f85613ad7565b830182613bb7565b50505b505050565b5f82821c905092915050565b5f613c3a5f1984600802613c1f565b1980831691505092915050565b5f613c528383613c2b565b9150826002028217905092915050565b613c6b82612b0c565b67ffffffffffffffff811115613c8457613c83612c6c565b5b613c8e82546136f5565b613c99828285613bd9565b5f60209050601f831160018114613cca575f8415613cb8578287015190505b613cc28582613c47565b865550613d29565b601f198416613cd88661372f565b5f5b82811015613cff57848901518255600182019150602085019450602081019050613cda565b86831015613d1c5784890151613d18601f891682613c2b565b8355505b6001600288020188555050505b505050505050565b7f455243313135353a206163636f756e747320616e6420696473206c656e6774685f8201527f206d69736d617463680000000000000000000000000000000000000000000000602082015250565b5f613d8b602983612b16565b9150613d9682613d31565b604082019050919050565b5f6020820190508181035f830152613db881613d7f565b9050919050565b7f4e487b71000000000000000000000000000000000000000000000000000000005f52603260045260245ffd5b7f4e62206164647265737320616e64206e62207175616e746974696573206d75735f8201527f7420626520657175616c00000000000000000000000000000000000000000000602082015250565b5f613e46602a83612b16565b9150613e5182613dec565b604082019050919050565b5f6020820190508181035f830152613e7381613e3a565b9050919050565b7f43616e74206275726e20746f6b656e00000000000000000000000000000000005f82015250565b5f613eae600f83612b16565b9150613eb982613e7a565b602082019050919050565b5f6020820190508181035f830152613edb81613ea2565b9050919050565b7f4e6f7420656e6f7567687420746f6b656e20746f206275726e000000000000005f82015250565b5f613f16601983612b16565b9150613f2182613ee2565b602082019050919050565b5f6020820190508181035f830152613f4381613f0a565b9050919050565b5f613f5482612995565b9150613f5f83612995565b9250828203905081811115613f7757613f766138e4565b5b92915050565b7f4f776e61626c653a206e6577206f776e657220697320746865207a65726f20615f8201527f6464726573730000000000000000000000000000000000000000000000000000602082015250565b5f613fd7602683612b16565b9150613fe282613f7d565b604082019050919050565b5f6020820190508181035f83015261400481613fcb565b9050919050565b7f4e487b71000000000000000000000000000000000000000000000000000000005f52601260045260245ffd5b7f455243313135353a206d696e7420746f20746865207a65726f206164647265735f8201527f7300000000000000000000000000000000000000000000000000000000000000602082015250565b5f614092602183612b16565b915061409d82614038565b604082019050919050565b5f6020820190508181035f8301526140bf81614086565b9050919050565b7f455243313135353a2069647320616e6420616d6f756e7473206c656e677468205f8201527f6d69736d61746368000000000000000000000000000000000000000000000000602082015250565b5f614120602883612b16565b915061412b826140c6565b604082019050919050565b5f6020820190508181035f83015261414d81614114565b9050919050565b7f455243313135353a207472616e7366657220746f20746865207a65726f2061645f8201527f6472657373000000000000000000000000000000000000000000000000000000602082015250565b5f6141ae602583612b16565b91506141b982614154565b604082019050919050565b5f6020820190508181035f8301526141db816141a2565b9050919050565b7f455243313135353a20696e73756666696369656e742062616c616e636520666f5f8201527f72207472616e7366657200000000000000000000000000000000000000000000602082015250565b5f61423c602a83612b16565b9150614247826141e2565b604082019050919050565b5f6020820190508181035f83015261426981614230565b9050919050565b5f6040820190508181035f8301526142888185613268565b9050818103602083015261429c8184613268565b90509392505050565b7f4f776e61626c653a2063616c6c6572206973206e6f7420746865206f776e65725f82015250565b5f6142d9602083612b16565b91506142e4826142a5565b602082019050919050565b5f6020820190508181035f830152614306816142cd565b9050919050565b7f455243313135353a2073657474696e6720617070726f76616c207374617475735f8201527f20666f722073656c660000000000000000000000000000000000000000000000602082015250565b5f614367602983612b16565b91506143728261430d565b604082019050919050565b5f6020820190508181035f8301526143948161435b565b9050919050565b7f455243313135353a206275726e2066726f6d20746865207a65726f20616464725f8201527f6573730000000000000000000000000000000000000000000000000000000000602082015250565b5f6143f5602383612b16565b91506144008261439b565b604082019050919050565b5f6020820190508181035f830152614422816143e9565b9050919050565b7f455243313135353a206275726e20616d6f756e7420657863656564732062616c5f8201527f616e636500000000000000000000000000000000000000000000000000000000602082015250565b5f614483602483612b16565b915061448e82614429565b604082019050919050565b5f6020820190508181035f8301526144b081614477565b9050919050565b5f81519050919050565b5f82825260208201905092915050565b5f6144db826144b7565b6144e581856144c1565b93506144f5818560208601612b26565b6144fe81612b4e565b840191505092915050565b5f60a08201905061451c5f83018861330b565b614529602083018761330b565b6145366040830186612a06565b6145436060830185612a06565b818103608083015261455581846144d1565b90509695505050505050565b5f8151905061456f81612a59565b92915050565b5f6020828403121561458a57614589612933565b5b5f61459784828501614561565b91505092915050565b5f8160e01c9050919050565b5f60033d11156145c85760045f803e6145c55f516145a0565b90505b90565b5f60443d10614657576145dc61292a565b60043d036004823e80513d602482011167ffffffffffffffff82111715614604575050614657565b808201805167ffffffffffffffff8111156146225750505050614657565b80602083010160043d03850181111561463f575050505050614657565b61464e82602001850186612c99565b82955050505050505b90565b7f455243313135353a207472616e7366657220746f206e6f6e2d455243313135355f8201527f526563656976657220696d706c656d656e746572000000000000000000000000602082015250565b5f6146b4603483612b16565b91506146bf8261465a565b604082019050919050565b5f6020820190508181035f8301526146e1816146a8565b9050919050565b7f455243313135353a204552433131353552656365697665722072656a656374655f8201527f6420746f6b656e73000000000000000000000000000000000000000000000000602082015250565b5f614742602883612b16565b915061474d826146e8565b604082019050919050565b5f6020820190508181035f83015261476f81614736565b9050919050565b5f60a0820190506147895f83018861330b565b614796602083018761330b565b81810360408301526147a88186613268565b905081810360608301526147bc8185613268565b905081810360808301526147d081846144d1565b9050969550505050505056fea26469706673582212203dcfc2b38566dd85a13a663ffdfce1c089d70bbdaa1684fd2d8785c70a692c0b64736f6c63430008170033",
  "immutableReferences": {},
  "source": "// SPDX-License-Identifier: MIT\npragma solidity 0.8.23;\n\nimport \"@openzeppelin/contracts/token/ERC1155/ERC1155.sol\";\nimport \"@openzeppelin/contracts/utils/Strings.sol\";\nimport \"@openzeppelin/contracts/access/Ownable.sol\";\nimport \"@openzeppelin/contracts/security/ReentrancyGuard.sol\";\n\n/// @title Meta-Life: Holding reward\n/// @author Hando Masahashi\n/// @notice This smart contract is used for reward holders\ncontract LegendsZoneRewards is ERC1155, Ownable, ReentrancyGuard {\n\n    using Strings for uint256;\n    string public baseURI = \"\";\n\n    address payable public collector;\n\n    struct TokenReward {\n        uint256 id;\n        string name;\n        uint256 totalSupply;\n        bool mintable;\n        bool burnable;\n        uint256 maxSupply;\n        uint256 expireAt;\n    }\n\n    struct Eligibility {\n        uint256 total;\n        uint256 claimed;\n    }\n\n    mapping(address => mapping(uint256 => Eligibility)) public holderEligibilities;\n    mapping(uint256 => TokenReward) public tokenCollection;\n\n    event AddedEligibility(uint256 countAddresses, uint256 total);\n    event Minted(address indexed from, uint256 timestamp, uint256 tokenId, uint256 quantity);\n    event Burned(address indexed from, uint256 timestamp, uint256 tokenId, uint256 quantity);\n\n    constructor() ERC1155(\"\") {\n        collector = payable(msg.sender);\n    }\n\n    function withdrawAll() public payable onlyOwner {\n        collector.transfer(address(this).balance);\n    }\n\n    function setCollector(address payable _newCollector) public onlyOwner {\n        collector = _newCollector;\n    }\n\n    function toggleTokenMint(uint256 _tokenId) public onlyOwner {\n        tokenCollection[_tokenId].mintable = !tokenCollection[_tokenId].mintable;\n    }\n\n    function toggleTokenBurnable(uint256 _tokenId) public onlyOwner {\n        tokenCollection[_tokenId].burnable = !tokenCollection[_tokenId].burnable;\n    }\n\n    function getTokenRewardStatus(uint256 _tokenId) public view returns (bool) {\n        return tokenCollection[_tokenId].mintable;\n    }\n\n    function isBurnable(uint256 _tokenId) public view returns (bool) {\n        return tokenCollection[_tokenId].burnable;\n    }\n\n    function remaining(address wallet, uint256 _tokenId) public view virtual returns (uint256) {\n        return holderEligibilities[wallet][_tokenId].total - holderEligibilities[wallet][_tokenId].claimed;\n    }\n\n    function _setBaseURI(string memory _newBaseURI) public onlyOwner {\n        baseURI = _newBaseURI;\n    }\n\n    function _baseURI() internal view virtual returns (string memory) {\n        return baseURI;\n    }\n\n    function uri(uint256 _tokenId) public view virtual override returns (string memory) {\n        return bytes(baseURI).length > 0 ? string(abi.encodePacked(baseURI, _tokenId.toString())) : \"\";\n    }\n\n    function addToken(string memory _name, bool _mintable, bool _burnable, uint256 _maxSupply, uint256 _id, uint256 _expireAt) public onlyOwner {\n        tokenCollection[_id] = TokenReward({\n            id: _id,\n            name: _name,\n            totalSupply: 0,\n            mintable: _mintable,\n            burnable: _burnable,\n            maxSupply: _maxSupply,\n            expireAt: _expireAt\n        });\n    }\n\n    function addEligilities(address[] calldata _toAddAddresses, uint256[] calldata _quantities, uint256 _tokenId)  external onlyOwner {\n        require(_toAddAddresses.length == _quantities.length, \"Nb address and nb quantities must be equal\");\n\n        uint256 total = 0;\n        for (uint256 i = 0; i < _toAddAddresses.length; i++) {\n            holderEligibilities[_toAddAddresses[i]][_tokenId].total = _quantities[i];\n            total += _quantities[i];\n        }\n\n        emit AddedEligibility(_toAddAddresses.length, total);\n    }\n\n    function mint(uint256 _tokenId, uint256 _quantity) external {\n        require(remaining(msg.sender, _tokenId) >= _quantity, \"Quantity greater than remaining\");\n        require(tokenCollection[_tokenId].mintable, \"Token reward close\");\n        require(tokenCollection[_tokenId].totalSupply + _quantity <= tokenCollection[_tokenId].maxSupply, \"Not enough supply\");\n        require(block.timestamp < tokenCollection[_tokenId].expireAt, \"Holding reward mint close\");\n        holderEligibilities[msg.sender][_tokenId].claimed += _quantity;\n        tokenCollection[_tokenId].totalSupply += _quantity;\n        _mint(msg.sender, _tokenId, _quantity, \"\");\n\n        emit Minted(msg.sender, block.timestamp, _tokenId, _quantity);\n    }\n\n    function burn(uint256 _tokenId, uint256 _quantity) external {\n        require(tokenCollection[_tokenId].burnable, \"Cant burn token\");\n        require(balanceOf(msg.sender, _tokenId) >= _quantity, \"Not enought token to burn\");\n\n        _burn(msg.sender, _tokenId, _quantity);\n\n        emit Burned(msg.sender, block.timestamp, _tokenId, _quantity);\n    }\n}\n",
  "sourcePath": "/Users/rchea/workspaces/MetaLegends/contract-dark-legends/contracts/DarkLegendsRewards.sol",
  "compiler": {
    "name": "solc",
    "version": "0.8.23+commit.f704f362.Emscripten.clang"
  },
  "schemaVersion": "3.4.16",
  "updatedAt": "2024-02-19T10:41:47.695Z",
  "devdoc": {
    "author": "Hando Masahashi",
    "events": {
      "ApprovalForAll(address,address,bool)": {
        "details": "Emitted when `account` grants or revokes permission to `operator` to transfer their tokens, according to `approved`."
      },
      "TransferBatch(address,address,address,uint256[],uint256[])": {
        "details": "Equivalent to multiple {TransferSingle} events, where `operator`, `from` and `to` are the same for all transfers."
      },
      "TransferSingle(address,address,address,uint256,uint256)": {
        "details": "Emitted when `value` tokens of token type `id` are transferred from `from` to `to` by `operator`."
      },
      "URI(string,uint256)": {
        "details": "Emitted when the URI for token type `id` changes to `value`, if it is a non-programmatic URI. If an {URI} event was emitted for `id`, the standard https://eips.ethereum.org/EIPS/eip-1155#metadata-extensions[guarantees] that `value` will equal the value returned by {IERC1155MetadataURI-uri}."
      }
    },
    "kind": "dev",
    "methods": {
      "balanceOf(address,uint256)": {
        "details": "See {IERC1155-balanceOf}. Requirements: - `account` cannot be the zero address."
      },
      "balanceOfBatch(address[],uint256[])": {
        "details": "See {IERC1155-balanceOfBatch}. Requirements: - `accounts` and `ids` must have the same length."
      },
      "isApprovedForAll(address,address)": {
        "details": "See {IERC1155-isApprovedForAll}."
      },
      "owner()": {
        "details": "Returns the address of the current owner."
      },
      "renounceOwnership()": {
        "details": "Leaves the contract without owner. It will not be possible to call `onlyOwner` functions. Can only be called by the current owner. NOTE: Renouncing ownership will leave the contract without an owner, thereby disabling any functionality that is only available to the owner."
      },
      "safeBatchTransferFrom(address,address,uint256[],uint256[],bytes)": {
        "details": "See {IERC1155-safeBatchTransferFrom}."
      },
      "safeTransferFrom(address,address,uint256,uint256,bytes)": {
        "details": "See {IERC1155-safeTransferFrom}."
      },
      "setApprovalForAll(address,bool)": {
        "details": "See {IERC1155-setApprovalForAll}."
      },
      "supportsInterface(bytes4)": {
        "details": "See {IERC165-supportsInterface}."
      },
      "transferOwnership(address)": {
        "details": "Transfers ownership of the contract to a new account (`newOwner`). Can only be called by the current owner."
      }
    },
    "title": "Meta-Life: Holding reward",
    "version": 1
  },
  "userdoc": {
    "kind": "user",
    "methods": {},
    "notice": "This smart contract is used for reward holders",
    "version": 1
  }
}