{
  "contractName": "MetaLifeOgPets",
  "abi": [
    {
      "inputs": [],
      "stateMutability": "nonpayable",
      "type": "constructor"
    },
    {
      "inputs": [],
      "name": "AccountBalanceOverflow",
      "type": "error"
    },
    {
      "inputs": [],
      "name": "BalanceQueryForZeroAddress",
      "type": "error"
    },
    {
      "inputs": [],
      "name": "ContractsCannotMint",
      "type": "error"
    },
    {
      "inputs": [],
      "name": "MustMintAtLeastOneToken",
      "type": "error"
    },
    {
      "inputs": [],
      "name": "NotEnoughAvailableTokens",
      "type": "error"
    },
    {
      "inputs": [],
      "name": "NotOwnerNorApproved",
      "type": "error"
    },
    {
      "inputs": [],
      "name": "TokenAlreadyExists",
      "type": "error"
    },
    {
      "inputs": [],
      "name": "TokenDoesNotExist",
      "type": "error"
    },
    {
      "inputs": [],
      "name": "TransferFromIncorrectOwner",
      "type": "error"
    },
    {
      "inputs": [],
      "name": "TransferToNonERC721ReceiverImplementer",
      "type": "error"
    },
    {
      "inputs": [],
      "name": "TransferToZeroAddress",
      "type": "error"
    },
    {
      "anonymous": false,
      "inputs": [
        {
          "indexed": true,
          "internalType": "address",
          "name": "owner",
          "type": "address"
        },
        {
          "indexed": true,
          "internalType": "address",
          "name": "account",
          "type": "address"
        },
        {
          "indexed": true,
          "internalType": "uint256",
          "name": "id",
          "type": "uint256"
        }
      ],
      "name": "Approval",
      "type": "event"
    },
    {
      "anonymous": false,
      "inputs": [
        {
          "indexed": true,
          "internalType": "address",
          "name": "owner",
          "type": "address"
        },
        {
          "indexed": true,
          "internalType": "address",
          "name": "operator",
          "type": "address"
        },
        {
          "indexed": false,
          "internalType": "bool",
          "name": "isApproved",
          "type": "bool"
        }
      ],
      "name": "ApprovalForAll",
      "type": "event"
    },
    {
      "anonymous": false,
      "inputs": [
        {
          "indexed": true,
          "internalType": "address",
          "name": "from",
          "type": "address"
        },
        {
          "indexed": false,
          "internalType": "uint256",
          "name": "timestamp",
          "type": "uint256"
        },
        {
          "indexed": false,
          "internalType": "uint256[]",
          "name": "tokenIds",
          "type": "uint256[]"
        }
      ],
      "name": "MintedCouncil",
      "type": "event"
    },
    {
      "anonymous": false,
      "inputs": [
        {
          "indexed": true,
          "internalType": "address",
          "name": "from",
          "type": "address"
        },
        {
          "indexed": false,
          "internalType": "uint256",
          "name": "timestamp",
          "type": "uint256"
        },
        {
          "indexed": false,
          "internalType": "uint256",
          "name": "tokenId",
          "type": "uint256"
        }
      ],
      "name": "MintedGiveway",
      "type": "event"
    },
    {
      "anonymous": false,
      "inputs": [
        {
          "indexed": true,
          "internalType": "address",
          "name": "from",
          "type": "address"
        },
        {
          "indexed": false,
          "internalType": "uint256",
          "name": "timestamp",
          "type": "uint256"
        },
        {
          "indexed": false,
          "internalType": "uint256",
          "name": "tokenId",
          "type": "uint256"
        }
      ],
      "name": "MintedGuardian",
      "type": "event"
    },
    {
      "anonymous": false,
      "inputs": [
        {
          "indexed": true,
          "internalType": "address",
          "name": "from",
          "type": "address"
        },
        {
          "indexed": false,
          "internalType": "uint256",
          "name": "timestamp",
          "type": "uint256"
        },
        {
          "indexed": false,
          "internalType": "uint256",
          "name": "tokenId",
          "type": "uint256"
        }
      ],
      "name": "MintedHonorary",
      "type": "event"
    },
    {
      "anonymous": false,
      "inputs": [
        {
          "indexed": true,
          "internalType": "address",
          "name": "from",
          "type": "address"
        },
        {
          "indexed": false,
          "internalType": "uint256",
          "name": "timestamp",
          "type": "uint256"
        },
        {
          "indexed": false,
          "internalType": "uint256",
          "name": "tokenId",
          "type": "uint256"
        }
      ],
      "name": "MintedJudge",
      "type": "event"
    },
    {
      "anonymous": false,
      "inputs": [
        {
          "indexed": true,
          "internalType": "address",
          "name": "from",
          "type": "address"
        },
        {
          "indexed": false,
          "internalType": "uint256",
          "name": "timestamp",
          "type": "uint256"
        }
      ],
      "name": "MintedRandom",
      "type": "event"
    },
    {
      "anonymous": false,
      "inputs": [
        {
          "indexed": true,
          "internalType": "address",
          "name": "from",
          "type": "address"
        },
        {
          "indexed": false,
          "internalType": "uint256",
          "name": "timestamp",
          "type": "uint256"
        },
        {
          "indexed": false,
          "internalType": "uint256",
          "name": "tokenId",
          "type": "uint256"
        }
      ],
      "name": "MintedWhale",
      "type": "event"
    },
    {
      "anonymous": false,
      "inputs": [
        {
          "indexed": true,
          "internalType": "address",
          "name": "previousOwner",
          "type": "address"
        },
        {
          "indexed": true,
          "internalType": "address",
          "name": "newOwner",
          "type": "address"
        }
      ],
      "name": "OwnershipTransferred",
      "type": "event"
    },
    {
      "anonymous": false,
      "inputs": [
        {
          "indexed": true,
          "internalType": "address",
          "name": "from",
          "type": "address"
        },
        {
          "indexed": true,
          "internalType": "address",
          "name": "to",
          "type": "address"
        },
        {
          "indexed": true,
          "internalType": "uint256",
          "name": "id",
          "type": "uint256"
        }
      ],
      "name": "Transfer",
      "type": "event"
    },
    {
      "inputs": [
        {
          "internalType": "address",
          "name": "account",
          "type": "address"
        },
        {
          "internalType": "uint256",
          "name": "id",
          "type": "uint256"
        }
      ],
      "name": "approve",
      "outputs": [],
      "stateMutability": "payable",
      "type": "function",
      "payable": true
    },
    {
      "inputs": [
        {
          "internalType": "address",
          "name": "owner",
          "type": "address"
        }
      ],
      "name": "balanceOf",
      "outputs": [
        {
          "internalType": "uint256",
          "name": "result",
          "type": "uint256"
        }
      ],
      "stateMutability": "view",
      "type": "function",
      "constant": true
    },
    {
      "inputs": [],
      "name": "baseURI",
      "outputs": [
        {
          "internalType": "string",
          "name": "",
          "type": "string"
        }
      ],
      "stateMutability": "view",
      "type": "function",
      "constant": true
    },
    {
      "inputs": [
        {
          "internalType": "uint256",
          "name": "id",
          "type": "uint256"
        }
      ],
      "name": "getApproved",
      "outputs": [
        {
          "internalType": "address",
          "name": "result",
          "type": "address"
        }
      ],
      "stateMutability": "view",
      "type": "function",
      "constant": true
    },
    {
      "inputs": [
        {
          "internalType": "address",
          "name": "owner",
          "type": "address"
        },
        {
          "internalType": "address",
          "name": "operator",
          "type": "address"
        }
      ],
      "name": "isApprovedForAll",
      "outputs": [
        {
          "internalType": "bool",
          "name": "result",
          "type": "bool"
        }
      ],
      "stateMutability": "view",
      "type": "function",
      "constant": true
    },
    {
      "inputs": [],
      "name": "maxSupply",
      "outputs": [
        {
          "internalType": "uint256",
          "name": "",
          "type": "uint256"
        }
      ],
      "stateMutability": "view",
      "type": "function",
      "constant": true
    },
    {
      "inputs": [],
      "name": "name",
      "outputs": [
        {
          "internalType": "string",
          "name": "",
          "type": "string"
        }
      ],
      "stateMutability": "view",
      "type": "function",
      "constant": true
    },
    {
      "inputs": [
        {
          "internalType": "address",
          "name": "minter",
          "type": "address"
        }
      ],
      "name": "numberMinted",
      "outputs": [
        {
          "internalType": "uint32",
          "name": "",
          "type": "uint32"
        }
      ],
      "stateMutability": "view",
      "type": "function",
      "constant": true
    },
    {
      "inputs": [],
      "name": "owner",
      "outputs": [
        {
          "internalType": "address",
          "name": "",
          "type": "address"
        }
      ],
      "stateMutability": "view",
      "type": "function",
      "constant": true
    },
    {
      "inputs": [
        {
          "internalType": "uint256",
          "name": "id",
          "type": "uint256"
        }
      ],
      "name": "ownerOf",
      "outputs": [
        {
          "internalType": "address",
          "name": "result",
          "type": "address"
        }
      ],
      "stateMutability": "view",
      "type": "function",
      "constant": true
    },
    {
      "inputs": [],
      "name": "remainingSupply",
      "outputs": [
        {
          "internalType": "uint256",
          "name": "",
          "type": "uint256"
        }
      ],
      "stateMutability": "view",
      "type": "function",
      "constant": true
    },
    {
      "inputs": [],
      "name": "renounceOwnership",
      "outputs": [],
      "stateMutability": "nonpayable",
      "type": "function"
    },
    {
      "inputs": [
        {
          "internalType": "address",
          "name": "from",
          "type": "address"
        },
        {
          "internalType": "address",
          "name": "to",
          "type": "address"
        },
        {
          "internalType": "uint256",
          "name": "id",
          "type": "uint256"
        }
      ],
      "name": "safeTransferFrom",
      "outputs": [],
      "stateMutability": "payable",
      "type": "function",
      "payable": true
    },
    {
      "inputs": [
        {
          "internalType": "address",
          "name": "from",
          "type": "address"
        },
        {
          "internalType": "address",
          "name": "to",
          "type": "address"
        },
        {
          "internalType": "uint256",
          "name": "id",
          "type": "uint256"
        },
        {
          "internalType": "bytes",
          "name": "data",
          "type": "bytes"
        }
      ],
      "name": "safeTransferFrom",
      "outputs": [],
      "stateMutability": "payable",
      "type": "function",
      "payable": true
    },
    {
      "inputs": [
        {
          "internalType": "address",
          "name": "operator",
          "type": "address"
        },
        {
          "internalType": "bool",
          "name": "isApproved",
          "type": "bool"
        }
      ],
      "name": "setApprovalForAll",
      "outputs": [],
      "stateMutability": "nonpayable",
      "type": "function"
    },
    {
      "inputs": [
        {
          "internalType": "bytes4",
          "name": "interfaceId",
          "type": "bytes4"
        }
      ],
      "name": "supportsInterface",
      "outputs": [
        {
          "internalType": "bool",
          "name": "result",
          "type": "bool"
        }
      ],
      "stateMutability": "view",
      "type": "function",
      "constant": true
    },
    {
      "inputs": [],
      "name": "symbol",
      "outputs": [
        {
          "internalType": "string",
          "name": "",
          "type": "string"
        }
      ],
      "stateMutability": "view",
      "type": "function",
      "constant": true
    },
    {
      "inputs": [],
      "name": "totalSupply",
      "outputs": [
        {
          "internalType": "uint256",
          "name": "",
          "type": "uint256"
        }
      ],
      "stateMutability": "view",
      "type": "function",
      "constant": true
    },
    {
      "inputs": [
        {
          "internalType": "address",
          "name": "from",
          "type": "address"
        },
        {
          "internalType": "address",
          "name": "to",
          "type": "address"
        },
        {
          "internalType": "uint256",
          "name": "id",
          "type": "uint256"
        }
      ],
      "name": "transferFrom",
      "outputs": [],
      "stateMutability": "payable",
      "type": "function",
      "payable": true
    },
    {
      "inputs": [
        {
          "internalType": "address",
          "name": "newOwner",
          "type": "address"
        }
      ],
      "name": "transferOwnership",
      "outputs": [],
      "stateMutability": "nonpayable",
      "type": "function"
    },
    {
      "inputs": [],
      "name": "withdrawAll",
      "outputs": [],
      "stateMutability": "payable",
      "type": "function",
      "payable": true
    },
    {
      "inputs": [
        {
          "internalType": "address payable",
          "name": "_newCollector",
          "type": "address"
        }
      ],
      "name": "setCollector",
      "outputs": [],
      "stateMutability": "nonpayable",
      "type": "function"
    },
    {
      "inputs": [
        {
          "internalType": "string",
          "name": "_newBaseURI",
          "type": "string"
        }
      ],
      "name": "_setBaseURI",
      "outputs": [],
      "stateMutability": "nonpayable",
      "type": "function"
    },
    {
      "inputs": [
        {
          "internalType": "uint256",
          "name": "tokenId",
          "type": "uint256"
        }
      ],
      "name": "tokenURI",
      "outputs": [
        {
          "internalType": "string",
          "name": "",
          "type": "string"
        }
      ],
      "stateMutability": "view",
      "type": "function",
      "constant": true
    },
    {
      "inputs": [
        {
          "internalType": "address[]",
          "name": "_toAddAddresses",
          "type": "address[]"
        },
        {
          "internalType": "uint8[]",
          "name": "_quantities",
          "type": "uint8[]"
        }
      ],
      "name": "addAddressesRandom",
      "outputs": [],
      "stateMutability": "nonpayable",
      "type": "function"
    },
    {
      "inputs": [
        {
          "internalType": "address[]",
          "name": "_toAddAddresses",
          "type": "address[]"
        },
        {
          "internalType": "uint8[]",
          "name": "_quantities",
          "type": "uint8[]"
        }
      ],
      "name": "addAddressesCouncil",
      "outputs": [],
      "stateMutability": "nonpayable",
      "type": "function"
    },
    {
      "inputs": [
        {
          "internalType": "address[]",
          "name": "_toAddAddresses",
          "type": "address[]"
        }
      ],
      "name": "addAddressesHonorary",
      "outputs": [],
      "stateMutability": "nonpayable",
      "type": "function"
    },
    {
      "inputs": [
        {
          "internalType": "address[]",
          "name": "_toAddAddresses",
          "type": "address[]"
        }
      ],
      "name": "addAddressesGuardian",
      "outputs": [],
      "stateMutability": "nonpayable",
      "type": "function"
    },
    {
      "inputs": [
        {
          "internalType": "address[]",
          "name": "_toAddAddresses",
          "type": "address[]"
        }
      ],
      "name": "addAddressesJudge",
      "outputs": [],
      "stateMutability": "nonpayable",
      "type": "function"
    },
    {
      "inputs": [
        {
          "internalType": "address[]",
          "name": "_toAddAddresses",
          "type": "address[]"
        }
      ],
      "name": "addAddressesWhale",
      "outputs": [],
      "stateMutability": "nonpayable",
      "type": "function"
    },
    {
      "inputs": [
        {
          "internalType": "address",
          "name": "_wallet",
          "type": "address"
        }
      ],
      "name": "addressClaimbleRandom",
      "outputs": [
        {
          "internalType": "uint8",
          "name": "",
          "type": "uint8"
        }
      ],
      "stateMutability": "view",
      "type": "function",
      "constant": true
    },
    {
      "inputs": [
        {
          "internalType": "address",
          "name": "_wallet",
          "type": "address"
        }
      ],
      "name": "addressClaimbleCouncil",
      "outputs": [
        {
          "internalType": "uint8",
          "name": "",
          "type": "uint8"
        }
      ],
      "stateMutability": "view",
      "type": "function",
      "constant": true
    },
    {
      "inputs": [
        {
          "internalType": "address",
          "name": "_wallet",
          "type": "address"
        }
      ],
      "name": "addressClaimbleHonorary",
      "outputs": [
        {
          "internalType": "uint8",
          "name": "",
          "type": "uint8"
        }
      ],
      "stateMutability": "view",
      "type": "function",
      "constant": true
    },
    {
      "inputs": [
        {
          "internalType": "address",
          "name": "_wallet",
          "type": "address"
        }
      ],
      "name": "addressClaimbleGuardian",
      "outputs": [
        {
          "internalType": "uint8",
          "name": "",
          "type": "uint8"
        }
      ],
      "stateMutability": "view",
      "type": "function",
      "constant": true
    },
    {
      "inputs": [
        {
          "internalType": "address",
          "name": "_wallet",
          "type": "address"
        }
      ],
      "name": "addressClaimbleJudge",
      "outputs": [
        {
          "internalType": "uint8",
          "name": "",
          "type": "uint8"
        }
      ],
      "stateMutability": "view",
      "type": "function",
      "constant": true
    },
    {
      "inputs": [
        {
          "internalType": "address",
          "name": "_wallet",
          "type": "address"
        }
      ],
      "name": "addressClaimbleWhale",
      "outputs": [
        {
          "internalType": "uint8",
          "name": "",
          "type": "uint8"
        }
      ],
      "stateMutability": "view",
      "type": "function",
      "constant": true
    },
    {
      "inputs": [
        {
          "internalType": "uint256",
          "name": "_nb",
          "type": "uint256"
        }
      ],
      "name": "mintRandom",
      "outputs": [],
      "stateMutability": "nonpayable",
      "type": "function"
    },
    {
      "inputs": [],
      "name": "mainTotalSupply",
      "outputs": [
        {
          "internalType": "uint256",
          "name": "",
          "type": "uint256"
        }
      ],
      "stateMutability": "view",
      "type": "function",
      "constant": true
    },
    {
      "inputs": [
        {
          "internalType": "uint256",
          "name": "_nb",
          "type": "uint256"
        }
      ],
      "name": "mintCouncil",
      "outputs": [],
      "stateMutability": "nonpayable",
      "type": "function"
    },
    {
      "inputs": [],
      "name": "mintHonorary",
      "outputs": [],
      "stateMutability": "nonpayable",
      "type": "function"
    },
    {
      "inputs": [],
      "name": "mintGuardian",
      "outputs": [],
      "stateMutability": "nonpayable",
      "type": "function"
    },
    {
      "inputs": [],
      "name": "mintJudge",
      "outputs": [],
      "stateMutability": "nonpayable",
      "type": "function"
    },
    {
      "inputs": [],
      "name": "mintWhale",
      "outputs": [],
      "stateMutability": "nonpayable",
      "type": "function"
    },
    {
      "inputs": [
        {
          "internalType": "uint256",
          "name": "tokenId",
          "type": "uint256"
        }
      ],
      "name": "tokenExist",
      "outputs": [
        {
          "internalType": "bool",
          "name": "",
          "type": "bool"
        }
      ],
      "stateMutability": "view",
      "type": "function",
      "constant": true
    },
    {
      "inputs": [
        {
          "internalType": "uint256[]",
          "name": "_tokenIdsAvailable",
          "type": "uint256[]"
        }
      ],
      "name": "setTokenAvailables",
      "outputs": [],
      "stateMutability": "nonpayable",
      "type": "function"
    },
    {
      "inputs": [],
      "name": "getTokenAvailables",
      "outputs": [
        {
          "internalType": "uint256[]",
          "name": "",
          "type": "uint256[]"
        }
      ],
      "stateMutability": "view",
      "type": "function",
      "constant": true
    },
    {
      "inputs": [],
      "name": "countTokenAvailables",
      "outputs": [
        {
          "internalType": "uint256",
          "name": "",
          "type": "uint256"
        }
      ],
      "stateMutability": "view",
      "type": "function",
      "constant": true
    },
    {
      "inputs": [
        {
          "internalType": "address[]",
          "name": "_toAddAddresses",
          "type": "address[]"
        }
      ],
      "name": "addAddressesGiveway",
      "outputs": [],
      "stateMutability": "nonpayable",
      "type": "function"
    },
    {
      "inputs": [],
      "name": "mintGiveway",
      "outputs": [],
      "stateMutability": "nonpayable",
      "type": "function"
    }
  ],
  "bytecode": "0x60a06040526105dc600760006101000a81548161ffff021916908361ffff1602179055506000600760026101000a81548161ffff021916908361ffff1602179055506000600760046101000a81548161ffff021916908361ffff1602179055506000600760066101000a81548161ffff021916908361ffff1602179055506000600760086101000a81548161ffff021916908361ffff16021790555060006007600a6101000a81548161ffff021916908361ffff16021790555060006008556001600960146101000a81548161ffff021916908361ffff160217905550610431600b60006101000a81548161ffff021916908361ffff160217905550610562600d60006101000a81548161ffff021916908361ffff1602179055506105a4600f60006101000a81548161ffff021916908361ffff1602179055506105c8601160006101000a81548161ffff021916908361ffff1602179055506105d3601360006101000a81548161ffff021916908361ffff1602179055506000601560006101000a81548161ffff021916908361ffff160217905550348015620001a257600080fd5b506040518060400160405280601081526020017f4d6574614c696665204f472050657473000000000000000000000000000000008152506040518060400160405280600381526020017f4d4c50000000000000000000000000000000000000000000000000000000000081525061043060016000819055506200023a6200022e6200028d60201b60201c565b6200029560201b60201c565b82600290816200024b9190620005d5565b5081600390816200025d9190620005d5565b5080608081815250508060058190555050505062f099c042620002819190620006eb565b60088190555062000726565b600033905090565b6000600160009054906101000a900473ffffffffffffffffffffffffffffffffffffffff16905081600160006101000a81548173ffffffffffffffffffffffffffffffffffffffff021916908373ffffffffffffffffffffffffffffffffffffffff1602179055508173ffffffffffffffffffffffffffffffffffffffff168173ffffffffffffffffffffffffffffffffffffffff167f8be0079c531659141344cd1fd0a4f28419497f9722a3daafe3b4186f6b6457e060405160405180910390a35050565b600081519050919050565b7f4e487b7100000000000000000000000000000000000000000000000000000000600052604160045260246000fd5b7f4e487b7100000000000000000000000000000000000000000000000000000000600052602260045260246000fd5b60006002820490506001821680620003dd57607f821691505b602082108103620003f357620003f262000395565b5b50919050565b60008190508160005260206000209050919050565b60006020601f8301049050919050565b600082821b905092915050565b6000600883026200045d7fffffffffffffffffffffffffffffffffffffffffffffffffffffffffffffffff826200041e565b6200046986836200041e565b95508019841693508086168417925050509392505050565b6000819050919050565b6000819050919050565b6000620004b6620004b0620004aa8462000481565b6200048b565b62000481565b9050919050565b6000819050919050565b620004d28362000495565b620004ea620004e182620004bd565b8484546200042b565b825550505050565b600090565b62000501620004f2565b6200050e818484620004c7565b505050565b5b8181101562000536576200052a600082620004f7565b60018101905062000514565b5050565b601f82111562000585576200054f81620003f9565b6200055a846200040e565b810160208510156200056a578190505b6200058262000579856200040e565b83018262000513565b50505b505050565b600082821c905092915050565b6000620005aa600019846008026200058a565b1980831691505092915050565b6000620005c5838362000597565b9150826002028217905092915050565b620005e0826200035b565b67ffffffffffffffff811115620005fc57620005fb62000366565b5b620006088254620003c4565b620006158282856200053a565b600060209050601f8311600181146200064d576000841562000638578287015190505b620006448582620005b7565b865550620006b4565b601f1984166200065d86620003f9565b60005b82811015620006875784890151825560018201915060208501945060208101905062000660565b86831015620006a75784890151620006a3601f89168262000597565b8355505b6001600288020188555050505b505050505050565b7f4e487b7100000000000000000000000000000000000000000000000000000000600052601160045260246000fd5b6000620006f88262000481565b9150620007058362000481565b925082820190508082111562000720576200071f620006bc565b5b92915050565b608051614e7c62000750600039600081816111f10152818161146701526127ee0152614e7c6000f3fe6080604052600436106102ad5760003560e01c8063715018a611610175578063c733fe0d116100dc578063dc33e68111610095578063f058a4d11161006f578063f058a4d114610a52578063f2fde38b14610a8f578063f6d8853614610ab8578063fb5b82d014610acf576102ad565b8063dc33e681146109af578063dcc4d445146109ec578063e985e9c514610a15576102ad565b8063c733fe0d1461089f578063c87b56dd146108b6578063cc0c5236146108f3578063d5abeb0114610930578063d8ae7c9d1461095b578063da0239a614610984576102ad565b806395d89b411161012e57806395d89b411461079c578063a22cb465146107c7578063a58a426d146107f0578063a7c702131461081b578063acc34a3e14610846578063b88d4fde14610883576102ad565b8063715018a6146106c1578063787b9712146106d8578063826f79e414610701578063853828b61461072a5780638b4f6325146107345780638da5cb5b14610771576102ad565b806331b5b90711610219578063468409ce116101d2578063468409ce1461058d5780636352211e146105b65780636902e20d146105f35780636c0360eb1461061c5780636d632d891461064757806370a0823114610684576102ad565b806331b5b907146104a057806333a36007146104c9578063376dde7f146104f4578063376e1b1f1461051d57806337e49eed1461053457806342842e0e14610571576102ad565b8063095ea7b31161026b578063095ea7b3146103c25780630d516997146103de5780630ff9cc6b1461040757806318160ddd1461043057806322d1464c1461045b57806323b872dd14610484576102ad565b80627c3566146102b257806301ffc9a7146102c9578063022c01991461030657806306fdde031461031d57806307c3841d14610348578063081812fc14610385575b600080fd5b3480156102be57600080fd5b506102c7610af8565b005b3480156102d557600080fd5b506102f060048036038101906102eb91906137a1565b610d1d565b6040516102fd91906137e9565b60405180910390f35b34801561031257600080fd5b5061031b610d42565b005b34801561032957600080fd5b50610332610f67565b60405161033f9190613894565b60405180910390f35b34801561035457600080fd5b5061036f600480360381019061036a9190613914565b610ff9565b60405161037c919061395d565b60405180910390f35b34801561039157600080fd5b506103ac60048036038101906103a791906139ae565b61104f565b6040516103b991906139ea565b60405180910390f35b6103dc60048036038101906103d79190613a05565b6110a9565b005b3480156103ea57600080fd5b50610405600480360381019061040091906139ae565b6110b8565b005b34801561041357600080fd5b5061042e60048036038101906104299190613b00565b61138a565b005b34801561043c57600080fd5b50610445611460565b6040516104529190613b90565b60405180910390f35b34801561046757600080fd5b50610482600480360381019061047d9190613bab565b611495565b005b61049e60048036038101906104999190613bf8565b611543565b005b3480156104ac57600080fd5b506104c760048036038101906104c29190613d7b565b61168b565b005b3480156104d557600080fd5b506104de6116a6565b6040516104eb9190613b90565b60405180910390f35b34801561050057600080fd5b5061051b60048036038101906105169190613bab565b611750565b005b34801561052957600080fd5b506105326117fe565b005b34801561054057600080fd5b5061055b60048036038101906105569190613914565b611a23565b604051610568919061395d565b60405180910390f35b61058b60048036038101906105869190613bf8565b611a79565b005b34801561059957600080fd5b506105b460048036038101906105af9190613bab565b611ab3565b005b3480156105c257600080fd5b506105dd60048036038101906105d891906139ae565b611b61565b6040516105ea91906139ea565b60405180910390f35b3480156105ff57600080fd5b5061061a600480360381019061061591906139ae565b611b86565b005b34801561062857600080fd5b50610631611f3b565b60405161063e9190613894565b60405180910390f35b34801561065357600080fd5b5061066e60048036038101906106699190613914565b611fc9565b60405161067b919061395d565b60405180910390f35b34801561069057600080fd5b506106ab60048036038101906106a69190613914565b61201f565b6040516106b89190613b90565b60405180910390f35b3480156106cd57600080fd5b506106d661206f565b005b3480156106e457600080fd5b506106ff60048036038101906106fa9190613b00565b612083565b005b34801561070d57600080fd5b5061072860048036038101906107239190613bab565b612159565b005b610732612207565b005b34801561074057600080fd5b5061075b60048036038101906107569190613914565b61227a565b604051610768919061395d565b60405180910390f35b34801561077d57600080fd5b506107866122d0565b60405161079391906139ea565b60405180910390f35b3480156107a857600080fd5b506107b16122fa565b6040516107be9190613894565b60405180910390f35b3480156107d357600080fd5b506107ee60048036038101906107e99190613df0565b61238c565b005b3480156107fc57600080fd5b506108056123e2565b6040516108129190613b90565b60405180910390f35b34801561082757600080fd5b506108306123ef565b60405161083d9190613eee565b60405180910390f35b34801561085257600080fd5b5061086d60048036038101906108689190613914565b612447565b60405161087a919061395d565b60405180910390f35b61089d60048036038101906108989190613f66565b61249d565b005b3480156108ab57600080fd5b506108b461250e565b005b3480156108c257600080fd5b506108dd60048036038101906108d891906139ae565b612733565b6040516108ea9190613894565b60405180910390f35b3480156108ff57600080fd5b5061091a600480360381019061091591906139ae565b6127da565b60405161092791906137e9565b60405180910390f35b34801561093c57600080fd5b506109456127ec565b6040516109529190613b90565b60405180910390f35b34801561096757600080fd5b50610982600480360381019061097d9190613bab565b612810565b005b34801561099057600080fd5b506109996128be565b6040516109a69190613b90565b60405180910390f35b3480156109bb57600080fd5b506109d660048036038101906109d19190613914565b6128c4565b6040516109e3919061400d565b60405180910390f35b3480156109f857600080fd5b50610a136004803603810190610a0e919061407e565b6128f8565b005b348015610a2157600080fd5b50610a3c6004803603810190610a3791906140cb565b61295a565b604051610a4991906137e9565b60405180910390f35b348015610a5e57600080fd5b50610a796004803603810190610a749190613914565b61297e565b604051610a86919061395d565b60405180910390f35b348015610a9b57600080fd5b50610ab66004803603810190610ab19190613914565b6129d4565b005b348015610ac457600080fd5b50610acd612a57565b005b348015610adb57600080fd5b50610af66004803603810190610af19190614149565b612c3d565b005b6008544210610b3c576040517f08c379a0000000000000000000000000000000000000000000000000000000008152600401610b33906141c2565b60405180910390fd5b6000600e60003373ffffffffffffffffffffffffffffffffffffffff1673ffffffffffffffffffffffffffffffffffffffff16815260200190815260200160002060009054906101000a900460ff1660ff1611610bce576040517f08c379a0000000000000000000000000000000000000000000000000000000008152600401610bc59061422e565b60405180910390fd5b6000600e60003373ffffffffffffffffffffffffffffffffffffffff1673ffffffffffffffffffffffffffffffffffffffff16815260200190815260200160002060006101000a81548160ff021916908360ff160217905550610c4533600d60009054906101000a900461ffff1661ffff16612c89565b3373ffffffffffffffffffffffffffffffffffffffff167ff70b403b1d50cef877cafdc0f6c3c47f58a42f1e5f5f17173f255ef7b00762a042600d60009054906101000a900461ffff16604051610c9d929190614297565b60405180910390a2600d600081819054906101000a900461ffff1680929190610cc5906142ef565b91906101000a81548161ffff021916908361ffff160217905550506007600481819054906101000a900461ffff1680929190610d00906142ef565b91906101000a81548161ffff021916908361ffff16021790555050565b60008160e01c635b5e139f81146380ac58cd82146301ffc9a783141717915050919050565b6008544210610d86576040517f08c379a0000000000000000000000000000000000000000000000000000000008152600401610d7d90614365565b60405180910390fd5b6000601260003373ffffffffffffffffffffffffffffffffffffffff1673ffffffffffffffffffffffffffffffffffffffff16815260200190815260200160002060009054906101000a900460ff1660ff1611610e18576040517f08c379a0000000000000000000000000000000000000000000000000000000008152600401610e0f906143d1565b60405180910390fd5b6000601260003373ffffffffffffffffffffffffffffffffffffffff1673ffffffffffffffffffffffffffffffffffffffff16815260200190815260200160002060006101000a81548160ff021916908360ff160217905550610e8f33601160009054906101000a900461ffff1661ffff16612c89565b3373ffffffffffffffffffffffffffffffffffffffff167f76f9e85ff7722d043b09d71ddb1f2e240963d9f9072c84082432fd9efd24677642601160009054906101000a900461ffff16604051610ee7929190614297565b60405180910390a26011600081819054906101000a900461ffff1680929190610f0f906142ef565b91906101000a81548161ffff021916908361ffff160217905550506007600881819054906101000a900461ffff1680929190610f4a906142ef565b91906101000a81548161ffff021916908361ffff16021790555050565b606060028054610f7690614420565b80601f0160208091040260200160405190810160405280929190818152602001828054610fa290614420565b8015610fef5780601f10610fc457610100808354040283529160200191610fef565b820191906000526020600020905b815481529060010190602001808311610fd257829003601f168201915b5050505050905090565b6000600a60008373ffffffffffffffffffffffffffffffffffffffff1673ffffffffffffffffffffffffffffffffffffffff16815260200190815260200160002060009054906101000a900460ff169050919050565b6000816000527f7d8825530a5a2e7a000000000000000000000000000000000000000000000000601c52602060002082018201805460601b60601c61109c5763ceea21b66000526004601cfd5b8060010154915050919050565b6110b4338383612ca7565b5050565b6000600a60003373ffffffffffffffffffffffffffffffffffffffff1673ffffffffffffffffffffffffffffffffffffffff16815260200190815260200160002060009054906101000a900460ff1660ff161161114a576040517f08c379a0000000000000000000000000000000000000000000000000000000008152600401611141906143d1565b60405180910390fd5b80600a60003373ffffffffffffffffffffffffffffffffffffffff1673ffffffffffffffffffffffffffffffffffffffff16815260200190815260200160002060009054906101000a900460ff1660ff1610156111dc576040517f08c379a00000000000000000000000000000000000000000000000000000000081526004016111d39061449d565b60405180910390fd5b806111e5611460565b6111ef91906144bd565b7f00000000000000000000000000000000000000000000000000000000000000001015611251576040517f08c379a00000000000000000000000000000000000000000000000000000000081526004016112489061453d565b60405180910390fd5b6005811115611295576040517f08c379a000000000000000000000000000000000000000000000000000000000815260040161128c906145a9565b60405180910390fd5b60005b818163ffffffff16101561133857600a60003373ffffffffffffffffffffffffffffffffffffffff1673ffffffffffffffffffffffffffffffffffffffff168152602001908152602001600020600081819054906101000a900460ff1680929190611302906145c9565b91906101000a81548160ff021916908360ff160217905550506113253383612d5e565b8080611330906145f2565b915050611298565b503373ffffffffffffffffffffffffffffffffffffffff167f30603f56befad35715d530ed1090c153118f6822d031c1e03fc5bc0e3f3080894260405161137f9190613b90565b60405180910390a250565b611392612ee9565b60005b84849050811015611459578282828181106113b3576113b261461e565b5b90506020020160208101906113c89190614679565b600a60008787858181106113df576113de61461e565b5b90506020020160208101906113f49190613914565b73ffffffffffffffffffffffffffffffffffffffff1673ffffffffffffffffffffffffffffffffffffffff16815260200190815260200160002060006101000a81548160ff021916908360ff1602179055508080611451906146a6565b915050611395565b5050505050565b60006005547f000000000000000000000000000000000000000000000000000000000000000061149091906146ee565b905090565b61149d612ee9565b60005b8282905081101561153e576001601060008585858181106114c4576114c361461e565b5b90506020020160208101906114d99190613914565b73ffffffffffffffffffffffffffffffffffffffff1673ffffffffffffffffffffffffffffffffffffffff16815260200190815260200160002060006101000a81548160ff021916908360ff1602179055508080611536906146a6565b9150506114a0565b505050565b61154e838383612f67565b60001960601c8381169350828116925081600052337f7d8825530a5a2e7a00000000000000000000000000000000000000000000000017601c52602060002082018201805480831686811481026115c057806115b25763ceea21b66000526004601cfd5b63a11481006000526004601cfd5b856115d35763ea553b346000526004601cfd5b86600052826001015480331488331417611600576030600c20546115ff57634b6e7f186000526004601cfd5b5b801561160e57600084600101555b5085871882188355601c600c20600181540381555085600052601c600c20600181540163ffffffff811661164a576301336cea6000526004601cfd5b80825550508486887fddf252ad1be2c89b69c2b068fc378daa952ba7f163c4a11628f55a4df523b3ef600080a450505050611686838383612f6c565b505050565b611693612ee9565b80600690816116a291906148c4565b5050565b60006007600a9054906101000a900461ffff1661ffff16600760089054906101000a900461ffff1661ffff16600760069054906101000a900461ffff1661ffff16600760049054906101000a900461ffff1661ffff16600760029054906101000a900461ffff1661ffff16611719611460565b61172391906144bd565b61172d91906144bd565b61173791906144bd565b61174191906144bd565b61174b91906144bd565b905090565b611758612ee9565b60005b828290508110156117f95760016016600085858581811061177f5761177e61461e565b5b90506020020160208101906117949190613914565b73ffffffffffffffffffffffffffffffffffffffff1673ffffffffffffffffffffffffffffffffffffffff16815260200190815260200160002060006101000a81548160ff021916908360ff16021790555080806117f1906146a6565b91505061175b565b505050565b6008544210611842576040517f08c379a0000000000000000000000000000000000000000000000000000000008152600401611839906149e2565b60405180910390fd5b6000601060003373ffffffffffffffffffffffffffffffffffffffff1673ffffffffffffffffffffffffffffffffffffffff16815260200190815260200160002060009054906101000a900460ff1660ff16116118d4576040517f08c379a00000000000000000000000000000000000000000000000000000000081526004016118cb9061422e565b60405180910390fd5b6000601060003373ffffffffffffffffffffffffffffffffffffffff1673ffffffffffffffffffffffffffffffffffffffff16815260200190815260200160002060006101000a81548160ff021916908360ff16021790555061194b33600f60009054906101000a900461ffff1661ffff16612c89565b3373ffffffffffffffffffffffffffffffffffffffff167f3068eb10a9f5bc0a2d97cbc29c967a612136c9d03efe312432d0cff3ece88d5542600f60009054906101000a900461ffff166040516119a3929190614297565b60405180910390a2600f600081819054906101000a900461ffff16809291906119cb906142ef565b91906101000a81548161ffff021916908361ffff160217905550506007600681819054906101000a900461ffff1680929190611a06906142ef565b91906101000a81548161ffff021916908361ffff16021790555050565b6000600e60008373ffffffffffffffffffffffffffffffffffffffff1673ffffffffffffffffffffffffffffffffffffffff16815260200190815260200160002060009054906101000a900460ff169050919050565b611a84838383611543565b611a8d82612f71565b15611aae57611aad83838360405180602001604052806000815250612f7c565b5b505050565b611abb612ee9565b60005b82829050811015611b5c576001600e6000858585818110611ae257611ae161461e565b5b9050602002016020810190611af79190613914565b73ffffffffffffffffffffffffffffffffffffffff1673ffffffffffffffffffffffffffffffffffffffff16815260200190815260200160002060006101000a81548160ff021916908360ff1602179055508080611b54906146a6565b915050611abe565b505050565b6000611b6c8261300e565b905080611b815763ceea21b66000526004601cfd5b919050565b6008544210611bca576040517f08c379a0000000000000000000000000000000000000000000000000000000008152600401611bc190614a4e565b60405180910390fd5b6000600c60003373ffffffffffffffffffffffffffffffffffffffff1673ffffffffffffffffffffffffffffffffffffffff16815260200190815260200160002060009054906101000a900460ff1660ff1611611c5c576040517f08c379a0000000000000000000000000000000000000000000000000000000008152600401611c53906143d1565b60405180910390fd5b80600c60003373ffffffffffffffffffffffffffffffffffffffff1673ffffffffffffffffffffffffffffffffffffffff16815260200190815260200160002060009054906101000a900460ff1660ff161015611cee576040517f08c379a0000000000000000000000000000000000000000000000000000000008152600401611ce59061449d565b60405180910390fd5b6005811115611d32576040517f08c379a0000000000000000000000000000000000000000000000000000000008152600401611d29906145a9565b60405180910390fd5b60008167ffffffffffffffff811115611d4e57611d4d613c50565b5b604051908082528060200260200182016040528015611d7c5781602001602082028036833780820191505090505b50905060005b828163ffffffff161015611ee657600c60003373ffffffffffffffffffffffffffffffffffffffff1673ffffffffffffffffffffffffffffffffffffffff168152602001908152602001600020600081819054906101000a900460ff1680929190611dec906145c9565b91906101000a81548160ff021916908360ff16021790555050611e2333600b60009054906101000a900461ffff1661ffff16612c89565b600b60009054906101000a900461ffff1661ffff16828263ffffffff1681518110611e5157611e5061461e565b5b602002602001018181525050600b600081819054906101000a900461ffff1680929190611e7d906142ef565b91906101000a81548161ffff021916908361ffff160217905550506007600281819054906101000a900461ffff1680929190611eb8906142ef565b91906101000a81548161ffff021916908361ffff160217905550508080611ede906145f2565b915050611d82565b503373ffffffffffffffffffffffffffffffffffffffff167f925a1c03df0f625e3645b782d2a6fc1ccee76de332fba5dc74ad672526a0d3994283604051611f2f929190614a6e565b60405180910390a25050565b60068054611f4890614420565b80601f0160208091040260200160405190810160405280929190818152602001828054611f7490614420565b8015611fc15780601f10611f9657610100808354040283529160200191611fc1565b820191906000526020600020905b815481529060010190602001808311611fa457829003601f168201915b505050505081565b6000601460008373ffffffffffffffffffffffffffffffffffffffff1673ffffffffffffffffffffffffffffffffffffffff16815260200190815260200160002060009054906101000a900460ff169050919050565b60008161203457638f4eb6046000526004601cfd5b7f7d8825530a5a2e7a000000000000000000000000000000000000000000000000601c528160005263ffffffff601c600c2054169050919050565b612077612ee9565b612081600061304f565b565b61208b612ee9565b60005b84849050811015612152578282828181106120ac576120ab61461e565b5b90506020020160208101906120c19190614679565b600c60008787858181106120d8576120d761461e565b5b90506020020160208101906120ed9190613914565b73ffffffffffffffffffffffffffffffffffffffff1673ffffffffffffffffffffffffffffffffffffffff16815260200190815260200160002060006101000a81548160ff021916908360ff160217905550808061214a906146a6565b91505061208e565b5050505050565b612161612ee9565b60005b82829050811015612202576001601460008585858181106121885761218761461e565b5b905060200201602081019061219d9190613914565b73ffffffffffffffffffffffffffffffffffffffff1673ffffffffffffffffffffffffffffffffffffffff16815260200190815260200160002060006101000a81548160ff021916908360ff16021790555080806121fa906146a6565b915050612164565b505050565b61220f612ee9565b600960009054906101000a900473ffffffffffffffffffffffffffffffffffffffff1673ffffffffffffffffffffffffffffffffffffffff166108fc479081150290604051600060405180830381858888f19350505050158015612277573d6000803e3d6000fd5b50565b6000600c60008373ffffffffffffffffffffffffffffffffffffffff1673ffffffffffffffffffffffffffffffffffffffff16815260200190815260200160002060009054906101000a900460ff169050919050565b6000600160009054906101000a900473ffffffffffffffffffffffffffffffffffffffff16905090565b60606003805461230990614420565b80601f016020809104026020016040519081016040528092919081815260200182805461233590614420565b80156123825780601f1061235757610100808354040283529160200191612382565b820191906000526020600020905b81548152906001019060200180831161236557829003601f168201915b5050505050905090565b801515905081601c52670a5a2e7a0000000060085233600052806030600c2055806000528160601b60601c337f17307eab39ab6107e8899845ad3d59bd9653f200f220920489ca2b5937696c3160206000a35050565b6000601780549050905090565b6060601780548060200260200160405190810160405280929190818152602001828054801561243d57602002820191906000526020600020905b815481526020019060010190808311612429575b5050505050905090565b6000601060008373ffffffffffffffffffffffffffffffffffffffff1673ffffffffffffffffffffffffffffffffffffffff16815260200190815260200160002060009054906101000a900460ff169050919050565b6124a8858585611543565b6124b184612f71565b156125075761250685858585858080601f016020809104026020016040519081016040528093929190818152602001838380828437600081840152601f19601f82011690508083019250505050505050612f7c565b5b5050505050565b6008544210612552576040517f08c379a000000000000000000000000000000000000000000000000000000000815260040161254990614aea565b60405180910390fd5b6000601460003373ffffffffffffffffffffffffffffffffffffffff1673ffffffffffffffffffffffffffffffffffffffff16815260200190815260200160002060009054906101000a900460ff1660ff16116125e4576040517f08c379a00000000000000000000000000000000000000000000000000000000081526004016125db9061422e565b60405180910390fd5b6000601460003373ffffffffffffffffffffffffffffffffffffffff1673ffffffffffffffffffffffffffffffffffffffff16815260200190815260200160002060006101000a81548160ff021916908360ff16021790555061265b33601360009054906101000a900461ffff1661ffff16612c89565b3373ffffffffffffffffffffffffffffffffffffffff167f11f17ae42a0904709076e999b53fe5d9a2094552d1e26167334b0a1df43db8bd42601360009054906101000a900461ffff166040516126b3929190614297565b60405180910390a26013600081819054906101000a900461ffff16809291906126db906142ef565b91906101000a81548161ffff021916908361ffff160217905550506007600a81819054906101000a900461ffff1680929190612716906142ef565b91906101000a81548161ffff021916908361ffff16021790555050565b606061273e82613115565b61277d576040517f08c379a000000000000000000000000000000000000000000000000000000000815260040161277490614b56565b60405180910390fd5b6000612787613153565b905060008151116127a757604051806020016040528060008152506127d2565b806127b1846131e5565b6040516020016127c2929190614bb2565b6040516020818303038152906040525b915050919050565b60006127e582613115565b9050919050565b7f000000000000000000000000000000000000000000000000000000000000000081565b612818612ee9565b60005b828290508110156128b95760016012600085858581811061283f5761283e61461e565b5b90506020020160208101906128549190613914565b73ffffffffffffffffffffffffffffffffffffffff1673ffffffffffffffffffffffffffffffffffffffff16815260200190815260200160002060006101000a81548160ff021916908360ff16021790555080806128b1906146a6565b91505061281b565b505050565b60055481565b600060c06128d1836132b3565b7bffffffffffffffffffffffffffffffffffffffffffffffffffffffff16901c9050919050565b612900612ee9565b6008544211612944576040517f08c379a000000000000000000000000000000000000000000000000000000000815260040161293b90614c22565b60405180910390fd5b8181601791906129559291906136cb565b505050565b600081601c52670a5a2e7a00000000600852826000526030600c2054905092915050565b6000601260008373ffffffffffffffffffffffffffffffffffffffff1673ffffffffffffffffffffffffffffffffffffffff16815260200190815260200160002060009054906101000a900460ff169050919050565b6129dc612ee9565b600073ffffffffffffffffffffffffffffffffffffffff168173ffffffffffffffffffffffffffffffffffffffff1603612a4b576040517f08c379a0000000000000000000000000000000000000000000000000000000008152600401612a4290614cb4565b60405180910390fd5b612a548161304f565b50565b6000601660003373ffffffffffffffffffffffffffffffffffffffff1673ffffffffffffffffffffffffffffffffffffffff16815260200190815260200160002060009054906101000a900460ff1660ff1611612ae9576040517f08c379a0000000000000000000000000000000000000000000000000000000008152600401612ae09061422e565b60405180910390fd5b6000601660003373ffffffffffffffffffffffffffffffffffffffff1673ffffffffffffffffffffffffffffffffffffffff16815260200190815260200160002060006101000a81548160ff021916908360ff160217905550612b7e336017601560009054906101000a900461ffff1661ffff1681548110612b6e57612b6d61461e565b5b9060005260206000200154612c89565b3373ffffffffffffffffffffffffffffffffffffffff167fa72aa19bfd87e001e03ac6bf966e0f914e84e90c84f842017e87ffc32547505f426017601560009054906101000a900461ffff1661ffff1681548110612bdf57612bde61461e565b5b9060005260206000200154604051612bf8929190614cd4565b60405180910390a26015600081819054906101000a900461ffff1680929190612c20906142ef565b91906101000a81548161ffff021916908361ffff16021790555050565b612c45612ee9565b80600960006101000a81548173ffffffffffffffffffffffffffffffffffffffff021916908373ffffffffffffffffffffffffffffffffffffffff16021790555050565b612ca38282604051806020016040528060008152506132ed565b5050565b60001960601c8281169250838116935081600052837f7d8825530a5a2e7a00000000000000000000000000000000000000000000000017601c526020600020820182018054821680612d015763ceea21b66000526004601cfd5b808614861517612d2857806000526030600c2054612d2757634b6e7f186000526004601cfd5b5b8482600101558385827f8c5be1e5ebec7d5bd14f71427d1e84f3dd0314c0f7b2291e5b200ac8c7c3b925600080a4505050505050565b3273ffffffffffffffffffffffffffffffffffffffff163373ffffffffffffffffffffffffffffffffffffffff1614612dc3576040517fd9d552c900000000000000000000000000000000000000000000000000000000815260040160405180910390fd5b60008103612dfd576040517f4600cfe900000000000000000000000000000000000000000000000000000000815260040160405180910390fd5b806005541015612e39576040517f7775abdd00000000000000000000000000000000000000000000000000000000815260040160405180910390fd5b600060405180602001604052804244604051602001612e59929190614d1e565b6040516020818303038152906040528051906020012060001c81525090506000600554905060005b83811015612ed1576000612e9e838561331890919063ffffffff16565b90506000612eac8285613343565b9050612eb887826133ef565b83612ec290614d4a565b93508260010192505050612e81565b50612edc84846134cd565b8060058190555050505050565b612ef161352e565b73ffffffffffffffffffffffffffffffffffffffff16612f0f6122d0565b73ffffffffffffffffffffffffffffffffffffffff1614612f65576040517f08c379a0000000000000000000000000000000000000000000000000000000008152600401612f5c90614dbf565b60405180910390fd5b565b505050565b505050565b6000813b9050919050565b60405163150b7a028082523360208301528560601b60601c604083015283606083015260808083015282518060a08401528015612fc3578060c08401826020870160045afa505b60208360a48301601c860160008a5af1612fec573d15612fe7573d6000803e3d6000fd5b600083525b8160e01b8351146130055763d1a57ed66000526004601cfd5b50505050505050565b6000816000527f7d8825530a5a2e7a000000000000000000000000000000000000000000000000601c526020600020820182015460601b60601c9050919050565b6000600160009054906101000a900473ffffffffffffffffffffffffffffffffffffffff16905081600160006101000a81548173ffffffffffffffffffffffffffffffffffffffff021916908373ffffffffffffffffffffffffffffffffffffffff1602179055508173ffffffffffffffffffffffffffffffffffffffff168173ffffffffffffffffffffffffffffffffffffffff167f8be0079c531659141344cd1fd0a4f28419497f9722a3daafe3b4186f6b6457e060405160405180910390a35050565b6000816000527f7d8825530a5a2e7a000000000000000000000000000000000000000000000000601c526020600020820182015460601b9050919050565b60606006805461316290614420565b80601f016020809104026020016040519081016040528092919081815260200182805461318e90614420565b80156131db5780601f106131b0576101008083540402835291602001916131db565b820191906000526020600020905b8154815290600101906020018083116131be57829003601f168201915b5050505050905090565b6060600060016131f484613536565b01905060008167ffffffffffffffff81111561321357613212613c50565b5b6040519080825280601f01601f1916602001820160405280156132455781602001600182028036833780820191505090505b509050600082602001820190505b6001156132a8578080600190039150507f3031323334353637383961626364656600000000000000000000000000000000600a86061a8153600a858161329c5761329b614ddf565b5b04945060008503613253575b819350505050919050565b60007f7d8825530a5a2e7a000000000000000000000000000000000000000000000000601c5281600052601c600c205460201c9050919050565b6132f783836133ef565b61330083612f71565b15613313576133126000848484612f7c565b5b505050565b60005b60011561333857602083209050808352818260000306811061331b575b818106905092915050565b60008060046000858152602001908152602001600020549050600060018461336b91906146ee565b9050600060046000838152602001908152602001600020549050600083146133935782613395565b855b93508186146133c657600081146133ac57806133ae565b815b60046000888152602001908152602001600020819055505b600081146133e65760046000838152602001908152602001600020600090555b50505092915050565b6133fb60008383612f67565b8160601b60601c9150816134175763ea553b346000526004601cfd5b806000527f7d8825530a5a2e7a000000000000000000000000000000000000000000000000601c5260206000208101810180548060601b156134615763c991cbb16000526004601cfd5b838117825583600052601c600c20600181540163ffffffff811661348d576301336cea6000526004601cfd5b8082555050828460007fddf252ad1be2c89b69c2b068fc378daa952ba7f163c4a11628f55a4df523b3ef600080a450506134c960008383612f6c565b5050565b60006134d8836128c4565b9050600082826134e89190614e0e565b905060006134f5856132b3565b9050613527858277ffffffffffffffffffffffffffffffffffffffffffffffff1660c08563ffffffff16901b17613689565b5050505050565b600033905090565b600080600090507a184f03e93ff9f4daa797ed6e38ed64bf6a1f0100000000000000008310613594577a184f03e93ff9f4daa797ed6e38ed64bf6a1f010000000000000000838161358a57613589614ddf565b5b0492506040810190505b6d04ee2d6d415b85acef810000000083106135d1576d04ee2d6d415b85acef810000000083816135c7576135c6614ddf565b5b0492506020810190505b662386f26fc10000831061360057662386f26fc1000083816135f6576135f5614ddf565b5b0492506010810190505b6305f5e1008310613629576305f5e100838161361f5761361e614ddf565b5b0492506008810190505b612710831061364e57612710838161364457613643614ddf565b5b0492506004810190505b60648310613671576064838161366757613666614ddf565b5b0492506002810190505b600a8310613680576001810190505b80915050919050565b7f7d8825530a5a2e7a000000000000000000000000000000000000000000000000601c5281600052601c600c2080548060201c831860201b8118825550505050565b828054828255906000526020600020908101928215613707579160200282015b828111156137065782358255916020019190600101906136eb565b5b5090506137149190613718565b5090565b5b80821115613731576000816000905550600101613719565b5090565b6000604051905090565b600080fd5b600080fd5b60007fffffffff0000000000000000000000000000000000000000000000000000000082169050919050565b61377e81613749565b811461378957600080fd5b50565b60008135905061379b81613775565b92915050565b6000602082840312156137b7576137b661373f565b5b60006137c58482850161378c565b91505092915050565b60008115159050919050565b6137e3816137ce565b82525050565b60006020820190506137fe60008301846137da565b92915050565b600081519050919050565b600082825260208201905092915050565b60005b8381101561383e578082015181840152602081019050613823565b60008484015250505050565b6000601f19601f8301169050919050565b600061386682613804565b613870818561380f565b9350613880818560208601613820565b6138898161384a565b840191505092915050565b600060208201905081810360008301526138ae818461385b565b905092915050565b600073ffffffffffffffffffffffffffffffffffffffff82169050919050565b60006138e1826138b6565b9050919050565b6138f1816138d6565b81146138fc57600080fd5b50565b60008135905061390e816138e8565b92915050565b60006020828403121561392a5761392961373f565b5b6000613938848285016138ff565b91505092915050565b600060ff82169050919050565b61395781613941565b82525050565b6000602082019050613972600083018461394e565b92915050565b6000819050919050565b61398b81613978565b811461399657600080fd5b50565b6000813590506139a881613982565b92915050565b6000602082840312156139c4576139c361373f565b5b60006139d284828501613999565b91505092915050565b6139e4816138d6565b82525050565b60006020820190506139ff60008301846139db565b92915050565b60008060408385031215613a1c57613a1b61373f565b5b6000613a2a858286016138ff565b9250506020613a3b85828601613999565b9150509250929050565b600080fd5b600080fd5b600080fd5b60008083601f840112613a6a57613a69613a45565b5b8235905067ffffffffffffffff811115613a8757613a86613a4a565b5b602083019150836020820283011115613aa357613aa2613a4f565b5b9250929050565b60008083601f840112613ac057613abf613a45565b5b8235905067ffffffffffffffff811115613add57613adc613a4a565b5b602083019150836020820283011115613af957613af8613a4f565b5b9250929050565b60008060008060408587031215613b1a57613b1961373f565b5b600085013567ffffffffffffffff811115613b3857613b37613744565b5b613b4487828801613a54565b9450945050602085013567ffffffffffffffff811115613b6757613b66613744565b5b613b7387828801613aaa565b925092505092959194509250565b613b8a81613978565b82525050565b6000602082019050613ba56000830184613b81565b92915050565b60008060208385031215613bc257613bc161373f565b5b600083013567ffffffffffffffff811115613be057613bdf613744565b5b613bec85828601613a54565b92509250509250929050565b600080600060608486031215613c1157613c1061373f565b5b6000613c1f868287016138ff565b9350506020613c30868287016138ff565b9250506040613c4186828701613999565b9150509250925092565b600080fd5b7f4e487b7100000000000000000000000000000000000000000000000000000000600052604160045260246000fd5b613c888261384a565b810181811067ffffffffffffffff82111715613ca757613ca6613c50565b5b80604052505050565b6000613cba613735565b9050613cc68282613c7f565b919050565b600067ffffffffffffffff821115613ce657613ce5613c50565b5b613cef8261384a565b9050602081019050919050565b82818337600083830152505050565b6000613d1e613d1984613ccb565b613cb0565b905082815260208101848484011115613d3a57613d39613c4b565b5b613d45848285613cfc565b509392505050565b600082601f830112613d6257613d61613a45565b5b8135613d72848260208601613d0b565b91505092915050565b600060208284031215613d9157613d9061373f565b5b600082013567ffffffffffffffff811115613daf57613dae613744565b5b613dbb84828501613d4d565b91505092915050565b613dcd816137ce565b8114613dd857600080fd5b50565b600081359050613dea81613dc4565b92915050565b60008060408385031215613e0757613e0661373f565b5b6000613e15858286016138ff565b9250506020613e2685828601613ddb565b9150509250929050565b600081519050919050565b600082825260208201905092915050565b6000819050602082019050919050565b613e6581613978565b82525050565b6000613e778383613e5c565b60208301905092915050565b6000602082019050919050565b6000613e9b82613e30565b613ea58185613e3b565b9350613eb083613e4c565b8060005b83811015613ee1578151613ec88882613e6b565b9750613ed383613e83565b925050600181019050613eb4565b5085935050505092915050565b60006020820190508181036000830152613f088184613e90565b905092915050565b60008083601f840112613f2657613f25613a45565b5b8235905067ffffffffffffffff811115613f4357613f42613a4a565b5b602083019150836001820283011115613f5f57613f5e613a4f565b5b9250929050565b600080600080600060808688031215613f8257613f8161373f565b5b6000613f90888289016138ff565b9550506020613fa1888289016138ff565b9450506040613fb288828901613999565b935050606086013567ffffffffffffffff811115613fd357613fd2613744565b5b613fdf88828901613f10565b92509250509295509295909350565b600063ffffffff82169050919050565b61400781613fee565b82525050565b60006020820190506140226000830184613ffe565b92915050565b60008083601f84011261403e5761403d613a45565b5b8235905067ffffffffffffffff81111561405b5761405a613a4a565b5b60208301915083602082028301111561407757614076613a4f565b5b9250929050565b600080602083850312156140955761409461373f565b5b600083013567ffffffffffffffff8111156140b3576140b2613744565b5b6140bf85828601614028565b92509250509250929050565b600080604083850312156140e2576140e161373f565b5b60006140f0858286016138ff565b9250506020614101858286016138ff565b9150509250929050565b6000614116826138b6565b9050919050565b6141268161410b565b811461413157600080fd5b50565b6000813590506141438161411d565b92915050565b60006020828403121561415f5761415e61373f565b5b600061416d84828501614134565b91505092915050565b7f486f6e6f72617279206d696e7420636c6f736500000000000000000000000000600082015250565b60006141ac60138361380f565b91506141b782614176565b602082019050919050565b600060208201905081810360008301526141db8161419f565b9050919050565b7f4e6f206769766577617900000000000000000000000000000000000000000000600082015250565b6000614218600a8361380f565b9150614223826141e2565b602082019050919050565b600060208201905081810360008301526142478161420b565b9050919050565b600061ffff82169050919050565b6000819050919050565b600061428161427c6142778461424e565b61425c565b613978565b9050919050565b61429181614266565b82525050565b60006040820190506142ac6000830185613b81565b6142b96020830184614288565b9392505050565b7f4e487b7100000000000000000000000000000000000000000000000000000000600052601160045260246000fd5b60006142fa8261424e565b915061ffff820361430e5761430d6142c0565b5b600182019050919050565b7f4a75646765206d696e7420636c6f736500000000000000000000000000000000600082015250565b600061434f60108361380f565b915061435a82614319565b602082019050919050565b6000602082019050818103600083015261437e81614342565b9050919050565b7f4e6f7420656c696769626c650000000000000000000000000000000000000000600082015250565b60006143bb600c8361380f565b91506143c682614385565b602082019050919050565b600060208201905081810360008301526143ea816143ae565b9050919050565b7f4e487b7100000000000000000000000000000000000000000000000000000000600052602260045260246000fd5b6000600282049050600182168061443857607f821691505b60208210810361444b5761444a6143f1565b5b50919050565b7f4e6f7420656e6f75676820636c61696d61626c6520746f6b656e730000000000600082015250565b6000614487601b8361380f565b915061449282614451565b602082019050919050565b600060208201905081810360008301526144b68161447a565b9050919050565b60006144c882613978565b91506144d383613978565b92508282019050808211156144eb576144ea6142c0565b5b92915050565b7f537570706c79206c696d69742065786565647800000000000000000000000000600082015250565b600061452760138361380f565b9150614532826144f1565b602082019050919050565b600060208201905081810360008301526145568161451a565b9050919050565b7f4c696d6974206d61780000000000000000000000000000000000000000000000600082015250565b600061459360098361380f565b915061459e8261455d565b602082019050919050565b600060208201905081810360008301526145c281614586565b9050919050565b60006145d482613941565b9150600082036145e7576145e66142c0565b5b600182039050919050565b60006145fd82613fee565b915063ffffffff8203614613576146126142c0565b5b600182019050919050565b7f4e487b7100000000000000000000000000000000000000000000000000000000600052603260045260246000fd5b61465681613941565b811461466157600080fd5b50565b6000813590506146738161464d565b92915050565b60006020828403121561468f5761468e61373f565b5b600061469d84828501614664565b91505092915050565b60006146b182613978565b91507fffffffffffffffffffffffffffffffffffffffffffffffffffffffffffffffff82036146e3576146e26142c0565b5b600182019050919050565b60006146f982613978565b915061470483613978565b925082820390508181111561471c5761471b6142c0565b5b92915050565b60008190508160005260206000209050919050565b60006020601f8301049050919050565b600082821b905092915050565b6000600883026147847fffffffffffffffffffffffffffffffffffffffffffffffffffffffffffffffff82614747565b61478e8683614747565b95508019841693508086168417925050509392505050565b60006147c16147bc6147b784613978565b61425c565b613978565b9050919050565b6000819050919050565b6147db836147a6565b6147ef6147e7826147c8565b848454614754565b825550505050565b600090565b6148046147f7565b61480f8184846147d2565b505050565b5b81811015614833576148286000826147fc565b600181019050614815565b5050565b601f8211156148785761484981614722565b61485284614737565b81016020851015614861578190505b61487561486d85614737565b830182614814565b50505b505050565b600082821c905092915050565b600061489b6000198460080261487d565b1980831691505092915050565b60006148b4838361488a565b9150826002028217905092915050565b6148cd82613804565b67ffffffffffffffff8111156148e6576148e5613c50565b5b6148f08254614420565b6148fb828285614837565b600060209050601f83116001811461492e576000841561491c578287015190505b61492685826148a8565b86555061498e565b601f19841661493c86614722565b60005b828110156149645784890151825560018201915060208501945060208101905061493f565b86831015614981578489015161497d601f89168261488a565b8355505b6001600288020188555050505b505050505050565b7f477561726469616e206d696e7420636c6f736500000000000000000000000000600082015250565b60006149cc60138361380f565b91506149d782614996565b602082019050919050565b600060208201905081810360008301526149fb816149bf565b9050919050565b7f436f756e63696c206d696e7420636c6f73650000000000000000000000000000600082015250565b6000614a3860128361380f565b9150614a4382614a02565b602082019050919050565b60006020820190508181036000830152614a6781614a2b565b9050919050565b6000604082019050614a836000830185613b81565b8181036020830152614a958184613e90565b90509392505050565b7f5768616c65206d696e7420636c6f736500000000000000000000000000000000600082015250565b6000614ad460108361380f565b9150614adf82614a9e565b602082019050919050565b60006020820190508181036000830152614b0381614ac7565b9050919050565b7f756e6b6e6f7720746f6b656e0000000000000000000000000000000000000000600082015250565b6000614b40600c8361380f565b9150614b4b82614b0a565b602082019050919050565b60006020820190508181036000830152614b6f81614b33565b9050919050565b600081905092915050565b6000614b8c82613804565b614b968185614b76565b9350614ba6818560208601613820565b80840191505092915050565b6000614bbe8285614b81565b9150614bca8284614b81565b91508190509392505050565b7f47697665776179206e6f74206163746976617465000000000000000000000000600082015250565b6000614c0c60148361380f565b9150614c1782614bd6565b602082019050919050565b60006020820190508181036000830152614c3b81614bff565b9050919050565b7f4f776e61626c653a206e6577206f776e657220697320746865207a65726f206160008201527f6464726573730000000000000000000000000000000000000000000000000000602082015250565b6000614c9e60268361380f565b9150614ca982614c42565b604082019050919050565b60006020820190508181036000830152614ccd81614c91565b9050919050565b6000604082019050614ce96000830185613b81565b614cf66020830184613b81565b9392505050565b6000819050919050565b614d18614d1382613978565b614cfd565b82525050565b6000614d2a8285614d07565b602082019150614d3a8284614d07565b6020820191508190509392505050565b6000614d5582613978565b915060008203614d6857614d676142c0565b5b600182039050919050565b7f4f776e61626c653a2063616c6c6572206973206e6f7420746865206f776e6572600082015250565b6000614da960208361380f565b9150614db482614d73565b602082019050919050565b60006020820190508181036000830152614dd881614d9c565b9050919050565b7f4e487b7100000000000000000000000000000000000000000000000000000000600052601260045260246000fd5b6000614e1982613fee565b9150614e2483613fee565b9250828201905063ffffffff811115614e4057614e3f6142c0565b5b9291505056fea264697066735822122058ef4ff8dd2a87125f5b31facbde8cb4312c753b5f86177d1fc43403f5c590d364736f6c63430008130033",
  "immutableReferences": {
    "1972": [
      {
        "length": 32,
        "start": 4593
      },
      {
        "length": 32,
        "start": 5223
      },
      {
        "length": 32,
        "start": 10222
      }
    ]
  },
  "source": "// SPDX-License-Identifier: MIT\npragma solidity 0.8.19;\n\n//import \"@openzeppelin/contracts/token/ERC721/extensions/ERC721Enumerable.sol\";\nimport \"@openzeppelin/contracts/utils/Strings.sol\";\nimport \"@openzeppelin/contracts/access/Ownable.sol\";\nimport \"@openzeppelin/contracts/security/ReentrancyGuard.sol\";\nimport \"./ERC721r.sol\";\n\ncontract MetaLifeOgPets is ReentrancyGuard, Ownable, ERC721r {\n//contract MetaLifeOgPets is ReentrancyGuard, ERC721Enumerable, Ownable, ERC721r {\n  // token ID supply max DefaultRandom = 1072;\n  // token ID supply max Council = 305;\n  // token ID supply max Honorary = 66;\n  // token ID supply max Guardian = 36;\n  // token ID supply max Judge = 11;\n  // token ID supply max Whale = 10;\n\n  using Strings for uint256;\n  string public baseURI;                              // PUBLIC\n  uint16 private mainMaxSupply = 1500;                // PRIVATE\n\n  uint16 private nbMintedCouncil = 0;\n  uint16 private nbMintedHonorary = 0;\n  uint16 private nbMintedGuardian = 0;\n  uint16 private nbMintedJudge = 0;\n  uint16 private nbMintedWhale = 0;\n\n  uint256 private limitMintSpecific = 0;\n  address payable private collector;\n  uint16 private _tokenIdCurrentRandom = 1;       // VAR AND EVENT BY MINT\n  mapping(address => uint8) private addressesRandom;\n  event MintedRandom(address indexed from, uint256 timestamp);\n  uint16 private _tokenIdCurrentCouncil = 1073;\n  mapping(address => uint8) private addressesCouncil;\n  event MintedCouncil(address indexed from, uint256 timestamp, uint256[] tokenIds);\n  uint16 private _tokenIdCurrentHonorary = 1378;\n  mapping(address => uint8) private addressesHonorary;\n  event MintedHonorary(address indexed from, uint256 timestamp, uint256 tokenId);\n  uint16 private _tokenIdCurrentGuardian = 1444;\n  mapping(address => uint8) private addressesGuardian;\n  event MintedGuardian(address indexed from, uint256 timestamp, uint256 tokenId);\n  uint16 private _tokenIdCurrentJudge = 1480;\n  mapping(address => uint8) private addressesJudge;\n  event MintedJudge(address indexed from, uint256 timestamp, uint256 tokenId);\n  uint16 private _tokenIdCurrentWhale = 1491;\n  mapping(address => uint8) private addressesWhale;\n  event MintedWhale(address indexed from, uint256 timestamp, uint256 tokenId);\n\n  uint16 private tokenGivewayIndex = 0;\n  mapping(address => uint8) private addressesGiveway;\n  uint256[] private tokenAvailables;\n  event MintedGiveway(address indexed from, uint256 timestamp, uint256 tokenId);\n\n  constructor() ERC721r('MetaLife OG Pets', 'MLP', 10_72){\n    limitMintSpecific = block.timestamp + ((365/2) * 24 * 60 * 60);\n  }\n\n  function withdrawAll() public payable onlyOwner {\n    collector.transfer(address(this).balance);\n  }\n\n  function setCollector(address payable _newCollector) public onlyOwner {\n    collector = _newCollector;\n  }\n\n  function _setBaseURI(string memory _newBaseURI) public onlyOwner {\n    baseURI = _newBaseURI;\n  }\n\n  function _baseURI() internal view virtual returns (string memory) {\n    return baseURI;\n  }\n\n  function tokenURI(uint256 tokenId) public view virtual override returns (string memory) {\n    require(_exists(tokenId), 'unknow token');\n\n    string memory uri = _baseURI();\n    return bytes(uri).length > 0 ? string(abi.encodePacked(uri, tokenId.toString())) : \"\";\n  }\n\n  function addAddressesRandom(address[] calldata _toAddAddresses, uint8[] calldata _quantities) external onlyOwner {\n    for (uint i = 0; i < _toAddAddresses.length; i++) {\n      addressesRandom[_toAddAddresses[i]] = _quantities[i];\n    }\n  }\n\n  function addAddressesCouncil(address[] calldata _toAddAddresses, uint8[] calldata _quantities) external onlyOwner {\n    for (uint i = 0; i < _toAddAddresses.length; i++) {\n      addressesCouncil[_toAddAddresses[i]] = _quantities[i];\n    }\n  }\n\n  function addAddressesHonorary(address[] calldata _toAddAddresses) external onlyOwner {\n    for (uint i = 0; i < _toAddAddresses.length; i++) {\n      addressesHonorary[_toAddAddresses[i]] = 1;\n    }\n  }\n\n  function addAddressesGuardian(address[] calldata _toAddAddresses) external onlyOwner {\n    for (uint i = 0; i < _toAddAddresses.length; i++) {\n      addressesGuardian[_toAddAddresses[i]] = 1;\n    }\n  }\n\n  function addAddressesJudge(address[] calldata _toAddAddresses) external onlyOwner {\n    for (uint i = 0; i < _toAddAddresses.length; i++) {\n      addressesJudge[_toAddAddresses[i]] = 1;\n    }\n  }\n\n  function addAddressesWhale(address[] calldata _toAddAddresses) external onlyOwner {\n    for (uint i = 0; i < _toAddAddresses.length; i++) {\n      addressesWhale[_toAddAddresses[i]] = 1;\n    }\n  }\n\n  function addressClaimbleRandom(address _wallet) public view returns(uint8) {\n    return addressesRandom[_wallet];\n  }\n\n  function addressClaimbleCouncil(address _wallet) public view returns(uint8) {\n    return addressesCouncil[_wallet];\n  }\n\n  function addressClaimbleHonorary(address _wallet) public view returns(uint8) {\n    return addressesHonorary[_wallet];\n  }\n\n  function addressClaimbleGuardian(address _wallet) public view returns(uint8) {\n    return addressesGuardian[_wallet];\n  }\n\n  function addressClaimbleJudge(address _wallet) public view returns(uint8) {\n    return addressesJudge[_wallet];\n  }\n\n  function addressClaimbleWhale(address _wallet) public view returns(uint8) {\n    return addressesWhale[_wallet];\n  }\n\n  function mintRandom(uint256 _nb) external {\n    require(addressesRandom[msg.sender] > 0, \"Not eligible\");\n    require(addressesRandom[msg.sender] >= _nb, \"Not enough claimable tokens\");\n    require(maxSupply >= totalSupply() + _nb, \"Supply limit exeedx\");\n    require(_nb <= 5, \"Limit max\");\n    for (uint32 i = 0; i < _nb; i++) {\n      addressesRandom[msg.sender]--;\n      _mintRandom(msg.sender, _nb);\n    }\n    emit MintedRandom(msg.sender, block.timestamp);\n  }\n\n  function mainTotalSupply() public view returns (uint256){\n    return totalSupply() + nbMintedCouncil + nbMintedHonorary + nbMintedGuardian + nbMintedJudge + nbMintedWhale;\n  }\n\n  function mintCouncil(uint256 _nb) external {\n    require(block.timestamp < limitMintSpecific, \"Council mint close\");\n    require(addressesCouncil[msg.sender] > 0, \"Not eligible\");\n    require(addressesCouncil[msg.sender] >= _nb, \"Not enough claimable tokens\");\n    require(_nb <= 5, \"Limit max\");\n    uint256[] memory _tokenIdsMinted = new uint256[](_nb);\n    for (uint32 i = 0; i < _nb; i++) {\n      addressesCouncil[msg.sender]--;\n      _safeMint(msg.sender, _tokenIdCurrentCouncil);\n      _tokenIdsMinted[i] = _tokenIdCurrentCouncil;\n      _tokenIdCurrentCouncil++;\n      nbMintedCouncil++;\n    }\n    emit MintedCouncil(msg.sender, block.timestamp, _tokenIdsMinted);\n  }\n\n  function mintHonorary() external {\n    require(block.timestamp < limitMintSpecific, \"Honorary mint close\");\n    require(addressesHonorary[msg.sender] > 0, \"No giveway\");\n    addressesHonorary[msg.sender] = 0;\n    _safeMint(msg.sender, _tokenIdCurrentHonorary);\n    emit MintedHonorary(msg.sender, block.timestamp, _tokenIdCurrentHonorary);\n    _tokenIdCurrentHonorary++;\n    nbMintedHonorary++;\n  }\n\n  function mintGuardian() external {\n    require(block.timestamp < limitMintSpecific, \"Guardian mint close\");\n    require(addressesGuardian[msg.sender] > 0, \"No giveway\");\n    addressesGuardian[msg.sender] = 0;\n    _safeMint(msg.sender, _tokenIdCurrentGuardian);\n    emit MintedGuardian(msg.sender, block.timestamp, _tokenIdCurrentGuardian);\n    _tokenIdCurrentGuardian++;\n    nbMintedGuardian++;\n  }\n\n  function mintJudge() external {\n    require(block.timestamp < limitMintSpecific, \"Judge mint close\");\n    require(addressesJudge[msg.sender] > 0, \"Not eligible\");\n    addressesJudge[msg.sender] = 0;\n    _safeMint(msg.sender, _tokenIdCurrentJudge);\n    emit MintedJudge(msg.sender, block.timestamp, _tokenIdCurrentJudge);\n    _tokenIdCurrentJudge++;\n    nbMintedJudge++;\n  }\n\n  function mintWhale() external {\n    require(block.timestamp < limitMintSpecific, \"Whale mint close\");\n    require(addressesWhale[msg.sender] > 0, \"No giveway\");\n    addressesWhale[msg.sender] = 0;\n    _safeMint(msg.sender, _tokenIdCurrentWhale);\n    emit MintedWhale(msg.sender, block.timestamp, _tokenIdCurrentWhale);\n    _tokenIdCurrentWhale++;\n    nbMintedWhale++;\n  }\n\n  function tokenExist(uint256 tokenId) public view returns(bool) {\n    return _exists(tokenId);\n  }\n\n  function setTokenAvailables(uint256[] calldata _tokenIdsAvailable) external onlyOwner {\n    require(block.timestamp > limitMintSpecific, \"Giveway not activate\");\n    tokenAvailables = _tokenIdsAvailable;\n  }\n\n  function getTokenAvailables() public view returns(uint256[] memory) {\n    return tokenAvailables;\n  }\n\n  function countTokenAvailables() public view returns(uint256) {\n    return tokenAvailables.length;\n  }\n\n  function addAddressesGiveway(address[] calldata _toAddAddresses) external onlyOwner {\n    for (uint i = 0; i < _toAddAddresses.length; i++) {\n      addressesGiveway[_toAddAddresses[i]] = 1;\n    }\n  }\n\n  function mintGiveway() external {\n    require(addressesGiveway[msg.sender] > 0, \"No giveway\");\n    addressesGiveway[msg.sender] = 0;\n    _safeMint(msg.sender, tokenAvailables[tokenGivewayIndex]);\n    emit MintedGiveway(msg.sender, block.timestamp, tokenAvailables[tokenGivewayIndex]);\n    tokenGivewayIndex++;\n  }\n}\n",
  "sourcePath": "/Users/rchea/workspaces/MetaLegends/contract-pet/contracts/MetaLifeOgPets.sol",
  "compiler": {
    "name": "solc",
    "version": "0.8.19+commit.7dd6d404.Emscripten.clang"
  },
  "schemaVersion": "3.4.13",
  "updatedAt": "2023-07-01T21:17:27.493Z",
  "networkType": "ethereum",
  "devdoc": {
    "errors": {
      "AccountBalanceOverflow()": [
        {
          "details": "The recipient's balance has overflowed."
        }
      ],
      "BalanceQueryForZeroAddress()": [
        {
          "details": "Cannot query the balance for the zero address."
        }
      ],
      "NotOwnerNorApproved()": [
        {
          "details": "Only the token owner or an approved account can manage the token."
        }
      ],
      "TokenAlreadyExists()": [
        {
          "details": "The token already exists."
        }
      ],
      "TokenDoesNotExist()": [
        {
          "details": "The token does not exist."
        }
      ],
      "TransferFromIncorrectOwner()": [
        {
          "details": "The token must be owned by `from`."
        }
      ],
      "TransferToNonERC721ReceiverImplementer()": [
        {
          "details": "Cannot safely transfer to a contract that does not implement the ERC721Receiver interface."
        }
      ],
      "TransferToZeroAddress()": [
        {
          "details": "Cannot mint or transfer to the zero address."
        }
      ]
    },
    "events": {
      "Approval(address,address,uint256)": {
        "details": "Emitted when `owner` enables `account` to manage the `id` token."
      },
      "ApprovalForAll(address,address,bool)": {
        "details": "Emitted when `owner` enables or disables `operator` to manage all of their tokens."
      },
      "Transfer(address,address,uint256)": {
        "details": "Emitted when token `id` is transferred from `from` to `to`."
      }
    },
    "kind": "dev",
    "methods": {
      "approve(address,uint256)": {
        "details": "Sets `account` as the approved account to manage token `id`. Requirements: - Token `id` must exist. - The caller must be the owner of the token,   or an approved operator for the token owner. Emits a {Approval} event."
      },
      "balanceOf(address)": {
        "details": "Returns the number of tokens owned by `owner`. Requirements: - `owner` must not be the zero address."
      },
      "getApproved(uint256)": {
        "details": "Returns the account approved to managed token `id`. Requirements: - Token `id` must exist."
      },
      "isApprovedForAll(address,address)": {
        "details": "Returns whether `operator` is approved to manage the tokens of `owner`."
      },
      "name()": {
        "details": "Returns the token collection name."
      },
      "owner()": {
        "details": "Returns the address of the current owner."
      },
      "ownerOf(uint256)": {
        "details": "Returns the owner of token `id`. Requirements: - Token `id` must exist."
      },
      "renounceOwnership()": {
        "details": "Leaves the contract without owner. It will not be possible to call `onlyOwner` functions anymore. Can only be called by the current owner. NOTE: Renouncing ownership will leave the contract without an owner, thereby removing any functionality that is only available to the owner."
      },
      "safeTransferFrom(address,address,uint256)": {
        "details": "Equivalent to `safeTransferFrom(from, to, id, \"\")`."
      },
      "safeTransferFrom(address,address,uint256,bytes)": {
        "details": "Transfers token `id` from `from` to `to`. Requirements: - Token `id` must exist. - `from` must be the owner of the token. - `to` cannot be the zero address. - The caller must be the owner of the token, or be approved to manage the token. - If `to` refers to a smart contract, it must implement   {IERC721Receiver-onERC721Received}, which is called upon a safe transfer. Emits a {Transfer} event."
      },
      "setApprovalForAll(address,bool)": {
        "details": "Sets whether `operator` is approved to manage the tokens of the caller. Emits a {ApprovalForAll} event."
      },
      "supportsInterface(bytes4)": {
        "details": "Returns true if this contract implements the interface defined by `interfaceId`. See: https://eips.ethereum.org/EIPS/eip-165 This function call must use less than 30000 gas."
      },
      "symbol()": {
        "details": "Returns the token collection symbol."
      },
      "transferFrom(address,address,uint256)": {
        "details": "Transfers token `id` from `from` to `to`. Requirements: - Token `id` must exist. - `from` must be the owner of the token. - `to` cannot be the zero address. - The caller must be the owner of the token, or be approved to manage the token. Emits a {Transfer} event."
      },
      "transferOwnership(address)": {
        "details": "Transfers ownership of the contract to a new account (`newOwner`). Can only be called by the current owner."
      }
    },
    "version": 1
  },
  "userdoc": {
    "kind": "user",
    "methods": {},
    "version": 1
  }
}