{
  "contractName": "MetaLifeOgPet",
  "abi": [
    {
      "inputs": [
        {
          "internalType": "string",
          "name": "name_",
          "type": "string"
        },
        {
          "internalType": "string",
          "name": "symbol_",
          "type": "string"
        }
      ],
      "stateMutability": "nonpayable",
      "type": "constructor"
    },
    {
      "anonymous": false,
      "inputs": [
        {
          "indexed": false,
          "internalType": "uint256",
          "name": "nbWallets",
          "type": "uint256"
        },
        {
          "indexed": false,
          "internalType": "uint256",
          "name": "countQuantities",
          "type": "uint256"
        }
      ],
      "name": "AddedAddressesEligible",
      "type": "event"
    },
    {
      "anonymous": false,
      "inputs": [
        {
          "indexed": false,
          "internalType": "uint256",
          "name": "nbWallets",
          "type": "uint256"
        }
      ],
      "name": "AddedAddressesGiveway",
      "type": "event"
    },
    {
      "anonymous": false,
      "inputs": [
        {
          "indexed": true,
          "internalType": "address",
          "name": "owner",
          "type": "address"
        },
        {
          "indexed": true,
          "internalType": "address",
          "name": "approved",
          "type": "address"
        },
        {
          "indexed": true,
          "internalType": "uint256",
          "name": "tokenId",
          "type": "uint256"
        }
      ],
      "name": "Approval",
      "type": "event"
    },
    {
      "anonymous": false,
      "inputs": [
        {
          "indexed": true,
          "internalType": "address",
          "name": "owner",
          "type": "address"
        },
        {
          "indexed": true,
          "internalType": "address",
          "name": "operator",
          "type": "address"
        },
        {
          "indexed": false,
          "internalType": "bool",
          "name": "approved",
          "type": "bool"
        }
      ],
      "name": "ApprovalForAll",
      "type": "event"
    },
    {
      "anonymous": false,
      "inputs": [
        {
          "indexed": false,
          "internalType": "uint256",
          "name": "timestamp",
          "type": "uint256"
        },
        {
          "indexed": false,
          "internalType": "uint256[]",
          "name": "tokenIds",
          "type": "uint256[]"
        }
      ],
      "name": "MintedAirdrop",
      "type": "event"
    },
    {
      "anonymous": false,
      "inputs": [
        {
          "indexed": true,
          "internalType": "address",
          "name": "from",
          "type": "address"
        },
        {
          "indexed": false,
          "internalType": "uint256",
          "name": "timestamp",
          "type": "uint256"
        },
        {
          "indexed": false,
          "internalType": "uint256[]",
          "name": "tokenIds",
          "type": "uint256[]"
        }
      ],
      "name": "MintedDev",
      "type": "event"
    },
    {
      "anonymous": false,
      "inputs": [
        {
          "indexed": true,
          "internalType": "address",
          "name": "from",
          "type": "address"
        },
        {
          "indexed": false,
          "internalType": "uint256",
          "name": "timestamp",
          "type": "uint256"
        },
        {
          "indexed": false,
          "internalType": "uint256[]",
          "name": "tokenIds",
          "type": "uint256[]"
        }
      ],
      "name": "MintedEligible",
      "type": "event"
    },
    {
      "anonymous": false,
      "inputs": [
        {
          "indexed": true,
          "internalType": "address",
          "name": "from",
          "type": "address"
        },
        {
          "indexed": false,
          "internalType": "uint256",
          "name": "timestamp",
          "type": "uint256"
        },
        {
          "indexed": false,
          "internalType": "uint256",
          "name": "tokenId",
          "type": "uint256"
        }
      ],
      "name": "MintedGiveway",
      "type": "event"
    },
    {
      "anonymous": false,
      "inputs": [
        {
          "indexed": true,
          "internalType": "address",
          "name": "previousOwner",
          "type": "address"
        },
        {
          "indexed": true,
          "internalType": "address",
          "name": "newOwner",
          "type": "address"
        }
      ],
      "name": "OwnershipTransferred",
      "type": "event"
    },
    {
      "anonymous": false,
      "inputs": [
        {
          "indexed": false,
          "internalType": "uint256",
          "name": "timestamp",
          "type": "uint256"
        }
      ],
      "name": "RevokedAddressesGiveway",
      "type": "event"
    },
    {
      "anonymous": false,
      "inputs": [
        {
          "indexed": true,
          "internalType": "address",
          "name": "from",
          "type": "address"
        },
        {
          "indexed": true,
          "internalType": "address",
          "name": "to",
          "type": "address"
        },
        {
          "indexed": true,
          "internalType": "uint256",
          "name": "tokenId",
          "type": "uint256"
        }
      ],
      "name": "Transfer",
      "type": "event"
    },
    {
      "inputs": [
        {
          "internalType": "address",
          "name": "",
          "type": "address"
        }
      ],
      "name": "addressesAirdrop",
      "outputs": [
        {
          "internalType": "uint8",
          "name": "",
          "type": "uint8"
        }
      ],
      "stateMutability": "view",
      "type": "function",
      "constant": true
    },
    {
      "inputs": [
        {
          "internalType": "address",
          "name": "",
          "type": "address"
        }
      ],
      "name": "addressesEligible",
      "outputs": [
        {
          "internalType": "uint256",
          "name": "",
          "type": "uint256"
        }
      ],
      "stateMutability": "view",
      "type": "function",
      "constant": true
    },
    {
      "inputs": [
        {
          "internalType": "address",
          "name": "",
          "type": "address"
        }
      ],
      "name": "addressesGiveway",
      "outputs": [
        {
          "internalType": "uint8",
          "name": "",
          "type": "uint8"
        }
      ],
      "stateMutability": "view",
      "type": "function",
      "constant": true
    },
    {
      "inputs": [
        {
          "internalType": "address",
          "name": "to",
          "type": "address"
        },
        {
          "internalType": "uint256",
          "name": "tokenId",
          "type": "uint256"
        }
      ],
      "name": "approve",
      "outputs": [],
      "stateMutability": "nonpayable",
      "type": "function"
    },
    {
      "inputs": [
        {
          "internalType": "address",
          "name": "owner",
          "type": "address"
        }
      ],
      "name": "balanceOf",
      "outputs": [
        {
          "internalType": "uint256",
          "name": "",
          "type": "uint256"
        }
      ],
      "stateMutability": "view",
      "type": "function",
      "constant": true
    },
    {
      "inputs": [],
      "name": "baseURI",
      "outputs": [
        {
          "internalType": "string",
          "name": "",
          "type": "string"
        }
      ],
      "stateMutability": "view",
      "type": "function",
      "constant": true
    },
    {
      "inputs": [],
      "name": "collector",
      "outputs": [
        {
          "internalType": "address payable",
          "name": "",
          "type": "address"
        }
      ],
      "stateMutability": "view",
      "type": "function",
      "constant": true
    },
    {
      "inputs": [
        {
          "internalType": "uint256",
          "name": "tokenId",
          "type": "uint256"
        }
      ],
      "name": "getApproved",
      "outputs": [
        {
          "internalType": "address",
          "name": "",
          "type": "address"
        }
      ],
      "stateMutability": "view",
      "type": "function",
      "constant": true
    },
    {
      "inputs": [
        {
          "internalType": "address",
          "name": "owner",
          "type": "address"
        },
        {
          "internalType": "address",
          "name": "operator",
          "type": "address"
        }
      ],
      "name": "isApprovedForAll",
      "outputs": [
        {
          "internalType": "bool",
          "name": "",
          "type": "bool"
        }
      ],
      "stateMutability": "view",
      "type": "function",
      "constant": true
    },
    {
      "inputs": [
        {
          "internalType": "uint256",
          "name": "",
          "type": "uint256"
        }
      ],
      "name": "listAddressesEligible",
      "outputs": [
        {
          "internalType": "address",
          "name": "",
          "type": "address"
        }
      ],
      "stateMutability": "view",
      "type": "function",
      "constant": true
    },
    {
      "inputs": [
        {
          "internalType": "uint256",
          "name": "",
          "type": "uint256"
        }
      ],
      "name": "listAddressesGiveway",
      "outputs": [
        {
          "internalType": "address",
          "name": "",
          "type": "address"
        }
      ],
      "stateMutability": "view",
      "type": "function",
      "constant": true
    },
    {
      "inputs": [],
      "name": "maxSupply",
      "outputs": [
        {
          "internalType": "uint256",
          "name": "",
          "type": "uint256"
        }
      ],
      "stateMutability": "view",
      "type": "function",
      "constant": true
    },
    {
      "inputs": [],
      "name": "mintedAirdrop",
      "outputs": [
        {
          "internalType": "uint256",
          "name": "",
          "type": "uint256"
        }
      ],
      "stateMutability": "view",
      "type": "function",
      "constant": true
    },
    {
      "inputs": [],
      "name": "mintedDev",
      "outputs": [
        {
          "internalType": "uint256",
          "name": "",
          "type": "uint256"
        }
      ],
      "stateMutability": "view",
      "type": "function",
      "constant": true
    },
    {
      "inputs": [],
      "name": "mintedEligible",
      "outputs": [
        {
          "internalType": "uint256",
          "name": "",
          "type": "uint256"
        }
      ],
      "stateMutability": "view",
      "type": "function",
      "constant": true
    },
    {
      "inputs": [],
      "name": "mintedGiveway",
      "outputs": [
        {
          "internalType": "uint256",
          "name": "",
          "type": "uint256"
        }
      ],
      "stateMutability": "view",
      "type": "function",
      "constant": true
    },
    {
      "inputs": [],
      "name": "name",
      "outputs": [
        {
          "internalType": "string",
          "name": "",
          "type": "string"
        }
      ],
      "stateMutability": "view",
      "type": "function",
      "constant": true
    },
    {
      "inputs": [],
      "name": "owner",
      "outputs": [
        {
          "internalType": "address",
          "name": "",
          "type": "address"
        }
      ],
      "stateMutability": "view",
      "type": "function",
      "constant": true
    },
    {
      "inputs": [
        {
          "internalType": "uint256",
          "name": "tokenId",
          "type": "uint256"
        }
      ],
      "name": "ownerOf",
      "outputs": [
        {
          "internalType": "address",
          "name": "",
          "type": "address"
        }
      ],
      "stateMutability": "view",
      "type": "function",
      "constant": true
    },
    {
      "inputs": [],
      "name": "renounceOwnership",
      "outputs": [],
      "stateMutability": "nonpayable",
      "type": "function"
    },
    {
      "inputs": [
        {
          "internalType": "address",
          "name": "from",
          "type": "address"
        },
        {
          "internalType": "address",
          "name": "to",
          "type": "address"
        },
        {
          "internalType": "uint256",
          "name": "tokenId",
          "type": "uint256"
        }
      ],
      "name": "safeTransferFrom",
      "outputs": [],
      "stateMutability": "nonpayable",
      "type": "function"
    },
    {
      "inputs": [
        {
          "internalType": "address",
          "name": "from",
          "type": "address"
        },
        {
          "internalType": "address",
          "name": "to",
          "type": "address"
        },
        {
          "internalType": "uint256",
          "name": "tokenId",
          "type": "uint256"
        },
        {
          "internalType": "bytes",
          "name": "data",
          "type": "bytes"
        }
      ],
      "name": "safeTransferFrom",
      "outputs": [],
      "stateMutability": "nonpayable",
      "type": "function"
    },
    {
      "inputs": [
        {
          "internalType": "address",
          "name": "operator",
          "type": "address"
        },
        {
          "internalType": "bool",
          "name": "approved",
          "type": "bool"
        }
      ],
      "name": "setApprovalForAll",
      "outputs": [],
      "stateMutability": "nonpayable",
      "type": "function"
    },
    {
      "inputs": [
        {
          "internalType": "bytes4",
          "name": "interfaceId",
          "type": "bytes4"
        }
      ],
      "name": "supportsInterface",
      "outputs": [
        {
          "internalType": "bool",
          "name": "",
          "type": "bool"
        }
      ],
      "stateMutability": "view",
      "type": "function",
      "constant": true
    },
    {
      "inputs": [],
      "name": "symbol",
      "outputs": [
        {
          "internalType": "string",
          "name": "",
          "type": "string"
        }
      ],
      "stateMutability": "view",
      "type": "function",
      "constant": true
    },
    {
      "inputs": [
        {
          "internalType": "uint256",
          "name": "index",
          "type": "uint256"
        }
      ],
      "name": "tokenByIndex",
      "outputs": [
        {
          "internalType": "uint256",
          "name": "",
          "type": "uint256"
        }
      ],
      "stateMutability": "view",
      "type": "function",
      "constant": true
    },
    {
      "inputs": [
        {
          "internalType": "address",
          "name": "owner",
          "type": "address"
        },
        {
          "internalType": "uint256",
          "name": "index",
          "type": "uint256"
        }
      ],
      "name": "tokenOfOwnerByIndex",
      "outputs": [
        {
          "internalType": "uint256",
          "name": "",
          "type": "uint256"
        }
      ],
      "stateMutability": "view",
      "type": "function",
      "constant": true
    },
    {
      "inputs": [
        {
          "internalType": "uint256",
          "name": "tokenId",
          "type": "uint256"
        }
      ],
      "name": "tokenURI",
      "outputs": [
        {
          "internalType": "string",
          "name": "",
          "type": "string"
        }
      ],
      "stateMutability": "view",
      "type": "function",
      "constant": true
    },
    {
      "inputs": [],
      "name": "totalSupply",
      "outputs": [
        {
          "internalType": "uint256",
          "name": "",
          "type": "uint256"
        }
      ],
      "stateMutability": "view",
      "type": "function",
      "constant": true
    },
    {
      "inputs": [
        {
          "internalType": "address",
          "name": "from",
          "type": "address"
        },
        {
          "internalType": "address",
          "name": "to",
          "type": "address"
        },
        {
          "internalType": "uint256",
          "name": "tokenId",
          "type": "uint256"
        }
      ],
      "name": "transferFrom",
      "outputs": [],
      "stateMutability": "nonpayable",
      "type": "function"
    },
    {
      "inputs": [
        {
          "internalType": "address",
          "name": "newOwner",
          "type": "address"
        }
      ],
      "name": "transferOwnership",
      "outputs": [],
      "stateMutability": "nonpayable",
      "type": "function"
    },
    {
      "inputs": [],
      "name": "withdrawAll",
      "outputs": [],
      "stateMutability": "payable",
      "type": "function",
      "payable": true
    },
    {
      "inputs": [
        {
          "internalType": "address payable",
          "name": "_newCollector",
          "type": "address"
        }
      ],
      "name": "setCollector",
      "outputs": [],
      "stateMutability": "nonpayable",
      "type": "function"
    },
    {
      "inputs": [],
      "name": "getMintEligible",
      "outputs": [
        {
          "internalType": "uint256",
          "name": "",
          "type": "uint256"
        }
      ],
      "stateMutability": "view",
      "type": "function",
      "constant": true
    },
    {
      "inputs": [
        {
          "internalType": "address",
          "name": "_wallet",
          "type": "address"
        }
      ],
      "name": "getMintEligibleByAddress",
      "outputs": [
        {
          "internalType": "uint256",
          "name": "",
          "type": "uint256"
        }
      ],
      "stateMutability": "view",
      "type": "function",
      "constant": true
    },
    {
      "inputs": [
        {
          "internalType": "address",
          "name": "_address",
          "type": "address"
        }
      ],
      "name": "getMintGivewayByAddress",
      "outputs": [
        {
          "internalType": "uint8",
          "name": "",
          "type": "uint8"
        }
      ],
      "stateMutability": "view",
      "type": "function",
      "constant": true
    },
    {
      "inputs": [
        {
          "internalType": "string",
          "name": "_newBaseURI",
          "type": "string"
        }
      ],
      "name": "_setBaseURI",
      "outputs": [],
      "stateMutability": "nonpayable",
      "type": "function"
    },
    {
      "inputs": [],
      "name": "_restMintEligible",
      "outputs": [
        {
          "internalType": "uint256",
          "name": "",
          "type": "uint256"
        }
      ],
      "stateMutability": "view",
      "type": "function",
      "constant": true
    },
    {
      "inputs": [],
      "name": "_restMintGiveway",
      "outputs": [
        {
          "internalType": "uint256",
          "name": "",
          "type": "uint256"
        }
      ],
      "stateMutability": "view",
      "type": "function",
      "constant": true
    },
    {
      "inputs": [],
      "name": "_restMint",
      "outputs": [
        {
          "internalType": "uint256",
          "name": "",
          "type": "uint256"
        }
      ],
      "stateMutability": "view",
      "type": "function",
      "constant": true
    },
    {
      "inputs": [
        {
          "internalType": "uint256[]",
          "name": "_quantities",
          "type": "uint256[]"
        }
      ],
      "name": "_sumQuantities",
      "outputs": [
        {
          "internalType": "uint256",
          "name": "",
          "type": "uint256"
        }
      ],
      "stateMutability": "pure",
      "type": "function",
      "constant": true
    },
    {
      "inputs": [
        {
          "internalType": "address[]",
          "name": "_toAddAddresses",
          "type": "address[]"
        },
        {
          "internalType": "uint256[]",
          "name": "_quantities",
          "type": "uint256[]"
        }
      ],
      "name": "addAddressesEligible",
      "outputs": [],
      "stateMutability": "nonpayable",
      "type": "function"
    },
    {
      "inputs": [],
      "name": "revokeAddressesGiveway",
      "outputs": [],
      "stateMutability": "nonpayable",
      "type": "function"
    },
    {
      "inputs": [
        {
          "internalType": "uint256",
          "name": "_nb",
          "type": "uint256"
        }
      ],
      "name": "mintEligible",
      "outputs": [],
      "stateMutability": "payable",
      "type": "function",
      "payable": true
    },
    {
      "inputs": [
        {
          "internalType": "uint256",
          "name": "_nb",
          "type": "uint256"
        }
      ],
      "name": "mintDev",
      "outputs": [],
      "stateMutability": "nonpayable",
      "type": "function"
    },
    {
      "inputs": [
        {
          "internalType": "address[]",
          "name": "_toAddAddresses",
          "type": "address[]"
        }
      ],
      "name": "addAddressesGiveway",
      "outputs": [],
      "stateMutability": "nonpayable",
      "type": "function"
    },
    {
      "inputs": [],
      "name": "mintGiveway",
      "outputs": [],
      "stateMutability": "payable",
      "type": "function",
      "payable": true
    },
    {
      "inputs": [
        {
          "internalType": "address[]",
          "name": "_toAirdropAddresses",
          "type": "address[]"
        }
      ],
      "name": "mintAirdrop",
      "outputs": [],
      "stateMutability": "nonpayable",
      "type": "function"
    }
  ],
  "bytecode": "0x60806040526105dc600d5560006014556000601555600060165560006017553480156200002b57600080fd5b5060405162005c9638038062005c9683398181016040528101906200005191906200030a565b8181600160008190555081600190816200006c9190620005da565b5080600290816200007e9190620005da565b505050620000a162000095620000a960201b60201c565b620000b160201b60201c565b5050620006c1565b600033905090565b6000600b60009054906101000a900473ffffffffffffffffffffffffffffffffffffffff16905081600b60006101000a81548173ffffffffffffffffffffffffffffffffffffffff021916908373ffffffffffffffffffffffffffffffffffffffff1602179055508173ffffffffffffffffffffffffffffffffffffffff168173ffffffffffffffffffffffffffffffffffffffff167f8be0079c531659141344cd1fd0a4f28419497f9722a3daafe3b4186f6b6457e060405160405180910390a35050565b6000604051905090565b600080fd5b600080fd5b600080fd5b600080fd5b6000601f19601f8301169050919050565b7f4e487b7100000000000000000000000000000000000000000000000000000000600052604160045260246000fd5b620001e08262000195565b810181811067ffffffffffffffff82111715620002025762000201620001a6565b5b80604052505050565b60006200021762000177565b9050620002258282620001d5565b919050565b600067ffffffffffffffff821115620002485762000247620001a6565b5b620002538262000195565b9050602081019050919050565b60005b838110156200028057808201518184015260208101905062000263565b60008484015250505050565b6000620002a36200029d846200022a565b6200020b565b905082815260208101848484011115620002c257620002c162000190565b5b620002cf84828562000260565b509392505050565b600082601f830112620002ef57620002ee6200018b565b5b8151620003018482602086016200028c565b91505092915050565b6000806040838503121562000324576200032362000181565b5b600083015167ffffffffffffffff81111562000345576200034462000186565b5b6200035385828601620002d7565b925050602083015167ffffffffffffffff81111562000377576200037662000186565b5b6200038585828601620002d7565b9150509250929050565b600081519050919050565b7f4e487b7100000000000000000000000000000000000000000000000000000000600052602260045260246000fd5b60006002820490506001821680620003e257607f821691505b602082108103620003f857620003f76200039a565b5b50919050565b60008190508160005260206000209050919050565b60006020601f8301049050919050565b600082821b905092915050565b600060088302620004627fffffffffffffffffffffffffffffffffffffffffffffffffffffffffffffffff8262000423565b6200046e868362000423565b95508019841693508086168417925050509392505050565b6000819050919050565b6000819050919050565b6000620004bb620004b5620004af8462000486565b62000490565b62000486565b9050919050565b6000819050919050565b620004d7836200049a565b620004ef620004e682620004c2565b84845462000430565b825550505050565b600090565b62000506620004f7565b62000513818484620004cc565b505050565b5b818110156200053b576200052f600082620004fc565b60018101905062000519565b5050565b601f8211156200058a576200055481620003fe565b6200055f8462000413565b810160208510156200056f578190505b620005876200057e8562000413565b83018262000518565b50505b505050565b600082821c905092915050565b6000620005af600019846008026200058f565b1980831691505092915050565b6000620005ca83836200059c565b9150826002028217905092915050565b620005e5826200038f565b67ffffffffffffffff811115620006015762000600620001a6565b5b6200060d8254620003c9565b6200061a8282856200053f565b600060209050601f8311600181146200065257600084156200063d578287015190505b620006498582620005bc565b865550620006b9565b601f1984166200066286620003fe565b60005b828110156200068c5784890151825560018201915060208501945060208101905062000665565b86831015620006ac5784890151620006a8601f8916826200059c565b8355505b6001600288020188555050505b505050505050565b6155c580620006d16000396000f3fe6080604052600436106102935760003560e01c806370a082311161015a578063c5953170116100c1578063e985e9c51161007a578063e985e9c514610a38578063f2fde38b14610a75578063f6d8853614610a9e578063f766af8e14610aa8578063fb5b82d014610ae5578063fba7d7cb14610b0e57610293565b8063c595317014610902578063c599071b1461092b578063c87b56dd14610956578063d5abeb0114610993578063e5325ba1146109be578063e7659074146109fb57610293565b80638da5cb5b116101135780638da5cb5b146107f2578063913e77ad1461081d57806395d89b41146108485780639a7815c314610873578063a22cb465146108b0578063b88d4fde146108d957610293565b806370a0823114610727578063715018a614610764578063729e59f21461077b578063773146b4146107a65780638439f181146107bd578063853828b6146107e857610293565b8063306cbfdb116101fe57806354059a7f116101b757806354059a7f14610603578063541d3da6146106405780636352211e1461066b5780636a301c8b146106a85780636c0360eb146106d15780636d1611eb146106fc57610293565b8063306cbfdb146104e357806331b5b9071461050e578063376dde7f146105375780633829b1531461056057806342842e0e1461059d5780634f6ccce7146105c657610293565b8063095ea7b311610250578063095ea7b3146103e257806315ce7e191461040b57806318160ddd1461042757806319a576721461045257806323b872dd1461047d5780632f745c59146104a657610293565b806301ffc9a71461029857806305af8425146102d557806305b7a6381461031257806306fdde031461034f578063078ae2901461037a578063081812fc146103a5575b600080fd5b3480156102a457600080fd5b506102bf60048036038101906102ba9190613ae4565b610b37565b6040516102cc9190613b2c565b60405180910390f35b3480156102e157600080fd5b506102fc60048036038101906102f79190613ba5565b610bb1565b6040516103099190613bee565b60405180910390f35b34801561031e57600080fd5b5061033960048036038101906103349190613ba5565b610bd1565b6040516103469190613c22565b60405180910390f35b34801561035b57600080fd5b50610364610c1a565b6040516103719190613ccd565b60405180910390f35b34801561038657600080fd5b5061038f610cac565b60405161039c9190613c22565b60405180910390f35b3480156103b157600080fd5b506103cc60048036038101906103c79190613d1b565b610ccd565b6040516103d99190613d57565b60405180910390f35b3480156103ee57600080fd5b5061040960048036038101906104049190613d72565b610d13565b005b61042560048036038101906104209190613d1b565b610e2a565b005b34801561043357600080fd5b5061043c6110e6565b6040516104499190613c22565b60405180910390f35b34801561045e57600080fd5b506104676110f3565b6040516104749190613c22565b60405180910390f35b34801561048957600080fd5b506104a4600480360381019061049f9190613db2565b6110f9565b005b3480156104b257600080fd5b506104cd60048036038101906104c89190613d72565b611159565b6040516104da9190613c22565b60405180910390f35b3480156104ef57600080fd5b506104f86111fe565b6040516105059190613c22565b60405180910390f35b34801561051a57600080fd5b5061053560048036038101906105309190613f3a565b611204565b005b34801561054357600080fd5b5061055e60048036038101906105599190613fe3565b61121f565b005b34801561056c57600080fd5b5061058760048036038101906105829190613d1b565b611419565b6040516105949190613d57565b60405180910390f35b3480156105a957600080fd5b506105c460048036038101906105bf9190613db2565b611458565b005b3480156105d257600080fd5b506105ed60048036038101906105e89190613d1b565b611478565b6040516105fa9190613c22565b60405180910390f35b34801561060f57600080fd5b5061062a60048036038101906106259190613ba5565b6114e9565b6040516106379190613bee565b60405180910390f35b34801561064c57600080fd5b50610655611509565b6040516106629190613c22565b60405180910390f35b34801561067757600080fd5b50610692600480360381019061068d9190613d1b565b6115d6565b60405161069f9190613d57565b60405180910390f35b3480156106b457600080fd5b506106cf60048036038101906106ca9190614086565b61165c565b005b3480156106dd57600080fd5b506106e6611893565b6040516106f39190613ccd565b60405180910390f35b34801561070857600080fd5b50610711611921565b60405161071e9190613c22565b60405180910390f35b34801561073357600080fd5b5061074e60048036038101906107499190613ba5565b611968565b60405161075b9190613c22565b60405180910390f35b34801561077057600080fd5b50610779611a1f565b005b34801561078757600080fd5b50610790611a33565b60405161079d9190613c22565b60405180910390f35b3480156107b257600080fd5b506107bb611af0565b005b3480156107c957600080fd5b506107d2611bfa565b6040516107df9190613c22565b60405180910390f35b6107f0611c00565b005b3480156107fe57600080fd5b50610807611c73565b6040516108149190613d57565b60405180910390f35b34801561082957600080fd5b50610832611c9d565b60405161083f9190614128565b60405180910390f35b34801561085457600080fd5b5061085d611cc3565b60405161086a9190613ccd565b60405180910390f35b34801561087f57600080fd5b5061089a60048036038101906108959190614143565b611d55565b6040516108a79190613c22565b60405180910390f35b3480156108bc57600080fd5b506108d760048036038101906108d291906141bc565b611daf565b005b3480156108e557600080fd5b5061090060048036038101906108fb919061429d565b611dc5565b005b34801561090e57600080fd5b5061092960048036038101906109249190613fe3565b611e27565b005b34801561093757600080fd5b50610940611fb2565b60405161094d9190613c22565b60405180910390f35b34801561096257600080fd5b5061097d60048036038101906109789190613d1b565b611fb8565b60405161098a9190613ccd565b60405180910390f35b34801561099f57600080fd5b506109a8612020565b6040516109b59190613c22565b60405180910390f35b3480156109ca57600080fd5b506109e560048036038101906109e09190613ba5565b612026565b6040516109f29190613c22565b60405180910390f35b348015610a0757600080fd5b50610a226004803603810190610a1d9190613d1b565b61203e565b604051610a2f9190613d57565b60405180910390f35b348015610a4457600080fd5b50610a5f6004803603810190610a5a9190614320565b61207d565b604051610a6c9190613b2c565b60405180910390f35b348015610a8157600080fd5b50610a9c6004803603810190610a979190613ba5565b612111565b005b610aa6612194565b005b348015610ab457600080fd5b50610acf6004803603810190610aca9190613ba5565b6122f7565b604051610adc9190613bee565b60405180910390f35b348015610af157600080fd5b50610b0c6004803603810190610b07919061438c565b61234d565b005b348015610b1a57600080fd5b50610b356004803603810190610b309190613d1b565b612399565b005b60007f780e9d63000000000000000000000000000000000000000000000000000000007bffffffffffffffffffffffffffffffffffffffffffffffffffffffff1916827bffffffffffffffffffffffffffffffffffffffffffffffffffffffff19161480610baa5750610ba982612516565b5b9050919050565b60106020528060005260406000206000915054906101000a900460ff1681565b6000600f60008373ffffffffffffffffffffffffffffffffffffffff1673ffffffffffffffffffffffffffffffffffffffff168152602001908152602001600020549050919050565b606060018054610c29906143e8565b80601f0160208091040260200160405190810160405280929190818152602001828054610c55906143e8565b8015610ca25780601f10610c7757610100808354040283529160200191610ca2565b820191906000526020600020905b815481529060010190602001808311610c8557829003601f168201915b5050505050905090565b6000610cb6611509565b610cbe611a33565b610cc89190614448565b905090565b6000610cd8826125f8565b6005600083815260200190815260200160002060009054906101000a900473ffffffffffffffffffffffffffffffffffffffff169050919050565b6000610d1e826115d6565b90508073ffffffffffffffffffffffffffffffffffffffff168373ffffffffffffffffffffffffffffffffffffffff1603610d8e576040517f08c379a0000000000000000000000000000000000000000000000000000000008152600401610d85906144ee565b60405180910390fd5b8073ffffffffffffffffffffffffffffffffffffffff16610dad612643565b73ffffffffffffffffffffffffffffffffffffffff161480610ddc5750610ddb81610dd6612643565b61207d565b5b610e1b576040517f08c379a0000000000000000000000000000000000000000000000000000000008152600401610e1290614580565b60405180910390fd5b610e25838361264b565b505050565b600d5481610e366110e6565b610e409190614448565b1115610e81576040517f08c379a0000000000000000000000000000000000000000000000000000000008152600401610e78906145ec565b60405180910390fd5b6000600f60003373ffffffffffffffffffffffffffffffffffffffff1673ffffffffffffffffffffffffffffffffffffffff1681526020019081526020016000205411610f03576040517f08c379a0000000000000000000000000000000000000000000000000000000008152600401610efa90614658565b60405180910390fd5b80600f60003373ffffffffffffffffffffffffffffffffffffffff1673ffffffffffffffffffffffffffffffffffffffff168152602001908152602001600020541015610f85576040517f08c379a0000000000000000000000000000000000000000000000000000000008152600401610f7c906146c4565b60405180910390fd5b60008167ffffffffffffffff811115610fa157610fa0613e0f565b5b604051908082528060200260200182016040528015610fcf5781602001602082028036833780820191505090505b50905060005b828163ffffffff16101561109157600f60003373ffffffffffffffffffffffffffffffffffffffff1673ffffffffffffffffffffffffffffffffffffffff1681526020019081526020016000206000815480929190611033906146e4565b91905055506014600081548092919061104b9061470d565b919050555061105933612704565b828263ffffffff168151811061107257611071614755565b5b602002602001018181525050808061108990614794565b915050610fd5565b503373ffffffffffffffffffffffffffffffffffffffff167f153661b823a28785c66945bcedb9d22392b14a2fe435ed04ccd46832cac4580742836040516110da92919061487e565b60405180910390a25050565b6000600980549050905090565b60145481565b61110a611104612643565b82612731565b611149576040517f08c379a000000000000000000000000000000000000000000000000000000000815260040161114090614920565b60405180910390fd5b6111548383836127c6565b505050565b600061116483611968565b82106111a5576040517f08c379a000000000000000000000000000000000000000000000000000000000815260040161119c906149b2565b60405180910390fd5b600760008473ffffffffffffffffffffffffffffffffffffffff1673ffffffffffffffffffffffffffffffffffffffff168152602001908152602001600020600083815260200190815260200160002054905092915050565b60175481565b61120c612abf565b80600c908161121b9190614b7e565b5050565b611227612abf565b600d5482829050611236610cac565b61123e6110e6565b6112489190614448565b6112529190614448565b1115611293576040517f08c379a000000000000000000000000000000000000000000000000000000000815260040161128a906145ec565b60405180910390fd5b60005b828290508110156113da57601060008484848181106112b8576112b7614755565b5b90506020020160208101906112cd9190613ba5565b73ffffffffffffffffffffffffffffffffffffffff1673ffffffffffffffffffffffffffffffffffffffff168152602001908152602001600020600081819054906101000a900460ff168092919061132490614c50565b91906101000a81548160ff021916908360ff16021790555050601383838381811061135257611351614755565b5b90506020020160208101906113679190613ba5565b9080600181540180825580915050600190039060005260206000200160009091909190916101000a81548173ffffffffffffffffffffffffffffffffffffffff021916908373ffffffffffffffffffffffffffffffffffffffff16021790555080806113d29061470d565b915050611296565b507f685881f29b7b424ec7978cb7e306143e7a6419481693301954aefaf9f2eb56088282905060405161140d9190613c22565b60405180910390a15050565b6012818154811061142957600080fd5b906000526020600020016000915054906101000a900473ffffffffffffffffffffffffffffffffffffffff1681565b61147383838360405180602001604052806000815250611dc5565b505050565b60006114826110e6565b82106114c3576040517f08c379a00000000000000000000000000000000000000000000000000000000081526004016114ba90614ceb565b60405180910390fd5b600982815481106114d7576114d6614755565b5b90600052602060002001549050919050565b60116020528060005260406000206000915054906101000a900460ff1681565b6000806000905060005b6013805490508110156115ce57601060006013838154811061153857611537614755565b5b9060005260206000200160009054906101000a900473ffffffffffffffffffffffffffffffffffffffff1673ffffffffffffffffffffffffffffffffffffffff1673ffffffffffffffffffffffffffffffffffffffff16815260200190815260200160002060009054906101000a900460ff1660ff16826115b99190614448565b915080806115c69061470d565b915050611513565b508091505090565b6000806115e283612b3d565b9050600073ffffffffffffffffffffffffffffffffffffffff168173ffffffffffffffffffffffffffffffffffffffff1603611653576040517f08c379a000000000000000000000000000000000000000000000000000000000815260040161164a90614d57565b60405180910390fd5b80915050919050565b611664612abf565b8181905084849050146116ac576040517f08c379a00000000000000000000000000000000000000000000000000000000081526004016116a390614de9565b60405180910390fd5b600d546116b98383611d55565b6116c1610cac565b6116c96110e6565b6116d39190614448565b6116dd9190614448565b111561171e576040517f08c379a0000000000000000000000000000000000000000000000000000000008152600401611715906145ec565b60405180910390fd5b60005b8484905081101561184d5782828281811061173f5761173e614755565b5b90506020020135600f600087878581811061175d5761175c614755565b5b90506020020160208101906117729190613ba5565b73ffffffffffffffffffffffffffffffffffffffff1673ffffffffffffffffffffffffffffffffffffffff1681526020019081526020016000208190555060128585838181106117c5576117c4614755565b5b90506020020160208101906117da9190613ba5565b9080600181540180825580915050600190039060005260206000200160009091909190916101000a81548173ffffffffffffffffffffffffffffffffffffffff021916908373ffffffffffffffffffffffffffffffffffffffff16021790555080806118459061470d565b915050611721565b507fd7fdbf26c99fed7dc4dce6701538602017d388e0b742123d0bb92046331c602a8484905083839050604051611885929190614e09565b60405180910390a150505050565b600c80546118a0906143e8565b80601f01602080910402602001604051908101604052809291908181526020018280546118cc906143e8565b80156119195780601f106118ee57610100808354040283529160200191611919565b820191906000526020600020905b8154815290600101906020018083116118fc57829003601f168201915b505050505081565b6000600f60003373ffffffffffffffffffffffffffffffffffffffff1673ffffffffffffffffffffffffffffffffffffffff16815260200190815260200160002054905090565b60008073ffffffffffffffffffffffffffffffffffffffff168273ffffffffffffffffffffffffffffffffffffffff16036119d8576040517f08c379a00000000000000000000000000000000000000000000000000000000081526004016119cf90614ea4565b60405180910390fd5b600460008373ffffffffffffffffffffffffffffffffffffffff1673ffffffffffffffffffffffffffffffffffffffff168152602001908152602001600020549050919050565b611a27612abf565b611a316000612b7a565b565b6000806000905060005b601280549050811015611ae857600f600060128381548110611a6257611a61614755565b5b9060005260206000200160009054906101000a900473ffffffffffffffffffffffffffffffffffffffff1673ffffffffffffffffffffffffffffffffffffffff1673ffffffffffffffffffffffffffffffffffffffff1681526020019081526020016000205482611ad39190614448565b91508080611ae09061470d565b915050611a3d565b508091505090565b611af8612abf565b60005b601380549050811015611bb25760006010600060138481548110611b2257611b21614755565b5b9060005260206000200160009054906101000a900473ffffffffffffffffffffffffffffffffffffffff1673ffffffffffffffffffffffffffffffffffffffff1673ffffffffffffffffffffffffffffffffffffffff16815260200190815260200160002060006101000a81548160ff021916908360ff1602179055508080611baa9061470d565b915050611afb565b5060136000611bc19190613a3a565b7f12cae2a3bd14848e395f7bd2ddf60c95a1d1884472c00022d520dbbea67d46f942604051611bf09190613c22565b60405180910390a1565b60155481565b611c08612abf565b600e60009054906101000a900473ffffffffffffffffffffffffffffffffffffffff1673ffffffffffffffffffffffffffffffffffffffff166108fc479081150290604051600060405180830381858888f19350505050158015611c70573d6000803e3d6000fd5b50565b6000600b60009054906101000a900473ffffffffffffffffffffffffffffffffffffffff16905090565b600e60009054906101000a900473ffffffffffffffffffffffffffffffffffffffff1681565b606060028054611cd2906143e8565b80601f0160208091040260200160405190810160405280929190818152602001828054611cfe906143e8565b8015611d4b5780601f10611d2057610100808354040283529160200191611d4b565b820191906000526020600020905b815481529060010190602001808311611d2e57829003601f168201915b5050505050905090565b6000806000905060005b84849050811015611da457848482818110611d7d57611d7c614755565b5b9050602002013582611d8f9190614448565b91508080611d9c9061470d565b915050611d5f565b508091505092915050565b611dc1611dba612643565b8383612c40565b5050565b611dd6611dd0612643565b83612731565b611e15576040517f08c379a0000000000000000000000000000000000000000000000000000000008152600401611e0c90614920565b60405180910390fd5b611e2184848484612dac565b50505050565b611e2f612abf565b600d5482829050611e3e610cac565b611e466110e6565b611e509190614448565b611e5a9190614448565b1115611e9b576040517f08c379a0000000000000000000000000000000000000000000000000000000008152600401611e92906145ec565b60405180910390fd5b60008282905067ffffffffffffffff811115611eba57611eb9613e0f565b5b604051908082528060200260200182016040528015611ee85781602001602082028036833780820191505090505b50905060005b83839050811015611f735760166000815480929190611f0c9061470d565b9190505550611f41848483818110611f2757611f26614755565b5b9050602002016020810190611f3c9190613ba5565b612704565b828281518110611f5457611f53614755565b5b6020026020010181815250508080611f6b9061470d565b915050611eee565b507f7240abb4cf762c2b9de052ad9e444ae3ae360eeb08d171b6f481bfe93fd589d54282604051611fa592919061487e565b60405180910390a1505050565b60165481565b6060611fc3826125f8565b6000611fcd612e08565b90506000815111611fed5760405180602001604052806000815250612018565b80611ff784612e9a565b604051602001612008929190614f00565b6040516020818303038152906040525b915050919050565b600d5481565b600f6020528060005260406000206000915090505481565b6013818154811061204e57600080fd5b906000526020600020016000915054906101000a900473ffffffffffffffffffffffffffffffffffffffff1681565b6000600660008473ffffffffffffffffffffffffffffffffffffffff1673ffffffffffffffffffffffffffffffffffffffff16815260200190815260200160002060008373ffffffffffffffffffffffffffffffffffffffff1673ffffffffffffffffffffffffffffffffffffffff16815260200190815260200160002060009054906101000a900460ff16905092915050565b612119612abf565b600073ffffffffffffffffffffffffffffffffffffffff168173ffffffffffffffffffffffffffffffffffffffff1603612188576040517f08c379a000000000000000000000000000000000000000000000000000000000815260040161217f90614f96565b60405180910390fd5b61219181612b7a565b50565b6000601060003373ffffffffffffffffffffffffffffffffffffffff1673ffffffffffffffffffffffffffffffffffffffff16815260200190815260200160002060009054906101000a900460ff1660ff1611612226576040517f08c379a000000000000000000000000000000000000000000000000000000000815260040161221d90615002565b60405180910390fd5b6000601060003373ffffffffffffffffffffffffffffffffffffffff1673ffffffffffffffffffffffffffffffffffffffff16815260200190815260200160002060006101000a81548160ff021916908360ff160217905550601560008154809291906122929061470d565b919050555060006122a233612704565b90503373ffffffffffffffffffffffffffffffffffffffff167fa72aa19bfd87e001e03ac6bf966e0f914e84e90c84f842017e87ffc32547505f42836040516122ec929190614e09565b60405180910390a250565b6000601060008373ffffffffffffffffffffffffffffffffffffffff1673ffffffffffffffffffffffffffffffffffffffff16815260200190815260200160002060009054906101000a900460ff169050919050565b612355612abf565b80600e60006101000a81548173ffffffffffffffffffffffffffffffffffffffff021916908373ffffffffffffffffffffffffffffffffffffffff16021790555050565b6123a1612abf565b600d54816123ad610cac565b6123b56110e6565b6123bf9190614448565b6123c99190614448565b111561240a576040517f08c379a0000000000000000000000000000000000000000000000000000000008152600401612401906145ec565b60405180910390fd5b60008167ffffffffffffffff81111561242657612425613e0f565b5b6040519080825280602002602001820160405280156124545781602001602082028036833780820191505090505b50905060005b828163ffffffff1610156124c1576017600081548092919061247b9061470d565b919050555061248933612704565b828263ffffffff16815181106124a2576124a1614755565b5b60200260200101818152505080806124b990614794565b91505061245a565b503373ffffffffffffffffffffffffffffffffffffffff167fbd547d42d8b7c4752032a26935a6490f6234a43a6f1ae3d267b3f000aa51ec62428360405161250a92919061487e565b60405180910390a25050565b60007f80ac58cd000000000000000000000000000000000000000000000000000000007bffffffffffffffffffffffffffffffffffffffffffffffffffffffff1916827bffffffffffffffffffffffffffffffffffffffffffffffffffffffff191614806125e157507f5b5e139f000000000000000000000000000000000000000000000000000000007bffffffffffffffffffffffffffffffffffffffffffffffffffffffff1916827bffffffffffffffffffffffffffffffffffffffffffffffffffffffff1916145b806125f157506125f082612f68565b5b9050919050565b61260181612fd2565b612640576040517f08c379a000000000000000000000000000000000000000000000000000000000815260040161263790614d57565b60405180910390fd5b50565b600033905090565b816005600083815260200190815260200160002060006101000a81548173ffffffffffffffffffffffffffffffffffffffff021916908373ffffffffffffffffffffffffffffffffffffffff160217905550808273ffffffffffffffffffffffffffffffffffffffff166126be836115d6565b73ffffffffffffffffffffffffffffffffffffffff167f8c5be1e5ebec7d5bd14f71427d1e84f3dd0314c0f7b2291e5b200ac8c7c3b92560405160405180910390a45050565b60006127106018613013565b600061271c6018613029565b90506127288382613037565b80915050919050565b60008061273d836115d6565b90508073ffffffffffffffffffffffffffffffffffffffff168473ffffffffffffffffffffffffffffffffffffffff16148061277f575061277e818561207d565b5b806127bd57508373ffffffffffffffffffffffffffffffffffffffff166127a584610ccd565b73ffffffffffffffffffffffffffffffffffffffff16145b91505092915050565b8273ffffffffffffffffffffffffffffffffffffffff166127e6826115d6565b73ffffffffffffffffffffffffffffffffffffffff161461283c576040517f08c379a000000000000000000000000000000000000000000000000000000000815260040161283390615094565b60405180910390fd5b600073ffffffffffffffffffffffffffffffffffffffff168273ffffffffffffffffffffffffffffffffffffffff16036128ab576040517f08c379a00000000000000000000000000000000000000000000000000000000081526004016128a290615126565b60405180910390fd5b6128b88383836001613055565b8273ffffffffffffffffffffffffffffffffffffffff166128d8826115d6565b73ffffffffffffffffffffffffffffffffffffffff161461292e576040517f08c379a000000000000000000000000000000000000000000000000000000000815260040161292590615094565b60405180910390fd5b6005600082815260200190815260200160002060006101000a81549073ffffffffffffffffffffffffffffffffffffffff02191690556001600460008573ffffffffffffffffffffffffffffffffffffffff1673ffffffffffffffffffffffffffffffffffffffff168152602001908152602001600020600082825403925050819055506001600460008473ffffffffffffffffffffffffffffffffffffffff1673ffffffffffffffffffffffffffffffffffffffff16815260200190815260200160002060008282540192505081905550816003600083815260200190815260200160002060006101000a81548173ffffffffffffffffffffffffffffffffffffffff021916908373ffffffffffffffffffffffffffffffffffffffff160217905550808273ffffffffffffffffffffffffffffffffffffffff168473ffffffffffffffffffffffffffffffffffffffff167fddf252ad1be2c89b69c2b068fc378daa952ba7f163c4a11628f55a4df523b3ef60405160405180910390a4612aba83838360016131b3565b505050565b612ac7612643565b73ffffffffffffffffffffffffffffffffffffffff16612ae5611c73565b73ffffffffffffffffffffffffffffffffffffffff1614612b3b576040517f08c379a0000000000000000000000000000000000000000000000000000000008152600401612b3290615192565b60405180910390fd5b565b60006003600083815260200190815260200160002060009054906101000a900473ffffffffffffffffffffffffffffffffffffffff169050919050565b6000600b60009054906101000a900473ffffffffffffffffffffffffffffffffffffffff16905081600b60006101000a81548173ffffffffffffffffffffffffffffffffffffffff021916908373ffffffffffffffffffffffffffffffffffffffff1602179055508173ffffffffffffffffffffffffffffffffffffffff168173ffffffffffffffffffffffffffffffffffffffff167f8be0079c531659141344cd1fd0a4f28419497f9722a3daafe3b4186f6b6457e060405160405180910390a35050565b8173ffffffffffffffffffffffffffffffffffffffff168373ffffffffffffffffffffffffffffffffffffffff1603612cae576040517f08c379a0000000000000000000000000000000000000000000000000000000008152600401612ca5906151fe565b60405180910390fd5b80600660008573ffffffffffffffffffffffffffffffffffffffff1673ffffffffffffffffffffffffffffffffffffffff16815260200190815260200160002060008473ffffffffffffffffffffffffffffffffffffffff1673ffffffffffffffffffffffffffffffffffffffff16815260200190815260200160002060006101000a81548160ff0219169083151502179055508173ffffffffffffffffffffffffffffffffffffffff168373ffffffffffffffffffffffffffffffffffffffff167f17307eab39ab6107e8899845ad3d59bd9653f200f220920489ca2b5937696c3183604051612d9f9190613b2c565b60405180910390a3505050565b612db78484846127c6565b612dc3848484846131b9565b612e02576040517f08c379a0000000000000000000000000000000000000000000000000000000008152600401612df990615290565b60405180910390fd5b50505050565b6060600c8054612e17906143e8565b80601f0160208091040260200160405190810160405280929190818152602001828054612e43906143e8565b8015612e905780601f10612e6557610100808354040283529160200191612e90565b820191906000526020600020905b815481529060010190602001808311612e7357829003601f168201915b5050505050905090565b606060006001612ea984613340565b01905060008167ffffffffffffffff811115612ec857612ec7613e0f565b5b6040519080825280601f01601f191660200182016040528015612efa5781602001600182028036833780820191505090505b509050600082602001820190505b600115612f5d578080600190039150507f3031323334353637383961626364656600000000000000000000000000000000600a86061a8153600a8581612f5157612f506152b0565b5b04945060008503612f08575b819350505050919050565b60007f01ffc9a7000000000000000000000000000000000000000000000000000000007bffffffffffffffffffffffffffffffffffffffffffffffffffffffff1916827bffffffffffffffffffffffffffffffffffffffffffffffffffffffff1916149050919050565b60008073ffffffffffffffffffffffffffffffffffffffff16612ff483612b3d565b73ffffffffffffffffffffffffffffffffffffffff1614159050919050565b6001816000016000828254019250508190555050565b600081600001549050919050565b613051828260405180602001604052806000815250613493565b5050565b613061848484846134ee565b60018111156130a5576040517f08c379a000000000000000000000000000000000000000000000000000000000815260040161309c90615351565b60405180910390fd5b6000829050600073ffffffffffffffffffffffffffffffffffffffff168573ffffffffffffffffffffffffffffffffffffffff16036130ec576130e7816134f4565b61312b565b8373ffffffffffffffffffffffffffffffffffffffff168573ffffffffffffffffffffffffffffffffffffffff161461312a57613129858261353d565b5b5b600073ffffffffffffffffffffffffffffffffffffffff168473ffffffffffffffffffffffffffffffffffffffff160361316d57613168816136aa565b6131ac565b8473ffffffffffffffffffffffffffffffffffffffff168473ffffffffffffffffffffffffffffffffffffffff16146131ab576131aa848261377b565b5b5b5050505050565b50505050565b60006131da8473ffffffffffffffffffffffffffffffffffffffff166137fa565b15613333578373ffffffffffffffffffffffffffffffffffffffff1663150b7a02613203612643565b8786866040518563ffffffff1660e01b815260040161322594939291906153c6565b6020604051808303816000875af192505050801561326157506040513d601f19601f8201168201806040525081019061325e9190615427565b60015b6132e3573d8060008114613291576040519150601f19603f3d011682016040523d82523d6000602084013e613296565b606091505b5060008151036132db576040517f08c379a00000000000000000000000000000000000000000000000000000000081526004016132d290615290565b60405180910390fd5b805181602001fd5b63150b7a0260e01b7bffffffffffffffffffffffffffffffffffffffffffffffffffffffff1916817bffffffffffffffffffffffffffffffffffffffffffffffffffffffff191614915050613338565b600190505b949350505050565b600080600090507a184f03e93ff9f4daa797ed6e38ed64bf6a1f010000000000000000831061339e577a184f03e93ff9f4daa797ed6e38ed64bf6a1f0100000000000000008381613394576133936152b0565b5b0492506040810190505b6d04ee2d6d415b85acef810000000083106133db576d04ee2d6d415b85acef810000000083816133d1576133d06152b0565b5b0492506020810190505b662386f26fc10000831061340a57662386f26fc100008381613400576133ff6152b0565b5b0492506010810190505b6305f5e1008310613433576305f5e1008381613429576134286152b0565b5b0492506008810190505b612710831061345857612710838161344e5761344d6152b0565b5b0492506004810190505b6064831061347b5760648381613471576134706152b0565b5b0492506002810190505b600a831061348a576001810190505b80915050919050565b61349d838361381d565b6134aa60008484846131b9565b6134e9576040517f08c379a00000000000000000000000000000000000000000000000000000000081526004016134e090615290565b60405180910390fd5b505050565b50505050565b600980549050600a600083815260200190815260200160002081905550600981908060018154018082558091505060019003906000526020600020016000909190919091505550565b6000600161354a84611968565b6135549190615454565b9050600060086000848152602001908152602001600020549050818114613639576000600760008673ffffffffffffffffffffffffffffffffffffffff1673ffffffffffffffffffffffffffffffffffffffff168152602001908152602001600020600084815260200190815260200160002054905080600760008773ffffffffffffffffffffffffffffffffffffffff1673ffffffffffffffffffffffffffffffffffffffff168152602001908152602001600020600084815260200190815260200160002081905550816008600083815260200190815260200160002081905550505b6008600084815260200190815260200160002060009055600760008573ffffffffffffffffffffffffffffffffffffffff1673ffffffffffffffffffffffffffffffffffffffff16815260200190815260200160002060008381526020019081526020016000206000905550505050565b600060016009805490506136be9190615454565b90506000600a60008481526020019081526020016000205490506000600983815481106136ee576136ed614755565b5b9060005260206000200154905080600983815481106137105761370f614755565b5b906000526020600020018190555081600a600083815260200190815260200160002081905550600a600085815260200190815260200160002060009055600980548061375f5761375e615488565b5b6001900381819060005260206000200160009055905550505050565b600061378683611968565b905081600760008573ffffffffffffffffffffffffffffffffffffffff1673ffffffffffffffffffffffffffffffffffffffff168152602001908152602001600020600083815260200190815260200160002081905550806008600084815260200190815260200160002081905550505050565b6000808273ffffffffffffffffffffffffffffffffffffffff163b119050919050565b600073ffffffffffffffffffffffffffffffffffffffff168273ffffffffffffffffffffffffffffffffffffffff160361388c576040517f08c379a000000000000000000000000000000000000000000000000000000000815260040161388390615503565b60405180910390fd5b61389581612fd2565b156138d5576040517f08c379a00000000000000000000000000000000000000000000000000000000081526004016138cc9061556f565b60405180910390fd5b6138e3600083836001613055565b6138ec81612fd2565b1561392c576040517f08c379a00000000000000000000000000000000000000000000000000000000081526004016139239061556f565b60405180910390fd5b6001600460008473ffffffffffffffffffffffffffffffffffffffff1673ffffffffffffffffffffffffffffffffffffffff16815260200190815260200160002060008282540192505081905550816003600083815260200190815260200160002060006101000a81548173ffffffffffffffffffffffffffffffffffffffff021916908373ffffffffffffffffffffffffffffffffffffffff160217905550808273ffffffffffffffffffffffffffffffffffffffff16600073ffffffffffffffffffffffffffffffffffffffff167fddf252ad1be2c89b69c2b068fc378daa952ba7f163c4a11628f55a4df523b3ef60405160405180910390a4613a366000838360016131b3565b5050565b5080546000825590600052602060002090810190613a589190613a5b565b50565b5b80821115613a74576000816000905550600101613a5c565b5090565b6000604051905090565b600080fd5b600080fd5b60007fffffffff0000000000000000000000000000000000000000000000000000000082169050919050565b613ac181613a8c565b8114613acc57600080fd5b50565b600081359050613ade81613ab8565b92915050565b600060208284031215613afa57613af9613a82565b5b6000613b0884828501613acf565b91505092915050565b60008115159050919050565b613b2681613b11565b82525050565b6000602082019050613b416000830184613b1d565b92915050565b600073ffffffffffffffffffffffffffffffffffffffff82169050919050565b6000613b7282613b47565b9050919050565b613b8281613b67565b8114613b8d57600080fd5b50565b600081359050613b9f81613b79565b92915050565b600060208284031215613bbb57613bba613a82565b5b6000613bc984828501613b90565b91505092915050565b600060ff82169050919050565b613be881613bd2565b82525050565b6000602082019050613c036000830184613bdf565b92915050565b6000819050919050565b613c1c81613c09565b82525050565b6000602082019050613c376000830184613c13565b92915050565b600081519050919050565b600082825260208201905092915050565b60005b83811015613c77578082015181840152602081019050613c5c565b60008484015250505050565b6000601f19601f8301169050919050565b6000613c9f82613c3d565b613ca98185613c48565b9350613cb9818560208601613c59565b613cc281613c83565b840191505092915050565b60006020820190508181036000830152613ce78184613c94565b905092915050565b613cf881613c09565b8114613d0357600080fd5b50565b600081359050613d1581613cef565b92915050565b600060208284031215613d3157613d30613a82565b5b6000613d3f84828501613d06565b91505092915050565b613d5181613b67565b82525050565b6000602082019050613d6c6000830184613d48565b92915050565b60008060408385031215613d8957613d88613a82565b5b6000613d9785828601613b90565b9250506020613da885828601613d06565b9150509250929050565b600080600060608486031215613dcb57613dca613a82565b5b6000613dd986828701613b90565b9350506020613dea86828701613b90565b9250506040613dfb86828701613d06565b9150509250925092565b600080fd5b600080fd5b7f4e487b7100000000000000000000000000000000000000000000000000000000600052604160045260246000fd5b613e4782613c83565b810181811067ffffffffffffffff82111715613e6657613e65613e0f565b5b80604052505050565b6000613e79613a78565b9050613e858282613e3e565b919050565b600067ffffffffffffffff821115613ea557613ea4613e0f565b5b613eae82613c83565b9050602081019050919050565b82818337600083830152505050565b6000613edd613ed884613e8a565b613e6f565b905082815260208101848484011115613ef957613ef8613e0a565b5b613f04848285613ebb565b509392505050565b600082601f830112613f2157613f20613e05565b5b8135613f31848260208601613eca565b91505092915050565b600060208284031215613f5057613f4f613a82565b5b600082013567ffffffffffffffff811115613f6e57613f6d613a87565b5b613f7a84828501613f0c565b91505092915050565b600080fd5b600080fd5b60008083601f840112613fa357613fa2613e05565b5b8235905067ffffffffffffffff811115613fc057613fbf613f83565b5b602083019150836020820283011115613fdc57613fdb613f88565b5b9250929050565b60008060208385031215613ffa57613ff9613a82565b5b600083013567ffffffffffffffff81111561401857614017613a87565b5b61402485828601613f8d565b92509250509250929050565b60008083601f84011261404657614045613e05565b5b8235905067ffffffffffffffff81111561406357614062613f83565b5b60208301915083602082028301111561407f5761407e613f88565b5b9250929050565b600080600080604085870312156140a05761409f613a82565b5b600085013567ffffffffffffffff8111156140be576140bd613a87565b5b6140ca87828801613f8d565b9450945050602085013567ffffffffffffffff8111156140ed576140ec613a87565b5b6140f987828801614030565b925092505092959194509250565b600061411282613b47565b9050919050565b61412281614107565b82525050565b600060208201905061413d6000830184614119565b92915050565b6000806020838503121561415a57614159613a82565b5b600083013567ffffffffffffffff81111561417857614177613a87565b5b61418485828601614030565b92509250509250929050565b61419981613b11565b81146141a457600080fd5b50565b6000813590506141b681614190565b92915050565b600080604083850312156141d3576141d2613a82565b5b60006141e185828601613b90565b92505060206141f2858286016141a7565b9150509250929050565b600067ffffffffffffffff82111561421757614216613e0f565b5b61422082613c83565b9050602081019050919050565b600061424061423b846141fc565b613e6f565b90508281526020810184848401111561425c5761425b613e0a565b5b614267848285613ebb565b509392505050565b600082601f83011261428457614283613e05565b5b813561429484826020860161422d565b91505092915050565b600080600080608085870312156142b7576142b6613a82565b5b60006142c587828801613b90565b94505060206142d687828801613b90565b93505060406142e787828801613d06565b925050606085013567ffffffffffffffff81111561430857614307613a87565b5b6143148782880161426f565b91505092959194509250565b6000806040838503121561433757614336613a82565b5b600061434585828601613b90565b925050602061435685828601613b90565b9150509250929050565b61436981614107565b811461437457600080fd5b50565b60008135905061438681614360565b92915050565b6000602082840312156143a2576143a1613a82565b5b60006143b084828501614377565b91505092915050565b7f4e487b7100000000000000000000000000000000000000000000000000000000600052602260045260246000fd5b6000600282049050600182168061440057607f821691505b602082108103614413576144126143b9565b5b50919050565b7f4e487b7100000000000000000000000000000000000000000000000000000000600052601160045260246000fd5b600061445382613c09565b915061445e83613c09565b925082820190508082111561447657614475614419565b5b92915050565b7f4552433732313a20617070726f76616c20746f2063757272656e74206f776e6560008201527f7200000000000000000000000000000000000000000000000000000000000000602082015250565b60006144d8602183613c48565b91506144e38261447c565b604082019050919050565b60006020820190508181036000830152614507816144cb565b9050919050565b7f4552433732313a20617070726f76652063616c6c6572206973206e6f7420746f60008201527f6b656e206f776e6572206f7220617070726f76656420666f7220616c6c000000602082015250565b600061456a603d83613c48565b91506145758261450e565b604082019050919050565b600060208201905081810360008301526145998161455d565b9050919050565b7f4e6f7420656e6f75676820746f6b656e73206c65667400000000000000000000600082015250565b60006145d6601683613c48565b91506145e1826145a0565b602082019050919050565b60006020820190508181036000830152614605816145c9565b9050919050565b7f4e6f7420656c696769626c650000000000000000000000000000000000000000600082015250565b6000614642600c83613c48565b915061464d8261460c565b602082019050919050565b6000602082019050818103600083015261467181614635565b9050919050565b7f4e6f7420656e6f75676820636c61696d61626c6520746f6b656e730000000000600082015250565b60006146ae601b83613c48565b91506146b982614678565b602082019050919050565b600060208201905081810360008301526146dd816146a1565b9050919050565b60006146ef82613c09565b91506000820361470257614701614419565b5b600182039050919050565b600061471882613c09565b91507fffffffffffffffffffffffffffffffffffffffffffffffffffffffffffffffff820361474a57614749614419565b5b600182019050919050565b7f4e487b7100000000000000000000000000000000000000000000000000000000600052603260045260246000fd5b600063ffffffff82169050919050565b600061479f82614784565b915063ffffffff82036147b5576147b4614419565b5b600182019050919050565b600081519050919050565b600082825260208201905092915050565b6000819050602082019050919050565b6147f581613c09565b82525050565b600061480783836147ec565b60208301905092915050565b6000602082019050919050565b600061482b826147c0565b61483581856147cb565b9350614840836147dc565b8060005b8381101561487157815161485888826147fb565b975061486383614813565b925050600181019050614844565b5085935050505092915050565b60006040820190506148936000830185613c13565b81810360208301526148a58184614820565b90509392505050565b7f4552433732313a2063616c6c6572206973206e6f7420746f6b656e206f776e6560008201527f72206f7220617070726f76656400000000000000000000000000000000000000602082015250565b600061490a602d83613c48565b9150614915826148ae565b604082019050919050565b60006020820190508181036000830152614939816148fd565b9050919050565b7f455243373231456e756d657261626c653a206f776e657220696e646578206f7560008201527f74206f6620626f756e6473000000000000000000000000000000000000000000602082015250565b600061499c602b83613c48565b91506149a782614940565b604082019050919050565b600060208201905081810360008301526149cb8161498f565b9050919050565b60008190508160005260206000209050919050565b60006020601f8301049050919050565b600082821b905092915050565b600060088302614a347fffffffffffffffffffffffffffffffffffffffffffffffffffffffffffffffff826149f7565b614a3e86836149f7565b95508019841693508086168417925050509392505050565b6000819050919050565b6000614a7b614a76614a7184613c09565b614a56565b613c09565b9050919050565b6000819050919050565b614a9583614a60565b614aa9614aa182614a82565b848454614a04565b825550505050565b600090565b614abe614ab1565b614ac9818484614a8c565b505050565b5b81811015614aed57614ae2600082614ab6565b600181019050614acf565b5050565b601f821115614b3257614b03816149d2565b614b0c846149e7565b81016020851015614b1b578190505b614b2f614b27856149e7565b830182614ace565b50505b505050565b600082821c905092915050565b6000614b5560001984600802614b37565b1980831691505092915050565b6000614b6e8383614b44565b9150826002028217905092915050565b614b8782613c3d565b67ffffffffffffffff811115614ba057614b9f613e0f565b5b614baa82546143e8565b614bb5828285614af1565b600060209050601f831160018114614be85760008415614bd6578287015190505b614be08582614b62565b865550614c48565b601f198416614bf6866149d2565b60005b82811015614c1e57848901518255600182019150602085019450602081019050614bf9565b86831015614c3b5784890151614c37601f891682614b44565b8355505b6001600288020188555050505b505050505050565b6000614c5b82613bd2565b915060ff8203614c6e57614c6d614419565b5b600182019050919050565b7f455243373231456e756d657261626c653a20676c6f62616c20696e646578206f60008201527f7574206f6620626f756e64730000000000000000000000000000000000000000602082015250565b6000614cd5602c83613c48565b9150614ce082614c79565b604082019050919050565b60006020820190508181036000830152614d0481614cc8565b9050919050565b7f4552433732313a20696e76616c696420746f6b656e2049440000000000000000600082015250565b6000614d41601883613c48565b9150614d4c82614d0b565b602082019050919050565b60006020820190508181036000830152614d7081614d34565b9050919050565b7f436f756e742061646472657373657320616e6420636f756e74207175616e746960008201527f74696573206d75737420626520657175616c0000000000000000000000000000602082015250565b6000614dd3603283613c48565b9150614dde82614d77565b604082019050919050565b60006020820190508181036000830152614e0281614dc6565b9050919050565b6000604082019050614e1e6000830185613c13565b614e2b6020830184613c13565b9392505050565b7f4552433732313a2061646472657373207a65726f206973206e6f74206120766160008201527f6c6964206f776e65720000000000000000000000000000000000000000000000602082015250565b6000614e8e602983613c48565b9150614e9982614e32565b604082019050919050565b60006020820190508181036000830152614ebd81614e81565b9050919050565b600081905092915050565b6000614eda82613c3d565b614ee48185614ec4565b9350614ef4818560208601613c59565b80840191505092915050565b6000614f0c8285614ecf565b9150614f188284614ecf565b91508190509392505050565b7f4f776e61626c653a206e6577206f776e657220697320746865207a65726f206160008201527f6464726573730000000000000000000000000000000000000000000000000000602082015250565b6000614f80602683613c48565b9150614f8b82614f24565b604082019050919050565b60006020820190508181036000830152614faf81614f73565b9050919050565b7f4e6f206769766577617900000000000000000000000000000000000000000000600082015250565b6000614fec600a83613c48565b9150614ff782614fb6565b602082019050919050565b6000602082019050818103600083015261501b81614fdf565b9050919050565b7f4552433732313a207472616e736665722066726f6d20696e636f72726563742060008201527f6f776e6572000000000000000000000000000000000000000000000000000000602082015250565b600061507e602583613c48565b915061508982615022565b604082019050919050565b600060208201905081810360008301526150ad81615071565b9050919050565b7f4552433732313a207472616e7366657220746f20746865207a65726f2061646460008201527f7265737300000000000000000000000000000000000000000000000000000000602082015250565b6000615110602483613c48565b915061511b826150b4565b604082019050919050565b6000602082019050818103600083015261513f81615103565b9050919050565b7f4f776e61626c653a2063616c6c6572206973206e6f7420746865206f776e6572600082015250565b600061517c602083613c48565b915061518782615146565b602082019050919050565b600060208201905081810360008301526151ab8161516f565b9050919050565b7f4552433732313a20617070726f766520746f2063616c6c657200000000000000600082015250565b60006151e8601983613c48565b91506151f3826151b2565b602082019050919050565b60006020820190508181036000830152615217816151db565b9050919050565b7f4552433732313a207472616e7366657220746f206e6f6e20455243373231526560008201527f63656976657220696d706c656d656e7465720000000000000000000000000000602082015250565b600061527a603283613c48565b91506152858261521e565b604082019050919050565b600060208201905081810360008301526152a98161526d565b9050919050565b7f4e487b7100000000000000000000000000000000000000000000000000000000600052601260045260246000fd5b7f455243373231456e756d657261626c653a20636f6e736563757469766520747260008201527f616e7366657273206e6f7420737570706f727465640000000000000000000000602082015250565b600061533b603583613c48565b9150615346826152df565b604082019050919050565b6000602082019050818103600083015261536a8161532e565b9050919050565b600081519050919050565b600082825260208201905092915050565b600061539882615371565b6153a2818561537c565b93506153b2818560208601613c59565b6153bb81613c83565b840191505092915050565b60006080820190506153db6000830187613d48565b6153e86020830186613d48565b6153f56040830185613c13565b8181036060830152615407818461538d565b905095945050505050565b60008151905061542181613ab8565b92915050565b60006020828403121561543d5761543c613a82565b5b600061544b84828501615412565b91505092915050565b600061545f82613c09565b915061546a83613c09565b925082820390508181111561548257615481614419565b5b92915050565b7f4e487b7100000000000000000000000000000000000000000000000000000000600052603160045260246000fd5b7f4552433732313a206d696e7420746f20746865207a65726f2061646472657373600082015250565b60006154ed602083613c48565b91506154f8826154b7565b602082019050919050565b6000602082019050818103600083015261551c816154e0565b9050919050565b7f4552433732313a20746f6b656e20616c7265616479206d696e74656400000000600082015250565b6000615559601c83613c48565b915061556482615523565b602082019050919050565b600060208201905081810360008301526155888161554c565b905091905056fea264697066735822122038cf4ae8d051008ca036e1f9b3afa7b70654bfdb6d57940f9c37e7f45a73d20c64736f6c63430008130033",
  "immutableReferences": {},
  "source": "// SPDX-License-Identifier: MIT\npragma solidity 0.8.19;\n\nimport \"@openzeppelin/contracts/token/ERC721/extensions/ERC721Enumerable.sol\";\nimport \"@openzeppelin/contracts/access/Ownable.sol\";\nimport \"@openzeppelin/contracts/security/ReentrancyGuard.sol\";\nimport \"@openzeppelin/contracts/utils/Address.sol\";\nimport \"@openzeppelin/contracts/utils/Counters.sol\";\nimport \"@openzeppelin/contracts/utils/Strings.sol\";\n\ncontract MetaLifeOgPet is ReentrancyGuard, ERC721Enumerable, Ownable {\n\n  using Counters for Counters.Counter;\n  using Strings for uint256;\n\n  // Logs\n  event AddedAddressesEligible(uint256 nbWallets, uint256 countQuantities);\n  event AddedAddressesGiveway(uint256 nbWallets);\n\n  event MintedEligible(address indexed from, uint256 timestamp, uint256[] tokenIds);\n  event MintedGiveway(address indexed from, uint256 timestamp, uint256 tokenId);\n  event MintedAirdrop(uint256 timestamp, uint256[] tokenIds);\n  event MintedDev(address indexed from, uint256 timestamp, uint256[] tokenIds);\n\n  event RevokedAddressesGiveway(uint256 timestamp);\n\n  // Public var\n  string public baseURI;\n  uint256 public maxSupply = 1500;\n  address payable public collector;\n\n  mapping(address => uint256) public addressesEligible;\n  mapping(address => uint8) public addressesGiveway;\n  mapping(address => uint8) public addressesAirdrop;\n  address[] public listAddressesEligible;\n  address[] public listAddressesGiveway;\n\n  uint256 public mintedEligible = 0;\n  uint256 public mintedGiveway = 0;\n  uint256 public mintedAirdrop = 0;\n  uint256 public mintedDev = 0;\n\n  // Private var\n  Counters.Counter private _tokenIds;\n\n  constructor(string memory name_, string memory symbol_) ERC721(name_, symbol_){\n  }\n\n  function withdrawAll() public payable onlyOwner {\n    collector.transfer(address(this).balance);\n  }\n\n  function setCollector(address payable _newCollector) public onlyOwner {\n    collector = _newCollector;\n  }\n\n  function getMintEligible() public view returns(uint256) {\n    return addressesEligible[msg.sender];\n  }\n\n  function getMintEligibleByAddress(address _wallet) public view returns(uint256) {\n    return addressesEligible[_wallet];\n  }\n\n  function getMintGivewayByAddress(address _address) public view returns(uint8) {\n    return addressesGiveway[_address];\n  }\n\n  function _setBaseURI(string memory _newBaseURI) public onlyOwner {\n    baseURI = _newBaseURI;\n  }\n\n  function _baseURI() internal view virtual override returns (string memory) {\n    return baseURI;\n  }\n\n  function _restMintEligible() public view returns (uint256) {\n    uint256 restToMint = 0;\n    for (uint i = 0; i < listAddressesEligible.length; i++) {\n      restToMint += addressesEligible[listAddressesEligible[i]];\n    }\n    return restToMint;\n  }\n\n  function _restMintGiveway() public view returns (uint256) {\n    uint256 restToMint = 0;\n    for (uint i = 0; i < listAddressesGiveway.length; i++) {\n      restToMint += addressesGiveway[listAddressesGiveway[i]];\n    }\n    return restToMint;\n  }\n\n  function _restMint() public view returns (uint256) {\n    return _restMintEligible() + _restMintGiveway();\n  }\n\n  function _sumQuantities(uint256[] calldata _quantities) public pure returns (uint256) {\n    uint256 sum = 0;\n    for (uint i = 0; i < _quantities.length; i++) {\n      sum += _quantities[i];\n    }\n    return sum;\n  }\n\n  function addAddressesEligible(address[] calldata _toAddAddresses, uint256[] calldata _quantities) external onlyOwner {\n    require(_toAddAddresses.length == _quantities.length, \"Count addresses and count quantities must be equal\");\n    require(totalSupply() + _restMint() + _sumQuantities(_quantities) <= maxSupply, \"Not enough tokens left\");\n    for (uint i = 0; i < _toAddAddresses.length; i++) {\n      addressesEligible[_toAddAddresses[i]] = _quantities[i];\n      listAddressesEligible.push(_toAddAddresses[i]);\n    }\n    emit AddedAddressesEligible(_toAddAddresses.length, _quantities.length);\n  }\n\n  function revokeAddressesGiveway() external onlyOwner {\n    for (uint i = 0; i < listAddressesGiveway.length; i++) {\n      addressesGiveway[listAddressesGiveway[i]] = 0;\n    }\n    delete listAddressesGiveway;\n    emit RevokedAddressesGiveway(block.timestamp);\n  }\n\n  function _mint(address _to) internal returns (uint256) {\n    _tokenIds.increment();\n    uint256 _tokenId = _tokenIds.current();\n    _safeMint(_to, _tokenId);\n    return _tokenId;\n  }\n\n  function mintEligible(uint256 _nb) external payable {\n    require(totalSupply() + _nb <= maxSupply, \"Not enough tokens left\");\n    require(addressesEligible[msg.sender] > 0, \"Not eligible\");\n    require(addressesEligible[msg.sender] >= _nb, \"Not enough claimable tokens\");\n\n    uint256[] memory _tokenIdsMinted = new uint256[](_nb);\n    for (uint32 i = 0; i < _nb; i++) {\n      addressesEligible[msg.sender]--;\n      mintedEligible++;\n      _tokenIdsMinted[i] = _mint(msg.sender);\n    }\n    emit MintedEligible(msg.sender, block.timestamp, _tokenIdsMinted);\n  }\n\n  function mintDev(uint256 _nb) external onlyOwner {\n    require(totalSupply() + _restMint() + _nb <= maxSupply, \"Not enough tokens left\");\n\n    uint256[] memory _tokenIdsMinted = new uint256[](_nb);\n    for (uint32 i = 0; i < _nb; i++) {\n      mintedDev++;\n      _tokenIdsMinted[i] = _mint(msg.sender);\n    }\n    emit MintedDev(msg.sender, block.timestamp, _tokenIdsMinted);\n  }\n\n  function addAddressesGiveway(address[] calldata _toAddAddresses) external onlyOwner {\n    require(totalSupply() + _restMint() + _toAddAddresses.length <= maxSupply, \"Not enough tokens left\");\n    for (uint i = 0; i < _toAddAddresses.length; i++) {\n      addressesGiveway[_toAddAddresses[i]]++;\n      listAddressesGiveway.push(_toAddAddresses[i]);\n    }\n    emit AddedAddressesGiveway(_toAddAddresses.length);\n  }\n\n  function mintGiveway() external payable {\n    require(addressesGiveway[msg.sender] > 0, \"No giveway\");\n\n    addressesGiveway[msg.sender] = 0;\n    mintedGiveway++;\n    uint256 _tokenIdMinted = _mint(msg.sender);\n\n    emit MintedGiveway(msg.sender, block.timestamp, _tokenIdMinted);\n  }\n\n  function mintAirdrop(address[] calldata _toAirdropAddresses) external onlyOwner {\n    require(totalSupply() + _restMint() + _toAirdropAddresses.length <= maxSupply, \"Not enough tokens left\");\n\n    uint256[] memory _tokenIdsMinted = new uint256[](_toAirdropAddresses.length);\n    for (uint i = 0; i < _toAirdropAddresses.length; i++) {\n      mintedAirdrop++;\n      _tokenIdsMinted[i] = _mint(_toAirdropAddresses[i]);\n    }\n\n    emit MintedAirdrop(block.timestamp, _tokenIdsMinted);\n  }\n}\n",
  "sourcePath": "/Users/rchea/workspaces/MetaLegends/contract-pet/contracts/MetaLifeOgPet.sol",
  "compiler": {
    "name": "solc",
    "version": "0.8.19+commit.7dd6d404.Emscripten.clang"
  },
  "schemaVersion": "3.4.13",
  "updatedAt": "2023-06-23T21:00:51.416Z",
  "networkType": "ethereum",
  "devdoc": {
    "events": {
      "Approval(address,address,uint256)": {
        "details": "Emitted when `owner` enables `approved` to manage the `tokenId` token."
      },
      "ApprovalForAll(address,address,bool)": {
        "details": "Emitted when `owner` enables or disables (`approved`) `operator` to manage all of its assets."
      },
      "Transfer(address,address,uint256)": {
        "details": "Emitted when `tokenId` token is transferred from `from` to `to`."
      }
    },
    "kind": "dev",
    "methods": {
      "approve(address,uint256)": {
        "details": "See {IERC721-approve}."
      },
      "balanceOf(address)": {
        "details": "See {IERC721-balanceOf}."
      },
      "getApproved(uint256)": {
        "details": "See {IERC721-getApproved}."
      },
      "isApprovedForAll(address,address)": {
        "details": "See {IERC721-isApprovedForAll}."
      },
      "name()": {
        "details": "See {IERC721Metadata-name}."
      },
      "owner()": {
        "details": "Returns the address of the current owner."
      },
      "ownerOf(uint256)": {
        "details": "See {IERC721-ownerOf}."
      },
      "renounceOwnership()": {
        "details": "Leaves the contract without owner. It will not be possible to call `onlyOwner` functions anymore. Can only be called by the current owner. NOTE: Renouncing ownership will leave the contract without an owner, thereby removing any functionality that is only available to the owner."
      },
      "safeTransferFrom(address,address,uint256)": {
        "details": "See {IERC721-safeTransferFrom}."
      },
      "safeTransferFrom(address,address,uint256,bytes)": {
        "details": "See {IERC721-safeTransferFrom}."
      },
      "setApprovalForAll(address,bool)": {
        "details": "See {IERC721-setApprovalForAll}."
      },
      "supportsInterface(bytes4)": {
        "details": "See {IERC165-supportsInterface}."
      },
      "symbol()": {
        "details": "See {IERC721Metadata-symbol}."
      },
      "tokenByIndex(uint256)": {
        "details": "See {IERC721Enumerable-tokenByIndex}."
      },
      "tokenOfOwnerByIndex(address,uint256)": {
        "details": "See {IERC721Enumerable-tokenOfOwnerByIndex}."
      },
      "tokenURI(uint256)": {
        "details": "See {IERC721Metadata-tokenURI}."
      },
      "totalSupply()": {
        "details": "See {IERC721Enumerable-totalSupply}."
      },
      "transferFrom(address,address,uint256)": {
        "details": "See {IERC721-transferFrom}."
      },
      "transferOwnership(address)": {
        "details": "Transfers ownership of the contract to a new account (`newOwner`). Can only be called by the current owner."
      }
    },
    "version": 1
  },
  "userdoc": {
    "kind": "user",
    "methods": {},
    "version": 1
  }
}