{
  "contractName": "MetaLifeOgPet",
  "abi": [
    {
      "inputs": [
        {
          "internalType": "string",
          "name": "name_",
          "type": "string"
        },
        {
          "internalType": "string",
          "name": "symbol_",
          "type": "string"
        }
      ],
      "stateMutability": "nonpayable",
      "type": "constructor"
    },
    {
      "anonymous": false,
      "inputs": [
        {
          "indexed": false,
          "internalType": "uint256",
          "name": "nbWallets",
          "type": "uint256"
        },
        {
          "indexed": false,
          "internalType": "uint256",
          "name": "countQuantities",
          "type": "uint256"
        }
      ],
      "name": "AddedAddressesEligible",
      "type": "event"
    },
    {
      "anonymous": false,
      "inputs": [
        {
          "indexed": false,
          "internalType": "uint256",
          "name": "nbWallets",
          "type": "uint256"
        }
      ],
      "name": "AddedAddressesGiveway",
      "type": "event"
    },
    {
      "anonymous": false,
      "inputs": [
        {
          "indexed": true,
          "internalType": "address",
          "name": "owner",
          "type": "address"
        },
        {
          "indexed": true,
          "internalType": "address",
          "name": "approved",
          "type": "address"
        },
        {
          "indexed": true,
          "internalType": "uint256",
          "name": "tokenId",
          "type": "uint256"
        }
      ],
      "name": "Approval",
      "type": "event"
    },
    {
      "anonymous": false,
      "inputs": [
        {
          "indexed": true,
          "internalType": "address",
          "name": "owner",
          "type": "address"
        },
        {
          "indexed": true,
          "internalType": "address",
          "name": "operator",
          "type": "address"
        },
        {
          "indexed": false,
          "internalType": "bool",
          "name": "approved",
          "type": "bool"
        }
      ],
      "name": "ApprovalForAll",
      "type": "event"
    },
    {
      "anonymous": false,
      "inputs": [
        {
          "indexed": false,
          "internalType": "uint256",
          "name": "timestamp",
          "type": "uint256"
        },
        {
          "indexed": false,
          "internalType": "uint256[]",
          "name": "tokenIds",
          "type": "uint256[]"
        }
      ],
      "name": "MintedAirdrop",
      "type": "event"
    },
    {
      "anonymous": false,
      "inputs": [
        {
          "indexed": true,
          "internalType": "address",
          "name": "from",
          "type": "address"
        },
        {
          "indexed": false,
          "internalType": "uint256",
          "name": "timestamp",
          "type": "uint256"
        },
        {
          "indexed": false,
          "internalType": "uint256[]",
          "name": "tokenIds",
          "type": "uint256[]"
        }
      ],
      "name": "MintedDev",
      "type": "event"
    },
    {
      "anonymous": false,
      "inputs": [
        {
          "indexed": true,
          "internalType": "address",
          "name": "from",
          "type": "address"
        },
        {
          "indexed": false,
          "internalType": "uint256",
          "name": "timestamp",
          "type": "uint256"
        },
        {
          "indexed": false,
          "internalType": "uint256[]",
          "name": "tokenIds",
          "type": "uint256[]"
        }
      ],
      "name": "MintedEligible",
      "type": "event"
    },
    {
      "anonymous": false,
      "inputs": [
        {
          "indexed": true,
          "internalType": "address",
          "name": "from",
          "type": "address"
        },
        {
          "indexed": false,
          "internalType": "uint256",
          "name": "timestamp",
          "type": "uint256"
        },
        {
          "indexed": false,
          "internalType": "uint256",
          "name": "tokenId",
          "type": "uint256"
        }
      ],
      "name": "MintedGiveway",
      "type": "event"
    },
    {
      "anonymous": false,
      "inputs": [
        {
          "indexed": true,
          "internalType": "address",
          "name": "previousOwner",
          "type": "address"
        },
        {
          "indexed": true,
          "internalType": "address",
          "name": "newOwner",
          "type": "address"
        }
      ],
      "name": "OwnershipTransferred",
      "type": "event"
    },
    {
      "anonymous": false,
      "inputs": [
        {
          "indexed": false,
          "internalType": "uint256",
          "name": "timestamp",
          "type": "uint256"
        },
        {
          "indexed": false,
          "internalType": "address[]",
          "name": "revokedAddresses",
          "type": "address[]"
        }
      ],
      "name": "RevokedAddressesEligible",
      "type": "event"
    },
    {
      "anonymous": false,
      "inputs": [
        {
          "indexed": false,
          "internalType": "uint256",
          "name": "timestamp",
          "type": "uint256"
        },
        {
          "indexed": false,
          "internalType": "address[]",
          "name": "revokedAddresses",
          "type": "address[]"
        }
      ],
      "name": "RevokedAddressesGiveway",
      "type": "event"
    },
    {
      "anonymous": false,
      "inputs": [
        {
          "indexed": true,
          "internalType": "address",
          "name": "from",
          "type": "address"
        },
        {
          "indexed": true,
          "internalType": "address",
          "name": "to",
          "type": "address"
        },
        {
          "indexed": true,
          "internalType": "uint256",
          "name": "tokenId",
          "type": "uint256"
        }
      ],
      "name": "Transfer",
      "type": "event"
    },
    {
      "inputs": [
        {
          "internalType": "address",
          "name": "",
          "type": "address"
        }
      ],
      "name": "addressesAirdrop",
      "outputs": [
        {
          "internalType": "uint8",
          "name": "",
          "type": "uint8"
        }
      ],
      "stateMutability": "view",
      "type": "function",
      "constant": true
    },
    {
      "inputs": [
        {
          "internalType": "address",
          "name": "",
          "type": "address"
        }
      ],
      "name": "addressesEligible",
      "outputs": [
        {
          "internalType": "uint256",
          "name": "",
          "type": "uint256"
        }
      ],
      "stateMutability": "view",
      "type": "function",
      "constant": true
    },
    {
      "inputs": [
        {
          "internalType": "address",
          "name": "",
          "type": "address"
        }
      ],
      "name": "addressesGiveway",
      "outputs": [
        {
          "internalType": "uint8",
          "name": "",
          "type": "uint8"
        }
      ],
      "stateMutability": "view",
      "type": "function",
      "constant": true
    },
    {
      "inputs": [
        {
          "internalType": "address",
          "name": "to",
          "type": "address"
        },
        {
          "internalType": "uint256",
          "name": "tokenId",
          "type": "uint256"
        }
      ],
      "name": "approve",
      "outputs": [],
      "stateMutability": "nonpayable",
      "type": "function"
    },
    {
      "inputs": [
        {
          "internalType": "address",
          "name": "owner",
          "type": "address"
        }
      ],
      "name": "balanceOf",
      "outputs": [
        {
          "internalType": "uint256",
          "name": "",
          "type": "uint256"
        }
      ],
      "stateMutability": "view",
      "type": "function",
      "constant": true
    },
    {
      "inputs": [],
      "name": "baseURI",
      "outputs": [
        {
          "internalType": "string",
          "name": "",
          "type": "string"
        }
      ],
      "stateMutability": "view",
      "type": "function",
      "constant": true
    },
    {
      "inputs": [],
      "name": "collector",
      "outputs": [
        {
          "internalType": "address payable",
          "name": "",
          "type": "address"
        }
      ],
      "stateMutability": "view",
      "type": "function",
      "constant": true
    },
    {
      "inputs": [
        {
          "internalType": "uint256",
          "name": "tokenId",
          "type": "uint256"
        }
      ],
      "name": "getApproved",
      "outputs": [
        {
          "internalType": "address",
          "name": "",
          "type": "address"
        }
      ],
      "stateMutability": "view",
      "type": "function",
      "constant": true
    },
    {
      "inputs": [
        {
          "internalType": "address",
          "name": "owner",
          "type": "address"
        },
        {
          "internalType": "address",
          "name": "operator",
          "type": "address"
        }
      ],
      "name": "isApprovedForAll",
      "outputs": [
        {
          "internalType": "bool",
          "name": "",
          "type": "bool"
        }
      ],
      "stateMutability": "view",
      "type": "function",
      "constant": true
    },
    {
      "inputs": [
        {
          "internalType": "uint256",
          "name": "",
          "type": "uint256"
        }
      ],
      "name": "listAddressesEligible",
      "outputs": [
        {
          "internalType": "address",
          "name": "",
          "type": "address"
        }
      ],
      "stateMutability": "view",
      "type": "function",
      "constant": true
    },
    {
      "inputs": [
        {
          "internalType": "uint256",
          "name": "",
          "type": "uint256"
        }
      ],
      "name": "listAddressesGiveway",
      "outputs": [
        {
          "internalType": "address",
          "name": "",
          "type": "address"
        }
      ],
      "stateMutability": "view",
      "type": "function",
      "constant": true
    },
    {
      "inputs": [],
      "name": "maxSupply",
      "outputs": [
        {
          "internalType": "uint256",
          "name": "",
          "type": "uint256"
        }
      ],
      "stateMutability": "view",
      "type": "function",
      "constant": true
    },
    {
      "inputs": [],
      "name": "mintedAirdrop",
      "outputs": [
        {
          "internalType": "uint256",
          "name": "",
          "type": "uint256"
        }
      ],
      "stateMutability": "view",
      "type": "function",
      "constant": true
    },
    {
      "inputs": [],
      "name": "mintedDev",
      "outputs": [
        {
          "internalType": "uint256",
          "name": "",
          "type": "uint256"
        }
      ],
      "stateMutability": "view",
      "type": "function",
      "constant": true
    },
    {
      "inputs": [],
      "name": "mintedEligible",
      "outputs": [
        {
          "internalType": "uint256",
          "name": "",
          "type": "uint256"
        }
      ],
      "stateMutability": "view",
      "type": "function",
      "constant": true
    },
    {
      "inputs": [],
      "name": "mintedGiveway",
      "outputs": [
        {
          "internalType": "uint256",
          "name": "",
          "type": "uint256"
        }
      ],
      "stateMutability": "view",
      "type": "function",
      "constant": true
    },
    {
      "inputs": [],
      "name": "name",
      "outputs": [
        {
          "internalType": "string",
          "name": "",
          "type": "string"
        }
      ],
      "stateMutability": "view",
      "type": "function",
      "constant": true
    },
    {
      "inputs": [],
      "name": "owner",
      "outputs": [
        {
          "internalType": "address",
          "name": "",
          "type": "address"
        }
      ],
      "stateMutability": "view",
      "type": "function",
      "constant": true
    },
    {
      "inputs": [
        {
          "internalType": "uint256",
          "name": "tokenId",
          "type": "uint256"
        }
      ],
      "name": "ownerOf",
      "outputs": [
        {
          "internalType": "address",
          "name": "",
          "type": "address"
        }
      ],
      "stateMutability": "view",
      "type": "function",
      "constant": true
    },
    {
      "inputs": [],
      "name": "renounceOwnership",
      "outputs": [],
      "stateMutability": "nonpayable",
      "type": "function"
    },
    {
      "inputs": [
        {
          "internalType": "address",
          "name": "from",
          "type": "address"
        },
        {
          "internalType": "address",
          "name": "to",
          "type": "address"
        },
        {
          "internalType": "uint256",
          "name": "tokenId",
          "type": "uint256"
        }
      ],
      "name": "safeTransferFrom",
      "outputs": [],
      "stateMutability": "nonpayable",
      "type": "function"
    },
    {
      "inputs": [
        {
          "internalType": "address",
          "name": "from",
          "type": "address"
        },
        {
          "internalType": "address",
          "name": "to",
          "type": "address"
        },
        {
          "internalType": "uint256",
          "name": "tokenId",
          "type": "uint256"
        },
        {
          "internalType": "bytes",
          "name": "data",
          "type": "bytes"
        }
      ],
      "name": "safeTransferFrom",
      "outputs": [],
      "stateMutability": "nonpayable",
      "type": "function"
    },
    {
      "inputs": [
        {
          "internalType": "address",
          "name": "operator",
          "type": "address"
        },
        {
          "internalType": "bool",
          "name": "approved",
          "type": "bool"
        }
      ],
      "name": "setApprovalForAll",
      "outputs": [],
      "stateMutability": "nonpayable",
      "type": "function"
    },
    {
      "inputs": [
        {
          "internalType": "bytes4",
          "name": "interfaceId",
          "type": "bytes4"
        }
      ],
      "name": "supportsInterface",
      "outputs": [
        {
          "internalType": "bool",
          "name": "",
          "type": "bool"
        }
      ],
      "stateMutability": "view",
      "type": "function",
      "constant": true
    },
    {
      "inputs": [],
      "name": "symbol",
      "outputs": [
        {
          "internalType": "string",
          "name": "",
          "type": "string"
        }
      ],
      "stateMutability": "view",
      "type": "function",
      "constant": true
    },
    {
      "inputs": [
        {
          "internalType": "uint256",
          "name": "index",
          "type": "uint256"
        }
      ],
      "name": "tokenByIndex",
      "outputs": [
        {
          "internalType": "uint256",
          "name": "",
          "type": "uint256"
        }
      ],
      "stateMutability": "view",
      "type": "function",
      "constant": true
    },
    {
      "inputs": [
        {
          "internalType": "address",
          "name": "owner",
          "type": "address"
        },
        {
          "internalType": "uint256",
          "name": "index",
          "type": "uint256"
        }
      ],
      "name": "tokenOfOwnerByIndex",
      "outputs": [
        {
          "internalType": "uint256",
          "name": "",
          "type": "uint256"
        }
      ],
      "stateMutability": "view",
      "type": "function",
      "constant": true
    },
    {
      "inputs": [
        {
          "internalType": "uint256",
          "name": "tokenId",
          "type": "uint256"
        }
      ],
      "name": "tokenURI",
      "outputs": [
        {
          "internalType": "string",
          "name": "",
          "type": "string"
        }
      ],
      "stateMutability": "view",
      "type": "function",
      "constant": true
    },
    {
      "inputs": [],
      "name": "totalSupply",
      "outputs": [
        {
          "internalType": "uint256",
          "name": "",
          "type": "uint256"
        }
      ],
      "stateMutability": "view",
      "type": "function",
      "constant": true
    },
    {
      "inputs": [
        {
          "internalType": "address",
          "name": "from",
          "type": "address"
        },
        {
          "internalType": "address",
          "name": "to",
          "type": "address"
        },
        {
          "internalType": "uint256",
          "name": "tokenId",
          "type": "uint256"
        }
      ],
      "name": "transferFrom",
      "outputs": [],
      "stateMutability": "nonpayable",
      "type": "function"
    },
    {
      "inputs": [
        {
          "internalType": "address",
          "name": "newOwner",
          "type": "address"
        }
      ],
      "name": "transferOwnership",
      "outputs": [],
      "stateMutability": "nonpayable",
      "type": "function"
    },
    {
      "inputs": [],
      "name": "withdrawAll",
      "outputs": [],
      "stateMutability": "payable",
      "type": "function",
      "payable": true
    },
    {
      "inputs": [
        {
          "internalType": "address payable",
          "name": "_newCollector",
          "type": "address"
        }
      ],
      "name": "setCollector",
      "outputs": [],
      "stateMutability": "nonpayable",
      "type": "function"
    },
    {
      "inputs": [],
      "name": "getMintEligible",
      "outputs": [
        {
          "internalType": "uint256",
          "name": "",
          "type": "uint256"
        }
      ],
      "stateMutability": "view",
      "type": "function",
      "constant": true
    },
    {
      "inputs": [
        {
          "internalType": "address",
          "name": "_wallet",
          "type": "address"
        }
      ],
      "name": "getMintEligibleByAddress",
      "outputs": [
        {
          "internalType": "uint256",
          "name": "",
          "type": "uint256"
        }
      ],
      "stateMutability": "view",
      "type": "function",
      "constant": true
    },
    {
      "inputs": [
        {
          "internalType": "address",
          "name": "_address",
          "type": "address"
        }
      ],
      "name": "getMintGivewayByAddress",
      "outputs": [
        {
          "internalType": "uint8",
          "name": "",
          "type": "uint8"
        }
      ],
      "stateMutability": "view",
      "type": "function",
      "constant": true
    },
    {
      "inputs": [
        {
          "internalType": "string",
          "name": "_newBaseURI",
          "type": "string"
        }
      ],
      "name": "_setBaseURI",
      "outputs": [],
      "stateMutability": "nonpayable",
      "type": "function"
    },
    {
      "inputs": [],
      "name": "_restMintEligible",
      "outputs": [
        {
          "internalType": "uint256",
          "name": "",
          "type": "uint256"
        }
      ],
      "stateMutability": "view",
      "type": "function",
      "constant": true
    },
    {
      "inputs": [],
      "name": "_restMintGiveway",
      "outputs": [
        {
          "internalType": "uint256",
          "name": "",
          "type": "uint256"
        }
      ],
      "stateMutability": "view",
      "type": "function",
      "constant": true
    },
    {
      "inputs": [],
      "name": "_restMint",
      "outputs": [
        {
          "internalType": "uint256",
          "name": "",
          "type": "uint256"
        }
      ],
      "stateMutability": "view",
      "type": "function",
      "constant": true
    },
    {
      "inputs": [
        {
          "internalType": "uint256[]",
          "name": "_quantities",
          "type": "uint256[]"
        }
      ],
      "name": "_sumQuantities",
      "outputs": [
        {
          "internalType": "uint256",
          "name": "",
          "type": "uint256"
        }
      ],
      "stateMutability": "pure",
      "type": "function",
      "constant": true
    },
    {
      "inputs": [
        {
          "internalType": "address[]",
          "name": "_toAddAddresses",
          "type": "address[]"
        },
        {
          "internalType": "uint256[]",
          "name": "_quantities",
          "type": "uint256[]"
        }
      ],
      "name": "addAddressesEligible",
      "outputs": [],
      "stateMutability": "nonpayable",
      "type": "function"
    },
    {
      "inputs": [
        {
          "internalType": "address[]",
          "name": "_revokeAddresses",
          "type": "address[]"
        }
      ],
      "name": "revokeAddressesEligible",
      "outputs": [],
      "stateMutability": "nonpayable",
      "type": "function"
    },
    {
      "inputs": [
        {
          "internalType": "address[]",
          "name": "_revokeAddresses",
          "type": "address[]"
        }
      ],
      "name": "revokeAddressesGiveway",
      "outputs": [],
      "stateMutability": "nonpayable",
      "type": "function"
    },
    {
      "inputs": [
        {
          "internalType": "uint256",
          "name": "_nb",
          "type": "uint256"
        }
      ],
      "name": "mintEligible",
      "outputs": [],
      "stateMutability": "payable",
      "type": "function",
      "payable": true
    },
    {
      "inputs": [
        {
          "internalType": "uint256",
          "name": "_nb",
          "type": "uint256"
        }
      ],
      "name": "mintDev",
      "outputs": [],
      "stateMutability": "nonpayable",
      "type": "function"
    },
    {
      "inputs": [
        {
          "internalType": "address[]",
          "name": "_toAddAddresses",
          "type": "address[]"
        }
      ],
      "name": "addAddressesGiveway",
      "outputs": [],
      "stateMutability": "nonpayable",
      "type": "function"
    },
    {
      "inputs": [],
      "name": "mintGiveway",
      "outputs": [],
      "stateMutability": "payable",
      "type": "function",
      "payable": true
    },
    {
      "inputs": [
        {
          "internalType": "address[]",
          "name": "_toAirdropAddresses",
          "type": "address[]"
        }
      ],
      "name": "mintAirdrop",
      "outputs": [],
      "stateMutability": "nonpayable",
      "type": "function"
    }
  ],
  "bytecode": "0x60806040526105dc600d5560006014556000601555600060165560006017553480156200002b57600080fd5b5060405162005e5738038062005e5783398181016040528101906200005191906200030a565b8181600160008190555081600190816200006c9190620005da565b5080600290816200007e9190620005da565b505050620000a162000095620000a960201b60201c565b620000b160201b60201c565b5050620006c1565b600033905090565b6000600b60009054906101000a900473ffffffffffffffffffffffffffffffffffffffff16905081600b60006101000a81548173ffffffffffffffffffffffffffffffffffffffff021916908373ffffffffffffffffffffffffffffffffffffffff1602179055508173ffffffffffffffffffffffffffffffffffffffff168173ffffffffffffffffffffffffffffffffffffffff167f8be0079c531659141344cd1fd0a4f28419497f9722a3daafe3b4186f6b6457e060405160405180910390a35050565b6000604051905090565b600080fd5b600080fd5b600080fd5b600080fd5b6000601f19601f8301169050919050565b7f4e487b7100000000000000000000000000000000000000000000000000000000600052604160045260246000fd5b620001e08262000195565b810181811067ffffffffffffffff82111715620002025762000201620001a6565b5b80604052505050565b60006200021762000177565b9050620002258282620001d5565b919050565b600067ffffffffffffffff821115620002485762000247620001a6565b5b620002538262000195565b9050602081019050919050565b60005b838110156200028057808201518184015260208101905062000263565b60008484015250505050565b6000620002a36200029d846200022a565b6200020b565b905082815260208101848484011115620002c257620002c162000190565b5b620002cf84828562000260565b509392505050565b600082601f830112620002ef57620002ee6200018b565b5b8151620003018482602086016200028c565b91505092915050565b6000806040838503121562000324576200032362000181565b5b600083015167ffffffffffffffff81111562000345576200034462000186565b5b6200035385828601620002d7565b925050602083015167ffffffffffffffff81111562000377576200037662000186565b5b6200038585828601620002d7565b9150509250929050565b600081519050919050565b7f4e487b7100000000000000000000000000000000000000000000000000000000600052602260045260246000fd5b60006002820490506001821680620003e257607f821691505b602082108103620003f857620003f76200039a565b5b50919050565b60008190508160005260206000209050919050565b60006020601f8301049050919050565b600082821b905092915050565b600060088302620004627fffffffffffffffffffffffffffffffffffffffffffffffffffffffffffffffff8262000423565b6200046e868362000423565b95508019841693508086168417925050509392505050565b6000819050919050565b6000819050919050565b6000620004bb620004b5620004af8462000486565b62000490565b62000486565b9050919050565b6000819050919050565b620004d7836200049a565b620004ef620004e682620004c2565b84845462000430565b825550505050565b600090565b62000506620004f7565b62000513818484620004cc565b505050565b5b818110156200053b576200052f600082620004fc565b60018101905062000519565b5050565b601f8211156200058a576200055481620003fe565b6200055f8462000413565b810160208510156200056f578190505b620005876200057e8562000413565b83018262000518565b50505b505050565b600082821c905092915050565b6000620005af600019846008026200058f565b1980831691505092915050565b6000620005ca83836200059c565b9150826002028217905092915050565b620005e5826200038f565b67ffffffffffffffff811115620006015762000600620001a6565b5b6200060d8254620003c9565b6200061a8282856200053f565b600060209050601f8311600181146200065257600084156200063d578287015190505b620006498582620005bc565b865550620006b9565b601f1984166200066286620003fe565b60005b828110156200068c5784890151825560018201915060208501945060208101905062000665565b86831015620006ac5784890151620006a8601f8916826200059c565b8355505b6001600288020188555050505b505050505050565b61578680620006d16000396000f3fe6080604052600436106102ae5760003560e01c80636c0360eb11610175578063b88d4fde116100dc578063e765907411610095578063f6d885361161006f578063f6d8853614610af4578063f766af8e14610afe578063fb5b82d014610b3b578063fba7d7cb14610b64576102ae565b8063e765907414610a51578063e985e9c514610a8e578063f2fde38b14610acb576102ae565b8063b88d4fde1461092f578063c595317014610958578063c599071b14610981578063c87b56dd146109ac578063d5abeb01146109e9578063e5325ba114610a14576102ae565b8063853828b61161012e578063853828b61461083e5780638da5cb5b14610848578063913e77ad1461087357806395d89b411461089e5780639a7815c3146108c9578063a22cb46514610906576102ae565b80636c0360eb1461073e5780636d1611eb1461076957806370a0823114610794578063715018a6146107d1578063729e59f2146107e85780638439f18114610813576102ae565b80632f745c5911610219578063499e8629116101d2578063499e86291461060a5780634f6ccce71461063357806354059a7f14610670578063541d3da6146106ad5780636352211e146106d85780636a301c8b14610715576102ae565b80632f745c59146104ea578063306cbfdb1461052757806331b5b90714610552578063376dde7f1461057b5780633829b153146105a457806342842e0e146105e1576102ae565b8063095ea7b31161026b578063095ea7b3146103fd57806315ce7e191461042657806318160ddd1461044257806319a576721461046d5780631b3c4b251461049857806323b872dd146104c1576102ae565b806301ffc9a7146102b357806305af8425146102f057806305b7a6381461032d57806306fdde031461036a578063078ae29014610395578063081812fc146103c0575b600080fd5b3480156102bf57600080fd5b506102da60048036038101906102d59190613bb0565b610b8d565b6040516102e79190613bf8565b60405180910390f35b3480156102fc57600080fd5b5061031760048036038101906103129190613c71565b610c07565b6040516103249190613cba565b60405180910390f35b34801561033957600080fd5b50610354600480360381019061034f9190613c71565b610c27565b6040516103619190613cee565b60405180910390f35b34801561037657600080fd5b5061037f610c70565b60405161038c9190613d99565b60405180910390f35b3480156103a157600080fd5b506103aa610d02565b6040516103b79190613cee565b60405180910390f35b3480156103cc57600080fd5b506103e760048036038101906103e29190613de7565b610d23565b6040516103f49190613e23565b60405180910390f35b34801561040957600080fd5b50610424600480360381019061041f9190613e3e565b610d69565b005b610440600480360381019061043b9190613de7565b610e80565b005b34801561044e57600080fd5b5061045761113c565b6040516104649190613cee565b60405180910390f35b34801561047957600080fd5b50610482611149565b60405161048f9190613cee565b60405180910390f35b3480156104a457600080fd5b506104bf60048036038101906104ba9190613ee3565b61114f565b005b3480156104cd57600080fd5b506104e860048036038101906104e39190613f30565b611224565b005b3480156104f657600080fd5b50610511600480360381019061050c9190613e3e565b611284565b60405161051e9190613cee565b60405180910390f35b34801561053357600080fd5b5061053c611329565b6040516105499190613cee565b60405180910390f35b34801561055e57600080fd5b50610579600480360381019061057491906140b3565b61132f565b005b34801561058757600080fd5b506105a2600480360381019061059d9190613ee3565b61134a565b005b3480156105b057600080fd5b506105cb60048036038101906105c69190613de7565b611544565b6040516105d89190613e23565b60405180910390f35b3480156105ed57600080fd5b5061060860048036038101906106039190613f30565b611583565b005b34801561061657600080fd5b50610631600480360381019061062c9190613ee3565b6115a3565b005b34801561063f57600080fd5b5061065a60048036038101906106559190613de7565b61168c565b6040516106679190613cee565b60405180910390f35b34801561067c57600080fd5b5061069760048036038101906106929190613c71565b6116fd565b6040516106a49190613cba565b60405180910390f35b3480156106b957600080fd5b506106c261171d565b6040516106cf9190613cee565b60405180910390f35b3480156106e457600080fd5b506106ff60048036038101906106fa9190613de7565b6117ea565b60405161070c9190613e23565b60405180910390f35b34801561072157600080fd5b5061073c60048036038101906107379190614152565b611870565b005b34801561074a57600080fd5b50610753611aa7565b6040516107609190613d99565b60405180910390f35b34801561077557600080fd5b5061077e611b35565b60405161078b9190613cee565b60405180910390f35b3480156107a057600080fd5b506107bb60048036038101906107b69190613c71565b611b7c565b6040516107c89190613cee565b60405180910390f35b3480156107dd57600080fd5b506107e6611c33565b005b3480156107f457600080fd5b506107fd611c47565b60405161080a9190613cee565b60405180910390f35b34801561081f57600080fd5b50610828611d04565b6040516108359190613cee565b60405180910390f35b610846611d0a565b005b34801561085457600080fd5b5061085d611d7d565b60405161086a9190613e23565b60405180910390f35b34801561087f57600080fd5b50610888611da7565b60405161089591906141f4565b60405180910390f35b3480156108aa57600080fd5b506108b3611dcd565b6040516108c09190613d99565b60405180910390f35b3480156108d557600080fd5b506108f060048036038101906108eb919061420f565b611e5f565b6040516108fd9190613cee565b60405180910390f35b34801561091257600080fd5b5061092d60048036038101906109289190614288565b611eb9565b005b34801561093b57600080fd5b5061095660048036038101906109519190614369565b611ecf565b005b34801561096457600080fd5b5061097f600480360381019061097a9190613ee3565b611f31565b005b34801561098d57600080fd5b506109966120bc565b6040516109a39190613cee565b60405180910390f35b3480156109b857600080fd5b506109d360048036038101906109ce9190613de7565b6120c2565b6040516109e09190613d99565b60405180910390f35b3480156109f557600080fd5b506109fe61212a565b604051610a0b9190613cee565b60405180910390f35b348015610a2057600080fd5b50610a3b6004803603810190610a369190613c71565b612130565b604051610a489190613cee565b60405180910390f35b348015610a5d57600080fd5b50610a786004803603810190610a739190613de7565b612148565b604051610a859190613e23565b60405180910390f35b348015610a9a57600080fd5b50610ab56004803603810190610ab091906143ec565b612187565b604051610ac29190613bf8565b60405180910390f35b348015610ad757600080fd5b50610af26004803603810190610aed9190613c71565b61221b565b005b610afc61229e565b005b348015610b0a57600080fd5b50610b256004803603810190610b209190613c71565b612401565b604051610b329190613cba565b60405180910390f35b348015610b4757600080fd5b50610b626004803603810190610b5d9190614458565b612457565b005b348015610b7057600080fd5b50610b8b6004803603810190610b869190613de7565b6124a3565b005b60007f780e9d63000000000000000000000000000000000000000000000000000000007bffffffffffffffffffffffffffffffffffffffffffffffffffffffff1916827bffffffffffffffffffffffffffffffffffffffffffffffffffffffff19161480610c005750610bff82612620565b5b9050919050565b60106020528060005260406000206000915054906101000a900460ff1681565b6000600f60008373ffffffffffffffffffffffffffffffffffffffff1673ffffffffffffffffffffffffffffffffffffffff168152602001908152602001600020549050919050565b606060018054610c7f906144b4565b80601f0160208091040260200160405190810160405280929190818152602001828054610cab906144b4565b8015610cf85780601f10610ccd57610100808354040283529160200191610cf8565b820191906000526020600020905b815481529060010190602001808311610cdb57829003601f168201915b5050505050905090565b6000610d0c61171d565b610d14611c47565b610d1e9190614514565b905090565b6000610d2e82612702565b6005600083815260200190815260200160002060009054906101000a900473ffffffffffffffffffffffffffffffffffffffff169050919050565b6000610d74826117ea565b90508073ffffffffffffffffffffffffffffffffffffffff168373ffffffffffffffffffffffffffffffffffffffff1603610de4576040517f08c379a0000000000000000000000000000000000000000000000000000000008152600401610ddb906145ba565b60405180910390fd5b8073ffffffffffffffffffffffffffffffffffffffff16610e0361274d565b73ffffffffffffffffffffffffffffffffffffffff161480610e325750610e3181610e2c61274d565b612187565b5b610e71576040517f08c379a0000000000000000000000000000000000000000000000000000000008152600401610e689061464c565b60405180910390fd5b610e7b8383612755565b505050565b600d5481610e8c61113c565b610e969190614514565b1115610ed7576040517f08c379a0000000000000000000000000000000000000000000000000000000008152600401610ece906146b8565b60405180910390fd5b6000600f60003373ffffffffffffffffffffffffffffffffffffffff1673ffffffffffffffffffffffffffffffffffffffff1681526020019081526020016000205411610f59576040517f08c379a0000000000000000000000000000000000000000000000000000000008152600401610f5090614724565b60405180910390fd5b80600f60003373ffffffffffffffffffffffffffffffffffffffff1673ffffffffffffffffffffffffffffffffffffffff168152602001908152602001600020541015610fdb576040517f08c379a0000000000000000000000000000000000000000000000000000000008152600401610fd290614790565b60405180910390fd5b60008167ffffffffffffffff811115610ff757610ff6613f88565b5b6040519080825280602002602001820160405280156110255781602001602082028036833780820191505090505b50905060005b828163ffffffff1610156110e757600f60003373ffffffffffffffffffffffffffffffffffffffff1673ffffffffffffffffffffffffffffffffffffffff1681526020019081526020016000206000815480929190611089906147b0565b9190505550601460008154809291906110a1906147d9565b91905055506110af3361280e565b828263ffffffff16815181106110c8576110c7614821565b5b60200260200101818152505080806110df90614860565b91505061102b565b503373ffffffffffffffffffffffffffffffffffffffff167f153661b823a28785c66945bcedb9d22392b14a2fe435ed04ccd46832cac45807428360405161113092919061494a565b60405180910390a25050565b6000600980549050905090565b60145481565b61115761283b565b60005b828290508110156111e4576000600f600085858581811061117e5761117d614821565b5b90506020020160208101906111939190613c71565b73ffffffffffffffffffffffffffffffffffffffff1673ffffffffffffffffffffffffffffffffffffffff1681526020019081526020016000208190555080806111dc906147d9565b91505061115a565b507f1c8a6b3c24889fc1bab81a29226a613c8c7567137f3fcd3c6551453452bad4c942838360405161121893929190614a3d565b60405180910390a15050565b61123561122f61274d565b826128b9565b611274576040517f08c379a000000000000000000000000000000000000000000000000000000000815260040161126b90614ae1565b60405180910390fd5b61127f83838361294e565b505050565b600061128f83611b7c565b82106112d0576040517f08c379a00000000000000000000000000000000000000000000000000000000081526004016112c790614b73565b60405180910390fd5b600760008473ffffffffffffffffffffffffffffffffffffffff1673ffffffffffffffffffffffffffffffffffffffff168152602001908152602001600020600083815260200190815260200160002054905092915050565b60175481565b61133761283b565b80600c90816113469190614d3f565b5050565b61135261283b565b600d5482829050611361610d02565b61136961113c565b6113739190614514565b61137d9190614514565b11156113be576040517f08c379a00000000000000000000000000000000000000000000000000000000081526004016113b5906146b8565b60405180910390fd5b60005b8282905081101561150557601060008484848181106113e3576113e2614821565b5b90506020020160208101906113f89190613c71565b73ffffffffffffffffffffffffffffffffffffffff1673ffffffffffffffffffffffffffffffffffffffff168152602001908152602001600020600081819054906101000a900460ff168092919061144f90614e11565b91906101000a81548160ff021916908360ff16021790555050601383838381811061147d5761147c614821565b5b90506020020160208101906114929190613c71565b9080600181540180825580915050600190039060005260206000200160009091909190916101000a81548173ffffffffffffffffffffffffffffffffffffffff021916908373ffffffffffffffffffffffffffffffffffffffff16021790555080806114fd906147d9565b9150506113c1565b507f685881f29b7b424ec7978cb7e306143e7a6419481693301954aefaf9f2eb5608828290506040516115389190613cee565b60405180910390a15050565b6012818154811061155457600080fd5b906000526020600020016000915054906101000a900473ffffffffffffffffffffffffffffffffffffffff1681565b61159e83838360405180602001604052806000815250611ecf565b505050565b6115ab61283b565b60005b8282905081101561164c576000601060008585858181106115d2576115d1614821565b5b90506020020160208101906115e79190613c71565b73ffffffffffffffffffffffffffffffffffffffff1673ffffffffffffffffffffffffffffffffffffffff16815260200190815260200160002060006101000a81548160ff021916908360ff1602179055508080611644906147d9565b9150506115ae565b507fe814c8c363cb3a903b935c4ad3e39fd4d10e40fb2a7ff571eafc5a4ab69f918f42838360405161168093929190614a3d565b60405180910390a15050565b600061169661113c565b82106116d7576040517f08c379a00000000000000000000000000000000000000000000000000000000081526004016116ce90614eac565b60405180910390fd5b600982815481106116eb576116ea614821565b5b90600052602060002001549050919050565b60116020528060005260406000206000915054906101000a900460ff1681565b6000806000905060005b6013805490508110156117e257601060006013838154811061174c5761174b614821565b5b9060005260206000200160009054906101000a900473ffffffffffffffffffffffffffffffffffffffff1673ffffffffffffffffffffffffffffffffffffffff1673ffffffffffffffffffffffffffffffffffffffff16815260200190815260200160002060009054906101000a900460ff1660ff16826117cd9190614514565b915080806117da906147d9565b915050611727565b508091505090565b6000806117f683612c47565b9050600073ffffffffffffffffffffffffffffffffffffffff168173ffffffffffffffffffffffffffffffffffffffff1603611867576040517f08c379a000000000000000000000000000000000000000000000000000000000815260040161185e90614f18565b60405180910390fd5b80915050919050565b61187861283b565b8181905084849050146118c0576040517f08c379a00000000000000000000000000000000000000000000000000000000081526004016118b790614faa565b60405180910390fd5b600d546118cd8383611e5f565b6118d5610d02565b6118dd61113c565b6118e79190614514565b6118f19190614514565b1115611932576040517f08c379a0000000000000000000000000000000000000000000000000000000008152600401611929906146b8565b60405180910390fd5b60005b84849050811015611a615782828281811061195357611952614821565b5b90506020020135600f600087878581811061197157611970614821565b5b90506020020160208101906119869190613c71565b73ffffffffffffffffffffffffffffffffffffffff1673ffffffffffffffffffffffffffffffffffffffff1681526020019081526020016000208190555060128585838181106119d9576119d8614821565b5b90506020020160208101906119ee9190613c71565b9080600181540180825580915050600190039060005260206000200160009091909190916101000a81548173ffffffffffffffffffffffffffffffffffffffff021916908373ffffffffffffffffffffffffffffffffffffffff1602179055508080611a59906147d9565b915050611935565b507fd7fdbf26c99fed7dc4dce6701538602017d388e0b742123d0bb92046331c602a8484905083839050604051611a99929190614fca565b60405180910390a150505050565b600c8054611ab4906144b4565b80601f0160208091040260200160405190810160405280929190818152602001828054611ae0906144b4565b8015611b2d5780601f10611b0257610100808354040283529160200191611b2d565b820191906000526020600020905b815481529060010190602001808311611b1057829003601f168201915b505050505081565b6000600f60003373ffffffffffffffffffffffffffffffffffffffff1673ffffffffffffffffffffffffffffffffffffffff16815260200190815260200160002054905090565b60008073ffffffffffffffffffffffffffffffffffffffff168273ffffffffffffffffffffffffffffffffffffffff1603611bec576040517f08c379a0000000000000000000000000000000000000000000000000000000008152600401611be390615065565b60405180910390fd5b600460008373ffffffffffffffffffffffffffffffffffffffff1673ffffffffffffffffffffffffffffffffffffffff168152602001908152602001600020549050919050565b611c3b61283b565b611c456000612c84565b565b6000806000905060005b601280549050811015611cfc57600f600060128381548110611c7657611c75614821565b5b9060005260206000200160009054906101000a900473ffffffffffffffffffffffffffffffffffffffff1673ffffffffffffffffffffffffffffffffffffffff1673ffffffffffffffffffffffffffffffffffffffff1681526020019081526020016000205482611ce79190614514565b91508080611cf4906147d9565b915050611c51565b508091505090565b60155481565b611d1261283b565b600e60009054906101000a900473ffffffffffffffffffffffffffffffffffffffff1673ffffffffffffffffffffffffffffffffffffffff166108fc479081150290604051600060405180830381858888f19350505050158015611d7a573d6000803e3d6000fd5b50565b6000600b60009054906101000a900473ffffffffffffffffffffffffffffffffffffffff16905090565b600e60009054906101000a900473ffffffffffffffffffffffffffffffffffffffff1681565b606060028054611ddc906144b4565b80601f0160208091040260200160405190810160405280929190818152602001828054611e08906144b4565b8015611e555780601f10611e2a57610100808354040283529160200191611e55565b820191906000526020600020905b815481529060010190602001808311611e3857829003601f168201915b5050505050905090565b6000806000905060005b84849050811015611eae57848482818110611e8757611e86614821565b5b9050602002013582611e999190614514565b91508080611ea6906147d9565b915050611e69565b508091505092915050565b611ecb611ec461274d565b8383612d4a565b5050565b611ee0611eda61274d565b836128b9565b611f1f576040517f08c379a0000000000000000000000000000000000000000000000000000000008152600401611f1690614ae1565b60405180910390fd5b611f2b84848484612eb6565b50505050565b611f3961283b565b600d5482829050611f48610d02565b611f5061113c565b611f5a9190614514565b611f649190614514565b1115611fa5576040517f08c379a0000000000000000000000000000000000000000000000000000000008152600401611f9c906146b8565b60405180910390fd5b60008282905067ffffffffffffffff811115611fc457611fc3613f88565b5b604051908082528060200260200182016040528015611ff25781602001602082028036833780820191505090505b50905060005b8383905081101561207d5760166000815480929190612016906147d9565b919050555061204b84848381811061203157612030614821565b5b90506020020160208101906120469190613c71565b61280e565b82828151811061205e5761205d614821565b5b6020026020010181815250508080612075906147d9565b915050611ff8565b507f7240abb4cf762c2b9de052ad9e444ae3ae360eeb08d171b6f481bfe93fd589d542826040516120af92919061494a565b60405180910390a1505050565b60165481565b60606120cd82612702565b60006120d7612f12565b905060008151116120f75760405180602001604052806000815250612122565b8061210184612fa4565b6040516020016121129291906150c1565b6040516020818303038152906040525b915050919050565b600d5481565b600f6020528060005260406000206000915090505481565b6013818154811061215857600080fd5b906000526020600020016000915054906101000a900473ffffffffffffffffffffffffffffffffffffffff1681565b6000600660008473ffffffffffffffffffffffffffffffffffffffff1673ffffffffffffffffffffffffffffffffffffffff16815260200190815260200160002060008373ffffffffffffffffffffffffffffffffffffffff1673ffffffffffffffffffffffffffffffffffffffff16815260200190815260200160002060009054906101000a900460ff16905092915050565b61222361283b565b600073ffffffffffffffffffffffffffffffffffffffff168173ffffffffffffffffffffffffffffffffffffffff1603612292576040517f08c379a000000000000000000000000000000000000000000000000000000000815260040161228990615157565b60405180910390fd5b61229b81612c84565b50565b6000601060003373ffffffffffffffffffffffffffffffffffffffff1673ffffffffffffffffffffffffffffffffffffffff16815260200190815260200160002060009054906101000a900460ff1660ff1611612330576040517f08c379a0000000000000000000000000000000000000000000000000000000008152600401612327906151c3565b60405180910390fd5b6000601060003373ffffffffffffffffffffffffffffffffffffffff1673ffffffffffffffffffffffffffffffffffffffff16815260200190815260200160002060006101000a81548160ff021916908360ff1602179055506015600081548092919061239c906147d9565b919050555060006123ac3361280e565b90503373ffffffffffffffffffffffffffffffffffffffff167fa72aa19bfd87e001e03ac6bf966e0f914e84e90c84f842017e87ffc32547505f42836040516123f6929190614fca565b60405180910390a250565b6000601060008373ffffffffffffffffffffffffffffffffffffffff1673ffffffffffffffffffffffffffffffffffffffff16815260200190815260200160002060009054906101000a900460ff169050919050565b61245f61283b565b80600e60006101000a81548173ffffffffffffffffffffffffffffffffffffffff021916908373ffffffffffffffffffffffffffffffffffffffff16021790555050565b6124ab61283b565b600d54816124b7610d02565b6124bf61113c565b6124c99190614514565b6124d39190614514565b1115612514576040517f08c379a000000000000000000000000000000000000000000000000000000000815260040161250b906146b8565b60405180910390fd5b60008167ffffffffffffffff8111156125305761252f613f88565b5b60405190808252806020026020018201604052801561255e5781602001602082028036833780820191505090505b50905060005b828163ffffffff1610156125cb5760176000815480929190612585906147d9565b91905055506125933361280e565b828263ffffffff16815181106125ac576125ab614821565b5b60200260200101818152505080806125c390614860565b915050612564565b503373ffffffffffffffffffffffffffffffffffffffff167fbd547d42d8b7c4752032a26935a6490f6234a43a6f1ae3d267b3f000aa51ec62428360405161261492919061494a565b60405180910390a25050565b60007f80ac58cd000000000000000000000000000000000000000000000000000000007bffffffffffffffffffffffffffffffffffffffffffffffffffffffff1916827bffffffffffffffffffffffffffffffffffffffffffffffffffffffff191614806126eb57507f5b5e139f000000000000000000000000000000000000000000000000000000007bffffffffffffffffffffffffffffffffffffffffffffffffffffffff1916827bffffffffffffffffffffffffffffffffffffffffffffffffffffffff1916145b806126fb57506126fa82613072565b5b9050919050565b61270b816130dc565b61274a576040517f08c379a000000000000000000000000000000000000000000000000000000000815260040161274190614f18565b60405180910390fd5b50565b600033905090565b816005600083815260200190815260200160002060006101000a81548173ffffffffffffffffffffffffffffffffffffffff021916908373ffffffffffffffffffffffffffffffffffffffff160217905550808273ffffffffffffffffffffffffffffffffffffffff166127c8836117ea565b73ffffffffffffffffffffffffffffffffffffffff167f8c5be1e5ebec7d5bd14f71427d1e84f3dd0314c0f7b2291e5b200ac8c7c3b92560405160405180910390a45050565b600061281a601861311d565b60006128266018613133565b90506128328382613141565b80915050919050565b61284361274d565b73ffffffffffffffffffffffffffffffffffffffff16612861611d7d565b73ffffffffffffffffffffffffffffffffffffffff16146128b7576040517f08c379a00000000000000000000000000000000000000000000000000000000081526004016128ae9061522f565b60405180910390fd5b565b6000806128c5836117ea565b90508073ffffffffffffffffffffffffffffffffffffffff168473ffffffffffffffffffffffffffffffffffffffff16148061290757506129068185612187565b5b8061294557508373ffffffffffffffffffffffffffffffffffffffff1661292d84610d23565b73ffffffffffffffffffffffffffffffffffffffff16145b91505092915050565b8273ffffffffffffffffffffffffffffffffffffffff1661296e826117ea565b73ffffffffffffffffffffffffffffffffffffffff16146129c4576040517f08c379a00000000000000000000000000000000000000000000000000000000081526004016129bb906152c1565b60405180910390fd5b600073ffffffffffffffffffffffffffffffffffffffff168273ffffffffffffffffffffffffffffffffffffffff1603612a33576040517f08c379a0000000000000000000000000000000000000000000000000000000008152600401612a2a90615353565b60405180910390fd5b612a40838383600161315f565b8273ffffffffffffffffffffffffffffffffffffffff16612a60826117ea565b73ffffffffffffffffffffffffffffffffffffffff1614612ab6576040517f08c379a0000000000000000000000000000000000000000000000000000000008152600401612aad906152c1565b60405180910390fd5b6005600082815260200190815260200160002060006101000a81549073ffffffffffffffffffffffffffffffffffffffff02191690556001600460008573ffffffffffffffffffffffffffffffffffffffff1673ffffffffffffffffffffffffffffffffffffffff168152602001908152602001600020600082825403925050819055506001600460008473ffffffffffffffffffffffffffffffffffffffff1673ffffffffffffffffffffffffffffffffffffffff16815260200190815260200160002060008282540192505081905550816003600083815260200190815260200160002060006101000a81548173ffffffffffffffffffffffffffffffffffffffff021916908373ffffffffffffffffffffffffffffffffffffffff160217905550808273ffffffffffffffffffffffffffffffffffffffff168473ffffffffffffffffffffffffffffffffffffffff167fddf252ad1be2c89b69c2b068fc378daa952ba7f163c4a11628f55a4df523b3ef60405160405180910390a4612c4283838360016132bd565b505050565b60006003600083815260200190815260200160002060009054906101000a900473ffffffffffffffffffffffffffffffffffffffff169050919050565b6000600b60009054906101000a900473ffffffffffffffffffffffffffffffffffffffff16905081600b60006101000a81548173ffffffffffffffffffffffffffffffffffffffff021916908373ffffffffffffffffffffffffffffffffffffffff1602179055508173ffffffffffffffffffffffffffffffffffffffff168173ffffffffffffffffffffffffffffffffffffffff167f8be0079c531659141344cd1fd0a4f28419497f9722a3daafe3b4186f6b6457e060405160405180910390a35050565b8173ffffffffffffffffffffffffffffffffffffffff168373ffffffffffffffffffffffffffffffffffffffff1603612db8576040517f08c379a0000000000000000000000000000000000000000000000000000000008152600401612daf906153bf565b60405180910390fd5b80600660008573ffffffffffffffffffffffffffffffffffffffff1673ffffffffffffffffffffffffffffffffffffffff16815260200190815260200160002060008473ffffffffffffffffffffffffffffffffffffffff1673ffffffffffffffffffffffffffffffffffffffff16815260200190815260200160002060006101000a81548160ff0219169083151502179055508173ffffffffffffffffffffffffffffffffffffffff168373ffffffffffffffffffffffffffffffffffffffff167f17307eab39ab6107e8899845ad3d59bd9653f200f220920489ca2b5937696c3183604051612ea99190613bf8565b60405180910390a3505050565b612ec184848461294e565b612ecd848484846132c3565b612f0c576040517f08c379a0000000000000000000000000000000000000000000000000000000008152600401612f0390615451565b60405180910390fd5b50505050565b6060600c8054612f21906144b4565b80601f0160208091040260200160405190810160405280929190818152602001828054612f4d906144b4565b8015612f9a5780601f10612f6f57610100808354040283529160200191612f9a565b820191906000526020600020905b815481529060010190602001808311612f7d57829003601f168201915b5050505050905090565b606060006001612fb38461344a565b01905060008167ffffffffffffffff811115612fd257612fd1613f88565b5b6040519080825280601f01601f1916602001820160405280156130045781602001600182028036833780820191505090505b509050600082602001820190505b600115613067578080600190039150507f3031323334353637383961626364656600000000000000000000000000000000600a86061a8153600a858161305b5761305a615471565b5b04945060008503613012575b819350505050919050565b60007f01ffc9a7000000000000000000000000000000000000000000000000000000007bffffffffffffffffffffffffffffffffffffffffffffffffffffffff1916827bffffffffffffffffffffffffffffffffffffffffffffffffffffffff1916149050919050565b60008073ffffffffffffffffffffffffffffffffffffffff166130fe83612c47565b73ffffffffffffffffffffffffffffffffffffffff1614159050919050565b6001816000016000828254019250508190555050565b600081600001549050919050565b61315b82826040518060200160405280600081525061359d565b5050565b61316b848484846135f8565b60018111156131af576040517f08c379a00000000000000000000000000000000000000000000000000000000081526004016131a690615512565b60405180910390fd5b6000829050600073ffffffffffffffffffffffffffffffffffffffff168573ffffffffffffffffffffffffffffffffffffffff16036131f6576131f1816135fe565b613235565b8373ffffffffffffffffffffffffffffffffffffffff168573ffffffffffffffffffffffffffffffffffffffff1614613234576132338582613647565b5b5b600073ffffffffffffffffffffffffffffffffffffffff168473ffffffffffffffffffffffffffffffffffffffff160361327757613272816137b4565b6132b6565b8473ffffffffffffffffffffffffffffffffffffffff168473ffffffffffffffffffffffffffffffffffffffff16146132b5576132b48482613885565b5b5b5050505050565b50505050565b60006132e48473ffffffffffffffffffffffffffffffffffffffff16613904565b1561343d578373ffffffffffffffffffffffffffffffffffffffff1663150b7a0261330d61274d565b8786866040518563ffffffff1660e01b815260040161332f9493929190615587565b6020604051808303816000875af192505050801561336b57506040513d601f19601f8201168201806040525081019061336891906155e8565b60015b6133ed573d806000811461339b576040519150601f19603f3d011682016040523d82523d6000602084013e6133a0565b606091505b5060008151036133e5576040517f08c379a00000000000000000000000000000000000000000000000000000000081526004016133dc90615451565b60405180910390fd5b805181602001fd5b63150b7a0260e01b7bffffffffffffffffffffffffffffffffffffffffffffffffffffffff1916817bffffffffffffffffffffffffffffffffffffffffffffffffffffffff191614915050613442565b600190505b949350505050565b600080600090507a184f03e93ff9f4daa797ed6e38ed64bf6a1f01000000000000000083106134a8577a184f03e93ff9f4daa797ed6e38ed64bf6a1f010000000000000000838161349e5761349d615471565b5b0492506040810190505b6d04ee2d6d415b85acef810000000083106134e5576d04ee2d6d415b85acef810000000083816134db576134da615471565b5b0492506020810190505b662386f26fc10000831061351457662386f26fc10000838161350a57613509615471565b5b0492506010810190505b6305f5e100831061353d576305f5e100838161353357613532615471565b5b0492506008810190505b612710831061356257612710838161355857613557615471565b5b0492506004810190505b60648310613585576064838161357b5761357a615471565b5b0492506002810190505b600a8310613594576001810190505b80915050919050565b6135a78383613927565b6135b460008484846132c3565b6135f3576040517f08c379a00000000000000000000000000000000000000000000000000000000081526004016135ea90615451565b60405180910390fd5b505050565b50505050565b600980549050600a600083815260200190815260200160002081905550600981908060018154018082558091505060019003906000526020600020016000909190919091505550565b6000600161365484611b7c565b61365e9190615615565b9050600060086000848152602001908152602001600020549050818114613743576000600760008673ffffffffffffffffffffffffffffffffffffffff1673ffffffffffffffffffffffffffffffffffffffff168152602001908152602001600020600084815260200190815260200160002054905080600760008773ffffffffffffffffffffffffffffffffffffffff1673ffffffffffffffffffffffffffffffffffffffff168152602001908152602001600020600084815260200190815260200160002081905550816008600083815260200190815260200160002081905550505b6008600084815260200190815260200160002060009055600760008573ffffffffffffffffffffffffffffffffffffffff1673ffffffffffffffffffffffffffffffffffffffff16815260200190815260200160002060008381526020019081526020016000206000905550505050565b600060016009805490506137c89190615615565b90506000600a60008481526020019081526020016000205490506000600983815481106137f8576137f7614821565b5b90600052602060002001549050806009838154811061381a57613819614821565b5b906000526020600020018190555081600a600083815260200190815260200160002081905550600a600085815260200190815260200160002060009055600980548061386957613868615649565b5b6001900381819060005260206000200160009055905550505050565b600061389083611b7c565b905081600760008573ffffffffffffffffffffffffffffffffffffffff1673ffffffffffffffffffffffffffffffffffffffff168152602001908152602001600020600083815260200190815260200160002081905550806008600084815260200190815260200160002081905550505050565b6000808273ffffffffffffffffffffffffffffffffffffffff163b119050919050565b600073ffffffffffffffffffffffffffffffffffffffff168273ffffffffffffffffffffffffffffffffffffffff1603613996576040517f08c379a000000000000000000000000000000000000000000000000000000000815260040161398d906156c4565b60405180910390fd5b61399f816130dc565b156139df576040517f08c379a00000000000000000000000000000000000000000000000000000000081526004016139d690615730565b60405180910390fd5b6139ed60008383600161315f565b6139f6816130dc565b15613a36576040517f08c379a0000000000000000000000000000000000000000000000000000000008152600401613a2d90615730565b60405180910390fd5b6001600460008473ffffffffffffffffffffffffffffffffffffffff1673ffffffffffffffffffffffffffffffffffffffff16815260200190815260200160002060008282540192505081905550816003600083815260200190815260200160002060006101000a81548173ffffffffffffffffffffffffffffffffffffffff021916908373ffffffffffffffffffffffffffffffffffffffff160217905550808273ffffffffffffffffffffffffffffffffffffffff16600073ffffffffffffffffffffffffffffffffffffffff167fddf252ad1be2c89b69c2b068fc378daa952ba7f163c4a11628f55a4df523b3ef60405160405180910390a4613b406000838360016132bd565b5050565b6000604051905090565b600080fd5b600080fd5b60007fffffffff0000000000000000000000000000000000000000000000000000000082169050919050565b613b8d81613b58565b8114613b9857600080fd5b50565b600081359050613baa81613b84565b92915050565b600060208284031215613bc657613bc5613b4e565b5b6000613bd484828501613b9b565b91505092915050565b60008115159050919050565b613bf281613bdd565b82525050565b6000602082019050613c0d6000830184613be9565b92915050565b600073ffffffffffffffffffffffffffffffffffffffff82169050919050565b6000613c3e82613c13565b9050919050565b613c4e81613c33565b8114613c5957600080fd5b50565b600081359050613c6b81613c45565b92915050565b600060208284031215613c8757613c86613b4e565b5b6000613c9584828501613c5c565b91505092915050565b600060ff82169050919050565b613cb481613c9e565b82525050565b6000602082019050613ccf6000830184613cab565b92915050565b6000819050919050565b613ce881613cd5565b82525050565b6000602082019050613d036000830184613cdf565b92915050565b600081519050919050565b600082825260208201905092915050565b60005b83811015613d43578082015181840152602081019050613d28565b60008484015250505050565b6000601f19601f8301169050919050565b6000613d6b82613d09565b613d758185613d14565b9350613d85818560208601613d25565b613d8e81613d4f565b840191505092915050565b60006020820190508181036000830152613db38184613d60565b905092915050565b613dc481613cd5565b8114613dcf57600080fd5b50565b600081359050613de181613dbb565b92915050565b600060208284031215613dfd57613dfc613b4e565b5b6000613e0b84828501613dd2565b91505092915050565b613e1d81613c33565b82525050565b6000602082019050613e386000830184613e14565b92915050565b60008060408385031215613e5557613e54613b4e565b5b6000613e6385828601613c5c565b9250506020613e7485828601613dd2565b9150509250929050565b600080fd5b600080fd5b600080fd5b60008083601f840112613ea357613ea2613e7e565b5b8235905067ffffffffffffffff811115613ec057613ebf613e83565b5b602083019150836020820283011115613edc57613edb613e88565b5b9250929050565b60008060208385031215613efa57613ef9613b4e565b5b600083013567ffffffffffffffff811115613f1857613f17613b53565b5b613f2485828601613e8d565b92509250509250929050565b600080600060608486031215613f4957613f48613b4e565b5b6000613f5786828701613c5c565b9350506020613f6886828701613c5c565b9250506040613f7986828701613dd2565b9150509250925092565b600080fd5b7f4e487b7100000000000000000000000000000000000000000000000000000000600052604160045260246000fd5b613fc082613d4f565b810181811067ffffffffffffffff82111715613fdf57613fde613f88565b5b80604052505050565b6000613ff2613b44565b9050613ffe8282613fb7565b919050565b600067ffffffffffffffff82111561401e5761401d613f88565b5b61402782613d4f565b9050602081019050919050565b82818337600083830152505050565b600061405661405184614003565b613fe8565b90508281526020810184848401111561407257614071613f83565b5b61407d848285614034565b509392505050565b600082601f83011261409a57614099613e7e565b5b81356140aa848260208601614043565b91505092915050565b6000602082840312156140c9576140c8613b4e565b5b600082013567ffffffffffffffff8111156140e7576140e6613b53565b5b6140f384828501614085565b91505092915050565b60008083601f84011261411257614111613e7e565b5b8235905067ffffffffffffffff81111561412f5761412e613e83565b5b60208301915083602082028301111561414b5761414a613e88565b5b9250929050565b6000806000806040858703121561416c5761416b613b4e565b5b600085013567ffffffffffffffff81111561418a57614189613b53565b5b61419687828801613e8d565b9450945050602085013567ffffffffffffffff8111156141b9576141b8613b53565b5b6141c5878288016140fc565b925092505092959194509250565b60006141de82613c13565b9050919050565b6141ee816141d3565b82525050565b600060208201905061420960008301846141e5565b92915050565b6000806020838503121561422657614225613b4e565b5b600083013567ffffffffffffffff81111561424457614243613b53565b5b614250858286016140fc565b92509250509250929050565b61426581613bdd565b811461427057600080fd5b50565b6000813590506142828161425c565b92915050565b6000806040838503121561429f5761429e613b4e565b5b60006142ad85828601613c5c565b92505060206142be85828601614273565b9150509250929050565b600067ffffffffffffffff8211156142e3576142e2613f88565b5b6142ec82613d4f565b9050602081019050919050565b600061430c614307846142c8565b613fe8565b90508281526020810184848401111561432857614327613f83565b5b614333848285614034565b509392505050565b600082601f8301126143505761434f613e7e565b5b81356143608482602086016142f9565b91505092915050565b6000806000806080858703121561438357614382613b4e565b5b600061439187828801613c5c565b94505060206143a287828801613c5c565b93505060406143b387828801613dd2565b925050606085013567ffffffffffffffff8111156143d4576143d3613b53565b5b6143e08782880161433b565b91505092959194509250565b6000806040838503121561440357614402613b4e565b5b600061441185828601613c5c565b925050602061442285828601613c5c565b9150509250929050565b614435816141d3565b811461444057600080fd5b50565b6000813590506144528161442c565b92915050565b60006020828403121561446e5761446d613b4e565b5b600061447c84828501614443565b91505092915050565b7f4e487b7100000000000000000000000000000000000000000000000000000000600052602260045260246000fd5b600060028204905060018216806144cc57607f821691505b6020821081036144df576144de614485565b5b50919050565b7f4e487b7100000000000000000000000000000000000000000000000000000000600052601160045260246000fd5b600061451f82613cd5565b915061452a83613cd5565b9250828201905080821115614542576145416144e5565b5b92915050565b7f4552433732313a20617070726f76616c20746f2063757272656e74206f776e6560008201527f7200000000000000000000000000000000000000000000000000000000000000602082015250565b60006145a4602183613d14565b91506145af82614548565b604082019050919050565b600060208201905081810360008301526145d381614597565b9050919050565b7f4552433732313a20617070726f76652063616c6c6572206973206e6f7420746f60008201527f6b656e206f776e6572206f7220617070726f76656420666f7220616c6c000000602082015250565b6000614636603d83613d14565b9150614641826145da565b604082019050919050565b6000602082019050818103600083015261466581614629565b9050919050565b7f4e6f7420656e6f75676820746f6b656e73206c65667400000000000000000000600082015250565b60006146a2601683613d14565b91506146ad8261466c565b602082019050919050565b600060208201905081810360008301526146d181614695565b9050919050565b7f4e6f7420656c696769626c650000000000000000000000000000000000000000600082015250565b600061470e600c83613d14565b9150614719826146d8565b602082019050919050565b6000602082019050818103600083015261473d81614701565b9050919050565b7f4e6f7420656e6f75676820636c61696d61626c6520746f6b656e730000000000600082015250565b600061477a601b83613d14565b915061478582614744565b602082019050919050565b600060208201905081810360008301526147a98161476d565b9050919050565b60006147bb82613cd5565b9150600082036147ce576147cd6144e5565b5b600182039050919050565b60006147e482613cd5565b91507fffffffffffffffffffffffffffffffffffffffffffffffffffffffffffffffff8203614816576148156144e5565b5b600182019050919050565b7f4e487b7100000000000000000000000000000000000000000000000000000000600052603260045260246000fd5b600063ffffffff82169050919050565b600061486b82614850565b915063ffffffff8203614881576148806144e5565b5b600182019050919050565b600081519050919050565b600082825260208201905092915050565b6000819050602082019050919050565b6148c181613cd5565b82525050565b60006148d383836148b8565b60208301905092915050565b6000602082019050919050565b60006148f78261488c565b6149018185614897565b935061490c836148a8565b8060005b8381101561493d57815161492488826148c7565b975061492f836148df565b925050600181019050614910565b5085935050505092915050565b600060408201905061495f6000830185613cdf565b818103602083015261497181846148ec565b90509392505050565b600082825260208201905092915050565b6000819050919050565b61499e81613c33565b82525050565b60006149b08383614995565b60208301905092915050565b60006149cb6020840184613c5c565b905092915050565b6000602082019050919050565b60006149ec838561497a565b93506149f78261498b565b8060005b85811015614a3057614a0d82846149bc565b614a1788826149a4565b9750614a22836149d3565b9250506001810190506149fb565b5085925050509392505050565b6000604082019050614a526000830186613cdf565b8181036020830152614a658184866149e0565b9050949350505050565b7f4552433732313a2063616c6c6572206973206e6f7420746f6b656e206f776e6560008201527f72206f7220617070726f76656400000000000000000000000000000000000000602082015250565b6000614acb602d83613d14565b9150614ad682614a6f565b604082019050919050565b60006020820190508181036000830152614afa81614abe565b9050919050565b7f455243373231456e756d657261626c653a206f776e657220696e646578206f7560008201527f74206f6620626f756e6473000000000000000000000000000000000000000000602082015250565b6000614b5d602b83613d14565b9150614b6882614b01565b604082019050919050565b60006020820190508181036000830152614b8c81614b50565b9050919050565b60008190508160005260206000209050919050565b60006020601f8301049050919050565b600082821b905092915050565b600060088302614bf57fffffffffffffffffffffffffffffffffffffffffffffffffffffffffffffffff82614bb8565b614bff8683614bb8565b95508019841693508086168417925050509392505050565b6000819050919050565b6000614c3c614c37614c3284613cd5565b614c17565b613cd5565b9050919050565b6000819050919050565b614c5683614c21565b614c6a614c6282614c43565b848454614bc5565b825550505050565b600090565b614c7f614c72565b614c8a818484614c4d565b505050565b5b81811015614cae57614ca3600082614c77565b600181019050614c90565b5050565b601f821115614cf357614cc481614b93565b614ccd84614ba8565b81016020851015614cdc578190505b614cf0614ce885614ba8565b830182614c8f565b50505b505050565b600082821c905092915050565b6000614d1660001984600802614cf8565b1980831691505092915050565b6000614d2f8383614d05565b9150826002028217905092915050565b614d4882613d09565b67ffffffffffffffff811115614d6157614d60613f88565b5b614d6b82546144b4565b614d76828285614cb2565b600060209050601f831160018114614da95760008415614d97578287015190505b614da18582614d23565b865550614e09565b601f198416614db786614b93565b60005b82811015614ddf57848901518255600182019150602085019450602081019050614dba565b86831015614dfc5784890151614df8601f891682614d05565b8355505b6001600288020188555050505b505050505050565b6000614e1c82613c9e565b915060ff8203614e2f57614e2e6144e5565b5b600182019050919050565b7f455243373231456e756d657261626c653a20676c6f62616c20696e646578206f60008201527f7574206f6620626f756e64730000000000000000000000000000000000000000602082015250565b6000614e96602c83613d14565b9150614ea182614e3a565b604082019050919050565b60006020820190508181036000830152614ec581614e89565b9050919050565b7f4552433732313a20696e76616c696420746f6b656e2049440000000000000000600082015250565b6000614f02601883613d14565b9150614f0d82614ecc565b602082019050919050565b60006020820190508181036000830152614f3181614ef5565b9050919050565b7f436f756e742061646472657373657320616e6420636f756e74207175616e746960008201527f74696573206d75737420626520657175616c0000000000000000000000000000602082015250565b6000614f94603283613d14565b9150614f9f82614f38565b604082019050919050565b60006020820190508181036000830152614fc381614f87565b9050919050565b6000604082019050614fdf6000830185613cdf565b614fec6020830184613cdf565b9392505050565b7f4552433732313a2061646472657373207a65726f206973206e6f74206120766160008201527f6c6964206f776e65720000000000000000000000000000000000000000000000602082015250565b600061504f602983613d14565b915061505a82614ff3565b604082019050919050565b6000602082019050818103600083015261507e81615042565b9050919050565b600081905092915050565b600061509b82613d09565b6150a58185615085565b93506150b5818560208601613d25565b80840191505092915050565b60006150cd8285615090565b91506150d98284615090565b91508190509392505050565b7f4f776e61626c653a206e6577206f776e657220697320746865207a65726f206160008201527f6464726573730000000000000000000000000000000000000000000000000000602082015250565b6000615141602683613d14565b915061514c826150e5565b604082019050919050565b6000602082019050818103600083015261517081615134565b9050919050565b7f4e6f206769766577617900000000000000000000000000000000000000000000600082015250565b60006151ad600a83613d14565b91506151b882615177565b602082019050919050565b600060208201905081810360008301526151dc816151a0565b9050919050565b7f4f776e61626c653a2063616c6c6572206973206e6f7420746865206f776e6572600082015250565b6000615219602083613d14565b9150615224826151e3565b602082019050919050565b600060208201905081810360008301526152488161520c565b9050919050565b7f4552433732313a207472616e736665722066726f6d20696e636f72726563742060008201527f6f776e6572000000000000000000000000000000000000000000000000000000602082015250565b60006152ab602583613d14565b91506152b68261524f565b604082019050919050565b600060208201905081810360008301526152da8161529e565b9050919050565b7f4552433732313a207472616e7366657220746f20746865207a65726f2061646460008201527f7265737300000000000000000000000000000000000000000000000000000000602082015250565b600061533d602483613d14565b9150615348826152e1565b604082019050919050565b6000602082019050818103600083015261536c81615330565b9050919050565b7f4552433732313a20617070726f766520746f2063616c6c657200000000000000600082015250565b60006153a9601983613d14565b91506153b482615373565b602082019050919050565b600060208201905081810360008301526153d88161539c565b9050919050565b7f4552433732313a207472616e7366657220746f206e6f6e20455243373231526560008201527f63656976657220696d706c656d656e7465720000000000000000000000000000602082015250565b600061543b603283613d14565b9150615446826153df565b604082019050919050565b6000602082019050818103600083015261546a8161542e565b9050919050565b7f4e487b7100000000000000000000000000000000000000000000000000000000600052601260045260246000fd5b7f455243373231456e756d657261626c653a20636f6e736563757469766520747260008201527f616e7366657273206e6f7420737570706f727465640000000000000000000000602082015250565b60006154fc603583613d14565b9150615507826154a0565b604082019050919050565b6000602082019050818103600083015261552b816154ef565b9050919050565b600081519050919050565b600082825260208201905092915050565b600061555982615532565b615563818561553d565b9350615573818560208601613d25565b61557c81613d4f565b840191505092915050565b600060808201905061559c6000830187613e14565b6155a96020830186613e14565b6155b66040830185613cdf565b81810360608301526155c8818461554e565b905095945050505050565b6000815190506155e281613b84565b92915050565b6000602082840312156155fe576155fd613b4e565b5b600061560c848285016155d3565b91505092915050565b600061562082613cd5565b915061562b83613cd5565b9250828203905081811115615643576156426144e5565b5b92915050565b7f4e487b7100000000000000000000000000000000000000000000000000000000600052603160045260246000fd5b7f4552433732313a206d696e7420746f20746865207a65726f2061646472657373600082015250565b60006156ae602083613d14565b91506156b982615678565b602082019050919050565b600060208201905081810360008301526156dd816156a1565b9050919050565b7f4552433732313a20746f6b656e20616c7265616479206d696e74656400000000600082015250565b600061571a601c83613d14565b9150615725826156e4565b602082019050919050565b600060208201905081810360008301526157498161570d565b905091905056fea2646970667358221220094cf452e3d36c01266335eff73c6f3783760dba552a1240b910c527c7eac3b664736f6c63430008130033",
  "immutableReferences": {},
  "source": "// SPDX-License-Identifier: MIT\npragma solidity 0.8.19;\n\nimport \"@openzeppelin/contracts/token/ERC721/extensions/ERC721Enumerable.sol\";\nimport \"@openzeppelin/contracts/access/Ownable.sol\";\nimport \"@openzeppelin/contracts/security/ReentrancyGuard.sol\";\nimport \"@openzeppelin/contracts/utils/Address.sol\";\nimport \"@openzeppelin/contracts/utils/Counters.sol\";\nimport \"@openzeppelin/contracts/utils/Strings.sol\";\n\ncontract MetaLifeOgPet is ReentrancyGuard, ERC721Enumerable, Ownable {\n\n  using Counters for Counters.Counter;\n  using Strings for uint256;\n\n  // Logs\n  event AddedAddressesEligible(uint256 nbWallets, uint256 countQuantities);\n  event AddedAddressesGiveway(uint256 nbWallets);\n\n  event MintedEligible(address indexed from, uint256 timestamp, uint256[] tokenIds);\n  event MintedGiveway(address indexed from, uint256 timestamp, uint256 tokenId);\n  event MintedAirdrop(uint256 timestamp, uint256[] tokenIds);\n  event MintedDev(address indexed from, uint256 timestamp, uint256[] tokenIds);\n\n  event RevokedAddressesEligible(uint256 timestamp, address[] revokedAddresses);\n  event RevokedAddressesGiveway(uint256 timestamp, address[] revokedAddresses);\n\n  // Public var\n  string public baseURI;\n  uint256 public maxSupply = 1500;\n  address payable public collector;\n\n  mapping(address => uint256) public addressesEligible;\n  mapping(address => uint8) public addressesGiveway;\n  mapping(address => uint8) public addressesAirdrop;\n  address[] public listAddressesEligible;\n  address[] public listAddressesGiveway;\n\n  uint256 public mintedEligible = 0;\n  uint256 public mintedGiveway = 0;\n  uint256 public mintedAirdrop = 0;\n  uint256 public mintedDev = 0;\n\n  // Private var\n  Counters.Counter private _tokenIds;\n\n  constructor(string memory name_, string memory symbol_) ERC721(name_, symbol_){\n  }\n\n  function withdrawAll() public payable onlyOwner {\n    collector.transfer(address(this).balance);\n  }\n\n  function setCollector(address payable _newCollector) public onlyOwner {\n    collector = _newCollector;\n  }\n\n  function getMintEligible() public view returns(uint256) {\n    return addressesEligible[msg.sender];\n  }\n\n  function getMintEligibleByAddress(address _wallet) public view returns(uint256) {\n    return addressesEligible[_wallet];\n  }\n\n  function getMintGivewayByAddress(address _address) public view returns(uint8) {\n    return addressesGiveway[_address];\n  }\n\n  function _setBaseURI(string memory _newBaseURI) public onlyOwner {\n    baseURI = _newBaseURI;\n  }\n\n  function _baseURI() internal view virtual override returns (string memory) {\n    return baseURI;\n  }\n\n  function _restMintEligible() public view returns (uint256) {\n    uint256 restToMint = 0;\n    for (uint i = 0; i < listAddressesEligible.length; i++) {\n      restToMint += addressesEligible[listAddressesEligible[i]];\n    }\n    return restToMint;\n  }\n\n  function _restMintGiveway() public view returns (uint256) {\n    uint256 restToMint = 0;\n    for (uint i = 0; i < listAddressesGiveway.length; i++) {\n      restToMint += addressesGiveway[listAddressesGiveway[i]];\n    }\n    return restToMint;\n  }\n\n  function _restMint() public view returns (uint256) {\n    return _restMintEligible() + _restMintGiveway();\n  }\n\n  function _sumQuantities(uint256[] calldata _quantities) public pure returns (uint256) {\n    uint256 sum = 0;\n    for (uint i = 0; i < _quantities.length; i++) {\n      sum += _quantities[i];\n    }\n    return sum;\n  }\n\n  function addAddressesEligible(address[] calldata _toAddAddresses, uint256[] calldata _quantities) external onlyOwner {\n    require(_toAddAddresses.length == _quantities.length, \"Count addresses and count quantities must be equal\");\n    require(totalSupply() + _restMint() + _sumQuantities(_quantities) <= maxSupply, \"Not enough tokens left\");\n    for (uint i = 0; i < _toAddAddresses.length; i++) {\n      addressesEligible[_toAddAddresses[i]] = _quantities[i];\n      listAddressesEligible.push(_toAddAddresses[i]);\n    }\n    emit AddedAddressesEligible(_toAddAddresses.length, _quantities.length);\n  }\n\n  function revokeAddressesEligible(address[] calldata _revokeAddresses) external onlyOwner {\n    for (uint i = 0; i < _revokeAddresses.length; i++) {\n      addressesEligible[_revokeAddresses[i]] = 0;\n    }\n    emit RevokedAddressesEligible(block.timestamp, _revokeAddresses);\n  }\n\n  function revokeAddressesGiveway(address[] calldata _revokeAddresses) external onlyOwner {\n    for (uint i = 0; i < _revokeAddresses.length; i++) {\n      addressesGiveway[_revokeAddresses[i]] = 0;\n    }\n    emit RevokedAddressesGiveway(block.timestamp, _revokeAddresses);\n  }\n\n  function _mint(address _to) internal returns (uint256) {\n    _tokenIds.increment();\n    uint256 _tokenId = _tokenIds.current();\n    _safeMint(_to, _tokenId);\n    return _tokenId;\n  }\n\n  function mintEligible(uint256 _nb) external payable {\n    require(totalSupply() + _nb <= maxSupply, \"Not enough tokens left\");\n    require(addressesEligible[msg.sender] > 0, \"Not eligible\");\n    require(addressesEligible[msg.sender] >= _nb, \"Not enough claimable tokens\");\n\n    uint256[] memory _tokenIdsMinted = new uint256[](_nb);\n    for (uint32 i = 0; i < _nb; i++) {\n      addressesEligible[msg.sender]--;\n      mintedEligible++;\n      _tokenIdsMinted[i] = _mint(msg.sender);\n    }\n    emit MintedEligible(msg.sender, block.timestamp, _tokenIdsMinted);\n  }\n\n  function mintDev(uint256 _nb) external onlyOwner {\n    require(totalSupply() + _restMint() + _nb <= maxSupply, \"Not enough tokens left\");\n\n    uint256[] memory _tokenIdsMinted = new uint256[](_nb);\n    for (uint32 i = 0; i < _nb; i++) {\n      mintedDev++;\n      _tokenIdsMinted[i] = _mint(msg.sender);\n    }\n    emit MintedDev(msg.sender, block.timestamp, _tokenIdsMinted);\n  }\n\n  function addAddressesGiveway(address[] calldata _toAddAddresses) external onlyOwner {\n    require(totalSupply() + _restMint() + _toAddAddresses.length <= maxSupply, \"Not enough tokens left\");\n    for (uint i = 0; i < _toAddAddresses.length; i++) {\n      addressesGiveway[_toAddAddresses[i]]++;\n      listAddressesGiveway.push(_toAddAddresses[i]);\n    }\n    emit AddedAddressesGiveway(_toAddAddresses.length);\n  }\n\n  function mintGiveway() external payable {\n    require(addressesGiveway[msg.sender] > 0, \"No giveway\");\n\n    addressesGiveway[msg.sender] = 0;\n    mintedGiveway++;\n    uint256 _tokenIdMinted = _mint(msg.sender);\n\n    emit MintedGiveway(msg.sender, block.timestamp, _tokenIdMinted);\n  }\n\n  function mintAirdrop(address[] calldata _toAirdropAddresses) external onlyOwner {\n    require(totalSupply() + _restMint() + _toAirdropAddresses.length <= maxSupply, \"Not enough tokens left\");\n\n    uint256[] memory _tokenIdsMinted = new uint256[](_toAirdropAddresses.length);\n    for (uint i = 0; i < _toAirdropAddresses.length; i++) {\n      mintedAirdrop++;\n      _tokenIdsMinted[i] = _mint(_toAirdropAddresses[i]);\n    }\n\n    emit MintedAirdrop(block.timestamp, _tokenIdsMinted);\n  }\n}\n",
  "sourcePath": "/Users/rchea/workspaces/MetaLegends/contract-pet/contracts/MetaLifeOgPet.sol",
  "compiler": {
    "name": "solc",
    "version": "0.8.19+commit.7dd6d404.Emscripten.clang"
  },
  "schemaVersion": "3.4.13",
  "updatedAt": "2023-06-19T12:52:39.146Z",
  "networkType": "ethereum",
  "devdoc": {
    "events": {
      "Approval(address,address,uint256)": {
        "details": "Emitted when `owner` enables `approved` to manage the `tokenId` token."
      },
      "ApprovalForAll(address,address,bool)": {
        "details": "Emitted when `owner` enables or disables (`approved`) `operator` to manage all of its assets."
      },
      "Transfer(address,address,uint256)": {
        "details": "Emitted when `tokenId` token is transferred from `from` to `to`."
      }
    },
    "kind": "dev",
    "methods": {
      "approve(address,uint256)": {
        "details": "See {IERC721-approve}."
      },
      "balanceOf(address)": {
        "details": "See {IERC721-balanceOf}."
      },
      "getApproved(uint256)": {
        "details": "See {IERC721-getApproved}."
      },
      "isApprovedForAll(address,address)": {
        "details": "See {IERC721-isApprovedForAll}."
      },
      "name()": {
        "details": "See {IERC721Metadata-name}."
      },
      "owner()": {
        "details": "Returns the address of the current owner."
      },
      "ownerOf(uint256)": {
        "details": "See {IERC721-ownerOf}."
      },
      "renounceOwnership()": {
        "details": "Leaves the contract without owner. It will not be possible to call `onlyOwner` functions anymore. Can only be called by the current owner. NOTE: Renouncing ownership will leave the contract without an owner, thereby removing any functionality that is only available to the owner."
      },
      "safeTransferFrom(address,address,uint256)": {
        "details": "See {IERC721-safeTransferFrom}."
      },
      "safeTransferFrom(address,address,uint256,bytes)": {
        "details": "See {IERC721-safeTransferFrom}."
      },
      "setApprovalForAll(address,bool)": {
        "details": "See {IERC721-setApprovalForAll}."
      },
      "supportsInterface(bytes4)": {
        "details": "See {IERC165-supportsInterface}."
      },
      "symbol()": {
        "details": "See {IERC721Metadata-symbol}."
      },
      "tokenByIndex(uint256)": {
        "details": "See {IERC721Enumerable-tokenByIndex}."
      },
      "tokenOfOwnerByIndex(address,uint256)": {
        "details": "See {IERC721Enumerable-tokenOfOwnerByIndex}."
      },
      "tokenURI(uint256)": {
        "details": "See {IERC721Metadata-tokenURI}."
      },
      "totalSupply()": {
        "details": "See {IERC721Enumerable-totalSupply}."
      },
      "transferFrom(address,address,uint256)": {
        "details": "See {IERC721-transferFrom}."
      },
      "transferOwnership(address)": {
        "details": "Transfers ownership of the contract to a new account (`newOwner`). Can only be called by the current owner."
      }
    },
    "version": 1
  },
  "userdoc": {
    "kind": "user",
    "methods": {},
    "version": 1
  }
}