{
  "contractName": "MetaLifeOgPets",
  "abi": [
    {
      "inputs": [
        {
          "internalType": "string",
          "name": "name_",
          "type": "string"
        },
        {
          "internalType": "string",
          "name": "symbol_",
          "type": "string"
        }
      ],
      "stateMutability": "nonpayable",
      "type": "constructor"
    },
    {
      "anonymous": false,
      "inputs": [
        {
          "indexed": true,
          "internalType": "address",
          "name": "owner",
          "type": "address"
        },
        {
          "indexed": true,
          "internalType": "address",
          "name": "approved",
          "type": "address"
        },
        {
          "indexed": true,
          "internalType": "uint256",
          "name": "tokenId",
          "type": "uint256"
        }
      ],
      "name": "Approval",
      "type": "event"
    },
    {
      "anonymous": false,
      "inputs": [
        {
          "indexed": true,
          "internalType": "address",
          "name": "owner",
          "type": "address"
        },
        {
          "indexed": true,
          "internalType": "address",
          "name": "operator",
          "type": "address"
        },
        {
          "indexed": false,
          "internalType": "bool",
          "name": "approved",
          "type": "bool"
        }
      ],
      "name": "ApprovalForAll",
      "type": "event"
    },
    {
      "anonymous": false,
      "inputs": [
        {
          "indexed": true,
          "internalType": "address",
          "name": "from",
          "type": "address"
        },
        {
          "indexed": false,
          "internalType": "uint256",
          "name": "timestamp",
          "type": "uint256"
        },
        {
          "indexed": false,
          "internalType": "uint256[]",
          "name": "tokenIds",
          "type": "uint256[]"
        }
      ],
      "name": "MintedCouncil",
      "type": "event"
    },
    {
      "anonymous": false,
      "inputs": [
        {
          "indexed": true,
          "internalType": "address",
          "name": "from",
          "type": "address"
        },
        {
          "indexed": false,
          "internalType": "uint256",
          "name": "timestamp",
          "type": "uint256"
        },
        {
          "indexed": false,
          "internalType": "uint256",
          "name": "tokenId",
          "type": "uint256"
        }
      ],
      "name": "MintedGuardian",
      "type": "event"
    },
    {
      "anonymous": false,
      "inputs": [
        {
          "indexed": true,
          "internalType": "address",
          "name": "from",
          "type": "address"
        },
        {
          "indexed": false,
          "internalType": "uint256",
          "name": "timestamp",
          "type": "uint256"
        },
        {
          "indexed": false,
          "internalType": "uint256",
          "name": "tokenId",
          "type": "uint256"
        }
      ],
      "name": "MintedHonorary",
      "type": "event"
    },
    {
      "anonymous": false,
      "inputs": [
        {
          "indexed": true,
          "internalType": "address",
          "name": "from",
          "type": "address"
        },
        {
          "indexed": false,
          "internalType": "uint256",
          "name": "timestamp",
          "type": "uint256"
        },
        {
          "indexed": false,
          "internalType": "uint256",
          "name": "tokenId",
          "type": "uint256"
        }
      ],
      "name": "MintedJudge",
      "type": "event"
    },
    {
      "anonymous": false,
      "inputs": [
        {
          "indexed": true,
          "internalType": "address",
          "name": "from",
          "type": "address"
        },
        {
          "indexed": false,
          "internalType": "uint256",
          "name": "timestamp",
          "type": "uint256"
        },
        {
          "indexed": false,
          "internalType": "uint256[]",
          "name": "tokenIds",
          "type": "uint256[]"
        }
      ],
      "name": "MintedRandom",
      "type": "event"
    },
    {
      "anonymous": false,
      "inputs": [
        {
          "indexed": true,
          "internalType": "address",
          "name": "from",
          "type": "address"
        },
        {
          "indexed": false,
          "internalType": "uint256",
          "name": "timestamp",
          "type": "uint256"
        },
        {
          "indexed": false,
          "internalType": "uint256",
          "name": "tokenId",
          "type": "uint256"
        }
      ],
      "name": "MintedWhale",
      "type": "event"
    },
    {
      "anonymous": false,
      "inputs": [
        {
          "indexed": true,
          "internalType": "address",
          "name": "previousOwner",
          "type": "address"
        },
        {
          "indexed": true,
          "internalType": "address",
          "name": "newOwner",
          "type": "address"
        }
      ],
      "name": "OwnershipTransferred",
      "type": "event"
    },
    {
      "anonymous": false,
      "inputs": [
        {
          "indexed": true,
          "internalType": "address",
          "name": "from",
          "type": "address"
        },
        {
          "indexed": true,
          "internalType": "address",
          "name": "to",
          "type": "address"
        },
        {
          "indexed": true,
          "internalType": "uint256",
          "name": "tokenId",
          "type": "uint256"
        }
      ],
      "name": "Transfer",
      "type": "event"
    },
    {
      "inputs": [
        {
          "internalType": "address",
          "name": "to",
          "type": "address"
        },
        {
          "internalType": "uint256",
          "name": "tokenId",
          "type": "uint256"
        }
      ],
      "name": "approve",
      "outputs": [],
      "stateMutability": "nonpayable",
      "type": "function"
    },
    {
      "inputs": [
        {
          "internalType": "address",
          "name": "owner",
          "type": "address"
        }
      ],
      "name": "balanceOf",
      "outputs": [
        {
          "internalType": "uint256",
          "name": "",
          "type": "uint256"
        }
      ],
      "stateMutability": "view",
      "type": "function",
      "constant": true
    },
    {
      "inputs": [],
      "name": "baseURI",
      "outputs": [
        {
          "internalType": "string",
          "name": "",
          "type": "string"
        }
      ],
      "stateMutability": "view",
      "type": "function",
      "constant": true
    },
    {
      "inputs": [
        {
          "internalType": "uint256",
          "name": "tokenId",
          "type": "uint256"
        }
      ],
      "name": "getApproved",
      "outputs": [
        {
          "internalType": "address",
          "name": "",
          "type": "address"
        }
      ],
      "stateMutability": "view",
      "type": "function",
      "constant": true
    },
    {
      "inputs": [
        {
          "internalType": "address",
          "name": "owner",
          "type": "address"
        },
        {
          "internalType": "address",
          "name": "operator",
          "type": "address"
        }
      ],
      "name": "isApprovedForAll",
      "outputs": [
        {
          "internalType": "bool",
          "name": "",
          "type": "bool"
        }
      ],
      "stateMutability": "view",
      "type": "function",
      "constant": true
    },
    {
      "inputs": [],
      "name": "name",
      "outputs": [
        {
          "internalType": "string",
          "name": "",
          "type": "string"
        }
      ],
      "stateMutability": "view",
      "type": "function",
      "constant": true
    },
    {
      "inputs": [],
      "name": "owner",
      "outputs": [
        {
          "internalType": "address",
          "name": "",
          "type": "address"
        }
      ],
      "stateMutability": "view",
      "type": "function",
      "constant": true
    },
    {
      "inputs": [
        {
          "internalType": "uint256",
          "name": "tokenId",
          "type": "uint256"
        }
      ],
      "name": "ownerOf",
      "outputs": [
        {
          "internalType": "address",
          "name": "",
          "type": "address"
        }
      ],
      "stateMutability": "view",
      "type": "function",
      "constant": true
    },
    {
      "inputs": [],
      "name": "renounceOwnership",
      "outputs": [],
      "stateMutability": "nonpayable",
      "type": "function"
    },
    {
      "inputs": [
        {
          "internalType": "address",
          "name": "from",
          "type": "address"
        },
        {
          "internalType": "address",
          "name": "to",
          "type": "address"
        },
        {
          "internalType": "uint256",
          "name": "tokenId",
          "type": "uint256"
        }
      ],
      "name": "safeTransferFrom",
      "outputs": [],
      "stateMutability": "nonpayable",
      "type": "function"
    },
    {
      "inputs": [
        {
          "internalType": "address",
          "name": "from",
          "type": "address"
        },
        {
          "internalType": "address",
          "name": "to",
          "type": "address"
        },
        {
          "internalType": "uint256",
          "name": "tokenId",
          "type": "uint256"
        },
        {
          "internalType": "bytes",
          "name": "data",
          "type": "bytes"
        }
      ],
      "name": "safeTransferFrom",
      "outputs": [],
      "stateMutability": "nonpayable",
      "type": "function"
    },
    {
      "inputs": [
        {
          "internalType": "address",
          "name": "operator",
          "type": "address"
        },
        {
          "internalType": "bool",
          "name": "approved",
          "type": "bool"
        }
      ],
      "name": "setApprovalForAll",
      "outputs": [],
      "stateMutability": "nonpayable",
      "type": "function"
    },
    {
      "inputs": [
        {
          "internalType": "bytes4",
          "name": "interfaceId",
          "type": "bytes4"
        }
      ],
      "name": "supportsInterface",
      "outputs": [
        {
          "internalType": "bool",
          "name": "",
          "type": "bool"
        }
      ],
      "stateMutability": "view",
      "type": "function",
      "constant": true
    },
    {
      "inputs": [],
      "name": "symbol",
      "outputs": [
        {
          "internalType": "string",
          "name": "",
          "type": "string"
        }
      ],
      "stateMutability": "view",
      "type": "function",
      "constant": true
    },
    {
      "inputs": [
        {
          "internalType": "uint256",
          "name": "index",
          "type": "uint256"
        }
      ],
      "name": "tokenByIndex",
      "outputs": [
        {
          "internalType": "uint256",
          "name": "",
          "type": "uint256"
        }
      ],
      "stateMutability": "view",
      "type": "function",
      "constant": true
    },
    {
      "inputs": [
        {
          "internalType": "address",
          "name": "owner",
          "type": "address"
        },
        {
          "internalType": "uint256",
          "name": "index",
          "type": "uint256"
        }
      ],
      "name": "tokenOfOwnerByIndex",
      "outputs": [
        {
          "internalType": "uint256",
          "name": "",
          "type": "uint256"
        }
      ],
      "stateMutability": "view",
      "type": "function",
      "constant": true
    },
    {
      "inputs": [
        {
          "internalType": "uint256",
          "name": "tokenId",
          "type": "uint256"
        }
      ],
      "name": "tokenURI",
      "outputs": [
        {
          "internalType": "string",
          "name": "",
          "type": "string"
        }
      ],
      "stateMutability": "view",
      "type": "function",
      "constant": true
    },
    {
      "inputs": [],
      "name": "totalSupply",
      "outputs": [
        {
          "internalType": "uint256",
          "name": "",
          "type": "uint256"
        }
      ],
      "stateMutability": "view",
      "type": "function",
      "constant": true
    },
    {
      "inputs": [
        {
          "internalType": "address",
          "name": "from",
          "type": "address"
        },
        {
          "internalType": "address",
          "name": "to",
          "type": "address"
        },
        {
          "internalType": "uint256",
          "name": "tokenId",
          "type": "uint256"
        }
      ],
      "name": "transferFrom",
      "outputs": [],
      "stateMutability": "nonpayable",
      "type": "function"
    },
    {
      "inputs": [
        {
          "internalType": "address",
          "name": "newOwner",
          "type": "address"
        }
      ],
      "name": "transferOwnership",
      "outputs": [],
      "stateMutability": "nonpayable",
      "type": "function"
    },
    {
      "inputs": [],
      "name": "withdrawAll",
      "outputs": [],
      "stateMutability": "payable",
      "type": "function",
      "payable": true
    },
    {
      "inputs": [
        {
          "internalType": "address payable",
          "name": "_newCollector",
          "type": "address"
        }
      ],
      "name": "setCollector",
      "outputs": [],
      "stateMutability": "nonpayable",
      "type": "function"
    },
    {
      "inputs": [
        {
          "internalType": "string",
          "name": "_newBaseURI",
          "type": "string"
        }
      ],
      "name": "_setBaseURI",
      "outputs": [],
      "stateMutability": "nonpayable",
      "type": "function"
    },
    {
      "inputs": [
        {
          "internalType": "address[]",
          "name": "_toAddAddresses",
          "type": "address[]"
        },
        {
          "internalType": "uint8[]",
          "name": "_quantities",
          "type": "uint8[]"
        }
      ],
      "name": "addAddressesRandom",
      "outputs": [],
      "stateMutability": "nonpayable",
      "type": "function"
    },
    {
      "inputs": [
        {
          "internalType": "address[]",
          "name": "_toAddAddresses",
          "type": "address[]"
        },
        {
          "internalType": "uint8[]",
          "name": "_quantities",
          "type": "uint8[]"
        }
      ],
      "name": "addAddressesCouncil",
      "outputs": [],
      "stateMutability": "nonpayable",
      "type": "function"
    },
    {
      "inputs": [
        {
          "internalType": "address[]",
          "name": "_toAddAddresses",
          "type": "address[]"
        }
      ],
      "name": "addAddressesHonorary",
      "outputs": [],
      "stateMutability": "nonpayable",
      "type": "function"
    },
    {
      "inputs": [
        {
          "internalType": "address[]",
          "name": "_toAddAddresses",
          "type": "address[]"
        }
      ],
      "name": "addAddressesGuardian",
      "outputs": [],
      "stateMutability": "nonpayable",
      "type": "function"
    },
    {
      "inputs": [
        {
          "internalType": "address[]",
          "name": "_toAddAddresses",
          "type": "address[]"
        }
      ],
      "name": "addAddressesJudge",
      "outputs": [],
      "stateMutability": "nonpayable",
      "type": "function"
    },
    {
      "inputs": [
        {
          "internalType": "address[]",
          "name": "_toAddAddresses",
          "type": "address[]"
        }
      ],
      "name": "addAddressesWhale",
      "outputs": [],
      "stateMutability": "nonpayable",
      "type": "function"
    },
    {
      "inputs": [
        {
          "internalType": "address",
          "name": "_wallet",
          "type": "address"
        }
      ],
      "name": "addressClaimbleRandom",
      "outputs": [
        {
          "internalType": "uint8",
          "name": "",
          "type": "uint8"
        }
      ],
      "stateMutability": "view",
      "type": "function",
      "constant": true
    },
    {
      "inputs": [
        {
          "internalType": "address",
          "name": "_wallet",
          "type": "address"
        }
      ],
      "name": "addressClaimbleCouncil",
      "outputs": [
        {
          "internalType": "uint8",
          "name": "",
          "type": "uint8"
        }
      ],
      "stateMutability": "view",
      "type": "function",
      "constant": true
    },
    {
      "inputs": [
        {
          "internalType": "address",
          "name": "_wallet",
          "type": "address"
        }
      ],
      "name": "addressClaimbleHonorary",
      "outputs": [
        {
          "internalType": "uint8",
          "name": "",
          "type": "uint8"
        }
      ],
      "stateMutability": "view",
      "type": "function",
      "constant": true
    },
    {
      "inputs": [
        {
          "internalType": "address",
          "name": "_wallet",
          "type": "address"
        }
      ],
      "name": "addressClaimbleGuardian",
      "outputs": [
        {
          "internalType": "uint8",
          "name": "",
          "type": "uint8"
        }
      ],
      "stateMutability": "view",
      "type": "function",
      "constant": true
    },
    {
      "inputs": [
        {
          "internalType": "address",
          "name": "_wallet",
          "type": "address"
        }
      ],
      "name": "addressClaimbleJudge",
      "outputs": [
        {
          "internalType": "uint8",
          "name": "",
          "type": "uint8"
        }
      ],
      "stateMutability": "view",
      "type": "function",
      "constant": true
    },
    {
      "inputs": [
        {
          "internalType": "address",
          "name": "_wallet",
          "type": "address"
        }
      ],
      "name": "addressClaimbleWhale",
      "outputs": [
        {
          "internalType": "uint8",
          "name": "",
          "type": "uint8"
        }
      ],
      "stateMutability": "view",
      "type": "function",
      "constant": true
    },
    {
      "inputs": [
        {
          "internalType": "uint256",
          "name": "_nb",
          "type": "uint256"
        }
      ],
      "name": "mintRandom",
      "outputs": [],
      "stateMutability": "nonpayable",
      "type": "function"
    },
    {
      "inputs": [
        {
          "internalType": "uint256",
          "name": "_nb",
          "type": "uint256"
        }
      ],
      "name": "mintCouncil",
      "outputs": [],
      "stateMutability": "nonpayable",
      "type": "function"
    },
    {
      "inputs": [],
      "name": "mintHonorary",
      "outputs": [],
      "stateMutability": "nonpayable",
      "type": "function"
    },
    {
      "inputs": [],
      "name": "mintGuardian",
      "outputs": [],
      "stateMutability": "nonpayable",
      "type": "function"
    },
    {
      "inputs": [],
      "name": "mintJudge",
      "outputs": [],
      "stateMutability": "nonpayable",
      "type": "function"
    },
    {
      "inputs": [],
      "name": "mintWhale",
      "outputs": [],
      "stateMutability": "nonpayable",
      "type": "function"
    }
  ],
  "bytecode": "0x60806040526105dc600d60006101000a81548161ffff021916908361ffff160217905550610430600d60026101000a81548161ffff021916908361ffff160217905550610131600d60046101000a81548161ffff021916908361ffff1602179055506042600d60066101000a81548161ffff021916908361ffff1602179055506024600d60086101000a81548161ffff021916908361ffff160217905550600b600d600a6101000a81548161ffff021916908361ffff160217905550600a600d600c6101000a81548161ffff021916908361ffff1602179055506000600e556001600f60146101000a81548161ffff021916908361ffff160217905550610431601160006101000a81548161ffff021916908361ffff160217905550610562601360006101000a81548161ffff021916908361ffff1602179055506105a4601560006101000a81548161ffff021916908361ffff1602179055506105c8601760006101000a81548161ffff021916908361ffff1602179055506105d3601960006101000a81548161ffff021916908361ffff160217905550348015620001a457600080fd5b5060405162006328380380620063288339818101604052810190620001ca91906200049a565b818160016000819055508160019081620001e591906200076a565b508060029081620001f791906200076a565b5050506200021a6200020e6200023960201b60201c565b6200024160201b60201c565b62f099c0426200022b919062000880565b600e819055505050620008bb565b600033905090565b6000600b60009054906101000a900473ffffffffffffffffffffffffffffffffffffffff16905081600b60006101000a81548173ffffffffffffffffffffffffffffffffffffffff021916908373ffffffffffffffffffffffffffffffffffffffff1602179055508173ffffffffffffffffffffffffffffffffffffffff168173ffffffffffffffffffffffffffffffffffffffff167f8be0079c531659141344cd1fd0a4f28419497f9722a3daafe3b4186f6b6457e060405160405180910390a35050565b6000604051905090565b600080fd5b600080fd5b600080fd5b600080fd5b6000601f19601f8301169050919050565b7f4e487b7100000000000000000000000000000000000000000000000000000000600052604160045260246000fd5b620003708262000325565b810181811067ffffffffffffffff8211171562000392576200039162000336565b5b80604052505050565b6000620003a762000307565b9050620003b5828262000365565b919050565b600067ffffffffffffffff821115620003d857620003d762000336565b5b620003e38262000325565b9050602081019050919050565b60005b8381101562000410578082015181840152602081019050620003f3565b60008484015250505050565b6000620004336200042d84620003ba565b6200039b565b90508281526020810184848401111562000452576200045162000320565b5b6200045f848285620003f0565b509392505050565b600082601f8301126200047f576200047e6200031b565b5b8151620004918482602086016200041c565b91505092915050565b60008060408385031215620004b457620004b362000311565b5b600083015167ffffffffffffffff811115620004d557620004d462000316565b5b620004e38582860162000467565b925050602083015167ffffffffffffffff81111562000507576200050662000316565b5b620005158582860162000467565b9150509250929050565b600081519050919050565b7f4e487b7100000000000000000000000000000000000000000000000000000000600052602260045260246000fd5b600060028204905060018216806200057257607f821691505b6020821081036200058857620005876200052a565b5b50919050565b60008190508160005260206000209050919050565b60006020601f8301049050919050565b600082821b905092915050565b600060088302620005f27fffffffffffffffffffffffffffffffffffffffffffffffffffffffffffffffff82620005b3565b620005fe8683620005b3565b95508019841693508086168417925050509392505050565b6000819050919050565b6000819050919050565b60006200064b620006456200063f8462000616565b62000620565b62000616565b9050919050565b6000819050919050565b62000667836200062a565b6200067f620006768262000652565b848454620005c0565b825550505050565b600090565b6200069662000687565b620006a38184846200065c565b505050565b5b81811015620006cb57620006bf6000826200068c565b600181019050620006a9565b5050565b601f8211156200071a57620006e4816200058e565b620006ef84620005a3565b81016020851015620006ff578190505b620007176200070e85620005a3565b830182620006a8565b50505b505050565b600082821c905092915050565b60006200073f600019846008026200071f565b1980831691505092915050565b60006200075a83836200072c565b9150826002028217905092915050565b62000775826200051f565b67ffffffffffffffff81111562000791576200079062000336565b5b6200079d825462000559565b620007aa828285620006cf565b600060209050601f831160018114620007e25760008415620007cd578287015190505b620007d985826200074c565b86555062000849565b601f198416620007f2866200058e565b60005b828110156200081c57848901518255600182019150602085019450602081019050620007f5565b868310156200083c578489015162000838601f8916826200072c565b8355505b6001600288020188555050505b505050505050565b7f4e487b7100000000000000000000000000000000000000000000000000000000600052601160045260246000fd5b60006200088d8262000616565b91506200089a8362000616565b9250828201905080821115620008b557620008b462000851565b5b92915050565b615a5d80620008cb6000396000f3fe6080604052600436106102455760003560e01c80636902e20d1161013957806395d89b41116100b6578063c87b56dd1161007a578063c87b56dd14610852578063d8ae7c9d1461088f578063e985e9c5146108b8578063f058a4d1146108f5578063f2fde38b14610932578063fb5b82d01461095b57610245565b806395d89b4114610781578063a22cb465146107ac578063acc34a3e146107d5578063b88d4fde14610812578063c733fe0d1461083b57610245565b8063787b9712116100fd578063787b9712146106bd578063826f79e4146106e6578063853828b61461070f5780638b4f6325146107195780638da5cb5b1461075657610245565b80636902e20d146105d85780636c0360eb146106015780636d632d891461062c57806370a0823114610669578063715018a6146106a657610245565b806322d1464c116101c757806337e49eed1161018b57806337e49eed146104cf57806342842e0e1461050c578063468409ce146105355780634f6ccce71461055e5780636352211e1461059b57610245565b806322d1464c1461040057806323b872dd146104295780632f745c591461045257806331b5b9071461048f578063376e1b1f146104b857610245565b8063081812fc1161020e578063081812fc1461031d578063095ea7b31461035a5780630d516997146103835780630ff9cc6b146103ac57806318160ddd146103d557610245565b80627c35661461024a57806301ffc9a714610261578063022c01991461029e57806306fdde03146102b557806307c3841d146102e0575b600080fd5b34801561025657600080fd5b5061025f610984565b005b34801561026d57600080fd5b5061028860048036038101906102839190613d64565b610b6e565b6040516102959190613dac565b60405180910390f35b3480156102aa57600080fd5b506102b3610be8565b005b3480156102c157600080fd5b506102ca610dd2565b6040516102d79190613e57565b60405180910390f35b3480156102ec57600080fd5b5061030760048036038101906103029190613ed7565b610e64565b6040516103149190613f20565b60405180910390f35b34801561032957600080fd5b50610344600480360381019061033f9190613f71565b610eba565b6040516103519190613fad565b60405180910390f35b34801561036657600080fd5b50610381600480360381019061037c9190613fc8565b610f00565b005b34801561038f57600080fd5b506103aa60048036038101906103a59190613f71565b611017565b005b3480156103b857600080fd5b506103d360048036038101906103ce91906140c3565b6113b6565b005b3480156103e157600080fd5b506103ea61148c565b6040516103f79190614153565b60405180910390f35b34801561040c57600080fd5b506104276004803603810190610422919061416e565b611499565b005b34801561043557600080fd5b50610450600480360381019061044b91906141bb565b611547565b005b34801561045e57600080fd5b5061047960048036038101906104749190613fc8565b6115a7565b6040516104869190614153565b60405180910390f35b34801561049b57600080fd5b506104b660048036038101906104b1919061433e565b61164c565b005b3480156104c457600080fd5b506104cd611667565b005b3480156104db57600080fd5b506104f660048036038101906104f19190613ed7565b611851565b6040516105039190613f20565b60405180910390f35b34801561051857600080fd5b50610533600480360381019061052e91906141bb565b6118a7565b005b34801561054157600080fd5b5061055c6004803603810190610557919061416e565b6118c7565b005b34801561056a57600080fd5b5061058560048036038101906105809190613f71565b611975565b6040516105929190614153565b60405180910390f35b3480156105a757600080fd5b506105c260048036038101906105bd9190613f71565b6119e6565b6040516105cf9190613fad565b60405180910390f35b3480156105e457600080fd5b506105ff60048036038101906105fa9190613f71565b611a6c565b005b34801561060d57600080fd5b50610616611de6565b6040516106239190613e57565b60405180910390f35b34801561063857600080fd5b50610653600480360381019061064e9190613ed7565b611e74565b6040516106609190613f20565b60405180910390f35b34801561067557600080fd5b50610690600480360381019061068b9190613ed7565b611eca565b60405161069d9190614153565b60405180910390f35b3480156106b257600080fd5b506106bb611f81565b005b3480156106c957600080fd5b506106e460048036038101906106df91906140c3565b611f95565b005b3480156106f257600080fd5b5061070d6004803603810190610708919061416e565b61206b565b005b610717612119565b005b34801561072557600080fd5b50610740600480360381019061073b9190613ed7565b61218c565b60405161074d9190613f20565b60405180910390f35b34801561076257600080fd5b5061076b6121e2565b6040516107789190613fad565b60405180910390f35b34801561078d57600080fd5b5061079661220c565b6040516107a39190613e57565b60405180910390f35b3480156107b857600080fd5b506107d360048036038101906107ce91906143b3565b61229e565b005b3480156107e157600080fd5b506107fc60048036038101906107f79190613ed7565b6122b4565b6040516108099190613f20565b60405180910390f35b34801561081e57600080fd5b5061083960048036038101906108349190614494565b61230a565b005b34801561084757600080fd5b5061085061236c565b005b34801561085e57600080fd5b5061087960048036038101906108749190613f71565b612556565b6040516108869190613e57565b60405180910390f35b34801561089b57600080fd5b506108b660048036038101906108b1919061416e565b6125be565b005b3480156108c457600080fd5b506108df60048036038101906108da9190614517565b61266c565b6040516108ec9190613dac565b60405180910390f35b34801561090157600080fd5b5061091c60048036038101906109179190613ed7565b612700565b6040516109299190613f20565b60405180910390f35b34801561093e57600080fd5b5061095960048036038101906109549190613ed7565b612756565b005b34801561096757600080fd5b50610982600480360381019061097d9190614595565b6127d9565b005b600e5442106109c8576040517f08c379a00000000000000000000000000000000000000000000000000000000081526004016109bf9061460e565b60405180910390fd5b6000601460003373ffffffffffffffffffffffffffffffffffffffff1673ffffffffffffffffffffffffffffffffffffffff16815260200190815260200160002060009054906101000a900460ff1660ff1611610a5a576040517f08c379a0000000000000000000000000000000000000000000000000000000008152600401610a519061467a565b60405180910390fd5b6000601460003373ffffffffffffffffffffffffffffffffffffffff1673ffffffffffffffffffffffffffffffffffffffff16815260200190815260200160002060006101000a81548160ff021916908360ff160217905550610ad133601360009054906101000a900461ffff1661ffff16612825565b3373ffffffffffffffffffffffffffffffffffffffff167ff70b403b1d50cef877cafdc0f6c3c47f58a42f1e5f5f17173f255ef7b00762a042601360009054906101000a900461ffff16604051610b299291906146e3565b60405180910390a26013600081819054906101000a900461ffff1680929190610b519061473b565b91906101000a81548161ffff021916908361ffff16021790555050565b60007f780e9d63000000000000000000000000000000000000000000000000000000007bffffffffffffffffffffffffffffffffffffffffffffffffffffffff1916827bffffffffffffffffffffffffffffffffffffffffffffffffffffffff19161480610be15750610be082612843565b5b9050919050565b600e544210610c2c576040517f08c379a0000000000000000000000000000000000000000000000000000000008152600401610c23906147b1565b60405180910390fd5b6000601860003373ffffffffffffffffffffffffffffffffffffffff1673ffffffffffffffffffffffffffffffffffffffff16815260200190815260200160002060009054906101000a900460ff1660ff1611610cbe576040517f08c379a0000000000000000000000000000000000000000000000000000000008152600401610cb59061481d565b60405180910390fd5b6000601860003373ffffffffffffffffffffffffffffffffffffffff1673ffffffffffffffffffffffffffffffffffffffff16815260200190815260200160002060006101000a81548160ff021916908360ff160217905550610d3533601760009054906101000a900461ffff1661ffff16612825565b3373ffffffffffffffffffffffffffffffffffffffff167f76f9e85ff7722d043b09d71ddb1f2e240963d9f9072c84082432fd9efd24677642601760009054906101000a900461ffff16604051610d8d9291906146e3565b60405180910390a26017600081819054906101000a900461ffff1680929190610db59061473b565b91906101000a81548161ffff021916908361ffff16021790555050565b606060018054610de19061486c565b80601f0160208091040260200160405190810160405280929190818152602001828054610e0d9061486c565b8015610e5a5780601f10610e2f57610100808354040283529160200191610e5a565b820191906000526020600020905b815481529060010190602001808311610e3d57829003601f168201915b5050505050905090565b6000601060008373ffffffffffffffffffffffffffffffffffffffff1673ffffffffffffffffffffffffffffffffffffffff16815260200190815260200160002060009054906101000a900460ff169050919050565b6000610ec582612925565b6005600083815260200190815260200160002060009054906101000a900473ffffffffffffffffffffffffffffffffffffffff169050919050565b6000610f0b826119e6565b90508073ffffffffffffffffffffffffffffffffffffffff168373ffffffffffffffffffffffffffffffffffffffff1603610f7b576040517f08c379a0000000000000000000000000000000000000000000000000000000008152600401610f729061490f565b60405180910390fd5b8073ffffffffffffffffffffffffffffffffffffffff16610f9a612970565b73ffffffffffffffffffffffffffffffffffffffff161480610fc95750610fc881610fc3612970565b61266c565b5b611008576040517f08c379a0000000000000000000000000000000000000000000000000000000008152600401610fff906149a1565b60405180910390fd5b6110128383612978565b505050565b6000601060003373ffffffffffffffffffffffffffffffffffffffff1673ffffffffffffffffffffffffffffffffffffffff16815260200190815260200160002060009054906101000a900460ff1660ff16116110a9576040517f08c379a00000000000000000000000000000000000000000000000000000000081526004016110a09061481d565b60405180910390fd5b80601060003373ffffffffffffffffffffffffffffffffffffffff1673ffffffffffffffffffffffffffffffffffffffff16815260200190815260200160002060009054906101000a900460ff1660ff16101561113b576040517f08c379a000000000000000000000000000000000000000000000000000000000815260040161113290614a0d565b60405180910390fd5b8061114461148c565b61114e9190614a2d565b600d60009054906101000a900461ffff1661ffff1610156111a4576040517f08c379a000000000000000000000000000000000000000000000000000000000815260040161119b90614aad565b60405180910390fd5b600a8111156111e8576040517f08c379a00000000000000000000000000000000000000000000000000000000081526004016111df90614b19565b60405180910390fd5b60008167ffffffffffffffff81111561120457611203614213565b5b6040519080825280602002602001820160405280156112325781602001602082028036833780820191505090505b50905060005b828163ffffffff16101561136157601060003373ffffffffffffffffffffffffffffffffffffffff1673ffffffffffffffffffffffffffffffffffffffff168152602001908152602001600020600081819054906101000a900460ff16809291906112a290614b39565b91906101000a81548160ff021916908360ff160217905550506112d933600f60149054906101000a900461ffff1661ffff16612825565b600f60149054906101000a900461ffff1661ffff16828263ffffffff168151811061130757611306614b62565b5b602002602001018181525050600f601481819054906101000a900461ffff16809291906113339061473b565b91906101000a81548161ffff021916908361ffff16021790555050808061135990614ba1565b915050611238565b503373ffffffffffffffffffffffffffffffffffffffff167f2097c7e203d36b2869396db3f19cc22d5e965a0a06b86c920e2b3b7ae39af32642836040516113aa929190614c8b565b60405180910390a25050565b6113be612a31565b60005b84849050811015611485578282828181106113df576113de614b62565b5b90506020020160208101906113f49190614ce7565b6010600087878581811061140b5761140a614b62565b5b90506020020160208101906114209190613ed7565b73ffffffffffffffffffffffffffffffffffffffff1673ffffffffffffffffffffffffffffffffffffffff16815260200190815260200160002060006101000a81548160ff021916908360ff160217905550808061147d90614d14565b9150506113c1565b5050505050565b6000600980549050905090565b6114a1612a31565b60005b82829050811015611542576001601660008585858181106114c8576114c7614b62565b5b90506020020160208101906114dd9190613ed7565b73ffffffffffffffffffffffffffffffffffffffff1673ffffffffffffffffffffffffffffffffffffffff16815260200190815260200160002060006101000a81548160ff021916908360ff160217905550808061153a90614d14565b9150506114a4565b505050565b611558611552612970565b82612aaf565b611597576040517f08c379a000000000000000000000000000000000000000000000000000000000815260040161158e90614dce565b60405180910390fd5b6115a2838383612b44565b505050565b60006115b283611eca565b82106115f3576040517f08c379a00000000000000000000000000000000000000000000000000000000081526004016115ea90614e60565b60405180910390fd5b600760008473ffffffffffffffffffffffffffffffffffffffff1673ffffffffffffffffffffffffffffffffffffffff168152602001908152602001600020600083815260200190815260200160002054905092915050565b611654612a31565b80600c90816116639190615022565b5050565b600e5442106116ab576040517f08c379a00000000000000000000000000000000000000000000000000000000081526004016116a290615140565b60405180910390fd5b6000601660003373ffffffffffffffffffffffffffffffffffffffff1673ffffffffffffffffffffffffffffffffffffffff16815260200190815260200160002060009054906101000a900460ff1660ff161161173d576040517f08c379a00000000000000000000000000000000000000000000000000000000081526004016117349061467a565b60405180910390fd5b6000601660003373ffffffffffffffffffffffffffffffffffffffff1673ffffffffffffffffffffffffffffffffffffffff16815260200190815260200160002060006101000a81548160ff021916908360ff1602179055506117b433601560009054906101000a900461ffff1661ffff16612825565b3373ffffffffffffffffffffffffffffffffffffffff167f3068eb10a9f5bc0a2d97cbc29c967a612136c9d03efe312432d0cff3ece88d5542601560009054906101000a900461ffff1660405161180c9291906146e3565b60405180910390a26015600081819054906101000a900461ffff16809291906118349061473b565b91906101000a81548161ffff021916908361ffff16021790555050565b6000601460008373ffffffffffffffffffffffffffffffffffffffff1673ffffffffffffffffffffffffffffffffffffffff16815260200190815260200160002060009054906101000a900460ff169050919050565b6118c28383836040518060200160405280600081525061230a565b505050565b6118cf612a31565b60005b82829050811015611970576001601460008585858181106118f6576118f5614b62565b5b905060200201602081019061190b9190613ed7565b73ffffffffffffffffffffffffffffffffffffffff1673ffffffffffffffffffffffffffffffffffffffff16815260200190815260200160002060006101000a81548160ff021916908360ff160217905550808061196890614d14565b9150506118d2565b505050565b600061197f61148c565b82106119c0576040517f08c379a00000000000000000000000000000000000000000000000000000000081526004016119b7906151d2565b60405180910390fd5b600982815481106119d4576119d3614b62565b5b90600052602060002001549050919050565b6000806119f283612e3d565b9050600073ffffffffffffffffffffffffffffffffffffffff168173ffffffffffffffffffffffffffffffffffffffff1603611a63576040517f08c379a0000000000000000000000000000000000000000000000000000000008152600401611a5a9061523e565b60405180910390fd5b80915050919050565b600e544210611ab0576040517f08c379a0000000000000000000000000000000000000000000000000000000008152600401611aa7906152aa565b60405180910390fd5b6000601260003373ffffffffffffffffffffffffffffffffffffffff1673ffffffffffffffffffffffffffffffffffffffff16815260200190815260200160002060009054906101000a900460ff1660ff1611611b42576040517f08c379a0000000000000000000000000000000000000000000000000000000008152600401611b399061481d565b60405180910390fd5b80601260003373ffffffffffffffffffffffffffffffffffffffff1673ffffffffffffffffffffffffffffffffffffffff16815260200190815260200160002060009054906101000a900460ff1660ff161015611bd4576040517f08c379a0000000000000000000000000000000000000000000000000000000008152600401611bcb90614a0d565b60405180910390fd5b600a811115611c18576040517f08c379a0000000000000000000000000000000000000000000000000000000008152600401611c0f90614b19565b60405180910390fd5b60008167ffffffffffffffff811115611c3457611c33614213565b5b604051908082528060200260200182016040528015611c625781602001602082028036833780820191505090505b50905060005b828163ffffffff161015611d9157601260003373ffffffffffffffffffffffffffffffffffffffff1673ffffffffffffffffffffffffffffffffffffffff168152602001908152602001600020600081819054906101000a900460ff1680929190611cd290614b39565b91906101000a81548160ff021916908360ff16021790555050611d0933601160009054906101000a900461ffff1661ffff16612825565b601160009054906101000a900461ffff1661ffff16828263ffffffff1681518110611d3757611d36614b62565b5b6020026020010181815250506011600081819054906101000a900461ffff1680929190611d639061473b565b91906101000a81548161ffff021916908361ffff160217905550508080611d8990614ba1565b915050611c68565b503373ffffffffffffffffffffffffffffffffffffffff167f925a1c03df0f625e3645b782d2a6fc1ccee76de332fba5dc74ad672526a0d3994283604051611dda929190614c8b565b60405180910390a25050565b600c8054611df39061486c565b80601f0160208091040260200160405190810160405280929190818152602001828054611e1f9061486c565b8015611e6c5780601f10611e4157610100808354040283529160200191611e6c565b820191906000526020600020905b815481529060010190602001808311611e4f57829003601f168201915b505050505081565b6000601a60008373ffffffffffffffffffffffffffffffffffffffff1673ffffffffffffffffffffffffffffffffffffffff16815260200190815260200160002060009054906101000a900460ff169050919050565b60008073ffffffffffffffffffffffffffffffffffffffff168273ffffffffffffffffffffffffffffffffffffffff1603611f3a576040517f08c379a0000000000000000000000000000000000000000000000000000000008152600401611f319061533c565b60405180910390fd5b600460008373ffffffffffffffffffffffffffffffffffffffff1673ffffffffffffffffffffffffffffffffffffffff168152602001908152602001600020549050919050565b611f89612a31565b611f936000612e7a565b565b611f9d612a31565b60005b8484905081101561206457828282818110611fbe57611fbd614b62565b5b9050602002016020810190611fd39190614ce7565b60126000878785818110611fea57611fe9614b62565b5b9050602002016020810190611fff9190613ed7565b73ffffffffffffffffffffffffffffffffffffffff1673ffffffffffffffffffffffffffffffffffffffff16815260200190815260200160002060006101000a81548160ff021916908360ff160217905550808061205c90614d14565b915050611fa0565b5050505050565b612073612a31565b60005b82829050811015612114576001601a600085858581811061209a57612099614b62565b5b90506020020160208101906120af9190613ed7565b73ffffffffffffffffffffffffffffffffffffffff1673ffffffffffffffffffffffffffffffffffffffff16815260200190815260200160002060006101000a81548160ff021916908360ff160217905550808061210c90614d14565b915050612076565b505050565b612121612a31565b600f60009054906101000a900473ffffffffffffffffffffffffffffffffffffffff1673ffffffffffffffffffffffffffffffffffffffff166108fc479081150290604051600060405180830381858888f19350505050158015612189573d6000803e3d6000fd5b50565b6000601260008373ffffffffffffffffffffffffffffffffffffffff1673ffffffffffffffffffffffffffffffffffffffff16815260200190815260200160002060009054906101000a900460ff169050919050565b6000600b60009054906101000a900473ffffffffffffffffffffffffffffffffffffffff16905090565b60606002805461221b9061486c565b80601f01602080910402602001604051908101604052809291908181526020018280546122479061486c565b80156122945780601f1061226957610100808354040283529160200191612294565b820191906000526020600020905b81548152906001019060200180831161227757829003601f168201915b5050505050905090565b6122b06122a9612970565b8383612f40565b5050565b6000601660008373ffffffffffffffffffffffffffffffffffffffff1673ffffffffffffffffffffffffffffffffffffffff16815260200190815260200160002060009054906101000a900460ff169050919050565b61231b612315612970565b83612aaf565b61235a576040517f08c379a000000000000000000000000000000000000000000000000000000000815260040161235190614dce565b60405180910390fd5b612366848484846130ac565b50505050565b600e5442106123b0576040517f08c379a00000000000000000000000000000000000000000000000000000000081526004016123a7906153a8565b60405180910390fd5b6000601a60003373ffffffffffffffffffffffffffffffffffffffff1673ffffffffffffffffffffffffffffffffffffffff16815260200190815260200160002060009054906101000a900460ff1660ff1611612442576040517f08c379a00000000000000000000000000000000000000000000000000000000081526004016124399061467a565b60405180910390fd5b6000601a60003373ffffffffffffffffffffffffffffffffffffffff1673ffffffffffffffffffffffffffffffffffffffff16815260200190815260200160002060006101000a81548160ff021916908360ff1602179055506124b933601960009054906101000a900461ffff1661ffff16612825565b6019600081819054906101000a900461ffff16809291906124d99061473b565b91906101000a81548161ffff021916908361ffff160217905550503373ffffffffffffffffffffffffffffffffffffffff167f11f17ae42a0904709076e999b53fe5d9a2094552d1e26167334b0a1df43db8bd42601960009054906101000a900461ffff1660405161254c9291906146e3565b60405180910390a2565b606061256182612925565b600061256b613108565b9050600081511161258b57604051806020016040528060008152506125b6565b806125958461319a565b6040516020016125a6929190615404565b6040516020818303038152906040525b915050919050565b6125c6612a31565b60005b82829050811015612667576001601860008585858181106125ed576125ec614b62565b5b90506020020160208101906126029190613ed7565b73ffffffffffffffffffffffffffffffffffffffff1673ffffffffffffffffffffffffffffffffffffffff16815260200190815260200160002060006101000a81548160ff021916908360ff160217905550808061265f90614d14565b9150506125c9565b505050565b6000600660008473ffffffffffffffffffffffffffffffffffffffff1673ffffffffffffffffffffffffffffffffffffffff16815260200190815260200160002060008373ffffffffffffffffffffffffffffffffffffffff1673ffffffffffffffffffffffffffffffffffffffff16815260200190815260200160002060009054906101000a900460ff16905092915050565b6000601860008373ffffffffffffffffffffffffffffffffffffffff1673ffffffffffffffffffffffffffffffffffffffff16815260200190815260200160002060009054906101000a900460ff169050919050565b61275e612a31565b600073ffffffffffffffffffffffffffffffffffffffff168173ffffffffffffffffffffffffffffffffffffffff16036127cd576040517f08c379a00000000000000000000000000000000000000000000000000000000081526004016127c49061549a565b60405180910390fd5b6127d681612e7a565b50565b6127e1612a31565b80600f60006101000a81548173ffffffffffffffffffffffffffffffffffffffff021916908373ffffffffffffffffffffffffffffffffffffffff16021790555050565b61283f828260405180602001604052806000815250613268565b5050565b60007f80ac58cd000000000000000000000000000000000000000000000000000000007bffffffffffffffffffffffffffffffffffffffffffffffffffffffff1916827bffffffffffffffffffffffffffffffffffffffffffffffffffffffff1916148061290e57507f5b5e139f000000000000000000000000000000000000000000000000000000007bffffffffffffffffffffffffffffffffffffffffffffffffffffffff1916827bffffffffffffffffffffffffffffffffffffffffffffffffffffffff1916145b8061291e575061291d826132c3565b5b9050919050565b61292e8161332d565b61296d576040517f08c379a00000000000000000000000000000000000000000000000000000000081526004016129649061523e565b60405180910390fd5b50565b600033905090565b816005600083815260200190815260200160002060006101000a81548173ffffffffffffffffffffffffffffffffffffffff021916908373ffffffffffffffffffffffffffffffffffffffff160217905550808273ffffffffffffffffffffffffffffffffffffffff166129eb836119e6565b73ffffffffffffffffffffffffffffffffffffffff167f8c5be1e5ebec7d5bd14f71427d1e84f3dd0314c0f7b2291e5b200ac8c7c3b92560405160405180910390a45050565b612a39612970565b73ffffffffffffffffffffffffffffffffffffffff16612a576121e2565b73ffffffffffffffffffffffffffffffffffffffff1614612aad576040517f08c379a0000000000000000000000000000000000000000000000000000000008152600401612aa490615506565b60405180910390fd5b565b600080612abb836119e6565b90508073ffffffffffffffffffffffffffffffffffffffff168473ffffffffffffffffffffffffffffffffffffffff161480612afd5750612afc818561266c565b5b80612b3b57508373ffffffffffffffffffffffffffffffffffffffff16612b2384610eba565b73ffffffffffffffffffffffffffffffffffffffff16145b91505092915050565b8273ffffffffffffffffffffffffffffffffffffffff16612b64826119e6565b73ffffffffffffffffffffffffffffffffffffffff1614612bba576040517f08c379a0000000000000000000000000000000000000000000000000000000008152600401612bb190615598565b60405180910390fd5b600073ffffffffffffffffffffffffffffffffffffffff168273ffffffffffffffffffffffffffffffffffffffff1603612c29576040517f08c379a0000000000000000000000000000000000000000000000000000000008152600401612c209061562a565b60405180910390fd5b612c36838383600161336e565b8273ffffffffffffffffffffffffffffffffffffffff16612c56826119e6565b73ffffffffffffffffffffffffffffffffffffffff1614612cac576040517f08c379a0000000000000000000000000000000000000000000000000000000008152600401612ca390615598565b60405180910390fd5b6005600082815260200190815260200160002060006101000a81549073ffffffffffffffffffffffffffffffffffffffff02191690556001600460008573ffffffffffffffffffffffffffffffffffffffff1673ffffffffffffffffffffffffffffffffffffffff168152602001908152602001600020600082825403925050819055506001600460008473ffffffffffffffffffffffffffffffffffffffff1673ffffffffffffffffffffffffffffffffffffffff16815260200190815260200160002060008282540192505081905550816003600083815260200190815260200160002060006101000a81548173ffffffffffffffffffffffffffffffffffffffff021916908373ffffffffffffffffffffffffffffffffffffffff160217905550808273ffffffffffffffffffffffffffffffffffffffff168473ffffffffffffffffffffffffffffffffffffffff167fddf252ad1be2c89b69c2b068fc378daa952ba7f163c4a11628f55a4df523b3ef60405160405180910390a4612e3883838360016134cc565b505050565b60006003600083815260200190815260200160002060009054906101000a900473ffffffffffffffffffffffffffffffffffffffff169050919050565b6000600b60009054906101000a900473ffffffffffffffffffffffffffffffffffffffff16905081600b60006101000a81548173ffffffffffffffffffffffffffffffffffffffff021916908373ffffffffffffffffffffffffffffffffffffffff1602179055508173ffffffffffffffffffffffffffffffffffffffff168173ffffffffffffffffffffffffffffffffffffffff167f8be0079c531659141344cd1fd0a4f28419497f9722a3daafe3b4186f6b6457e060405160405180910390a35050565b8173ffffffffffffffffffffffffffffffffffffffff168373ffffffffffffffffffffffffffffffffffffffff1603612fae576040517f08c379a0000000000000000000000000000000000000000000000000000000008152600401612fa590615696565b60405180910390fd5b80600660008573ffffffffffffffffffffffffffffffffffffffff1673ffffffffffffffffffffffffffffffffffffffff16815260200190815260200160002060008473ffffffffffffffffffffffffffffffffffffffff1673ffffffffffffffffffffffffffffffffffffffff16815260200190815260200160002060006101000a81548160ff0219169083151502179055508173ffffffffffffffffffffffffffffffffffffffff168373ffffffffffffffffffffffffffffffffffffffff167f17307eab39ab6107e8899845ad3d59bd9653f200f220920489ca2b5937696c318360405161309f9190613dac565b60405180910390a3505050565b6130b7848484612b44565b6130c3848484846134d2565b613102576040517f08c379a00000000000000000000000000000000000000000000000000000000081526004016130f990615728565b60405180910390fd5b50505050565b6060600c80546131179061486c565b80601f01602080910402602001604051908101604052809291908181526020018280546131439061486c565b80156131905780601f1061316557610100808354040283529160200191613190565b820191906000526020600020905b81548152906001019060200180831161317357829003601f168201915b5050505050905090565b6060600060016131a984613659565b01905060008167ffffffffffffffff8111156131c8576131c7614213565b5b6040519080825280601f01601f1916602001820160405280156131fa5781602001600182028036833780820191505090505b509050600082602001820190505b60011561325d578080600190039150507f3031323334353637383961626364656600000000000000000000000000000000600a86061a8153600a858161325157613250615748565b5b04945060008503613208575b819350505050919050565b61327283836137ac565b61327f60008484846134d2565b6132be576040517f08c379a00000000000000000000000000000000000000000000000000000000081526004016132b590615728565b60405180910390fd5b505050565b60007f01ffc9a7000000000000000000000000000000000000000000000000000000007bffffffffffffffffffffffffffffffffffffffffffffffffffffffff1916827bffffffffffffffffffffffffffffffffffffffffffffffffffffffff1916149050919050565b60008073ffffffffffffffffffffffffffffffffffffffff1661334f83612e3d565b73ffffffffffffffffffffffffffffffffffffffff1614159050919050565b61337a848484846139c9565b60018111156133be576040517f08c379a00000000000000000000000000000000000000000000000000000000081526004016133b5906157e9565b60405180910390fd5b6000829050600073ffffffffffffffffffffffffffffffffffffffff168573ffffffffffffffffffffffffffffffffffffffff160361340557613400816139cf565b613444565b8373ffffffffffffffffffffffffffffffffffffffff168573ffffffffffffffffffffffffffffffffffffffff1614613443576134428582613a18565b5b5b600073ffffffffffffffffffffffffffffffffffffffff168473ffffffffffffffffffffffffffffffffffffffff16036134865761348181613b85565b6134c5565b8473ffffffffffffffffffffffffffffffffffffffff168473ffffffffffffffffffffffffffffffffffffffff16146134c4576134c38482613c56565b5b5b5050505050565b50505050565b60006134f38473ffffffffffffffffffffffffffffffffffffffff16613cd5565b1561364c578373ffffffffffffffffffffffffffffffffffffffff1663150b7a0261351c612970565b8786866040518563ffffffff1660e01b815260040161353e949392919061585e565b6020604051808303816000875af192505050801561357a57506040513d601f19601f8201168201806040525081019061357791906158bf565b60015b6135fc573d80600081146135aa576040519150601f19603f3d011682016040523d82523d6000602084013e6135af565b606091505b5060008151036135f4576040517f08c379a00000000000000000000000000000000000000000000000000000000081526004016135eb90615728565b60405180910390fd5b805181602001fd5b63150b7a0260e01b7bffffffffffffffffffffffffffffffffffffffffffffffffffffffff1916817bffffffffffffffffffffffffffffffffffffffffffffffffffffffff191614915050613651565b600190505b949350505050565b600080600090507a184f03e93ff9f4daa797ed6e38ed64bf6a1f01000000000000000083106136b7577a184f03e93ff9f4daa797ed6e38ed64bf6a1f01000000000000000083816136ad576136ac615748565b5b0492506040810190505b6d04ee2d6d415b85acef810000000083106136f4576d04ee2d6d415b85acef810000000083816136ea576136e9615748565b5b0492506020810190505b662386f26fc10000831061372357662386f26fc10000838161371957613718615748565b5b0492506010810190505b6305f5e100831061374c576305f5e100838161374257613741615748565b5b0492506008810190505b612710831061377157612710838161376757613766615748565b5b0492506004810190505b60648310613794576064838161378a57613789615748565b5b0492506002810190505b600a83106137a3576001810190505b80915050919050565b600073ffffffffffffffffffffffffffffffffffffffff168273ffffffffffffffffffffffffffffffffffffffff160361381b576040517f08c379a000000000000000000000000000000000000000000000000000000000815260040161381290615938565b60405180910390fd5b6138248161332d565b15613864576040517f08c379a000000000000000000000000000000000000000000000000000000000815260040161385b906159a4565b60405180910390fd5b61387260008383600161336e565b61387b8161332d565b156138bb576040517f08c379a00000000000000000000000000000000000000000000000000000000081526004016138b2906159a4565b60405180910390fd5b6001600460008473ffffffffffffffffffffffffffffffffffffffff1673ffffffffffffffffffffffffffffffffffffffff16815260200190815260200160002060008282540192505081905550816003600083815260200190815260200160002060006101000a81548173ffffffffffffffffffffffffffffffffffffffff021916908373ffffffffffffffffffffffffffffffffffffffff160217905550808273ffffffffffffffffffffffffffffffffffffffff16600073ffffffffffffffffffffffffffffffffffffffff167fddf252ad1be2c89b69c2b068fc378daa952ba7f163c4a11628f55a4df523b3ef60405160405180910390a46139c56000838360016134cc565b5050565b50505050565b600980549050600a600083815260200190815260200160002081905550600981908060018154018082558091505060019003906000526020600020016000909190919091505550565b60006001613a2584611eca565b613a2f91906159c4565b9050600060086000848152602001908152602001600020549050818114613b14576000600760008673ffffffffffffffffffffffffffffffffffffffff1673ffffffffffffffffffffffffffffffffffffffff168152602001908152602001600020600084815260200190815260200160002054905080600760008773ffffffffffffffffffffffffffffffffffffffff1673ffffffffffffffffffffffffffffffffffffffff168152602001908152602001600020600084815260200190815260200160002081905550816008600083815260200190815260200160002081905550505b6008600084815260200190815260200160002060009055600760008573ffffffffffffffffffffffffffffffffffffffff1673ffffffffffffffffffffffffffffffffffffffff16815260200190815260200160002060008381526020019081526020016000206000905550505050565b60006001600980549050613b9991906159c4565b90506000600a6000848152602001908152602001600020549050600060098381548110613bc957613bc8614b62565b5b906000526020600020015490508060098381548110613beb57613bea614b62565b5b906000526020600020018190555081600a600083815260200190815260200160002081905550600a6000858152602001908152602001600020600090556009805480613c3a57613c396159f8565b5b6001900381819060005260206000200160009055905550505050565b6000613c6183611eca565b905081600760008573ffffffffffffffffffffffffffffffffffffffff1673ffffffffffffffffffffffffffffffffffffffff168152602001908152602001600020600083815260200190815260200160002081905550806008600084815260200190815260200160002081905550505050565b6000808273ffffffffffffffffffffffffffffffffffffffff163b119050919050565b6000604051905090565b600080fd5b600080fd5b60007fffffffff0000000000000000000000000000000000000000000000000000000082169050919050565b613d4181613d0c565b8114613d4c57600080fd5b50565b600081359050613d5e81613d38565b92915050565b600060208284031215613d7a57613d79613d02565b5b6000613d8884828501613d4f565b91505092915050565b60008115159050919050565b613da681613d91565b82525050565b6000602082019050613dc16000830184613d9d565b92915050565b600081519050919050565b600082825260208201905092915050565b60005b83811015613e01578082015181840152602081019050613de6565b60008484015250505050565b6000601f19601f8301169050919050565b6000613e2982613dc7565b613e338185613dd2565b9350613e43818560208601613de3565b613e4c81613e0d565b840191505092915050565b60006020820190508181036000830152613e718184613e1e565b905092915050565b600073ffffffffffffffffffffffffffffffffffffffff82169050919050565b6000613ea482613e79565b9050919050565b613eb481613e99565b8114613ebf57600080fd5b50565b600081359050613ed181613eab565b92915050565b600060208284031215613eed57613eec613d02565b5b6000613efb84828501613ec2565b91505092915050565b600060ff82169050919050565b613f1a81613f04565b82525050565b6000602082019050613f356000830184613f11565b92915050565b6000819050919050565b613f4e81613f3b565b8114613f5957600080fd5b50565b600081359050613f6b81613f45565b92915050565b600060208284031215613f8757613f86613d02565b5b6000613f9584828501613f5c565b91505092915050565b613fa781613e99565b82525050565b6000602082019050613fc26000830184613f9e565b92915050565b60008060408385031215613fdf57613fde613d02565b5b6000613fed85828601613ec2565b9250506020613ffe85828601613f5c565b9150509250929050565b600080fd5b600080fd5b600080fd5b60008083601f84011261402d5761402c614008565b5b8235905067ffffffffffffffff81111561404a5761404961400d565b5b60208301915083602082028301111561406657614065614012565b5b9250929050565b60008083601f84011261408357614082614008565b5b8235905067ffffffffffffffff8111156140a05761409f61400d565b5b6020830191508360208202830111156140bc576140bb614012565b5b9250929050565b600080600080604085870312156140dd576140dc613d02565b5b600085013567ffffffffffffffff8111156140fb576140fa613d07565b5b61410787828801614017565b9450945050602085013567ffffffffffffffff81111561412a57614129613d07565b5b6141368782880161406d565b925092505092959194509250565b61414d81613f3b565b82525050565b60006020820190506141686000830184614144565b92915050565b6000806020838503121561418557614184613d02565b5b600083013567ffffffffffffffff8111156141a3576141a2613d07565b5b6141af85828601614017565b92509250509250929050565b6000806000606084860312156141d4576141d3613d02565b5b60006141e286828701613ec2565b93505060206141f386828701613ec2565b925050604061420486828701613f5c565b9150509250925092565b600080fd5b7f4e487b7100000000000000000000000000000000000000000000000000000000600052604160045260246000fd5b61424b82613e0d565b810181811067ffffffffffffffff8211171561426a57614269614213565b5b80604052505050565b600061427d613cf8565b90506142898282614242565b919050565b600067ffffffffffffffff8211156142a9576142a8614213565b5b6142b282613e0d565b9050602081019050919050565b82818337600083830152505050565b60006142e16142dc8461428e565b614273565b9050828152602081018484840111156142fd576142fc61420e565b5b6143088482856142bf565b509392505050565b600082601f83011261432557614324614008565b5b81356143358482602086016142ce565b91505092915050565b60006020828403121561435457614353613d02565b5b600082013567ffffffffffffffff81111561437257614371613d07565b5b61437e84828501614310565b91505092915050565b61439081613d91565b811461439b57600080fd5b50565b6000813590506143ad81614387565b92915050565b600080604083850312156143ca576143c9613d02565b5b60006143d885828601613ec2565b92505060206143e98582860161439e565b9150509250929050565b600067ffffffffffffffff82111561440e5761440d614213565b5b61441782613e0d565b9050602081019050919050565b6000614437614432846143f3565b614273565b9050828152602081018484840111156144535761445261420e565b5b61445e8482856142bf565b509392505050565b600082601f83011261447b5761447a614008565b5b813561448b848260208601614424565b91505092915050565b600080600080608085870312156144ae576144ad613d02565b5b60006144bc87828801613ec2565b94505060206144cd87828801613ec2565b93505060406144de87828801613f5c565b925050606085013567ffffffffffffffff8111156144ff576144fe613d07565b5b61450b87828801614466565b91505092959194509250565b6000806040838503121561452e5761452d613d02565b5b600061453c85828601613ec2565b925050602061454d85828601613ec2565b9150509250929050565b600061456282613e79565b9050919050565b61457281614557565b811461457d57600080fd5b50565b60008135905061458f81614569565b92915050565b6000602082840312156145ab576145aa613d02565b5b60006145b984828501614580565b91505092915050565b7f486f6e6f72617279206d696e7420636c6f736500000000000000000000000000600082015250565b60006145f8601383613dd2565b9150614603826145c2565b602082019050919050565b60006020820190508181036000830152614627816145eb565b9050919050565b7f4e6f206769766577617900000000000000000000000000000000000000000000600082015250565b6000614664600a83613dd2565b915061466f8261462e565b602082019050919050565b6000602082019050818103600083015261469381614657565b9050919050565b600061ffff82169050919050565b6000819050919050565b60006146cd6146c86146c38461469a565b6146a8565b613f3b565b9050919050565b6146dd816146b2565b82525050565b60006040820190506146f86000830185614144565b61470560208301846146d4565b9392505050565b7f4e487b7100000000000000000000000000000000000000000000000000000000600052601160045260246000fd5b60006147468261469a565b915061ffff820361475a5761475961470c565b5b600182019050919050565b7f4a75646765206d696e7420636c6f736500000000000000000000000000000000600082015250565b600061479b601083613dd2565b91506147a682614765565b602082019050919050565b600060208201905081810360008301526147ca8161478e565b9050919050565b7f4e6f7420656c696769626c650000000000000000000000000000000000000000600082015250565b6000614807600c83613dd2565b9150614812826147d1565b602082019050919050565b60006020820190508181036000830152614836816147fa565b9050919050565b7f4e487b7100000000000000000000000000000000000000000000000000000000600052602260045260246000fd5b6000600282049050600182168061488457607f821691505b6020821081036148975761489661483d565b5b50919050565b7f4552433732313a20617070726f76616c20746f2063757272656e74206f776e6560008201527f7200000000000000000000000000000000000000000000000000000000000000602082015250565b60006148f9602183613dd2565b91506149048261489d565b604082019050919050565b60006020820190508181036000830152614928816148ec565b9050919050565b7f4552433732313a20617070726f76652063616c6c6572206973206e6f7420746f60008201527f6b656e206f776e6572206f7220617070726f76656420666f7220616c6c000000602082015250565b600061498b603d83613dd2565b91506149968261492f565b604082019050919050565b600060208201905081810360008301526149ba8161497e565b9050919050565b7f4e6f7420656e6f75676820636c61696d61626c6520746f6b656e730000000000600082015250565b60006149f7601b83613dd2565b9150614a02826149c1565b602082019050919050565b60006020820190508181036000830152614a26816149ea565b9050919050565b6000614a3882613f3b565b9150614a4383613f3b565b9250828201905080821115614a5b57614a5a61470c565b5b92915050565b7f537570706c79206c696d69742065786565647800000000000000000000000000600082015250565b6000614a97601383613dd2565b9150614aa282614a61565b602082019050919050565b60006020820190508181036000830152614ac681614a8a565b9050919050565b7f4c696d6974206d61780000000000000000000000000000000000000000000000600082015250565b6000614b03600983613dd2565b9150614b0e82614acd565b602082019050919050565b60006020820190508181036000830152614b3281614af6565b9050919050565b6000614b4482613f04565b915060008203614b5757614b5661470c565b5b600182039050919050565b7f4e487b7100000000000000000000000000000000000000000000000000000000600052603260045260246000fd5b600063ffffffff82169050919050565b6000614bac82614b91565b915063ffffffff8203614bc257614bc161470c565b5b600182019050919050565b600081519050919050565b600082825260208201905092915050565b6000819050602082019050919050565b614c0281613f3b565b82525050565b6000614c148383614bf9565b60208301905092915050565b6000602082019050919050565b6000614c3882614bcd565b614c428185614bd8565b9350614c4d83614be9565b8060005b83811015614c7e578151614c658882614c08565b9750614c7083614c20565b925050600181019050614c51565b5085935050505092915050565b6000604082019050614ca06000830185614144565b8181036020830152614cb28184614c2d565b90509392505050565b614cc481613f04565b8114614ccf57600080fd5b50565b600081359050614ce181614cbb565b92915050565b600060208284031215614cfd57614cfc613d02565b5b6000614d0b84828501614cd2565b91505092915050565b6000614d1f82613f3b565b91507fffffffffffffffffffffffffffffffffffffffffffffffffffffffffffffffff8203614d5157614d5061470c565b5b600182019050919050565b7f4552433732313a2063616c6c6572206973206e6f7420746f6b656e206f776e6560008201527f72206f7220617070726f76656400000000000000000000000000000000000000602082015250565b6000614db8602d83613dd2565b9150614dc382614d5c565b604082019050919050565b60006020820190508181036000830152614de781614dab565b9050919050565b7f455243373231456e756d657261626c653a206f776e657220696e646578206f7560008201527f74206f6620626f756e6473000000000000000000000000000000000000000000602082015250565b6000614e4a602b83613dd2565b9150614e5582614dee565b604082019050919050565b60006020820190508181036000830152614e7981614e3d565b9050919050565b60008190508160005260206000209050919050565b60006020601f8301049050919050565b600082821b905092915050565b600060088302614ee27fffffffffffffffffffffffffffffffffffffffffffffffffffffffffffffffff82614ea5565b614eec8683614ea5565b95508019841693508086168417925050509392505050565b6000614f1f614f1a614f1584613f3b565b6146a8565b613f3b565b9050919050565b6000819050919050565b614f3983614f04565b614f4d614f4582614f26565b848454614eb2565b825550505050565b600090565b614f62614f55565b614f6d818484614f30565b505050565b5b81811015614f9157614f86600082614f5a565b600181019050614f73565b5050565b601f821115614fd657614fa781614e80565b614fb084614e95565b81016020851015614fbf578190505b614fd3614fcb85614e95565b830182614f72565b50505b505050565b600082821c905092915050565b6000614ff960001984600802614fdb565b1980831691505092915050565b60006150128383614fe8565b9150826002028217905092915050565b61502b82613dc7565b67ffffffffffffffff81111561504457615043614213565b5b61504e825461486c565b615059828285614f95565b600060209050601f83116001811461508c576000841561507a578287015190505b6150848582615006565b8655506150ec565b601f19841661509a86614e80565b60005b828110156150c25784890151825560018201915060208501945060208101905061509d565b868310156150df57848901516150db601f891682614fe8565b8355505b6001600288020188555050505b505050505050565b7f477561726469616e206d696e7420636c6f736500000000000000000000000000600082015250565b600061512a601383613dd2565b9150615135826150f4565b602082019050919050565b600060208201905081810360008301526151598161511d565b9050919050565b7f455243373231456e756d657261626c653a20676c6f62616c20696e646578206f60008201527f7574206f6620626f756e64730000000000000000000000000000000000000000602082015250565b60006151bc602c83613dd2565b91506151c782615160565b604082019050919050565b600060208201905081810360008301526151eb816151af565b9050919050565b7f4552433732313a20696e76616c696420746f6b656e2049440000000000000000600082015250565b6000615228601883613dd2565b9150615233826151f2565b602082019050919050565b600060208201905081810360008301526152578161521b565b9050919050565b7f436f756e63696c206d696e7420636c6f73650000000000000000000000000000600082015250565b6000615294601283613dd2565b915061529f8261525e565b602082019050919050565b600060208201905081810360008301526152c381615287565b9050919050565b7f4552433732313a2061646472657373207a65726f206973206e6f74206120766160008201527f6c6964206f776e65720000000000000000000000000000000000000000000000602082015250565b6000615326602983613dd2565b9150615331826152ca565b604082019050919050565b6000602082019050818103600083015261535581615319565b9050919050565b7f5768616c65206d696e7420636c6f736500000000000000000000000000000000600082015250565b6000615392601083613dd2565b915061539d8261535c565b602082019050919050565b600060208201905081810360008301526153c181615385565b9050919050565b600081905092915050565b60006153de82613dc7565b6153e881856153c8565b93506153f8818560208601613de3565b80840191505092915050565b600061541082856153d3565b915061541c82846153d3565b91508190509392505050565b7f4f776e61626c653a206e6577206f776e657220697320746865207a65726f206160008201527f6464726573730000000000000000000000000000000000000000000000000000602082015250565b6000615484602683613dd2565b915061548f82615428565b604082019050919050565b600060208201905081810360008301526154b381615477565b9050919050565b7f4f776e61626c653a2063616c6c6572206973206e6f7420746865206f776e6572600082015250565b60006154f0602083613dd2565b91506154fb826154ba565b602082019050919050565b6000602082019050818103600083015261551f816154e3565b9050919050565b7f4552433732313a207472616e736665722066726f6d20696e636f72726563742060008201527f6f776e6572000000000000000000000000000000000000000000000000000000602082015250565b6000615582602583613dd2565b915061558d82615526565b604082019050919050565b600060208201905081810360008301526155b181615575565b9050919050565b7f4552433732313a207472616e7366657220746f20746865207a65726f2061646460008201527f7265737300000000000000000000000000000000000000000000000000000000602082015250565b6000615614602483613dd2565b915061561f826155b8565b604082019050919050565b6000602082019050818103600083015261564381615607565b9050919050565b7f4552433732313a20617070726f766520746f2063616c6c657200000000000000600082015250565b6000615680601983613dd2565b915061568b8261564a565b602082019050919050565b600060208201905081810360008301526156af81615673565b9050919050565b7f4552433732313a207472616e7366657220746f206e6f6e20455243373231526560008201527f63656976657220696d706c656d656e7465720000000000000000000000000000602082015250565b6000615712603283613dd2565b915061571d826156b6565b604082019050919050565b6000602082019050818103600083015261574181615705565b9050919050565b7f4e487b7100000000000000000000000000000000000000000000000000000000600052601260045260246000fd5b7f455243373231456e756d657261626c653a20636f6e736563757469766520747260008201527f616e7366657273206e6f7420737570706f727465640000000000000000000000602082015250565b60006157d3603583613dd2565b91506157de82615777565b604082019050919050565b60006020820190508181036000830152615802816157c6565b9050919050565b600081519050919050565b600082825260208201905092915050565b600061583082615809565b61583a8185615814565b935061584a818560208601613de3565b61585381613e0d565b840191505092915050565b60006080820190506158736000830187613f9e565b6158806020830186613f9e565b61588d6040830185614144565b818103606083015261589f8184615825565b905095945050505050565b6000815190506158b981613d38565b92915050565b6000602082840312156158d5576158d4613d02565b5b60006158e3848285016158aa565b91505092915050565b7f4552433732313a206d696e7420746f20746865207a65726f2061646472657373600082015250565b6000615922602083613dd2565b915061592d826158ec565b602082019050919050565b6000602082019050818103600083015261595181615915565b9050919050565b7f4552433732313a20746f6b656e20616c7265616479206d696e74656400000000600082015250565b600061598e601c83613dd2565b915061599982615958565b602082019050919050565b600060208201905081810360008301526159bd81615981565b9050919050565b60006159cf82613f3b565b91506159da83613f3b565b92508282039050818111156159f2576159f161470c565b5b92915050565b7f4e487b7100000000000000000000000000000000000000000000000000000000600052603160045260246000fdfea2646970667358221220cbe6e28f010d19a4b548fb40bbe831b5bb0300891d4b11422b37e8da036aaefb64736f6c63430008130033",
  "immutableReferences": {},
  "source": "// SPDX-License-Identifier: MIT\npragma solidity 0.8.19;\n\nimport \"@openzeppelin/contracts/token/ERC721/extensions/ERC721Enumerable.sol\";\nimport \"@openzeppelin/contracts/access/Ownable.sol\";\nimport \"@openzeppelin/contracts/security/ReentrancyGuard.sol\";\n\ncontract MetaLifeOgPets is ReentrancyGuard, ERC721Enumerable, Ownable {\n  string public baseURI;                          // PUBLIC\n  uint16 private maxSupply = 1500;                // PRIVATE\n  uint16 private maxSupplyDefaultRandom = 1072;\n  uint16 private maxSupplyCouncil = 305;\n  uint16 private maxSupplyHonorary = 66;\n  uint16 private maxSupplyGuardian = 36;\n  uint16 private maxSupplyJudge = 11;\n  uint16 private maxSupplyWhale = 10;\n  uint256 private limitMintSpecific = 0;\n  address payable private collector;\n  uint16 private _tokenIdCurrentRandom = 1;       // VAR AND EVENT BY MINT\n  mapping(address => uint8) private addressesRandom;\n  event MintedRandom(address indexed from, uint256 timestamp, uint256[] tokenIds);\n  uint16 private _tokenIdCurrentCouncil = 1073;\n  mapping(address => uint8) private addressesCouncil;\n  event MintedCouncil(address indexed from, uint256 timestamp, uint256[] tokenIds);\n  uint16 private _tokenIdCurrentHonorary = 1378;\n  mapping(address => uint8) private addressesHonorary;\n  event MintedHonorary(address indexed from, uint256 timestamp, uint256 tokenId);\n  uint16 private _tokenIdCurrentGuardian = 1444;\n  mapping(address => uint8) private addressesGuardian;\n  event MintedGuardian(address indexed from, uint256 timestamp, uint256 tokenId);\n  uint16 private _tokenIdCurrentJudge = 1480;\n  mapping(address => uint8) private addressesJudge;\n  event MintedJudge(address indexed from, uint256 timestamp, uint256 tokenId);\n  uint16 private _tokenIdCurrentWhale = 1491;\n  mapping(address => uint8) private addressesWhale;\n  event MintedWhale(address indexed from, uint256 timestamp, uint256 tokenId);\n\n  constructor(string memory name_, string memory symbol_) ERC721(name_, symbol_){\n    limitMintSpecific = block.timestamp + ((365/2) * 24 * 60 * 60);\n  }\n\n  function withdrawAll() public payable onlyOwner {\n    collector.transfer(address(this).balance);\n  }\n\n  function setCollector(address payable _newCollector) public onlyOwner {\n    collector = _newCollector;\n  }\n\n  function _setBaseURI(string memory _newBaseURI) public onlyOwner {\n    baseURI = _newBaseURI;\n  }\n\n  function _baseURI() internal view virtual override returns (string memory) {\n    return baseURI;\n  }\n\n  function addAddressesRandom(address[] calldata _toAddAddresses, uint8[] calldata _quantities) external onlyOwner {\n    for (uint i = 0; i < _toAddAddresses.length; i++) {\n      addressesRandom[_toAddAddresses[i]] = _quantities[i];\n    }\n  }\n\n  function addAddressesCouncil(address[] calldata _toAddAddresses, uint8[] calldata _quantities) external onlyOwner {\n    for (uint i = 0; i < _toAddAddresses.length; i++) {\n      addressesCouncil[_toAddAddresses[i]] = _quantities[i];\n    }\n  }\n\n  function addAddressesHonorary(address[] calldata _toAddAddresses) external onlyOwner {\n    for (uint i = 0; i < _toAddAddresses.length; i++) {\n      addressesHonorary[_toAddAddresses[i]] = 1;\n    }\n  }\n\n  function addAddressesGuardian(address[] calldata _toAddAddresses) external onlyOwner {\n    for (uint i = 0; i < _toAddAddresses.length; i++) {\n      addressesGuardian[_toAddAddresses[i]] = 1;\n    }\n  }\n\n  function addAddressesJudge(address[] calldata _toAddAddresses) external onlyOwner {\n    for (uint i = 0; i < _toAddAddresses.length; i++) {\n      addressesJudge[_toAddAddresses[i]] = 1;\n    }\n  }\n\n  function addAddressesWhale(address[] calldata _toAddAddresses) external onlyOwner {\n    for (uint i = 0; i < _toAddAddresses.length; i++) {\n      addressesWhale[_toAddAddresses[i]] = 1;\n    }\n  }\n\n  function addressClaimbleRandom(address _wallet) public view returns(uint8) {\n    return addressesRandom[_wallet];\n  }\n\n  function addressClaimbleCouncil(address _wallet) public view returns(uint8) {\n    return addressesCouncil[_wallet];\n  }\n\n  function addressClaimbleHonorary(address _wallet) public view returns(uint8) {\n    return addressesHonorary[_wallet];\n  }\n\n  function addressClaimbleGuardian(address _wallet) public view returns(uint8) {\n    return addressesGuardian[_wallet];\n  }\n\n  function addressClaimbleJudge(address _wallet) public view returns(uint8) {\n    return addressesJudge[_wallet];\n  }\n\n  function addressClaimbleWhale(address _wallet) public view returns(uint8) {\n    return addressesWhale[_wallet];\n  }\n\n  function mintRandom(uint256 _nb) external {\n    require(addressesRandom[msg.sender] > 0, \"Not eligible\");\n    require(addressesRandom[msg.sender] >= _nb, \"Not enough claimable tokens\");\n    require(maxSupply >= totalSupply() + _nb, \"Supply limit exeedx\");\n    require(_nb <= 10, \"Limit max\");\n    uint256[] memory _tokenIdsMinted = new uint256[](_nb);\n    for (uint32 i = 0; i < _nb; i++) {\n      addressesRandom[msg.sender]--;\n      _safeMint(msg.sender, _tokenIdCurrentRandom);\n      _tokenIdsMinted[i] = _tokenIdCurrentRandom;\n      _tokenIdCurrentRandom++;\n    }\n    emit MintedRandom(msg.sender, block.timestamp, _tokenIdsMinted);\n  }\n\n  function mintCouncil(uint256 _nb) external {\n    require(block.timestamp < limitMintSpecific, \"Council mint close\");\n    require(addressesCouncil[msg.sender] > 0, \"Not eligible\");\n    require(addressesCouncil[msg.sender] >= _nb, \"Not enough claimable tokens\");\n    require(_nb <= 10, \"Limit max\");\n    uint256[] memory _tokenIdsMinted = new uint256[](_nb);\n    for (uint32 i = 0; i < _nb; i++) {\n      addressesCouncil[msg.sender]--;\n      _safeMint(msg.sender, _tokenIdCurrentCouncil);\n      _tokenIdsMinted[i] = _tokenIdCurrentCouncil;\n      _tokenIdCurrentCouncil++;\n    }\n    emit MintedCouncil(msg.sender, block.timestamp, _tokenIdsMinted);\n  }\n\n  function mintHonorary() external {\n    require(block.timestamp < limitMintSpecific, \"Honorary mint close\");\n    require(addressesHonorary[msg.sender] > 0, \"No giveway\");\n    addressesHonorary[msg.sender] = 0;\n    _safeMint(msg.sender, _tokenIdCurrentHonorary);\n    emit MintedHonorary(msg.sender, block.timestamp, _tokenIdCurrentHonorary);\n    _tokenIdCurrentHonorary++;\n  }\n\n  function mintGuardian() external {\n    require(block.timestamp < limitMintSpecific, \"Guardian mint close\");\n    require(addressesGuardian[msg.sender] > 0, \"No giveway\");\n    addressesGuardian[msg.sender] = 0;\n    _safeMint(msg.sender, _tokenIdCurrentGuardian);\n    emit MintedGuardian(msg.sender, block.timestamp, _tokenIdCurrentGuardian);\n    _tokenIdCurrentGuardian++;\n  }\n\n  function mintJudge() external {\n    require(block.timestamp < limitMintSpecific, \"Judge mint close\");\n    require(addressesJudge[msg.sender] > 0, \"Not eligible\");\n    addressesJudge[msg.sender] = 0;\n    _safeMint(msg.sender, _tokenIdCurrentJudge);\n    emit MintedJudge(msg.sender, block.timestamp, _tokenIdCurrentJudge);\n    _tokenIdCurrentJudge++;\n  }\n\n  function mintWhale() external {\n    require(block.timestamp < limitMintSpecific, \"Whale mint close\");\n    require(addressesWhale[msg.sender] > 0, \"No giveway\");\n    addressesWhale[msg.sender] = 0;\n    _safeMint(msg.sender, _tokenIdCurrentWhale);\n    _tokenIdCurrentWhale++;\n    emit MintedWhale(msg.sender, block.timestamp, _tokenIdCurrentWhale);\n  }\n}\n",
  "sourcePath": "/Users/rchea/workspaces/MetaLegends/contract-pet/contracts/MetaLifeOgPets.sol",
  "compiler": {
    "name": "solc",
    "version": "0.8.19+commit.7dd6d404.Emscripten.clang"
  },
  "schemaVersion": "3.4.13",
  "updatedAt": "2023-06-26T04:52:15.342Z",
  "networkType": "ethereum",
  "devdoc": {
    "events": {
      "Approval(address,address,uint256)": {
        "details": "Emitted when `owner` enables `approved` to manage the `tokenId` token."
      },
      "ApprovalForAll(address,address,bool)": {
        "details": "Emitted when `owner` enables or disables (`approved`) `operator` to manage all of its assets."
      },
      "Transfer(address,address,uint256)": {
        "details": "Emitted when `tokenId` token is transferred from `from` to `to`."
      }
    },
    "kind": "dev",
    "methods": {
      "approve(address,uint256)": {
        "details": "See {IERC721-approve}."
      },
      "balanceOf(address)": {
        "details": "See {IERC721-balanceOf}."
      },
      "getApproved(uint256)": {
        "details": "See {IERC721-getApproved}."
      },
      "isApprovedForAll(address,address)": {
        "details": "See {IERC721-isApprovedForAll}."
      },
      "name()": {
        "details": "See {IERC721Metadata-name}."
      },
      "owner()": {
        "details": "Returns the address of the current owner."
      },
      "ownerOf(uint256)": {
        "details": "See {IERC721-ownerOf}."
      },
      "renounceOwnership()": {
        "details": "Leaves the contract without owner. It will not be possible to call `onlyOwner` functions anymore. Can only be called by the current owner. NOTE: Renouncing ownership will leave the contract without an owner, thereby removing any functionality that is only available to the owner."
      },
      "safeTransferFrom(address,address,uint256)": {
        "details": "See {IERC721-safeTransferFrom}."
      },
      "safeTransferFrom(address,address,uint256,bytes)": {
        "details": "See {IERC721-safeTransferFrom}."
      },
      "setApprovalForAll(address,bool)": {
        "details": "See {IERC721-setApprovalForAll}."
      },
      "supportsInterface(bytes4)": {
        "details": "See {IERC165-supportsInterface}."
      },
      "symbol()": {
        "details": "See {IERC721Metadata-symbol}."
      },
      "tokenByIndex(uint256)": {
        "details": "See {IERC721Enumerable-tokenByIndex}."
      },
      "tokenOfOwnerByIndex(address,uint256)": {
        "details": "See {IERC721Enumerable-tokenOfOwnerByIndex}."
      },
      "tokenURI(uint256)": {
        "details": "See {IERC721Metadata-tokenURI}."
      },
      "totalSupply()": {
        "details": "See {IERC721Enumerable-totalSupply}."
      },
      "transferFrom(address,address,uint256)": {
        "details": "See {IERC721-transferFrom}."
      },
      "transferOwnership(address)": {
        "details": "Transfers ownership of the contract to a new account (`newOwner`). Can only be called by the current owner."
      }
    },
    "version": 1
  },
  "userdoc": {
    "kind": "user",
    "methods": {},
    "version": 1
  }
}