{
  "contractName": "MetaLifeOgPets",
  "abi": [
    {
      "inputs": [],
      "stateMutability": "nonpayable",
      "type": "constructor"
    },
    {
      "inputs": [],
      "name": "AccountBalanceOverflow",
      "type": "error"
    },
    {
      "inputs": [],
      "name": "BalanceQueryForZeroAddress",
      "type": "error"
    },
    {
      "inputs": [],
      "name": "ContractsCannotMint",
      "type": "error"
    },
    {
      "inputs": [],
      "name": "MustMintAtLeastOneToken",
      "type": "error"
    },
    {
      "inputs": [],
      "name": "NotEnoughAvailableTokens",
      "type": "error"
    },
    {
      "inputs": [],
      "name": "NotOwnerNorApproved",
      "type": "error"
    },
    {
      "inputs": [],
      "name": "TokenAlreadyExists",
      "type": "error"
    },
    {
      "inputs": [],
      "name": "TokenDoesNotExist",
      "type": "error"
    },
    {
      "inputs": [],
      "name": "TransferFromIncorrectOwner",
      "type": "error"
    },
    {
      "inputs": [],
      "name": "TransferToNonERC721ReceiverImplementer",
      "type": "error"
    },
    {
      "inputs": [],
      "name": "TransferToZeroAddress",
      "type": "error"
    },
    {
      "anonymous": false,
      "inputs": [
        {
          "indexed": true,
          "internalType": "address",
          "name": "owner",
          "type": "address"
        },
        {
          "indexed": true,
          "internalType": "address",
          "name": "account",
          "type": "address"
        },
        {
          "indexed": true,
          "internalType": "uint256",
          "name": "id",
          "type": "uint256"
        }
      ],
      "name": "Approval",
      "type": "event"
    },
    {
      "anonymous": false,
      "inputs": [
        {
          "indexed": true,
          "internalType": "address",
          "name": "owner",
          "type": "address"
        },
        {
          "indexed": true,
          "internalType": "address",
          "name": "operator",
          "type": "address"
        },
        {
          "indexed": false,
          "internalType": "bool",
          "name": "isApproved",
          "type": "bool"
        }
      ],
      "name": "ApprovalForAll",
      "type": "event"
    },
    {
      "anonymous": false,
      "inputs": [
        {
          "indexed": true,
          "internalType": "address",
          "name": "from",
          "type": "address"
        },
        {
          "indexed": false,
          "internalType": "uint256",
          "name": "timestamp",
          "type": "uint256"
        },
        {
          "indexed": false,
          "internalType": "uint256[]",
          "name": "tokenIds",
          "type": "uint256[]"
        }
      ],
      "name": "MintedCouncil",
      "type": "event"
    },
    {
      "anonymous": false,
      "inputs": [
        {
          "indexed": true,
          "internalType": "address",
          "name": "from",
          "type": "address"
        },
        {
          "indexed": false,
          "internalType": "uint256",
          "name": "timestamp",
          "type": "uint256"
        },
        {
          "indexed": false,
          "internalType": "uint256",
          "name": "tokenId",
          "type": "uint256"
        }
      ],
      "name": "MintedGiveway",
      "type": "event"
    },
    {
      "anonymous": false,
      "inputs": [
        {
          "indexed": true,
          "internalType": "address",
          "name": "from",
          "type": "address"
        },
        {
          "indexed": false,
          "internalType": "uint256",
          "name": "timestamp",
          "type": "uint256"
        },
        {
          "indexed": false,
          "internalType": "uint256",
          "name": "tokenId",
          "type": "uint256"
        }
      ],
      "name": "MintedGuardian",
      "type": "event"
    },
    {
      "anonymous": false,
      "inputs": [
        {
          "indexed": true,
          "internalType": "address",
          "name": "from",
          "type": "address"
        },
        {
          "indexed": false,
          "internalType": "uint256",
          "name": "timestamp",
          "type": "uint256"
        },
        {
          "indexed": false,
          "internalType": "uint256",
          "name": "tokenId",
          "type": "uint256"
        }
      ],
      "name": "MintedHonorary",
      "type": "event"
    },
    {
      "anonymous": false,
      "inputs": [
        {
          "indexed": true,
          "internalType": "address",
          "name": "from",
          "type": "address"
        },
        {
          "indexed": false,
          "internalType": "uint256",
          "name": "timestamp",
          "type": "uint256"
        },
        {
          "indexed": false,
          "internalType": "uint256",
          "name": "tokenId",
          "type": "uint256"
        }
      ],
      "name": "MintedJudge",
      "type": "event"
    },
    {
      "anonymous": false,
      "inputs": [
        {
          "indexed": true,
          "internalType": "address",
          "name": "from",
          "type": "address"
        },
        {
          "indexed": false,
          "internalType": "uint256",
          "name": "timestamp",
          "type": "uint256"
        }
      ],
      "name": "MintedRandom",
      "type": "event"
    },
    {
      "anonymous": false,
      "inputs": [
        {
          "indexed": true,
          "internalType": "address",
          "name": "from",
          "type": "address"
        },
        {
          "indexed": false,
          "internalType": "uint256",
          "name": "timestamp",
          "type": "uint256"
        },
        {
          "indexed": false,
          "internalType": "uint256",
          "name": "tokenId",
          "type": "uint256"
        }
      ],
      "name": "MintedWhale",
      "type": "event"
    },
    {
      "anonymous": false,
      "inputs": [
        {
          "indexed": true,
          "internalType": "address",
          "name": "previousOwner",
          "type": "address"
        },
        {
          "indexed": true,
          "internalType": "address",
          "name": "newOwner",
          "type": "address"
        }
      ],
      "name": "OwnershipTransferred",
      "type": "event"
    },
    {
      "anonymous": false,
      "inputs": [
        {
          "indexed": true,
          "internalType": "address",
          "name": "from",
          "type": "address"
        },
        {
          "indexed": true,
          "internalType": "address",
          "name": "to",
          "type": "address"
        },
        {
          "indexed": true,
          "internalType": "uint256",
          "name": "id",
          "type": "uint256"
        }
      ],
      "name": "Transfer",
      "type": "event"
    },
    {
      "inputs": [
        {
          "internalType": "address",
          "name": "account",
          "type": "address"
        },
        {
          "internalType": "uint256",
          "name": "id",
          "type": "uint256"
        }
      ],
      "name": "approve",
      "outputs": [],
      "stateMutability": "payable",
      "type": "function",
      "payable": true
    },
    {
      "inputs": [
        {
          "internalType": "address",
          "name": "owner",
          "type": "address"
        }
      ],
      "name": "balanceOf",
      "outputs": [
        {
          "internalType": "uint256",
          "name": "result",
          "type": "uint256"
        }
      ],
      "stateMutability": "view",
      "type": "function",
      "constant": true
    },
    {
      "inputs": [],
      "name": "baseURI",
      "outputs": [
        {
          "internalType": "string",
          "name": "",
          "type": "string"
        }
      ],
      "stateMutability": "view",
      "type": "function",
      "constant": true
    },
    {
      "inputs": [
        {
          "internalType": "uint256",
          "name": "id",
          "type": "uint256"
        }
      ],
      "name": "getApproved",
      "outputs": [
        {
          "internalType": "address",
          "name": "result",
          "type": "address"
        }
      ],
      "stateMutability": "view",
      "type": "function",
      "constant": true
    },
    {
      "inputs": [
        {
          "internalType": "address",
          "name": "owner",
          "type": "address"
        },
        {
          "internalType": "address",
          "name": "operator",
          "type": "address"
        }
      ],
      "name": "isApprovedForAll",
      "outputs": [
        {
          "internalType": "bool",
          "name": "result",
          "type": "bool"
        }
      ],
      "stateMutability": "view",
      "type": "function",
      "constant": true
    },
    {
      "inputs": [],
      "name": "maxSupply",
      "outputs": [
        {
          "internalType": "uint256",
          "name": "",
          "type": "uint256"
        }
      ],
      "stateMutability": "view",
      "type": "function",
      "constant": true
    },
    {
      "inputs": [],
      "name": "name",
      "outputs": [
        {
          "internalType": "string",
          "name": "",
          "type": "string"
        }
      ],
      "stateMutability": "view",
      "type": "function",
      "constant": true
    },
    {
      "inputs": [
        {
          "internalType": "address",
          "name": "minter",
          "type": "address"
        }
      ],
      "name": "numberMinted",
      "outputs": [
        {
          "internalType": "uint32",
          "name": "",
          "type": "uint32"
        }
      ],
      "stateMutability": "view",
      "type": "function",
      "constant": true
    },
    {
      "inputs": [],
      "name": "owner",
      "outputs": [
        {
          "internalType": "address",
          "name": "",
          "type": "address"
        }
      ],
      "stateMutability": "view",
      "type": "function",
      "constant": true
    },
    {
      "inputs": [
        {
          "internalType": "uint256",
          "name": "id",
          "type": "uint256"
        }
      ],
      "name": "ownerOf",
      "outputs": [
        {
          "internalType": "address",
          "name": "result",
          "type": "address"
        }
      ],
      "stateMutability": "view",
      "type": "function",
      "constant": true
    },
    {
      "inputs": [],
      "name": "remainingSupply",
      "outputs": [
        {
          "internalType": "uint256",
          "name": "",
          "type": "uint256"
        }
      ],
      "stateMutability": "view",
      "type": "function",
      "constant": true
    },
    {
      "inputs": [],
      "name": "renounceOwnership",
      "outputs": [],
      "stateMutability": "nonpayable",
      "type": "function"
    },
    {
      "inputs": [
        {
          "internalType": "address",
          "name": "from",
          "type": "address"
        },
        {
          "internalType": "address",
          "name": "to",
          "type": "address"
        },
        {
          "internalType": "uint256",
          "name": "id",
          "type": "uint256"
        }
      ],
      "name": "safeTransferFrom",
      "outputs": [],
      "stateMutability": "payable",
      "type": "function",
      "payable": true
    },
    {
      "inputs": [
        {
          "internalType": "address",
          "name": "from",
          "type": "address"
        },
        {
          "internalType": "address",
          "name": "to",
          "type": "address"
        },
        {
          "internalType": "uint256",
          "name": "id",
          "type": "uint256"
        },
        {
          "internalType": "bytes",
          "name": "data",
          "type": "bytes"
        }
      ],
      "name": "safeTransferFrom",
      "outputs": [],
      "stateMutability": "payable",
      "type": "function",
      "payable": true
    },
    {
      "inputs": [
        {
          "internalType": "address",
          "name": "operator",
          "type": "address"
        },
        {
          "internalType": "bool",
          "name": "isApproved",
          "type": "bool"
        }
      ],
      "name": "setApprovalForAll",
      "outputs": [],
      "stateMutability": "nonpayable",
      "type": "function"
    },
    {
      "inputs": [
        {
          "internalType": "bytes4",
          "name": "interfaceId",
          "type": "bytes4"
        }
      ],
      "name": "supportsInterface",
      "outputs": [
        {
          "internalType": "bool",
          "name": "result",
          "type": "bool"
        }
      ],
      "stateMutability": "view",
      "type": "function",
      "constant": true
    },
    {
      "inputs": [],
      "name": "symbol",
      "outputs": [
        {
          "internalType": "string",
          "name": "",
          "type": "string"
        }
      ],
      "stateMutability": "view",
      "type": "function",
      "constant": true
    },
    {
      "inputs": [],
      "name": "totalSupply",
      "outputs": [
        {
          "internalType": "uint256",
          "name": "",
          "type": "uint256"
        }
      ],
      "stateMutability": "view",
      "type": "function",
      "constant": true
    },
    {
      "inputs": [
        {
          "internalType": "address",
          "name": "from",
          "type": "address"
        },
        {
          "internalType": "address",
          "name": "to",
          "type": "address"
        },
        {
          "internalType": "uint256",
          "name": "id",
          "type": "uint256"
        }
      ],
      "name": "transferFrom",
      "outputs": [],
      "stateMutability": "payable",
      "type": "function",
      "payable": true
    },
    {
      "inputs": [
        {
          "internalType": "address",
          "name": "newOwner",
          "type": "address"
        }
      ],
      "name": "transferOwnership",
      "outputs": [],
      "stateMutability": "nonpayable",
      "type": "function"
    },
    {
      "inputs": [],
      "name": "withdrawAll",
      "outputs": [],
      "stateMutability": "payable",
      "type": "function",
      "payable": true
    },
    {
      "inputs": [
        {
          "internalType": "address payable",
          "name": "_newCollector",
          "type": "address"
        }
      ],
      "name": "setCollector",
      "outputs": [],
      "stateMutability": "nonpayable",
      "type": "function"
    },
    {
      "inputs": [
        {
          "internalType": "string",
          "name": "_newBaseURI",
          "type": "string"
        }
      ],
      "name": "_setBaseURI",
      "outputs": [],
      "stateMutability": "nonpayable",
      "type": "function"
    },
    {
      "inputs": [
        {
          "internalType": "uint256",
          "name": "tokenId",
          "type": "uint256"
        }
      ],
      "name": "tokenURI",
      "outputs": [
        {
          "internalType": "string",
          "name": "",
          "type": "string"
        }
      ],
      "stateMutability": "view",
      "type": "function",
      "constant": true
    },
    {
      "inputs": [
        {
          "internalType": "address[]",
          "name": "_toAddAddresses",
          "type": "address[]"
        },
        {
          "internalType": "uint8[]",
          "name": "_quantities",
          "type": "uint8[]"
        }
      ],
      "name": "addAddressesRandom",
      "outputs": [],
      "stateMutability": "nonpayable",
      "type": "function"
    },
    {
      "inputs": [
        {
          "internalType": "address[]",
          "name": "_toAddAddresses",
          "type": "address[]"
        },
        {
          "internalType": "uint8[]",
          "name": "_quantities",
          "type": "uint8[]"
        }
      ],
      "name": "addAddressesCouncil",
      "outputs": [],
      "stateMutability": "nonpayable",
      "type": "function"
    },
    {
      "inputs": [
        {
          "internalType": "address[]",
          "name": "_toAddAddresses",
          "type": "address[]"
        }
      ],
      "name": "addAddressesHonorary",
      "outputs": [],
      "stateMutability": "nonpayable",
      "type": "function"
    },
    {
      "inputs": [
        {
          "internalType": "address[]",
          "name": "_toAddAddresses",
          "type": "address[]"
        }
      ],
      "name": "addAddressesGuardian",
      "outputs": [],
      "stateMutability": "nonpayable",
      "type": "function"
    },
    {
      "inputs": [
        {
          "internalType": "address[]",
          "name": "_toAddAddresses",
          "type": "address[]"
        }
      ],
      "name": "addAddressesJudge",
      "outputs": [],
      "stateMutability": "nonpayable",
      "type": "function"
    },
    {
      "inputs": [
        {
          "internalType": "address[]",
          "name": "_toAddAddresses",
          "type": "address[]"
        }
      ],
      "name": "addAddressesWhale",
      "outputs": [],
      "stateMutability": "nonpayable",
      "type": "function"
    },
    {
      "inputs": [
        {
          "internalType": "address",
          "name": "_wallet",
          "type": "address"
        }
      ],
      "name": "addressClaimbleRandom",
      "outputs": [
        {
          "internalType": "uint8",
          "name": "",
          "type": "uint8"
        }
      ],
      "stateMutability": "view",
      "type": "function",
      "constant": true
    },
    {
      "inputs": [
        {
          "internalType": "address",
          "name": "_wallet",
          "type": "address"
        }
      ],
      "name": "addressClaimbleCouncil",
      "outputs": [
        {
          "internalType": "uint8",
          "name": "",
          "type": "uint8"
        }
      ],
      "stateMutability": "view",
      "type": "function",
      "constant": true
    },
    {
      "inputs": [
        {
          "internalType": "address",
          "name": "_wallet",
          "type": "address"
        }
      ],
      "name": "addressClaimbleHonorary",
      "outputs": [
        {
          "internalType": "uint8",
          "name": "",
          "type": "uint8"
        }
      ],
      "stateMutability": "view",
      "type": "function",
      "constant": true
    },
    {
      "inputs": [
        {
          "internalType": "address",
          "name": "_wallet",
          "type": "address"
        }
      ],
      "name": "addressClaimbleGuardian",
      "outputs": [
        {
          "internalType": "uint8",
          "name": "",
          "type": "uint8"
        }
      ],
      "stateMutability": "view",
      "type": "function",
      "constant": true
    },
    {
      "inputs": [
        {
          "internalType": "address",
          "name": "_wallet",
          "type": "address"
        }
      ],
      "name": "addressClaimbleJudge",
      "outputs": [
        {
          "internalType": "uint8",
          "name": "",
          "type": "uint8"
        }
      ],
      "stateMutability": "view",
      "type": "function",
      "constant": true
    },
    {
      "inputs": [
        {
          "internalType": "address",
          "name": "_wallet",
          "type": "address"
        }
      ],
      "name": "addressClaimbleWhale",
      "outputs": [
        {
          "internalType": "uint8",
          "name": "",
          "type": "uint8"
        }
      ],
      "stateMutability": "view",
      "type": "function",
      "constant": true
    },
    {
      "inputs": [
        {
          "internalType": "uint8",
          "name": "_nb",
          "type": "uint8"
        }
      ],
      "name": "mintRandom",
      "outputs": [],
      "stateMutability": "nonpayable",
      "type": "function"
    },
    {
      "inputs": [],
      "name": "mainTotalSupply",
      "outputs": [
        {
          "internalType": "uint256",
          "name": "",
          "type": "uint256"
        }
      ],
      "stateMutability": "view",
      "type": "function",
      "constant": true
    },
    {
      "inputs": [
        {
          "internalType": "uint256",
          "name": "_nb",
          "type": "uint256"
        }
      ],
      "name": "mintCouncil",
      "outputs": [],
      "stateMutability": "nonpayable",
      "type": "function"
    },
    {
      "inputs": [],
      "name": "mintHonorary",
      "outputs": [],
      "stateMutability": "nonpayable",
      "type": "function"
    },
    {
      "inputs": [],
      "name": "mintGuardian",
      "outputs": [],
      "stateMutability": "nonpayable",
      "type": "function"
    },
    {
      "inputs": [],
      "name": "mintJudge",
      "outputs": [],
      "stateMutability": "nonpayable",
      "type": "function"
    },
    {
      "inputs": [],
      "name": "mintWhale",
      "outputs": [],
      "stateMutability": "nonpayable",
      "type": "function"
    },
    {
      "inputs": [
        {
          "internalType": "uint256",
          "name": "tokenId",
          "type": "uint256"
        }
      ],
      "name": "tokenExist",
      "outputs": [
        {
          "internalType": "bool",
          "name": "",
          "type": "bool"
        }
      ],
      "stateMutability": "view",
      "type": "function",
      "constant": true
    },
    {
      "inputs": [
        {
          "internalType": "uint256[]",
          "name": "_tokenIdsAvailable",
          "type": "uint256[]"
        }
      ],
      "name": "setTokenAvailables",
      "outputs": [],
      "stateMutability": "nonpayable",
      "type": "function"
    },
    {
      "inputs": [],
      "name": "getTokenAvailables",
      "outputs": [
        {
          "internalType": "uint256[]",
          "name": "",
          "type": "uint256[]"
        }
      ],
      "stateMutability": "view",
      "type": "function",
      "constant": true
    },
    {
      "inputs": [],
      "name": "countTokenAvailables",
      "outputs": [
        {
          "internalType": "uint256",
          "name": "",
          "type": "uint256"
        }
      ],
      "stateMutability": "view",
      "type": "function",
      "constant": true
    },
    {
      "inputs": [
        {
          "internalType": "address[]",
          "name": "_toAddAddresses",
          "type": "address[]"
        }
      ],
      "name": "addAddressesGiveway",
      "outputs": [],
      "stateMutability": "nonpayable",
      "type": "function"
    },
    {
      "inputs": [],
      "name": "mintGiveway",
      "outputs": [],
      "stateMutability": "nonpayable",
      "type": "function"
    }
  ],
  "bytecode": "0x60a06040526105dc600760006101000a81548161ffff021916908361ffff1602179055506000600760026101000a81548161ffff021916908361ffff1602179055506000600760046101000a81548161ffff021916908361ffff1602179055506000600760066101000a81548161ffff021916908361ffff1602179055506000600760086101000a81548161ffff021916908361ffff16021790555060006007600a6101000a81548161ffff021916908361ffff16021790555060006008556001600960146101000a81548161ffff021916908361ffff160217905550610431600b60006101000a81548161ffff021916908361ffff160217905550610562600d60006101000a81548161ffff021916908361ffff1602179055506105a4600f60006101000a81548161ffff021916908361ffff1602179055506105c8601160006101000a81548161ffff021916908361ffff1602179055506105d3601360006101000a81548161ffff021916908361ffff1602179055506000601560006101000a81548161ffff021916908361ffff160217905550348015620001a257600080fd5b506040518060400160405280601081526020017f4d6574614c696665204f472050657473000000000000000000000000000000008152506040518060400160405280600381526020017f4d4c50000000000000000000000000000000000000000000000000000000000081525061043060016000819055506200023a6200022e6200028d60201b60201c565b6200029560201b60201c565b82600290816200024b9190620005d5565b5081600390816200025d9190620005d5565b5080608081815250508060058190555050505062f099c042620002819190620006eb565b60088190555062000726565b600033905090565b6000600160009054906101000a900473ffffffffffffffffffffffffffffffffffffffff16905081600160006101000a81548173ffffffffffffffffffffffffffffffffffffffff021916908373ffffffffffffffffffffffffffffffffffffffff1602179055508173ffffffffffffffffffffffffffffffffffffffff168173ffffffffffffffffffffffffffffffffffffffff167f8be0079c531659141344cd1fd0a4f28419497f9722a3daafe3b4186f6b6457e060405160405180910390a35050565b600081519050919050565b7f4e487b7100000000000000000000000000000000000000000000000000000000600052604160045260246000fd5b7f4e487b7100000000000000000000000000000000000000000000000000000000600052602260045260246000fd5b60006002820490506001821680620003dd57607f821691505b602082108103620003f357620003f262000395565b5b50919050565b60008190508160005260206000209050919050565b60006020601f8301049050919050565b600082821b905092915050565b6000600883026200045d7fffffffffffffffffffffffffffffffffffffffffffffffffffffffffffffffff826200041e565b6200046986836200041e565b95508019841693508086168417925050509392505050565b6000819050919050565b6000819050919050565b6000620004b6620004b0620004aa8462000481565b6200048b565b62000481565b9050919050565b6000819050919050565b620004d28362000495565b620004ea620004e182620004bd565b8484546200042b565b825550505050565b600090565b62000501620004f2565b6200050e818484620004c7565b505050565b5b8181101562000536576200052a600082620004f7565b60018101905062000514565b5050565b601f82111562000585576200054f81620003f9565b6200055a846200040e565b810160208510156200056a578190505b6200058262000579856200040e565b83018262000513565b50505b505050565b600082821c905092915050565b6000620005aa600019846008026200058a565b1980831691505092915050565b6000620005c5838362000597565b9150826002028217905092915050565b620005e0826200035b565b67ffffffffffffffff811115620005fc57620005fb62000366565b5b620006088254620003c4565b620006158282856200053a565b600060209050601f8311600181146200064d576000841562000638578287015190505b620006448582620005b7565b865550620006b4565b601f1984166200065d86620003f9565b60005b82811015620006875784890151825560018201915060208501945060208101905062000660565b86831015620006a75784890151620006a3601f89168262000597565b8355505b6001600288020188555050505b505050505050565b7f4e487b7100000000000000000000000000000000000000000000000000000000600052601160045260246000fd5b6000620006f88262000481565b9150620007058362000481565b925082820190508082111562000720576200071f620006bc565b5b92915050565b6080516153ef620007506000396000818161125d015281816115c00152612a0401526153ef6000f3fe6080604052600436106102ad5760003560e01c8063715018a611610175578063c733fe0d116100dc578063dc33e68111610095578063f058a4d11161006f578063f058a4d114610a52578063f2fde38b14610a8f578063f6d8853614610ab8578063fb5b82d014610acf576102ad565b8063dc33e681146109af578063dcc4d445146109ec578063e985e9c514610a15576102ad565b8063c733fe0d1461089f578063c87b56dd146108b6578063cc0c5236146108f3578063d5abeb0114610930578063d8ae7c9d1461095b578063da0239a614610984576102ad565b806395d89b411161012e57806395d89b411461079c578063a22cb465146107c7578063a58a426d146107f0578063a7c702131461081b578063acc34a3e14610846578063b88d4fde14610883576102ad565b8063715018a6146106c1578063787b9712146106d8578063826f79e414610701578063853828b61461072a5780638b4f6325146107345780638da5cb5b14610771576102ad565b806331b5b90711610219578063468409ce116101d2578063468409ce1461058d5780636352211e146105b65780636902e20d146105f35780636c0360eb1461061c5780636d632d891461064757806370a0823114610684576102ad565b806331b5b907146104a057806333a36007146104c9578063376dde7f146104f4578063376e1b1f1461051d57806337e49eed1461053457806342842e0e14610571576102ad565b8063095ea7b31161026b578063095ea7b3146103c25780630ff9cc6b146103de57806318160ddd1461040757806322d1464c1461043257806323b872dd1461045b5780632db5b8e714610477576102ad565b80627c3566146102b257806301ffc9a7146102c9578063022c01991461030657806306fdde031461031d57806307c3841d14610348578063081812fc14610385575b600080fd5b3480156102be57600080fd5b506102c7610af8565b005b3480156102d557600080fd5b506102f060048036038101906102eb9190613a21565b610d81565b6040516102fd9190613a69565b60405180910390f35b34801561031257600080fd5b5061031b610da6565b005b34801561032957600080fd5b5061033261102f565b60405161033f9190613b14565b60405180910390f35b34801561035457600080fd5b5061036f600480360381019061036a9190613b94565b6110c1565b60405161037c9190613bdd565b60405180910390f35b34801561039157600080fd5b506103ac60048036038101906103a79190613c2e565b611117565b6040516103b99190613c6a565b60405180910390f35b6103dc60048036038101906103d79190613c85565b611171565b005b3480156103ea57600080fd5b5061040560048036038101906104009190613d80565b611180565b005b34801561041357600080fd5b5061041c611256565b6040516104299190613e10565b60405180910390f35b34801561043e57600080fd5b5061045960048036038101906104549190613e2b565b61128b565b005b61047560048036038101906104709190613e78565b611339565b005b34801561048357600080fd5b5061049e60048036038101906104999190613ef7565b611481565b005b3480156104ac57600080fd5b506104c760048036038101906104c29190614054565b611774565b005b3480156104d557600080fd5b506104de61178f565b6040516104eb9190613e10565b60405180910390f35b34801561050057600080fd5b5061051b60048036038101906105169190613e2b565b611839565b005b34801561052957600080fd5b506105326118e7565b005b34801561054057600080fd5b5061055b60048036038101906105569190613b94565b611b70565b6040516105689190613bdd565b60405180910390f35b61058b60048036038101906105869190613e78565b611bc6565b005b34801561059957600080fd5b506105b460048036038101906105af9190613e2b565b611c00565b005b3480156105c257600080fd5b506105dd60048036038101906105d89190613c2e565b611cae565b6040516105ea9190613c6a565b60405180910390f35b3480156105ff57600080fd5b5061061a60048036038101906106159190613c2e565b611cd3565b005b34801561062857600080fd5b506106316120ed565b60405161063e9190613b14565b60405180910390f35b34801561065357600080fd5b5061066e60048036038101906106699190613b94565b61217b565b60405161067b9190613bdd565b60405180910390f35b34801561069057600080fd5b506106ab60048036038101906106a69190613b94565b6121d1565b6040516106b89190613e10565b60405180910390f35b3480156106cd57600080fd5b506106d6612221565b005b3480156106e457600080fd5b506106ff60048036038101906106fa9190613d80565b612235565b005b34801561070d57600080fd5b5061072860048036038101906107239190613e2b565b61230b565b005b6107326123b9565b005b34801561074057600080fd5b5061075b60048036038101906107569190613b94565b61242c565b6040516107689190613bdd565b60405180910390f35b34801561077d57600080fd5b50610786612482565b6040516107939190613c6a565b60405180910390f35b3480156107a857600080fd5b506107b16124ac565b6040516107be9190613b14565b60405180910390f35b3480156107d357600080fd5b506107ee60048036038101906107e991906140c9565b61253e565b005b3480156107fc57600080fd5b50610805612594565b6040516108129190613e10565b60405180910390f35b34801561082757600080fd5b506108306125a1565b60405161083d91906141c7565b60405180910390f35b34801561085257600080fd5b5061086d60048036038101906108689190613b94565b6125f9565b60405161087a9190613bdd565b60405180910390f35b61089d6004803603810190610898919061423f565b61264f565b005b3480156108ab57600080fd5b506108b46126c0565b005b3480156108c257600080fd5b506108dd60048036038101906108d89190613c2e565b612949565b6040516108ea9190613b14565b60405180910390f35b3480156108ff57600080fd5b5061091a60048036038101906109159190613c2e565b6129f0565b6040516109279190613a69565b60405180910390f35b34801561093c57600080fd5b50610945612a02565b6040516109529190613e10565b60405180910390f35b34801561096757600080fd5b50610982600480360381019061097d9190613e2b565b612a26565b005b34801561099057600080fd5b50610999612ad4565b6040516109a69190613e10565b60405180910390f35b3480156109bb57600080fd5b506109d660048036038101906109d19190613b94565b612ada565b6040516109e391906142e6565b60405180910390f35b3480156109f857600080fd5b50610a136004803603810190610a0e9190614357565b612b0e565b005b348015610a2157600080fd5b50610a3c6004803603810190610a3791906143a4565b612b70565b604051610a499190613a69565b60405180910390f35b348015610a5e57600080fd5b50610a796004803603810190610a749190613b94565b612b94565b604051610a869190613bdd565b60405180910390f35b348015610a9b57600080fd5b50610ab66004803603810190610ab19190613b94565b612bea565b005b348015610ac457600080fd5b50610acd612c6d565b005b348015610adb57600080fd5b50610af66004803603810190610af19190614422565b612ebd565b005b6008544210610b3c576040517f08c379a0000000000000000000000000000000000000000000000000000000008152600401610b339061449b565b60405180910390fd5b6000600e60003373ffffffffffffffffffffffffffffffffffffffff1673ffffffffffffffffffffffffffffffffffffffff16815260200190815260200160002060009054906101000a900460ff1660ff1611610bce576040517f08c379a0000000000000000000000000000000000000000000000000000000008152600401610bc590614507565b60405180910390fd5b60426001600760049054906101000a900461ffff16610bed9190614564565b61ffff161115610c32576040517f08c379a0000000000000000000000000000000000000000000000000000000008152600401610c29906145e6565b60405180910390fd5b6000600e60003373ffffffffffffffffffffffffffffffffffffffff1673ffffffffffffffffffffffffffffffffffffffff16815260200190815260200160002060006101000a81548160ff021916908360ff160217905550610ca933600d60009054906101000a900461ffff1661ffff16612f09565b3373ffffffffffffffffffffffffffffffffffffffff167ff70b403b1d50cef877cafdc0f6c3c47f58a42f1e5f5f17173f255ef7b00762a042600d60009054906101000a900461ffff16604051610d01929190614641565b60405180910390a2600d600081819054906101000a900461ffff1680929190610d299061466a565b91906101000a81548161ffff021916908361ffff160217905550506007600481819054906101000a900461ffff1680929190610d649061466a565b91906101000a81548161ffff021916908361ffff16021790555050565b60008160e01c635b5e139f81146380ac58cd82146301ffc9a783141717915050919050565b6008544210610dea576040517f08c379a0000000000000000000000000000000000000000000000000000000008152600401610de1906146e0565b60405180910390fd5b6000601260003373ffffffffffffffffffffffffffffffffffffffff1673ffffffffffffffffffffffffffffffffffffffff16815260200190815260200160002060009054906101000a900460ff1660ff1611610e7c576040517f08c379a0000000000000000000000000000000000000000000000000000000008152600401610e739061474c565b60405180910390fd5b600b6001600760089054906101000a900461ffff16610e9b9190614564565b61ffff161115610ee0576040517f08c379a0000000000000000000000000000000000000000000000000000000008152600401610ed7906147b8565b60405180910390fd5b6000601260003373ffffffffffffffffffffffffffffffffffffffff1673ffffffffffffffffffffffffffffffffffffffff16815260200190815260200160002060006101000a81548160ff021916908360ff160217905550610f5733601160009054906101000a900461ffff1661ffff16612f09565b3373ffffffffffffffffffffffffffffffffffffffff167f76f9e85ff7722d043b09d71ddb1f2e240963d9f9072c84082432fd9efd24677642601160009054906101000a900461ffff16604051610faf929190614641565b60405180910390a26011600081819054906101000a900461ffff1680929190610fd79061466a565b91906101000a81548161ffff021916908361ffff160217905550506007600881819054906101000a900461ffff16809291906110129061466a565b91906101000a81548161ffff021916908361ffff16021790555050565b60606002805461103e90614807565b80601f016020809104026020016040519081016040528092919081815260200182805461106a90614807565b80156110b75780601f1061108c576101008083540402835291602001916110b7565b820191906000526020600020905b81548152906001019060200180831161109a57829003601f168201915b5050505050905090565b6000600a60008373ffffffffffffffffffffffffffffffffffffffff1673ffffffffffffffffffffffffffffffffffffffff16815260200190815260200160002060009054906101000a900460ff169050919050565b6000816000527f7d8825530a5a2e7a000000000000000000000000000000000000000000000000601c52602060002082018201805460601b60601c6111645763ceea21b66000526004601cfd5b8060010154915050919050565b61117c338383612f27565b5050565b611188612fde565b60005b8484905081101561124f578282828181106111a9576111a8614838565b5b90506020020160208101906111be9190613ef7565b600a60008787858181106111d5576111d4614838565b5b90506020020160208101906111ea9190613b94565b73ffffffffffffffffffffffffffffffffffffffff1673ffffffffffffffffffffffffffffffffffffffff16815260200190815260200160002060006101000a81548160ff021916908360ff160217905550808061124790614867565b91505061118b565b5050505050565b60006005547f000000000000000000000000000000000000000000000000000000000000000061128691906148af565b905090565b611293612fde565b60005b82829050811015611334576001601060008585858181106112ba576112b9614838565b5b90506020020160208101906112cf9190613b94565b73ffffffffffffffffffffffffffffffffffffffff1673ffffffffffffffffffffffffffffffffffffffff16815260200190815260200160002060006101000a81548160ff021916908360ff160217905550808061132c90614867565b915050611296565b505050565b61134483838361305c565b60001960601c8381169350828116925081600052337f7d8825530a5a2e7a00000000000000000000000000000000000000000000000017601c52602060002082018201805480831686811481026113b657806113a85763ceea21b66000526004601cfd5b63a11481006000526004601cfd5b856113c95763ea553b346000526004601cfd5b866000528260010154803314883314176113f6576030600c20546113f557634b6e7f186000526004601cfd5b5b801561140457600084600101555b5085871882188355601c600c20600181540381555085600052601c600c20600181540163ffffffff8116611440576301336cea6000526004601cfd5b80825550508486887fddf252ad1be2c89b69c2b068fc378daa952ba7f163c4a11628f55a4df523b3ef600080a45050505061147c838383613061565b505050565b6000600a60003373ffffffffffffffffffffffffffffffffffffffff1673ffffffffffffffffffffffffffffffffffffffff16815260200190815260200160002060009054906101000a900460ff1660ff1611611513576040517f08c379a000000000000000000000000000000000000000000000000000000000815260040161150a9061474c565b60405180910390fd5b8060ff16600a60003373ffffffffffffffffffffffffffffffffffffffff1673ffffffffffffffffffffffffffffffffffffffff16815260200190815260200160002060009054906101000a900460ff1660ff1610156115a8576040517f08c379a000000000000000000000000000000000000000000000000000000000815260040161159f9061492f565b60405180910390fd5b8060ff166115b4611256565b6115be919061494f565b7f00000000000000000000000000000000000000000000000000000000000000001015611620576040517f08c379a0000000000000000000000000000000000000000000000000000000008152600401611617906149cf565b60405180910390fd5b60058160ff161115611667576040517f08c379a000000000000000000000000000000000000000000000000000000000815260040161165e90614a3b565b60405180910390fd5b80600a60003373ffffffffffffffffffffffffffffffffffffffff1673ffffffffffffffffffffffffffffffffffffffff16815260200190815260200160002060009054906101000a900460ff166116bf9190614a5b565b600a60003373ffffffffffffffffffffffffffffffffffffffff1673ffffffffffffffffffffffffffffffffffffffff16815260200190815260200160002060006101000a81548160ff021916908360ff160217905550611723338260ff16613066565b3373ffffffffffffffffffffffffffffffffffffffff167f30603f56befad35715d530ed1090c153118f6822d031c1e03fc5bc0e3f308089426040516117699190613e10565b60405180910390a250565b61177c612fde565b806006908161178b9190614c32565b5050565b60006007600a9054906101000a900461ffff1661ffff16600760089054906101000a900461ffff1661ffff16600760069054906101000a900461ffff1661ffff16600760049054906101000a900461ffff1661ffff16600760029054906101000a900461ffff1661ffff16611802611256565b61180c919061494f565b611816919061494f565b611820919061494f565b61182a919061494f565b611834919061494f565b905090565b611841612fde565b60005b828290508110156118e25760016016600085858581811061186857611867614838565b5b905060200201602081019061187d9190613b94565b73ffffffffffffffffffffffffffffffffffffffff1673ffffffffffffffffffffffffffffffffffffffff16815260200190815260200160002060006101000a81548160ff021916908360ff16021790555080806118da90614867565b915050611844565b505050565b600854421061192b576040517f08c379a000000000000000000000000000000000000000000000000000000000815260040161192290614d50565b60405180910390fd5b6000601060003373ffffffffffffffffffffffffffffffffffffffff1673ffffffffffffffffffffffffffffffffffffffff16815260200190815260200160002060009054906101000a900460ff1660ff16116119bd576040517f08c379a00000000000000000000000000000000000000000000000000000000081526004016119b490614507565b60405180910390fd5b60246001600760069054906101000a900461ffff166119dc9190614564565b61ffff161115611a21576040517f08c379a0000000000000000000000000000000000000000000000000000000008152600401611a1890614dbc565b60405180910390fd5b6000601060003373ffffffffffffffffffffffffffffffffffffffff1673ffffffffffffffffffffffffffffffffffffffff16815260200190815260200160002060006101000a81548160ff021916908360ff160217905550611a9833600f60009054906101000a900461ffff1661ffff16612f09565b3373ffffffffffffffffffffffffffffffffffffffff167f3068eb10a9f5bc0a2d97cbc29c967a612136c9d03efe312432d0cff3ece88d5542600f60009054906101000a900461ffff16604051611af0929190614641565b60405180910390a2600f600081819054906101000a900461ffff1680929190611b189061466a565b91906101000a81548161ffff021916908361ffff160217905550506007600681819054906101000a900461ffff1680929190611b539061466a565b91906101000a81548161ffff021916908361ffff16021790555050565b6000600e60008373ffffffffffffffffffffffffffffffffffffffff1673ffffffffffffffffffffffffffffffffffffffff16815260200190815260200160002060009054906101000a900460ff169050919050565b611bd1838383611339565b611bda826131f1565b15611bfb57611bfa838383604051806020016040528060008152506131fc565b5b505050565b611c08612fde565b60005b82829050811015611ca9576001600e6000858585818110611c2f57611c2e614838565b5b9050602002016020810190611c449190613b94565b73ffffffffffffffffffffffffffffffffffffffff1673ffffffffffffffffffffffffffffffffffffffff16815260200190815260200160002060006101000a81548160ff021916908360ff1602179055508080611ca190614867565b915050611c0b565b505050565b6000611cb98261328e565b905080611cce5763ceea21b66000526004601cfd5b919050565b6008544210611d17576040517f08c379a0000000000000000000000000000000000000000000000000000000008152600401611d0e90614e28565b60405180910390fd5b6000600c60003373ffffffffffffffffffffffffffffffffffffffff1673ffffffffffffffffffffffffffffffffffffffff16815260200190815260200160002060009054906101000a900460ff1660ff1611611da9576040517f08c379a0000000000000000000000000000000000000000000000000000000008152600401611da09061474c565b60405180910390fd5b80600c60003373ffffffffffffffffffffffffffffffffffffffff1673ffffffffffffffffffffffffffffffffffffffff16815260200190815260200160002060009054906101000a900460ff1660ff161015611e3b576040517f08c379a0000000000000000000000000000000000000000000000000000000008152600401611e329061492f565b60405180910390fd5b6101316001600760029054906101000a900461ffff16611e5b9190614564565b61ffff161115611ea0576040517f08c379a0000000000000000000000000000000000000000000000000000000008152600401611e9790614e94565b60405180910390fd5b6005811115611ee4576040517f08c379a0000000000000000000000000000000000000000000000000000000008152600401611edb90614a3b565b60405180910390fd5b60008167ffffffffffffffff811115611f0057611eff613f29565b5b604051908082528060200260200182016040528015611f2e5781602001602082028036833780820191505090505b50905060005b828163ffffffff16101561209857600c60003373ffffffffffffffffffffffffffffffffffffffff1673ffffffffffffffffffffffffffffffffffffffff168152602001908152602001600020600081819054906101000a900460ff1680929190611f9e90614eb4565b91906101000a81548160ff021916908360ff16021790555050611fd533600b60009054906101000a900461ffff1661ffff16612f09565b600b60009054906101000a900461ffff1661ffff16828263ffffffff168151811061200357612002614838565b5b602002602001018181525050600b600081819054906101000a900461ffff168092919061202f9061466a565b91906101000a81548161ffff021916908361ffff160217905550506007600281819054906101000a900461ffff168092919061206a9061466a565b91906101000a81548161ffff021916908361ffff16021790555050808061209090614edd565b915050611f34565b503373ffffffffffffffffffffffffffffffffffffffff167f925a1c03df0f625e3645b782d2a6fc1ccee76de332fba5dc74ad672526a0d39942836040516120e1929190614f09565b60405180910390a25050565b600680546120fa90614807565b80601f016020809104026020016040519081016040528092919081815260200182805461212690614807565b80156121735780601f1061214857610100808354040283529160200191612173565b820191906000526020600020905b81548152906001019060200180831161215657829003601f168201915b505050505081565b6000601460008373ffffffffffffffffffffffffffffffffffffffff1673ffffffffffffffffffffffffffffffffffffffff16815260200190815260200160002060009054906101000a900460ff169050919050565b6000816121e657638f4eb6046000526004601cfd5b7f7d8825530a5a2e7a000000000000000000000000000000000000000000000000601c528160005263ffffffff601c600c2054169050919050565b612229612fde565b61223360006132cf565b565b61223d612fde565b60005b848490508110156123045782828281811061225e5761225d614838565b5b90506020020160208101906122739190613ef7565b600c600087878581811061228a57612289614838565b5b905060200201602081019061229f9190613b94565b73ffffffffffffffffffffffffffffffffffffffff1673ffffffffffffffffffffffffffffffffffffffff16815260200190815260200160002060006101000a81548160ff021916908360ff16021790555080806122fc90614867565b915050612240565b5050505050565b612313612fde565b60005b828290508110156123b45760016014600085858581811061233a57612339614838565b5b905060200201602081019061234f9190613b94565b73ffffffffffffffffffffffffffffffffffffffff1673ffffffffffffffffffffffffffffffffffffffff16815260200190815260200160002060006101000a81548160ff021916908360ff16021790555080806123ac90614867565b915050612316565b505050565b6123c1612fde565b600960009054906101000a900473ffffffffffffffffffffffffffffffffffffffff1673ffffffffffffffffffffffffffffffffffffffff166108fc479081150290604051600060405180830381858888f19350505050158015612429573d6000803e3d6000fd5b50565b6000600c60008373ffffffffffffffffffffffffffffffffffffffff1673ffffffffffffffffffffffffffffffffffffffff16815260200190815260200160002060009054906101000a900460ff169050919050565b6000600160009054906101000a900473ffffffffffffffffffffffffffffffffffffffff16905090565b6060600380546124bb90614807565b80601f01602080910402602001604051908101604052809291908181526020018280546124e790614807565b80156125345780601f1061250957610100808354040283529160200191612534565b820191906000526020600020905b81548152906001019060200180831161251757829003601f168201915b5050505050905090565b801515905081601c52670a5a2e7a0000000060085233600052806030600c2055806000528160601b60601c337f17307eab39ab6107e8899845ad3d59bd9653f200f220920489ca2b5937696c3160206000a35050565b6000601780549050905090565b606060178054806020026020016040519081016040528092919081815260200182805480156125ef57602002820191906000526020600020905b8154815260200190600101908083116125db575b5050505050905090565b6000601060008373ffffffffffffffffffffffffffffffffffffffff1673ffffffffffffffffffffffffffffffffffffffff16815260200190815260200160002060009054906101000a900460ff169050919050565b61265a858585611339565b612663846131f1565b156126b9576126b885858585858080601f016020809104026020016040519081016040528093929190818152602001838380828437600081840152601f19601f820116905080830192505050505050506131fc565b5b5050505050565b6008544210612704576040517f08c379a00000000000000000000000000000000000000000000000000000000081526004016126fb90614f85565b60405180910390fd5b6000601460003373ffffffffffffffffffffffffffffffffffffffff1673ffffffffffffffffffffffffffffffffffffffff16815260200190815260200160002060009054906101000a900460ff1660ff1611612796576040517f08c379a000000000000000000000000000000000000000000000000000000000815260040161278d90614507565b60405180910390fd5b600a60016007600a9054906101000a900461ffff166127b59190614564565b61ffff1611156127fa576040517f08c379a00000000000000000000000000000000000000000000000000000000081526004016127f190614ff1565b60405180910390fd5b6000601460003373ffffffffffffffffffffffffffffffffffffffff1673ffffffffffffffffffffffffffffffffffffffff16815260200190815260200160002060006101000a81548160ff021916908360ff16021790555061287133601360009054906101000a900461ffff1661ffff16612f09565b3373ffffffffffffffffffffffffffffffffffffffff167f11f17ae42a0904709076e999b53fe5d9a2094552d1e26167334b0a1df43db8bd42601360009054906101000a900461ffff166040516128c9929190614641565b60405180910390a26013600081819054906101000a900461ffff16809291906128f19061466a565b91906101000a81548161ffff021916908361ffff160217905550506007600a81819054906101000a900461ffff168092919061292c9061466a565b91906101000a81548161ffff021916908361ffff16021790555050565b606061295482613395565b612993576040517f08c379a000000000000000000000000000000000000000000000000000000000815260040161298a9061505d565b60405180910390fd5b600061299d6133d3565b905060008151116129bd57604051806020016040528060008152506129e8565b806129c784613465565b6040516020016129d89291906150b9565b6040516020818303038152906040525b915050919050565b60006129fb82613395565b9050919050565b7f000000000000000000000000000000000000000000000000000000000000000081565b612a2e612fde565b60005b82829050811015612acf57600160126000858585818110612a5557612a54614838565b5b9050602002016020810190612a6a9190613b94565b73ffffffffffffffffffffffffffffffffffffffff1673ffffffffffffffffffffffffffffffffffffffff16815260200190815260200160002060006101000a81548160ff021916908360ff1602179055508080612ac790614867565b915050612a31565b505050565b60055481565b600060c0612ae783613533565b7bffffffffffffffffffffffffffffffffffffffffffffffffffffffff16901c9050919050565b612b16612fde565b6008544211612b5a576040517f08c379a0000000000000000000000000000000000000000000000000000000008152600401612b5190615129565b60405180910390fd5b818160179190612b6b92919061394b565b505050565b600081601c52670a5a2e7a00000000600852826000526030600c2054905092915050565b6000601260008373ffffffffffffffffffffffffffffffffffffffff1673ffffffffffffffffffffffffffffffffffffffff16815260200190815260200160002060009054906101000a900460ff169050919050565b612bf2612fde565b600073ffffffffffffffffffffffffffffffffffffffff168173ffffffffffffffffffffffffffffffffffffffff1603612c61576040517f08c379a0000000000000000000000000000000000000000000000000000000008152600401612c58906151bb565b60405180910390fd5b612c6a816132cf565b50565b6000601660003373ffffffffffffffffffffffffffffffffffffffff1673ffffffffffffffffffffffffffffffffffffffff16815260200190815260200160002060009054906101000a900460ff1660ff1611612cff576040517f08c379a0000000000000000000000000000000000000000000000000000000008152600401612cf690614507565b60405180910390fd5b6001612d0961178f565b612d13919061494f565b600760009054906101000a900461ffff1661ffff161015612d69576040517f08c379a0000000000000000000000000000000000000000000000000000000008152600401612d6090615227565b60405180910390fd5b6000601660003373ffffffffffffffffffffffffffffffffffffffff1673ffffffffffffffffffffffffffffffffffffffff16815260200190815260200160002060006101000a81548160ff021916908360ff160217905550612dfe336017601560009054906101000a900461ffff1661ffff1681548110612dee57612ded614838565b5b9060005260206000200154612f09565b3373ffffffffffffffffffffffffffffffffffffffff167fa72aa19bfd87e001e03ac6bf966e0f914e84e90c84f842017e87ffc32547505f426017601560009054906101000a900461ffff1661ffff1681548110612e5f57612e5e614838565b5b9060005260206000200154604051612e78929190615247565b60405180910390a26015600081819054906101000a900461ffff1680929190612ea09061466a565b91906101000a81548161ffff021916908361ffff16021790555050565b612ec5612fde565b80600960006101000a81548173ffffffffffffffffffffffffffffffffffffffff021916908373ffffffffffffffffffffffffffffffffffffffff16021790555050565b612f2382826040518060200160405280600081525061356d565b5050565b60001960601c8281169250838116935081600052837f7d8825530a5a2e7a00000000000000000000000000000000000000000000000017601c526020600020820182018054821680612f815763ceea21b66000526004601cfd5b808614861517612fa857806000526030600c2054612fa757634b6e7f186000526004601cfd5b5b8482600101558385827f8c5be1e5ebec7d5bd14f71427d1e84f3dd0314c0f7b2291e5b200ac8c7c3b925600080a4505050505050565b612fe6613598565b73ffffffffffffffffffffffffffffffffffffffff16613004612482565b73ffffffffffffffffffffffffffffffffffffffff161461305a576040517f08c379a0000000000000000000000000000000000000000000000000000000008152600401613051906152bc565b60405180910390fd5b565b505050565b505050565b3273ffffffffffffffffffffffffffffffffffffffff163373ffffffffffffffffffffffffffffffffffffffff16146130cb576040517fd9d552c900000000000000000000000000000000000000000000000000000000815260040160405180910390fd5b60008103613105576040517f4600cfe900000000000000000000000000000000000000000000000000000000815260040160405180910390fd5b806005541015613141576040517f7775abdd00000000000000000000000000000000000000000000000000000000815260040160405180910390fd5b6000604051806020016040528042446040516020016131619291906152fd565b6040516020818303038152906040528051906020012060001c81525090506000600554905060005b838110156131d95760006131a683856135a090919063ffffffff16565b905060006131b482856135cb565b90506131c08782613677565b836131ca90615329565b93508260010192505050613189565b506131e48484613755565b8060058190555050505050565b6000813b9050919050565b60405163150b7a028082523360208301528560601b60601c604083015283606083015260808083015282518060a08401528015613243578060c08401826020870160045afa505b60208360a48301601c860160008a5af161326c573d15613267573d6000803e3d6000fd5b600083525b8160e01b8351146132855763d1a57ed66000526004601cfd5b50505050505050565b6000816000527f7d8825530a5a2e7a000000000000000000000000000000000000000000000000601c526020600020820182015460601b60601c9050919050565b6000600160009054906101000a900473ffffffffffffffffffffffffffffffffffffffff16905081600160006101000a81548173ffffffffffffffffffffffffffffffffffffffff021916908373ffffffffffffffffffffffffffffffffffffffff1602179055508173ffffffffffffffffffffffffffffffffffffffff168173ffffffffffffffffffffffffffffffffffffffff167f8be0079c531659141344cd1fd0a4f28419497f9722a3daafe3b4186f6b6457e060405160405180910390a35050565b6000816000527f7d8825530a5a2e7a000000000000000000000000000000000000000000000000601c526020600020820182015460601b9050919050565b6060600680546133e290614807565b80601f016020809104026020016040519081016040528092919081815260200182805461340e90614807565b801561345b5780601f106134305761010080835404028352916020019161345b565b820191906000526020600020905b81548152906001019060200180831161343e57829003601f168201915b5050505050905090565b606060006001613474846137b6565b01905060008167ffffffffffffffff81111561349357613492613f29565b5b6040519080825280601f01601f1916602001820160405280156134c55781602001600182028036833780820191505090505b509050600082602001820190505b600115613528578080600190039150507f3031323334353637383961626364656600000000000000000000000000000000600a86061a8153600a858161351c5761351b615352565b5b049450600085036134d3575b819350505050919050565b60007f7d8825530a5a2e7a000000000000000000000000000000000000000000000000601c5281600052601c600c205460201c9050919050565b6135778383613677565b613580836131f1565b156135935761359260008484846131fc565b5b505050565b600033905090565b60005b6001156135c05760208320905080835281826000030681106135a3575b818106905092915050565b6000806004600085815260200190815260200160002054905060006001846135f391906148af565b90506000600460008381526020019081526020016000205490506000831461361b578261361d565b855b935081861461364e57600081146136345780613636565b815b60046000888152602001908152602001600020819055505b6000811461366e5760046000838152602001908152602001600020600090555b50505092915050565b6136836000838361305c565b8160601b60601c91508161369f5763ea553b346000526004601cfd5b806000527f7d8825530a5a2e7a000000000000000000000000000000000000000000000000601c5260206000208101810180548060601b156136e95763c991cbb16000526004601cfd5b838117825583600052601c600c20600181540163ffffffff8116613715576301336cea6000526004601cfd5b8082555050828460007fddf252ad1be2c89b69c2b068fc378daa952ba7f163c4a11628f55a4df523b3ef600080a4505061375160008383613061565b5050565b600061376083612ada565b9050600082826137709190615381565b9050600061377d85613533565b90506137af858277ffffffffffffffffffffffffffffffffffffffffffffffff1660c08563ffffffff16901b17613909565b5050505050565b600080600090507a184f03e93ff9f4daa797ed6e38ed64bf6a1f0100000000000000008310613814577a184f03e93ff9f4daa797ed6e38ed64bf6a1f010000000000000000838161380a57613809615352565b5b0492506040810190505b6d04ee2d6d415b85acef81000000008310613851576d04ee2d6d415b85acef8100000000838161384757613846615352565b5b0492506020810190505b662386f26fc10000831061388057662386f26fc10000838161387657613875615352565b5b0492506010810190505b6305f5e10083106138a9576305f5e100838161389f5761389e615352565b5b0492506008810190505b61271083106138ce5761271083816138c4576138c3615352565b5b0492506004810190505b606483106138f157606483816138e7576138e6615352565b5b0492506002810190505b600a8310613900576001810190505b80915050919050565b7f7d8825530a5a2e7a000000000000000000000000000000000000000000000000601c5281600052601c600c2080548060201c831860201b8118825550505050565b828054828255906000526020600020908101928215613987579160200282015b8281111561398657823582559160200191906001019061396b565b5b5090506139949190613998565b5090565b5b808211156139b1576000816000905550600101613999565b5090565b6000604051905090565b600080fd5b600080fd5b60007fffffffff0000000000000000000000000000000000000000000000000000000082169050919050565b6139fe816139c9565b8114613a0957600080fd5b50565b600081359050613a1b816139f5565b92915050565b600060208284031215613a3757613a366139bf565b5b6000613a4584828501613a0c565b91505092915050565b60008115159050919050565b613a6381613a4e565b82525050565b6000602082019050613a7e6000830184613a5a565b92915050565b600081519050919050565b600082825260208201905092915050565b60005b83811015613abe578082015181840152602081019050613aa3565b60008484015250505050565b6000601f19601f8301169050919050565b6000613ae682613a84565b613af08185613a8f565b9350613b00818560208601613aa0565b613b0981613aca565b840191505092915050565b60006020820190508181036000830152613b2e8184613adb565b905092915050565b600073ffffffffffffffffffffffffffffffffffffffff82169050919050565b6000613b6182613b36565b9050919050565b613b7181613b56565b8114613b7c57600080fd5b50565b600081359050613b8e81613b68565b92915050565b600060208284031215613baa57613ba96139bf565b5b6000613bb884828501613b7f565b91505092915050565b600060ff82169050919050565b613bd781613bc1565b82525050565b6000602082019050613bf26000830184613bce565b92915050565b6000819050919050565b613c0b81613bf8565b8114613c1657600080fd5b50565b600081359050613c2881613c02565b92915050565b600060208284031215613c4457613c436139bf565b5b6000613c5284828501613c19565b91505092915050565b613c6481613b56565b82525050565b6000602082019050613c7f6000830184613c5b565b92915050565b60008060408385031215613c9c57613c9b6139bf565b5b6000613caa85828601613b7f565b9250506020613cbb85828601613c19565b9150509250929050565b600080fd5b600080fd5b600080fd5b60008083601f840112613cea57613ce9613cc5565b5b8235905067ffffffffffffffff811115613d0757613d06613cca565b5b602083019150836020820283011115613d2357613d22613ccf565b5b9250929050565b60008083601f840112613d4057613d3f613cc5565b5b8235905067ffffffffffffffff811115613d5d57613d5c613cca565b5b602083019150836020820283011115613d7957613d78613ccf565b5b9250929050565b60008060008060408587031215613d9a57613d996139bf565b5b600085013567ffffffffffffffff811115613db857613db76139c4565b5b613dc487828801613cd4565b9450945050602085013567ffffffffffffffff811115613de757613de66139c4565b5b613df387828801613d2a565b925092505092959194509250565b613e0a81613bf8565b82525050565b6000602082019050613e256000830184613e01565b92915050565b60008060208385031215613e4257613e416139bf565b5b600083013567ffffffffffffffff811115613e6057613e5f6139c4565b5b613e6c85828601613cd4565b92509250509250929050565b600080600060608486031215613e9157613e906139bf565b5b6000613e9f86828701613b7f565b9350506020613eb086828701613b7f565b9250506040613ec186828701613c19565b9150509250925092565b613ed481613bc1565b8114613edf57600080fd5b50565b600081359050613ef181613ecb565b92915050565b600060208284031215613f0d57613f0c6139bf565b5b6000613f1b84828501613ee2565b91505092915050565b600080fd5b7f4e487b7100000000000000000000000000000000000000000000000000000000600052604160045260246000fd5b613f6182613aca565b810181811067ffffffffffffffff82111715613f8057613f7f613f29565b5b80604052505050565b6000613f936139b5565b9050613f9f8282613f58565b919050565b600067ffffffffffffffff821115613fbf57613fbe613f29565b5b613fc882613aca565b9050602081019050919050565b82818337600083830152505050565b6000613ff7613ff284613fa4565b613f89565b90508281526020810184848401111561401357614012613f24565b5b61401e848285613fd5565b509392505050565b600082601f83011261403b5761403a613cc5565b5b813561404b848260208601613fe4565b91505092915050565b60006020828403121561406a576140696139bf565b5b600082013567ffffffffffffffff811115614088576140876139c4565b5b61409484828501614026565b91505092915050565b6140a681613a4e565b81146140b157600080fd5b50565b6000813590506140c38161409d565b92915050565b600080604083850312156140e0576140df6139bf565b5b60006140ee85828601613b7f565b92505060206140ff858286016140b4565b9150509250929050565b600081519050919050565b600082825260208201905092915050565b6000819050602082019050919050565b61413e81613bf8565b82525050565b60006141508383614135565b60208301905092915050565b6000602082019050919050565b600061417482614109565b61417e8185614114565b935061418983614125565b8060005b838110156141ba5781516141a18882614144565b97506141ac8361415c565b92505060018101905061418d565b5085935050505092915050565b600060208201905081810360008301526141e18184614169565b905092915050565b60008083601f8401126141ff576141fe613cc5565b5b8235905067ffffffffffffffff81111561421c5761421b613cca565b5b60208301915083600182028301111561423857614237613ccf565b5b9250929050565b60008060008060006080868803121561425b5761425a6139bf565b5b600061426988828901613b7f565b955050602061427a88828901613b7f565b945050604061428b88828901613c19565b935050606086013567ffffffffffffffff8111156142ac576142ab6139c4565b5b6142b8888289016141e9565b92509250509295509295909350565b600063ffffffff82169050919050565b6142e0816142c7565b82525050565b60006020820190506142fb60008301846142d7565b92915050565b60008083601f84011261431757614316613cc5565b5b8235905067ffffffffffffffff81111561433457614333613cca565b5b6020830191508360208202830111156143505761434f613ccf565b5b9250929050565b6000806020838503121561436e5761436d6139bf565b5b600083013567ffffffffffffffff81111561438c5761438b6139c4565b5b61439885828601614301565b92509250509250929050565b600080604083850312156143bb576143ba6139bf565b5b60006143c985828601613b7f565b92505060206143da85828601613b7f565b9150509250929050565b60006143ef82613b36565b9050919050565b6143ff816143e4565b811461440a57600080fd5b50565b60008135905061441c816143f6565b92915050565b600060208284031215614438576144376139bf565b5b60006144468482850161440d565b91505092915050565b7f486f6e6f72617279206d696e7420636c6f736500000000000000000000000000600082015250565b6000614485601383613a8f565b91506144908261444f565b602082019050919050565b600060208201905081810360008301526144b481614478565b9050919050565b7f4e6f206769766577617900000000000000000000000000000000000000000000600082015250565b60006144f1600a83613a8f565b91506144fc826144bb565b602082019050919050565b60006020820190508181036000830152614520816144e4565b9050919050565b600061ffff82169050919050565b7f4e487b7100000000000000000000000000000000000000000000000000000000600052601160045260246000fd5b600061456f82614527565b915061457a83614527565b9250828201905061ffff81111561459457614593614535565b5b92915050565b7f4d617820737570706c7920686f6e6f7261727920657863656564000000000000600082015250565b60006145d0601a83613a8f565b91506145db8261459a565b602082019050919050565b600060208201905081810360008301526145ff816145c3565b9050919050565b6000819050919050565b600061462b61462661462184614527565b614606565b613bf8565b9050919050565b61463b81614610565b82525050565b60006040820190506146566000830185613e01565b6146636020830184614632565b9392505050565b600061467582614527565b915061ffff820361468957614688614535565b5b600182019050919050565b7f4a75646765206d696e7420636c6f736500000000000000000000000000000000600082015250565b60006146ca601083613a8f565b91506146d582614694565b602082019050919050565b600060208201905081810360008301526146f9816146bd565b9050919050565b7f4e6f7420656c696769626c650000000000000000000000000000000000000000600082015250565b6000614736600c83613a8f565b915061474182614700565b602082019050919050565b6000602082019050818103600083015261476581614729565b9050919050565b7f4d617820737570706c79206a7564676520657863656564000000000000000000600082015250565b60006147a2601783613a8f565b91506147ad8261476c565b602082019050919050565b600060208201905081810360008301526147d181614795565b9050919050565b7f4e487b7100000000000000000000000000000000000000000000000000000000600052602260045260246000fd5b6000600282049050600182168061481f57607f821691505b602082108103614832576148316147d8565b5b50919050565b7f4e487b7100000000000000000000000000000000000000000000000000000000600052603260045260246000fd5b600061487282613bf8565b91507fffffffffffffffffffffffffffffffffffffffffffffffffffffffffffffffff82036148a4576148a3614535565b5b600182019050919050565b60006148ba82613bf8565b91506148c583613bf8565b92508282039050818111156148dd576148dc614535565b5b92915050565b7f4e6f7420656e6f75676820636c61696d61626c6520746f6b656e730000000000600082015250565b6000614919601b83613a8f565b9150614924826148e3565b602082019050919050565b600060208201905081810360008301526149488161490c565b9050919050565b600061495a82613bf8565b915061496583613bf8565b925082820190508082111561497d5761497c614535565b5b92915050565b7f537570706c79206c696d69742065786565647800000000000000000000000000600082015250565b60006149b9601383613a8f565b91506149c482614983565b602082019050919050565b600060208201905081810360008301526149e8816149ac565b9050919050565b7f4c696d6974206d61780000000000000000000000000000000000000000000000600082015250565b6000614a25600983613a8f565b9150614a30826149ef565b602082019050919050565b60006020820190508181036000830152614a5481614a18565b9050919050565b6000614a6682613bc1565b9150614a7183613bc1565b9250828203905060ff811115614a8a57614a89614535565b5b92915050565b60008190508160005260206000209050919050565b60006020601f8301049050919050565b600082821b905092915050565b600060088302614af27fffffffffffffffffffffffffffffffffffffffffffffffffffffffffffffffff82614ab5565b614afc8683614ab5565b95508019841693508086168417925050509392505050565b6000614b2f614b2a614b2584613bf8565b614606565b613bf8565b9050919050565b6000819050919050565b614b4983614b14565b614b5d614b5582614b36565b848454614ac2565b825550505050565b600090565b614b72614b65565b614b7d818484614b40565b505050565b5b81811015614ba157614b96600082614b6a565b600181019050614b83565b5050565b601f821115614be657614bb781614a90565b614bc084614aa5565b81016020851015614bcf578190505b614be3614bdb85614aa5565b830182614b82565b50505b505050565b600082821c905092915050565b6000614c0960001984600802614beb565b1980831691505092915050565b6000614c228383614bf8565b9150826002028217905092915050565b614c3b82613a84565b67ffffffffffffffff811115614c5457614c53613f29565b5b614c5e8254614807565b614c69828285614ba5565b600060209050601f831160018114614c9c5760008415614c8a578287015190505b614c948582614c16565b865550614cfc565b601f198416614caa86614a90565b60005b82811015614cd257848901518255600182019150602085019450602081019050614cad565b86831015614cef5784890151614ceb601f891682614bf8565b8355505b6001600288020188555050505b505050505050565b7f477561726469616e206d696e7420636c6f736500000000000000000000000000600082015250565b6000614d3a601383613a8f565b9150614d4582614d04565b602082019050919050565b60006020820190508181036000830152614d6981614d2d565b9050919050565b7f4d617820737570706c7920677561726469616e20657863656564000000000000600082015250565b6000614da6601a83613a8f565b9150614db182614d70565b602082019050919050565b60006020820190508181036000830152614dd581614d99565b9050919050565b7f436f756e63696c206d696e7420636c6f73650000000000000000000000000000600082015250565b6000614e12601283613a8f565b9150614e1d82614ddc565b602082019050919050565b60006020820190508181036000830152614e4181614e05565b9050919050565b7f4d617820737570706c7920636f756e63696c2065786365656400000000000000600082015250565b6000614e7e601983613a8f565b9150614e8982614e48565b602082019050919050565b60006020820190508181036000830152614ead81614e71565b9050919050565b6000614ebf82613bc1565b915060008203614ed257614ed1614535565b5b600182039050919050565b6000614ee8826142c7565b915063ffffffff8203614efe57614efd614535565b5b600182019050919050565b6000604082019050614f1e6000830185613e01565b8181036020830152614f308184614169565b90509392505050565b7f5768616c65206d696e7420636c6f736500000000000000000000000000000000600082015250565b6000614f6f601083613a8f565b9150614f7a82614f39565b602082019050919050565b60006020820190508181036000830152614f9e81614f62565b9050919050565b7f4d617820737570706c79207768616c6520657863656564000000000000000000600082015250565b6000614fdb601783613a8f565b9150614fe682614fa5565b602082019050919050565b6000602082019050818103600083015261500a81614fce565b9050919050565b7f756e6b6e6f7720746f6b656e0000000000000000000000000000000000000000600082015250565b6000615047600c83613a8f565b915061505282615011565b602082019050919050565b600060208201905081810360008301526150768161503a565b9050919050565b600081905092915050565b600061509382613a84565b61509d818561507d565b93506150ad818560208601613aa0565b80840191505092915050565b60006150c58285615088565b91506150d18284615088565b91508190509392505050565b7f47697665776179206e6f74206163746976617465000000000000000000000000600082015250565b6000615113601483613a8f565b915061511e826150dd565b602082019050919050565b6000602082019050818103600083015261514281615106565b9050919050565b7f4f776e61626c653a206e6577206f776e657220697320746865207a65726f206160008201527f6464726573730000000000000000000000000000000000000000000000000000602082015250565b60006151a5602683613a8f565b91506151b082615149565b604082019050919050565b600060208201905081810360008301526151d481615198565b9050919050565b7f4d617820737570706c7920657863656564000000000000000000000000000000600082015250565b6000615211601183613a8f565b915061521c826151db565b602082019050919050565b6000602082019050818103600083015261524081615204565b9050919050565b600060408201905061525c6000830185613e01565b6152696020830184613e01565b9392505050565b7f4f776e61626c653a2063616c6c6572206973206e6f7420746865206f776e6572600082015250565b60006152a6602083613a8f565b91506152b182615270565b602082019050919050565b600060208201905081810360008301526152d581615299565b9050919050565b6000819050919050565b6152f76152f282613bf8565b6152dc565b82525050565b600061530982856152e6565b60208201915061531982846152e6565b6020820191508190509392505050565b600061533482613bf8565b91506000820361534757615346614535565b5b600182039050919050565b7f4e487b7100000000000000000000000000000000000000000000000000000000600052601260045260246000fd5b600061538c826142c7565b9150615397836142c7565b9250828201905063ffffffff8111156153b3576153b2614535565b5b9291505056fea26469706673582212200125719a908520fb9983109bce099a4239f521d2d9717b2269c0fbf2f997b04364736f6c63430008130033",
  "immutableReferences": {
    "1972": [
      {
        "length": 32,
        "start": 4701
      },
      {
        "length": 32,
        "start": 5568
      },
      {
        "length": 32,
        "start": 10756
      }
    ]
  },
  "source": "// SPDX-License-Identifier: MIT\npragma solidity 0.8.19;\n\nimport \"@openzeppelin/contracts/utils/Strings.sol\";\nimport \"@openzeppelin/contracts/access/Ownable.sol\";\nimport \"@openzeppelin/contracts/security/ReentrancyGuard.sol\";\nimport \"./ERC721r.sol\";\n\ncontract MetaLifeOgPets is ReentrancyGuard, Ownable, ERC721r {\n\n  using Strings for uint256;\n  string public baseURI;                              // PUBLIC\n  uint16 private mainMaxSupply = 1500;                // PRIVATE\n\n  uint16 private nbMintedCouncil = 0;\n  uint16 private nbMintedHonorary = 0;\n  uint16 private nbMintedGuardian = 0;\n  uint16 private nbMintedJudge = 0;\n  uint16 private nbMintedWhale = 0;\n\n  uint256 private limitMintSpecific = 0;\n  address payable private collector;\n  uint16 private _tokenIdCurrentRandom = 1;       // VAR AND EVENT BY MINT\n  mapping(address => uint8) private addressesRandom;\n  event MintedRandom(address indexed from, uint256 timestamp);\n  uint16 private _tokenIdCurrentCouncil = 1073;\n  mapping(address => uint8) private addressesCouncil;\n  event MintedCouncil(address indexed from, uint256 timestamp, uint256[] tokenIds);\n  uint16 private _tokenIdCurrentHonorary = 1378;\n  mapping(address => uint8) private addressesHonorary;\n  event MintedHonorary(address indexed from, uint256 timestamp, uint256 tokenId);\n  uint16 private _tokenIdCurrentGuardian = 1444;\n  mapping(address => uint8) private addressesGuardian;\n  event MintedGuardian(address indexed from, uint256 timestamp, uint256 tokenId);\n  uint16 private _tokenIdCurrentJudge = 1480;\n  mapping(address => uint8) private addressesJudge;\n  event MintedJudge(address indexed from, uint256 timestamp, uint256 tokenId);\n  uint16 private _tokenIdCurrentWhale = 1491;\n  mapping(address => uint8) private addressesWhale;\n  event MintedWhale(address indexed from, uint256 timestamp, uint256 tokenId);\n\n  uint16 private tokenGivewayIndex = 0;\n  mapping(address => uint8) private addressesGiveway;\n  uint256[] private tokenAvailables;\n  event MintedGiveway(address indexed from, uint256 timestamp, uint256 tokenId);\n\n  constructor() ERC721r('MetaLife OG Pets', 'MLP', 10_72){\n    limitMintSpecific = block.timestamp + ((365/2) * 24 * 60 * 60);\n  }\n\n  function withdrawAll() public payable onlyOwner {\n    collector.transfer(address(this).balance);\n  }\n\n  function setCollector(address payable _newCollector) public onlyOwner {\n    collector = _newCollector;\n  }\n\n  function _setBaseURI(string memory _newBaseURI) public onlyOwner {\n    baseURI = _newBaseURI;\n  }\n\n  function _baseURI() internal view virtual returns (string memory) {\n    return baseURI;\n  }\n\n  function tokenURI(uint256 tokenId) public view virtual override returns (string memory) {\n    require(_exists(tokenId), 'unknow token');\n\n    string memory uri = _baseURI();\n    return bytes(uri).length > 0 ? string(abi.encodePacked(uri, tokenId.toString())) : \"\";\n  }\n\n  function addAddressesRandom(address[] calldata _toAddAddresses, uint8[] calldata _quantities) external onlyOwner {\n    for (uint i = 0; i < _toAddAddresses.length; i++) {\n      addressesRandom[_toAddAddresses[i]] = _quantities[i];\n    }\n  }\n\n  function addAddressesCouncil(address[] calldata _toAddAddresses, uint8[] calldata _quantities) external onlyOwner {\n    for (uint i = 0; i < _toAddAddresses.length; i++) {\n      addressesCouncil[_toAddAddresses[i]] = _quantities[i];\n    }\n  }\n\n  function addAddressesHonorary(address[] calldata _toAddAddresses) external onlyOwner {\n    for (uint i = 0; i < _toAddAddresses.length; i++) {\n      addressesHonorary[_toAddAddresses[i]] = 1;\n    }\n  }\n\n  function addAddressesGuardian(address[] calldata _toAddAddresses) external onlyOwner {\n    for (uint i = 0; i < _toAddAddresses.length; i++) {\n      addressesGuardian[_toAddAddresses[i]] = 1;\n    }\n  }\n\n  function addAddressesJudge(address[] calldata _toAddAddresses) external onlyOwner {\n    for (uint i = 0; i < _toAddAddresses.length; i++) {\n      addressesJudge[_toAddAddresses[i]] = 1;\n    }\n  }\n\n  function addAddressesWhale(address[] calldata _toAddAddresses) external onlyOwner {\n    for (uint i = 0; i < _toAddAddresses.length; i++) {\n      addressesWhale[_toAddAddresses[i]] = 1;\n    }\n  }\n\n  function addressClaimbleRandom(address _wallet) public view returns(uint8) {\n    return addressesRandom[_wallet];\n  }\n\n  function addressClaimbleCouncil(address _wallet) public view returns(uint8) {\n    return addressesCouncil[_wallet];\n  }\n\n  function addressClaimbleHonorary(address _wallet) public view returns(uint8) {\n    return addressesHonorary[_wallet];\n  }\n\n  function addressClaimbleGuardian(address _wallet) public view returns(uint8) {\n    return addressesGuardian[_wallet];\n  }\n\n  function addressClaimbleJudge(address _wallet) public view returns(uint8) {\n    return addressesJudge[_wallet];\n  }\n\n  function addressClaimbleWhale(address _wallet) public view returns(uint8) {\n    return addressesWhale[_wallet];\n  }\n\n  function mintRandom(uint8 _nb) external {\n    require(addressesRandom[msg.sender] > 0, \"Not eligible\");\n    require(addressesRandom[msg.sender] >= _nb, \"Not enough claimable tokens\");\n    require(maxSupply >= totalSupply() + _nb, \"Supply limit exeedx\");\n    require(_nb <= 5, \"Limit max\");\n    addressesRandom[msg.sender] = addressesRandom[msg.sender] - _nb;\n    _mintRandom(msg.sender, _nb);\n    emit MintedRandom(msg.sender, block.timestamp);\n  }\n\n  function mainTotalSupply() public view returns (uint256){\n    return totalSupply() + nbMintedCouncil + nbMintedHonorary + nbMintedGuardian + nbMintedJudge + nbMintedWhale;\n  }\n\n  function mintCouncil(uint256 _nb) external {\n    require(block.timestamp < limitMintSpecific, \"Council mint close\");\n    require(addressesCouncil[msg.sender] > 0, \"Not eligible\");\n    require(addressesCouncil[msg.sender] >= _nb, \"Not enough claimable tokens\");\n    require(nbMintedCouncil + 1 <= 305, \"Max supply council exceed\");\n    require(_nb <= 5, \"Limit max\");\n    uint256[] memory _tokenIdsMinted = new uint256[](_nb);\n    for (uint32 i = 0; i < _nb; i++) {\n      addressesCouncil[msg.sender]--;\n      _safeMint(msg.sender, _tokenIdCurrentCouncil);\n      _tokenIdsMinted[i] = _tokenIdCurrentCouncil;\n      _tokenIdCurrentCouncil++;\n      nbMintedCouncil++;\n    }\n    emit MintedCouncil(msg.sender, block.timestamp, _tokenIdsMinted);\n  }\n\n  function mintHonorary() external {\n    require(block.timestamp < limitMintSpecific, \"Honorary mint close\");\n    require(addressesHonorary[msg.sender] > 0, \"No giveway\");\n    require(nbMintedHonorary + 1 <= 66, \"Max supply honorary exceed\");\n    addressesHonorary[msg.sender] = 0;\n    _safeMint(msg.sender, _tokenIdCurrentHonorary);\n    emit MintedHonorary(msg.sender, block.timestamp, _tokenIdCurrentHonorary);\n    _tokenIdCurrentHonorary++;\n    nbMintedHonorary++;\n  }\n\n  function mintGuardian() external {\n    require(block.timestamp < limitMintSpecific, \"Guardian mint close\");\n    require(addressesGuardian[msg.sender] > 0, \"No giveway\");\n    require(nbMintedGuardian + 1 <= 36, \"Max supply guardian exceed\");\n    addressesGuardian[msg.sender] = 0;\n    _safeMint(msg.sender, _tokenIdCurrentGuardian);\n    emit MintedGuardian(msg.sender, block.timestamp, _tokenIdCurrentGuardian);\n    _tokenIdCurrentGuardian++;\n    nbMintedGuardian++;\n  }\n\n  function mintJudge() external {\n    require(block.timestamp < limitMintSpecific, \"Judge mint close\");\n    require(addressesJudge[msg.sender] > 0, \"Not eligible\");\n    require(nbMintedJudge + 1 <= 11, \"Max supply judge exceed\");\n    addressesJudge[msg.sender] = 0;\n    _safeMint(msg.sender, _tokenIdCurrentJudge);\n    emit MintedJudge(msg.sender, block.timestamp, _tokenIdCurrentJudge);\n    _tokenIdCurrentJudge++;\n    nbMintedJudge++;\n  }\n\n  function mintWhale() external {\n    require(block.timestamp < limitMintSpecific, \"Whale mint close\");\n    require(addressesWhale[msg.sender] > 0, \"No giveway\");\n    require(nbMintedWhale + 1 <= 10, \"Max supply whale exceed\");\n    addressesWhale[msg.sender] = 0;\n    _safeMint(msg.sender, _tokenIdCurrentWhale);\n    emit MintedWhale(msg.sender, block.timestamp, _tokenIdCurrentWhale);\n    _tokenIdCurrentWhale++;\n    nbMintedWhale++;\n  }\n\n  function tokenExist(uint256 tokenId) public view returns(bool) {\n    return _exists(tokenId);\n  }\n\n  function setTokenAvailables(uint256[] calldata _tokenIdsAvailable) external onlyOwner {\n    require(block.timestamp > limitMintSpecific, \"Giveway not activate\");\n    tokenAvailables = _tokenIdsAvailable;\n  }\n\n  function getTokenAvailables() public view returns(uint256[] memory) {\n    return tokenAvailables;\n  }\n\n  function countTokenAvailables() public view returns(uint256) {\n    return tokenAvailables.length;\n  }\n\n  function addAddressesGiveway(address[] calldata _toAddAddresses) external onlyOwner {\n    for (uint i = 0; i < _toAddAddresses.length; i++) {\n      addressesGiveway[_toAddAddresses[i]] = 1;\n    }\n  }\n\n  function mintGiveway() external {\n    require(addressesGiveway[msg.sender] > 0, \"No giveway\");\n    require(mainMaxSupply >= mainTotalSupply() + 1, \"Max supply exceed\");\n    addressesGiveway[msg.sender] = 0;\n    _safeMint(msg.sender, tokenAvailables[tokenGivewayIndex]);\n    emit MintedGiveway(msg.sender, block.timestamp, tokenAvailables[tokenGivewayIndex]);\n    tokenGivewayIndex++;\n  }\n}\n",
  "sourcePath": "/Users/rchea/workspaces/MetaLegends/contract-pet/contracts/MetaLifeOgPets.sol",
  "compiler": {
    "name": "solc",
    "version": "0.8.19+commit.7dd6d404.Emscripten.clang"
  },
  "schemaVersion": "3.4.13",
  "updatedAt": "2023-07-02T00:19:02.736Z",
  "networkType": "ethereum",
  "devdoc": {
    "errors": {
      "AccountBalanceOverflow()": [
        {
          "details": "The recipient's balance has overflowed."
        }
      ],
      "BalanceQueryForZeroAddress()": [
        {
          "details": "Cannot query the balance for the zero address."
        }
      ],
      "NotOwnerNorApproved()": [
        {
          "details": "Only the token owner or an approved account can manage the token."
        }
      ],
      "TokenAlreadyExists()": [
        {
          "details": "The token already exists."
        }
      ],
      "TokenDoesNotExist()": [
        {
          "details": "The token does not exist."
        }
      ],
      "TransferFromIncorrectOwner()": [
        {
          "details": "The token must be owned by `from`."
        }
      ],
      "TransferToNonERC721ReceiverImplementer()": [
        {
          "details": "Cannot safely transfer to a contract that does not implement the ERC721Receiver interface."
        }
      ],
      "TransferToZeroAddress()": [
        {
          "details": "Cannot mint or transfer to the zero address."
        }
      ]
    },
    "events": {
      "Approval(address,address,uint256)": {
        "details": "Emitted when `owner` enables `account` to manage the `id` token."
      },
      "ApprovalForAll(address,address,bool)": {
        "details": "Emitted when `owner` enables or disables `operator` to manage all of their tokens."
      },
      "Transfer(address,address,uint256)": {
        "details": "Emitted when token `id` is transferred from `from` to `to`."
      }
    },
    "kind": "dev",
    "methods": {
      "approve(address,uint256)": {
        "details": "Sets `account` as the approved account to manage token `id`. Requirements: - Token `id` must exist. - The caller must be the owner of the token,   or an approved operator for the token owner. Emits a {Approval} event."
      },
      "balanceOf(address)": {
        "details": "Returns the number of tokens owned by `owner`. Requirements: - `owner` must not be the zero address."
      },
      "getApproved(uint256)": {
        "details": "Returns the account approved to managed token `id`. Requirements: - Token `id` must exist."
      },
      "isApprovedForAll(address,address)": {
        "details": "Returns whether `operator` is approved to manage the tokens of `owner`."
      },
      "name()": {
        "details": "Returns the token collection name."
      },
      "owner()": {
        "details": "Returns the address of the current owner."
      },
      "ownerOf(uint256)": {
        "details": "Returns the owner of token `id`. Requirements: - Token `id` must exist."
      },
      "renounceOwnership()": {
        "details": "Leaves the contract without owner. It will not be possible to call `onlyOwner` functions anymore. Can only be called by the current owner. NOTE: Renouncing ownership will leave the contract without an owner, thereby removing any functionality that is only available to the owner."
      },
      "safeTransferFrom(address,address,uint256)": {
        "details": "Equivalent to `safeTransferFrom(from, to, id, \"\")`."
      },
      "safeTransferFrom(address,address,uint256,bytes)": {
        "details": "Transfers token `id` from `from` to `to`. Requirements: - Token `id` must exist. - `from` must be the owner of the token. - `to` cannot be the zero address. - The caller must be the owner of the token, or be approved to manage the token. - If `to` refers to a smart contract, it must implement   {IERC721Receiver-onERC721Received}, which is called upon a safe transfer. Emits a {Transfer} event."
      },
      "setApprovalForAll(address,bool)": {
        "details": "Sets whether `operator` is approved to manage the tokens of the caller. Emits a {ApprovalForAll} event."
      },
      "supportsInterface(bytes4)": {
        "details": "Returns true if this contract implements the interface defined by `interfaceId`. See: https://eips.ethereum.org/EIPS/eip-165 This function call must use less than 30000 gas."
      },
      "symbol()": {
        "details": "Returns the token collection symbol."
      },
      "transferFrom(address,address,uint256)": {
        "details": "Transfers token `id` from `from` to `to`. Requirements: - Token `id` must exist. - `from` must be the owner of the token. - `to` cannot be the zero address. - The caller must be the owner of the token, or be approved to manage the token. Emits a {Transfer} event."
      },
      "transferOwnership(address)": {
        "details": "Transfers ownership of the contract to a new account (`newOwner`). Can only be called by the current owner."
      }
    },
    "version": 1
  },
  "userdoc": {
    "kind": "user",
    "methods": {},
    "version": 1
  }
}