{
  "contractName": "HoldingReward",
  "abi": [
    {
      "inputs": [],
      "stateMutability": "nonpayable",
      "type": "constructor"
    },
    {
      "anonymous": false,
      "inputs": [
        {
          "indexed": true,
          "internalType": "address",
          "name": "account",
          "type": "address"
        },
        {
          "indexed": true,
          "internalType": "address",
          "name": "operator",
          "type": "address"
        },
        {
          "indexed": false,
          "internalType": "bool",
          "name": "approved",
          "type": "bool"
        }
      ],
      "name": "ApprovalForAll",
      "type": "event"
    },
    {
      "anonymous": false,
      "inputs": [
        {
          "indexed": true,
          "internalType": "address",
          "name": "previousOwner",
          "type": "address"
        },
        {
          "indexed": true,
          "internalType": "address",
          "name": "newOwner",
          "type": "address"
        }
      ],
      "name": "OwnershipTransferred",
      "type": "event"
    },
    {
      "anonymous": false,
      "inputs": [
        {
          "indexed": true,
          "internalType": "address",
          "name": "operator",
          "type": "address"
        },
        {
          "indexed": true,
          "internalType": "address",
          "name": "from",
          "type": "address"
        },
        {
          "indexed": true,
          "internalType": "address",
          "name": "to",
          "type": "address"
        },
        {
          "indexed": false,
          "internalType": "uint256[]",
          "name": "ids",
          "type": "uint256[]"
        },
        {
          "indexed": false,
          "internalType": "uint256[]",
          "name": "values",
          "type": "uint256[]"
        }
      ],
      "name": "TransferBatch",
      "type": "event"
    },
    {
      "anonymous": false,
      "inputs": [
        {
          "indexed": true,
          "internalType": "address",
          "name": "operator",
          "type": "address"
        },
        {
          "indexed": true,
          "internalType": "address",
          "name": "from",
          "type": "address"
        },
        {
          "indexed": true,
          "internalType": "address",
          "name": "to",
          "type": "address"
        },
        {
          "indexed": false,
          "internalType": "uint256",
          "name": "id",
          "type": "uint256"
        },
        {
          "indexed": false,
          "internalType": "uint256",
          "name": "value",
          "type": "uint256"
        }
      ],
      "name": "TransferSingle",
      "type": "event"
    },
    {
      "anonymous": false,
      "inputs": [
        {
          "indexed": false,
          "internalType": "string",
          "name": "value",
          "type": "string"
        },
        {
          "indexed": true,
          "internalType": "uint256",
          "name": "id",
          "type": "uint256"
        }
      ],
      "name": "URI",
      "type": "event"
    },
    {
      "inputs": [
        {
          "internalType": "address",
          "name": "account",
          "type": "address"
        },
        {
          "internalType": "uint256",
          "name": "id",
          "type": "uint256"
        }
      ],
      "name": "balanceOf",
      "outputs": [
        {
          "internalType": "uint256",
          "name": "",
          "type": "uint256"
        }
      ],
      "stateMutability": "view",
      "type": "function"
    },
    {
      "inputs": [
        {
          "internalType": "address[]",
          "name": "accounts",
          "type": "address[]"
        },
        {
          "internalType": "uint256[]",
          "name": "ids",
          "type": "uint256[]"
        }
      ],
      "name": "balanceOfBatch",
      "outputs": [
        {
          "internalType": "uint256[]",
          "name": "",
          "type": "uint256[]"
        }
      ],
      "stateMutability": "view",
      "type": "function"
    },
    {
      "inputs": [],
      "name": "baseURI",
      "outputs": [
        {
          "internalType": "string",
          "name": "",
          "type": "string"
        }
      ],
      "stateMutability": "view",
      "type": "function"
    },
    {
      "inputs": [
        {
          "internalType": "address",
          "name": "account",
          "type": "address"
        },
        {
          "internalType": "address",
          "name": "operator",
          "type": "address"
        }
      ],
      "name": "isApprovedForAll",
      "outputs": [
        {
          "internalType": "bool",
          "name": "",
          "type": "bool"
        }
      ],
      "stateMutability": "view",
      "type": "function"
    },
    {
      "inputs": [],
      "name": "owner",
      "outputs": [
        {
          "internalType": "address",
          "name": "",
          "type": "address"
        }
      ],
      "stateMutability": "view",
      "type": "function"
    },
    {
      "inputs": [],
      "name": "renounceOwnership",
      "outputs": [],
      "stateMutability": "nonpayable",
      "type": "function"
    },
    {
      "inputs": [
        {
          "internalType": "address",
          "name": "from",
          "type": "address"
        },
        {
          "internalType": "address",
          "name": "to",
          "type": "address"
        },
        {
          "internalType": "uint256[]",
          "name": "ids",
          "type": "uint256[]"
        },
        {
          "internalType": "uint256[]",
          "name": "amounts",
          "type": "uint256[]"
        },
        {
          "internalType": "bytes",
          "name": "data",
          "type": "bytes"
        }
      ],
      "name": "safeBatchTransferFrom",
      "outputs": [],
      "stateMutability": "nonpayable",
      "type": "function"
    },
    {
      "inputs": [
        {
          "internalType": "address",
          "name": "from",
          "type": "address"
        },
        {
          "internalType": "address",
          "name": "to",
          "type": "address"
        },
        {
          "internalType": "uint256",
          "name": "id",
          "type": "uint256"
        },
        {
          "internalType": "uint256",
          "name": "amount",
          "type": "uint256"
        },
        {
          "internalType": "bytes",
          "name": "data",
          "type": "bytes"
        }
      ],
      "name": "safeTransferFrom",
      "outputs": [],
      "stateMutability": "nonpayable",
      "type": "function"
    },
    {
      "inputs": [
        {
          "internalType": "address",
          "name": "operator",
          "type": "address"
        },
        {
          "internalType": "bool",
          "name": "approved",
          "type": "bool"
        }
      ],
      "name": "setApprovalForAll",
      "outputs": [],
      "stateMutability": "nonpayable",
      "type": "function"
    },
    {
      "inputs": [
        {
          "internalType": "bytes4",
          "name": "interfaceId",
          "type": "bytes4"
        }
      ],
      "name": "supportsInterface",
      "outputs": [
        {
          "internalType": "bool",
          "name": "",
          "type": "bool"
        }
      ],
      "stateMutability": "view",
      "type": "function"
    },
    {
      "inputs": [
        {
          "internalType": "address",
          "name": "newOwner",
          "type": "address"
        }
      ],
      "name": "transferOwnership",
      "outputs": [],
      "stateMutability": "nonpayable",
      "type": "function"
    },
    {
      "inputs": [
        {
          "internalType": "uint256",
          "name": "",
          "type": "uint256"
        }
      ],
      "name": "uri",
      "outputs": [
        {
          "internalType": "string",
          "name": "",
          "type": "string"
        }
      ],
      "stateMutability": "view",
      "type": "function"
    },
    {
      "inputs": [
        {
          "internalType": "string",
          "name": "_newBaseURI",
          "type": "string"
        }
      ],
      "name": "_setBaseURI",
      "outputs": [],
      "stateMutability": "nonpayable",
      "type": "function"
    },
    {
      "inputs": [
        {
          "internalType": "uint256",
          "name": "tokenId",
          "type": "uint256"
        }
      ],
      "name": "tokenURI",
      "outputs": [
        {
          "internalType": "string",
          "name": "",
          "type": "string"
        }
      ],
      "stateMutability": "view",
      "type": "function"
    }
  ],
  "bytecode": "0x60806040526040518060200160405280600081525060059081620000249190620003e0565b503480156200003257600080fd5b506040518060200160405280600081525062000054816200008360201b60201c565b5062000075620000696200009860201b60201c565b620000a060201b60201c565b6001600481905550620004c7565b8060029081620000949190620003e0565b5050565b600033905090565b6000600360009054906101000a900473ffffffffffffffffffffffffffffffffffffffff16905081600360006101000a81548173ffffffffffffffffffffffffffffffffffffffff021916908373ffffffffffffffffffffffffffffffffffffffff1602179055508173ffffffffffffffffffffffffffffffffffffffff168173ffffffffffffffffffffffffffffffffffffffff167f8be0079c531659141344cd1fd0a4f28419497f9722a3daafe3b4186f6b6457e060405160405180910390a35050565b600081519050919050565b7f4e487b7100000000000000000000000000000000000000000000000000000000600052604160045260246000fd5b7f4e487b7100000000000000000000000000000000000000000000000000000000600052602260045260246000fd5b60006002820490506001821680620001e857607f821691505b602082108103620001fe57620001fd620001a0565b5b50919050565b60008190508160005260206000209050919050565b60006020601f8301049050919050565b600082821b905092915050565b600060088302620002687fffffffffffffffffffffffffffffffffffffffffffffffffffffffffffffffff8262000229565b62000274868362000229565b95508019841693508086168417925050509392505050565b6000819050919050565b6000819050919050565b6000620002c1620002bb620002b5846200028c565b62000296565b6200028c565b9050919050565b6000819050919050565b620002dd83620002a0565b620002f5620002ec82620002c8565b84845462000236565b825550505050565b600090565b6200030c620002fd565b62000319818484620002d2565b505050565b5b8181101562000341576200033560008262000302565b6001810190506200031f565b5050565b601f82111562000390576200035a8162000204565b620003658462000219565b8101602085101562000375578190505b6200038d620003848562000219565b8301826200031e565b50505b505050565b600082821c905092915050565b6000620003b56000198460080262000395565b1980831691505092915050565b6000620003d08383620003a2565b9150826002028217905092915050565b620003eb8262000166565b67ffffffffffffffff81111562000407576200040662000171565b5b620004138254620001cf565b6200042082828562000345565b600060209050601f83116001811462000458576000841562000443578287015190505b6200044f8582620003c2565b865550620004bf565b601f198416620004688662000204565b60005b8281101562000492578489015182556001820191506020850194506020810190506200046b565b86831015620004b25784890151620004ae601f891682620003a2565b8355505b6001600288020188555050505b505050505050565b61310480620004d76000396000f3fe608060405234801561001057600080fd5b50600436106100e95760003560e01c8063715018a61161008c578063c87b56dd11610066578063c87b56dd14610248578063e985e9c514610278578063f242432a146102a8578063f2fde38b146102c4576100e9565b8063715018a6146102045780638da5cb5b1461020e578063a22cb4651461022c576100e9565b80632eb2c2d6116100c85780632eb2c2d61461017e57806331b5b9071461019a5780634e1273f4146101b65780636c0360eb146101e6576100e9565b8062fdd58e146100ee57806301ffc9a71461011e5780630e89341c1461014e575b600080fd5b61010860048036038101906101039190611a80565b6102e0565b6040516101159190611acf565b60405180910390f35b61013860048036038101906101339190611b42565b6103a8565b6040516101459190611b8a565b60405180910390f35b61016860048036038101906101639190611ba5565b61048a565b6040516101759190611c62565b60405180910390f35b61019860048036038101906101939190611e81565b61051e565b005b6101b460048036038101906101af9190611ff1565b6105bf565b005b6101d060048036038101906101cb91906120fd565b6105da565b6040516101dd9190612233565b60405180910390f35b6101ee6106f3565b6040516101fb9190611c62565b60405180910390f35b61020c610781565b005b610216610795565b6040516102239190612264565b60405180910390f35b610246600480360381019061024191906122ab565b6107bf565b005b610262600480360381019061025d9190611ba5565b6107d5565b60405161026f9190611c62565b60405180910390f35b610292600480360381019061028d91906122eb565b610834565b60405161029f9190611b8a565b60405180910390f35b6102c260048036038101906102bd919061232b565b6108c8565b005b6102de60048036038101906102d991906123c2565b610969565b005b60008073ffffffffffffffffffffffffffffffffffffffff168373ffffffffffffffffffffffffffffffffffffffff1603610350576040517f08c379a000000000000000000000000000000000000000000000000000000000815260040161034790612461565b60405180910390fd5b60008083815260200190815260200160002060008473ffffffffffffffffffffffffffffffffffffffff1673ffffffffffffffffffffffffffffffffffffffff16815260200190815260200160002054905092915050565b60007fd9b67a26000000000000000000000000000000000000000000000000000000007bffffffffffffffffffffffffffffffffffffffffffffffffffffffff1916827bffffffffffffffffffffffffffffffffffffffffffffffffffffffff1916148061047357507f0e89341c000000000000000000000000000000000000000000000000000000007bffffffffffffffffffffffffffffffffffffffffffffffffffffffff1916827bffffffffffffffffffffffffffffffffffffffffffffffffffffffff1916145b806104835750610482826109ec565b5b9050919050565b606060028054610499906124b0565b80601f01602080910402602001604051908101604052809291908181526020018280546104c5906124b0565b80156105125780601f106104e757610100808354040283529160200191610512565b820191906000526020600020905b8154815290600101906020018083116104f557829003601f168201915b50505050509050919050565b610526610a56565b73ffffffffffffffffffffffffffffffffffffffff168573ffffffffffffffffffffffffffffffffffffffff16148061056c575061056b85610566610a56565b610834565b5b6105ab576040517f08c379a00000000000000000000000000000000000000000000000000000000081526004016105a290612553565b60405180910390fd5b6105b88585858585610a5e565b5050505050565b6105c7610d7f565b80600590816105d6919061271f565b5050565b60608151835114610620576040517f08c379a000000000000000000000000000000000000000000000000000000000815260040161061790612863565b60405180910390fd5b6000835167ffffffffffffffff81111561063d5761063c611c89565b5b60405190808252806020026020018201604052801561066b5781602001602082028036833780820191505090505b50905060005b84518110156106e8576106b88582815181106106905761068f612883565b5b60200260200101518583815181106106ab576106aa612883565b5b60200260200101516102e0565b8282815181106106cb576106ca612883565b5b602002602001018181525050806106e1906128e1565b9050610671565b508091505092915050565b60058054610700906124b0565b80601f016020809104026020016040519081016040528092919081815260200182805461072c906124b0565b80156107795780601f1061074e57610100808354040283529160200191610779565b820191906000526020600020905b81548152906001019060200180831161075c57829003601f168201915b505050505081565b610789610d7f565b6107936000610dfd565b565b6000600360009054906101000a900473ffffffffffffffffffffffffffffffffffffffff16905090565b6107d16107ca610a56565b8383610ec3565b5050565b606060006107e161102f565b90506000815111610801576040518060200160405280600081525061082c565b8061080b846110c1565b60405160200161081c929190612965565b6040516020818303038152906040525b915050919050565b6000600160008473ffffffffffffffffffffffffffffffffffffffff1673ffffffffffffffffffffffffffffffffffffffff16815260200190815260200160002060008373ffffffffffffffffffffffffffffffffffffffff1673ffffffffffffffffffffffffffffffffffffffff16815260200190815260200160002060009054906101000a900460ff16905092915050565b6108d0610a56565b73ffffffffffffffffffffffffffffffffffffffff168573ffffffffffffffffffffffffffffffffffffffff161480610916575061091585610910610a56565b610834565b5b610955576040517f08c379a000000000000000000000000000000000000000000000000000000000815260040161094c90612553565b60405180910390fd5b610962858585858561118f565b5050505050565b610971610d7f565b600073ffffffffffffffffffffffffffffffffffffffff168173ffffffffffffffffffffffffffffffffffffffff16036109e0576040517f08c379a00000000000000000000000000000000000000000000000000000000081526004016109d7906129fb565b60405180910390fd5b6109e981610dfd565b50565b60007f01ffc9a7000000000000000000000000000000000000000000000000000000007bffffffffffffffffffffffffffffffffffffffffffffffffffffffff1916827bffffffffffffffffffffffffffffffffffffffffffffffffffffffff1916149050919050565b600033905090565b8151835114610aa2576040517f08c379a0000000000000000000000000000000000000000000000000000000008152600401610a9990612a8d565b60405180910390fd5b600073ffffffffffffffffffffffffffffffffffffffff168473ffffffffffffffffffffffffffffffffffffffff1603610b11576040517f08c379a0000000000000000000000000000000000000000000000000000000008152600401610b0890612b1f565b60405180910390fd5b6000610b1b610a56565b9050610b2b81878787878761142a565b60005b8451811015610cdc576000858281518110610b4c57610b4b612883565b5b602002602001015190506000858381518110610b6b57610b6a612883565b5b60200260200101519050600080600084815260200190815260200160002060008b73ffffffffffffffffffffffffffffffffffffffff1673ffffffffffffffffffffffffffffffffffffffff16815260200190815260200160002054905081811015610c0c576040517f08c379a0000000000000000000000000000000000000000000000000000000008152600401610c0390612bb1565b60405180910390fd5b81810360008085815260200190815260200160002060008c73ffffffffffffffffffffffffffffffffffffffff1673ffffffffffffffffffffffffffffffffffffffff168152602001908152602001600020819055508160008085815260200190815260200160002060008b73ffffffffffffffffffffffffffffffffffffffff1673ffffffffffffffffffffffffffffffffffffffff1681526020019081526020016000206000828254610cc19190612bd1565b9250508190555050505080610cd5906128e1565b9050610b2e565b508473ffffffffffffffffffffffffffffffffffffffff168673ffffffffffffffffffffffffffffffffffffffff168273ffffffffffffffffffffffffffffffffffffffff167f4a39dc06d4c0dbc64b70af90fd698a233a518aa5d07e595d983b8c0526c8f7fb8787604051610d53929190612c05565b60405180910390a4610d69818787878787611432565b610d7781878787878761143a565b505050505050565b610d87610a56565b73ffffffffffffffffffffffffffffffffffffffff16610da5610795565b73ffffffffffffffffffffffffffffffffffffffff1614610dfb576040517f08c379a0000000000000000000000000000000000000000000000000000000008152600401610df290612c88565b60405180910390fd5b565b6000600360009054906101000a900473ffffffffffffffffffffffffffffffffffffffff16905081600360006101000a81548173ffffffffffffffffffffffffffffffffffffffff021916908373ffffffffffffffffffffffffffffffffffffffff1602179055508173ffffffffffffffffffffffffffffffffffffffff168173ffffffffffffffffffffffffffffffffffffffff167f8be0079c531659141344cd1fd0a4f28419497f9722a3daafe3b4186f6b6457e060405160405180910390a35050565b8173ffffffffffffffffffffffffffffffffffffffff168373ffffffffffffffffffffffffffffffffffffffff1603610f31576040517f08c379a0000000000000000000000000000000000000000000000000000000008152600401610f2890612d1a565b60405180910390fd5b80600160008573ffffffffffffffffffffffffffffffffffffffff1673ffffffffffffffffffffffffffffffffffffffff16815260200190815260200160002060008473ffffffffffffffffffffffffffffffffffffffff1673ffffffffffffffffffffffffffffffffffffffff16815260200190815260200160002060006101000a81548160ff0219169083151502179055508173ffffffffffffffffffffffffffffffffffffffff168373ffffffffffffffffffffffffffffffffffffffff167f17307eab39ab6107e8899845ad3d59bd9653f200f220920489ca2b5937696c31836040516110229190611b8a565b60405180910390a3505050565b60606005805461103e906124b0565b80601f016020809104026020016040519081016040528092919081815260200182805461106a906124b0565b80156110b75780601f1061108c576101008083540402835291602001916110b7565b820191906000526020600020905b81548152906001019060200180831161109a57829003601f168201915b5050505050905090565b6060600060016110d084611611565b01905060008167ffffffffffffffff8111156110ef576110ee611c89565b5b6040519080825280601f01601f1916602001820160405280156111215781602001600182028036833780820191505090505b509050600082602001820190505b600115611184578080600190039150507f3031323334353637383961626364656600000000000000000000000000000000600a86061a8153600a858161117857611177612d3a565b5b0494506000850361112f575b819350505050919050565b600073ffffffffffffffffffffffffffffffffffffffff168473ffffffffffffffffffffffffffffffffffffffff16036111fe576040517f08c379a00000000000000000000000000000000000000000000000000000000081526004016111f590612b1f565b60405180910390fd5b6000611208610a56565b9050600061121585611764565b9050600061122285611764565b905061123283898985858961142a565b600080600088815260200190815260200160002060008a73ffffffffffffffffffffffffffffffffffffffff1673ffffffffffffffffffffffffffffffffffffffff168152602001908152602001600020549050858110156112c9576040517f08c379a00000000000000000000000000000000000000000000000000000000081526004016112c090612bb1565b60405180910390fd5b85810360008089815260200190815260200160002060008b73ffffffffffffffffffffffffffffffffffffffff1673ffffffffffffffffffffffffffffffffffffffff168152602001908152602001600020819055508560008089815260200190815260200160002060008a73ffffffffffffffffffffffffffffffffffffffff1673ffffffffffffffffffffffffffffffffffffffff168152602001908152602001600020600082825461137e9190612bd1565b925050819055508773ffffffffffffffffffffffffffffffffffffffff168973ffffffffffffffffffffffffffffffffffffffff168573ffffffffffffffffffffffffffffffffffffffff167fc3d58168c5ae7397731d063d5bbf3d657854427343f4c083240f7aacaa2d0f628a8a6040516113fb929190612d69565b60405180910390a4611411848a8a86868a611432565b61141f848a8a8a8a8a6117de565b505050505050505050565b505050505050565b505050505050565b6114598473ffffffffffffffffffffffffffffffffffffffff166119b5565b15611609578373ffffffffffffffffffffffffffffffffffffffff1663bc197c8187878686866040518663ffffffff1660e01b815260040161149f959493929190612de7565b6020604051808303816000875af19250505080156114db57506040513d601f19601f820116820180604052508101906114d89190612e64565b60015b611580576114e7612e9e565b806308c379a00361154357506114fb612ec0565b806115065750611545565b806040517f08c379a000000000000000000000000000000000000000000000000000000000815260040161153a9190611c62565b60405180910390fd5b505b6040517f08c379a000000000000000000000000000000000000000000000000000000000815260040161157790612fc2565b60405180910390fd5b63bc197c8160e01b7bffffffffffffffffffffffffffffffffffffffffffffffffffffffff1916817bffffffffffffffffffffffffffffffffffffffffffffffffffffffff191614611607576040517f08c379a00000000000000000000000000000000000000000000000000000000081526004016115fe90613054565b60405180910390fd5b505b505050505050565b600080600090507a184f03e93ff9f4daa797ed6e38ed64bf6a1f010000000000000000831061166f577a184f03e93ff9f4daa797ed6e38ed64bf6a1f010000000000000000838161166557611664612d3a565b5b0492506040810190505b6d04ee2d6d415b85acef810000000083106116ac576d04ee2d6d415b85acef810000000083816116a2576116a1612d3a565b5b0492506020810190505b662386f26fc1000083106116db57662386f26fc1000083816116d1576116d0612d3a565b5b0492506010810190505b6305f5e1008310611704576305f5e10083816116fa576116f9612d3a565b5b0492506008810190505b612710831061172957612710838161171f5761171e612d3a565b5b0492506004810190505b6064831061174c576064838161174257611741612d3a565b5b0492506002810190505b600a831061175b576001810190505b80915050919050565b60606000600167ffffffffffffffff81111561178357611782611c89565b5b6040519080825280602002602001820160405280156117b15781602001602082028036833780820191505090505b50905082816000815181106117c9576117c8612883565b5b60200260200101818152505080915050919050565b6117fd8473ffffffffffffffffffffffffffffffffffffffff166119b5565b156119ad578373ffffffffffffffffffffffffffffffffffffffff1663f23a6e6187878686866040518663ffffffff1660e01b8152600401611843959493929190613074565b6020604051808303816000875af192505050801561187f57506040513d601f19601f8201168201806040525081019061187c9190612e64565b60015b6119245761188b612e9e565b806308c379a0036118e7575061189f612ec0565b806118aa57506118e9565b806040517f08c379a00000000000000000000000000000000000000000000000000000000081526004016118de9190611c62565b60405180910390fd5b505b6040517f08c379a000000000000000000000000000000000000000000000000000000000815260040161191b90612fc2565b60405180910390fd5b63f23a6e6160e01b7bffffffffffffffffffffffffffffffffffffffffffffffffffffffff1916817bffffffffffffffffffffffffffffffffffffffffffffffffffffffff1916146119ab576040517f08c379a00000000000000000000000000000000000000000000000000000000081526004016119a290613054565b60405180910390fd5b505b505050505050565b6000808273ffffffffffffffffffffffffffffffffffffffff163b119050919050565b6000604051905090565b600080fd5b600080fd5b600073ffffffffffffffffffffffffffffffffffffffff82169050919050565b6000611a17826119ec565b9050919050565b611a2781611a0c565b8114611a3257600080fd5b50565b600081359050611a4481611a1e565b92915050565b6000819050919050565b611a5d81611a4a565b8114611a6857600080fd5b50565b600081359050611a7a81611a54565b92915050565b60008060408385031215611a9757611a966119e2565b5b6000611aa585828601611a35565b9250506020611ab685828601611a6b565b9150509250929050565b611ac981611a4a565b82525050565b6000602082019050611ae46000830184611ac0565b92915050565b60007fffffffff0000000000000000000000000000000000000000000000000000000082169050919050565b611b1f81611aea565b8114611b2a57600080fd5b50565b600081359050611b3c81611b16565b92915050565b600060208284031215611b5857611b576119e2565b5b6000611b6684828501611b2d565b91505092915050565b60008115159050919050565b611b8481611b6f565b82525050565b6000602082019050611b9f6000830184611b7b565b92915050565b600060208284031215611bbb57611bba6119e2565b5b6000611bc984828501611a6b565b91505092915050565b600081519050919050565b600082825260208201905092915050565b60005b83811015611c0c578082015181840152602081019050611bf1565b60008484015250505050565b6000601f19601f8301169050919050565b6000611c3482611bd2565b611c3e8185611bdd565b9350611c4e818560208601611bee565b611c5781611c18565b840191505092915050565b60006020820190508181036000830152611c7c8184611c29565b905092915050565b600080fd5b7f4e487b7100000000000000000000000000000000000000000000000000000000600052604160045260246000fd5b611cc182611c18565b810181811067ffffffffffffffff82111715611ce057611cdf611c89565b5b80604052505050565b6000611cf36119d8565b9050611cff8282611cb8565b919050565b600067ffffffffffffffff821115611d1f57611d1e611c89565b5b602082029050602081019050919050565b600080fd5b6000611d48611d4384611d04565b611ce9565b90508083825260208201905060208402830185811115611d6b57611d6a611d30565b5b835b81811015611d945780611d808882611a6b565b845260208401935050602081019050611d6d565b5050509392505050565b600082601f830112611db357611db2611c84565b5b8135611dc3848260208601611d35565b91505092915050565b600080fd5b600067ffffffffffffffff821115611dec57611deb611c89565b5b611df582611c18565b9050602081019050919050565b82818337600083830152505050565b6000611e24611e1f84611dd1565b611ce9565b905082815260208101848484011115611e4057611e3f611dcc565b5b611e4b848285611e02565b509392505050565b600082601f830112611e6857611e67611c84565b5b8135611e78848260208601611e11565b91505092915050565b600080600080600060a08688031215611e9d57611e9c6119e2565b5b6000611eab88828901611a35565b9550506020611ebc88828901611a35565b945050604086013567ffffffffffffffff811115611edd57611edc6119e7565b5b611ee988828901611d9e565b935050606086013567ffffffffffffffff811115611f0a57611f096119e7565b5b611f1688828901611d9e565b925050608086013567ffffffffffffffff811115611f3757611f366119e7565b5b611f4388828901611e53565b9150509295509295909350565b600067ffffffffffffffff821115611f6b57611f6a611c89565b5b611f7482611c18565b9050602081019050919050565b6000611f94611f8f84611f50565b611ce9565b905082815260208101848484011115611fb057611faf611dcc565b5b611fbb848285611e02565b509392505050565b600082601f830112611fd857611fd7611c84565b5b8135611fe8848260208601611f81565b91505092915050565b600060208284031215612007576120066119e2565b5b600082013567ffffffffffffffff811115612025576120246119e7565b5b61203184828501611fc3565b91505092915050565b600067ffffffffffffffff82111561205557612054611c89565b5b602082029050602081019050919050565b60006120796120748461203a565b611ce9565b9050808382526020820190506020840283018581111561209c5761209b611d30565b5b835b818110156120c557806120b18882611a35565b84526020840193505060208101905061209e565b5050509392505050565b600082601f8301126120e4576120e3611c84565b5b81356120f4848260208601612066565b91505092915050565b60008060408385031215612114576121136119e2565b5b600083013567ffffffffffffffff811115612132576121316119e7565b5b61213e858286016120cf565b925050602083013567ffffffffffffffff81111561215f5761215e6119e7565b5b61216b85828601611d9e565b9150509250929050565b600081519050919050565b600082825260208201905092915050565b6000819050602082019050919050565b6121aa81611a4a565b82525050565b60006121bc83836121a1565b60208301905092915050565b6000602082019050919050565b60006121e082612175565b6121ea8185612180565b93506121f583612191565b8060005b8381101561222657815161220d88826121b0565b9750612218836121c8565b9250506001810190506121f9565b5085935050505092915050565b6000602082019050818103600083015261224d81846121d5565b905092915050565b61225e81611a0c565b82525050565b60006020820190506122796000830184612255565b92915050565b61228881611b6f565b811461229357600080fd5b50565b6000813590506122a58161227f565b92915050565b600080604083850312156122c2576122c16119e2565b5b60006122d085828601611a35565b92505060206122e185828601612296565b9150509250929050565b60008060408385031215612302576123016119e2565b5b600061231085828601611a35565b925050602061232185828601611a35565b9150509250929050565b600080600080600060a08688031215612347576123466119e2565b5b600061235588828901611a35565b955050602061236688828901611a35565b945050604061237788828901611a6b565b935050606061238888828901611a6b565b925050608086013567ffffffffffffffff8111156123a9576123a86119e7565b5b6123b588828901611e53565b9150509295509295909350565b6000602082840312156123d8576123d76119e2565b5b60006123e684828501611a35565b91505092915050565b7f455243313135353a2061646472657373207a65726f206973206e6f742061207660008201527f616c6964206f776e657200000000000000000000000000000000000000000000602082015250565b600061244b602a83611bdd565b9150612456826123ef565b604082019050919050565b6000602082019050818103600083015261247a8161243e565b9050919050565b7f4e487b7100000000000000000000000000000000000000000000000000000000600052602260045260246000fd5b600060028204905060018216806124c857607f821691505b6020821081036124db576124da612481565b5b50919050565b7f455243313135353a2063616c6c6572206973206e6f7420746f6b656e206f776e60008201527f6572206f7220617070726f766564000000000000000000000000000000000000602082015250565b600061253d602e83611bdd565b9150612548826124e1565b604082019050919050565b6000602082019050818103600083015261256c81612530565b9050919050565b60008190508160005260206000209050919050565b60006020601f8301049050919050565b600082821b905092915050565b6000600883026125d57fffffffffffffffffffffffffffffffffffffffffffffffffffffffffffffffff82612598565b6125df8683612598565b95508019841693508086168417925050509392505050565b6000819050919050565b600061261c61261761261284611a4a565b6125f7565b611a4a565b9050919050565b6000819050919050565b61263683612601565b61264a61264282612623565b8484546125a5565b825550505050565b600090565b61265f612652565b61266a81848461262d565b505050565b5b8181101561268e57612683600082612657565b600181019050612670565b5050565b601f8211156126d3576126a481612573565b6126ad84612588565b810160208510156126bc578190505b6126d06126c885612588565b83018261266f565b50505b505050565b600082821c905092915050565b60006126f6600019846008026126d8565b1980831691505092915050565b600061270f83836126e5565b9150826002028217905092915050565b61272882611bd2565b67ffffffffffffffff81111561274157612740611c89565b5b61274b82546124b0565b612756828285612692565b600060209050601f8311600181146127895760008415612777578287015190505b6127818582612703565b8655506127e9565b601f19841661279786612573565b60005b828110156127bf5784890151825560018201915060208501945060208101905061279a565b868310156127dc57848901516127d8601f8916826126e5565b8355505b6001600288020188555050505b505050505050565b7f455243313135353a206163636f756e747320616e6420696473206c656e67746860008201527f206d69736d617463680000000000000000000000000000000000000000000000602082015250565b600061284d602983611bdd565b9150612858826127f1565b604082019050919050565b6000602082019050818103600083015261287c81612840565b9050919050565b7f4e487b7100000000000000000000000000000000000000000000000000000000600052603260045260246000fd5b7f4e487b7100000000000000000000000000000000000000000000000000000000600052601160045260246000fd5b60006128ec82611a4a565b91507fffffffffffffffffffffffffffffffffffffffffffffffffffffffffffffffff820361291e5761291d6128b2565b5b600182019050919050565b600081905092915050565b600061293f82611bd2565b6129498185612929565b9350612959818560208601611bee565b80840191505092915050565b60006129718285612934565b915061297d8284612934565b91508190509392505050565b7f4f776e61626c653a206e6577206f776e657220697320746865207a65726f206160008201527f6464726573730000000000000000000000000000000000000000000000000000602082015250565b60006129e5602683611bdd565b91506129f082612989565b604082019050919050565b60006020820190508181036000830152612a14816129d8565b9050919050565b7f455243313135353a2069647320616e6420616d6f756e7473206c656e6774682060008201527f6d69736d61746368000000000000000000000000000000000000000000000000602082015250565b6000612a77602883611bdd565b9150612a8282612a1b565b604082019050919050565b60006020820190508181036000830152612aa681612a6a565b9050919050565b7f455243313135353a207472616e7366657220746f20746865207a65726f20616460008201527f6472657373000000000000000000000000000000000000000000000000000000602082015250565b6000612b09602583611bdd565b9150612b1482612aad565b604082019050919050565b60006020820190508181036000830152612b3881612afc565b9050919050565b7f455243313135353a20696e73756666696369656e742062616c616e636520666f60008201527f72207472616e7366657200000000000000000000000000000000000000000000602082015250565b6000612b9b602a83611bdd565b9150612ba682612b3f565b604082019050919050565b60006020820190508181036000830152612bca81612b8e565b9050919050565b6000612bdc82611a4a565b9150612be783611a4a565b9250828201905080821115612bff57612bfe6128b2565b5b92915050565b60006040820190508181036000830152612c1f81856121d5565b90508181036020830152612c3381846121d5565b90509392505050565b7f4f776e61626c653a2063616c6c6572206973206e6f7420746865206f776e6572600082015250565b6000612c72602083611bdd565b9150612c7d82612c3c565b602082019050919050565b60006020820190508181036000830152612ca181612c65565b9050919050565b7f455243313135353a2073657474696e6720617070726f76616c2073746174757360008201527f20666f722073656c660000000000000000000000000000000000000000000000602082015250565b6000612d04602983611bdd565b9150612d0f82612ca8565b604082019050919050565b60006020820190508181036000830152612d3381612cf7565b9050919050565b7f4e487b7100000000000000000000000000000000000000000000000000000000600052601260045260246000fd5b6000604082019050612d7e6000830185611ac0565b612d8b6020830184611ac0565b9392505050565b600081519050919050565b600082825260208201905092915050565b6000612db982612d92565b612dc38185612d9d565b9350612dd3818560208601611bee565b612ddc81611c18565b840191505092915050565b600060a082019050612dfc6000830188612255565b612e096020830187612255565b8181036040830152612e1b81866121d5565b90508181036060830152612e2f81856121d5565b90508181036080830152612e438184612dae565b90509695505050505050565b600081519050612e5e81611b16565b92915050565b600060208284031215612e7a57612e796119e2565b5b6000612e8884828501612e4f565b91505092915050565b60008160e01c9050919050565b600060033d1115612ebd5760046000803e612eba600051612e91565b90505b90565b600060443d10612f4d57612ed26119d8565b60043d036004823e80513d602482011167ffffffffffffffff82111715612efa575050612f4d565b808201805167ffffffffffffffff811115612f185750505050612f4d565b80602083010160043d038501811115612f35575050505050612f4d565b612f4482602001850186611cb8565b82955050505050505b90565b7f455243313135353a207472616e7366657220746f206e6f6e2d4552433131353560008201527f526563656976657220696d706c656d656e746572000000000000000000000000602082015250565b6000612fac603483611bdd565b9150612fb782612f50565b604082019050919050565b60006020820190508181036000830152612fdb81612f9f565b9050919050565b7f455243313135353a204552433131353552656365697665722072656a6563746560008201527f6420746f6b656e73000000000000000000000000000000000000000000000000602082015250565b600061303e602883611bdd565b915061304982612fe2565b604082019050919050565b6000602082019050818103600083015261306d81613031565b9050919050565b600060a0820190506130896000830188612255565b6130966020830187612255565b6130a36040830186611ac0565b6130b06060830185611ac0565b81810360808301526130c28184612dae565b9050969550505050505056fea2646970667358221220a9e80edb337799a0a8799a8b2cc51f9148425ab6639dfff428a7129e34b6c16664736f6c63430008130033",
  "immutableReferences": {},
  "source": "// SPDX-License-Identifier: MIT\npragma solidity 0.8.19;\n\nimport \"@openzeppelin/contracts/token/ERC1155/ERC1155.sol\";\nimport \"@openzeppelin/contracts/utils/Strings.sol\";\nimport \"@openzeppelin/contracts/access/Ownable.sol\";\nimport \"@openzeppelin/contracts/security/ReentrancyGuard.sol\";\n\n/// @title Holding rewards\n/// @author Hando Masahashi\n/// @notice This smart contract is used for reward holders\ncontract HoldingReward is ERC1155, Ownable, ReentrancyGuard {\n\n    using Strings for uint256;\n    string public baseURI = \"\";\n\n    constructor() ERC1155(\"\") {\n    }\n\n    function _setBaseURI(string memory _newBaseURI) public onlyOwner {\n        baseURI = _newBaseURI;\n    }\n\n    function _baseURI() internal view virtual returns (string memory) {\n        return baseURI;\n    }\n\n    function tokenURI(uint256 tokenId) public view virtual returns (string memory) {\n        string memory uri = _baseURI();\n        return bytes(uri).length > 0 ? string(abi.encodePacked(uri, tokenId.toString())) : \"\";\n    }\n}\n",
  "sourcePath": "/Users/rchea/workspaces/MetaLegends/contract-holding-rewards/contracts/HoldingReward.sol",
  "compiler": {
    "name": "solc",
    "version": "0.8.19+commit.7dd6d404.Emscripten.clang"
  },
  "schemaVersion": "3.4.13",
  "updatedAt": "2023-07-22T22:08:12.954Z",
  "devdoc": {
    "author": "Hando Masahashi",
    "events": {
      "ApprovalForAll(address,address,bool)": {
        "details": "Emitted when `account` grants or revokes permission to `operator` to transfer their tokens, according to `approved`."
      },
      "TransferBatch(address,address,address,uint256[],uint256[])": {
        "details": "Equivalent to multiple {TransferSingle} events, where `operator`, `from` and `to` are the same for all transfers."
      },
      "TransferSingle(address,address,address,uint256,uint256)": {
        "details": "Emitted when `value` tokens of token type `id` are transferred from `from` to `to` by `operator`."
      },
      "URI(string,uint256)": {
        "details": "Emitted when the URI for token type `id` changes to `value`, if it is a non-programmatic URI. If an {URI} event was emitted for `id`, the standard https://eips.ethereum.org/EIPS/eip-1155#metadata-extensions[guarantees] that `value` will equal the value returned by {IERC1155MetadataURI-uri}."
      }
    },
    "kind": "dev",
    "methods": {
      "balanceOf(address,uint256)": {
        "details": "See {IERC1155-balanceOf}. Requirements: - `account` cannot be the zero address."
      },
      "balanceOfBatch(address[],uint256[])": {
        "details": "See {IERC1155-balanceOfBatch}. Requirements: - `accounts` and `ids` must have the same length."
      },
      "isApprovedForAll(address,address)": {
        "details": "See {IERC1155-isApprovedForAll}."
      },
      "owner()": {
        "details": "Returns the address of the current owner."
      },
      "renounceOwnership()": {
        "details": "Leaves the contract without owner. It will not be possible to call `onlyOwner` functions. Can only be called by the current owner. NOTE: Renouncing ownership will leave the contract without an owner, thereby disabling any functionality that is only available to the owner."
      },
      "safeBatchTransferFrom(address,address,uint256[],uint256[],bytes)": {
        "details": "See {IERC1155-safeBatchTransferFrom}."
      },
      "safeTransferFrom(address,address,uint256,uint256,bytes)": {
        "details": "See {IERC1155-safeTransferFrom}."
      },
      "setApprovalForAll(address,bool)": {
        "details": "See {IERC1155-setApprovalForAll}."
      },
      "supportsInterface(bytes4)": {
        "details": "See {IERC165-supportsInterface}."
      },
      "transferOwnership(address)": {
        "details": "Transfers ownership of the contract to a new account (`newOwner`). Can only be called by the current owner."
      },
      "uri(uint256)": {
        "details": "See {IERC1155MetadataURI-uri}. This implementation returns the same URI for *all* token types. It relies on the token type ID substitution mechanism https://eips.ethereum.org/EIPS/eip-1155#metadata[defined in the EIP]. Clients calling this function must replace the `\\{id\\}` substring with the actual token type ID."
      }
    },
    "title": "Holding rewards",
    "version": 1
  },
  "userdoc": {
    "kind": "user",
    "methods": {},
    "notice": "This smart contract is used for reward holders",
    "version": 1
  }
}