{
  "contractName": "MetaLifeHoldingReward",
  "abi": [
    {
      "inputs": [],
      "stateMutability": "nonpayable",
      "type": "constructor"
    },
    {
      "anonymous": false,
      "inputs": [
        {
          "indexed": false,
          "internalType": "uint256",
          "name": "countAddresses",
          "type": "uint256"
        },
        {
          "indexed": false,
          "internalType": "uint256",
          "name": "total",
          "type": "uint256"
        }
      ],
      "name": "AddedEligibility",
      "type": "event"
    },
    {
      "anonymous": false,
      "inputs": [
        {
          "indexed": true,
          "internalType": "address",
          "name": "account",
          "type": "address"
        },
        {
          "indexed": true,
          "internalType": "address",
          "name": "operator",
          "type": "address"
        },
        {
          "indexed": false,
          "internalType": "bool",
          "name": "approved",
          "type": "bool"
        }
      ],
      "name": "ApprovalForAll",
      "type": "event"
    },
    {
      "anonymous": false,
      "inputs": [
        {
          "indexed": true,
          "internalType": "address",
          "name": "from",
          "type": "address"
        },
        {
          "indexed": false,
          "internalType": "uint256",
          "name": "timestamp",
          "type": "uint256"
        },
        {
          "indexed": false,
          "internalType": "uint256",
          "name": "tokenId",
          "type": "uint256"
        },
        {
          "indexed": false,
          "internalType": "uint256",
          "name": "quantity",
          "type": "uint256"
        }
      ],
      "name": "Minted",
      "type": "event"
    },
    {
      "anonymous": false,
      "inputs": [
        {
          "indexed": true,
          "internalType": "address",
          "name": "previousOwner",
          "type": "address"
        },
        {
          "indexed": true,
          "internalType": "address",
          "name": "newOwner",
          "type": "address"
        }
      ],
      "name": "OwnershipTransferred",
      "type": "event"
    },
    {
      "anonymous": false,
      "inputs": [
        {
          "indexed": true,
          "internalType": "address",
          "name": "operator",
          "type": "address"
        },
        {
          "indexed": true,
          "internalType": "address",
          "name": "from",
          "type": "address"
        },
        {
          "indexed": true,
          "internalType": "address",
          "name": "to",
          "type": "address"
        },
        {
          "indexed": false,
          "internalType": "uint256[]",
          "name": "ids",
          "type": "uint256[]"
        },
        {
          "indexed": false,
          "internalType": "uint256[]",
          "name": "values",
          "type": "uint256[]"
        }
      ],
      "name": "TransferBatch",
      "type": "event"
    },
    {
      "anonymous": false,
      "inputs": [
        {
          "indexed": true,
          "internalType": "address",
          "name": "operator",
          "type": "address"
        },
        {
          "indexed": true,
          "internalType": "address",
          "name": "from",
          "type": "address"
        },
        {
          "indexed": true,
          "internalType": "address",
          "name": "to",
          "type": "address"
        },
        {
          "indexed": false,
          "internalType": "uint256",
          "name": "id",
          "type": "uint256"
        },
        {
          "indexed": false,
          "internalType": "uint256",
          "name": "value",
          "type": "uint256"
        }
      ],
      "name": "TransferSingle",
      "type": "event"
    },
    {
      "anonymous": false,
      "inputs": [
        {
          "indexed": false,
          "internalType": "string",
          "name": "value",
          "type": "string"
        },
        {
          "indexed": true,
          "internalType": "uint256",
          "name": "id",
          "type": "uint256"
        }
      ],
      "name": "URI",
      "type": "event"
    },
    {
      "inputs": [],
      "name": "ID_CYBER_ARMOR",
      "outputs": [
        {
          "internalType": "uint256",
          "name": "",
          "type": "uint256"
        }
      ],
      "stateMutability": "view",
      "type": "function",
      "constant": true
    },
    {
      "inputs": [],
      "name": "ID_CYBER_WEAPON",
      "outputs": [
        {
          "internalType": "uint256",
          "name": "",
          "type": "uint256"
        }
      ],
      "stateMutability": "view",
      "type": "function",
      "constant": true
    },
    {
      "inputs": [],
      "name": "ID_MATRIX_ANGEL_CAR",
      "outputs": [
        {
          "internalType": "uint256",
          "name": "",
          "type": "uint256"
        }
      ],
      "stateMutability": "view",
      "type": "function",
      "constant": true
    },
    {
      "inputs": [],
      "name": "ID_ML_NETWORK_PASS",
      "outputs": [
        {
          "internalType": "uint256",
          "name": "",
          "type": "uint256"
        }
      ],
      "stateMutability": "view",
      "type": "function",
      "constant": true
    },
    {
      "inputs": [],
      "name": "ID_PARTICLE_COSMETIC_EFFECT",
      "outputs": [
        {
          "internalType": "uint256",
          "name": "",
          "type": "uint256"
        }
      ],
      "stateMutability": "view",
      "type": "function",
      "constant": true
    },
    {
      "inputs": [],
      "name": "ID_ROBOTER_WEAPON",
      "outputs": [
        {
          "internalType": "uint256",
          "name": "",
          "type": "uint256"
        }
      ],
      "stateMutability": "view",
      "type": "function",
      "constant": true
    },
    {
      "inputs": [],
      "name": "ID_ROUGH_PET",
      "outputs": [
        {
          "internalType": "uint256",
          "name": "",
          "type": "uint256"
        }
      ],
      "stateMutability": "view",
      "type": "function",
      "constant": true
    },
    {
      "inputs": [],
      "name": "ID_SHADOW_GEM",
      "outputs": [
        {
          "internalType": "uint256",
          "name": "",
          "type": "uint256"
        }
      ],
      "stateMutability": "view",
      "type": "function",
      "constant": true
    },
    {
      "inputs": [
        {
          "internalType": "address",
          "name": "account",
          "type": "address"
        },
        {
          "internalType": "uint256",
          "name": "id",
          "type": "uint256"
        }
      ],
      "name": "balanceOf",
      "outputs": [
        {
          "internalType": "uint256",
          "name": "",
          "type": "uint256"
        }
      ],
      "stateMutability": "view",
      "type": "function",
      "constant": true
    },
    {
      "inputs": [
        {
          "internalType": "address[]",
          "name": "accounts",
          "type": "address[]"
        },
        {
          "internalType": "uint256[]",
          "name": "ids",
          "type": "uint256[]"
        }
      ],
      "name": "balanceOfBatch",
      "outputs": [
        {
          "internalType": "uint256[]",
          "name": "",
          "type": "uint256[]"
        }
      ],
      "stateMutability": "view",
      "type": "function",
      "constant": true
    },
    {
      "inputs": [],
      "name": "baseURI",
      "outputs": [
        {
          "internalType": "string",
          "name": "",
          "type": "string"
        }
      ],
      "stateMutability": "view",
      "type": "function",
      "constant": true
    },
    {
      "inputs": [
        {
          "internalType": "address",
          "name": "",
          "type": "address"
        },
        {
          "internalType": "uint256",
          "name": "",
          "type": "uint256"
        }
      ],
      "name": "holderEligibilities",
      "outputs": [
        {
          "internalType": "uint256",
          "name": "total",
          "type": "uint256"
        },
        {
          "internalType": "uint256",
          "name": "claimed",
          "type": "uint256"
        }
      ],
      "stateMutability": "view",
      "type": "function",
      "constant": true
    },
    {
      "inputs": [
        {
          "internalType": "address",
          "name": "account",
          "type": "address"
        },
        {
          "internalType": "address",
          "name": "operator",
          "type": "address"
        }
      ],
      "name": "isApprovedForAll",
      "outputs": [
        {
          "internalType": "bool",
          "name": "",
          "type": "bool"
        }
      ],
      "stateMutability": "view",
      "type": "function",
      "constant": true
    },
    {
      "inputs": [],
      "name": "limitMintSpecific",
      "outputs": [
        {
          "internalType": "uint256",
          "name": "",
          "type": "uint256"
        }
      ],
      "stateMutability": "view",
      "type": "function",
      "constant": true
    },
    {
      "inputs": [],
      "name": "owner",
      "outputs": [
        {
          "internalType": "address",
          "name": "",
          "type": "address"
        }
      ],
      "stateMutability": "view",
      "type": "function",
      "constant": true
    },
    {
      "inputs": [],
      "name": "renounceOwnership",
      "outputs": [],
      "stateMutability": "nonpayable",
      "type": "function"
    },
    {
      "inputs": [
        {
          "internalType": "address",
          "name": "from",
          "type": "address"
        },
        {
          "internalType": "address",
          "name": "to",
          "type": "address"
        },
        {
          "internalType": "uint256[]",
          "name": "ids",
          "type": "uint256[]"
        },
        {
          "internalType": "uint256[]",
          "name": "amounts",
          "type": "uint256[]"
        },
        {
          "internalType": "bytes",
          "name": "data",
          "type": "bytes"
        }
      ],
      "name": "safeBatchTransferFrom",
      "outputs": [],
      "stateMutability": "nonpayable",
      "type": "function"
    },
    {
      "inputs": [
        {
          "internalType": "address",
          "name": "from",
          "type": "address"
        },
        {
          "internalType": "address",
          "name": "to",
          "type": "address"
        },
        {
          "internalType": "uint256",
          "name": "id",
          "type": "uint256"
        },
        {
          "internalType": "uint256",
          "name": "amount",
          "type": "uint256"
        },
        {
          "internalType": "bytes",
          "name": "data",
          "type": "bytes"
        }
      ],
      "name": "safeTransferFrom",
      "outputs": [],
      "stateMutability": "nonpayable",
      "type": "function"
    },
    {
      "inputs": [
        {
          "internalType": "address",
          "name": "operator",
          "type": "address"
        },
        {
          "internalType": "bool",
          "name": "approved",
          "type": "bool"
        }
      ],
      "name": "setApprovalForAll",
      "outputs": [],
      "stateMutability": "nonpayable",
      "type": "function"
    },
    {
      "inputs": [
        {
          "internalType": "bytes4",
          "name": "interfaceId",
          "type": "bytes4"
        }
      ],
      "name": "supportsInterface",
      "outputs": [
        {
          "internalType": "bool",
          "name": "",
          "type": "bool"
        }
      ],
      "stateMutability": "view",
      "type": "function",
      "constant": true
    },
    {
      "inputs": [
        {
          "internalType": "uint256",
          "name": "",
          "type": "uint256"
        }
      ],
      "name": "tokenCollection",
      "outputs": [
        {
          "internalType": "uint256",
          "name": "id",
          "type": "uint256"
        },
        {
          "internalType": "string",
          "name": "name",
          "type": "string"
        },
        {
          "internalType": "uint256",
          "name": "totalSupply",
          "type": "uint256"
        },
        {
          "internalType": "bool",
          "name": "mintable",
          "type": "bool"
        },
        {
          "internalType": "uint256",
          "name": "maxSupply",
          "type": "uint256"
        }
      ],
      "stateMutability": "view",
      "type": "function",
      "constant": true
    },
    {
      "inputs": [
        {
          "internalType": "address",
          "name": "newOwner",
          "type": "address"
        }
      ],
      "name": "transferOwnership",
      "outputs": [],
      "stateMutability": "nonpayable",
      "type": "function"
    },
    {
      "inputs": [
        {
          "internalType": "uint256",
          "name": "",
          "type": "uint256"
        }
      ],
      "name": "uri",
      "outputs": [
        {
          "internalType": "string",
          "name": "",
          "type": "string"
        }
      ],
      "stateMutability": "view",
      "type": "function",
      "constant": true
    },
    {
      "inputs": [
        {
          "internalType": "uint256",
          "name": "_id",
          "type": "uint256"
        }
      ],
      "name": "toggleTokenMint",
      "outputs": [],
      "stateMutability": "nonpayable",
      "type": "function"
    },
    {
      "inputs": [
        {
          "internalType": "uint256",
          "name": "_id",
          "type": "uint256"
        }
      ],
      "name": "getTokenRewardStatus",
      "outputs": [
        {
          "internalType": "bool",
          "name": "",
          "type": "bool"
        }
      ],
      "stateMutability": "view",
      "type": "function",
      "constant": true
    },
    {
      "inputs": [
        {
          "internalType": "address",
          "name": "wallet",
          "type": "address"
        },
        {
          "internalType": "uint256",
          "name": "_tokenId",
          "type": "uint256"
        }
      ],
      "name": "remaining",
      "outputs": [
        {
          "internalType": "uint256",
          "name": "",
          "type": "uint256"
        }
      ],
      "stateMutability": "view",
      "type": "function",
      "constant": true
    },
    {
      "inputs": [
        {
          "internalType": "string",
          "name": "_newBaseURI",
          "type": "string"
        }
      ],
      "name": "_setBaseURI",
      "outputs": [],
      "stateMutability": "nonpayable",
      "type": "function"
    },
    {
      "inputs": [
        {
          "internalType": "uint256",
          "name": "_tokenId",
          "type": "uint256"
        }
      ],
      "name": "tokenURI",
      "outputs": [
        {
          "internalType": "string",
          "name": "",
          "type": "string"
        }
      ],
      "stateMutability": "view",
      "type": "function",
      "constant": true
    },
    {
      "inputs": [
        {
          "internalType": "string",
          "name": "_name",
          "type": "string"
        },
        {
          "internalType": "bool",
          "name": "_mintable",
          "type": "bool"
        },
        {
          "internalType": "uint256",
          "name": "_maxSupply",
          "type": "uint256"
        },
        {
          "internalType": "uint256",
          "name": "_id",
          "type": "uint256"
        }
      ],
      "name": "addToken",
      "outputs": [],
      "stateMutability": "nonpayable",
      "type": "function"
    },
    {
      "inputs": [
        {
          "internalType": "address[]",
          "name": "_toAddAddresses",
          "type": "address[]"
        },
        {
          "internalType": "uint256[]",
          "name": "_quantities",
          "type": "uint256[]"
        },
        {
          "internalType": "uint256",
          "name": "_tokenId",
          "type": "uint256"
        }
      ],
      "name": "addEligilities",
      "outputs": [],
      "stateMutability": "nonpayable",
      "type": "function"
    },
    {
      "inputs": [
        {
          "internalType": "uint256",
          "name": "_tokenId",
          "type": "uint256"
        },
        {
          "internalType": "uint256",
          "name": "_quantity",
          "type": "uint256"
        }
      ],
      "name": "mint",
      "outputs": [],
      "stateMutability": "nonpayable",
      "type": "function"
    }
  ],
  "bytecode": "0x60806040526040518060200160405280600081525060059081620000249190620007cb565b5060006006553480156200003757600080fd5b506040518060200160405280600081525062000059816200030760201b60201c565b506200007a6200006e6200031c60201b60201c565b6200032460201b60201c565b6001600481905550620000cf6040518060400160405280600c81526020017f63796265722d776561706f6e00000000000000000000000000000000000000008152506001613a986001620003ea60201b60201c565b6200011c6040518060400160405280600b81526020017f63796265722d61726d6f720000000000000000000000000000000000000000008152506000613a986002620003ea60201b60201c565b620001696040518060400160405280600981526020017f726f7567682d70657400000000000000000000000000000000000000000000008152506000613a986003620003ea60201b60201c565b620001b66040518060400160405280600e81526020017f726f626f7465722d776561706f6e0000000000000000000000000000000000008152506000613a986004620003ea60201b60201c565b620002036040518060400160405280601081526020017f6d61747269782d616e67656c2d636172000000000000000000000000000000008152506000613a986005620003ea60201b60201c565b620002506040518060400160405280600f81526020017f6d6c2d6e6574776f726b2d7061737300000000000000000000000000000000008152506000612ee06006620003ea60201b60201c565b6200029d6040518060400160405280601881526020017f7061727469636c652d636f736d657469632d65666665637400000000000000008152506000612ee06007620003ea60201b60201c565b620002ea6040518060400160405280600a81526020017f736861646f772d67656d000000000000000000000000000000000000000000008152506000611f406008620003ea60201b60201c565b62f099c042620002fb9190620008e1565b6006819055506200099f565b8060029081620003189190620007cb565b5050565b600033905090565b6000600360009054906101000a900473ffffffffffffffffffffffffffffffffffffffff16905081600360006101000a81548173ffffffffffffffffffffffffffffffffffffffff021916908373ffffffffffffffffffffffffffffffffffffffff1602179055508173ffffffffffffffffffffffffffffffffffffffff168173ffffffffffffffffffffffffffffffffffffffff167f8be0079c531659141344cd1fd0a4f28419497f9722a3daafe3b4186f6b6457e060405160405180910390a35050565b620003fa6200049660201b60201c565b6040518060a001604052808281526020018581526020016000815260200184151581526020018381525060086000838152602001908152602001600020600082015181600001556020820151816001019081620004589190620007cb565b506040820151816002015560608201518160030160006101000a81548160ff0219169083151502179055506080820151816004015590505050505050565b620004a66200031c60201b60201c565b73ffffffffffffffffffffffffffffffffffffffff16620004cc6200052760201b60201c565b73ffffffffffffffffffffffffffffffffffffffff161462000525576040517f08c379a00000000000000000000000000000000000000000000000000000000081526004016200051c906200097d565b60405180910390fd5b565b6000600360009054906101000a900473ffffffffffffffffffffffffffffffffffffffff16905090565b600081519050919050565b7f4e487b7100000000000000000000000000000000000000000000000000000000600052604160045260246000fd5b7f4e487b7100000000000000000000000000000000000000000000000000000000600052602260045260246000fd5b60006002820490506001821680620005d357607f821691505b602082108103620005e957620005e86200058b565b5b50919050565b60008190508160005260206000209050919050565b60006020601f8301049050919050565b600082821b905092915050565b600060088302620006537fffffffffffffffffffffffffffffffffffffffffffffffffffffffffffffffff8262000614565b6200065f868362000614565b95508019841693508086168417925050509392505050565b6000819050919050565b6000819050919050565b6000620006ac620006a6620006a08462000677565b62000681565b62000677565b9050919050565b6000819050919050565b620006c8836200068b565b620006e0620006d782620006b3565b84845462000621565b825550505050565b600090565b620006f7620006e8565b62000704818484620006bd565b505050565b5b818110156200072c5762000720600082620006ed565b6001810190506200070a565b5050565b601f8211156200077b576200074581620005ef565b620007508462000604565b8101602085101562000760578190505b620007786200076f8562000604565b83018262000709565b50505b505050565b600082821c905092915050565b6000620007a06000198460080262000780565b1980831691505092915050565b6000620007bb83836200078d565b9150826002028217905092915050565b620007d68262000551565b67ffffffffffffffff811115620007f257620007f16200055c565b5b620007fe8254620005ba565b6200080b82828562000730565b600060209050601f8311600181146200084357600084156200082e578287015190505b6200083a8582620007ad565b865550620008aa565b601f1984166200085386620005ef565b60005b828110156200087d5784890151825560018201915060208501945060208101905062000856565b868310156200089d578489015162000899601f8916826200078d565b8355505b6001600288020188555050505b505050505050565b7f4e487b7100000000000000000000000000000000000000000000000000000000600052601160045260246000fd5b6000620008ee8262000677565b9150620008fb8362000677565b9250828201905080821115620009165762000915620008b2565b5b92915050565b600082825260208201905092915050565b7f4f776e61626c653a2063616c6c6572206973206e6f7420746865206f776e6572600082015250565b6000620009656020836200091c565b915062000972826200092d565b602082019050919050565b60006020820190508181036000830152620009988162000956565b9050919050565b61429180620009af6000396000f3fe608060405234801561001057600080fd5b50600436106101e45760003560e01c80637672e1b61161010f578063bf4f8974116100a2578063e7d0094d11610071578063e7d0094d14610586578063e985e9c5146105b6578063f242432a146105e6578063f2fde38b14610602576101e4565b8063bf4f8974146104ec578063c87b56dd14610508578063cbe1517514610538578063e1a977ec14610556576101e4565b8063a22cb465116100de578063a22cb4651461047a578063a5ea873814610496578063ab9b7dcb146104b2578063bb12d5d8146104d0576101e4565b80637672e1b6146103ef5780638da5cb5b146104205780638e3ca3481461043e5780638f04cfa51461045c576101e4565b80632dd883e8116101875780634e1273f4116101565780634e1273f41461037957806357e87402146103a95780636c0360eb146103c7578063715018a6146103e5576101e4565b80632dd883e8146102ef5780632eb2c2d61461032357806331b5b9071461033f578063427016d11461035b576101e4565b80630e89341c116101c35780630e89341c146102675780631b2ef1ca146102975780631e8ddb37146102b3578063257e7ff4146102d1576101e4565b8062fdd58e146101e957806301ffc9a7146102195780630c077e9514610249575b600080fd5b61020360048036038101906101fe919061266b565b61061e565b60405161021091906126ba565b60405180910390f35b610233600480360381019061022e919061272d565b6106e6565b6040516102409190612775565b60405180910390f35b6102516107c8565b60405161025e91906126ba565b60405180910390f35b610281600480360381019061027c9190612790565b6107cd565b60405161028e919061284d565b60405180910390f35b6102b160048036038101906102ac919061286f565b610861565b005b6102bb610ad6565b6040516102c891906126ba565b60405180910390f35b6102d9610adb565b6040516102e691906126ba565b60405180910390f35b61030960048036038101906103049190612790565b610ae1565b60405161031a9594939291906128af565b60405180910390f35b61033d60048036038101906103389190612b06565b610bac565b005b61035960048036038101906103549190612c76565b610c4d565b005b610363610c68565b60405161037091906126ba565b60405180910390f35b610393600480360381019061038e9190612d82565b610c6d565b6040516103a09190612eb8565b60405180910390f35b6103b1610d86565b6040516103be91906126ba565b60405180910390f35b6103cf610d8b565b6040516103dc919061284d565b60405180910390f35b6103ed610e19565b005b6104096004803603810190610404919061266b565b610e2d565b604051610417929190612eda565b60405180910390f35b610428610e5e565b6040516104359190612f12565b60405180910390f35b610446610e88565b60405161045391906126ba565b60405180910390f35b610464610e8d565b60405161047191906126ba565b60405180910390f35b610494600480360381019061048f9190612f59565b610e92565b005b6104b060048036038101906104ab919061304a565b610ea8565b005b6104ba61101e565b6040516104c791906126ba565b60405180910390f35b6104ea60048036038101906104e59190612790565b611023565b005b610506600480360381019061050191906130df565b611080565b005b610522600480360381019061051d9190612790565b611122565b60405161052f919061284d565b60405180910390f35b610540611181565b60405161054d91906126ba565b60405180910390f35b610570600480360381019061056b919061266b565b611186565b60405161057d91906126ba565b60405180910390f35b6105a0600480360381019061059b9190612790565b611242565b6040516105ad9190612775565b60405180910390f35b6105d060048036038101906105cb9190613162565b61126f565b6040516105dd9190612775565b60405180910390f35b61060060048036038101906105fb91906131a2565b611303565b005b61061c60048036038101906106179190613239565b6113a4565b005b60008073ffffffffffffffffffffffffffffffffffffffff168373ffffffffffffffffffffffffffffffffffffffff160361068e576040517f08c379a0000000000000000000000000000000000000000000000000000000008152600401610685906132d8565b60405180910390fd5b60008083815260200190815260200160002060008473ffffffffffffffffffffffffffffffffffffffff1673ffffffffffffffffffffffffffffffffffffffff16815260200190815260200160002054905092915050565b60007fd9b67a26000000000000000000000000000000000000000000000000000000007bffffffffffffffffffffffffffffffffffffffffffffffffffffffff1916827bffffffffffffffffffffffffffffffffffffffffffffffffffffffff191614806107b157507f0e89341c000000000000000000000000000000000000000000000000000000007bffffffffffffffffffffffffffffffffffffffffffffffffffffffff1916827bffffffffffffffffffffffffffffffffffffffffffffffffffffffff1916145b806107c157506107c082611427565b5b9050919050565b600781565b6060600280546107dc90613327565b80601f016020809104026020016040519081016040528092919081815260200182805461080890613327565b80156108555780601f1061082a57610100808354040283529160200191610855565b820191906000526020600020905b81548152906001019060200180831161083857829003601f168201915b50505050509050919050565b8061086c3384611186565b10156108ad576040517f08c379a00000000000000000000000000000000000000000000000000000000081526004016108a4906133a4565b60405180910390fd5b6008600083815260200190815260200160002060030160009054906101000a900460ff16610910576040517f08c379a000000000000000000000000000000000000000000000000000000000815260040161090790613410565b60405180910390fd5b6008600083815260200190815260200160002060040154816008600085815260200190815260200160002060020154610949919061345f565b111561098a576040517f08c379a0000000000000000000000000000000000000000000000000000000008152600401610981906134df565b60405180910390fd5b60065442106109ce576040517f08c379a00000000000000000000000000000000000000000000000000000000081526004016109c59061354b565b60405180910390fd5b80600760003373ffffffffffffffffffffffffffffffffffffffff1673ffffffffffffffffffffffffffffffffffffffff16815260200190815260200160002060008481526020019081526020016000206001016000828254610a31919061345f565b9250508190555080600860008481526020019081526020016000206002016000828254610a5e919061345f565b92505081905550610a8033838360405180602001604052806000815250611491565b3373ffffffffffffffffffffffffffffffffffffffff167f5a3358a3d27a5373c0df2604662088d37894d56b7cfd27f315770440f4e0d919428484604051610aca9392919061356b565b60405180910390a25050565b600481565b60065481565b6008602052806000526040600020600091509050806000015490806001018054610b0a90613327565b80601f0160208091040260200160405190810160405280929190818152602001828054610b3690613327565b8015610b835780601f10610b5857610100808354040283529160200191610b83565b820191906000526020600020905b815481529060010190602001808311610b6657829003601f168201915b5050505050908060020154908060030160009054906101000a900460ff16908060040154905085565b610bb4611641565b73ffffffffffffffffffffffffffffffffffffffff168573ffffffffffffffffffffffffffffffffffffffff161480610bfa5750610bf985610bf4611641565b61126f565b5b610c39576040517f08c379a0000000000000000000000000000000000000000000000000000000008152600401610c3090613614565b60405180910390fd5b610c468585858585611649565b5050505050565b610c5561196a565b8060059081610c6491906137e0565b5050565b600381565b60608151835114610cb3576040517f08c379a0000000000000000000000000000000000000000000000000000000008152600401610caa90613924565b60405180910390fd5b6000835167ffffffffffffffff811115610cd057610ccf61290e565b5b604051908082528060200260200182016040528015610cfe5781602001602082028036833780820191505090505b50905060005b8451811015610d7b57610d4b858281518110610d2357610d22613944565b5b6020026020010151858381518110610d3e57610d3d613944565b5b602002602001015161061e565b828281518110610d5e57610d5d613944565b5b60200260200101818152505080610d7490613973565b9050610d04565b508091505092915050565b600681565b60058054610d9890613327565b80601f0160208091040260200160405190810160405280929190818152602001828054610dc490613327565b8015610e115780601f10610de657610100808354040283529160200191610e11565b820191906000526020600020905b815481529060010190602001808311610df457829003601f168201915b505050505081565b610e2161196a565b610e2b60006119e8565b565b6007602052816000526040600020602052806000526040600020600091509150508060000154908060010154905082565b6000600360009054906101000a900473ffffffffffffffffffffffffffffffffffffffff16905090565b600581565b600281565b610ea4610e9d611641565b8383611aae565b5050565b610eb061196a565b828290508585905014610ef8576040517f08c379a0000000000000000000000000000000000000000000000000000000008152600401610eef90613a2d565b60405180910390fd5b6000805b86869050811015610fd957848482818110610f1a57610f19613944565b5b9050602002013560076000898985818110610f3857610f37613944565b5b9050602002016020810190610f4d9190613239565b73ffffffffffffffffffffffffffffffffffffffff1673ffffffffffffffffffffffffffffffffffffffff168152602001908152602001600020600085815260200190815260200160002060000181905550848482818110610fb257610fb1613944565b5b9050602002013582610fc4919061345f565b91508080610fd190613973565b915050610efc565b507fa82370edbf4f9f8ecf9132eb357d9a171e6cf346954298950049096aa5ac6470868690508260405161100e929190612eda565b60405180910390a1505050505050565b600881565b61102b61196a565b6008600082815260200190815260200160002060030160009054906101000a900460ff16156008600083815260200190815260200160002060030160006101000a81548160ff02191690831515021790555050565b61108861196a565b6040518060a0016040528082815260200185815260200160008152602001841515815260200183815250600860008381526020019081526020016000206000820151816000015560208201518160010190816110e491906137e0565b506040820151816002015560608201518160030160006101000a81548160ff0219169083151502179055506080820151816004015590505050505050565b6060600061112e611c1a565b9050600081511161114e5760405180602001604052806000815250611179565b8061115884611cac565b604051602001611169929190613a89565b6040516020818303038152906040525b915050919050565b600181565b6000600760008473ffffffffffffffffffffffffffffffffffffffff1673ffffffffffffffffffffffffffffffffffffffff168152602001908152602001600020600083815260200190815260200160002060010154600760008573ffffffffffffffffffffffffffffffffffffffff1673ffffffffffffffffffffffffffffffffffffffff16815260200190815260200160002060008481526020019081526020016000206000015461123a9190613aad565b905092915050565b60006008600083815260200190815260200160002060030160009054906101000a900460ff169050919050565b6000600160008473ffffffffffffffffffffffffffffffffffffffff1673ffffffffffffffffffffffffffffffffffffffff16815260200190815260200160002060008373ffffffffffffffffffffffffffffffffffffffff1673ffffffffffffffffffffffffffffffffffffffff16815260200190815260200160002060009054906101000a900460ff16905092915050565b61130b611641565b73ffffffffffffffffffffffffffffffffffffffff168573ffffffffffffffffffffffffffffffffffffffff16148061135157506113508561134b611641565b61126f565b5b611390576040517f08c379a000000000000000000000000000000000000000000000000000000000815260040161138790613614565b60405180910390fd5b61139d8585858585611d7a565b5050505050565b6113ac61196a565b600073ffffffffffffffffffffffffffffffffffffffff168173ffffffffffffffffffffffffffffffffffffffff160361141b576040517f08c379a000000000000000000000000000000000000000000000000000000000815260040161141290613b53565b60405180910390fd5b611424816119e8565b50565b60007f01ffc9a7000000000000000000000000000000000000000000000000000000007bffffffffffffffffffffffffffffffffffffffffffffffffffffffff1916827bffffffffffffffffffffffffffffffffffffffffffffffffffffffff1916149050919050565b600073ffffffffffffffffffffffffffffffffffffffff168473ffffffffffffffffffffffffffffffffffffffff1603611500576040517f08c379a00000000000000000000000000000000000000000000000000000000081526004016114f790613be5565b60405180910390fd5b600061150a611641565b9050600061151785612015565b9050600061152485612015565b90506115358360008985858961208f565b8460008088815260200190815260200160002060008973ffffffffffffffffffffffffffffffffffffffff1673ffffffffffffffffffffffffffffffffffffffff1681526020019081526020016000206000828254611594919061345f565b925050819055508673ffffffffffffffffffffffffffffffffffffffff16600073ffffffffffffffffffffffffffffffffffffffff168473ffffffffffffffffffffffffffffffffffffffff167fc3d58168c5ae7397731d063d5bbf3d657854427343f4c083240f7aacaa2d0f628989604051611612929190612eda565b60405180910390a461162983600089858589612097565b6116388360008989898961209f565b50505050505050565b600033905090565b815183511461168d576040517f08c379a000000000000000000000000000000000000000000000000000000000815260040161168490613c77565b60405180910390fd5b600073ffffffffffffffffffffffffffffffffffffffff168473ffffffffffffffffffffffffffffffffffffffff16036116fc576040517f08c379a00000000000000000000000000000000000000000000000000000000081526004016116f390613d09565b60405180910390fd5b6000611706611641565b905061171681878787878761208f565b60005b84518110156118c757600085828151811061173757611736613944565b5b60200260200101519050600085838151811061175657611755613944565b5b60200260200101519050600080600084815260200190815260200160002060008b73ffffffffffffffffffffffffffffffffffffffff1673ffffffffffffffffffffffffffffffffffffffff168152602001908152602001600020549050818110156117f7576040517f08c379a00000000000000000000000000000000000000000000000000000000081526004016117ee90613d9b565b60405180910390fd5b81810360008085815260200190815260200160002060008c73ffffffffffffffffffffffffffffffffffffffff1673ffffffffffffffffffffffffffffffffffffffff168152602001908152602001600020819055508160008085815260200190815260200160002060008b73ffffffffffffffffffffffffffffffffffffffff1673ffffffffffffffffffffffffffffffffffffffff16815260200190815260200160002060008282546118ac919061345f565b92505081905550505050806118c090613973565b9050611719565b508473ffffffffffffffffffffffffffffffffffffffff168673ffffffffffffffffffffffffffffffffffffffff168273ffffffffffffffffffffffffffffffffffffffff167f4a39dc06d4c0dbc64b70af90fd698a233a518aa5d07e595d983b8c0526c8f7fb878760405161193e929190613dbb565b60405180910390a4611954818787878787612097565b611962818787878787612276565b505050505050565b611972611641565b73ffffffffffffffffffffffffffffffffffffffff16611990610e5e565b73ffffffffffffffffffffffffffffffffffffffff16146119e6576040517f08c379a00000000000000000000000000000000000000000000000000000000081526004016119dd90613e3e565b60405180910390fd5b565b6000600360009054906101000a900473ffffffffffffffffffffffffffffffffffffffff16905081600360006101000a81548173ffffffffffffffffffffffffffffffffffffffff021916908373ffffffffffffffffffffffffffffffffffffffff1602179055508173ffffffffffffffffffffffffffffffffffffffff168173ffffffffffffffffffffffffffffffffffffffff167f8be0079c531659141344cd1fd0a4f28419497f9722a3daafe3b4186f6b6457e060405160405180910390a35050565b8173ffffffffffffffffffffffffffffffffffffffff168373ffffffffffffffffffffffffffffffffffffffff1603611b1c576040517f08c379a0000000000000000000000000000000000000000000000000000000008152600401611b1390613ed0565b60405180910390fd5b80600160008573ffffffffffffffffffffffffffffffffffffffff1673ffffffffffffffffffffffffffffffffffffffff16815260200190815260200160002060008473ffffffffffffffffffffffffffffffffffffffff1673ffffffffffffffffffffffffffffffffffffffff16815260200190815260200160002060006101000a81548160ff0219169083151502179055508173ffffffffffffffffffffffffffffffffffffffff168373ffffffffffffffffffffffffffffffffffffffff167f17307eab39ab6107e8899845ad3d59bd9653f200f220920489ca2b5937696c3183604051611c0d9190612775565b60405180910390a3505050565b606060058054611c2990613327565b80601f0160208091040260200160405190810160405280929190818152602001828054611c5590613327565b8015611ca25780601f10611c7757610100808354040283529160200191611ca2565b820191906000526020600020905b815481529060010190602001808311611c8557829003601f168201915b5050505050905090565b606060006001611cbb8461244d565b01905060008167ffffffffffffffff811115611cda57611cd961290e565b5b6040519080825280601f01601f191660200182016040528015611d0c5781602001600182028036833780820191505090505b509050600082602001820190505b600115611d6f578080600190039150507f3031323334353637383961626364656600000000000000000000000000000000600a86061a8153600a8581611d6357611d62613ef0565b5b04945060008503611d1a575b819350505050919050565b600073ffffffffffffffffffffffffffffffffffffffff168473ffffffffffffffffffffffffffffffffffffffff1603611de9576040517f08c379a0000000000000000000000000000000000000000000000000000000008152600401611de090613d09565b60405180910390fd5b6000611df3611641565b90506000611e0085612015565b90506000611e0d85612015565b9050611e1d83898985858961208f565b600080600088815260200190815260200160002060008a73ffffffffffffffffffffffffffffffffffffffff1673ffffffffffffffffffffffffffffffffffffffff16815260200190815260200160002054905085811015611eb4576040517f08c379a0000000000000000000000000000000000000000000000000000000008152600401611eab90613d9b565b60405180910390fd5b85810360008089815260200190815260200160002060008b73ffffffffffffffffffffffffffffffffffffffff1673ffffffffffffffffffffffffffffffffffffffff168152602001908152602001600020819055508560008089815260200190815260200160002060008a73ffffffffffffffffffffffffffffffffffffffff1673ffffffffffffffffffffffffffffffffffffffff1681526020019081526020016000206000828254611f69919061345f565b925050819055508773ffffffffffffffffffffffffffffffffffffffff168973ffffffffffffffffffffffffffffffffffffffff168573ffffffffffffffffffffffffffffffffffffffff167fc3d58168c5ae7397731d063d5bbf3d657854427343f4c083240f7aacaa2d0f628a8a604051611fe6929190612eda565b60405180910390a4611ffc848a8a86868a612097565b61200a848a8a8a8a8a61209f565b505050505050505050565b60606000600167ffffffffffffffff8111156120345761203361290e565b5b6040519080825280602002602001820160405280156120625781602001602082028036833780820191505090505b509050828160008151811061207a57612079613944565b5b60200260200101818152505080915050919050565b505050505050565b505050505050565b6120be8473ffffffffffffffffffffffffffffffffffffffff166125a0565b1561226e578373ffffffffffffffffffffffffffffffffffffffff1663f23a6e6187878686866040518663ffffffff1660e01b8152600401612104959493929190613f74565b6020604051808303816000875af192505050801561214057506040513d601f19601f8201168201806040525081019061213d9190613fe3565b60015b6121e55761214c61401d565b806308c379a0036121a8575061216061403f565b8061216b57506121aa565b806040517f08c379a000000000000000000000000000000000000000000000000000000000815260040161219f919061284d565b60405180910390fd5b505b6040517f08c379a00000000000000000000000000000000000000000000000000000000081526004016121dc90614141565b60405180910390fd5b63f23a6e6160e01b7bffffffffffffffffffffffffffffffffffffffffffffffffffffffff1916817bffffffffffffffffffffffffffffffffffffffffffffffffffffffff19161461226c576040517f08c379a0000000000000000000000000000000000000000000000000000000008152600401612263906141d3565b60405180910390fd5b505b505050505050565b6122958473ffffffffffffffffffffffffffffffffffffffff166125a0565b15612445578373ffffffffffffffffffffffffffffffffffffffff1663bc197c8187878686866040518663ffffffff1660e01b81526004016122db9594939291906141f3565b6020604051808303816000875af192505050801561231757506040513d601f19601f820116820180604052508101906123149190613fe3565b60015b6123bc5761232361401d565b806308c379a00361237f575061233761403f565b806123425750612381565b806040517f08c379a0000000000000000000000000000000000000000000000000000000008152600401612376919061284d565b60405180910390fd5b505b6040517f08c379a00000000000000000000000000000000000000000000000000000000081526004016123b390614141565b60405180910390fd5b63bc197c8160e01b7bffffffffffffffffffffffffffffffffffffffffffffffffffffffff1916817bffffffffffffffffffffffffffffffffffffffffffffffffffffffff191614612443576040517f08c379a000000000000000000000000000000000000000000000000000000000815260040161243a906141d3565b60405180910390fd5b505b505050505050565b600080600090507a184f03e93ff9f4daa797ed6e38ed64bf6a1f01000000000000000083106124ab577a184f03e93ff9f4daa797ed6e38ed64bf6a1f01000000000000000083816124a1576124a0613ef0565b5b0492506040810190505b6d04ee2d6d415b85acef810000000083106124e8576d04ee2d6d415b85acef810000000083816124de576124dd613ef0565b5b0492506020810190505b662386f26fc10000831061251757662386f26fc10000838161250d5761250c613ef0565b5b0492506010810190505b6305f5e1008310612540576305f5e100838161253657612535613ef0565b5b0492506008810190505b612710831061256557612710838161255b5761255a613ef0565b5b0492506004810190505b60648310612588576064838161257e5761257d613ef0565b5b0492506002810190505b600a8310612597576001810190505b80915050919050565b6000808273ffffffffffffffffffffffffffffffffffffffff163b119050919050565b6000604051905090565b600080fd5b600080fd5b600073ffffffffffffffffffffffffffffffffffffffff82169050919050565b6000612602826125d7565b9050919050565b612612816125f7565b811461261d57600080fd5b50565b60008135905061262f81612609565b92915050565b6000819050919050565b61264881612635565b811461265357600080fd5b50565b6000813590506126658161263f565b92915050565b60008060408385031215612682576126816125cd565b5b600061269085828601612620565b92505060206126a185828601612656565b9150509250929050565b6126b481612635565b82525050565b60006020820190506126cf60008301846126ab565b92915050565b60007fffffffff0000000000000000000000000000000000000000000000000000000082169050919050565b61270a816126d5565b811461271557600080fd5b50565b60008135905061272781612701565b92915050565b600060208284031215612743576127426125cd565b5b600061275184828501612718565b91505092915050565b60008115159050919050565b61276f8161275a565b82525050565b600060208201905061278a6000830184612766565b92915050565b6000602082840312156127a6576127a56125cd565b5b60006127b484828501612656565b91505092915050565b600081519050919050565b600082825260208201905092915050565b60005b838110156127f75780820151818401526020810190506127dc565b60008484015250505050565b6000601f19601f8301169050919050565b600061281f826127bd565b61282981856127c8565b93506128398185602086016127d9565b61284281612803565b840191505092915050565b600060208201905081810360008301526128678184612814565b905092915050565b60008060408385031215612886576128856125cd565b5b600061289485828601612656565b92505060206128a585828601612656565b9150509250929050565b600060a0820190506128c460008301886126ab565b81810360208301526128d68187612814565b90506128e560408301866126ab565b6128f26060830185612766565b6128ff60808301846126ab565b9695505050505050565b600080fd5b7f4e487b7100000000000000000000000000000000000000000000000000000000600052604160045260246000fd5b61294682612803565b810181811067ffffffffffffffff821117156129655761296461290e565b5b80604052505050565b60006129786125c3565b9050612984828261293d565b919050565b600067ffffffffffffffff8211156129a4576129a361290e565b5b602082029050602081019050919050565b600080fd5b60006129cd6129c884612989565b61296e565b905080838252602082019050602084028301858111156129f0576129ef6129b5565b5b835b81811015612a195780612a058882612656565b8452602084019350506020810190506129f2565b5050509392505050565b600082601f830112612a3857612a37612909565b5b8135612a488482602086016129ba565b91505092915050565b600080fd5b600067ffffffffffffffff821115612a7157612a7061290e565b5b612a7a82612803565b9050602081019050919050565b82818337600083830152505050565b6000612aa9612aa484612a56565b61296e565b905082815260208101848484011115612ac557612ac4612a51565b5b612ad0848285612a87565b509392505050565b600082601f830112612aed57612aec612909565b5b8135612afd848260208601612a96565b91505092915050565b600080600080600060a08688031215612b2257612b216125cd565b5b6000612b3088828901612620565b9550506020612b4188828901612620565b945050604086013567ffffffffffffffff811115612b6257612b616125d2565b5b612b6e88828901612a23565b935050606086013567ffffffffffffffff811115612b8f57612b8e6125d2565b5b612b9b88828901612a23565b925050608086013567ffffffffffffffff811115612bbc57612bbb6125d2565b5b612bc888828901612ad8565b9150509295509295909350565b600067ffffffffffffffff821115612bf057612bef61290e565b5b612bf982612803565b9050602081019050919050565b6000612c19612c1484612bd5565b61296e565b905082815260208101848484011115612c3557612c34612a51565b5b612c40848285612a87565b509392505050565b600082601f830112612c5d57612c5c612909565b5b8135612c6d848260208601612c06565b91505092915050565b600060208284031215612c8c57612c8b6125cd565b5b600082013567ffffffffffffffff811115612caa57612ca96125d2565b5b612cb684828501612c48565b91505092915050565b600067ffffffffffffffff821115612cda57612cd961290e565b5b602082029050602081019050919050565b6000612cfe612cf984612cbf565b61296e565b90508083825260208201905060208402830185811115612d2157612d206129b5565b5b835b81811015612d4a5780612d368882612620565b845260208401935050602081019050612d23565b5050509392505050565b600082601f830112612d6957612d68612909565b5b8135612d79848260208601612ceb565b91505092915050565b60008060408385031215612d9957612d986125cd565b5b600083013567ffffffffffffffff811115612db757612db66125d2565b5b612dc385828601612d54565b925050602083013567ffffffffffffffff811115612de457612de36125d2565b5b612df085828601612a23565b9150509250929050565b600081519050919050565b600082825260208201905092915050565b6000819050602082019050919050565b612e2f81612635565b82525050565b6000612e418383612e26565b60208301905092915050565b6000602082019050919050565b6000612e6582612dfa565b612e6f8185612e05565b9350612e7a83612e16565b8060005b83811015612eab578151612e928882612e35565b9750612e9d83612e4d565b925050600181019050612e7e565b5085935050505092915050565b60006020820190508181036000830152612ed28184612e5a565b905092915050565b6000604082019050612eef60008301856126ab565b612efc60208301846126ab565b9392505050565b612f0c816125f7565b82525050565b6000602082019050612f276000830184612f03565b92915050565b612f368161275a565b8114612f4157600080fd5b50565b600081359050612f5381612f2d565b92915050565b60008060408385031215612f7057612f6f6125cd565b5b6000612f7e85828601612620565b9250506020612f8f85828601612f44565b9150509250929050565b600080fd5b60008083601f840112612fb457612fb3612909565b5b8235905067ffffffffffffffff811115612fd157612fd0612f99565b5b602083019150836020820283011115612fed57612fec6129b5565b5b9250929050565b60008083601f84011261300a57613009612909565b5b8235905067ffffffffffffffff81111561302757613026612f99565b5b602083019150836020820283011115613043576130426129b5565b5b9250929050565b600080600080600060608688031215613066576130656125cd565b5b600086013567ffffffffffffffff811115613084576130836125d2565b5b61309088828901612f9e565b9550955050602086013567ffffffffffffffff8111156130b3576130b26125d2565b5b6130bf88828901612ff4565b935093505060406130d288828901612656565b9150509295509295909350565b600080600080608085870312156130f9576130f86125cd565b5b600085013567ffffffffffffffff811115613117576131166125d2565b5b61312387828801612c48565b945050602061313487828801612f44565b935050604061314587828801612656565b925050606061315687828801612656565b91505092959194509250565b60008060408385031215613179576131786125cd565b5b600061318785828601612620565b925050602061319885828601612620565b9150509250929050565b600080600080600060a086880312156131be576131bd6125cd565b5b60006131cc88828901612620565b95505060206131dd88828901612620565b94505060406131ee88828901612656565b93505060606131ff88828901612656565b925050608086013567ffffffffffffffff8111156132205761321f6125d2565b5b61322c88828901612ad8565b9150509295509295909350565b60006020828403121561324f5761324e6125cd565b5b600061325d84828501612620565b91505092915050565b7f455243313135353a2061646472657373207a65726f206973206e6f742061207660008201527f616c6964206f776e657200000000000000000000000000000000000000000000602082015250565b60006132c2602a836127c8565b91506132cd82613266565b604082019050919050565b600060208201905081810360008301526132f1816132b5565b9050919050565b7f4e487b7100000000000000000000000000000000000000000000000000000000600052602260045260246000fd5b6000600282049050600182168061333f57607f821691505b602082108103613352576133516132f8565b5b50919050565b7f5175616e746974792067726561746572207468616e2072656d61696e696e6700600082015250565b600061338e601f836127c8565b915061339982613358565b602082019050919050565b600060208201905081810360008301526133bd81613381565b9050919050565b7f546f6b656e2072657761726420636c6f73650000000000000000000000000000600082015250565b60006133fa6012836127c8565b9150613405826133c4565b602082019050919050565b60006020820190508181036000830152613429816133ed565b9050919050565b7f4e487b7100000000000000000000000000000000000000000000000000000000600052601160045260246000fd5b600061346a82612635565b915061347583612635565b925082820190508082111561348d5761348c613430565b5b92915050565b7f4e6f7420656e6f75676820737570706c79000000000000000000000000000000600082015250565b60006134c96011836127c8565b91506134d482613493565b602082019050919050565b600060208201905081810360008301526134f8816134bc565b9050919050565b7f486f6c64696e6720726577617264206d696e7420636c6f736500000000000000600082015250565b60006135356019836127c8565b9150613540826134ff565b602082019050919050565b6000602082019050818103600083015261356481613528565b9050919050565b600060608201905061358060008301866126ab565b61358d60208301856126ab565b61359a60408301846126ab565b949350505050565b7f455243313135353a2063616c6c6572206973206e6f7420746f6b656e206f776e60008201527f6572206f7220617070726f766564000000000000000000000000000000000000602082015250565b60006135fe602e836127c8565b9150613609826135a2565b604082019050919050565b6000602082019050818103600083015261362d816135f1565b9050919050565b60008190508160005260206000209050919050565b60006020601f8301049050919050565b600082821b905092915050565b6000600883026136967fffffffffffffffffffffffffffffffffffffffffffffffffffffffffffffffff82613659565b6136a08683613659565b95508019841693508086168417925050509392505050565b6000819050919050565b60006136dd6136d86136d384612635565b6136b8565b612635565b9050919050565b6000819050919050565b6136f7836136c2565b61370b613703826136e4565b848454613666565b825550505050565b600090565b613720613713565b61372b8184846136ee565b505050565b5b8181101561374f57613744600082613718565b600181019050613731565b5050565b601f8211156137945761376581613634565b61376e84613649565b8101602085101561377d578190505b61379161378985613649565b830182613730565b50505b505050565b600082821c905092915050565b60006137b760001984600802613799565b1980831691505092915050565b60006137d083836137a6565b9150826002028217905092915050565b6137e9826127bd565b67ffffffffffffffff8111156138025761380161290e565b5b61380c8254613327565b613817828285613753565b600060209050601f83116001811461384a5760008415613838578287015190505b61384285826137c4565b8655506138aa565b601f19841661385886613634565b60005b828110156138805784890151825560018201915060208501945060208101905061385b565b8683101561389d5784890151613899601f8916826137a6565b8355505b6001600288020188555050505b505050505050565b7f455243313135353a206163636f756e747320616e6420696473206c656e67746860008201527f206d69736d617463680000000000000000000000000000000000000000000000602082015250565b600061390e6029836127c8565b9150613919826138b2565b604082019050919050565b6000602082019050818103600083015261393d81613901565b9050919050565b7f4e487b7100000000000000000000000000000000000000000000000000000000600052603260045260246000fd5b600061397e82612635565b91507fffffffffffffffffffffffffffffffffffffffffffffffffffffffffffffffff82036139b0576139af613430565b5b600182019050919050565b7f4e62206164647265737320616e64206e62207175616e746974696573206d757360008201527f7420626520657175616c00000000000000000000000000000000000000000000602082015250565b6000613a17602a836127c8565b9150613a22826139bb565b604082019050919050565b60006020820190508181036000830152613a4681613a0a565b9050919050565b600081905092915050565b6000613a63826127bd565b613a6d8185613a4d565b9350613a7d8185602086016127d9565b80840191505092915050565b6000613a958285613a58565b9150613aa18284613a58565b91508190509392505050565b6000613ab882612635565b9150613ac383612635565b9250828203905081811115613adb57613ada613430565b5b92915050565b7f4f776e61626c653a206e6577206f776e657220697320746865207a65726f206160008201527f6464726573730000000000000000000000000000000000000000000000000000602082015250565b6000613b3d6026836127c8565b9150613b4882613ae1565b604082019050919050565b60006020820190508181036000830152613b6c81613b30565b9050919050565b7f455243313135353a206d696e7420746f20746865207a65726f2061646472657360008201527f7300000000000000000000000000000000000000000000000000000000000000602082015250565b6000613bcf6021836127c8565b9150613bda82613b73565b604082019050919050565b60006020820190508181036000830152613bfe81613bc2565b9050919050565b7f455243313135353a2069647320616e6420616d6f756e7473206c656e6774682060008201527f6d69736d61746368000000000000000000000000000000000000000000000000602082015250565b6000613c616028836127c8565b9150613c6c82613c05565b604082019050919050565b60006020820190508181036000830152613c9081613c54565b9050919050565b7f455243313135353a207472616e7366657220746f20746865207a65726f20616460008201527f6472657373000000000000000000000000000000000000000000000000000000602082015250565b6000613cf36025836127c8565b9150613cfe82613c97565b604082019050919050565b60006020820190508181036000830152613d2281613ce6565b9050919050565b7f455243313135353a20696e73756666696369656e742062616c616e636520666f60008201527f72207472616e7366657200000000000000000000000000000000000000000000602082015250565b6000613d85602a836127c8565b9150613d9082613d29565b604082019050919050565b60006020820190508181036000830152613db481613d78565b9050919050565b60006040820190508181036000830152613dd58185612e5a565b90508181036020830152613de98184612e5a565b90509392505050565b7f4f776e61626c653a2063616c6c6572206973206e6f7420746865206f776e6572600082015250565b6000613e286020836127c8565b9150613e3382613df2565b602082019050919050565b60006020820190508181036000830152613e5781613e1b565b9050919050565b7f455243313135353a2073657474696e6720617070726f76616c2073746174757360008201527f20666f722073656c660000000000000000000000000000000000000000000000602082015250565b6000613eba6029836127c8565b9150613ec582613e5e565b604082019050919050565b60006020820190508181036000830152613ee981613ead565b9050919050565b7f4e487b7100000000000000000000000000000000000000000000000000000000600052601260045260246000fd5b600081519050919050565b600082825260208201905092915050565b6000613f4682613f1f565b613f508185613f2a565b9350613f608185602086016127d9565b613f6981612803565b840191505092915050565b600060a082019050613f896000830188612f03565b613f966020830187612f03565b613fa360408301866126ab565b613fb060608301856126ab565b8181036080830152613fc28184613f3b565b90509695505050505050565b600081519050613fdd81612701565b92915050565b600060208284031215613ff957613ff86125cd565b5b600061400784828501613fce565b91505092915050565b60008160e01c9050919050565b600060033d111561403c5760046000803e614039600051614010565b90505b90565b600060443d106140cc576140516125c3565b60043d036004823e80513d602482011167ffffffffffffffff821117156140795750506140cc565b808201805167ffffffffffffffff81111561409757505050506140cc565b80602083010160043d0385018111156140b45750505050506140cc565b6140c38260200185018661293d565b82955050505050505b90565b7f455243313135353a207472616e7366657220746f206e6f6e2d4552433131353560008201527f526563656976657220696d706c656d656e746572000000000000000000000000602082015250565b600061412b6034836127c8565b9150614136826140cf565b604082019050919050565b6000602082019050818103600083015261415a8161411e565b9050919050565b7f455243313135353a204552433131353552656365697665722072656a6563746560008201527f6420746f6b656e73000000000000000000000000000000000000000000000000602082015250565b60006141bd6028836127c8565b91506141c882614161565b604082019050919050565b600060208201905081810360008301526141ec816141b0565b9050919050565b600060a0820190506142086000830188612f03565b6142156020830187612f03565b81810360408301526142278186612e5a565b9050818103606083015261423b8185612e5a565b9050818103608083015261424f8184613f3b565b9050969550505050505056fea26469706673582212206ea440c5cff507fee816c946945f0ab4d9d0e9526688536997812a746f2a099164736f6c63430008130033",
  "immutableReferences": {},
  "source": "// SPDX-License-Identifier: MIT\npragma solidity 0.8.19;\n\nimport \"@openzeppelin/contracts/token/ERC1155/ERC1155.sol\";\nimport \"@openzeppelin/contracts/utils/Strings.sol\";\nimport \"@openzeppelin/contracts/access/Ownable.sol\";\nimport \"@openzeppelin/contracts/security/ReentrancyGuard.sol\";\n\n/// @title Meta-Life: Holding reward\n/// @author Hando Masahashi\n/// @notice This smart contract is used for reward holders\ncontract MetaLifeHoldingReward is ERC1155, Ownable, ReentrancyGuard {\n\n    using Strings for uint256;\n    string public baseURI = \"\";\n\n    uint256 public constant ID_CYBER_WEAPON = 1;\n    uint256 public constant ID_CYBER_ARMOR = 2;\n    uint256 public constant ID_ROUGH_PET = 3;\n    uint256 public constant ID_ROBOTER_WEAPON = 4;\n    uint256 public constant ID_MATRIX_ANGEL_CAR = 5;\n    uint256 public constant ID_ML_NETWORK_PASS = 6;\n    uint256 public constant ID_PARTICLE_COSMETIC_EFFECT = 7;\n    uint256 public constant ID_SHADOW_GEM = 8;\n\n    struct TokenReward {\n        uint256 id;\n        string name;\n        uint256 totalSupply;\n        bool mintable;\n        uint256 maxSupply;\n    }\n\n    struct Eligibility {\n        uint256 total;\n        uint256 claimed;\n    }\n\n    uint256 public limitMintSpecific = 0;\n    mapping(address => mapping(uint256 => Eligibility)) public holderEligibilities;\n    mapping(uint256 => TokenReward) public tokenCollection;\n\n    event Minted(address indexed from, uint256 timestamp, uint256 tokenId, uint256 quantity);\n    event AddedEligibility(uint256 countAddresses, uint256 total);\n\n    constructor() ERC1155(\"\") {\n        addToken(\"cyber-weapon\", true, 15000, ID_CYBER_WEAPON);\n        addToken(\"cyber-armor\", false, 15000, ID_CYBER_ARMOR);\n        addToken(\"rough-pet\", false, 15000, ID_ROUGH_PET);\n        addToken(\"roboter-weapon\",  false, 15000, ID_ROBOTER_WEAPON);\n        addToken(\"matrix-angel-car\", false, 15000, ID_MATRIX_ANGEL_CAR);\n        addToken(\"ml-network-pass\", false, 12000, ID_ML_NETWORK_PASS);\n        addToken(\"particle-cosmetic-effect\", false, 12000, ID_PARTICLE_COSMETIC_EFFECT);\n        addToken(\"shadow-gem\", false, 8000, ID_SHADOW_GEM);\n\n        limitMintSpecific = block.timestamp + ((365/2) * 24 * 60 * 60);\n    }\n\n    function toggleTokenMint(uint256 _id) public onlyOwner {\n        tokenCollection[_id].mintable = !tokenCollection[_id].mintable;\n    }\n\n    function getTokenRewardStatus(uint256 _id) public view returns (bool) {\n        return tokenCollection[_id].mintable;\n    }\n\n    function remaining(address wallet, uint256 _tokenId) public view virtual returns (uint256) {\n        return holderEligibilities[wallet][_tokenId].total - holderEligibilities[wallet][_tokenId].claimed;\n    }\n\n    function _setBaseURI(string memory _newBaseURI) public onlyOwner {\n        baseURI = _newBaseURI;\n    }\n\n    function _baseURI() internal view virtual returns (string memory) {\n        return baseURI;\n    }\n\n    function tokenURI(uint256 _tokenId) public view virtual returns (string memory) {\n        string memory uri = _baseURI();\n        return bytes(uri).length > 0 ? string(abi.encodePacked(uri, _tokenId.toString())) : \"\";\n    }\n\n    function addToken(string memory _name, bool _mintable, uint256 _maxSupply, uint256 _id) public onlyOwner {\n        tokenCollection[_id] = TokenReward({\n            id: _id,\n            name: _name,\n            totalSupply: 0,\n            mintable: _mintable,\n            maxSupply: _maxSupply\n        });\n    }\n\n    function addEligilities(address[] calldata _toAddAddresses, uint256[] calldata _quantities, uint256 _tokenId)  external onlyOwner {\n        require(_toAddAddresses.length == _quantities.length, \"Nb address and nb quantities must be equal\");\n\n        uint256 total = 0;\n        for (uint256 i = 0; i < _toAddAddresses.length; i++) {\n            holderEligibilities[_toAddAddresses[i]][_tokenId].total = _quantities[i];\n            total += _quantities[i];\n        }\n\n        emit AddedEligibility(_toAddAddresses.length, total);\n    }\n\n    function mint(uint256 _tokenId, uint256 _quantity) external {\n        require(remaining(msg.sender, _tokenId) >= _quantity, \"Quantity greater than remaining\");\n        require(tokenCollection[_tokenId].mintable, \"Token reward close\");\n        require(tokenCollection[_tokenId].totalSupply + _quantity <= tokenCollection[_tokenId].maxSupply, \"Not enough supply\");\n        require(block.timestamp < limitMintSpecific, \"Holding reward mint close\");\n        holderEligibilities[msg.sender][_tokenId].claimed += _quantity;\n        tokenCollection[_tokenId].totalSupply += _quantity;\n        _mint(msg.sender, _tokenId, _quantity, \"\");\n\n        emit Minted(msg.sender, block.timestamp, _tokenId, _quantity);\n    }\n}\n",
  "sourcePath": "/Users/rchea/workspaces/MetaLegends/contract-holding-rewards/contracts/MetaLifeHoldingReward.sol",
  "compiler": {
    "name": "solc",
    "version": "0.8.19+commit.7dd6d404.Emscripten.clang"
  },
  "schemaVersion": "3.4.13",
  "updatedAt": "2023-09-09T10:10:53.126Z",
  "networkType": "ethereum",
  "devdoc": {
    "author": "Hando Masahashi",
    "events": {
      "ApprovalForAll(address,address,bool)": {
        "details": "Emitted when `account` grants or revokes permission to `operator` to transfer their tokens, according to `approved`."
      },
      "TransferBatch(address,address,address,uint256[],uint256[])": {
        "details": "Equivalent to multiple {TransferSingle} events, where `operator`, `from` and `to` are the same for all transfers."
      },
      "TransferSingle(address,address,address,uint256,uint256)": {
        "details": "Emitted when `value` tokens of token type `id` are transferred from `from` to `to` by `operator`."
      },
      "URI(string,uint256)": {
        "details": "Emitted when the URI for token type `id` changes to `value`, if it is a non-programmatic URI. If an {URI} event was emitted for `id`, the standard https://eips.ethereum.org/EIPS/eip-1155#metadata-extensions[guarantees] that `value` will equal the value returned by {IERC1155MetadataURI-uri}."
      }
    },
    "kind": "dev",
    "methods": {
      "balanceOf(address,uint256)": {
        "details": "See {IERC1155-balanceOf}. Requirements: - `account` cannot be the zero address."
      },
      "balanceOfBatch(address[],uint256[])": {
        "details": "See {IERC1155-balanceOfBatch}. Requirements: - `accounts` and `ids` must have the same length."
      },
      "isApprovedForAll(address,address)": {
        "details": "See {IERC1155-isApprovedForAll}."
      },
      "owner()": {
        "details": "Returns the address of the current owner."
      },
      "renounceOwnership()": {
        "details": "Leaves the contract without owner. It will not be possible to call `onlyOwner` functions. Can only be called by the current owner. NOTE: Renouncing ownership will leave the contract without an owner, thereby disabling any functionality that is only available to the owner."
      },
      "safeBatchTransferFrom(address,address,uint256[],uint256[],bytes)": {
        "details": "See {IERC1155-safeBatchTransferFrom}."
      },
      "safeTransferFrom(address,address,uint256,uint256,bytes)": {
        "details": "See {IERC1155-safeTransferFrom}."
      },
      "setApprovalForAll(address,bool)": {
        "details": "See {IERC1155-setApprovalForAll}."
      },
      "supportsInterface(bytes4)": {
        "details": "See {IERC165-supportsInterface}."
      },
      "transferOwnership(address)": {
        "details": "Transfers ownership of the contract to a new account (`newOwner`). Can only be called by the current owner."
      },
      "uri(uint256)": {
        "details": "See {IERC1155MetadataURI-uri}. This implementation returns the same URI for *all* token types. It relies on the token type ID substitution mechanism https://eips.ethereum.org/EIPS/eip-1155#metadata[defined in the EIP]. Clients calling this function must replace the `\\{id\\}` substring with the actual token type ID."
      }
    },
    "title": "Meta-Life: Holding reward",
    "version": 1
  },
  "userdoc": {
    "kind": "user",
    "methods": {},
    "notice": "This smart contract is used for reward holders",
    "version": 1
  }
}