{
  "contractName": "LegendsZoneRewards",
  "abi": [
    {
      "inputs": [],
      "stateMutability": "nonpayable",
      "type": "constructor"
    },
    {
      "anonymous": false,
      "inputs": [
        {
          "indexed": false,
          "internalType": "uint256",
          "name": "countAddresses",
          "type": "uint256"
        },
        {
          "indexed": false,
          "internalType": "uint256",
          "name": "total",
          "type": "uint256"
        }
      ],
      "name": "AddedEligibility",
      "type": "event"
    },
    {
      "anonymous": false,
      "inputs": [
        {
          "indexed": true,
          "internalType": "address",
          "name": "account",
          "type": "address"
        },
        {
          "indexed": true,
          "internalType": "address",
          "name": "operator",
          "type": "address"
        },
        {
          "indexed": false,
          "internalType": "bool",
          "name": "approved",
          "type": "bool"
        }
      ],
      "name": "ApprovalForAll",
      "type": "event"
    },
    {
      "anonymous": false,
      "inputs": [
        {
          "indexed": true,
          "internalType": "address",
          "name": "from",
          "type": "address"
        },
        {
          "indexed": false,
          "internalType": "uint256",
          "name": "timestamp",
          "type": "uint256"
        },
        {
          "indexed": false,
          "internalType": "uint256",
          "name": "tokenId",
          "type": "uint256"
        },
        {
          "indexed": false,
          "internalType": "uint256",
          "name": "quantity",
          "type": "uint256"
        }
      ],
      "name": "Burned",
      "type": "event"
    },
    {
      "anonymous": false,
      "inputs": [
        {
          "indexed": true,
          "internalType": "address",
          "name": "from",
          "type": "address"
        },
        {
          "indexed": false,
          "internalType": "uint256",
          "name": "timestamp",
          "type": "uint256"
        },
        {
          "indexed": false,
          "internalType": "uint256",
          "name": "tokenId",
          "type": "uint256"
        },
        {
          "indexed": false,
          "internalType": "uint256",
          "name": "quantity",
          "type": "uint256"
        }
      ],
      "name": "Minted",
      "type": "event"
    },
    {
      "anonymous": false,
      "inputs": [
        {
          "indexed": true,
          "internalType": "address",
          "name": "previousOwner",
          "type": "address"
        },
        {
          "indexed": true,
          "internalType": "address",
          "name": "newOwner",
          "type": "address"
        }
      ],
      "name": "OwnershipTransferred",
      "type": "event"
    },
    {
      "anonymous": false,
      "inputs": [
        {
          "indexed": true,
          "internalType": "address",
          "name": "operator",
          "type": "address"
        },
        {
          "indexed": true,
          "internalType": "address",
          "name": "from",
          "type": "address"
        },
        {
          "indexed": true,
          "internalType": "address",
          "name": "to",
          "type": "address"
        },
        {
          "indexed": false,
          "internalType": "uint256[]",
          "name": "ids",
          "type": "uint256[]"
        },
        {
          "indexed": false,
          "internalType": "uint256[]",
          "name": "values",
          "type": "uint256[]"
        }
      ],
      "name": "TransferBatch",
      "type": "event"
    },
    {
      "anonymous": false,
      "inputs": [
        {
          "indexed": true,
          "internalType": "address",
          "name": "operator",
          "type": "address"
        },
        {
          "indexed": true,
          "internalType": "address",
          "name": "from",
          "type": "address"
        },
        {
          "indexed": true,
          "internalType": "address",
          "name": "to",
          "type": "address"
        },
        {
          "indexed": false,
          "internalType": "uint256",
          "name": "id",
          "type": "uint256"
        },
        {
          "indexed": false,
          "internalType": "uint256",
          "name": "value",
          "type": "uint256"
        }
      ],
      "name": "TransferSingle",
      "type": "event"
    },
    {
      "anonymous": false,
      "inputs": [
        {
          "indexed": false,
          "internalType": "string",
          "name": "value",
          "type": "string"
        },
        {
          "indexed": true,
          "internalType": "uint256",
          "name": "id",
          "type": "uint256"
        }
      ],
      "name": "URI",
      "type": "event"
    },
    {
      "inputs": [],
      "name": "ID_CYBER_ARMOR",
      "outputs": [
        {
          "internalType": "uint256",
          "name": "",
          "type": "uint256"
        }
      ],
      "stateMutability": "view",
      "type": "function",
      "constant": true
    },
    {
      "inputs": [],
      "name": "ID_CYBER_WEAPON",
      "outputs": [
        {
          "internalType": "uint256",
          "name": "",
          "type": "uint256"
        }
      ],
      "stateMutability": "view",
      "type": "function",
      "constant": true
    },
    {
      "inputs": [],
      "name": "ID_MATRIX_ANGEL_CAR",
      "outputs": [
        {
          "internalType": "uint256",
          "name": "",
          "type": "uint256"
        }
      ],
      "stateMutability": "view",
      "type": "function",
      "constant": true
    },
    {
      "inputs": [],
      "name": "ID_ML_NETWORK_PASS",
      "outputs": [
        {
          "internalType": "uint256",
          "name": "",
          "type": "uint256"
        }
      ],
      "stateMutability": "view",
      "type": "function",
      "constant": true
    },
    {
      "inputs": [],
      "name": "ID_PARTICLE_COSMETIC_EFFECT",
      "outputs": [
        {
          "internalType": "uint256",
          "name": "",
          "type": "uint256"
        }
      ],
      "stateMutability": "view",
      "type": "function",
      "constant": true
    },
    {
      "inputs": [],
      "name": "ID_ROBOTER_WEAPON",
      "outputs": [
        {
          "internalType": "uint256",
          "name": "",
          "type": "uint256"
        }
      ],
      "stateMutability": "view",
      "type": "function",
      "constant": true
    },
    {
      "inputs": [],
      "name": "ID_ROUGH_PET",
      "outputs": [
        {
          "internalType": "uint256",
          "name": "",
          "type": "uint256"
        }
      ],
      "stateMutability": "view",
      "type": "function",
      "constant": true
    },
    {
      "inputs": [],
      "name": "ID_SHADOW_GEM",
      "outputs": [
        {
          "internalType": "uint256",
          "name": "",
          "type": "uint256"
        }
      ],
      "stateMutability": "view",
      "type": "function",
      "constant": true
    },
    {
      "inputs": [
        {
          "internalType": "address",
          "name": "account",
          "type": "address"
        },
        {
          "internalType": "uint256",
          "name": "id",
          "type": "uint256"
        }
      ],
      "name": "balanceOf",
      "outputs": [
        {
          "internalType": "uint256",
          "name": "",
          "type": "uint256"
        }
      ],
      "stateMutability": "view",
      "type": "function",
      "constant": true
    },
    {
      "inputs": [
        {
          "internalType": "address[]",
          "name": "accounts",
          "type": "address[]"
        },
        {
          "internalType": "uint256[]",
          "name": "ids",
          "type": "uint256[]"
        }
      ],
      "name": "balanceOfBatch",
      "outputs": [
        {
          "internalType": "uint256[]",
          "name": "",
          "type": "uint256[]"
        }
      ],
      "stateMutability": "view",
      "type": "function",
      "constant": true
    },
    {
      "inputs": [],
      "name": "baseURI",
      "outputs": [
        {
          "internalType": "string",
          "name": "",
          "type": "string"
        }
      ],
      "stateMutability": "view",
      "type": "function",
      "constant": true
    },
    {
      "inputs": [],
      "name": "collector",
      "outputs": [
        {
          "internalType": "address payable",
          "name": "",
          "type": "address"
        }
      ],
      "stateMutability": "view",
      "type": "function",
      "constant": true
    },
    {
      "inputs": [
        {
          "internalType": "address",
          "name": "",
          "type": "address"
        },
        {
          "internalType": "uint256",
          "name": "",
          "type": "uint256"
        }
      ],
      "name": "holderEligibilities",
      "outputs": [
        {
          "internalType": "uint256",
          "name": "total",
          "type": "uint256"
        },
        {
          "internalType": "uint256",
          "name": "claimed",
          "type": "uint256"
        }
      ],
      "stateMutability": "view",
      "type": "function",
      "constant": true
    },
    {
      "inputs": [
        {
          "internalType": "address",
          "name": "account",
          "type": "address"
        },
        {
          "internalType": "address",
          "name": "operator",
          "type": "address"
        }
      ],
      "name": "isApprovedForAll",
      "outputs": [
        {
          "internalType": "bool",
          "name": "",
          "type": "bool"
        }
      ],
      "stateMutability": "view",
      "type": "function",
      "constant": true
    },
    {
      "inputs": [],
      "name": "owner",
      "outputs": [
        {
          "internalType": "address",
          "name": "",
          "type": "address"
        }
      ],
      "stateMutability": "view",
      "type": "function",
      "constant": true
    },
    {
      "inputs": [],
      "name": "renounceOwnership",
      "outputs": [],
      "stateMutability": "nonpayable",
      "type": "function"
    },
    {
      "inputs": [
        {
          "internalType": "address",
          "name": "from",
          "type": "address"
        },
        {
          "internalType": "address",
          "name": "to",
          "type": "address"
        },
        {
          "internalType": "uint256[]",
          "name": "ids",
          "type": "uint256[]"
        },
        {
          "internalType": "uint256[]",
          "name": "amounts",
          "type": "uint256[]"
        },
        {
          "internalType": "bytes",
          "name": "data",
          "type": "bytes"
        }
      ],
      "name": "safeBatchTransferFrom",
      "outputs": [],
      "stateMutability": "nonpayable",
      "type": "function"
    },
    {
      "inputs": [
        {
          "internalType": "address",
          "name": "from",
          "type": "address"
        },
        {
          "internalType": "address",
          "name": "to",
          "type": "address"
        },
        {
          "internalType": "uint256",
          "name": "id",
          "type": "uint256"
        },
        {
          "internalType": "uint256",
          "name": "amount",
          "type": "uint256"
        },
        {
          "internalType": "bytes",
          "name": "data",
          "type": "bytes"
        }
      ],
      "name": "safeTransferFrom",
      "outputs": [],
      "stateMutability": "nonpayable",
      "type": "function"
    },
    {
      "inputs": [
        {
          "internalType": "address",
          "name": "operator",
          "type": "address"
        },
        {
          "internalType": "bool",
          "name": "approved",
          "type": "bool"
        }
      ],
      "name": "setApprovalForAll",
      "outputs": [],
      "stateMutability": "nonpayable",
      "type": "function"
    },
    {
      "inputs": [
        {
          "internalType": "bytes4",
          "name": "interfaceId",
          "type": "bytes4"
        }
      ],
      "name": "supportsInterface",
      "outputs": [
        {
          "internalType": "bool",
          "name": "",
          "type": "bool"
        }
      ],
      "stateMutability": "view",
      "type": "function",
      "constant": true
    },
    {
      "inputs": [
        {
          "internalType": "uint256",
          "name": "",
          "type": "uint256"
        }
      ],
      "name": "tokenCollection",
      "outputs": [
        {
          "internalType": "uint256",
          "name": "id",
          "type": "uint256"
        },
        {
          "internalType": "string",
          "name": "name",
          "type": "string"
        },
        {
          "internalType": "uint256",
          "name": "totalSupply",
          "type": "uint256"
        },
        {
          "internalType": "bool",
          "name": "mintable",
          "type": "bool"
        },
        {
          "internalType": "bool",
          "name": "burnable",
          "type": "bool"
        },
        {
          "internalType": "uint256",
          "name": "maxSupply",
          "type": "uint256"
        },
        {
          "internalType": "uint256",
          "name": "expireAt",
          "type": "uint256"
        }
      ],
      "stateMutability": "view",
      "type": "function",
      "constant": true
    },
    {
      "inputs": [
        {
          "internalType": "address",
          "name": "newOwner",
          "type": "address"
        }
      ],
      "name": "transferOwnership",
      "outputs": [],
      "stateMutability": "nonpayable",
      "type": "function"
    },
    {
      "inputs": [],
      "name": "withdrawAll",
      "outputs": [],
      "stateMutability": "payable",
      "type": "function",
      "payable": true
    },
    {
      "inputs": [
        {
          "internalType": "address payable",
          "name": "_newCollector",
          "type": "address"
        }
      ],
      "name": "setCollector",
      "outputs": [],
      "stateMutability": "nonpayable",
      "type": "function"
    },
    {
      "inputs": [
        {
          "internalType": "uint256",
          "name": "_tokenId",
          "type": "uint256"
        }
      ],
      "name": "toggleTokenMint",
      "outputs": [],
      "stateMutability": "nonpayable",
      "type": "function"
    },
    {
      "inputs": [
        {
          "internalType": "uint256",
          "name": "_tokenId",
          "type": "uint256"
        }
      ],
      "name": "toggleTokenBurnable",
      "outputs": [],
      "stateMutability": "nonpayable",
      "type": "function"
    },
    {
      "inputs": [
        {
          "internalType": "uint256",
          "name": "_tokenId",
          "type": "uint256"
        }
      ],
      "name": "getTokenRewardStatus",
      "outputs": [
        {
          "internalType": "bool",
          "name": "",
          "type": "bool"
        }
      ],
      "stateMutability": "view",
      "type": "function",
      "constant": true
    },
    {
      "inputs": [
        {
          "internalType": "uint256",
          "name": "_tokenId",
          "type": "uint256"
        }
      ],
      "name": "isBurnable",
      "outputs": [
        {
          "internalType": "bool",
          "name": "",
          "type": "bool"
        }
      ],
      "stateMutability": "view",
      "type": "function",
      "constant": true
    },
    {
      "inputs": [
        {
          "internalType": "address",
          "name": "wallet",
          "type": "address"
        },
        {
          "internalType": "uint256",
          "name": "_tokenId",
          "type": "uint256"
        }
      ],
      "name": "remaining",
      "outputs": [
        {
          "internalType": "uint256",
          "name": "",
          "type": "uint256"
        }
      ],
      "stateMutability": "view",
      "type": "function",
      "constant": true
    },
    {
      "inputs": [
        {
          "internalType": "string",
          "name": "_newBaseURI",
          "type": "string"
        }
      ],
      "name": "_setBaseURI",
      "outputs": [],
      "stateMutability": "nonpayable",
      "type": "function"
    },
    {
      "inputs": [
        {
          "internalType": "uint256",
          "name": "_tokenId",
          "type": "uint256"
        }
      ],
      "name": "uri",
      "outputs": [
        {
          "internalType": "string",
          "name": "",
          "type": "string"
        }
      ],
      "stateMutability": "view",
      "type": "function",
      "constant": true
    },
    {
      "inputs": [
        {
          "internalType": "string",
          "name": "_name",
          "type": "string"
        },
        {
          "internalType": "bool",
          "name": "_mintable",
          "type": "bool"
        },
        {
          "internalType": "bool",
          "name": "_burnable",
          "type": "bool"
        },
        {
          "internalType": "uint256",
          "name": "_maxSupply",
          "type": "uint256"
        },
        {
          "internalType": "uint256",
          "name": "_id",
          "type": "uint256"
        },
        {
          "internalType": "uint256",
          "name": "_expireAt",
          "type": "uint256"
        }
      ],
      "name": "addToken",
      "outputs": [],
      "stateMutability": "nonpayable",
      "type": "function"
    },
    {
      "inputs": [
        {
          "internalType": "address[]",
          "name": "_toAddAddresses",
          "type": "address[]"
        },
        {
          "internalType": "uint256[]",
          "name": "_quantities",
          "type": "uint256[]"
        },
        {
          "internalType": "uint256",
          "name": "_tokenId",
          "type": "uint256"
        }
      ],
      "name": "addEligilities",
      "outputs": [],
      "stateMutability": "nonpayable",
      "type": "function"
    },
    {
      "inputs": [
        {
          "internalType": "uint256",
          "name": "_tokenId",
          "type": "uint256"
        },
        {
          "internalType": "uint256",
          "name": "_quantity",
          "type": "uint256"
        }
      ],
      "name": "mint",
      "outputs": [],
      "stateMutability": "nonpayable",
      "type": "function"
    },
    {
      "inputs": [
        {
          "internalType": "uint256",
          "name": "_tokenId",
          "type": "uint256"
        },
        {
          "internalType": "uint256",
          "name": "_quantity",
          "type": "uint256"
        }
      ],
      "name": "burn",
      "outputs": [],
      "stateMutability": "nonpayable",
      "type": "function"
    }
  ],
  "bytecode": "0x6080604052604051806020016040528060008152506005908162000024919062000870565b503480156200003257600080fd5b506040518060200160405280600081525062000054816200037260201b60201c565b5062000075620000696200038760201b60201c565b6200038f60201b60201c565b60016004819055506040518060800160405280605781526020016200560b6057913960059081620000a7919062000870565b5033600660006101000a81548173ffffffffffffffffffffffffffffffffffffffff021916908373ffffffffffffffffffffffffffffffffffffffff1602179055506000636681d55f9050620001426040518060400160405280600c81526020017f63796265722d776561706f6e000000000000000000000000000000000000000081525060016000613a986001866200045560201b60201c565b620001916040518060400160405280600b81526020017f63796265722d61726d6f72000000000000000000000000000000000000000000815250600080613a986002866200045560201b60201c565b620001e06040518060400160405280600981526020017f726f7567682d7065740000000000000000000000000000000000000000000000815250600080613a986003866200045560201b60201c565b6200022f6040518060400160405280600e81526020017f726f626f7465722d776561706f6e000000000000000000000000000000000000815250600080613a986004866200045560201b60201c565b6200027e6040518060400160405280601081526020017f6d61747269782d616e67656c2d63617200000000000000000000000000000000815250600080613a986005866200045560201b60201c565b620002cd6040518060400160405280600f81526020017f6d6c2d6e6574776f726b2d706173730000000000000000000000000000000000815250600080612ee06006866200045560201b60201c565b6200031c6040518060400160405280601881526020017f7061727469636c652d636f736d657469632d6566666563740000000000000000815250600080612ee06007866200045560201b60201c565b6200036b6040518060400160405280600a81526020017f736861646f772d67656d00000000000000000000000000000000000000000000815250600080611f406008866200045560201b60201c565b50620009da565b806002908162000383919062000870565b5050565b600033905090565b6000600360009054906101000a900473ffffffffffffffffffffffffffffffffffffffff16905081600360006101000a81548173ffffffffffffffffffffffffffffffffffffffff021916908373ffffffffffffffffffffffffffffffffffffffff1602179055508173ffffffffffffffffffffffffffffffffffffffff168173ffffffffffffffffffffffffffffffffffffffff167f8be0079c531659141344cd1fd0a4f28419497f9722a3daafe3b4186f6b6457e060405160405180910390a35050565b620004656200053b60201b60201c565b6040518060e0016040528083815260200187815260200160008152602001861515815260200185151581526020018481526020018281525060086000848152602001908152602001600020600082015181600001556020820151816001019081620004d1919062000870565b506040820151816002015560608201518160030160006101000a81548160ff02191690831515021790555060808201518160030160016101000a81548160ff02191690831515021790555060a0820151816004015560c08201518160050155905050505050505050565b6200054b6200038760201b60201c565b73ffffffffffffffffffffffffffffffffffffffff1662000571620005cc60201b60201c565b73ffffffffffffffffffffffffffffffffffffffff1614620005ca576040517f08c379a0000000000000000000000000000000000000000000000000000000008152600401620005c190620009b8565b60405180910390fd5b565b6000600360009054906101000a900473ffffffffffffffffffffffffffffffffffffffff16905090565b600081519050919050565b7f4e487b7100000000000000000000000000000000000000000000000000000000600052604160045260246000fd5b7f4e487b7100000000000000000000000000000000000000000000000000000000600052602260045260246000fd5b600060028204905060018216806200067857607f821691505b6020821081036200068e576200068d62000630565b5b50919050565b60008190508160005260206000209050919050565b60006020601f8301049050919050565b600082821b905092915050565b600060088302620006f87fffffffffffffffffffffffffffffffffffffffffffffffffffffffffffffffff82620006b9565b620007048683620006b9565b95508019841693508086168417925050509392505050565b6000819050919050565b6000819050919050565b6000620007516200074b62000745846200071c565b62000726565b6200071c565b9050919050565b6000819050919050565b6200076d8362000730565b620007856200077c8262000758565b848454620006c6565b825550505050565b600090565b6200079c6200078d565b620007a981848462000762565b505050565b5b81811015620007d157620007c560008262000792565b600181019050620007af565b5050565b601f8211156200082057620007ea8162000694565b620007f584620006a9565b8101602085101562000805578190505b6200081d6200081485620006a9565b830182620007ae565b50505b505050565b600082821c905092915050565b6000620008456000198460080262000825565b1980831691505092915050565b600062000860838362000832565b9150826002028217905092915050565b6200087b82620005f6565b67ffffffffffffffff81111562000897576200089662000601565b5b620008a382546200065f565b620008b0828285620007d5565b600060209050601f831160018114620008e85760008415620008d3578287015190505b620008df858262000852565b8655506200094f565b601f198416620008f88662000694565b60005b828110156200092257848901518255600182019150602085019450602081019050620008fb565b868310156200094257848901516200093e601f89168262000832565b8355505b6001600288020188555050505b505050505050565b600082825260208201905092915050565b7f4f776e61626c653a2063616c6c6572206973206e6f7420746865206f776e6572600082015250565b6000620009a060208362000957565b9150620009ad8262000968565b602082019050919050565b60006020820190508181036000830152620009d38162000991565b9050919050565b614c2180620009ea6000396000f3fe6080604052600436106102035760003560e01c80638da5cb5b11610118578063c6f88d4a116100a0578063e7d0094d1161006f578063e7d0094d14610762578063e985e9c51461079f578063f242432a146107dc578063f2fde38b14610805578063fb5b82d01461082e57610203565b8063c6f88d4a14610694578063cbe15175146106d1578063d912a023146106fc578063e1a977ec1461072557610203565b8063a22cb465116100e7578063a22cb465146105c5578063a5ea8738146105ee578063ab9b7dcb14610617578063b390c0ab14610642578063bb12d5d81461066b57610203565b80638da5cb5b146105195780638e3ca348146105445780638f04cfa51461056f578063913e77ad1461059a57610203565b806331b5b9071161019b57806357e874021161016a57806357e87402146104645780636c0360eb1461048f578063715018a6146104ba5780637672e1b6146104d1578063853828b61461050f57610203565b806331b5b907146103aa578063427016d1146103d35780634636b951146103fe5780634e1273f41461042757610203565b80631b2ef1ca116101d75780631b2ef1ca146102ea5780631e8ddb37146103135780632dd883e81461033e5780632eb2c2d61461038157610203565b8062fdd58e1461020857806301ffc9a7146102455780630c077e95146102825780630e89341c146102ad575b600080fd5b34801561021457600080fd5b5061022f600480360381019061022a9190612ca5565b610857565b60405161023c9190612cf4565b60405180910390f35b34801561025157600080fd5b5061026c60048036038101906102679190612d67565b61091f565b6040516102799190612daf565b60405180910390f35b34801561028e57600080fd5b50610297610a01565b6040516102a49190612cf4565b60405180910390f35b3480156102b957600080fd5b506102d460048036038101906102cf9190612dca565b610a06565b6040516102e19190612e87565b60405180910390f35b3480156102f657600080fd5b50610311600480360381019061030c9190612ea9565b610a66565b005b34801561031f57600080fd5b50610328610cef565b6040516103359190612cf4565b60405180910390f35b34801561034a57600080fd5b5061036560048036038101906103609190612dca565b610cf4565b6040516103789796959493929190612ee9565b60405180910390f35b34801561038d57600080fd5b506103a860048036038101906103a3919061315c565b610dd8565b005b3480156103b657600080fd5b506103d160048036038101906103cc91906132cc565b610e79565b005b3480156103df57600080fd5b506103e8610e94565b6040516103f59190612cf4565b60405180910390f35b34801561040a57600080fd5b5061042560048036038101906104209190613341565b610e99565b005b34801561043357600080fd5b5061044e600480360381019061044991906134ad565b610f75565b60405161045b91906135e3565b60405180910390f35b34801561047057600080fd5b5061047961108e565b6040516104869190612cf4565b60405180910390f35b34801561049b57600080fd5b506104a4611093565b6040516104b19190612e87565b60405180910390f35b3480156104c657600080fd5b506104cf611121565b005b3480156104dd57600080fd5b506104f860048036038101906104f39190612ca5565b611135565b604051610506929190613605565b60405180910390f35b610517611166565b005b34801561052557600080fd5b5061052e6111d9565b60405161053b919061363d565b60405180910390f35b34801561055057600080fd5b50610559611203565b6040516105669190612cf4565b60405180910390f35b34801561057b57600080fd5b50610584611208565b6040516105919190612cf4565b60405180910390f35b3480156105a657600080fd5b506105af61120d565b6040516105bc9190613679565b60405180910390f35b3480156105d157600080fd5b506105ec60048036038101906105e79190613694565b611233565b005b3480156105fa57600080fd5b5061061560048036038101906106109190613785565b611249565b005b34801561062357600080fd5b5061062c6113bf565b6040516106399190612cf4565b60405180910390f35b34801561064e57600080fd5b5061066960048036038101906106649190612ea9565b6113c4565b005b34801561067757600080fd5b50610692600480360381019061068d9190612dca565b6114d4565b005b3480156106a057600080fd5b506106bb60048036038101906106b69190612dca565b611531565b6040516106c89190612daf565b60405180910390f35b3480156106dd57600080fd5b506106e661155e565b6040516106f39190612cf4565b60405180910390f35b34801561070857600080fd5b50610723600480360381019061071e9190612dca565b611563565b005b34801561073157600080fd5b5061074c60048036038101906107479190612ca5565b6115c0565b6040516107599190612cf4565b60405180910390f35b34801561076e57600080fd5b5061078960048036038101906107849190612dca565b61167c565b6040516107969190612daf565b60405180910390f35b3480156107ab57600080fd5b506107c660048036038101906107c1919061381a565b6116a9565b6040516107d39190612daf565b60405180910390f35b3480156107e857600080fd5b5061080360048036038101906107fe919061385a565b61173d565b005b34801561081157600080fd5b5061082c600480360381019061082791906138f1565b6117de565b005b34801561083a57600080fd5b506108556004803603810190610850919061394a565b611861565b005b60008073ffffffffffffffffffffffffffffffffffffffff168373ffffffffffffffffffffffffffffffffffffffff16036108c7576040517f08c379a00000000000000000000000000000000000000000000000000000000081526004016108be906139e9565b60405180910390fd5b60008083815260200190815260200160002060008473ffffffffffffffffffffffffffffffffffffffff1673ffffffffffffffffffffffffffffffffffffffff16815260200190815260200160002054905092915050565b60007fd9b67a26000000000000000000000000000000000000000000000000000000007bffffffffffffffffffffffffffffffffffffffffffffffffffffffff1916827bffffffffffffffffffffffffffffffffffffffffffffffffffffffff191614806109ea57507f0e89341c000000000000000000000000000000000000000000000000000000007bffffffffffffffffffffffffffffffffffffffffffffffffffffffff1916827bffffffffffffffffffffffffffffffffffffffffffffffffffffffff1916145b806109fa57506109f9826118ad565b5b9050919050565b600781565b6060600060058054610a1790613a38565b905011610a335760405180602001604052806000815250610a5f565b6005610a3e83611917565b604051602001610a4f929190613b3d565b6040516020818303038152906040525b9050919050565b80610a7133846115c0565b1015610ab2576040517f08c379a0000000000000000000000000000000000000000000000000000000008152600401610aa990613bad565b60405180910390fd5b6008600083815260200190815260200160002060030160009054906101000a900460ff16610b15576040517f08c379a0000000000000000000000000000000000000000000000000000000008152600401610b0c90613c19565b60405180910390fd5b6008600083815260200190815260200160002060040154816008600085815260200190815260200160002060020154610b4e9190613c68565b1115610b8f576040517f08c379a0000000000000000000000000000000000000000000000000000000008152600401610b8690613ce8565b60405180910390fd5b60086000838152602001908152602001600020600501544210610be7576040517f08c379a0000000000000000000000000000000000000000000000000000000008152600401610bde90613d54565b60405180910390fd5b80600760003373ffffffffffffffffffffffffffffffffffffffff1673ffffffffffffffffffffffffffffffffffffffff16815260200190815260200160002060008481526020019081526020016000206001016000828254610c4a9190613c68565b9250508190555080600860008481526020019081526020016000206002016000828254610c779190613c68565b92505081905550610c99338383604051806020016040528060008152506119e5565b3373ffffffffffffffffffffffffffffffffffffffff167f5a3358a3d27a5373c0df2604662088d37894d56b7cfd27f315770440f4e0d919428484604051610ce393929190613d74565b60405180910390a25050565b600481565b6008602052806000526040600020600091509050806000015490806001018054610d1d90613a38565b80601f0160208091040260200160405190810160405280929190818152602001828054610d4990613a38565b8015610d965780601f10610d6b57610100808354040283529160200191610d96565b820191906000526020600020905b815481529060010190602001808311610d7957829003601f168201915b5050505050908060020154908060030160009054906101000a900460ff16908060030160019054906101000a900460ff16908060040154908060050154905087565b610de0611b95565b73ffffffffffffffffffffffffffffffffffffffff168573ffffffffffffffffffffffffffffffffffffffff161480610e265750610e2585610e20611b95565b6116a9565b5b610e65576040517f08c379a0000000000000000000000000000000000000000000000000000000008152600401610e5c90613e1d565b60405180910390fd5b610e728585858585611b9d565b5050505050565b610e81611ebe565b8060059081610e909190613fd4565b5050565b600381565b610ea1611ebe565b6040518060e0016040528083815260200187815260200160008152602001861515815260200185151581526020018481526020018281525060086000848152602001908152602001600020600082015181600001556020820151816001019081610f0b9190613fd4565b506040820151816002015560608201518160030160006101000a81548160ff02191690831515021790555060808201518160030160016101000a81548160ff02191690831515021790555060a0820151816004015560c08201518160050155905050505050505050565b60608151835114610fbb576040517f08c379a0000000000000000000000000000000000000000000000000000000008152600401610fb290614118565b60405180910390fd5b6000835167ffffffffffffffff811115610fd857610fd7612f64565b5b6040519080825280602002602001820160405280156110065781602001602082028036833780820191505090505b50905060005b84518110156110835761105385828151811061102b5761102a614138565b5b602002602001015185838151811061104657611045614138565b5b6020026020010151610857565b82828151811061106657611065614138565b5b6020026020010181815250508061107c90614167565b905061100c565b508091505092915050565b600681565b600580546110a090613a38565b80601f01602080910402602001604051908101604052809291908181526020018280546110cc90613a38565b80156111195780601f106110ee57610100808354040283529160200191611119565b820191906000526020600020905b8154815290600101906020018083116110fc57829003601f168201915b505050505081565b611129611ebe565b6111336000611f3c565b565b6007602052816000526040600020602052806000526040600020600091509150508060000154908060010154905082565b61116e611ebe565b600660009054906101000a900473ffffffffffffffffffffffffffffffffffffffff1673ffffffffffffffffffffffffffffffffffffffff166108fc479081150290604051600060405180830381858888f193505050501580156111d6573d6000803e3d6000fd5b50565b6000600360009054906101000a900473ffffffffffffffffffffffffffffffffffffffff16905090565b600581565b600281565b600660009054906101000a900473ffffffffffffffffffffffffffffffffffffffff1681565b61124561123e611b95565b8383612002565b5050565b611251611ebe565b828290508585905014611299576040517f08c379a000000000000000000000000000000000000000000000000000000000815260040161129090614221565b60405180910390fd5b6000805b8686905081101561137a578484828181106112bb576112ba614138565b5b90506020020135600760008989858181106112d9576112d8614138565b5b90506020020160208101906112ee91906138f1565b73ffffffffffffffffffffffffffffffffffffffff1673ffffffffffffffffffffffffffffffffffffffff16815260200190815260200160002060008581526020019081526020016000206000018190555084848281811061135357611352614138565b5b90506020020135826113659190613c68565b9150808061137290614167565b91505061129d565b507fa82370edbf4f9f8ecf9132eb357d9a171e6cf346954298950049096aa5ac647086869050826040516113af929190613605565b60405180910390a1505050505050565b600881565b6008600083815260200190815260200160002060030160019054906101000a900460ff16611427576040517f08c379a000000000000000000000000000000000000000000000000000000000815260040161141e9061428d565b60405180910390fd5b806114323384610857565b1015611473576040517f08c379a000000000000000000000000000000000000000000000000000000000815260040161146a906142f9565b60405180910390fd5b61147e33838361216e565b3373ffffffffffffffffffffffffffffffffffffffff167f4c60206a5c1de41f3376d1d60f0949d96cb682033c90b1c2d9d9a62d4c4120c04284846040516114c893929190613d74565b60405180910390a25050565b6114dc611ebe565b6008600082815260200190815260200160002060030160009054906101000a900460ff16156008600083815260200190815260200160002060030160006101000a81548160ff02191690831515021790555050565b60006008600083815260200190815260200160002060030160019054906101000a900460ff169050919050565b600181565b61156b611ebe565b6008600082815260200190815260200160002060030160019054906101000a900460ff16156008600083815260200190815260200160002060030160016101000a81548160ff02191690831515021790555050565b6000600760008473ffffffffffffffffffffffffffffffffffffffff1673ffffffffffffffffffffffffffffffffffffffff168152602001908152602001600020600083815260200190815260200160002060010154600760008573ffffffffffffffffffffffffffffffffffffffff1673ffffffffffffffffffffffffffffffffffffffff1681526020019081526020016000206000848152602001908152602001600020600001546116749190614319565b905092915050565b60006008600083815260200190815260200160002060030160009054906101000a900460ff169050919050565b6000600160008473ffffffffffffffffffffffffffffffffffffffff1673ffffffffffffffffffffffffffffffffffffffff16815260200190815260200160002060008373ffffffffffffffffffffffffffffffffffffffff1673ffffffffffffffffffffffffffffffffffffffff16815260200190815260200160002060009054906101000a900460ff16905092915050565b611745611b95565b73ffffffffffffffffffffffffffffffffffffffff168573ffffffffffffffffffffffffffffffffffffffff16148061178b575061178a85611785611b95565b6116a9565b5b6117ca576040517f08c379a00000000000000000000000000000000000000000000000000000000081526004016117c190613e1d565b60405180910390fd5b6117d785858585856123b4565b5050505050565b6117e6611ebe565b600073ffffffffffffffffffffffffffffffffffffffff168173ffffffffffffffffffffffffffffffffffffffff1603611855576040517f08c379a000000000000000000000000000000000000000000000000000000000815260040161184c906143bf565b60405180910390fd5b61185e81611f3c565b50565b611869611ebe565b80600660006101000a81548173ffffffffffffffffffffffffffffffffffffffff021916908373ffffffffffffffffffffffffffffffffffffffff16021790555050565b60007f01ffc9a7000000000000000000000000000000000000000000000000000000007bffffffffffffffffffffffffffffffffffffffffffffffffffffffff1916827bffffffffffffffffffffffffffffffffffffffffffffffffffffffff1916149050919050565b6060600060016119268461264f565b01905060008167ffffffffffffffff81111561194557611944612f64565b5b6040519080825280601f01601f1916602001820160405280156119775781602001600182028036833780820191505090505b509050600082602001820190505b6001156119da578080600190039150507f3031323334353637383961626364656600000000000000000000000000000000600a86061a8153600a85816119ce576119cd6143df565b5b04945060008503611985575b819350505050919050565b600073ffffffffffffffffffffffffffffffffffffffff168473ffffffffffffffffffffffffffffffffffffffff1603611a54576040517f08c379a0000000000000000000000000000000000000000000000000000000008152600401611a4b90614480565b60405180910390fd5b6000611a5e611b95565b90506000611a6b856127a2565b90506000611a78856127a2565b9050611a898360008985858961281c565b8460008088815260200190815260200160002060008973ffffffffffffffffffffffffffffffffffffffff1673ffffffffffffffffffffffffffffffffffffffff1681526020019081526020016000206000828254611ae89190613c68565b925050819055508673ffffffffffffffffffffffffffffffffffffffff16600073ffffffffffffffffffffffffffffffffffffffff168473ffffffffffffffffffffffffffffffffffffffff167fc3d58168c5ae7397731d063d5bbf3d657854427343f4c083240f7aacaa2d0f628989604051611b66929190613605565b60405180910390a4611b7d83600089858589612824565b611b8c8360008989898961282c565b50505050505050565b600033905090565b8151835114611be1576040517f08c379a0000000000000000000000000000000000000000000000000000000008152600401611bd890614512565b60405180910390fd5b600073ffffffffffffffffffffffffffffffffffffffff168473ffffffffffffffffffffffffffffffffffffffff1603611c50576040517f08c379a0000000000000000000000000000000000000000000000000000000008152600401611c47906145a4565b60405180910390fd5b6000611c5a611b95565b9050611c6a81878787878761281c565b60005b8451811015611e1b576000858281518110611c8b57611c8a614138565b5b602002602001015190506000858381518110611caa57611ca9614138565b5b60200260200101519050600080600084815260200190815260200160002060008b73ffffffffffffffffffffffffffffffffffffffff1673ffffffffffffffffffffffffffffffffffffffff16815260200190815260200160002054905081811015611d4b576040517f08c379a0000000000000000000000000000000000000000000000000000000008152600401611d4290614636565b60405180910390fd5b81810360008085815260200190815260200160002060008c73ffffffffffffffffffffffffffffffffffffffff1673ffffffffffffffffffffffffffffffffffffffff168152602001908152602001600020819055508160008085815260200190815260200160002060008b73ffffffffffffffffffffffffffffffffffffffff1673ffffffffffffffffffffffffffffffffffffffff1681526020019081526020016000206000828254611e009190613c68565b9250508190555050505080611e1490614167565b9050611c6d565b508473ffffffffffffffffffffffffffffffffffffffff168673ffffffffffffffffffffffffffffffffffffffff168273ffffffffffffffffffffffffffffffffffffffff167f4a39dc06d4c0dbc64b70af90fd698a233a518aa5d07e595d983b8c0526c8f7fb8787604051611e92929190614656565b60405180910390a4611ea8818787878787612824565b611eb6818787878787612a03565b505050505050565b611ec6611b95565b73ffffffffffffffffffffffffffffffffffffffff16611ee46111d9565b73ffffffffffffffffffffffffffffffffffffffff1614611f3a576040517f08c379a0000000000000000000000000000000000000000000000000000000008152600401611f31906146d9565b60405180910390fd5b565b6000600360009054906101000a900473ffffffffffffffffffffffffffffffffffffffff16905081600360006101000a81548173ffffffffffffffffffffffffffffffffffffffff021916908373ffffffffffffffffffffffffffffffffffffffff1602179055508173ffffffffffffffffffffffffffffffffffffffff168173ffffffffffffffffffffffffffffffffffffffff167f8be0079c531659141344cd1fd0a4f28419497f9722a3daafe3b4186f6b6457e060405160405180910390a35050565b8173ffffffffffffffffffffffffffffffffffffffff168373ffffffffffffffffffffffffffffffffffffffff1603612070576040517f08c379a00000000000000000000000000000000000000000000000000000000081526004016120679061476b565b60405180910390fd5b80600160008573ffffffffffffffffffffffffffffffffffffffff1673ffffffffffffffffffffffffffffffffffffffff16815260200190815260200160002060008473ffffffffffffffffffffffffffffffffffffffff1673ffffffffffffffffffffffffffffffffffffffff16815260200190815260200160002060006101000a81548160ff0219169083151502179055508173ffffffffffffffffffffffffffffffffffffffff168373ffffffffffffffffffffffffffffffffffffffff167f17307eab39ab6107e8899845ad3d59bd9653f200f220920489ca2b5937696c31836040516121619190612daf565b60405180910390a3505050565b600073ffffffffffffffffffffffffffffffffffffffff168373ffffffffffffffffffffffffffffffffffffffff16036121dd576040517f08c379a00000000000000000000000000000000000000000000000000000000081526004016121d4906147fd565b60405180910390fd5b60006121e7611b95565b905060006121f4846127a2565b90506000612201846127a2565b90506122218387600085856040518060200160405280600081525061281c565b600080600087815260200190815260200160002060008873ffffffffffffffffffffffffffffffffffffffff1673ffffffffffffffffffffffffffffffffffffffff168152602001908152602001600020549050848110156122b8576040517f08c379a00000000000000000000000000000000000000000000000000000000081526004016122af9061488f565b60405180910390fd5b84810360008088815260200190815260200160002060008973ffffffffffffffffffffffffffffffffffffffff1673ffffffffffffffffffffffffffffffffffffffff16815260200190815260200160002081905550600073ffffffffffffffffffffffffffffffffffffffff168773ffffffffffffffffffffffffffffffffffffffff168573ffffffffffffffffffffffffffffffffffffffff167fc3d58168c5ae7397731d063d5bbf3d657854427343f4c083240f7aacaa2d0f628989604051612385929190613605565b60405180910390a46123ab84886000868660405180602001604052806000815250612824565b50505050505050565b600073ffffffffffffffffffffffffffffffffffffffff168473ffffffffffffffffffffffffffffffffffffffff1603612423576040517f08c379a000000000000000000000000000000000000000000000000000000000815260040161241a906145a4565b60405180910390fd5b600061242d611b95565b9050600061243a856127a2565b90506000612447856127a2565b905061245783898985858961281c565b600080600088815260200190815260200160002060008a73ffffffffffffffffffffffffffffffffffffffff1673ffffffffffffffffffffffffffffffffffffffff168152602001908152602001600020549050858110156124ee576040517f08c379a00000000000000000000000000000000000000000000000000000000081526004016124e590614636565b60405180910390fd5b85810360008089815260200190815260200160002060008b73ffffffffffffffffffffffffffffffffffffffff1673ffffffffffffffffffffffffffffffffffffffff168152602001908152602001600020819055508560008089815260200190815260200160002060008a73ffffffffffffffffffffffffffffffffffffffff1673ffffffffffffffffffffffffffffffffffffffff16815260200190815260200160002060008282546125a39190613c68565b925050819055508773ffffffffffffffffffffffffffffffffffffffff168973ffffffffffffffffffffffffffffffffffffffff168573ffffffffffffffffffffffffffffffffffffffff167fc3d58168c5ae7397731d063d5bbf3d657854427343f4c083240f7aacaa2d0f628a8a604051612620929190613605565b60405180910390a4612636848a8a86868a612824565b612644848a8a8a8a8a61282c565b505050505050505050565b600080600090507a184f03e93ff9f4daa797ed6e38ed64bf6a1f01000000000000000083106126ad577a184f03e93ff9f4daa797ed6e38ed64bf6a1f01000000000000000083816126a3576126a26143df565b5b0492506040810190505b6d04ee2d6d415b85acef810000000083106126ea576d04ee2d6d415b85acef810000000083816126e0576126df6143df565b5b0492506020810190505b662386f26fc10000831061271957662386f26fc10000838161270f5761270e6143df565b5b0492506010810190505b6305f5e1008310612742576305f5e1008381612738576127376143df565b5b0492506008810190505b612710831061276757612710838161275d5761275c6143df565b5b0492506004810190505b6064831061278a57606483816127805761277f6143df565b5b0492506002810190505b600a8310612799576001810190505b80915050919050565b60606000600167ffffffffffffffff8111156127c1576127c0612f64565b5b6040519080825280602002602001820160405280156127ef5781602001602082028036833780820191505090505b509050828160008151811061280757612806614138565b5b60200260200101818152505080915050919050565b505050505050565b505050505050565b61284b8473ffffffffffffffffffffffffffffffffffffffff16612bda565b156129fb578373ffffffffffffffffffffffffffffffffffffffff1663f23a6e6187878686866040518663ffffffff1660e01b8152600401612891959493929190614904565b6020604051808303816000875af19250505080156128cd57506040513d601f19601f820116820180604052508101906128ca9190614973565b60015b612972576128d96149ad565b806308c379a00361293557506128ed6149cf565b806128f85750612937565b806040517f08c379a000000000000000000000000000000000000000000000000000000000815260040161292c9190612e87565b60405180910390fd5b505b6040517f08c379a000000000000000000000000000000000000000000000000000000000815260040161296990614ad1565b60405180910390fd5b63f23a6e6160e01b7bffffffffffffffffffffffffffffffffffffffffffffffffffffffff1916817bffffffffffffffffffffffffffffffffffffffffffffffffffffffff1916146129f9576040517f08c379a00000000000000000000000000000000000000000000000000000000081526004016129f090614b63565b60405180910390fd5b505b505050505050565b612a228473ffffffffffffffffffffffffffffffffffffffff16612bda565b15612bd2578373ffffffffffffffffffffffffffffffffffffffff1663bc197c8187878686866040518663ffffffff1660e01b8152600401612a68959493929190614b83565b6020604051808303816000875af1925050508015612aa457506040513d601f19601f82011682018060405250810190612aa19190614973565b60015b612b4957612ab06149ad565b806308c379a003612b0c5750612ac46149cf565b80612acf5750612b0e565b806040517f08c379a0000000000000000000000000000000000000000000000000000000008152600401612b039190612e87565b60405180910390fd5b505b6040517f08c379a0000000000000000000000000000000000000000000000000000000008152600401612b4090614ad1565b60405180910390fd5b63bc197c8160e01b7bffffffffffffffffffffffffffffffffffffffffffffffffffffffff1916817bffffffffffffffffffffffffffffffffffffffffffffffffffffffff191614612bd0576040517f08c379a0000000000000000000000000000000000000000000000000000000008152600401612bc790614b63565b60405180910390fd5b505b505050505050565b6000808273ffffffffffffffffffffffffffffffffffffffff163b119050919050565b6000604051905090565b600080fd5b600080fd5b600073ffffffffffffffffffffffffffffffffffffffff82169050919050565b6000612c3c82612c11565b9050919050565b612c4c81612c31565b8114612c5757600080fd5b50565b600081359050612c6981612c43565b92915050565b6000819050919050565b612c8281612c6f565b8114612c8d57600080fd5b50565b600081359050612c9f81612c79565b92915050565b60008060408385031215612cbc57612cbb612c07565b5b6000612cca85828601612c5a565b9250506020612cdb85828601612c90565b9150509250929050565b612cee81612c6f565b82525050565b6000602082019050612d096000830184612ce5565b92915050565b60007fffffffff0000000000000000000000000000000000000000000000000000000082169050919050565b612d4481612d0f565b8114612d4f57600080fd5b50565b600081359050612d6181612d3b565b92915050565b600060208284031215612d7d57612d7c612c07565b5b6000612d8b84828501612d52565b91505092915050565b60008115159050919050565b612da981612d94565b82525050565b6000602082019050612dc46000830184612da0565b92915050565b600060208284031215612de057612ddf612c07565b5b6000612dee84828501612c90565b91505092915050565b600081519050919050565b600082825260208201905092915050565b60005b83811015612e31578082015181840152602081019050612e16565b60008484015250505050565b6000601f19601f8301169050919050565b6000612e5982612df7565b612e638185612e02565b9350612e73818560208601612e13565b612e7c81612e3d565b840191505092915050565b60006020820190508181036000830152612ea18184612e4e565b905092915050565b60008060408385031215612ec057612ebf612c07565b5b6000612ece85828601612c90565b9250506020612edf85828601612c90565b9150509250929050565b600060e082019050612efe600083018a612ce5565b8181036020830152612f108189612e4e565b9050612f1f6040830188612ce5565b612f2c6060830187612da0565b612f396080830186612da0565b612f4660a0830185612ce5565b612f5360c0830184612ce5565b98975050505050505050565b600080fd5b7f4e487b7100000000000000000000000000000000000000000000000000000000600052604160045260246000fd5b612f9c82612e3d565b810181811067ffffffffffffffff82111715612fbb57612fba612f64565b5b80604052505050565b6000612fce612bfd565b9050612fda8282612f93565b919050565b600067ffffffffffffffff821115612ffa57612ff9612f64565b5b602082029050602081019050919050565b600080fd5b600061302361301e84612fdf565b612fc4565b905080838252602082019050602084028301858111156130465761304561300b565b5b835b8181101561306f578061305b8882612c90565b845260208401935050602081019050613048565b5050509392505050565b600082601f83011261308e5761308d612f5f565b5b813561309e848260208601613010565b91505092915050565b600080fd5b600067ffffffffffffffff8211156130c7576130c6612f64565b5b6130d082612e3d565b9050602081019050919050565b82818337600083830152505050565b60006130ff6130fa846130ac565b612fc4565b90508281526020810184848401111561311b5761311a6130a7565b5b6131268482856130dd565b509392505050565b600082601f83011261314357613142612f5f565b5b81356131538482602086016130ec565b91505092915050565b600080600080600060a0868803121561317857613177612c07565b5b600061318688828901612c5a565b955050602061319788828901612c5a565b945050604086013567ffffffffffffffff8111156131b8576131b7612c0c565b5b6131c488828901613079565b935050606086013567ffffffffffffffff8111156131e5576131e4612c0c565b5b6131f188828901613079565b925050608086013567ffffffffffffffff81111561321257613211612c0c565b5b61321e8882890161312e565b9150509295509295909350565b600067ffffffffffffffff82111561324657613245612f64565b5b61324f82612e3d565b9050602081019050919050565b600061326f61326a8461322b565b612fc4565b90508281526020810184848401111561328b5761328a6130a7565b5b6132968482856130dd565b509392505050565b600082601f8301126132b3576132b2612f5f565b5b81356132c384826020860161325c565b91505092915050565b6000602082840312156132e2576132e1612c07565b5b600082013567ffffffffffffffff811115613300576132ff612c0c565b5b61330c8482850161329e565b91505092915050565b61331e81612d94565b811461332957600080fd5b50565b60008135905061333b81613315565b92915050565b60008060008060008060c0878903121561335e5761335d612c07565b5b600087013567ffffffffffffffff81111561337c5761337b612c0c565b5b61338889828a0161329e565b965050602061339989828a0161332c565b95505060406133aa89828a0161332c565b94505060606133bb89828a01612c90565b93505060806133cc89828a01612c90565b92505060a06133dd89828a01612c90565b9150509295509295509295565b600067ffffffffffffffff82111561340557613404612f64565b5b602082029050602081019050919050565b6000613429613424846133ea565b612fc4565b9050808382526020820190506020840283018581111561344c5761344b61300b565b5b835b8181101561347557806134618882612c5a565b84526020840193505060208101905061344e565b5050509392505050565b600082601f83011261349457613493612f5f565b5b81356134a4848260208601613416565b91505092915050565b600080604083850312156134c4576134c3612c07565b5b600083013567ffffffffffffffff8111156134e2576134e1612c0c565b5b6134ee8582860161347f565b925050602083013567ffffffffffffffff81111561350f5761350e612c0c565b5b61351b85828601613079565b9150509250929050565b600081519050919050565b600082825260208201905092915050565b6000819050602082019050919050565b61355a81612c6f565b82525050565b600061356c8383613551565b60208301905092915050565b6000602082019050919050565b600061359082613525565b61359a8185613530565b93506135a583613541565b8060005b838110156135d65781516135bd8882613560565b97506135c883613578565b9250506001810190506135a9565b5085935050505092915050565b600060208201905081810360008301526135fd8184613585565b905092915050565b600060408201905061361a6000830185612ce5565b6136276020830184612ce5565b9392505050565b61363781612c31565b82525050565b6000602082019050613652600083018461362e565b92915050565b600061366382612c11565b9050919050565b61367381613658565b82525050565b600060208201905061368e600083018461366a565b92915050565b600080604083850312156136ab576136aa612c07565b5b60006136b985828601612c5a565b92505060206136ca8582860161332c565b9150509250929050565b600080fd5b60008083601f8401126136ef576136ee612f5f565b5b8235905067ffffffffffffffff81111561370c5761370b6136d4565b5b6020830191508360208202830111156137285761372761300b565b5b9250929050565b60008083601f84011261374557613744612f5f565b5b8235905067ffffffffffffffff811115613762576137616136d4565b5b60208301915083602082028301111561377e5761377d61300b565b5b9250929050565b6000806000806000606086880312156137a1576137a0612c07565b5b600086013567ffffffffffffffff8111156137bf576137be612c0c565b5b6137cb888289016136d9565b9550955050602086013567ffffffffffffffff8111156137ee576137ed612c0c565b5b6137fa8882890161372f565b9350935050604061380d88828901612c90565b9150509295509295909350565b6000806040838503121561383157613830612c07565b5b600061383f85828601612c5a565b925050602061385085828601612c5a565b9150509250929050565b600080600080600060a0868803121561387657613875612c07565b5b600061388488828901612c5a565b955050602061389588828901612c5a565b94505060406138a688828901612c90565b93505060606138b788828901612c90565b925050608086013567ffffffffffffffff8111156138d8576138d7612c0c565b5b6138e48882890161312e565b9150509295509295909350565b60006020828403121561390757613906612c07565b5b600061391584828501612c5a565b91505092915050565b61392781613658565b811461393257600080fd5b50565b6000813590506139448161391e565b92915050565b6000602082840312156139605761395f612c07565b5b600061396e84828501613935565b91505092915050565b7f455243313135353a2061646472657373207a65726f206973206e6f742061207660008201527f616c6964206f776e657200000000000000000000000000000000000000000000602082015250565b60006139d3602a83612e02565b91506139de82613977565b604082019050919050565b60006020820190508181036000830152613a02816139c6565b9050919050565b7f4e487b7100000000000000000000000000000000000000000000000000000000600052602260045260246000fd5b60006002820490506001821680613a5057607f821691505b602082108103613a6357613a62613a09565b5b50919050565b600081905092915050565b60008190508160005260206000209050919050565b60008154613a9681613a38565b613aa08186613a69565b94506001821660008114613abb5760018114613ad057613b03565b60ff1983168652811515820286019350613b03565b613ad985613a74565b60005b83811015613afb57815481890152600182019150602081019050613adc565b838801955050505b50505092915050565b6000613b1782612df7565b613b218185613a69565b9350613b31818560208601612e13565b80840191505092915050565b6000613b498285613a89565b9150613b558284613b0c565b91508190509392505050565b7f5175616e746974792067726561746572207468616e2072656d61696e696e6700600082015250565b6000613b97601f83612e02565b9150613ba282613b61565b602082019050919050565b60006020820190508181036000830152613bc681613b8a565b9050919050565b7f546f6b656e2072657761726420636c6f73650000000000000000000000000000600082015250565b6000613c03601283612e02565b9150613c0e82613bcd565b602082019050919050565b60006020820190508181036000830152613c3281613bf6565b9050919050565b7f4e487b7100000000000000000000000000000000000000000000000000000000600052601160045260246000fd5b6000613c7382612c6f565b9150613c7e83612c6f565b9250828201905080821115613c9657613c95613c39565b5b92915050565b7f4e6f7420656e6f75676820737570706c79000000000000000000000000000000600082015250565b6000613cd2601183612e02565b9150613cdd82613c9c565b602082019050919050565b60006020820190508181036000830152613d0181613cc5565b9050919050565b7f486f6c64696e6720726577617264206d696e7420636c6f736500000000000000600082015250565b6000613d3e601983612e02565b9150613d4982613d08565b602082019050919050565b60006020820190508181036000830152613d6d81613d31565b9050919050565b6000606082019050613d896000830186612ce5565b613d966020830185612ce5565b613da36040830184612ce5565b949350505050565b7f455243313135353a2063616c6c6572206973206e6f7420746f6b656e206f776e60008201527f6572206f7220617070726f766564000000000000000000000000000000000000602082015250565b6000613e07602e83612e02565b9150613e1282613dab565b604082019050919050565b60006020820190508181036000830152613e3681613dfa565b9050919050565b60006020601f8301049050919050565b600082821b905092915050565b600060088302613e8a7fffffffffffffffffffffffffffffffffffffffffffffffffffffffffffffffff82613e4d565b613e948683613e4d565b95508019841693508086168417925050509392505050565b6000819050919050565b6000613ed1613ecc613ec784612c6f565b613eac565b612c6f565b9050919050565b6000819050919050565b613eeb83613eb6565b613eff613ef782613ed8565b848454613e5a565b825550505050565b600090565b613f14613f07565b613f1f818484613ee2565b505050565b5b81811015613f4357613f38600082613f0c565b600181019050613f25565b5050565b601f821115613f8857613f5981613a74565b613f6284613e3d565b81016020851015613f71578190505b613f85613f7d85613e3d565b830182613f24565b50505b505050565b600082821c905092915050565b6000613fab60001984600802613f8d565b1980831691505092915050565b6000613fc48383613f9a565b9150826002028217905092915050565b613fdd82612df7565b67ffffffffffffffff811115613ff657613ff5612f64565b5b6140008254613a38565b61400b828285613f47565b600060209050601f83116001811461403e576000841561402c578287015190505b6140368582613fb8565b86555061409e565b601f19841661404c86613a74565b60005b828110156140745784890151825560018201915060208501945060208101905061404f565b86831015614091578489015161408d601f891682613f9a565b8355505b6001600288020188555050505b505050505050565b7f455243313135353a206163636f756e747320616e6420696473206c656e67746860008201527f206d69736d617463680000000000000000000000000000000000000000000000602082015250565b6000614102602983612e02565b915061410d826140a6565b604082019050919050565b60006020820190508181036000830152614131816140f5565b9050919050565b7f4e487b7100000000000000000000000000000000000000000000000000000000600052603260045260246000fd5b600061417282612c6f565b91507fffffffffffffffffffffffffffffffffffffffffffffffffffffffffffffffff82036141a4576141a3613c39565b5b600182019050919050565b7f4e62206164647265737320616e64206e62207175616e746974696573206d757360008201527f7420626520657175616c00000000000000000000000000000000000000000000602082015250565b600061420b602a83612e02565b9150614216826141af565b604082019050919050565b6000602082019050818103600083015261423a816141fe565b9050919050565b7f43616e74206275726e20746f6b656e0000000000000000000000000000000000600082015250565b6000614277600f83612e02565b915061428282614241565b602082019050919050565b600060208201905081810360008301526142a68161426a565b9050919050565b7f4e6f7420656e6f7567687420746f6b656e20746f206275726e00000000000000600082015250565b60006142e3601983612e02565b91506142ee826142ad565b602082019050919050565b60006020820190508181036000830152614312816142d6565b9050919050565b600061432482612c6f565b915061432f83612c6f565b925082820390508181111561434757614346613c39565b5b92915050565b7f4f776e61626c653a206e6577206f776e657220697320746865207a65726f206160008201527f6464726573730000000000000000000000000000000000000000000000000000602082015250565b60006143a9602683612e02565b91506143b48261434d565b604082019050919050565b600060208201905081810360008301526143d88161439c565b9050919050565b7f4e487b7100000000000000000000000000000000000000000000000000000000600052601260045260246000fd5b7f455243313135353a206d696e7420746f20746865207a65726f2061646472657360008201527f7300000000000000000000000000000000000000000000000000000000000000602082015250565b600061446a602183612e02565b91506144758261440e565b604082019050919050565b600060208201905081810360008301526144998161445d565b9050919050565b7f455243313135353a2069647320616e6420616d6f756e7473206c656e6774682060008201527f6d69736d61746368000000000000000000000000000000000000000000000000602082015250565b60006144fc602883612e02565b9150614507826144a0565b604082019050919050565b6000602082019050818103600083015261452b816144ef565b9050919050565b7f455243313135353a207472616e7366657220746f20746865207a65726f20616460008201527f6472657373000000000000000000000000000000000000000000000000000000602082015250565b600061458e602583612e02565b915061459982614532565b604082019050919050565b600060208201905081810360008301526145bd81614581565b9050919050565b7f455243313135353a20696e73756666696369656e742062616c616e636520666f60008201527f72207472616e7366657200000000000000000000000000000000000000000000602082015250565b6000614620602a83612e02565b915061462b826145c4565b604082019050919050565b6000602082019050818103600083015261464f81614613565b9050919050565b600060408201905081810360008301526146708185613585565b905081810360208301526146848184613585565b90509392505050565b7f4f776e61626c653a2063616c6c6572206973206e6f7420746865206f776e6572600082015250565b60006146c3602083612e02565b91506146ce8261468d565b602082019050919050565b600060208201905081810360008301526146f2816146b6565b9050919050565b7f455243313135353a2073657474696e6720617070726f76616c2073746174757360008201527f20666f722073656c660000000000000000000000000000000000000000000000602082015250565b6000614755602983612e02565b9150614760826146f9565b604082019050919050565b6000602082019050818103600083015261478481614748565b9050919050565b7f455243313135353a206275726e2066726f6d20746865207a65726f206164647260008201527f6573730000000000000000000000000000000000000000000000000000000000602082015250565b60006147e7602383612e02565b91506147f28261478b565b604082019050919050565b60006020820190508181036000830152614816816147da565b9050919050565b7f455243313135353a206275726e20616d6f756e7420657863656564732062616c60008201527f616e636500000000000000000000000000000000000000000000000000000000602082015250565b6000614879602483612e02565b91506148848261481d565b604082019050919050565b600060208201905081810360008301526148a88161486c565b9050919050565b600081519050919050565b600082825260208201905092915050565b60006148d6826148af565b6148e081856148ba565b93506148f0818560208601612e13565b6148f981612e3d565b840191505092915050565b600060a082019050614919600083018861362e565b614926602083018761362e565b6149336040830186612ce5565b6149406060830185612ce5565b818103608083015261495281846148cb565b90509695505050505050565b60008151905061496d81612d3b565b92915050565b60006020828403121561498957614988612c07565b5b60006149978482850161495e565b91505092915050565b60008160e01c9050919050565b600060033d11156149cc5760046000803e6149c96000516149a0565b90505b90565b600060443d10614a5c576149e1612bfd565b60043d036004823e80513d602482011167ffffffffffffffff82111715614a09575050614a5c565b808201805167ffffffffffffffff811115614a275750505050614a5c565b80602083010160043d038501811115614a44575050505050614a5c565b614a5382602001850186612f93565b82955050505050505b90565b7f455243313135353a207472616e7366657220746f206e6f6e2d4552433131353560008201527f526563656976657220696d706c656d656e746572000000000000000000000000602082015250565b6000614abb603483612e02565b9150614ac682614a5f565b604082019050919050565b60006020820190508181036000830152614aea81614aae565b9050919050565b7f455243313135353a204552433131353552656365697665722072656a6563746560008201527f6420746f6b656e73000000000000000000000000000000000000000000000000602082015250565b6000614b4d602883612e02565b9150614b5882614af1565b604082019050919050565b60006020820190508181036000830152614b7c81614b40565b9050919050565b600060a082019050614b98600083018861362e565b614ba5602083018761362e565b8181036040830152614bb78186613585565b90508181036060830152614bcb8185613585565b90508181036080830152614bdf81846148cb565b9050969550505050505056fea26469706673582212208f72623015a65b11ce17d73d7a8e76f26137e8a0ba5385b52dbe689e5cb4320864736f6c6343000813003368747470733a2f2f6d6574616c6567656e64732e6d7970696e6174612e636c6f75642f697066732f516d506e5533316a3448554d7a585364316f53434a4c6859576a715a46417758356b5a566b57597a7242527a47442f",
  "immutableReferences": {},
  "source": "// SPDX-License-Identifier: MIT\npragma solidity 0.8.19;\n\nimport \"@openzeppelin/contracts/token/ERC1155/ERC1155.sol\";\nimport \"@openzeppelin/contracts/utils/Strings.sol\";\nimport \"@openzeppelin/contracts/access/Ownable.sol\";\nimport \"@openzeppelin/contracts/security/ReentrancyGuard.sol\";\n\n/// @title Meta-Life: Holding reward\n/// @author Hando Masahashi\n/// @notice This smart contract is used for reward holders\ncontract LegendsZoneRewards is ERC1155, Ownable, ReentrancyGuard {\n\n    using Strings for uint256;\n    string public baseURI = \"\";\n\n    uint256 public constant ID_CYBER_WEAPON = 1;\n    uint256 public constant ID_CYBER_ARMOR = 2;\n    uint256 public constant ID_ROUGH_PET = 3;\n    uint256 public constant ID_ROBOTER_WEAPON = 4;\n    uint256 public constant ID_MATRIX_ANGEL_CAR = 5;\n    uint256 public constant ID_ML_NETWORK_PASS = 6;\n    uint256 public constant ID_PARTICLE_COSMETIC_EFFECT = 7;\n    uint256 public constant ID_SHADOW_GEM = 8;\n\n    address payable public collector;\n\n    struct TokenReward {\n        uint256 id;\n        string name;\n        uint256 totalSupply;\n        bool mintable;\n        bool burnable;\n        uint256 maxSupply;\n        uint256 expireAt;\n    }\n\n    struct Eligibility {\n        uint256 total;\n        uint256 claimed;\n    }\n\n    mapping(address => mapping(uint256 => Eligibility)) public holderEligibilities;\n    mapping(uint256 => TokenReward) public tokenCollection;\n\n    event AddedEligibility(uint256 countAddresses, uint256 total);\n    event Minted(address indexed from, uint256 timestamp, uint256 tokenId, uint256 quantity);\n    event Burned(address indexed from, uint256 timestamp, uint256 tokenId, uint256 quantity);\n\n    constructor() ERC1155(\"\") {\n        baseURI = \"https://metalegends.mypinata.cloud/ipfs/QmPnU31j4HUMzXSd1oSCJLhYWjqZFAwX5kZVkWYzrBRzGD/\";\n        collector = payable(msg.sender);\n        // expire at 2024 06 30\n        uint256 expireAt = 1719784799;\n        addToken(\"cyber-weapon\", true, false, 15000, ID_CYBER_WEAPON, expireAt);\n        addToken(\"cyber-armor\", false, false, 15000, ID_CYBER_ARMOR, expireAt);\n        addToken(\"rough-pet\", false, false, 15000, ID_ROUGH_PET, expireAt);\n        addToken(\"roboter-weapon\",  false, false, 15000, ID_ROBOTER_WEAPON, expireAt);\n        addToken(\"matrix-angel-car\", false, false, 15000, ID_MATRIX_ANGEL_CAR, expireAt);\n        addToken(\"ml-network-pass\", false, false, 12000, ID_ML_NETWORK_PASS, expireAt);\n        addToken(\"particle-cosmetic-effect\", false, false, 12000, ID_PARTICLE_COSMETIC_EFFECT, expireAt);\n        addToken(\"shadow-gem\", false, false, 8000, ID_SHADOW_GEM, expireAt);\n    }\n\n    function withdrawAll() public payable onlyOwner {\n        collector.transfer(address(this).balance);\n    }\n\n    function setCollector(address payable _newCollector) public onlyOwner {\n        collector = _newCollector;\n    }\n\n    function toggleTokenMint(uint256 _tokenId) public onlyOwner {\n        tokenCollection[_tokenId].mintable = !tokenCollection[_tokenId].mintable;\n    }\n\n    function toggleTokenBurnable(uint256 _tokenId) public onlyOwner {\n        tokenCollection[_tokenId].burnable = !tokenCollection[_tokenId].burnable;\n    }\n\n    function getTokenRewardStatus(uint256 _tokenId) public view returns (bool) {\n        return tokenCollection[_tokenId].mintable;\n    }\n\n    function isBurnable(uint256 _tokenId) public view returns (bool) {\n        return tokenCollection[_tokenId].burnable;\n    }\n\n    function remaining(address wallet, uint256 _tokenId) public view virtual returns (uint256) {\n        return holderEligibilities[wallet][_tokenId].total - holderEligibilities[wallet][_tokenId].claimed;\n    }\n\n    function _setBaseURI(string memory _newBaseURI) public onlyOwner {\n        baseURI = _newBaseURI;\n    }\n\n    function _baseURI() internal view virtual returns (string memory) {\n        return baseURI;\n    }\n\n    function uri(uint256 _tokenId) public view virtual override returns (string memory) {\n        return bytes(baseURI).length > 0 ? string(abi.encodePacked(baseURI, _tokenId.toString())) : \"\";\n    }\n\n    function addToken(string memory _name, bool _mintable, bool _burnable, uint256 _maxSupply, uint256 _id, uint256 _expireAt) public onlyOwner {\n        tokenCollection[_id] = TokenReward({\n            id: _id,\n            name: _name,\n            totalSupply: 0,\n            mintable: _mintable,\n            burnable: _burnable,\n            maxSupply: _maxSupply,\n            expireAt: _expireAt\n        });\n    }\n\n    function addEligilities(address[] calldata _toAddAddresses, uint256[] calldata _quantities, uint256 _tokenId)  external onlyOwner {\n        require(_toAddAddresses.length == _quantities.length, \"Nb address and nb quantities must be equal\");\n\n        uint256 total = 0;\n        for (uint256 i = 0; i < _toAddAddresses.length; i++) {\n            holderEligibilities[_toAddAddresses[i]][_tokenId].total = _quantities[i];\n            total += _quantities[i];\n        }\n\n        emit AddedEligibility(_toAddAddresses.length, total);\n    }\n\n    function mint(uint256 _tokenId, uint256 _quantity) external {\n        require(remaining(msg.sender, _tokenId) >= _quantity, \"Quantity greater than remaining\");\n        require(tokenCollection[_tokenId].mintable, \"Token reward close\");\n        require(tokenCollection[_tokenId].totalSupply + _quantity <= tokenCollection[_tokenId].maxSupply, \"Not enough supply\");\n        require(block.timestamp < tokenCollection[_tokenId].expireAt, \"Holding reward mint close\");\n        holderEligibilities[msg.sender][_tokenId].claimed += _quantity;\n        tokenCollection[_tokenId].totalSupply += _quantity;\n        _mint(msg.sender, _tokenId, _quantity, \"\");\n\n        emit Minted(msg.sender, block.timestamp, _tokenId, _quantity);\n    }\n\n    function burn(uint256 _tokenId, uint256 _quantity) external {\n        require(tokenCollection[_tokenId].burnable, \"Cant burn token\");\n        require(balanceOf(msg.sender, _tokenId) >= _quantity, \"Not enought token to burn\");\n\n        _burn(msg.sender, _tokenId, _quantity);\n\n        emit Burned(msg.sender, block.timestamp, _tokenId, _quantity);\n    }\n}\n",
  "sourcePath": "/Users/rchea/workspaces/MetaLegends/contract-holding-rewards/contracts/LegendsZoneRewards.sol",
  "compiler": {
    "name": "solc",
    "version": "0.8.19+commit.7dd6d404.Emscripten.clang"
  },
  "schemaVersion": "3.4.13",
  "updatedAt": "2023-09-11T04:34:19.710Z",
  "networkType": "ethereum",
  "devdoc": {
    "author": "Hando Masahashi",
    "events": {
      "ApprovalForAll(address,address,bool)": {
        "details": "Emitted when `account` grants or revokes permission to `operator` to transfer their tokens, according to `approved`."
      },
      "TransferBatch(address,address,address,uint256[],uint256[])": {
        "details": "Equivalent to multiple {TransferSingle} events, where `operator`, `from` and `to` are the same for all transfers."
      },
      "TransferSingle(address,address,address,uint256,uint256)": {
        "details": "Emitted when `value` tokens of token type `id` are transferred from `from` to `to` by `operator`."
      },
      "URI(string,uint256)": {
        "details": "Emitted when the URI for token type `id` changes to `value`, if it is a non-programmatic URI. If an {URI} event was emitted for `id`, the standard https://eips.ethereum.org/EIPS/eip-1155#metadata-extensions[guarantees] that `value` will equal the value returned by {IERC1155MetadataURI-uri}."
      }
    },
    "kind": "dev",
    "methods": {
      "balanceOf(address,uint256)": {
        "details": "See {IERC1155-balanceOf}. Requirements: - `account` cannot be the zero address."
      },
      "balanceOfBatch(address[],uint256[])": {
        "details": "See {IERC1155-balanceOfBatch}. Requirements: - `accounts` and `ids` must have the same length."
      },
      "isApprovedForAll(address,address)": {
        "details": "See {IERC1155-isApprovedForAll}."
      },
      "owner()": {
        "details": "Returns the address of the current owner."
      },
      "renounceOwnership()": {
        "details": "Leaves the contract without owner. It will not be possible to call `onlyOwner` functions. Can only be called by the current owner. NOTE: Renouncing ownership will leave the contract without an owner, thereby disabling any functionality that is only available to the owner."
      },
      "safeBatchTransferFrom(address,address,uint256[],uint256[],bytes)": {
        "details": "See {IERC1155-safeBatchTransferFrom}."
      },
      "safeTransferFrom(address,address,uint256,uint256,bytes)": {
        "details": "See {IERC1155-safeTransferFrom}."
      },
      "setApprovalForAll(address,bool)": {
        "details": "See {IERC1155-setApprovalForAll}."
      },
      "supportsInterface(bytes4)": {
        "details": "See {IERC165-supportsInterface}."
      },
      "transferOwnership(address)": {
        "details": "Transfers ownership of the contract to a new account (`newOwner`). Can only be called by the current owner."
      }
    },
    "title": "Meta-Life: Holding reward",
    "version": 1
  },
  "userdoc": {
    "kind": "user",
    "methods": {},
    "notice": "This smart contract is used for reward holders",
    "version": 1
  }
}