{
  "contractName": "LegendsZoneRewards",
  "abi": [
    {
      "inputs": [],
      "stateMutability": "nonpayable",
      "type": "constructor"
    },
    {
      "anonymous": false,
      "inputs": [
        {
          "indexed": false,
          "internalType": "uint256",
          "name": "countAddresses",
          "type": "uint256"
        },
        {
          "indexed": false,
          "internalType": "uint256",
          "name": "total",
          "type": "uint256"
        }
      ],
      "name": "AddedEligibility",
      "type": "event"
    },
    {
      "anonymous": false,
      "inputs": [
        {
          "indexed": true,
          "internalType": "address",
          "name": "account",
          "type": "address"
        },
        {
          "indexed": true,
          "internalType": "address",
          "name": "operator",
          "type": "address"
        },
        {
          "indexed": false,
          "internalType": "bool",
          "name": "approved",
          "type": "bool"
        }
      ],
      "name": "ApprovalForAll",
      "type": "event"
    },
    {
      "anonymous": false,
      "inputs": [
        {
          "indexed": true,
          "internalType": "address",
          "name": "from",
          "type": "address"
        },
        {
          "indexed": false,
          "internalType": "uint256",
          "name": "timestamp",
          "type": "uint256"
        },
        {
          "indexed": false,
          "internalType": "uint256",
          "name": "tokenId",
          "type": "uint256"
        },
        {
          "indexed": false,
          "internalType": "uint256",
          "name": "quantity",
          "type": "uint256"
        }
      ],
      "name": "Burned",
      "type": "event"
    },
    {
      "anonymous": false,
      "inputs": [
        {
          "indexed": true,
          "internalType": "address",
          "name": "from",
          "type": "address"
        },
        {
          "indexed": false,
          "internalType": "uint256",
          "name": "timestamp",
          "type": "uint256"
        },
        {
          "indexed": false,
          "internalType": "uint256",
          "name": "tokenId",
          "type": "uint256"
        },
        {
          "indexed": false,
          "internalType": "uint256",
          "name": "quantity",
          "type": "uint256"
        }
      ],
      "name": "Minted",
      "type": "event"
    },
    {
      "anonymous": false,
      "inputs": [
        {
          "indexed": true,
          "internalType": "address",
          "name": "previousOwner",
          "type": "address"
        },
        {
          "indexed": true,
          "internalType": "address",
          "name": "newOwner",
          "type": "address"
        }
      ],
      "name": "OwnershipTransferred",
      "type": "event"
    },
    {
      "anonymous": false,
      "inputs": [
        {
          "indexed": true,
          "internalType": "address",
          "name": "operator",
          "type": "address"
        },
        {
          "indexed": true,
          "internalType": "address",
          "name": "from",
          "type": "address"
        },
        {
          "indexed": true,
          "internalType": "address",
          "name": "to",
          "type": "address"
        },
        {
          "indexed": false,
          "internalType": "uint256[]",
          "name": "ids",
          "type": "uint256[]"
        },
        {
          "indexed": false,
          "internalType": "uint256[]",
          "name": "values",
          "type": "uint256[]"
        }
      ],
      "name": "TransferBatch",
      "type": "event"
    },
    {
      "anonymous": false,
      "inputs": [
        {
          "indexed": true,
          "internalType": "address",
          "name": "operator",
          "type": "address"
        },
        {
          "indexed": true,
          "internalType": "address",
          "name": "from",
          "type": "address"
        },
        {
          "indexed": true,
          "internalType": "address",
          "name": "to",
          "type": "address"
        },
        {
          "indexed": false,
          "internalType": "uint256",
          "name": "id",
          "type": "uint256"
        },
        {
          "indexed": false,
          "internalType": "uint256",
          "name": "value",
          "type": "uint256"
        }
      ],
      "name": "TransferSingle",
      "type": "event"
    },
    {
      "anonymous": false,
      "inputs": [
        {
          "indexed": false,
          "internalType": "string",
          "name": "value",
          "type": "string"
        },
        {
          "indexed": true,
          "internalType": "uint256",
          "name": "id",
          "type": "uint256"
        }
      ],
      "name": "URI",
      "type": "event"
    },
    {
      "inputs": [],
      "name": "ID_CYBER_ARMOR",
      "outputs": [
        {
          "internalType": "uint256",
          "name": "",
          "type": "uint256"
        }
      ],
      "stateMutability": "view",
      "type": "function",
      "constant": true
    },
    {
      "inputs": [],
      "name": "ID_CYBER_WEAPON",
      "outputs": [
        {
          "internalType": "uint256",
          "name": "",
          "type": "uint256"
        }
      ],
      "stateMutability": "view",
      "type": "function",
      "constant": true
    },
    {
      "inputs": [],
      "name": "ID_MATRIX_ANGEL_CAR",
      "outputs": [
        {
          "internalType": "uint256",
          "name": "",
          "type": "uint256"
        }
      ],
      "stateMutability": "view",
      "type": "function",
      "constant": true
    },
    {
      "inputs": [],
      "name": "ID_ML_NETWORK_PASS",
      "outputs": [
        {
          "internalType": "uint256",
          "name": "",
          "type": "uint256"
        }
      ],
      "stateMutability": "view",
      "type": "function",
      "constant": true
    },
    {
      "inputs": [],
      "name": "ID_PARTICLE_COSMETIC_EFFECT",
      "outputs": [
        {
          "internalType": "uint256",
          "name": "",
          "type": "uint256"
        }
      ],
      "stateMutability": "view",
      "type": "function",
      "constant": true
    },
    {
      "inputs": [],
      "name": "ID_ROBOTER_WEAPON",
      "outputs": [
        {
          "internalType": "uint256",
          "name": "",
          "type": "uint256"
        }
      ],
      "stateMutability": "view",
      "type": "function",
      "constant": true
    },
    {
      "inputs": [],
      "name": "ID_ROUGH_PET",
      "outputs": [
        {
          "internalType": "uint256",
          "name": "",
          "type": "uint256"
        }
      ],
      "stateMutability": "view",
      "type": "function",
      "constant": true
    },
    {
      "inputs": [],
      "name": "ID_SHADOW_GEM",
      "outputs": [
        {
          "internalType": "uint256",
          "name": "",
          "type": "uint256"
        }
      ],
      "stateMutability": "view",
      "type": "function",
      "constant": true
    },
    {
      "inputs": [
        {
          "internalType": "address",
          "name": "account",
          "type": "address"
        },
        {
          "internalType": "uint256",
          "name": "id",
          "type": "uint256"
        }
      ],
      "name": "balanceOf",
      "outputs": [
        {
          "internalType": "uint256",
          "name": "",
          "type": "uint256"
        }
      ],
      "stateMutability": "view",
      "type": "function",
      "constant": true
    },
    {
      "inputs": [
        {
          "internalType": "address[]",
          "name": "accounts",
          "type": "address[]"
        },
        {
          "internalType": "uint256[]",
          "name": "ids",
          "type": "uint256[]"
        }
      ],
      "name": "balanceOfBatch",
      "outputs": [
        {
          "internalType": "uint256[]",
          "name": "",
          "type": "uint256[]"
        }
      ],
      "stateMutability": "view",
      "type": "function",
      "constant": true
    },
    {
      "inputs": [],
      "name": "baseURI",
      "outputs": [
        {
          "internalType": "string",
          "name": "",
          "type": "string"
        }
      ],
      "stateMutability": "view",
      "type": "function",
      "constant": true
    },
    {
      "inputs": [],
      "name": "collector",
      "outputs": [
        {
          "internalType": "address payable",
          "name": "",
          "type": "address"
        }
      ],
      "stateMutability": "view",
      "type": "function",
      "constant": true
    },
    {
      "inputs": [
        {
          "internalType": "address",
          "name": "",
          "type": "address"
        },
        {
          "internalType": "uint256",
          "name": "",
          "type": "uint256"
        }
      ],
      "name": "holderEligibilities",
      "outputs": [
        {
          "internalType": "uint256",
          "name": "total",
          "type": "uint256"
        },
        {
          "internalType": "uint256",
          "name": "claimed",
          "type": "uint256"
        }
      ],
      "stateMutability": "view",
      "type": "function",
      "constant": true
    },
    {
      "inputs": [
        {
          "internalType": "address",
          "name": "account",
          "type": "address"
        },
        {
          "internalType": "address",
          "name": "operator",
          "type": "address"
        }
      ],
      "name": "isApprovedForAll",
      "outputs": [
        {
          "internalType": "bool",
          "name": "",
          "type": "bool"
        }
      ],
      "stateMutability": "view",
      "type": "function",
      "constant": true
    },
    {
      "inputs": [],
      "name": "owner",
      "outputs": [
        {
          "internalType": "address",
          "name": "",
          "type": "address"
        }
      ],
      "stateMutability": "view",
      "type": "function",
      "constant": true
    },
    {
      "inputs": [],
      "name": "renounceOwnership",
      "outputs": [],
      "stateMutability": "nonpayable",
      "type": "function"
    },
    {
      "inputs": [
        {
          "internalType": "address",
          "name": "from",
          "type": "address"
        },
        {
          "internalType": "address",
          "name": "to",
          "type": "address"
        },
        {
          "internalType": "uint256[]",
          "name": "ids",
          "type": "uint256[]"
        },
        {
          "internalType": "uint256[]",
          "name": "amounts",
          "type": "uint256[]"
        },
        {
          "internalType": "bytes",
          "name": "data",
          "type": "bytes"
        }
      ],
      "name": "safeBatchTransferFrom",
      "outputs": [],
      "stateMutability": "nonpayable",
      "type": "function"
    },
    {
      "inputs": [
        {
          "internalType": "address",
          "name": "from",
          "type": "address"
        },
        {
          "internalType": "address",
          "name": "to",
          "type": "address"
        },
        {
          "internalType": "uint256",
          "name": "id",
          "type": "uint256"
        },
        {
          "internalType": "uint256",
          "name": "amount",
          "type": "uint256"
        },
        {
          "internalType": "bytes",
          "name": "data",
          "type": "bytes"
        }
      ],
      "name": "safeTransferFrom",
      "outputs": [],
      "stateMutability": "nonpayable",
      "type": "function"
    },
    {
      "inputs": [
        {
          "internalType": "address",
          "name": "operator",
          "type": "address"
        },
        {
          "internalType": "bool",
          "name": "approved",
          "type": "bool"
        }
      ],
      "name": "setApprovalForAll",
      "outputs": [],
      "stateMutability": "nonpayable",
      "type": "function"
    },
    {
      "inputs": [
        {
          "internalType": "bytes4",
          "name": "interfaceId",
          "type": "bytes4"
        }
      ],
      "name": "supportsInterface",
      "outputs": [
        {
          "internalType": "bool",
          "name": "",
          "type": "bool"
        }
      ],
      "stateMutability": "view",
      "type": "function",
      "constant": true
    },
    {
      "inputs": [
        {
          "internalType": "uint256",
          "name": "",
          "type": "uint256"
        }
      ],
      "name": "tokenCollection",
      "outputs": [
        {
          "internalType": "uint256",
          "name": "id",
          "type": "uint256"
        },
        {
          "internalType": "string",
          "name": "name",
          "type": "string"
        },
        {
          "internalType": "uint256",
          "name": "totalSupply",
          "type": "uint256"
        },
        {
          "internalType": "bool",
          "name": "mintable",
          "type": "bool"
        },
        {
          "internalType": "bool",
          "name": "burnable",
          "type": "bool"
        },
        {
          "internalType": "uint256",
          "name": "maxSupply",
          "type": "uint256"
        },
        {
          "internalType": "uint256",
          "name": "expireAt",
          "type": "uint256"
        }
      ],
      "stateMutability": "view",
      "type": "function",
      "constant": true
    },
    {
      "inputs": [
        {
          "internalType": "address",
          "name": "newOwner",
          "type": "address"
        }
      ],
      "name": "transferOwnership",
      "outputs": [],
      "stateMutability": "nonpayable",
      "type": "function"
    },
    {
      "inputs": [
        {
          "internalType": "uint256",
          "name": "",
          "type": "uint256"
        }
      ],
      "name": "uri",
      "outputs": [
        {
          "internalType": "string",
          "name": "",
          "type": "string"
        }
      ],
      "stateMutability": "view",
      "type": "function",
      "constant": true
    },
    {
      "inputs": [],
      "name": "withdrawAll",
      "outputs": [],
      "stateMutability": "payable",
      "type": "function",
      "payable": true
    },
    {
      "inputs": [
        {
          "internalType": "address payable",
          "name": "_newCollector",
          "type": "address"
        }
      ],
      "name": "setCollector",
      "outputs": [],
      "stateMutability": "nonpayable",
      "type": "function"
    },
    {
      "inputs": [
        {
          "internalType": "uint256",
          "name": "_tokenId",
          "type": "uint256"
        }
      ],
      "name": "toggleTokenMint",
      "outputs": [],
      "stateMutability": "nonpayable",
      "type": "function"
    },
    {
      "inputs": [
        {
          "internalType": "uint256",
          "name": "_tokenId",
          "type": "uint256"
        }
      ],
      "name": "toggleTokenBurnable",
      "outputs": [],
      "stateMutability": "nonpayable",
      "type": "function"
    },
    {
      "inputs": [
        {
          "internalType": "uint256",
          "name": "_tokenId",
          "type": "uint256"
        }
      ],
      "name": "getTokenRewardStatus",
      "outputs": [
        {
          "internalType": "bool",
          "name": "",
          "type": "bool"
        }
      ],
      "stateMutability": "view",
      "type": "function",
      "constant": true
    },
    {
      "inputs": [
        {
          "internalType": "uint256",
          "name": "_tokenId",
          "type": "uint256"
        }
      ],
      "name": "isBurnable",
      "outputs": [
        {
          "internalType": "bool",
          "name": "",
          "type": "bool"
        }
      ],
      "stateMutability": "view",
      "type": "function",
      "constant": true
    },
    {
      "inputs": [
        {
          "internalType": "address",
          "name": "wallet",
          "type": "address"
        },
        {
          "internalType": "uint256",
          "name": "_tokenId",
          "type": "uint256"
        }
      ],
      "name": "remaining",
      "outputs": [
        {
          "internalType": "uint256",
          "name": "",
          "type": "uint256"
        }
      ],
      "stateMutability": "view",
      "type": "function",
      "constant": true
    },
    {
      "inputs": [
        {
          "internalType": "string",
          "name": "_newBaseURI",
          "type": "string"
        }
      ],
      "name": "_setBaseURI",
      "outputs": [],
      "stateMutability": "nonpayable",
      "type": "function"
    },
    {
      "inputs": [
        {
          "internalType": "uint256",
          "name": "_tokenId",
          "type": "uint256"
        }
      ],
      "name": "tokenURI",
      "outputs": [
        {
          "internalType": "string",
          "name": "",
          "type": "string"
        }
      ],
      "stateMutability": "view",
      "type": "function",
      "constant": true
    },
    {
      "inputs": [
        {
          "internalType": "string",
          "name": "_name",
          "type": "string"
        },
        {
          "internalType": "bool",
          "name": "_mintable",
          "type": "bool"
        },
        {
          "internalType": "bool",
          "name": "_burnable",
          "type": "bool"
        },
        {
          "internalType": "uint256",
          "name": "_maxSupply",
          "type": "uint256"
        },
        {
          "internalType": "uint256",
          "name": "_id",
          "type": "uint256"
        },
        {
          "internalType": "uint256",
          "name": "_expireAt",
          "type": "uint256"
        }
      ],
      "name": "addToken",
      "outputs": [],
      "stateMutability": "nonpayable",
      "type": "function"
    },
    {
      "inputs": [
        {
          "internalType": "address[]",
          "name": "_toAddAddresses",
          "type": "address[]"
        },
        {
          "internalType": "uint256[]",
          "name": "_quantities",
          "type": "uint256[]"
        },
        {
          "internalType": "uint256",
          "name": "_tokenId",
          "type": "uint256"
        }
      ],
      "name": "addEligilities",
      "outputs": [],
      "stateMutability": "nonpayable",
      "type": "function"
    },
    {
      "inputs": [
        {
          "internalType": "uint256",
          "name": "_tokenId",
          "type": "uint256"
        },
        {
          "internalType": "uint256",
          "name": "_quantity",
          "type": "uint256"
        }
      ],
      "name": "mint",
      "outputs": [],
      "stateMutability": "nonpayable",
      "type": "function"
    },
    {
      "inputs": [
        {
          "internalType": "uint256",
          "name": "_tokenId",
          "type": "uint256"
        },
        {
          "internalType": "uint256",
          "name": "_quantity",
          "type": "uint256"
        }
      ],
      "name": "burn",
      "outputs": [],
      "stateMutability": "nonpayable",
      "type": "function"
    }
  ],
  "bytecode": "0x6080604052604051806020016040528060008152506005908162000024919062000845565b503480156200003257600080fd5b506040518060200160405280600081525062000054816200034760201b60201c565b5062000075620000696200035c60201b60201c565b6200036460201b60201c565b600160048190555033600660006101000a81548173ffffffffffffffffffffffffffffffffffffffff021916908373ffffffffffffffffffffffffffffffffffffffff1602179055506000636681d55f9050620001176040518060400160405280600c81526020017f63796265722d776561706f6e000000000000000000000000000000000000000081525060016000613a986001866200042a60201b60201c565b620001666040518060400160405280600b81526020017f63796265722d61726d6f72000000000000000000000000000000000000000000815250600080613a986002866200042a60201b60201c565b620001b56040518060400160405280600981526020017f726f7567682d7065740000000000000000000000000000000000000000000000815250600080613a986003866200042a60201b60201c565b620002046040518060400160405280600e81526020017f726f626f7465722d776561706f6e000000000000000000000000000000000000815250600080613a986004866200042a60201b60201c565b620002536040518060400160405280601081526020017f6d61747269782d616e67656c2d63617200000000000000000000000000000000815250600080613a986005866200042a60201b60201c565b620002a26040518060400160405280600f81526020017f6d6c2d6e6574776f726b2d706173730000000000000000000000000000000000815250600080612ee06006866200042a60201b60201c565b620002f16040518060400160405280601881526020017f7061727469636c652d636f736d657469632d6566666563740000000000000000815250600080612ee06007866200042a60201b60201c565b620003406040518060400160405280600a81526020017f736861646f772d67656d00000000000000000000000000000000000000000000815250600080611f406008866200042a60201b60201c565b50620009af565b806002908162000358919062000845565b5050565b600033905090565b6000600360009054906101000a900473ffffffffffffffffffffffffffffffffffffffff16905081600360006101000a81548173ffffffffffffffffffffffffffffffffffffffff021916908373ffffffffffffffffffffffffffffffffffffffff1602179055508173ffffffffffffffffffffffffffffffffffffffff168173ffffffffffffffffffffffffffffffffffffffff167f8be0079c531659141344cd1fd0a4f28419497f9722a3daafe3b4186f6b6457e060405160405180910390a35050565b6200043a6200051060201b60201c565b6040518060e0016040528083815260200187815260200160008152602001861515815260200185151581526020018481526020018281525060086000848152602001908152602001600020600082015181600001556020820151816001019081620004a6919062000845565b506040820151816002015560608201518160030160006101000a81548160ff02191690831515021790555060808201518160030160016101000a81548160ff02191690831515021790555060a0820151816004015560c08201518160050155905050505050505050565b620005206200035c60201b60201c565b73ffffffffffffffffffffffffffffffffffffffff1662000546620005a160201b60201c565b73ffffffffffffffffffffffffffffffffffffffff16146200059f576040517f08c379a000000000000000000000000000000000000000000000000000000000815260040162000596906200098d565b60405180910390fd5b565b6000600360009054906101000a900473ffffffffffffffffffffffffffffffffffffffff16905090565b600081519050919050565b7f4e487b7100000000000000000000000000000000000000000000000000000000600052604160045260246000fd5b7f4e487b7100000000000000000000000000000000000000000000000000000000600052602260045260246000fd5b600060028204905060018216806200064d57607f821691505b60208210810362000663576200066262000605565b5b50919050565b60008190508160005260206000209050919050565b60006020601f8301049050919050565b600082821b905092915050565b600060088302620006cd7fffffffffffffffffffffffffffffffffffffffffffffffffffffffffffffffff826200068e565b620006d986836200068e565b95508019841693508086168417925050509392505050565b6000819050919050565b6000819050919050565b600062000726620007206200071a84620006f1565b620006fb565b620006f1565b9050919050565b6000819050919050565b620007428362000705565b6200075a62000751826200072d565b8484546200069b565b825550505050565b600090565b6200077162000762565b6200077e81848462000737565b505050565b5b81811015620007a6576200079a60008262000767565b60018101905062000784565b5050565b601f821115620007f557620007bf8162000669565b620007ca846200067e565b81016020851015620007da578190505b620007f2620007e9856200067e565b83018262000783565b50505b505050565b600082821c905092915050565b60006200081a60001984600802620007fa565b1980831691505092915050565b600062000835838362000807565b9150826002028217905092915050565b6200085082620005cb565b67ffffffffffffffff8111156200086c576200086b620005d6565b5b62000878825462000634565b62000885828285620007aa565b600060209050601f831160018114620008bd5760008415620008a8578287015190505b620008b4858262000827565b86555062000924565b601f198416620008cd8662000669565b60005b82811015620008f757848901518255600182019150602085019450602081019050620008d0565b8683101562000917578489015162000913601f89168262000807565b8355505b6001600288020188555050505b505050505050565b600082825260208201905092915050565b7f4f776e61626c653a2063616c6c6572206973206e6f7420746865206f776e6572600082015250565b6000620009756020836200092c565b915062000982826200093d565b602082019050919050565b60006020820190508181036000830152620009a88162000966565b9050919050565b614d0b80620009bf6000396000f3fe60806040526004361061020e5760003560e01c80638e3ca34811610118578063c87b56dd116100a0578063e7d0094d1161006f578063e7d0094d146107aa578063e985e9c5146107e7578063f242432a14610824578063f2fde38b1461084d578063fb5b82d0146108765761020e565b8063c87b56dd146106dc578063cbe1517514610719578063d912a02314610744578063e1a977ec1461076d5761020e565b8063a5ea8738116100e7578063a5ea8738146105f9578063ab9b7dcb14610622578063b390c0ab1461064d578063bb12d5d814610676578063c6f88d4a1461069f5761020e565b80638e3ca3481461054f5780638f04cfa51461057a578063913e77ad146105a5578063a22cb465146105d05761020e565b8063427016d11161019b5780636c0360eb1161016a5780636c0360eb1461049a578063715018a6146104c55780637672e1b6146104dc578063853828b61461051a5780638da5cb5b146105245761020e565b8063427016d1146103de5780634636b951146104095780634e1273f41461043257806357e874021461046f5761020e565b80631b2ef1ca116101e25780631b2ef1ca146102f55780631e8ddb371461031e5780632dd883e8146103495780632eb2c2d61461038c57806331b5b907146103b55761020e565b8062fdd58e1461021357806301ffc9a7146102505780630c077e951461028d5780630e89341c146102b8575b600080fd5b34801561021f57600080fd5b5061023a60048036038101906102359190612e12565b61089f565b6040516102479190612e61565b60405180910390f35b34801561025c57600080fd5b5061027760048036038101906102729190612ed4565b610967565b6040516102849190612f1c565b60405180910390f35b34801561029957600080fd5b506102a2610a49565b6040516102af9190612e61565b60405180910390f35b3480156102c457600080fd5b506102df60048036038101906102da9190612f37565b610a4e565b6040516102ec9190612ff4565b60405180910390f35b34801561030157600080fd5b5061031c60048036038101906103179190613016565b610ae2565b005b34801561032a57600080fd5b50610333610d6b565b6040516103409190612e61565b60405180910390f35b34801561035557600080fd5b50610370600480360381019061036b9190612f37565b610d70565b6040516103839796959493929190613056565b60405180910390f35b34801561039857600080fd5b506103b360048036038101906103ae91906132c9565b610e54565b005b3480156103c157600080fd5b506103dc60048036038101906103d79190613439565b610ef5565b005b3480156103ea57600080fd5b506103f3610f10565b6040516104009190612e61565b60405180910390f35b34801561041557600080fd5b50610430600480360381019061042b91906134ae565b610f15565b005b34801561043e57600080fd5b506104596004803603810190610454919061361a565b610ff1565b6040516104669190613750565b60405180910390f35b34801561047b57600080fd5b5061048461110a565b6040516104919190612e61565b60405180910390f35b3480156104a657600080fd5b506104af61110f565b6040516104bc9190612ff4565b60405180910390f35b3480156104d157600080fd5b506104da61119d565b005b3480156104e857600080fd5b5061050360048036038101906104fe9190612e12565b6111b1565b604051610511929190613772565b60405180910390f35b6105226111e2565b005b34801561053057600080fd5b50610539611255565b60405161054691906137aa565b60405180910390f35b34801561055b57600080fd5b5061056461127f565b6040516105719190612e61565b60405180910390f35b34801561058657600080fd5b5061058f611284565b60405161059c9190612e61565b60405180910390f35b3480156105b157600080fd5b506105ba611289565b6040516105c791906137e6565b60405180910390f35b3480156105dc57600080fd5b506105f760048036038101906105f29190613801565b6112af565b005b34801561060557600080fd5b50610620600480360381019061061b91906138f2565b6112c5565b005b34801561062e57600080fd5b5061063761143b565b6040516106449190612e61565b60405180910390f35b34801561065957600080fd5b50610674600480360381019061066f9190613016565b611440565b005b34801561068257600080fd5b5061069d60048036038101906106989190612f37565b611550565b005b3480156106ab57600080fd5b506106c660048036038101906106c19190612f37565b6115ad565b6040516106d39190612f1c565b60405180910390f35b3480156106e857600080fd5b5061070360048036038101906106fe9190612f37565b6115da565b6040516107109190612ff4565b60405180910390f35b34801561072557600080fd5b5061072e611639565b60405161073b9190612e61565b60405180910390f35b34801561075057600080fd5b5061076b60048036038101906107669190612f37565b61163e565b005b34801561077957600080fd5b50610794600480360381019061078f9190612e12565b61169b565b6040516107a19190612e61565b60405180910390f35b3480156107b657600080fd5b506107d160048036038101906107cc9190612f37565b611757565b6040516107de9190612f1c565b60405180910390f35b3480156107f357600080fd5b5061080e60048036038101906108099190613987565b611784565b60405161081b9190612f1c565b60405180910390f35b34801561083057600080fd5b5061084b600480360381019061084691906139c7565b611818565b005b34801561085957600080fd5b50610874600480360381019061086f9190613a5e565b6118b9565b005b34801561088257600080fd5b5061089d60048036038101906108989190613ab7565b61193c565b005b60008073ffffffffffffffffffffffffffffffffffffffff168373ffffffffffffffffffffffffffffffffffffffff160361090f576040517f08c379a000000000000000000000000000000000000000000000000000000000815260040161090690613b56565b60405180910390fd5b60008083815260200190815260200160002060008473ffffffffffffffffffffffffffffffffffffffff1673ffffffffffffffffffffffffffffffffffffffff16815260200190815260200160002054905092915050565b60007fd9b67a26000000000000000000000000000000000000000000000000000000007bffffffffffffffffffffffffffffffffffffffffffffffffffffffff1916827bffffffffffffffffffffffffffffffffffffffffffffffffffffffff19161480610a3257507f0e89341c000000000000000000000000000000000000000000000000000000007bffffffffffffffffffffffffffffffffffffffffffffffffffffffff1916827bffffffffffffffffffffffffffffffffffffffffffffffffffffffff1916145b80610a425750610a4182611988565b5b9050919050565b600781565b606060028054610a5d90613ba5565b80601f0160208091040260200160405190810160405280929190818152602001828054610a8990613ba5565b8015610ad65780601f10610aab57610100808354040283529160200191610ad6565b820191906000526020600020905b815481529060010190602001808311610ab957829003601f168201915b50505050509050919050565b80610aed338461169b565b1015610b2e576040517f08c379a0000000000000000000000000000000000000000000000000000000008152600401610b2590613c22565b60405180910390fd5b6008600083815260200190815260200160002060030160009054906101000a900460ff16610b91576040517f08c379a0000000000000000000000000000000000000000000000000000000008152600401610b8890613c8e565b60405180910390fd5b6008600083815260200190815260200160002060040154816008600085815260200190815260200160002060020154610bca9190613cdd565b1115610c0b576040517f08c379a0000000000000000000000000000000000000000000000000000000008152600401610c0290613d5d565b60405180910390fd5b60086000838152602001908152602001600020600501544210610c63576040517f08c379a0000000000000000000000000000000000000000000000000000000008152600401610c5a90613dc9565b60405180910390fd5b80600760003373ffffffffffffffffffffffffffffffffffffffff1673ffffffffffffffffffffffffffffffffffffffff16815260200190815260200160002060008481526020019081526020016000206001016000828254610cc69190613cdd565b9250508190555080600860008481526020019081526020016000206002016000828254610cf39190613cdd565b92505081905550610d15338383604051806020016040528060008152506119f2565b3373ffffffffffffffffffffffffffffffffffffffff167f5a3358a3d27a5373c0df2604662088d37894d56b7cfd27f315770440f4e0d919428484604051610d5f93929190613de9565b60405180910390a25050565b600481565b6008602052806000526040600020600091509050806000015490806001018054610d9990613ba5565b80601f0160208091040260200160405190810160405280929190818152602001828054610dc590613ba5565b8015610e125780601f10610de757610100808354040283529160200191610e12565b820191906000526020600020905b815481529060010190602001808311610df557829003601f168201915b5050505050908060020154908060030160009054906101000a900460ff16908060030160019054906101000a900460ff16908060040154908060050154905087565b610e5c611ba2565b73ffffffffffffffffffffffffffffffffffffffff168573ffffffffffffffffffffffffffffffffffffffff161480610ea25750610ea185610e9c611ba2565b611784565b5b610ee1576040517f08c379a0000000000000000000000000000000000000000000000000000000008152600401610ed890613e92565b60405180910390fd5b610eee8585858585611baa565b5050505050565b610efd611ecb565b8060059081610f0c919061405e565b5050565b600381565b610f1d611ecb565b6040518060e0016040528083815260200187815260200160008152602001861515815260200185151581526020018481526020018281525060086000848152602001908152602001600020600082015181600001556020820151816001019081610f87919061405e565b506040820151816002015560608201518160030160006101000a81548160ff02191690831515021790555060808201518160030160016101000a81548160ff02191690831515021790555060a0820151816004015560c08201518160050155905050505050505050565b60608151835114611037576040517f08c379a000000000000000000000000000000000000000000000000000000000815260040161102e906141a2565b60405180910390fd5b6000835167ffffffffffffffff811115611054576110536130d1565b5b6040519080825280602002602001820160405280156110825781602001602082028036833780820191505090505b50905060005b84518110156110ff576110cf8582815181106110a7576110a66141c2565b5b60200260200101518583815181106110c2576110c16141c2565b5b602002602001015161089f565b8282815181106110e2576110e16141c2565b5b602002602001018181525050806110f8906141f1565b9050611088565b508091505092915050565b600681565b6005805461111c90613ba5565b80601f016020809104026020016040519081016040528092919081815260200182805461114890613ba5565b80156111955780601f1061116a57610100808354040283529160200191611195565b820191906000526020600020905b81548152906001019060200180831161117857829003601f168201915b505050505081565b6111a5611ecb565b6111af6000611f49565b565b6007602052816000526040600020602052806000526040600020600091509150508060000154908060010154905082565b6111ea611ecb565b600660009054906101000a900473ffffffffffffffffffffffffffffffffffffffff1673ffffffffffffffffffffffffffffffffffffffff166108fc479081150290604051600060405180830381858888f19350505050158015611252573d6000803e3d6000fd5b50565b6000600360009054906101000a900473ffffffffffffffffffffffffffffffffffffffff16905090565b600581565b600281565b600660009054906101000a900473ffffffffffffffffffffffffffffffffffffffff1681565b6112c16112ba611ba2565b838361200f565b5050565b6112cd611ecb565b828290508585905014611315576040517f08c379a000000000000000000000000000000000000000000000000000000000815260040161130c906142ab565b60405180910390fd5b6000805b868690508110156113f657848482818110611337576113366141c2565b5b9050602002013560076000898985818110611355576113546141c2565b5b905060200201602081019061136a9190613a5e565b73ffffffffffffffffffffffffffffffffffffffff1673ffffffffffffffffffffffffffffffffffffffff1681526020019081526020016000206000858152602001908152602001600020600001819055508484828181106113cf576113ce6141c2565b5b90506020020135826113e19190613cdd565b915080806113ee906141f1565b915050611319565b507fa82370edbf4f9f8ecf9132eb357d9a171e6cf346954298950049096aa5ac6470868690508260405161142b929190613772565b60405180910390a1505050505050565b600881565b6008600083815260200190815260200160002060030160019054906101000a900460ff166114a3576040517f08c379a000000000000000000000000000000000000000000000000000000000815260040161149a90614317565b60405180910390fd5b806114ae338461089f565b10156114ef576040517f08c379a00000000000000000000000000000000000000000000000000000000081526004016114e690614383565b60405180910390fd5b6114fa33838361217b565b3373ffffffffffffffffffffffffffffffffffffffff167f4c60206a5c1de41f3376d1d60f0949d96cb682033c90b1c2d9d9a62d4c4120c042848460405161154493929190613de9565b60405180910390a25050565b611558611ecb565b6008600082815260200190815260200160002060030160009054906101000a900460ff16156008600083815260200190815260200160002060030160006101000a81548160ff02191690831515021790555050565b60006008600083815260200190815260200160002060030160019054906101000a900460ff169050919050565b606060006115e66123c1565b905060008151116116065760405180602001604052806000815250611631565b8061161084612453565b6040516020016116219291906143df565b6040516020818303038152906040525b915050919050565b600181565b611646611ecb565b6008600082815260200190815260200160002060030160019054906101000a900460ff16156008600083815260200190815260200160002060030160016101000a81548160ff02191690831515021790555050565b6000600760008473ffffffffffffffffffffffffffffffffffffffff1673ffffffffffffffffffffffffffffffffffffffff168152602001908152602001600020600083815260200190815260200160002060010154600760008573ffffffffffffffffffffffffffffffffffffffff1673ffffffffffffffffffffffffffffffffffffffff16815260200190815260200160002060008481526020019081526020016000206000015461174f9190614403565b905092915050565b60006008600083815260200190815260200160002060030160009054906101000a900460ff169050919050565b6000600160008473ffffffffffffffffffffffffffffffffffffffff1673ffffffffffffffffffffffffffffffffffffffff16815260200190815260200160002060008373ffffffffffffffffffffffffffffffffffffffff1673ffffffffffffffffffffffffffffffffffffffff16815260200190815260200160002060009054906101000a900460ff16905092915050565b611820611ba2565b73ffffffffffffffffffffffffffffffffffffffff168573ffffffffffffffffffffffffffffffffffffffff161480611866575061186585611860611ba2565b611784565b5b6118a5576040517f08c379a000000000000000000000000000000000000000000000000000000000815260040161189c90613e92565b60405180910390fd5b6118b28585858585612521565b5050505050565b6118c1611ecb565b600073ffffffffffffffffffffffffffffffffffffffff168173ffffffffffffffffffffffffffffffffffffffff1603611930576040517f08c379a0000000000000000000000000000000000000000000000000000000008152600401611927906144a9565b60405180910390fd5b61193981611f49565b50565b611944611ecb565b80600660006101000a81548173ffffffffffffffffffffffffffffffffffffffff021916908373ffffffffffffffffffffffffffffffffffffffff16021790555050565b60007f01ffc9a7000000000000000000000000000000000000000000000000000000007bffffffffffffffffffffffffffffffffffffffffffffffffffffffff1916827bffffffffffffffffffffffffffffffffffffffffffffffffffffffff1916149050919050565b600073ffffffffffffffffffffffffffffffffffffffff168473ffffffffffffffffffffffffffffffffffffffff1603611a61576040517f08c379a0000000000000000000000000000000000000000000000000000000008152600401611a589061453b565b60405180910390fd5b6000611a6b611ba2565b90506000611a78856127bc565b90506000611a85856127bc565b9050611a9683600089858589612836565b8460008088815260200190815260200160002060008973ffffffffffffffffffffffffffffffffffffffff1673ffffffffffffffffffffffffffffffffffffffff1681526020019081526020016000206000828254611af59190613cdd565b925050819055508673ffffffffffffffffffffffffffffffffffffffff16600073ffffffffffffffffffffffffffffffffffffffff168473ffffffffffffffffffffffffffffffffffffffff167fc3d58168c5ae7397731d063d5bbf3d657854427343f4c083240f7aacaa2d0f628989604051611b73929190613772565b60405180910390a4611b8a8360008985858961283e565b611b9983600089898989612846565b50505050505050565b600033905090565b8151835114611bee576040517f08c379a0000000000000000000000000000000000000000000000000000000008152600401611be5906145cd565b60405180910390fd5b600073ffffffffffffffffffffffffffffffffffffffff168473ffffffffffffffffffffffffffffffffffffffff1603611c5d576040517f08c379a0000000000000000000000000000000000000000000000000000000008152600401611c549061465f565b60405180910390fd5b6000611c67611ba2565b9050611c77818787878787612836565b60005b8451811015611e28576000858281518110611c9857611c976141c2565b5b602002602001015190506000858381518110611cb757611cb66141c2565b5b60200260200101519050600080600084815260200190815260200160002060008b73ffffffffffffffffffffffffffffffffffffffff1673ffffffffffffffffffffffffffffffffffffffff16815260200190815260200160002054905081811015611d58576040517f08c379a0000000000000000000000000000000000000000000000000000000008152600401611d4f906146f1565b60405180910390fd5b81810360008085815260200190815260200160002060008c73ffffffffffffffffffffffffffffffffffffffff1673ffffffffffffffffffffffffffffffffffffffff168152602001908152602001600020819055508160008085815260200190815260200160002060008b73ffffffffffffffffffffffffffffffffffffffff1673ffffffffffffffffffffffffffffffffffffffff1681526020019081526020016000206000828254611e0d9190613cdd565b9250508190555050505080611e21906141f1565b9050611c7a565b508473ffffffffffffffffffffffffffffffffffffffff168673ffffffffffffffffffffffffffffffffffffffff168273ffffffffffffffffffffffffffffffffffffffff167f4a39dc06d4c0dbc64b70af90fd698a233a518aa5d07e595d983b8c0526c8f7fb8787604051611e9f929190614711565b60405180910390a4611eb581878787878761283e565b611ec3818787878787612a1d565b505050505050565b611ed3611ba2565b73ffffffffffffffffffffffffffffffffffffffff16611ef1611255565b73ffffffffffffffffffffffffffffffffffffffff1614611f47576040517f08c379a0000000000000000000000000000000000000000000000000000000008152600401611f3e90614794565b60405180910390fd5b565b6000600360009054906101000a900473ffffffffffffffffffffffffffffffffffffffff16905081600360006101000a81548173ffffffffffffffffffffffffffffffffffffffff021916908373ffffffffffffffffffffffffffffffffffffffff1602179055508173ffffffffffffffffffffffffffffffffffffffff168173ffffffffffffffffffffffffffffffffffffffff167f8be0079c531659141344cd1fd0a4f28419497f9722a3daafe3b4186f6b6457e060405160405180910390a35050565b8173ffffffffffffffffffffffffffffffffffffffff168373ffffffffffffffffffffffffffffffffffffffff160361207d576040517f08c379a000000000000000000000000000000000000000000000000000000000815260040161207490614826565b60405180910390fd5b80600160008573ffffffffffffffffffffffffffffffffffffffff1673ffffffffffffffffffffffffffffffffffffffff16815260200190815260200160002060008473ffffffffffffffffffffffffffffffffffffffff1673ffffffffffffffffffffffffffffffffffffffff16815260200190815260200160002060006101000a81548160ff0219169083151502179055508173ffffffffffffffffffffffffffffffffffffffff168373ffffffffffffffffffffffffffffffffffffffff167f17307eab39ab6107e8899845ad3d59bd9653f200f220920489ca2b5937696c318360405161216e9190612f1c565b60405180910390a3505050565b600073ffffffffffffffffffffffffffffffffffffffff168373ffffffffffffffffffffffffffffffffffffffff16036121ea576040517f08c379a00000000000000000000000000000000000000000000000000000000081526004016121e1906148b8565b60405180910390fd5b60006121f4611ba2565b90506000612201846127bc565b9050600061220e846127bc565b905061222e83876000858560405180602001604052806000815250612836565b600080600087815260200190815260200160002060008873ffffffffffffffffffffffffffffffffffffffff1673ffffffffffffffffffffffffffffffffffffffff168152602001908152602001600020549050848110156122c5576040517f08c379a00000000000000000000000000000000000000000000000000000000081526004016122bc9061494a565b60405180910390fd5b84810360008088815260200190815260200160002060008973ffffffffffffffffffffffffffffffffffffffff1673ffffffffffffffffffffffffffffffffffffffff16815260200190815260200160002081905550600073ffffffffffffffffffffffffffffffffffffffff168773ffffffffffffffffffffffffffffffffffffffff168573ffffffffffffffffffffffffffffffffffffffff167fc3d58168c5ae7397731d063d5bbf3d657854427343f4c083240f7aacaa2d0f628989604051612392929190613772565b60405180910390a46123b88488600086866040518060200160405280600081525061283e565b50505050505050565b6060600580546123d090613ba5565b80601f01602080910402602001604051908101604052809291908181526020018280546123fc90613ba5565b80156124495780601f1061241e57610100808354040283529160200191612449565b820191906000526020600020905b81548152906001019060200180831161242c57829003601f168201915b5050505050905090565b60606000600161246284612bf4565b01905060008167ffffffffffffffff811115612481576124806130d1565b5b6040519080825280601f01601f1916602001820160405280156124b35781602001600182028036833780820191505090505b509050600082602001820190505b600115612516578080600190039150507f3031323334353637383961626364656600000000000000000000000000000000600a86061a8153600a858161250a5761250961496a565b5b049450600085036124c1575b819350505050919050565b600073ffffffffffffffffffffffffffffffffffffffff168473ffffffffffffffffffffffffffffffffffffffff1603612590576040517f08c379a00000000000000000000000000000000000000000000000000000000081526004016125879061465f565b60405180910390fd5b600061259a611ba2565b905060006125a7856127bc565b905060006125b4856127bc565b90506125c4838989858589612836565b600080600088815260200190815260200160002060008a73ffffffffffffffffffffffffffffffffffffffff1673ffffffffffffffffffffffffffffffffffffffff1681526020019081526020016000205490508581101561265b576040517f08c379a0000000000000000000000000000000000000000000000000000000008152600401612652906146f1565b60405180910390fd5b85810360008089815260200190815260200160002060008b73ffffffffffffffffffffffffffffffffffffffff1673ffffffffffffffffffffffffffffffffffffffff168152602001908152602001600020819055508560008089815260200190815260200160002060008a73ffffffffffffffffffffffffffffffffffffffff1673ffffffffffffffffffffffffffffffffffffffff16815260200190815260200160002060008282546127109190613cdd565b925050819055508773ffffffffffffffffffffffffffffffffffffffff168973ffffffffffffffffffffffffffffffffffffffff168573ffffffffffffffffffffffffffffffffffffffff167fc3d58168c5ae7397731d063d5bbf3d657854427343f4c083240f7aacaa2d0f628a8a60405161278d929190613772565b60405180910390a46127a3848a8a86868a61283e565b6127b1848a8a8a8a8a612846565b505050505050505050565b60606000600167ffffffffffffffff8111156127db576127da6130d1565b5b6040519080825280602002602001820160405280156128095781602001602082028036833780820191505090505b5090508281600081518110612821576128206141c2565b5b60200260200101818152505080915050919050565b505050505050565b505050505050565b6128658473ffffffffffffffffffffffffffffffffffffffff16612d47565b15612a15578373ffffffffffffffffffffffffffffffffffffffff1663f23a6e6187878686866040518663ffffffff1660e01b81526004016128ab9594939291906149ee565b6020604051808303816000875af19250505080156128e757506040513d601f19601f820116820180604052508101906128e49190614a5d565b60015b61298c576128f3614a97565b806308c379a00361294f5750612907614ab9565b806129125750612951565b806040517f08c379a00000000000000000000000000000000000000000000000000000000081526004016129469190612ff4565b60405180910390fd5b505b6040517f08c379a000000000000000000000000000000000000000000000000000000000815260040161298390614bbb565b60405180910390fd5b63f23a6e6160e01b7bffffffffffffffffffffffffffffffffffffffffffffffffffffffff1916817bffffffffffffffffffffffffffffffffffffffffffffffffffffffff191614612a13576040517f08c379a0000000000000000000000000000000000000000000000000000000008152600401612a0a90614c4d565b60405180910390fd5b505b505050505050565b612a3c8473ffffffffffffffffffffffffffffffffffffffff16612d47565b15612bec578373ffffffffffffffffffffffffffffffffffffffff1663bc197c8187878686866040518663ffffffff1660e01b8152600401612a82959493929190614c6d565b6020604051808303816000875af1925050508015612abe57506040513d601f19601f82011682018060405250810190612abb9190614a5d565b60015b612b6357612aca614a97565b806308c379a003612b265750612ade614ab9565b80612ae95750612b28565b806040517f08c379a0000000000000000000000000000000000000000000000000000000008152600401612b1d9190612ff4565b60405180910390fd5b505b6040517f08c379a0000000000000000000000000000000000000000000000000000000008152600401612b5a90614bbb565b60405180910390fd5b63bc197c8160e01b7bffffffffffffffffffffffffffffffffffffffffffffffffffffffff1916817bffffffffffffffffffffffffffffffffffffffffffffffffffffffff191614612bea576040517f08c379a0000000000000000000000000000000000000000000000000000000008152600401612be190614c4d565b60405180910390fd5b505b505050505050565b600080600090507a184f03e93ff9f4daa797ed6e38ed64bf6a1f0100000000000000008310612c52577a184f03e93ff9f4daa797ed6e38ed64bf6a1f0100000000000000008381612c4857612c4761496a565b5b0492506040810190505b6d04ee2d6d415b85acef81000000008310612c8f576d04ee2d6d415b85acef81000000008381612c8557612c8461496a565b5b0492506020810190505b662386f26fc100008310612cbe57662386f26fc100008381612cb457612cb361496a565b5b0492506010810190505b6305f5e1008310612ce7576305f5e1008381612cdd57612cdc61496a565b5b0492506008810190505b6127108310612d0c576127108381612d0257612d0161496a565b5b0492506004810190505b60648310612d2f5760648381612d2557612d2461496a565b5b0492506002810190505b600a8310612d3e576001810190505b80915050919050565b6000808273ffffffffffffffffffffffffffffffffffffffff163b119050919050565b6000604051905090565b600080fd5b600080fd5b600073ffffffffffffffffffffffffffffffffffffffff82169050919050565b6000612da982612d7e565b9050919050565b612db981612d9e565b8114612dc457600080fd5b50565b600081359050612dd681612db0565b92915050565b6000819050919050565b612def81612ddc565b8114612dfa57600080fd5b50565b600081359050612e0c81612de6565b92915050565b60008060408385031215612e2957612e28612d74565b5b6000612e3785828601612dc7565b9250506020612e4885828601612dfd565b9150509250929050565b612e5b81612ddc565b82525050565b6000602082019050612e766000830184612e52565b92915050565b60007fffffffff0000000000000000000000000000000000000000000000000000000082169050919050565b612eb181612e7c565b8114612ebc57600080fd5b50565b600081359050612ece81612ea8565b92915050565b600060208284031215612eea57612ee9612d74565b5b6000612ef884828501612ebf565b91505092915050565b60008115159050919050565b612f1681612f01565b82525050565b6000602082019050612f316000830184612f0d565b92915050565b600060208284031215612f4d57612f4c612d74565b5b6000612f5b84828501612dfd565b91505092915050565b600081519050919050565b600082825260208201905092915050565b60005b83811015612f9e578082015181840152602081019050612f83565b60008484015250505050565b6000601f19601f8301169050919050565b6000612fc682612f64565b612fd08185612f6f565b9350612fe0818560208601612f80565b612fe981612faa565b840191505092915050565b6000602082019050818103600083015261300e8184612fbb565b905092915050565b6000806040838503121561302d5761302c612d74565b5b600061303b85828601612dfd565b925050602061304c85828601612dfd565b9150509250929050565b600060e08201905061306b600083018a612e52565b818103602083015261307d8189612fbb565b905061308c6040830188612e52565b6130996060830187612f0d565b6130a66080830186612f0d565b6130b360a0830185612e52565b6130c060c0830184612e52565b98975050505050505050565b600080fd5b7f4e487b7100000000000000000000000000000000000000000000000000000000600052604160045260246000fd5b61310982612faa565b810181811067ffffffffffffffff82111715613128576131276130d1565b5b80604052505050565b600061313b612d6a565b90506131478282613100565b919050565b600067ffffffffffffffff821115613167576131666130d1565b5b602082029050602081019050919050565b600080fd5b600061319061318b8461314c565b613131565b905080838252602082019050602084028301858111156131b3576131b2613178565b5b835b818110156131dc57806131c88882612dfd565b8452602084019350506020810190506131b5565b5050509392505050565b600082601f8301126131fb576131fa6130cc565b5b813561320b84826020860161317d565b91505092915050565b600080fd5b600067ffffffffffffffff821115613234576132336130d1565b5b61323d82612faa565b9050602081019050919050565b82818337600083830152505050565b600061326c61326784613219565b613131565b90508281526020810184848401111561328857613287613214565b5b61329384828561324a565b509392505050565b600082601f8301126132b0576132af6130cc565b5b81356132c0848260208601613259565b91505092915050565b600080600080600060a086880312156132e5576132e4612d74565b5b60006132f388828901612dc7565b955050602061330488828901612dc7565b945050604086013567ffffffffffffffff81111561332557613324612d79565b5b613331888289016131e6565b935050606086013567ffffffffffffffff81111561335257613351612d79565b5b61335e888289016131e6565b925050608086013567ffffffffffffffff81111561337f5761337e612d79565b5b61338b8882890161329b565b9150509295509295909350565b600067ffffffffffffffff8211156133b3576133b26130d1565b5b6133bc82612faa565b9050602081019050919050565b60006133dc6133d784613398565b613131565b9050828152602081018484840111156133f8576133f7613214565b5b61340384828561324a565b509392505050565b600082601f8301126134205761341f6130cc565b5b81356134308482602086016133c9565b91505092915050565b60006020828403121561344f5761344e612d74565b5b600082013567ffffffffffffffff81111561346d5761346c612d79565b5b6134798482850161340b565b91505092915050565b61348b81612f01565b811461349657600080fd5b50565b6000813590506134a881613482565b92915050565b60008060008060008060c087890312156134cb576134ca612d74565b5b600087013567ffffffffffffffff8111156134e9576134e8612d79565b5b6134f589828a0161340b565b965050602061350689828a01613499565b955050604061351789828a01613499565b945050606061352889828a01612dfd565b935050608061353989828a01612dfd565b92505060a061354a89828a01612dfd565b9150509295509295509295565b600067ffffffffffffffff821115613572576135716130d1565b5b602082029050602081019050919050565b600061359661359184613557565b613131565b905080838252602082019050602084028301858111156135b9576135b8613178565b5b835b818110156135e257806135ce8882612dc7565b8452602084019350506020810190506135bb565b5050509392505050565b600082601f830112613601576136006130cc565b5b8135613611848260208601613583565b91505092915050565b6000806040838503121561363157613630612d74565b5b600083013567ffffffffffffffff81111561364f5761364e612d79565b5b61365b858286016135ec565b925050602083013567ffffffffffffffff81111561367c5761367b612d79565b5b613688858286016131e6565b9150509250929050565b600081519050919050565b600082825260208201905092915050565b6000819050602082019050919050565b6136c781612ddc565b82525050565b60006136d983836136be565b60208301905092915050565b6000602082019050919050565b60006136fd82613692565b613707818561369d565b9350613712836136ae565b8060005b8381101561374357815161372a88826136cd565b9750613735836136e5565b925050600181019050613716565b5085935050505092915050565b6000602082019050818103600083015261376a81846136f2565b905092915050565b60006040820190506137876000830185612e52565b6137946020830184612e52565b9392505050565b6137a481612d9e565b82525050565b60006020820190506137bf600083018461379b565b92915050565b60006137d082612d7e565b9050919050565b6137e0816137c5565b82525050565b60006020820190506137fb60008301846137d7565b92915050565b6000806040838503121561381857613817612d74565b5b600061382685828601612dc7565b925050602061383785828601613499565b9150509250929050565b600080fd5b60008083601f84011261385c5761385b6130cc565b5b8235905067ffffffffffffffff81111561387957613878613841565b5b60208301915083602082028301111561389557613894613178565b5b9250929050565b60008083601f8401126138b2576138b16130cc565b5b8235905067ffffffffffffffff8111156138cf576138ce613841565b5b6020830191508360208202830111156138eb576138ea613178565b5b9250929050565b60008060008060006060868803121561390e5761390d612d74565b5b600086013567ffffffffffffffff81111561392c5761392b612d79565b5b61393888828901613846565b9550955050602086013567ffffffffffffffff81111561395b5761395a612d79565b5b6139678882890161389c565b9350935050604061397a88828901612dfd565b9150509295509295909350565b6000806040838503121561399e5761399d612d74565b5b60006139ac85828601612dc7565b92505060206139bd85828601612dc7565b9150509250929050565b600080600080600060a086880312156139e3576139e2612d74565b5b60006139f188828901612dc7565b9550506020613a0288828901612dc7565b9450506040613a1388828901612dfd565b9350506060613a2488828901612dfd565b925050608086013567ffffffffffffffff811115613a4557613a44612d79565b5b613a518882890161329b565b9150509295509295909350565b600060208284031215613a7457613a73612d74565b5b6000613a8284828501612dc7565b91505092915050565b613a94816137c5565b8114613a9f57600080fd5b50565b600081359050613ab181613a8b565b92915050565b600060208284031215613acd57613acc612d74565b5b6000613adb84828501613aa2565b91505092915050565b7f455243313135353a2061646472657373207a65726f206973206e6f742061207660008201527f616c6964206f776e657200000000000000000000000000000000000000000000602082015250565b6000613b40602a83612f6f565b9150613b4b82613ae4565b604082019050919050565b60006020820190508181036000830152613b6f81613b33565b9050919050565b7f4e487b7100000000000000000000000000000000000000000000000000000000600052602260045260246000fd5b60006002820490506001821680613bbd57607f821691505b602082108103613bd057613bcf613b76565b5b50919050565b7f5175616e746974792067726561746572207468616e2072656d61696e696e6700600082015250565b6000613c0c601f83612f6f565b9150613c1782613bd6565b602082019050919050565b60006020820190508181036000830152613c3b81613bff565b9050919050565b7f546f6b656e2072657761726420636c6f73650000000000000000000000000000600082015250565b6000613c78601283612f6f565b9150613c8382613c42565b602082019050919050565b60006020820190508181036000830152613ca781613c6b565b9050919050565b7f4e487b7100000000000000000000000000000000000000000000000000000000600052601160045260246000fd5b6000613ce882612ddc565b9150613cf383612ddc565b9250828201905080821115613d0b57613d0a613cae565b5b92915050565b7f4e6f7420656e6f75676820737570706c79000000000000000000000000000000600082015250565b6000613d47601183612f6f565b9150613d5282613d11565b602082019050919050565b60006020820190508181036000830152613d7681613d3a565b9050919050565b7f486f6c64696e6720726577617264206d696e7420636c6f736500000000000000600082015250565b6000613db3601983612f6f565b9150613dbe82613d7d565b602082019050919050565b60006020820190508181036000830152613de281613da6565b9050919050565b6000606082019050613dfe6000830186612e52565b613e0b6020830185612e52565b613e186040830184612e52565b949350505050565b7f455243313135353a2063616c6c6572206973206e6f7420746f6b656e206f776e60008201527f6572206f7220617070726f766564000000000000000000000000000000000000602082015250565b6000613e7c602e83612f6f565b9150613e8782613e20565b604082019050919050565b60006020820190508181036000830152613eab81613e6f565b9050919050565b60008190508160005260206000209050919050565b60006020601f8301049050919050565b600082821b905092915050565b600060088302613f147fffffffffffffffffffffffffffffffffffffffffffffffffffffffffffffffff82613ed7565b613f1e8683613ed7565b95508019841693508086168417925050509392505050565b6000819050919050565b6000613f5b613f56613f5184612ddc565b613f36565b612ddc565b9050919050565b6000819050919050565b613f7583613f40565b613f89613f8182613f62565b848454613ee4565b825550505050565b600090565b613f9e613f91565b613fa9818484613f6c565b505050565b5b81811015613fcd57613fc2600082613f96565b600181019050613faf565b5050565b601f82111561401257613fe381613eb2565b613fec84613ec7565b81016020851015613ffb578190505b61400f61400785613ec7565b830182613fae565b50505b505050565b600082821c905092915050565b600061403560001984600802614017565b1980831691505092915050565b600061404e8383614024565b9150826002028217905092915050565b61406782612f64565b67ffffffffffffffff8111156140805761407f6130d1565b5b61408a8254613ba5565b614095828285613fd1565b600060209050601f8311600181146140c857600084156140b6578287015190505b6140c08582614042565b865550614128565b601f1984166140d686613eb2565b60005b828110156140fe578489015182556001820191506020850194506020810190506140d9565b8683101561411b5784890151614117601f891682614024565b8355505b6001600288020188555050505b505050505050565b7f455243313135353a206163636f756e747320616e6420696473206c656e67746860008201527f206d69736d617463680000000000000000000000000000000000000000000000602082015250565b600061418c602983612f6f565b915061419782614130565b604082019050919050565b600060208201905081810360008301526141bb8161417f565b9050919050565b7f4e487b7100000000000000000000000000000000000000000000000000000000600052603260045260246000fd5b60006141fc82612ddc565b91507fffffffffffffffffffffffffffffffffffffffffffffffffffffffffffffffff820361422e5761422d613cae565b5b600182019050919050565b7f4e62206164647265737320616e64206e62207175616e746974696573206d757360008201527f7420626520657175616c00000000000000000000000000000000000000000000602082015250565b6000614295602a83612f6f565b91506142a082614239565b604082019050919050565b600060208201905081810360008301526142c481614288565b9050919050565b7f43616e74206275726e20746f6b656e0000000000000000000000000000000000600082015250565b6000614301600f83612f6f565b915061430c826142cb565b602082019050919050565b60006020820190508181036000830152614330816142f4565b9050919050565b7f4e6f7420656e6f7567687420746f6b656e20746f206275726e00000000000000600082015250565b600061436d601983612f6f565b915061437882614337565b602082019050919050565b6000602082019050818103600083015261439c81614360565b9050919050565b600081905092915050565b60006143b982612f64565b6143c381856143a3565b93506143d3818560208601612f80565b80840191505092915050565b60006143eb82856143ae565b91506143f782846143ae565b91508190509392505050565b600061440e82612ddc565b915061441983612ddc565b925082820390508181111561443157614430613cae565b5b92915050565b7f4f776e61626c653a206e6577206f776e657220697320746865207a65726f206160008201527f6464726573730000000000000000000000000000000000000000000000000000602082015250565b6000614493602683612f6f565b915061449e82614437565b604082019050919050565b600060208201905081810360008301526144c281614486565b9050919050565b7f455243313135353a206d696e7420746f20746865207a65726f2061646472657360008201527f7300000000000000000000000000000000000000000000000000000000000000602082015250565b6000614525602183612f6f565b9150614530826144c9565b604082019050919050565b6000602082019050818103600083015261455481614518565b9050919050565b7f455243313135353a2069647320616e6420616d6f756e7473206c656e6774682060008201527f6d69736d61746368000000000000000000000000000000000000000000000000602082015250565b60006145b7602883612f6f565b91506145c28261455b565b604082019050919050565b600060208201905081810360008301526145e6816145aa565b9050919050565b7f455243313135353a207472616e7366657220746f20746865207a65726f20616460008201527f6472657373000000000000000000000000000000000000000000000000000000602082015250565b6000614649602583612f6f565b9150614654826145ed565b604082019050919050565b600060208201905081810360008301526146788161463c565b9050919050565b7f455243313135353a20696e73756666696369656e742062616c616e636520666f60008201527f72207472616e7366657200000000000000000000000000000000000000000000602082015250565b60006146db602a83612f6f565b91506146e68261467f565b604082019050919050565b6000602082019050818103600083015261470a816146ce565b9050919050565b6000604082019050818103600083015261472b81856136f2565b9050818103602083015261473f81846136f2565b90509392505050565b7f4f776e61626c653a2063616c6c6572206973206e6f7420746865206f776e6572600082015250565b600061477e602083612f6f565b915061478982614748565b602082019050919050565b600060208201905081810360008301526147ad81614771565b9050919050565b7f455243313135353a2073657474696e6720617070726f76616c2073746174757360008201527f20666f722073656c660000000000000000000000000000000000000000000000602082015250565b6000614810602983612f6f565b915061481b826147b4565b604082019050919050565b6000602082019050818103600083015261483f81614803565b9050919050565b7f455243313135353a206275726e2066726f6d20746865207a65726f206164647260008201527f6573730000000000000000000000000000000000000000000000000000000000602082015250565b60006148a2602383612f6f565b91506148ad82614846565b604082019050919050565b600060208201905081810360008301526148d181614895565b9050919050565b7f455243313135353a206275726e20616d6f756e7420657863656564732062616c60008201527f616e636500000000000000000000000000000000000000000000000000000000602082015250565b6000614934602483612f6f565b915061493f826148d8565b604082019050919050565b6000602082019050818103600083015261496381614927565b9050919050565b7f4e487b7100000000000000000000000000000000000000000000000000000000600052601260045260246000fd5b600081519050919050565b600082825260208201905092915050565b60006149c082614999565b6149ca81856149a4565b93506149da818560208601612f80565b6149e381612faa565b840191505092915050565b600060a082019050614a03600083018861379b565b614a10602083018761379b565b614a1d6040830186612e52565b614a2a6060830185612e52565b8181036080830152614a3c81846149b5565b90509695505050505050565b600081519050614a5781612ea8565b92915050565b600060208284031215614a7357614a72612d74565b5b6000614a8184828501614a48565b91505092915050565b60008160e01c9050919050565b600060033d1115614ab65760046000803e614ab3600051614a8a565b90505b90565b600060443d10614b4657614acb612d6a565b60043d036004823e80513d602482011167ffffffffffffffff82111715614af3575050614b46565b808201805167ffffffffffffffff811115614b115750505050614b46565b80602083010160043d038501811115614b2e575050505050614b46565b614b3d82602001850186613100565b82955050505050505b90565b7f455243313135353a207472616e7366657220746f206e6f6e2d4552433131353560008201527f526563656976657220696d706c656d656e746572000000000000000000000000602082015250565b6000614ba5603483612f6f565b9150614bb082614b49565b604082019050919050565b60006020820190508181036000830152614bd481614b98565b9050919050565b7f455243313135353a204552433131353552656365697665722072656a6563746560008201527f6420746f6b656e73000000000000000000000000000000000000000000000000602082015250565b6000614c37602883612f6f565b9150614c4282614bdb565b604082019050919050565b60006020820190508181036000830152614c6681614c2a565b9050919050565b600060a082019050614c82600083018861379b565b614c8f602083018761379b565b8181036040830152614ca181866136f2565b90508181036060830152614cb581856136f2565b90508181036080830152614cc981846149b5565b9050969550505050505056fea26469706673582212201e27d9b71fa926b547198263dd2b253ef0df2a63f5a6c557b8bad4bc1442bbfb64736f6c63430008130033",
  "immutableReferences": {},
  "source": "// SPDX-License-Identifier: MIT\npragma solidity 0.8.19;\n\nimport \"@openzeppelin/contracts/token/ERC1155/ERC1155.sol\";\nimport \"@openzeppelin/contracts/utils/Strings.sol\";\nimport \"@openzeppelin/contracts/access/Ownable.sol\";\nimport \"@openzeppelin/contracts/security/ReentrancyGuard.sol\";\n\n/// @title Meta-Life: Holding reward\n/// @author Hando Masahashi\n/// @notice This smart contract is used for reward holders\ncontract LegendsZoneRewards is ERC1155, Ownable, ReentrancyGuard {\n\n    using Strings for uint256;\n    string public baseURI = \"\";\n\n    uint256 public constant ID_CYBER_WEAPON = 1;\n    uint256 public constant ID_CYBER_ARMOR = 2;\n    uint256 public constant ID_ROUGH_PET = 3;\n    uint256 public constant ID_ROBOTER_WEAPON = 4;\n    uint256 public constant ID_MATRIX_ANGEL_CAR = 5;\n    uint256 public constant ID_ML_NETWORK_PASS = 6;\n    uint256 public constant ID_PARTICLE_COSMETIC_EFFECT = 7;\n    uint256 public constant ID_SHADOW_GEM = 8;\n\n    address payable public collector;\n\n    struct TokenReward {\n        uint256 id;\n        string name;\n        uint256 totalSupply;\n        bool mintable;\n        bool burnable;\n        uint256 maxSupply;\n        uint256 expireAt;\n    }\n\n    struct Eligibility {\n        uint256 total;\n        uint256 claimed;\n    }\n\n    mapping(address => mapping(uint256 => Eligibility)) public holderEligibilities;\n    mapping(uint256 => TokenReward) public tokenCollection;\n\n    event AddedEligibility(uint256 countAddresses, uint256 total);\n    event Minted(address indexed from, uint256 timestamp, uint256 tokenId, uint256 quantity);\n    event Burned(address indexed from, uint256 timestamp, uint256 tokenId, uint256 quantity);\n\n    constructor() ERC1155(\"\") {\n        collector = payable(msg.sender);\n        // expire at 2024 06 30\n        uint256 expireAt = 1719784799;\n        addToken(\"cyber-weapon\", true, false, 15000, ID_CYBER_WEAPON, expireAt);\n        addToken(\"cyber-armor\", false, false, 15000, ID_CYBER_ARMOR, expireAt);\n        addToken(\"rough-pet\", false, false, 15000, ID_ROUGH_PET, expireAt);\n        addToken(\"roboter-weapon\",  false, false, 15000, ID_ROBOTER_WEAPON, expireAt);\n        addToken(\"matrix-angel-car\", false, false, 15000, ID_MATRIX_ANGEL_CAR, expireAt);\n        addToken(\"ml-network-pass\", false, false, 12000, ID_ML_NETWORK_PASS, expireAt);\n        addToken(\"particle-cosmetic-effect\", false, false, 12000, ID_PARTICLE_COSMETIC_EFFECT, expireAt);\n        addToken(\"shadow-gem\", false, false, 8000, ID_SHADOW_GEM, expireAt);\n    }\n\n    function withdrawAll() public payable onlyOwner {\n        collector.transfer(address(this).balance);\n    }\n\n    function setCollector(address payable _newCollector) public onlyOwner {\n        collector = _newCollector;\n    }\n\n    function toggleTokenMint(uint256 _tokenId) public onlyOwner {\n        tokenCollection[_tokenId].mintable = !tokenCollection[_tokenId].mintable;\n    }\n\n    function toggleTokenBurnable(uint256 _tokenId) public onlyOwner {\n        tokenCollection[_tokenId].burnable = !tokenCollection[_tokenId].burnable;\n    }\n\n    function getTokenRewardStatus(uint256 _tokenId) public view returns (bool) {\n        return tokenCollection[_tokenId].mintable;\n    }\n\n    function isBurnable(uint256 _tokenId) public view returns (bool) {\n        return tokenCollection[_tokenId].burnable;\n    }\n\n    function remaining(address wallet, uint256 _tokenId) public view virtual returns (uint256) {\n        return holderEligibilities[wallet][_tokenId].total - holderEligibilities[wallet][_tokenId].claimed;\n    }\n\n    function _setBaseURI(string memory _newBaseURI) public onlyOwner {\n        baseURI = _newBaseURI;\n    }\n\n    function _baseURI() internal view virtual returns (string memory) {\n        return baseURI;\n    }\n\n    function tokenURI(uint256 _tokenId) public view virtual returns (string memory) {\n        string memory uri = _baseURI();\n        return bytes(uri).length > 0 ? string(abi.encodePacked(uri, _tokenId.toString())) : \"\";\n    }\n\n    function addToken(string memory _name, bool _mintable, bool _burnable, uint256 _maxSupply, uint256 _id, uint256 _expireAt) public onlyOwner {\n        tokenCollection[_id] = TokenReward({\n            id: _id,\n            name: _name,\n            totalSupply: 0,\n            mintable: _mintable,\n            burnable: _burnable,\n            maxSupply: _maxSupply,\n            expireAt: _expireAt\n        });\n    }\n\n    function addEligilities(address[] calldata _toAddAddresses, uint256[] calldata _quantities, uint256 _tokenId)  external onlyOwner {\n        require(_toAddAddresses.length == _quantities.length, \"Nb address and nb quantities must be equal\");\n\n        uint256 total = 0;\n        for (uint256 i = 0; i < _toAddAddresses.length; i++) {\n            holderEligibilities[_toAddAddresses[i]][_tokenId].total = _quantities[i];\n            total += _quantities[i];\n        }\n\n        emit AddedEligibility(_toAddAddresses.length, total);\n    }\n\n    function mint(uint256 _tokenId, uint256 _quantity) external {\n        require(remaining(msg.sender, _tokenId) >= _quantity, \"Quantity greater than remaining\");\n        require(tokenCollection[_tokenId].mintable, \"Token reward close\");\n        require(tokenCollection[_tokenId].totalSupply + _quantity <= tokenCollection[_tokenId].maxSupply, \"Not enough supply\");\n        require(block.timestamp < tokenCollection[_tokenId].expireAt, \"Holding reward mint close\");\n        holderEligibilities[msg.sender][_tokenId].claimed += _quantity;\n        tokenCollection[_tokenId].totalSupply += _quantity;\n        _mint(msg.sender, _tokenId, _quantity, \"\");\n\n        emit Minted(msg.sender, block.timestamp, _tokenId, _quantity);\n    }\n\n    function burn(uint256 _tokenId, uint256 _quantity) external {\n        require(tokenCollection[_tokenId].burnable, \"Cant burn token\");\n        require(balanceOf(msg.sender, _tokenId) >= _quantity, \"Not enought token to burn\");\n\n        _burn(msg.sender, _tokenId, _quantity);\n\n        emit Burned(msg.sender, block.timestamp, _tokenId, _quantity);\n    }\n}\n",
  "sourcePath": "/Users/rchea/workspaces/MetaLegends/contract-holding-rewards/contracts/LegendsZoneRewards.sol",
  "compiler": {
    "name": "solc",
    "version": "0.8.19+commit.7dd6d404.Emscripten.clang"
  },
  "schemaVersion": "3.4.13",
  "updatedAt": "2023-09-10T12:29:03.480Z",
  "networkType": "ethereum",
  "devdoc": {
    "author": "Hando Masahashi",
    "events": {
      "ApprovalForAll(address,address,bool)": {
        "details": "Emitted when `account` grants or revokes permission to `operator` to transfer their tokens, according to `approved`."
      },
      "TransferBatch(address,address,address,uint256[],uint256[])": {
        "details": "Equivalent to multiple {TransferSingle} events, where `operator`, `from` and `to` are the same for all transfers."
      },
      "TransferSingle(address,address,address,uint256,uint256)": {
        "details": "Emitted when `value` tokens of token type `id` are transferred from `from` to `to` by `operator`."
      },
      "URI(string,uint256)": {
        "details": "Emitted when the URI for token type `id` changes to `value`, if it is a non-programmatic URI. If an {URI} event was emitted for `id`, the standard https://eips.ethereum.org/EIPS/eip-1155#metadata-extensions[guarantees] that `value` will equal the value returned by {IERC1155MetadataURI-uri}."
      }
    },
    "kind": "dev",
    "methods": {
      "balanceOf(address,uint256)": {
        "details": "See {IERC1155-balanceOf}. Requirements: - `account` cannot be the zero address."
      },
      "balanceOfBatch(address[],uint256[])": {
        "details": "See {IERC1155-balanceOfBatch}. Requirements: - `accounts` and `ids` must have the same length."
      },
      "isApprovedForAll(address,address)": {
        "details": "See {IERC1155-isApprovedForAll}."
      },
      "owner()": {
        "details": "Returns the address of the current owner."
      },
      "renounceOwnership()": {
        "details": "Leaves the contract without owner. It will not be possible to call `onlyOwner` functions. Can only be called by the current owner. NOTE: Renouncing ownership will leave the contract without an owner, thereby disabling any functionality that is only available to the owner."
      },
      "safeBatchTransferFrom(address,address,uint256[],uint256[],bytes)": {
        "details": "See {IERC1155-safeBatchTransferFrom}."
      },
      "safeTransferFrom(address,address,uint256,uint256,bytes)": {
        "details": "See {IERC1155-safeTransferFrom}."
      },
      "setApprovalForAll(address,bool)": {
        "details": "See {IERC1155-setApprovalForAll}."
      },
      "supportsInterface(bytes4)": {
        "details": "See {IERC165-supportsInterface}."
      },
      "transferOwnership(address)": {
        "details": "Transfers ownership of the contract to a new account (`newOwner`). Can only be called by the current owner."
      },
      "uri(uint256)": {
        "details": "See {IERC1155MetadataURI-uri}. This implementation returns the same URI for *all* token types. It relies on the token type ID substitution mechanism https://eips.ethereum.org/EIPS/eip-1155#metadata[defined in the EIP]. Clients calling this function must replace the `\\{id\\}` substring with the actual token type ID."
      }
    },
    "title": "Meta-Life: Holding reward",
    "version": 1
  },
  "userdoc": {
    "kind": "user",
    "methods": {},
    "notice": "This smart contract is used for reward holders",
    "version": 1
  }
}