{
  "contractName": "MetaLifeVehicle",
  "abi": [
    {
      "inputs": [],
      "stateMutability": "nonpayable",
      "type": "constructor"
    },
    {
      "inputs": [],
      "name": "AccountBalanceOverflow",
      "type": "error"
    },
    {
      "inputs": [],
      "name": "BalanceQueryForZeroAddress",
      "type": "error"
    },
    {
      "inputs": [],
      "name": "ContractsCannotMint",
      "type": "error"
    },
    {
      "inputs": [],
      "name": "MustMintAtLeastOneToken",
      "type": "error"
    },
    {
      "inputs": [],
      "name": "NotEnoughAvailableTokens",
      "type": "error"
    },
    {
      "inputs": [],
      "name": "NotOwnerNorApproved",
      "type": "error"
    },
    {
      "inputs": [
        {
          "internalType": "address",
          "name": "owner",
          "type": "address"
        }
      ],
      "name": "OwnableInvalidOwner",
      "type": "error"
    },
    {
      "inputs": [
        {
          "internalType": "address",
          "name": "account",
          "type": "address"
        }
      ],
      "name": "OwnableUnauthorizedAccount",
      "type": "error"
    },
    {
      "inputs": [],
      "name": "ReentrancyGuardReentrantCall",
      "type": "error"
    },
    {
      "inputs": [],
      "name": "TokenAlreadyExists",
      "type": "error"
    },
    {
      "inputs": [],
      "name": "TokenDoesNotExist",
      "type": "error"
    },
    {
      "inputs": [],
      "name": "TransferFromIncorrectOwner",
      "type": "error"
    },
    {
      "inputs": [],
      "name": "TransferToNonERC721ReceiverImplementer",
      "type": "error"
    },
    {
      "inputs": [],
      "name": "TransferToZeroAddress",
      "type": "error"
    },
    {
      "anonymous": false,
      "inputs": [
        {
          "indexed": true,
          "internalType": "address",
          "name": "owner",
          "type": "address"
        },
        {
          "indexed": true,
          "internalType": "address",
          "name": "account",
          "type": "address"
        },
        {
          "indexed": true,
          "internalType": "uint256",
          "name": "id",
          "type": "uint256"
        }
      ],
      "name": "Approval",
      "type": "event"
    },
    {
      "anonymous": false,
      "inputs": [
        {
          "indexed": true,
          "internalType": "address",
          "name": "owner",
          "type": "address"
        },
        {
          "indexed": true,
          "internalType": "address",
          "name": "operator",
          "type": "address"
        },
        {
          "indexed": false,
          "internalType": "bool",
          "name": "isApproved",
          "type": "bool"
        }
      ],
      "name": "ApprovalForAll",
      "type": "event"
    },
    {
      "anonymous": false,
      "inputs": [
        {
          "indexed": true,
          "internalType": "address",
          "name": "from",
          "type": "address"
        },
        {
          "indexed": false,
          "internalType": "uint256",
          "name": "timestamp",
          "type": "uint256"
        },
        {
          "indexed": false,
          "internalType": "uint16[]",
          "name": "tokenIds",
          "type": "uint16[]"
        }
      ],
      "name": "MintedCouncil",
      "type": "event"
    },
    {
      "anonymous": false,
      "inputs": [
        {
          "indexed": true,
          "internalType": "address",
          "name": "from",
          "type": "address"
        },
        {
          "indexed": false,
          "internalType": "uint256",
          "name": "timestamp",
          "type": "uint256"
        },
        {
          "indexed": false,
          "internalType": "uint16",
          "name": "tokenId",
          "type": "uint16"
        }
      ],
      "name": "MintedGuardian",
      "type": "event"
    },
    {
      "anonymous": false,
      "inputs": [
        {
          "indexed": true,
          "internalType": "address",
          "name": "from",
          "type": "address"
        },
        {
          "indexed": false,
          "internalType": "uint256",
          "name": "timestamp",
          "type": "uint256"
        },
        {
          "indexed": false,
          "internalType": "uint16[]",
          "name": "tokenIds",
          "type": "uint16[]"
        }
      ],
      "name": "MintedHonorary",
      "type": "event"
    },
    {
      "anonymous": false,
      "inputs": [
        {
          "indexed": true,
          "internalType": "address",
          "name": "from",
          "type": "address"
        },
        {
          "indexed": false,
          "internalType": "uint256",
          "name": "timestamp",
          "type": "uint256"
        },
        {
          "indexed": false,
          "internalType": "uint16",
          "name": "tokenId",
          "type": "uint16"
        }
      ],
      "name": "MintedJudge",
      "type": "event"
    },
    {
      "anonymous": false,
      "inputs": [
        {
          "indexed": true,
          "internalType": "address",
          "name": "from",
          "type": "address"
        },
        {
          "indexed": false,
          "internalType": "uint256",
          "name": "timestamp",
          "type": "uint256"
        }
      ],
      "name": "MintedRandom",
      "type": "event"
    },
    {
      "anonymous": false,
      "inputs": [
        {
          "indexed": true,
          "internalType": "address",
          "name": "from",
          "type": "address"
        },
        {
          "indexed": false,
          "internalType": "uint256",
          "name": "timestamp",
          "type": "uint256"
        },
        {
          "indexed": false,
          "internalType": "uint16[]",
          "name": "tokenIds",
          "type": "uint16[]"
        }
      ],
      "name": "MintedWhale",
      "type": "event"
    },
    {
      "anonymous": false,
      "inputs": [
        {
          "indexed": true,
          "internalType": "address",
          "name": "previousOwner",
          "type": "address"
        },
        {
          "indexed": true,
          "internalType": "address",
          "name": "newOwner",
          "type": "address"
        }
      ],
      "name": "OwnershipTransferred",
      "type": "event"
    },
    {
      "anonymous": false,
      "inputs": [
        {
          "indexed": true,
          "internalType": "address",
          "name": "from",
          "type": "address"
        },
        {
          "indexed": true,
          "internalType": "address",
          "name": "to",
          "type": "address"
        },
        {
          "indexed": true,
          "internalType": "uint256",
          "name": "id",
          "type": "uint256"
        }
      ],
      "name": "Transfer",
      "type": "event"
    },
    {
      "inputs": [
        {
          "internalType": "address",
          "name": "",
          "type": "address"
        }
      ],
      "name": "allowlistCouncil",
      "outputs": [
        {
          "internalType": "uint8",
          "name": "total",
          "type": "uint8"
        },
        {
          "internalType": "uint8",
          "name": "claimed",
          "type": "uint8"
        }
      ],
      "stateMutability": "view",
      "type": "function",
      "constant": true
    },
    {
      "inputs": [
        {
          "internalType": "address",
          "name": "",
          "type": "address"
        }
      ],
      "name": "allowlistGuardian",
      "outputs": [
        {
          "internalType": "uint8",
          "name": "total",
          "type": "uint8"
        },
        {
          "internalType": "uint8",
          "name": "claimed",
          "type": "uint8"
        }
      ],
      "stateMutability": "view",
      "type": "function",
      "constant": true
    },
    {
      "inputs": [
        {
          "internalType": "address",
          "name": "",
          "type": "address"
        }
      ],
      "name": "allowlistHonorary",
      "outputs": [
        {
          "internalType": "uint8",
          "name": "total",
          "type": "uint8"
        },
        {
          "internalType": "uint8",
          "name": "claimed",
          "type": "uint8"
        }
      ],
      "stateMutability": "view",
      "type": "function",
      "constant": true
    },
    {
      "inputs": [
        {
          "internalType": "address",
          "name": "",
          "type": "address"
        }
      ],
      "name": "allowlistJudge",
      "outputs": [
        {
          "internalType": "uint8",
          "name": "total",
          "type": "uint8"
        },
        {
          "internalType": "uint8",
          "name": "claimed",
          "type": "uint8"
        }
      ],
      "stateMutability": "view",
      "type": "function",
      "constant": true
    },
    {
      "inputs": [
        {
          "internalType": "address",
          "name": "",
          "type": "address"
        }
      ],
      "name": "allowlistRandom",
      "outputs": [
        {
          "internalType": "uint8",
          "name": "total",
          "type": "uint8"
        },
        {
          "internalType": "uint8",
          "name": "claimed",
          "type": "uint8"
        }
      ],
      "stateMutability": "view",
      "type": "function",
      "constant": true
    },
    {
      "inputs": [
        {
          "internalType": "address",
          "name": "",
          "type": "address"
        }
      ],
      "name": "allowlistWhale",
      "outputs": [
        {
          "internalType": "uint8",
          "name": "total",
          "type": "uint8"
        },
        {
          "internalType": "uint8",
          "name": "claimed",
          "type": "uint8"
        }
      ],
      "stateMutability": "view",
      "type": "function",
      "constant": true
    },
    {
      "inputs": [
        {
          "internalType": "address",
          "name": "account",
          "type": "address"
        },
        {
          "internalType": "uint256",
          "name": "id",
          "type": "uint256"
        }
      ],
      "name": "approve",
      "outputs": [],
      "stateMutability": "payable",
      "type": "function",
      "payable": true
    },
    {
      "inputs": [
        {
          "internalType": "address",
          "name": "owner",
          "type": "address"
        }
      ],
      "name": "balanceOf",
      "outputs": [
        {
          "internalType": "uint256",
          "name": "result",
          "type": "uint256"
        }
      ],
      "stateMutability": "view",
      "type": "function",
      "constant": true
    },
    {
      "inputs": [],
      "name": "baseURI",
      "outputs": [
        {
          "internalType": "string",
          "name": "",
          "type": "string"
        }
      ],
      "stateMutability": "view",
      "type": "function",
      "constant": true
    },
    {
      "inputs": [],
      "name": "collector",
      "outputs": [
        {
          "internalType": "address payable",
          "name": "",
          "type": "address"
        }
      ],
      "stateMutability": "view",
      "type": "function",
      "constant": true
    },
    {
      "inputs": [
        {
          "internalType": "uint256",
          "name": "id",
          "type": "uint256"
        }
      ],
      "name": "getApproved",
      "outputs": [
        {
          "internalType": "address",
          "name": "result",
          "type": "address"
        }
      ],
      "stateMutability": "view",
      "type": "function",
      "constant": true
    },
    {
      "inputs": [
        {
          "internalType": "address",
          "name": "owner",
          "type": "address"
        },
        {
          "internalType": "address",
          "name": "operator",
          "type": "address"
        }
      ],
      "name": "isApprovedForAll",
      "outputs": [
        {
          "internalType": "bool",
          "name": "result",
          "type": "bool"
        }
      ],
      "stateMutability": "view",
      "type": "function",
      "constant": true
    },
    {
      "inputs": [],
      "name": "limitSpecialMint",
      "outputs": [
        {
          "internalType": "uint256",
          "name": "",
          "type": "uint256"
        }
      ],
      "stateMutability": "view",
      "type": "function",
      "constant": true
    },
    {
      "inputs": [],
      "name": "mainMaxSupply",
      "outputs": [
        {
          "internalType": "uint16",
          "name": "",
          "type": "uint16"
        }
      ],
      "stateMutability": "view",
      "type": "function",
      "constant": true
    },
    {
      "inputs": [],
      "name": "maxSupply",
      "outputs": [
        {
          "internalType": "uint256",
          "name": "",
          "type": "uint256"
        }
      ],
      "stateMutability": "view",
      "type": "function",
      "constant": true
    },
    {
      "inputs": [],
      "name": "maxSupplyCouncil",
      "outputs": [
        {
          "internalType": "uint16",
          "name": "",
          "type": "uint16"
        }
      ],
      "stateMutability": "view",
      "type": "function",
      "constant": true
    },
    {
      "inputs": [],
      "name": "maxSupplyGuardian",
      "outputs": [
        {
          "internalType": "uint16",
          "name": "",
          "type": "uint16"
        }
      ],
      "stateMutability": "view",
      "type": "function",
      "constant": true
    },
    {
      "inputs": [],
      "name": "maxSupplyHonorary",
      "outputs": [
        {
          "internalType": "uint16",
          "name": "",
          "type": "uint16"
        }
      ],
      "stateMutability": "view",
      "type": "function",
      "constant": true
    },
    {
      "inputs": [],
      "name": "maxSupplyJudge",
      "outputs": [
        {
          "internalType": "uint16",
          "name": "",
          "type": "uint16"
        }
      ],
      "stateMutability": "view",
      "type": "function",
      "constant": true
    },
    {
      "inputs": [],
      "name": "maxSupplyWhale",
      "outputs": [
        {
          "internalType": "uint16",
          "name": "",
          "type": "uint16"
        }
      ],
      "stateMutability": "view",
      "type": "function",
      "constant": true
    },
    {
      "inputs": [],
      "name": "name",
      "outputs": [
        {
          "internalType": "string",
          "name": "",
          "type": "string"
        }
      ],
      "stateMutability": "view",
      "type": "function",
      "constant": true
    },
    {
      "inputs": [],
      "name": "nbMintedCouncil",
      "outputs": [
        {
          "internalType": "uint16",
          "name": "",
          "type": "uint16"
        }
      ],
      "stateMutability": "view",
      "type": "function",
      "constant": true
    },
    {
      "inputs": [],
      "name": "nbMintedGuardian",
      "outputs": [
        {
          "internalType": "uint16",
          "name": "",
          "type": "uint16"
        }
      ],
      "stateMutability": "view",
      "type": "function",
      "constant": true
    },
    {
      "inputs": [],
      "name": "nbMintedHonorary",
      "outputs": [
        {
          "internalType": "uint16",
          "name": "",
          "type": "uint16"
        }
      ],
      "stateMutability": "view",
      "type": "function",
      "constant": true
    },
    {
      "inputs": [],
      "name": "nbMintedJudge",
      "outputs": [
        {
          "internalType": "uint16",
          "name": "",
          "type": "uint16"
        }
      ],
      "stateMutability": "view",
      "type": "function",
      "constant": true
    },
    {
      "inputs": [],
      "name": "nbMintedWhale",
      "outputs": [
        {
          "internalType": "uint16",
          "name": "",
          "type": "uint16"
        }
      ],
      "stateMutability": "view",
      "type": "function",
      "constant": true
    },
    {
      "inputs": [
        {
          "internalType": "address",
          "name": "minter",
          "type": "address"
        }
      ],
      "name": "numberMinted",
      "outputs": [
        {
          "internalType": "uint32",
          "name": "",
          "type": "uint32"
        }
      ],
      "stateMutability": "view",
      "type": "function",
      "constant": true
    },
    {
      "inputs": [],
      "name": "originOwner",
      "outputs": [
        {
          "internalType": "address",
          "name": "",
          "type": "address"
        }
      ],
      "stateMutability": "view",
      "type": "function",
      "constant": true
    },
    {
      "inputs": [],
      "name": "owner",
      "outputs": [
        {
          "internalType": "address",
          "name": "",
          "type": "address"
        }
      ],
      "stateMutability": "view",
      "type": "function",
      "constant": true
    },
    {
      "inputs": [
        {
          "internalType": "uint256",
          "name": "id",
          "type": "uint256"
        }
      ],
      "name": "ownerOf",
      "outputs": [
        {
          "internalType": "address",
          "name": "result",
          "type": "address"
        }
      ],
      "stateMutability": "view",
      "type": "function",
      "constant": true
    },
    {
      "inputs": [],
      "name": "remainingSupply",
      "outputs": [
        {
          "internalType": "uint256",
          "name": "",
          "type": "uint256"
        }
      ],
      "stateMutability": "view",
      "type": "function",
      "constant": true
    },
    {
      "inputs": [],
      "name": "renounceOwnership",
      "outputs": [],
      "stateMutability": "nonpayable",
      "type": "function"
    },
    {
      "inputs": [
        {
          "internalType": "address",
          "name": "from",
          "type": "address"
        },
        {
          "internalType": "address",
          "name": "to",
          "type": "address"
        },
        {
          "internalType": "uint256",
          "name": "id",
          "type": "uint256"
        }
      ],
      "name": "safeTransferFrom",
      "outputs": [],
      "stateMutability": "payable",
      "type": "function",
      "payable": true
    },
    {
      "inputs": [
        {
          "internalType": "address",
          "name": "from",
          "type": "address"
        },
        {
          "internalType": "address",
          "name": "to",
          "type": "address"
        },
        {
          "internalType": "uint256",
          "name": "id",
          "type": "uint256"
        },
        {
          "internalType": "bytes",
          "name": "data",
          "type": "bytes"
        }
      ],
      "name": "safeTransferFrom",
      "outputs": [],
      "stateMutability": "payable",
      "type": "function",
      "payable": true
    },
    {
      "inputs": [
        {
          "internalType": "address",
          "name": "operator",
          "type": "address"
        },
        {
          "internalType": "bool",
          "name": "isApproved",
          "type": "bool"
        }
      ],
      "name": "setApprovalForAll",
      "outputs": [],
      "stateMutability": "nonpayable",
      "type": "function"
    },
    {
      "inputs": [
        {
          "internalType": "bytes4",
          "name": "interfaceId",
          "type": "bytes4"
        }
      ],
      "name": "supportsInterface",
      "outputs": [
        {
          "internalType": "bool",
          "name": "result",
          "type": "bool"
        }
      ],
      "stateMutability": "view",
      "type": "function",
      "constant": true
    },
    {
      "inputs": [],
      "name": "symbol",
      "outputs": [
        {
          "internalType": "string",
          "name": "",
          "type": "string"
        }
      ],
      "stateMutability": "view",
      "type": "function",
      "constant": true
    },
    {
      "inputs": [],
      "name": "totalSupply",
      "outputs": [
        {
          "internalType": "uint256",
          "name": "",
          "type": "uint256"
        }
      ],
      "stateMutability": "view",
      "type": "function",
      "constant": true
    },
    {
      "inputs": [
        {
          "internalType": "address",
          "name": "from",
          "type": "address"
        },
        {
          "internalType": "address",
          "name": "to",
          "type": "address"
        },
        {
          "internalType": "uint256",
          "name": "id",
          "type": "uint256"
        }
      ],
      "name": "transferFrom",
      "outputs": [],
      "stateMutability": "payable",
      "type": "function",
      "payable": true
    },
    {
      "inputs": [
        {
          "internalType": "address",
          "name": "newOwner",
          "type": "address"
        }
      ],
      "name": "transferOwnership",
      "outputs": [],
      "stateMutability": "nonpayable",
      "type": "function"
    },
    {
      "inputs": [],
      "name": "withdrawAll",
      "outputs": [],
      "stateMutability": "payable",
      "type": "function",
      "payable": true
    },
    {
      "inputs": [
        {
          "internalType": "address payable",
          "name": "_newCollector",
          "type": "address"
        }
      ],
      "name": "setCollector",
      "outputs": [],
      "stateMutability": "nonpayable",
      "type": "function"
    },
    {
      "inputs": [
        {
          "internalType": "string",
          "name": "_newBaseURI",
          "type": "string"
        }
      ],
      "name": "_setBaseURI",
      "outputs": [],
      "stateMutability": "nonpayable",
      "type": "function"
    },
    {
      "inputs": [
        {
          "internalType": "uint256",
          "name": "tokenId",
          "type": "uint256"
        }
      ],
      "name": "tokenURI",
      "outputs": [
        {
          "internalType": "string",
          "name": "",
          "type": "string"
        }
      ],
      "stateMutability": "view",
      "type": "function",
      "constant": true
    },
    {
      "inputs": [
        {
          "internalType": "uint256",
          "name": "tokenId",
          "type": "uint256"
        }
      ],
      "name": "tokenExist",
      "outputs": [
        {
          "internalType": "bool",
          "name": "",
          "type": "bool"
        }
      ],
      "stateMutability": "view",
      "type": "function",
      "constant": true
    },
    {
      "inputs": [],
      "name": "mainTotalSupply",
      "outputs": [
        {
          "internalType": "uint256",
          "name": "",
          "type": "uint256"
        }
      ],
      "stateMutability": "view",
      "type": "function",
      "constant": true
    },
    {
      "inputs": [
        {
          "internalType": "address",
          "name": "wallet",
          "type": "address"
        }
      ],
      "name": "remainingRandom",
      "outputs": [
        {
          "internalType": "uint8",
          "name": "",
          "type": "uint8"
        }
      ],
      "stateMutability": "view",
      "type": "function",
      "constant": true
    },
    {
      "inputs": [
        {
          "internalType": "address",
          "name": "wallet",
          "type": "address"
        }
      ],
      "name": "remainingCouncil",
      "outputs": [
        {
          "internalType": "uint8",
          "name": "",
          "type": "uint8"
        }
      ],
      "stateMutability": "view",
      "type": "function",
      "constant": true
    },
    {
      "inputs": [
        {
          "internalType": "address",
          "name": "wallet",
          "type": "address"
        }
      ],
      "name": "remainingHonorary",
      "outputs": [
        {
          "internalType": "uint8",
          "name": "",
          "type": "uint8"
        }
      ],
      "stateMutability": "view",
      "type": "function",
      "constant": true
    },
    {
      "inputs": [
        {
          "internalType": "address",
          "name": "wallet",
          "type": "address"
        }
      ],
      "name": "remainingWhale",
      "outputs": [
        {
          "internalType": "uint8",
          "name": "",
          "type": "uint8"
        }
      ],
      "stateMutability": "view",
      "type": "function",
      "constant": true
    },
    {
      "inputs": [
        {
          "internalType": "address",
          "name": "wallet",
          "type": "address"
        }
      ],
      "name": "remainingJudge",
      "outputs": [
        {
          "internalType": "uint8",
          "name": "",
          "type": "uint8"
        }
      ],
      "stateMutability": "view",
      "type": "function",
      "constant": true
    },
    {
      "inputs": [
        {
          "internalType": "address",
          "name": "wallet",
          "type": "address"
        }
      ],
      "name": "remainingGuardian",
      "outputs": [
        {
          "internalType": "uint8",
          "name": "",
          "type": "uint8"
        }
      ],
      "stateMutability": "view",
      "type": "function",
      "constant": true
    },
    {
      "inputs": [
        {
          "internalType": "address[]",
          "name": "_toAddAddresses",
          "type": "address[]"
        },
        {
          "internalType": "uint8[]",
          "name": "_quantities",
          "type": "uint8[]"
        }
      ],
      "name": "addAllowlistRandom",
      "outputs": [],
      "stateMutability": "nonpayable",
      "type": "function"
    },
    {
      "inputs": [
        {
          "internalType": "uint8",
          "name": "_quantities",
          "type": "uint8"
        }
      ],
      "name": "mintRandom",
      "outputs": [],
      "stateMutability": "nonpayable",
      "type": "function"
    },
    {
      "inputs": [
        {
          "internalType": "address[]",
          "name": "_toAddAddresses",
          "type": "address[]"
        },
        {
          "internalType": "uint8[]",
          "name": "_quantities",
          "type": "uint8[]"
        }
      ],
      "name": "addAllowlistCouncil",
      "outputs": [],
      "stateMutability": "nonpayable",
      "type": "function"
    },
    {
      "inputs": [
        {
          "internalType": "uint8",
          "name": "_quantities",
          "type": "uint8"
        }
      ],
      "name": "mintCouncil",
      "outputs": [],
      "stateMutability": "nonpayable",
      "type": "function"
    },
    {
      "inputs": [
        {
          "internalType": "address[]",
          "name": "_toAddAddresses",
          "type": "address[]"
        },
        {
          "internalType": "uint8[]",
          "name": "_quantities",
          "type": "uint8[]"
        }
      ],
      "name": "addAllowlistHonorary",
      "outputs": [],
      "stateMutability": "nonpayable",
      "type": "function"
    },
    {
      "inputs": [
        {
          "internalType": "uint8",
          "name": "_quantities",
          "type": "uint8"
        }
      ],
      "name": "mintHonorary",
      "outputs": [],
      "stateMutability": "nonpayable",
      "type": "function"
    },
    {
      "inputs": [
        {
          "internalType": "address[]",
          "name": "_toAddAddresses",
          "type": "address[]"
        }
      ],
      "name": "addAllowlistGuardian",
      "outputs": [],
      "stateMutability": "nonpayable",
      "type": "function"
    },
    {
      "inputs": [],
      "name": "mintGuardian",
      "outputs": [],
      "stateMutability": "nonpayable",
      "type": "function"
    },
    {
      "inputs": [
        {
          "internalType": "address[]",
          "name": "_toAddAddresses",
          "type": "address[]"
        }
      ],
      "name": "addAllowlistJudge",
      "outputs": [],
      "stateMutability": "nonpayable",
      "type": "function"
    },
    {
      "inputs": [],
      "name": "mintJudge",
      "outputs": [],
      "stateMutability": "nonpayable",
      "type": "function"
    },
    {
      "inputs": [
        {
          "internalType": "address[]",
          "name": "_toAddAddresses",
          "type": "address[]"
        },
        {
          "internalType": "uint8[]",
          "name": "_quantities",
          "type": "uint8[]"
        }
      ],
      "name": "addAllowlistWhale",
      "outputs": [],
      "stateMutability": "nonpayable",
      "type": "function"
    },
    {
      "inputs": [
        {
          "internalType": "uint8",
          "name": "_quantities",
          "type": "uint8"
        }
      ],
      "name": "mintWhale",
      "outputs": [],
      "stateMutability": "nonpayable",
      "type": "function"
    }
  ],
  "bytecode": "0x60a06040526104b060075f6101000a81548161ffff021916908361ffff1602179055505f600760026101000a81548161ffff021916908361ffff1602179055505f600760046101000a81548161ffff021916908361ffff1602179055505f600760066101000a81548161ffff021916908361ffff1602179055505f600760086101000a81548161ffff021916908361ffff1602179055505f6007600a6101000a81548161ffff021916908361ffff16021790555060fa6007600c6101000a81548161ffff021916908361ffff16021790555060426007600e6101000a81548161ffff021916908361ffff1602179055506016600760106101000a81548161ffff021916908361ffff160217905550600a600760126101000a81548161ffff021916908361ffff160217905550601f600760146101000a81548161ffff021916908361ffff16021790555063665a485f6008557387a1ab9aab7bae43ad4ce4951a93e7f5bbcac23060095f6101000a81548173ffffffffffffffffffffffffffffffffffffffff021916908373ffffffffffffffffffffffffffffffffffffffff160217905550610336600c5f6101000a81548161ffff021916908361ffff160217905550610430600e5f6101000a81548161ffff021916908361ffff16021790555061047260105f6101000a81548161ffff021916908361ffff16021790555061048860125f6101000a81548161ffff021916908361ffff16021790555061049260145f6101000a81548161ffff021916908361ffff16021790555034801562000247575f80fd5b506040518060400160405280601181526020017f4d6574612d4c6966652056656869636c650000000000000000000000000000008152506040518060400160405280600381526020017f4d4c56000000000000000000000000000000000000000000000000000000000081525061033460095f9054906101000a900473ffffffffffffffffffffffffffffffffffffffff1660015f819055505f73ffffffffffffffffffffffffffffffffffffffff168173ffffffffffffffffffffffffffffffffffffffff160362000353575f6040517f1e4fbdf70000000000000000000000000000000000000000000000000000000081526004016200034a9190620004a7565b60405180910390fd5b6200036481620003a160201b60201c565b50826002908162000376919062000726565b50816003908162000388919062000726565b508060808181525050806005819055505050506200080a565b5f60015f9054906101000a900473ffffffffffffffffffffffffffffffffffffffff1690508160015f6101000a81548173ffffffffffffffffffffffffffffffffffffffff021916908373ffffffffffffffffffffffffffffffffffffffff1602179055508173ffffffffffffffffffffffffffffffffffffffff168173ffffffffffffffffffffffffffffffffffffffff167f8be0079c531659141344cd1fd0a4f28419497f9722a3daafe3b4186f6b6457e060405160405180910390a35050565b5f73ffffffffffffffffffffffffffffffffffffffff82169050919050565b5f6200048f8262000464565b9050919050565b620004a18162000483565b82525050565b5f602082019050620004bc5f83018462000496565b92915050565b5f81519050919050565b7f4e487b71000000000000000000000000000000000000000000000000000000005f52604160045260245ffd5b7f4e487b71000000000000000000000000000000000000000000000000000000005f52602260045260245ffd5b5f60028204905060018216806200053e57607f821691505b602082108103620005545762000553620004f9565b5b50919050565b5f819050815f5260205f209050919050565b5f6020601f8301049050919050565b5f82821b905092915050565b5f60088302620005b87fffffffffffffffffffffffffffffffffffffffffffffffffffffffffffffffff826200057b565b620005c486836200057b565b95508019841693508086168417925050509392505050565b5f819050919050565b5f819050919050565b5f6200060e620006086200060284620005dc565b620005e5565b620005dc565b9050919050565b5f819050919050565b6200062983620005ee565b62000641620006388262000615565b84845462000587565b825550505050565b5f90565b6200065762000649565b620006648184846200061e565b505050565b5b818110156200068b576200067f5f826200064d565b6001810190506200066a565b5050565b601f821115620006da57620006a4816200055a565b620006af846200056c565b81016020851015620006bf578190505b620006d7620006ce856200056c565b83018262000669565b50505b505050565b5f82821c905092915050565b5f620006fc5f1984600802620006df565b1980831691505092915050565b5f620007168383620006eb565b9150826002028217905092915050565b6200073182620004c2565b67ffffffffffffffff8111156200074d576200074c620004cc565b5b62000759825462000526565b620007668282856200068f565b5f60209050601f8311600181146200079c575f841562000787578287015190505b62000793858262000709565b86555062000802565b601f198416620007ac866200055a565b5f5b82811015620007d557848901518255600182019150602085019450602081019050620007ae565b86831015620007f55784890151620007f1601f891682620006eb565b8355505b6001600288020188555050505b505050505050565b6080516154d2620008315f395f8181611419015281816116b0015261316e01526154d25ff3fe6080604052600436106103c2575f3560e01c80637a12ef82116101f1578063b88d4fde1161010c578063dc33e6811161009f578063ea3d74181161006e578063ea3d741814610e60578063f2fde38b14610e8a578063fb5b82d014610eb2578063fc89067914610eda576103c2565b8063dc33e68114610d6e578063dd330e4d14610daa578063df1dc2c514610de7578063e985e9c514610e24576103c2565b8063cc0c5236116100db578063cc0c523614610cb6578063d5abeb0114610cf2578063da0239a614610d1c578063dab00abb14610d46576103c2565b8063b88d4fde14610c0e578063b904e37a14610c2a578063bc68ed6c14610c52578063c87b56dd14610c7a576103c2565b8063916ec2c611610184578063a22cb46511610153578063a22cb46514610b6c578063a2cd568914610b94578063ac497a4814610bbe578063b55698d514610be6576103c2565b8063916ec2c614610ac657806391ec4b4c14610af057806395d89b4114610b1a5780639a3e276814610b44576103c2565b8063889960ea116101c0578063889960ea14610a0c5780638b4303a614610a485780638da5cb5b14610a72578063913e77ad14610a9c576103c2565b80637a12ef82146109885780637ca470b1146109b0578063853828b6146109da57806385ad1cf5146109e4576103c2565b80632ff1474d116102e157806352186417116102745780636c0360eb116102435780636c0360eb146108e457806370a082311461090e578063715018a61461094a5780637400c92214610960576103c2565b806352186417146108055780635d42a059146108415780636352211e1461087e5780636802e529146108ba576103c2565b8063376e1b1f116102b0578063376e1b1f1461076d57806342842e0e1461078357806346fbed6f1461079f5780634e27acff146107c9576103c2565b80632ff1474d146106a257806331b5b907146106de57806333a3600714610706578063343bc89314610730576103c2565b8063106e707b1161035957806323b872dd1161032857806323b872dd146105f757806326d6327914610613578063282e7811146106505780632db5b8e71461067a576103c2565b8063106e707b1461053d57806318160ddd146105795780631bf3dd4f146105a35780631d490ee3146105cd576103c2565b806306fdde031161039557806306fdde031461049157806307edf9ef146104bb578063081812fc146104e5578063095ea7b314610521576103c2565b80630129b0b9146103c657806301ffc9a714610403578063022c01991461043f5780630322ba9814610455575b5f80fd5b3480156103d1575f80fd5b506103ec60048036038101906103e79190613e8d565b610f04565b6040516103fa929190613ed3565b60405180910390f35b34801561040e575f80fd5b5061042960048036038101906104249190613f4f565b610f3c565b6040516104369190613f94565b60405180910390f35b34801561044a575f80fd5b50610453610f60565b005b348015610460575f80fd5b5061047b60048036038101906104769190613e8d565b6111b4565b6040516104889190613fad565b60405180910390f35b34801561049c575f80fd5b506104a561125f565b6040516104b29190614050565b60405180910390f35b3480156104c6575f80fd5b506104cf6112ef565b6040516104dc919061408c565b60405180910390f35b3480156104f0575f80fd5b5061050b600480360381019061050691906140d8565b611303565b6040516105189190614112565b60405180910390f35b61053b6004803603810190610536919061412b565b611359565b005b348015610548575f80fd5b50610563600480360381019061055e9190613e8d565b611368565b6040516105709190613fad565b60405180910390f35b348015610584575f80fd5b5061058d611413565b60405161059a9190614178565b60405180910390f35b3480156105ae575f80fd5b506105b7611447565b6040516105c49190614178565b60405180910390f35b3480156105d8575f80fd5b506105e161144d565b6040516105ee919061408c565b60405180910390f35b610611600480360381019061060c9190614191565b611461565b005b34801561061e575f80fd5b5061063960048036038101906106349190613e8d565b61159d565b604051610647929190613ed3565b60405180910390f35b34801561065b575f80fd5b506106646115d5565b6040516106719190614112565b60405180910390f35b348015610685575f80fd5b506106a0600480360381019061069b919061420b565b6115fa565b005b3480156106ad575f80fd5b506106c860048036038101906106c39190613e8d565b6117e1565b6040516106d59190613fad565b60405180910390f35b3480156106e9575f80fd5b5061070460048036038101906106ff9190614362565b61188c565b005b348015610711575f80fd5b5061071a6118a7565b6040516107279190614178565b60405180910390f35b34801561073b575f80fd5b5061075660048036038101906107519190613e8d565b611950565b604051610764929190613ed3565b60405180910390f35b348015610778575f80fd5b50610781611988565b005b61079d60048036038101906107989190614191565b611bdc565b005b3480156107aa575f80fd5b506107b3611c15565b6040516107c0919061408c565b60405180910390f35b3480156107d4575f80fd5b506107ef60048036038101906107ea9190613e8d565b611c29565b6040516107fc9190613fad565b60405180910390f35b348015610810575f80fd5b5061082b60048036038101906108269190613e8d565b611cd4565b6040516108389190613fad565b60405180910390f35b34801561084c575f80fd5b5061086760048036038101906108629190613e8d565b611d7f565b604051610875929190613ed3565b60405180910390f35b348015610889575f80fd5b506108a4600480360381019061089f91906140d8565b611db7565b6040516108b19190614112565b60405180910390f35b3480156108c5575f80fd5b506108ce611dda565b6040516108db919061408c565b60405180910390f35b3480156108ef575f80fd5b506108f8611dee565b6040516109059190614050565b60405180910390f35b348015610919575f80fd5b50610934600480360381019061092f9190613e8d565b611e7a565b6040516109419190614178565b60405180910390f35b348015610955575f80fd5b5061095e611ec7565b005b34801561096b575f80fd5b506109866004803603810190610981919061420b565b611eda565b005b348015610993575f80fd5b506109ae60048036038101906109a99190614406565b612237565b005b3480156109bb575f80fd5b506109c46122dd565b6040516109d1919061408c565b60405180910390f35b6109e26122f1565b005b3480156109ef575f80fd5b50610a0a6004803603810190610a05919061420b565b612360565b005b348015610a17575f80fd5b50610a326004803603810190610a2d9190613e8d565b6126bd565b604051610a3f9190613fad565b60405180910390f35b348015610a53575f80fd5b50610a5c612768565b604051610a69919061408c565b60405180910390f35b348015610a7d575f80fd5b50610a8661277b565b604051610a939190614112565b60405180910390f35b348015610aa7575f80fd5b50610ab06127a3565b604051610abd9190614471565b60405180910390f35b348015610ad1575f80fd5b50610ada6127c8565b604051610ae7919061408c565b60405180910390f35b348015610afb575f80fd5b50610b046127dc565b604051610b11919061408c565b60405180910390f35b348015610b25575f80fd5b50610b2e6127f0565b604051610b3b9190614050565b60405180910390f35b348015610b4f575f80fd5b50610b6a6004803603810190610b6591906144df565b612880565b005b348015610b77575f80fd5b50610b926004803603810190610b8d9190614587565b612996565b005b348015610b9f575f80fd5b50610ba86129e9565b604051610bb5919061408c565b60405180910390f35b348015610bc9575f80fd5b50610be46004803603810190610bdf91906144df565b6129fd565b005b348015610bf1575f80fd5b50610c0c6004803603810190610c0791906144df565b612b2e565b005b610c286004803603810190610c23919061461a565b612c44565b005b348015610c35575f80fd5b50610c506004803603810190610c4b9190614406565b612cb4565b005b348015610c5d575f80fd5b50610c786004803603810190610c73919061420b565b612d5a565b005b348015610c85575f80fd5b50610ca06004803603810190610c9b91906140d8565b6130b7565b604051610cad9190614050565b60405180910390f35b348015610cc1575f80fd5b50610cdc6004803603810190610cd791906140d8565b61315b565b604051610ce99190613f94565b60405180910390f35b348015610cfd575f80fd5b50610d0661316c565b604051610d139190614178565b60405180910390f35b348015610d27575f80fd5b50610d30613190565b604051610d3d9190614178565b60405180910390f35b348015610d51575f80fd5b50610d6c6004803603810190610d6791906144df565b613196565b005b348015610d79575f80fd5b50610d946004803603810190610d8f9190613e8d565b613264565b604051610da191906146bc565b60405180910390f35b348015610db5575f80fd5b50610dd06004803603810190610dcb9190613e8d565b613297565b604051610dde929190613ed3565b60405180910390f35b348015610df2575f80fd5b50610e0d6004803603810190610e089190613e8d565b6132cf565b604051610e1b929190613ed3565b60405180910390f35b348015610e2f575f80fd5b50610e4a6004803603810190610e4591906146d5565b613307565b604051610e579190613f94565b60405180910390f35b348015610e6b575f80fd5b50610e74613329565b604051610e81919061408c565b60405180910390f35b348015610e95575f80fd5b50610eb06004803603810190610eab9190613e8d565b61333d565b005b348015610ebd575f80fd5b50610ed86004803603810190610ed3919061473d565b6133c1565b005b348015610ee5575f80fd5b50610eee61340c565b604051610efb919061408c565b60405180910390f35b600f602052805f5260405f205f91509050805f015f9054906101000a900460ff1690805f0160019054906101000a900460ff16905082565b5f8160e01c635b5e139f81146380ac58cd82146301ffc9a783141717915050919050565b6008544210610fa4576040517f08c379a0000000000000000000000000000000000000000000000000000000008152600401610f9b906147b2565b60405180910390fd5b5f610fae33611cd4565b60ff1611610ff1576040517f08c379a0000000000000000000000000000000000000000000000000000000008152600401610fe89061481a565b60405180910390fd5b600760129054906101000a900461ffff1661ffff166001600760089054906101000a900461ffff166110239190614865565b61ffff161115611068576040517f08c379a000000000000000000000000000000000000000000000000000000000815260040161105f906148e4565b60405180910390fd5b600160135f3373ffffffffffffffffffffffffffffffffffffffff1673ffffffffffffffffffffffffffffffffffffffff1681526020019081526020015f205f0160016101000a81548160ff021916908360ff1602179055506110de3360125f9054906101000a900461ffff1661ffff16613420565b3373ffffffffffffffffffffffffffffffffffffffff167f2c1e4cf372ff5cbf0acd582e8b37836cb25ceeedaf74e174d4ff14656f21b39d4260125f9054906101000a900461ffff16604051611135929190614902565b60405180910390a260125f81819054906101000a900461ffff168092919061115c90614929565b91906101000a81548161ffff021916908361ffff160217905550506007600881819054906101000a900461ffff168092919061119790614929565b91906101000a81548161ffff021916908361ffff16021790555050565b5f600f5f8373ffffffffffffffffffffffffffffffffffffffff1673ffffffffffffffffffffffffffffffffffffffff1681526020019081526020015f205f0160019054906101000a900460ff16600f5f8473ffffffffffffffffffffffffffffffffffffffff1673ffffffffffffffffffffffffffffffffffffffff1681526020019081526020015f205f015f9054906101000a900460ff166112589190614952565b9050919050565b60606002805461126e906149b3565b80601f016020809104026020016040519081016040528092919081815260200182805461129a906149b3565b80156112e55780601f106112bc576101008083540402835291602001916112e5565b820191905f5260205f20905b8154815290600101906020018083116112c857829003601f168201915b5050505050905090565b600760029054906101000a900461ffff1681565b5f815f527f7d8825530a5a2e7a000000000000000000000000000000000000000000000000601c5260205f2082018201805460601b60601c61134c5763ceea21b65f526004601cfd5b8060010154915050919050565b61136433838361343d565b5050565b5f60115f8373ffffffffffffffffffffffffffffffffffffffff1673ffffffffffffffffffffffffffffffffffffffff1681526020019081526020015f205f0160019054906101000a900460ff1660115f8473ffffffffffffffffffffffffffffffffffffffff1673ffffffffffffffffffffffffffffffffffffffff1681526020019081526020015f205f015f9054906101000a900460ff1661140c9190614952565b9050919050565b5f6005547f000000000000000000000000000000000000000000000000000000000000000061144291906149e3565b905090565b60085481565b6007600e9054906101000a900461ffff1681565b61146c8383836134ed565b5f1960601c83811693508281169250815f52337f7d8825530a5a2e7a00000000000000000000000000000000000000000000000017601c5260205f2082018201805480831686811481026114d957806114cc5763ceea21b65f526004601cfd5b63a11481005f526004601cfd5b856114eb5763ea553b345f526004601cfd5b865f52826001015480331488331417611516576030600c205461151557634b6e7f185f526004601cfd5b5b8015611523575f84600101555b5085871882188355601c600c206001815403815550855f52601c600c20600181540163ffffffff811661155d576301336cea5f526004601cfd5b80825550508486887fddf252ad1be2c89b69c2b068fc378daa952ba7f163c4a11628f55a4df523b3ef5f80a4505050506115988383836134f2565b505050565b6013602052805f5260405f205f91509050805f015f9054906101000a900460ff1690805f0160019054906101000a900460ff16905082565b60095f9054906101000a900473ffffffffffffffffffffffffffffffffffffffff1681565b5f611604336117e1565b60ff1611611647576040517f08c379a000000000000000000000000000000000000000000000000000000000815260040161163e9061481a565b60405180910390fd5b8060ff16611654336117e1565b60ff161015611698576040517f08c379a000000000000000000000000000000000000000000000000000000000815260040161168f90614a60565b60405180910390fd5b8060ff166116a4611413565b6116ae9190614a7e565b7f00000000000000000000000000000000000000000000000000000000000000001015611710576040517f08c379a000000000000000000000000000000000000000000000000000000000815260040161170790614afb565b60405180910390fd5b80600b5f3373ffffffffffffffffffffffffffffffffffffffff1673ffffffffffffffffffffffffffffffffffffffff1681526020019081526020015f205f0160018282829054906101000a900460ff1661176b9190614b19565b92506101000a81548160ff021916908360ff160217905550611790338260ff166134f7565b3373ffffffffffffffffffffffffffffffffffffffff167f30603f56befad35715d530ed1090c153118f6822d031c1e03fc5bc0e3f308089426040516117d69190614178565b60405180910390a250565b5f600b5f8373ffffffffffffffffffffffffffffffffffffffff1673ffffffffffffffffffffffffffffffffffffffff1681526020019081526020015f205f0160019054906101000a900460ff16600b5f8473ffffffffffffffffffffffffffffffffffffffff1673ffffffffffffffffffffffffffffffffffffffff1681526020019081526020015f205f015f9054906101000a900460ff166118859190614952565b9050919050565b61189461367b565b80600690816118a39190614cea565b5050565b5f6007600a9054906101000a900461ffff1661ffff16600760089054906101000a900461ffff1661ffff16600760069054906101000a900461ffff1661ffff16600760049054906101000a900461ffff1661ffff16600760029054906101000a900461ffff1661ffff16611919611413565b6119239190614a7e565b61192d9190614a7e565b6119379190614a7e565b6119419190614a7e565b61194b9190614a7e565b905090565b6015602052805f5260405f205f91509050805f015f9054906101000a900460ff1690805f0160019054906101000a900460ff16905082565b60085442106119cc576040517f08c379a00000000000000000000000000000000000000000000000000000000081526004016119c390614e03565b60405180910390fd5b5f6119d633611368565b60ff1611611a19576040517f08c379a0000000000000000000000000000000000000000000000000000000008152600401611a1090614e6b565b60405180910390fd5b600760109054906101000a900461ffff1661ffff166001600760069054906101000a900461ffff16611a4b9190614865565b61ffff161115611a90576040517f08c379a0000000000000000000000000000000000000000000000000000000008152600401611a8790614ed3565b60405180910390fd5b600160115f3373ffffffffffffffffffffffffffffffffffffffff1673ffffffffffffffffffffffffffffffffffffffff1681526020019081526020015f205f0160016101000a81548160ff021916908360ff160217905550611b063360105f9054906101000a900461ffff1661ffff16613420565b3373ffffffffffffffffffffffffffffffffffffffff167f263f38b7218c24f51b965c0b6593d85c8dccaefbb20333808a8543f59874b6db4260105f9054906101000a900461ffff16604051611b5d929190614902565b60405180910390a260105f81819054906101000a900461ffff1680929190611b8490614929565b91906101000a81548161ffff021916908361ffff160217905550506007600681819054906101000a900461ffff1680929190611bbf90614929565b91906101000a81548161ffff021916908361ffff16021790555050565b611be7838383611461565b611bf082613702565b15611c1057611c0f83838360405180602001604052805f81525061370c565b5b505050565b600760049054906101000a900461ffff1681565b5f60155f8373ffffffffffffffffffffffffffffffffffffffff1673ffffffffffffffffffffffffffffffffffffffff1681526020019081526020015f205f0160019054906101000a900460ff1660155f8473ffffffffffffffffffffffffffffffffffffffff1673ffffffffffffffffffffffffffffffffffffffff1681526020019081526020015f205f015f9054906101000a900460ff16611ccd9190614952565b9050919050565b5f60135f8373ffffffffffffffffffffffffffffffffffffffff1673ffffffffffffffffffffffffffffffffffffffff1681526020019081526020015f205f0160019054906101000a900460ff1660135f8473ffffffffffffffffffffffffffffffffffffffff1673ffffffffffffffffffffffffffffffffffffffff1681526020019081526020015f205f015f9054906101000a900460ff16611d789190614952565b9050919050565b600d602052805f5260405f205f91509050805f015f9054906101000a900460ff1690805f0160019054906101000a900460ff16905082565b5f611dc182613799565b905080611dd55763ceea21b65f526004601cfd5b919050565b6007600a9054906101000a900461ffff1681565b60068054611dfb906149b3565b80601f0160208091040260200160405190810160405280929190818152602001828054611e27906149b3565b8015611e725780601f10611e4957610100808354040283529160200191611e72565b820191905f5260205f20905b815481529060010190602001808311611e5557829003601f168201915b505050505081565b5f81611e8d57638f4eb6045f526004601cfd5b7f7d8825530a5a2e7a000000000000000000000000000000000000000000000000601c52815f5263ffffffff601c600c2054169050919050565b611ecf61367b565b611ed85f6137d7565b565b6008544210611f1e576040517f08c379a0000000000000000000000000000000000000000000000000000000008152600401611f1590614f3b565b60405180910390fd5b5f611f2833611c29565b60ff1611611f6b576040517f08c379a0000000000000000000000000000000000000000000000000000000008152600401611f629061481a565b60405180910390fd5b8060ff16611f7833611c29565b60ff161015611fbc576040517f08c379a0000000000000000000000000000000000000000000000000000000008152600401611fb390614a60565b60405180910390fd5b6007600c9054906101000a900461ffff1661ffff168160ff166007600a9054906101000a900461ffff16611ff09190614865565b61ffff161115612035576040517f08c379a000000000000000000000000000000000000000000000000000000000815260040161202c90614fa3565b60405180910390fd5b5f8160ff1667ffffffffffffffff8111156120535761205261423e565b5b6040519080825280602002602001820160405280156120815781602001602082028036833780820191505090505b5090508160155f3373ffffffffffffffffffffffffffffffffffffffff1673ffffffffffffffffffffffffffffffffffffffff1681526020019081526020015f205f0160018282829054906101000a900460ff166120df9190614b19565b92506101000a81548160ff021916908360ff1602179055505f5b8260ff168160ff1610156121e2576121243360145f9054906101000a900461ffff1661ffff16613420565b60145f9054906101000a900461ffff16828260ff168151811061214a57612149614fc1565b5b602002602001019061ffff16908161ffff168152505060145f81819054906101000a900461ffff168092919061217f90614929565b91906101000a81548161ffff021916908361ffff160217905550506007600a81819054906101000a900461ffff16809291906121ba90614929565b91906101000a81548161ffff021916908361ffff1602179055505080806001019150506120f9565b503373ffffffffffffffffffffffffffffffffffffffff167f9a7729d96d93ef9a9153e2274fdbdf5c747b943e4279957ad6f7cf8ced687b27428360405161222b9291906150a5565b60405180910390a25050565b61223f61367b565b5f5b828290508110156122d857600160115f85858581811061226457612263614fc1565b5b90506020020160208101906122799190613e8d565b73ffffffffffffffffffffffffffffffffffffffff1673ffffffffffffffffffffffffffffffffffffffff1681526020019081526020015f205f015f6101000a81548160ff021916908360ff1602179055508080600101915050612241565b505050565b600760149054906101000a900461ffff1681565b6122f961367b565b600a5f9054906101000a900473ffffffffffffffffffffffffffffffffffffffff1673ffffffffffffffffffffffffffffffffffffffff166108fc4790811502906040515f60405180830381858888f1935050505015801561235d573d5f803e3d5ffd5b50565b60085442106123a4576040517f08c379a000000000000000000000000000000000000000000000000000000000815260040161239b9061511d565b60405180910390fd5b5f6123ae336111b4565b60ff16116123f1576040517f08c379a00000000000000000000000000000000000000000000000000000000081526004016123e89061481a565b60405180910390fd5b8060ff166123fe336111b4565b60ff161015612442576040517f08c379a000000000000000000000000000000000000000000000000000000000815260040161243990614a60565b60405180910390fd5b6007600e9054906101000a900461ffff1661ffff168160ff16600760049054906101000a900461ffff166124769190614865565b61ffff1611156124bb576040517f08c379a00000000000000000000000000000000000000000000000000000000081526004016124b290615185565b60405180910390fd5b5f8160ff1667ffffffffffffffff8111156124d9576124d861423e565b5b6040519080825280602002602001820160405280156125075781602001602082028036833780820191505090505b50905081600f5f3373ffffffffffffffffffffffffffffffffffffffff1673ffffffffffffffffffffffffffffffffffffffff1681526020019081526020015f205f0160018282829054906101000a900460ff166125659190614b19565b92506101000a81548160ff021916908360ff1602179055505f5b8260ff168160ff161015612668576125aa33600e5f9054906101000a900461ffff1661ffff16613420565b600e5f9054906101000a900461ffff16828260ff16815181106125d0576125cf614fc1565b5b602002602001019061ffff16908161ffff1681525050600e5f81819054906101000a900461ffff168092919061260590614929565b91906101000a81548161ffff021916908361ffff160217905550506007600481819054906101000a900461ffff168092919061264090614929565b91906101000a81548161ffff021916908361ffff16021790555050808060010191505061257f565b503373ffffffffffffffffffffffffffffffffffffffff167f8623fb7c4a27402c7d1eed0c33dbc59d1c2c0b397dd45db820a50b3ce3a67c9542836040516126b19291906150a5565b60405180910390a25050565b5f600d5f8373ffffffffffffffffffffffffffffffffffffffff1673ffffffffffffffffffffffffffffffffffffffff1681526020019081526020015f205f0160019054906101000a900460ff16600d5f8473ffffffffffffffffffffffffffffffffffffffff1673ffffffffffffffffffffffffffffffffffffffff1681526020019081526020015f205f015f9054906101000a900460ff166127619190614952565b9050919050565b60075f9054906101000a900461ffff1681565b5f60015f9054906101000a900473ffffffffffffffffffffffffffffffffffffffff16905090565b600a5f9054906101000a900473ffffffffffffffffffffffffffffffffffffffff1681565b6007600c9054906101000a900461ffff1681565b600760089054906101000a900461ffff1681565b6060600380546127ff906149b3565b80601f016020809104026020016040519081016040528092919081815260200182805461282b906149b3565b80156128765780601f1061284d57610100808354040283529160200191612876565b820191905f5260205f20905b81548152906001019060200180831161285957829003601f168201915b5050505050905090565b61288861367b565b8181905084849050146128d0576040517f08c379a00000000000000000000000000000000000000000000000000000000081526004016128c790615213565b60405180910390fd5b5f5b8484905081101561298f578282828181106128f0576128ef614fc1565b5b9050602002016020810190612905919061420b565b600f5f87878581811061291b5761291a614fc1565b5b90506020020160208101906129309190613e8d565b73ffffffffffffffffffffffffffffffffffffffff1673ffffffffffffffffffffffffffffffffffffffff1681526020019081526020015f205f015f6101000a81548160ff021916908360ff16021790555080806001019150506128d2565b5050505050565b801515905081601c52670a5a2e7a00000000600852335f52806030600c2055805f528160601b60601c337f17307eab39ab6107e8899845ad3d59bd9653f200f220920489ca2b5937696c3160205fa35050565b600760069054906101000a900461ffff1681565b612a0561367b565b818190508484905014612a4d576040517f08c379a0000000000000000000000000000000000000000000000000000000008152600401612a4490615213565b60405180910390fd5b5f5b84849050811015612b2757828282818110612a6d57612a6c614fc1565b5b9050602002016020810190612a82919061420b565b600b5f878785818110612a9857612a97614fc1565b5b9050602002016020810190612aad9190613e8d565b73ffffffffffffffffffffffffffffffffffffffff1673ffffffffffffffffffffffffffffffffffffffff1681526020019081526020015f205f015f8282829054906101000a900460ff16612b029190614b19565b92506101000a81548160ff021916908360ff1602179055508080600101915050612a4f565b5050505050565b612b3661367b565b818190508484905014612b7e576040517f08c379a0000000000000000000000000000000000000000000000000000000008152600401612b7590615213565b60405180910390fd5b5f5b84849050811015612c3d57828282818110612b9e57612b9d614fc1565b5b9050602002016020810190612bb3919061420b565b600d5f878785818110612bc957612bc8614fc1565b5b9050602002016020810190612bde9190613e8d565b73ffffffffffffffffffffffffffffffffffffffff1673ffffffffffffffffffffffffffffffffffffffff1681526020019081526020015f205f015f6101000a81548160ff021916908360ff1602179055508080600101915050612b80565b5050505050565b612c4f858585611461565b612c5884613702565b15612cad57612cac85858585858080601f0160208091040260200160405190810160405280939291908181526020018383808284375f81840152601f19601f8201169050808301925050505050505061370c565b5b5050505050565b612cbc61367b565b5f5b82829050811015612d5557600160135f858585818110612ce157612ce0614fc1565b5b9050602002016020810190612cf69190613e8d565b73ffffffffffffffffffffffffffffffffffffffff1673ffffffffffffffffffffffffffffffffffffffff1681526020019081526020015f205f015f6101000a81548160ff021916908360ff1602179055508080600101915050612cbe565b505050565b6008544210612d9e576040517f08c379a0000000000000000000000000000000000000000000000000000000008152600401612d959061527b565b60405180910390fd5b5f612da8336126bd565b60ff1611612deb576040517f08c379a0000000000000000000000000000000000000000000000000000000008152600401612de29061481a565b60405180910390fd5b8060ff16612df8336126bd565b60ff161015612e3c576040517f08c379a0000000000000000000000000000000000000000000000000000000008152600401612e3390614a60565b60405180910390fd5b6007600c9054906101000a900461ffff1661ffff168160ff16600760029054906101000a900461ffff16612e709190614865565b61ffff161115612eb5576040517f08c379a0000000000000000000000000000000000000000000000000000000008152600401612eac906152e3565b60405180910390fd5b5f8160ff1667ffffffffffffffff811115612ed357612ed261423e565b5b604051908082528060200260200182016040528015612f015781602001602082028036833780820191505090505b50905081600d5f3373ffffffffffffffffffffffffffffffffffffffff1673ffffffffffffffffffffffffffffffffffffffff1681526020019081526020015f205f0160018282829054906101000a900460ff16612f5f9190614b19565b92506101000a81548160ff021916908360ff1602179055505f5b8260ff168160ff16101561306257612fa433600c5f9054906101000a900461ffff1661ffff16613420565b600c5f9054906101000a900461ffff16828260ff1681518110612fca57612fc9614fc1565b5b602002602001019061ffff16908161ffff1681525050600c5f81819054906101000a900461ffff1680929190612fff90614929565b91906101000a81548161ffff021916908361ffff160217905550506007600281819054906101000a900461ffff168092919061303a90614929565b91906101000a81548161ffff021916908361ffff160217905550508080600101915050612f79565b503373ffffffffffffffffffffffffffffffffffffffff167f217c0dc2383a06fa566bfc4a8dbe3281dc6a3642e0e56927edfdf03d8efbdf6042836040516130ab9291906150a5565b60405180910390a25050565b60606130c28261389a565b613101576040517f08c379a00000000000000000000000000000000000000000000000000000000081526004016130f89061534b565b60405180910390fd5b5f61310a6138d5565b90505f8151116131285760405180602001604052805f815250613153565b8061313284613965565b6040516020016131439291906153a3565b6040516020818303038152906040525b915050919050565b5f6131658261389a565b9050919050565b7f000000000000000000000000000000000000000000000000000000000000000081565b60055481565b61319e61367b565b5f5b8484905081101561325d578282828181106131be576131bd614fc1565b5b90506020020160208101906131d3919061420b565b60155f8787858181106131e9576131e8614fc1565b5b90506020020160208101906131fe9190613e8d565b73ffffffffffffffffffffffffffffffffffffffff1673ffffffffffffffffffffffffffffffffffffffff1681526020019081526020015f205f015f6101000a81548160ff021916908360ff16021790555080806001019150506131a0565b5050505050565b5f60c061327083613a2f565b7bffffffffffffffffffffffffffffffffffffffffffffffffffffffff16901c9050919050565b6011602052805f5260405f205f91509050805f015f9054906101000a900460ff1690805f0160019054906101000a900460ff16905082565b600b602052805f5260405f205f91509050805f015f9054906101000a900460ff1690805f0160019054906101000a900460ff16905082565b5f81601c52670a5a2e7a00000000600852825f526030600c2054905092915050565b600760109054906101000a900461ffff1681565b61334561367b565b5f73ffffffffffffffffffffffffffffffffffffffff168173ffffffffffffffffffffffffffffffffffffffff16036133b5575f6040517f1e4fbdf70000000000000000000000000000000000000000000000000000000081526004016133ac9190614112565b60405180910390fd5b6133be816137d7565b50565b6133c961367b565b80600a5f6101000a81548173ffffffffffffffffffffffffffffffffffffffff021916908373ffffffffffffffffffffffffffffffffffffffff16021790555050565b600760129054906101000a900461ffff1681565b613439828260405180602001604052805f815250613a67565b5050565b5f1960601c82811692508381169350815f52837f7d8825530a5a2e7a00000000000000000000000000000000000000000000000017601c5260205f208201820180548216806134935763ceea21b65f526004601cfd5b8086148615176134b857805f526030600c20546134b757634b6e7f185f526004601cfd5b5b8482600101558385827f8c5be1e5ebec7d5bd14f71427d1e84f3dd0314c0f7b2291e5b200ac8c7c3b9255f80a4505050505050565b505050565b505050565b3273ffffffffffffffffffffffffffffffffffffffff163373ffffffffffffffffffffffffffffffffffffffff161461355c576040517fd9d552c900000000000000000000000000000000000000000000000000000000815260040160405180910390fd5b5f8103613595576040517f4600cfe900000000000000000000000000000000000000000000000000000000815260040160405180910390fd5b8060055410156135d1576040517f7775abdd00000000000000000000000000000000000000000000000000000000815260040160405180910390fd5b5f604051806020016040528042446040516020016135f09291906153e6565b604051602081830303815290604052805190602001205f1c81525090505f60055490505f5b83811015613663575f6136318385613a9190919063ffffffff16565b90505f61363e8285613aba565b905061364a8782613b57565b8361365490615411565b93508260010192505050613615565b5061366e8484613c2b565b8060058190555050505050565b613683613c89565b73ffffffffffffffffffffffffffffffffffffffff166136a161277b565b73ffffffffffffffffffffffffffffffffffffffff1614613700576136c4613c89565b6040517f118cdaa70000000000000000000000000000000000000000000000000000000081526004016136f79190614112565b60405180910390fd5b565b5f813b9050919050565b60405163150b7a028082523360208301528560601b60601c604083015283606083015260808083015282518060a08401528015613753578060c08401826020870160045afa505b60208360a48301601c86015f8a5af1613778573d15613774573d5f803e3d5ffd5b5f83525b8160e01b8351146137905763d1a57ed65f526004601cfd5b50505050505050565b5f815f527f7d8825530a5a2e7a000000000000000000000000000000000000000000000000601c5260205f20820182015460601b60601c9050919050565b5f60015f9054906101000a900473ffffffffffffffffffffffffffffffffffffffff1690508160015f6101000a81548173ffffffffffffffffffffffffffffffffffffffff021916908373ffffffffffffffffffffffffffffffffffffffff1602179055508173ffffffffffffffffffffffffffffffffffffffff168173ffffffffffffffffffffffffffffffffffffffff167f8be0079c531659141344cd1fd0a4f28419497f9722a3daafe3b4186f6b6457e060405160405180910390a35050565b5f815f527f7d8825530a5a2e7a000000000000000000000000000000000000000000000000601c5260205f20820182015460601b9050919050565b6060600680546138e4906149b3565b80601f0160208091040260200160405190810160405280929190818152602001828054613910906149b3565b801561395b5780601f106139325761010080835404028352916020019161395b565b820191905f5260205f20905b81548152906001019060200180831161393e57829003601f168201915b5050505050905090565b60605f600161397384613c90565b0190505f8167ffffffffffffffff8111156139915761399061423e565b5b6040519080825280601f01601f1916602001820160405280156139c35781602001600182028036833780820191505090505b5090505f82602001820190505b600115613a24578080600190039150507f3031323334353637383961626364656600000000000000000000000000000000600a86061a8153600a8581613a1957613a18615438565b5b0494505f85036139d0575b819350505050919050565b5f7f7d8825530a5a2e7a000000000000000000000000000000000000000000000000601c52815f52601c600c205460201c9050919050565b613a718383613b57565b613a7a83613702565b15613a8c57613a8b5f84848461370c565b5b505050565b5f5b600115613aaf5760208320905080835281825f03068110613a93575b818106905092915050565b5f8060045f8581526020019081526020015f205490505f600184613ade91906149e3565b90505f60045f8381526020019081526020015f205490505f8314613b025782613b04565b855b9350818614613b32575f8114613b1a5780613b1c565b815b60045f8881526020019081526020015f20819055505b5f8114613b4e5760045f8381526020019081526020015f205f90555b50505092915050565b613b625f83836134ed565b8160601b60601c915081613b7d5763ea553b345f526004601cfd5b805f527f7d8825530a5a2e7a000000000000000000000000000000000000000000000000601c5260205f208101810180548060601b15613bc45763c991cbb15f526004601cfd5b8381178255835f52601c600c20600181540163ffffffff8116613bee576301336cea5f526004601cfd5b808255505082845f7fddf252ad1be2c89b69c2b068fc378daa952ba7f163c4a11628f55a4df523b3ef5f80a45050613c275f83836134f2565b5050565b5f613c3583613264565b90505f8282613c449190615465565b90505f613c5085613a2f565b9050613c82858277ffffffffffffffffffffffffffffffffffffffffffffffff1660c08563ffffffff16901b17613de1565b5050505050565b5f33905090565b5f805f90507a184f03e93ff9f4daa797ed6e38ed64bf6a1f0100000000000000008310613cec577a184f03e93ff9f4daa797ed6e38ed64bf6a1f0100000000000000008381613ce257613ce1615438565b5b0492506040810190505b6d04ee2d6d415b85acef81000000008310613d29576d04ee2d6d415b85acef81000000008381613d1f57613d1e615438565b5b0492506020810190505b662386f26fc100008310613d5857662386f26fc100008381613d4e57613d4d615438565b5b0492506010810190505b6305f5e1008310613d81576305f5e1008381613d7757613d76615438565b5b0492506008810190505b6127108310613da6576127108381613d9c57613d9b615438565b5b0492506004810190505b60648310613dc95760648381613dbf57613dbe615438565b5b0492506002810190505b600a8310613dd8576001810190505b80915050919050565b7f7d8825530a5a2e7a000000000000000000000000000000000000000000000000601c52815f52601c600c2080548060201c831860201b8118825550505050565b5f604051905090565b5f80fd5b5f80fd5b5f73ffffffffffffffffffffffffffffffffffffffff82169050919050565b5f613e5c82613e33565b9050919050565b613e6c81613e52565b8114613e76575f80fd5b50565b5f81359050613e8781613e63565b92915050565b5f60208284031215613ea257613ea1613e2b565b5b5f613eaf84828501613e79565b91505092915050565b5f60ff82169050919050565b613ecd81613eb8565b82525050565b5f604082019050613ee65f830185613ec4565b613ef36020830184613ec4565b9392505050565b5f7fffffffff0000000000000000000000000000000000000000000000000000000082169050919050565b613f2e81613efa565b8114613f38575f80fd5b50565b5f81359050613f4981613f25565b92915050565b5f60208284031215613f6457613f63613e2b565b5b5f613f7184828501613f3b565b91505092915050565b5f8115159050919050565b613f8e81613f7a565b82525050565b5f602082019050613fa75f830184613f85565b92915050565b5f602082019050613fc05f830184613ec4565b92915050565b5f81519050919050565b5f82825260208201905092915050565b5f5b83811015613ffd578082015181840152602081019050613fe2565b5f8484015250505050565b5f601f19601f8301169050919050565b5f61402282613fc6565b61402c8185613fd0565b935061403c818560208601613fe0565b61404581614008565b840191505092915050565b5f6020820190508181035f8301526140688184614018565b905092915050565b5f61ffff82169050919050565b61408681614070565b82525050565b5f60208201905061409f5f83018461407d565b92915050565b5f819050919050565b6140b7816140a5565b81146140c1575f80fd5b50565b5f813590506140d2816140ae565b92915050565b5f602082840312156140ed576140ec613e2b565b5b5f6140fa848285016140c4565b91505092915050565b61410c81613e52565b82525050565b5f6020820190506141255f830184614103565b92915050565b5f806040838503121561414157614140613e2b565b5b5f61414e85828601613e79565b925050602061415f858286016140c4565b9150509250929050565b614172816140a5565b82525050565b5f60208201905061418b5f830184614169565b92915050565b5f805f606084860312156141a8576141a7613e2b565b5b5f6141b586828701613e79565b93505060206141c686828701613e79565b92505060406141d7868287016140c4565b9150509250925092565b6141ea81613eb8565b81146141f4575f80fd5b50565b5f81359050614205816141e1565b92915050565b5f602082840312156142205761421f613e2b565b5b5f61422d848285016141f7565b91505092915050565b5f80fd5b5f80fd5b7f4e487b71000000000000000000000000000000000000000000000000000000005f52604160045260245ffd5b61427482614008565b810181811067ffffffffffffffff821117156142935761429261423e565b5b80604052505050565b5f6142a5613e22565b90506142b1828261426b565b919050565b5f67ffffffffffffffff8211156142d0576142cf61423e565b5b6142d982614008565b9050602081019050919050565b828183375f83830152505050565b5f614306614301846142b6565b61429c565b9050828152602081018484840111156143225761432161423a565b5b61432d8482856142e6565b509392505050565b5f82601f83011261434957614348614236565b5b81356143598482602086016142f4565b91505092915050565b5f6020828403121561437757614376613e2b565b5b5f82013567ffffffffffffffff81111561439457614393613e2f565b5b6143a084828501614335565b91505092915050565b5f80fd5b5f80fd5b5f8083601f8401126143c6576143c5614236565b5b8235905067ffffffffffffffff8111156143e3576143e26143a9565b5b6020830191508360208202830111156143ff576143fe6143ad565b5b9250929050565b5f806020838503121561441c5761441b613e2b565b5b5f83013567ffffffffffffffff81111561443957614438613e2f565b5b614445858286016143b1565b92509250509250929050565b5f61445b82613e33565b9050919050565b61446b81614451565b82525050565b5f6020820190506144845f830184614462565b92915050565b5f8083601f84011261449f5761449e614236565b5b8235905067ffffffffffffffff8111156144bc576144bb6143a9565b5b6020830191508360208202830111156144d8576144d76143ad565b5b9250929050565b5f805f80604085870312156144f7576144f6613e2b565b5b5f85013567ffffffffffffffff81111561451457614513613e2f565b5b614520878288016143b1565b9450945050602085013567ffffffffffffffff81111561454357614542613e2f565b5b61454f8782880161448a565b925092505092959194509250565b61456681613f7a565b8114614570575f80fd5b50565b5f813590506145818161455d565b92915050565b5f806040838503121561459d5761459c613e2b565b5b5f6145aa85828601613e79565b92505060206145bb85828601614573565b9150509250929050565b5f8083601f8401126145da576145d9614236565b5b8235905067ffffffffffffffff8111156145f7576145f66143a9565b5b602083019150836001820283011115614613576146126143ad565b5b9250929050565b5f805f805f6080868803121561463357614632613e2b565b5b5f61464088828901613e79565b955050602061465188828901613e79565b9450506040614662888289016140c4565b935050606086013567ffffffffffffffff81111561468357614682613e2f565b5b61468f888289016145c5565b92509250509295509295909350565b5f63ffffffff82169050919050565b6146b68161469e565b82525050565b5f6020820190506146cf5f8301846146ad565b92915050565b5f80604083850312156146eb576146ea613e2b565b5b5f6146f885828601613e79565b925050602061470985828601613e79565b9150509250929050565b61471c81614451565b8114614726575f80fd5b50565b5f8135905061473781614713565b92915050565b5f6020828403121561475257614751613e2b565b5b5f61475f84828501614729565b91505092915050565b7f4a75646765206d696e7420636c6f7365000000000000000000000000000000005f82015250565b5f61479c601083613fd0565b91506147a782614768565b602082019050919050565b5f6020820190508181035f8301526147c981614790565b9050919050565b7f4e6f7420656c696769626c6500000000000000000000000000000000000000005f82015250565b5f614804600c83613fd0565b915061480f826147d0565b602082019050919050565b5f6020820190508181035f830152614831816147f8565b9050919050565b7f4e487b71000000000000000000000000000000000000000000000000000000005f52601160045260245ffd5b5f61486f82614070565b915061487a83614070565b9250828201905061ffff81111561489457614893614838565b5b92915050565b7f4d617820737570706c79206a75646765206578636565640000000000000000005f82015250565b5f6148ce601783613fd0565b91506148d98261489a565b602082019050919050565b5f6020820190508181035f8301526148fb816148c2565b9050919050565b5f6040820190506149155f830185614169565b614922602083018461407d565b9392505050565b5f61493382614070565b915061ffff820361494757614946614838565b5b600182019050919050565b5f61495c82613eb8565b915061496783613eb8565b9250828203905060ff8111156149805761497f614838565b5b92915050565b7f4e487b71000000000000000000000000000000000000000000000000000000005f52602260045260245ffd5b5f60028204905060018216806149ca57607f821691505b6020821081036149dd576149dc614986565b5b50919050565b5f6149ed826140a5565b91506149f8836140a5565b9250828203905081811115614a1057614a0f614838565b5b92915050565b7f4e6f7420656e6f75676820636c61696d61626c6520746f6b656e7300000000005f82015250565b5f614a4a601b83613fd0565b9150614a5582614a16565b602082019050919050565b5f6020820190508181035f830152614a7781614a3e565b9050919050565b5f614a88826140a5565b9150614a93836140a5565b9250828201905080821115614aab57614aaa614838565b5b92915050565b7f537570706c79206c696d697420657863656564000000000000000000000000005f82015250565b5f614ae5601383613fd0565b9150614af082614ab1565b602082019050919050565b5f6020820190508181035f830152614b1281614ad9565b9050919050565b5f614b2382613eb8565b9150614b2e83613eb8565b9250828201905060ff811115614b4757614b46614838565b5b92915050565b5f819050815f5260205f209050919050565b5f6020601f8301049050919050565b5f82821b905092915050565b5f60088302614ba97fffffffffffffffffffffffffffffffffffffffffffffffffffffffffffffffff82614b6e565b614bb38683614b6e565b95508019841693508086168417925050509392505050565b5f819050919050565b5f614bee614be9614be4846140a5565b614bcb565b6140a5565b9050919050565b5f819050919050565b614c0783614bd4565b614c1b614c1382614bf5565b848454614b7a565b825550505050565b5f90565b614c2f614c23565b614c3a818484614bfe565b505050565b5b81811015614c5d57614c525f82614c27565b600181019050614c40565b5050565b601f821115614ca257614c7381614b4d565b614c7c84614b5f565b81016020851015614c8b578190505b614c9f614c9785614b5f565b830182614c3f565b50505b505050565b5f82821c905092915050565b5f614cc25f1984600802614ca7565b1980831691505092915050565b5f614cda8383614cb3565b9150826002028217905092915050565b614cf382613fc6565b67ffffffffffffffff811115614d0c57614d0b61423e565b5b614d1682546149b3565b614d21828285614c61565b5f60209050601f831160018114614d52575f8415614d40578287015190505b614d4a8582614ccf565b865550614db1565b601f198416614d6086614b4d565b5f5b82811015614d8757848901518255600182019150602085019450602081019050614d62565b86831015614da45784890151614da0601f891682614cb3565b8355505b6001600288020188555050505b505050505050565b7f477561726469616e206d696e7420636c6f7365000000000000000000000000005f82015250565b5f614ded601383613fd0565b9150614df882614db9565b602082019050919050565b5f6020820190508181035f830152614e1a81614de1565b9050919050565b7f4e6f2067697665776179000000000000000000000000000000000000000000005f82015250565b5f614e55600a83613fd0565b9150614e6082614e21565b602082019050919050565b5f6020820190508181035f830152614e8281614e49565b9050919050565b7f4d617820737570706c7920677561726469616e206578636565640000000000005f82015250565b5f614ebd601a83613fd0565b9150614ec882614e89565b602082019050919050565b5f6020820190508181035f830152614eea81614eb1565b9050919050565b7f5768616c65206d696e7420636c6f7365000000000000000000000000000000005f82015250565b5f614f25601083613fd0565b9150614f3082614ef1565b602082019050919050565b5f6020820190508181035f830152614f5281614f19565b9050919050565b7f4d617820737570706c79207768616c65206578636565640000000000000000005f82015250565b5f614f8d601783613fd0565b9150614f9882614f59565b602082019050919050565b5f6020820190508181035f830152614fba81614f81565b9050919050565b7f4e487b71000000000000000000000000000000000000000000000000000000005f52603260045260245ffd5b5f81519050919050565b5f82825260208201905092915050565b5f819050602082019050919050565b61502081614070565b82525050565b5f6150318383615017565b60208301905092915050565b5f602082019050919050565b5f61505382614fee565b61505d8185614ff8565b935061506883615008565b805f5b8381101561509857815161507f8882615026565b975061508a8361503d565b92505060018101905061506b565b5085935050505092915050565b5f6040820190506150b85f830185614169565b81810360208301526150ca8184615049565b90509392505050565b7f486f6e6f72617279206d696e7420636c6f7365000000000000000000000000005f82015250565b5f615107601383613fd0565b9150615112826150d3565b602082019050919050565b5f6020820190508181035f830152615134816150fb565b9050919050565b7f4d617820737570706c7920686f6e6f72617279206578636565640000000000005f82015250565b5f61516f601a83613fd0565b915061517a8261513b565b602082019050919050565b5f6020820190508181035f83015261519c81615163565b9050919050565b7f4e62206164647265737320616e64206e62207175616e746974696573206d75735f8201527f7420626520657175616c00000000000000000000000000000000000000000000602082015250565b5f6151fd602a83613fd0565b9150615208826151a3565b604082019050919050565b5f6020820190508181035f83015261522a816151f1565b9050919050565b7f436f756e63696c206d696e7420636c6f736500000000000000000000000000005f82015250565b5f615265601283613fd0565b915061527082615231565b602082019050919050565b5f6020820190508181035f83015261529281615259565b9050919050565b7f4d617820737570706c7920636f756e63696c20657863656564000000000000005f82015250565b5f6152cd601983613fd0565b91506152d882615299565b602082019050919050565b5f6020820190508181035f8301526152fa816152c1565b9050919050565b7f756e6b6e6f7720746f6b656e00000000000000000000000000000000000000005f82015250565b5f615335600c83613fd0565b915061534082615301565b602082019050919050565b5f6020820190508181035f83015261536281615329565b9050919050565b5f81905092915050565b5f61537d82613fc6565b6153878185615369565b9350615397818560208601613fe0565b80840191505092915050565b5f6153ae8285615373565b91506153ba8284615373565b91508190509392505050565b5f819050919050565b6153e06153db826140a5565b6153c6565b82525050565b5f6153f182856153cf565b60208201915061540182846153cf565b6020820191508190509392505050565b5f61541b826140a5565b91505f820361542d5761542c614838565b5b600182039050919050565b7f4e487b71000000000000000000000000000000000000000000000000000000005f52601260045260245ffd5b5f61546f8261469e565b915061547a8361469e565b9250828201905063ffffffff81111561549657615495614838565b5b9291505056fea2646970667358221220e90b78fd1e48f9522ce04e38979dd9b18bffed2f6a6e775afd6152c433fa750964736f6c63430008170033",
  "immutableReferences": {
    "2396": [
      {
        "length": 32,
        "start": 5145
      },
      {
        "length": 32,
        "start": 5808
      },
      {
        "length": 32,
        "start": 12654
      }
    ]
  },
  "source": "// SPDX-License-Identifier: MIT\npragma solidity 0.8.23;\n\nimport \"@openzeppelin/contracts/utils/Strings.sol\";\nimport \"@openzeppelin/contracts/access/Ownable.sol\";\nimport \"@openzeppelin/contracts/utils/ReentrancyGuard.sol\";\nimport \"./ERC721r.sol\";\n\ncontract MetaLifeVehicle is ReentrancyGuard, Ownable, ERC721r {\n\n    using Strings for uint256;\n    string public baseURI;\n    uint16 public mainMaxSupply = 1200;\n\n    uint16 public nbMintedCouncil = 0;\n    uint16 public nbMintedHonorary = 0;\n    uint16 public nbMintedGuardian = 0;\n    uint16 public nbMintedJudge = 0;\n    uint16 public nbMintedWhale = 0;\n\n    uint16 public maxSupplyCouncil = 250;\n    uint16 public maxSupplyHonorary = 66;\n    uint16 public maxSupplyGuardian = 22;\n    uint16 public maxSupplyJudge = 10;\n    uint16 public maxSupplyWhale = 31;\n\n    // Fri May 31 2024 21:59:59 GMT+0000\n    uint256 public limitSpecialMint = 1717192799;\n    address public originOwner = 0x87a1AB9Aab7BAE43AD4ce4951A93e7F5bBCAc230;\n    address payable public collector;\n\n    struct Eligibility {\n        uint8 total;\n        uint8 claimed;\n    }\n\n    mapping(address => Eligibility) public allowlistRandom;\n    event MintedRandom(address indexed from, uint256 timestamp);\n\n    uint16 private _tokenIdCurrentCouncil = 822;\n    mapping(address => Eligibility) public allowlistCouncil;\n    event MintedCouncil(address indexed from, uint256 timestamp, uint16[] tokenIds);\n\n    uint16 private _tokenIdCurrentHonorary = 1072;\n    mapping(address => Eligibility) public allowlistHonorary;\n    event MintedHonorary(address indexed from, uint256 timestamp, uint16[] tokenIds);\n\n    uint16 private _tokenIdCurrentGuardian = 1138;\n    mapping(address => Eligibility) public allowlistGuardian;\n    event MintedGuardian(address indexed from, uint256 timestamp, uint16 tokenId);\n\n    uint16 private _tokenIdCurrentJudge = 1160;\n    mapping(address => Eligibility) public allowlistJudge;\n    event MintedJudge(address indexed from, uint256 timestamp, uint16 tokenId);\n\n    uint16 private _tokenIdCurrentWhale = 1170;\n    mapping(address => Eligibility) public allowlistWhale;\n    event MintedWhale(address indexed from, uint256 timestamp, uint16[] tokenIds);\n\n    constructor() ERC721r('Meta-Life Vehicle', 'MLV', 8_20) Ownable(originOwner){}\n\n    function withdrawAll() public payable onlyOwner {\n        collector.transfer(address(this).balance);\n    }\n\n    function setCollector(address payable _newCollector) public onlyOwner {\n        collector = _newCollector;\n    }\n\n    function _setBaseURI(string memory _newBaseURI) public onlyOwner {\n        baseURI = _newBaseURI;\n    }\n\n    function _baseURI() internal view virtual returns (string memory) {\n        return baseURI;\n    }\n\n    function tokenURI(uint256 tokenId) public view virtual override returns (string memory) {\n        require(_exists(tokenId), 'unknow token');\n        string memory uri = _baseURI();\n        return bytes(uri).length > 0 ? string(abi.encodePacked(uri, tokenId.toString())) : \"\";\n    }\n\n    function tokenExist(uint256 tokenId) public view returns(bool) {\n        return _exists(tokenId);\n    }\n\n    function mainTotalSupply() public view returns (uint256){\n        return totalSupply() + nbMintedCouncil + nbMintedHonorary + nbMintedGuardian + nbMintedJudge + nbMintedWhale;\n    }\n\n    function remainingRandom(address wallet) public view virtual returns (uint8) {\n        return allowlistRandom[wallet].total - allowlistRandom[wallet].claimed;\n    }\n\n    function remainingCouncil(address wallet) public view virtual returns (uint8) {\n        return allowlistCouncil[wallet].total - allowlistCouncil[wallet].claimed;\n    }\n\n    function remainingHonorary(address wallet) public view virtual returns (uint8) {\n        return allowlistHonorary[wallet].total - allowlistHonorary[wallet].claimed;\n    }\n\n    function remainingWhale(address wallet) public view virtual returns (uint8) {\n        return allowlistWhale[wallet].total - allowlistWhale[wallet].claimed;\n    }\n\n    function remainingJudge(address wallet) public view virtual returns (uint8) {\n        return allowlistJudge[wallet].total - allowlistJudge[wallet].claimed;\n    }\n\n    function remainingGuardian(address wallet) public view virtual returns (uint8) {\n        return allowlistGuardian[wallet].total - allowlistGuardian[wallet].claimed;\n    }\n\n    function addAllowlistRandom(address[] calldata _toAddAddresses, uint8[] calldata _quantities) external onlyOwner {\n        require(_toAddAddresses.length == _quantities.length, 'Nb address and nb quantities must be equal');\n        for (uint i = 0; i < _toAddAddresses.length; i++) {\n            allowlistRandom[_toAddAddresses[i]].total += _quantities[i];\n        }\n    }\n\n    function mintRandom(uint8 _quantities) external {\n        require(remainingRandom(msg.sender) > 0, \"Not eligible\");\n        require(remainingRandom(msg.sender) >= _quantities, \"Not enough claimable tokens\");\n        require(maxSupply >= totalSupply() + _quantities, \"Supply limit exceed\");\n        allowlistRandom[msg.sender].claimed += _quantities;\n        _mintRandom(msg.sender, _quantities);\n        emit MintedRandom(msg.sender, block.timestamp);\n    }\n\n    function addAllowlistCouncil(address[] calldata _toAddAddresses, uint8[] calldata _quantities) external onlyOwner {\n        require(_toAddAddresses.length == _quantities.length, 'Nb address and nb quantities must be equal');\n        for (uint i = 0; i < _toAddAddresses.length; i++) {\n            allowlistCouncil[_toAddAddresses[i]].total = _quantities[i];\n        }\n    }\n\n    function mintCouncil(uint8 _quantities) external {\n        require(block.timestamp < limitSpecialMint, \"Council mint close\");\n        require(remainingCouncil(msg.sender) > 0, \"Not eligible\");\n        require(remainingCouncil(msg.sender) >= _quantities, \"Not enough claimable tokens\");\n        require(nbMintedCouncil + _quantities <= maxSupplyCouncil, \"Max supply council exceed\");\n        uint16[] memory _tokenIdsMinted = new uint16[](_quantities);\n        allowlistCouncil[msg.sender].claimed += _quantities;\n        for (uint8 i = 0; i < _quantities; i++) {\n            _safeMint(msg.sender, _tokenIdCurrentCouncil);\n            _tokenIdsMinted[i] = _tokenIdCurrentCouncil;\n            _tokenIdCurrentCouncil++;\n            nbMintedCouncil++;\n        }\n        emit MintedCouncil(msg.sender, block.timestamp, _tokenIdsMinted);\n    }\n\n    function addAllowlistHonorary(address[] calldata _toAddAddresses, uint8[] calldata _quantities) external onlyOwner {\n        require(_toAddAddresses.length == _quantities.length, 'Nb address and nb quantities must be equal');\n        for (uint i = 0; i < _toAddAddresses.length; i++) {\n            allowlistHonorary[_toAddAddresses[i]].total = _quantities[i];\n        }\n    }\n\n    function mintHonorary(uint8 _quantities) external {\n        require(block.timestamp < limitSpecialMint, \"Honorary mint close\");\n        require(remainingHonorary(msg.sender) > 0, \"Not eligible\");\n        require(remainingHonorary(msg.sender) >= _quantities, \"Not enough claimable tokens\");\n        require(nbMintedHonorary + _quantities <= maxSupplyHonorary, \"Max supply honorary exceed\");\n        uint16[] memory _tokenIdsMinted = new uint16[](_quantities);\n        allowlistHonorary[msg.sender].claimed += _quantities;\n        for (uint8 i = 0; i < _quantities; i++) {\n            _safeMint(msg.sender, _tokenIdCurrentHonorary);\n            _tokenIdsMinted[i] = _tokenIdCurrentHonorary;\n            _tokenIdCurrentHonorary++;\n            nbMintedHonorary++;\n        }\n        emit MintedHonorary(msg.sender, block.timestamp, _tokenIdsMinted);\n    }\n\n    function addAllowlistGuardian(address[] calldata _toAddAddresses) external onlyOwner {\n        for (uint i = 0; i < _toAddAddresses.length; i++) {\n            allowlistGuardian[_toAddAddresses[i]].total = 1;\n        }\n    }\n\n    function mintGuardian() external {\n        require(block.timestamp < limitSpecialMint, \"Guardian mint close\");\n        require(remainingGuardian(msg.sender) > 0, \"No giveway\");\n        require(nbMintedGuardian + 1 <= maxSupplyGuardian, \"Max supply guardian exceed\");\n        allowlistGuardian[msg.sender].claimed = 1;\n        _safeMint(msg.sender, _tokenIdCurrentGuardian);\n        emit MintedGuardian(msg.sender, block.timestamp, _tokenIdCurrentGuardian);\n        _tokenIdCurrentGuardian++;\n        nbMintedGuardian++;\n    }\n\n    function addAllowlistJudge(address[] calldata _toAddAddresses) external onlyOwner {\n        for (uint i = 0; i < _toAddAddresses.length; i++) {\n            allowlistJudge[_toAddAddresses[i]].total = 1;\n        }\n    }\n\n    function mintJudge() external {\n        require(block.timestamp < limitSpecialMint, \"Judge mint close\");\n        require(remainingJudge(msg.sender) > 0, \"Not eligible\");\n        require(nbMintedJudge + 1 <= maxSupplyJudge, \"Max supply judge exceed\");\n        allowlistJudge[msg.sender].claimed = 1;\n        _safeMint(msg.sender, _tokenIdCurrentJudge);\n        emit MintedJudge(msg.sender, block.timestamp, _tokenIdCurrentJudge);\n        _tokenIdCurrentJudge++;\n        nbMintedJudge++;\n    }\n\n    function addAllowlistWhale(address[] calldata _toAddAddresses, uint8[] calldata _quantities) external onlyOwner {\n        for (uint i = 0; i < _toAddAddresses.length; i++) {\n            allowlistWhale[_toAddAddresses[i]].total = _quantities[i];\n        }\n    }\n\n    function mintWhale(uint8 _quantities) external {\n        require(block.timestamp < limitSpecialMint, \"Whale mint close\");\n        require(remainingWhale(msg.sender) > 0, \"Not eligible\");\n        require(remainingWhale(msg.sender) >= _quantities, \"Not enough claimable tokens\");\n        require(nbMintedWhale + _quantities <= maxSupplyCouncil, \"Max supply whale exceed\");\n        uint16[] memory _tokenIdsMinted = new uint16[](_quantities);\n        allowlistWhale[msg.sender].claimed += _quantities;\n        for (uint8 i = 0; i < _quantities; i++) {\n            _safeMint(msg.sender, _tokenIdCurrentWhale);\n            _tokenIdsMinted[i] = _tokenIdCurrentWhale;\n            _tokenIdCurrentWhale++;\n            nbMintedWhale++;\n        }\n        emit MintedWhale(msg.sender, block.timestamp, _tokenIdsMinted);\n    }\n}\n",
  "sourcePath": "/Users/rchea/workspaces/MetaLegends/contract-vehicle/contracts/MetaLifeVehicle.sol",
  "compiler": {
    "name": "solc",
    "version": "0.8.23+commit.f704f362.Emscripten.clang"
  },
  "schemaVersion": "3.4.13",
  "updatedAt": "2023-12-02T06:50:27.843Z",
  "networkType": "ethereum",
  "devdoc": {
    "errors": {
      "AccountBalanceOverflow()": [
        {
          "details": "The recipient's balance has overflowed."
        }
      ],
      "BalanceQueryForZeroAddress()": [
        {
          "details": "Cannot query the balance for the zero address."
        }
      ],
      "NotOwnerNorApproved()": [
        {
          "details": "Only the token owner or an approved account can manage the token."
        }
      ],
      "OwnableInvalidOwner(address)": [
        {
          "details": "The owner is not a valid owner account. (eg. `address(0)`)"
        }
      ],
      "OwnableUnauthorizedAccount(address)": [
        {
          "details": "The caller account is not authorized to perform an operation."
        }
      ],
      "ReentrancyGuardReentrantCall()": [
        {
          "details": "Unauthorized reentrant call."
        }
      ],
      "TokenAlreadyExists()": [
        {
          "details": "The token already exists."
        }
      ],
      "TokenDoesNotExist()": [
        {
          "details": "The token does not exist."
        }
      ],
      "TransferFromIncorrectOwner()": [
        {
          "details": "The token must be owned by `from`."
        }
      ],
      "TransferToNonERC721ReceiverImplementer()": [
        {
          "details": "Cannot safely transfer to a contract that does not implement the ERC721Receiver interface."
        }
      ],
      "TransferToZeroAddress()": [
        {
          "details": "Cannot mint or transfer to the zero address."
        }
      ]
    },
    "events": {
      "Approval(address,address,uint256)": {
        "details": "Emitted when `owner` enables `account` to manage the `id` token."
      },
      "ApprovalForAll(address,address,bool)": {
        "details": "Emitted when `owner` enables or disables `operator` to manage all of their tokens."
      },
      "Transfer(address,address,uint256)": {
        "details": "Emitted when token `id` is transferred from `from` to `to`."
      }
    },
    "kind": "dev",
    "methods": {
      "approve(address,uint256)": {
        "details": "Sets `account` as the approved account to manage token `id`. Requirements: - Token `id` must exist. - The caller must be the owner of the token,   or an approved operator for the token owner. Emits a {Approval} event."
      },
      "balanceOf(address)": {
        "details": "Returns the number of tokens owned by `owner`. Requirements: - `owner` must not be the zero address."
      },
      "getApproved(uint256)": {
        "details": "Returns the account approved to managed token `id`. Requirements: - Token `id` must exist."
      },
      "isApprovedForAll(address,address)": {
        "details": "Returns whether `operator` is approved to manage the tokens of `owner`."
      },
      "name()": {
        "details": "Returns the token collection name."
      },
      "owner()": {
        "details": "Returns the address of the current owner."
      },
      "ownerOf(uint256)": {
        "details": "Returns the owner of token `id`. Requirements: - Token `id` must exist."
      },
      "renounceOwnership()": {
        "details": "Leaves the contract without owner. It will not be possible to call `onlyOwner` functions. Can only be called by the current owner. NOTE: Renouncing ownership will leave the contract without an owner, thereby disabling any functionality that is only available to the owner."
      },
      "safeTransferFrom(address,address,uint256)": {
        "details": "Equivalent to `safeTransferFrom(from, to, id, \"\")`."
      },
      "safeTransferFrom(address,address,uint256,bytes)": {
        "details": "Transfers token `id` from `from` to `to`. Requirements: - Token `id` must exist. - `from` must be the owner of the token. - `to` cannot be the zero address. - The caller must be the owner of the token, or be approved to manage the token. - If `to` refers to a smart contract, it must implement   {IERC721Receiver-onERC721Received}, which is called upon a safe transfer. Emits a {Transfer} event."
      },
      "setApprovalForAll(address,bool)": {
        "details": "Sets whether `operator` is approved to manage the tokens of the caller. Emits a {ApprovalForAll} event."
      },
      "supportsInterface(bytes4)": {
        "details": "Returns true if this contract implements the interface defined by `interfaceId`. See: https://eips.ethereum.org/EIPS/eip-165 This function call must use less than 30000 gas."
      },
      "symbol()": {
        "details": "Returns the token collection symbol."
      },
      "transferFrom(address,address,uint256)": {
        "details": "Transfers token `id` from `from` to `to`. Requirements: - Token `id` must exist. - `from` must be the owner of the token. - `to` cannot be the zero address. - The caller must be the owner of the token, or be approved to manage the token. Emits a {Transfer} event."
      },
      "transferOwnership(address)": {
        "details": "Transfers ownership of the contract to a new account (`newOwner`). Can only be called by the current owner."
      }
    },
    "version": 1
  },
  "userdoc": {
    "kind": "user",
    "methods": {},
    "version": 1
  }
}