{
  "abi": [
    {
      "type": "constructor",
      "inputs": [
        {
          "name": "_token",
          "type": "address",
          "internalType": "contract DummySpaace"
        },
        {
          "name": "_nft",
          "type": "address",
          "internalType": "contract MetaLegendsLite"
        }
      ],
      "stateMutability": "nonpayable"
    },
    {
      "type": "function",
      "name": "claim",
      "inputs": [
        {
          "name": "tokenIds",
          "type": "uint256[]",
          "internalType": "uint256[]"
        }
      ],
      "outputs": [],
      "stateMutability": "nonpayable"
    },
    {
      "type": "function",
      "name": "getAmountInContract",
      "inputs": [],
      "outputs": [
        {
          "name": "",
          "type": "uint256",
          "internalType": "uint256"
        }
      ],
      "stateMutability": "view"
    },
    {
      "type": "function",
      "name": "getRewardAmount",
      "inputs": [
        {
          "name": "owner",
          "type": "address",
          "internalType": "address"
        },
        {
          "name": "tokenIds",
          "type": "uint256[]",
          "internalType": "uint256[]"
        }
      ],
      "outputs": [
        {
          "name": "",
          "type": "uint256",
          "internalType": "uint256"
        }
      ],
      "stateMutability": "view"
    },
    {
      "type": "function",
      "name": "originOwner",
      "inputs": [],
      "outputs": [
        {
          "name": "",
          "type": "address",
          "internalType": "address"
        }
      ],
      "stateMutability": "view"
    },
    {
      "type": "function",
      "name": "owner",
      "inputs": [],
      "outputs": [
        {
          "name": "",
          "type": "address",
          "internalType": "address"
        }
      ],
      "stateMutability": "view"
    },
    {
      "type": "function",
      "name": "renounceOwnership",
      "inputs": [],
      "outputs": [],
      "stateMutability": "nonpayable"
    },
    {
      "type": "function",
      "name": "rewardsPerHour",
      "inputs": [],
      "outputs": [
        {
          "name": "",
          "type": "uint256",
          "internalType": "uint256"
        }
      ],
      "stateMutability": "view"
    },
    {
      "type": "function",
      "name": "setRewardsPerHour",
      "inputs": [
        {
          "name": "_rewardsPerHour",
          "type": "uint256",
          "internalType": "uint256"
        }
      ],
      "outputs": [],
      "stateMutability": "nonpayable"
    },
    {
      "type": "function",
      "name": "stake",
      "inputs": [
        {
          "name": "tokenIds",
          "type": "uint256[]",
          "internalType": "uint256[]"
        }
      ],
      "outputs": [],
      "stateMutability": "nonpayable"
    },
    {
      "type": "function",
      "name": "tokenStakedByOwner",
      "inputs": [
        {
          "name": "owner",
          "type": "address",
          "internalType": "address"
        }
      ],
      "outputs": [
        {
          "name": "",
          "type": "uint256[]",
          "internalType": "uint256[]"
        }
      ],
      "stateMutability": "view"
    },
    {
      "type": "function",
      "name": "totalStaked",
      "inputs": [],
      "outputs": [
        {
          "name": "",
          "type": "uint256",
          "internalType": "uint256"
        }
      ],
      "stateMutability": "view"
    },
    {
      "type": "function",
      "name": "transferOwnership",
      "inputs": [
        {
          "name": "newOwner",
          "type": "address",
          "internalType": "address"
        }
      ],
      "outputs": [],
      "stateMutability": "nonpayable"
    },
    {
      "type": "event",
      "name": "Claimed",
      "inputs": [
        {
          "name": "owner",
          "type": "address",
          "indexed": true,
          "internalType": "address"
        },
        {
          "name": "amount",
          "type": "uint256",
          "indexed": false,
          "internalType": "uint256"
        }
      ],
      "anonymous": false
    },
    {
      "type": "event",
      "name": "OwnershipTransferred",
      "inputs": [
        {
          "name": "previousOwner",
          "type": "address",
          "indexed": true,
          "internalType": "address"
        },
        {
          "name": "newOwner",
          "type": "address",
          "indexed": true,
          "internalType": "address"
        }
      ],
      "anonymous": false
    },
    {
      "type": "event",
      "name": "Staked",
      "inputs": [
        {
          "name": "owner",
          "type": "address",
          "indexed": true,
          "internalType": "address"
        },
        {
          "name": "tokenId",
          "type": "uint256",
          "indexed": false,
          "internalType": "uint256"
        },
        {
          "name": "value",
          "type": "uint256",
          "indexed": false,
          "internalType": "uint256"
        }
      ],
      "anonymous": false
    },
    {
      "type": "event",
      "name": "Unstaked",
      "inputs": [
        {
          "name": "owner",
          "type": "address",
          "indexed": true,
          "internalType": "address"
        },
        {
          "name": "tokenId",
          "type": "uint256",
          "indexed": false,
          "internalType": "uint256"
        },
        {
          "name": "value",
          "type": "uint256",
          "indexed": false,
          "internalType": "uint256"
        }
      ],
      "anonymous": false
    },
    {
      "type": "error",
      "name": "OwnableInvalidOwner",
      "inputs": [
        {
          "name": "owner",
          "type": "address",
          "internalType": "address"
        }
      ]
    },
    {
      "type": "error",
      "name": "OwnableUnauthorizedAccount",
      "inputs": [
        {
          "name": "account",
          "type": "address",
          "internalType": "address"
        }
      ]
    }
  ],
  "bytecode": {
    "object": "0x6080604052600280546001600160a01b0319167379cfd6a38748bbddf15712222333476730d9028b17905561271060045534801561003c57600080fd5b506040516110ca3803806110ca83398101604081905261005b9161012f565b6002546001600160a01b03168061008c57604051631e4fbdf760e01b81526000600482015260240160405180910390fd5b610095816100c7565b50600680546001600160a01b039384166001600160a01b03199182161790915560058054929093169116179055610169565b600080546001600160a01b038381166001600160a01b0319831681178455604051919092169283917f8be0079c531659141344cd1fd0a4f28419497f9722a3daafe3b4186f6b6457e09190a35050565b6001600160a01b038116811461012c57600080fd5b50565b6000806040838503121561014257600080fd5b825161014d81610117565b602084015190925061015e81610117565b809150509250929050565b610f52806101786000396000f3fe608060405234801561001057600080fd5b50600436106100b45760003560e01c8063817b1cd211610071578063817b1cd2146101425780638da5cb5b1461014b5780638e7271fa1461015c578063ab5d2ce614610165578063b5a5e50914610185578063f2fde38b1461019857600080fd5b80630fbf0a93146100b9578063282e7811146100ce5780634c7d857d146100fe5780634f4aa73e1461011f5780636ba4c13814610127578063715018a61461013a575b600080fd5b6100cc6100c7366004610cb1565b6101ab565b005b6002546100e1906001600160a01b031681565b6040516001600160a01b0390911681526020015b60405180910390f35b61011161010c366004610d08565b6103f8565b6040519081526020016100f5565b6101116104d3565b6100cc610135366004610cb1565b610545565b6100cc610556565b61011160015481565b6000546001600160a01b03166100e1565b61011160045481565b610178610173366004610d5d565b61056a565b6040516100f59190610d81565b6100cc610193366004610dc4565b61072e565b6100cc6101a6366004610d5d565b61073b565b600082829050600160008282546101c29190610df3565b90915550600090505b828110156103f2578383828181106101e5576101e5610e0c565b6005546040516331a9108f60e11b8152602092909202939093013560048201819052945033926001600160a01b03169150636352211e90602401602060405180830381865afa15801561023c573d6000803e3d6000fd5b505050506040513d601f19601f820116820180604052508101906102609190610e22565b6001600160a01b03161461028f5760405162461bcd60e51b815260040161028690610e3f565b60405180910390fd5b600082815260036020526040902060010154156102df5760405162461bcd60e51b815260206004820152600e60248201526d105b1c9958591e4814dd185ad95960921b6044820152606401610286565b6005546040516323b872dd60e01b8152336004820152306024820152604481018490526001600160a01b03909116906323b872dd90606401600060405180830381600087803b15801561033157600080fd5b505af1158015610345573d6000803e3d6000fd5b5050604080518581524260208201523393507f1449c6dd7851abc30abf37f57715f492010519147cc2652fbc38202c18a6ee9092500160405180910390a26040805160608101825262ffffff841681524265ffffffffffff166020808301918252338385019081526000878152600390925293902091518255516001808301919091559151600290910180546001600160a01b0319166001600160a01b03909216919091179055016101cb565b50505050565b60008060008060005b858110156104c85786868281811061041b5761041b610e0c565b60209081029290920135600081815260038452604090819020815160608101835281548152600182015495810195909552600201546001600160a01b03908116918501829052919750908b161490506104865760405162461bcd60e51b815260040161028690610e3f565b6020810151600454610e109061049c8342610e66565b6104a69190610e79565b6104b09190610e90565b94506104bc8585610df3565b93505050600101610401565b509695505050505050565b6006546040516370a0823160e01b81523060048201526000916001600160a01b0316906370a0823190602401602060405180830381865afa15801561051c573d6000803e3d6000fd5b505050506040513d601f19601f820116820180604052508101906105409190610eb2565b905090565b6105523383836000610779565b5050565b61055e610a78565b6105686000610aa5565b565b60606000600560009054906101000a90046001600160a01b03166001600160a01b03166318160ddd6040518163ffffffff1660e01b8152600401602060405180830381865afa1580156105c1573d6000803e3d6000fd5b505050506040513d601f19601f820116820180604052508101906105e59190610eb2565b905060008167ffffffffffffffff81111561060257610602610ecb565b60405190808252806020026020018201604052801561062b578160200160208202803683370190505b5090506000805b83811015610692576000818152600360205260409020600201546001600160a01b0380881691160361068a578083838151811061067157610671610e0c565b60209081029190910101528161068681610ee1565b9250505b600101610632565b5060008167ffffffffffffffff8111156106ae576106ae610ecb565b6040519080825280602002602001820160405280156106d7578160200160208202803683370190505b50905060005b82811015610724578381815181106106f7576106f7610e0c565b602002602001015182828151811061071157610711610e0c565b60209081029190910101526001016106dd565b5095945050505050565b610736610a78565b600455565b610743610a78565b6001600160a01b03811661076d57604051631e4fbdf760e01b815260006004820152602401610286565b61077681610aa5565b50565b60008080805b858110156108d35786868281811061079957610799610e0c565b60209081029290920135600081815260038452604090819020815160608101835281548152600182015495810195909552600201546001600160a01b03908116918501829052919750908b161490506108045760405162461bcd60e51b815260040161028690610e3f565b6020810151600454610e109061081a8342610e66565b6108249190610e79565b61082e9190610e90565b945061083a8585610df3565b935060405180606001604052808762ffffff1681526020014265ffffffffffff1681526020018b6001600160a01b031681525060036000888152602001908152602001600020600082015181600001556020820151816001015560408201518160020160006101000a8154816001600160a01b0302191690836001600160a01b031602179055509050505050808060010191505061077f565b508015610a1b576006546040516370a0823160e01b815230600482015260009183916001600160a01b03909116906370a0823190602401602060405180830381865afa158015610927573d6000803e3d6000fd5b505050506040513d601f19601f8201168201806040525081019061094b9190610eb2565b6109559190610e66565b116109a25760405162461bcd60e51b815260206004820152601960248201527f4e6f7420656e6f75676874202453504141434520746f6b656e000000000000006044820152606401610286565b60065460405163a9059cbb60e01b81526001600160a01b038981166004830152602482018490529091169063a9059cbb906044016020604051808303816000875af11580156109f5573d6000803e3d6000fd5b505050506040513d601f19601f82011682018060405250810190610a199190610efa565b505b8315610a2c57610a2c878787610af5565b866001600160a01b03167fd8138f8a3f377c5259ca548e70e4c2de94f129f5a11036a15b69513cba2b426a82604051610a6791815260200190565b60405180910390a250505050505050565b6000546001600160a01b031633146105685760405163118cdaa760e01b8152336004820152602401610286565b600080546001600160a01b038381166001600160a01b0319831681178455604051919092169283917f8be0079c531659141344cd1fd0a4f28419497f9722a3daafe3b4186f6b6457e09190a35050565b60008282905060016000828254610b0c9190610e66565b90915550600090505b82811015610c5e57838382818110610b2f57610b2f610e0c565b6020908102929092013560008181526003909352604090922060020154919350506001600160a01b03163314610b775760405162461bcd60e51b815260040161028690610e3f565b604080518381524260208201526001600160a01b038716917f7fc4727e062e336010f2c282598ef5f14facb3de68cf8195c2f23e1454b2b74e910160405180910390a26000828152600360205260408082208281556001810192909255600290910180546001600160a01b031916905560055490516323b872dd60e01b81523060048201526001600160a01b03878116602483015260448201859052909116906323b872dd90606401600060405180830381600087803b158015610c3a57600080fd5b505af1158015610c4e573d6000803e3d6000fd5b505060019092019150610b159050565b5050505050565b60008083601f840112610c7757600080fd5b50813567ffffffffffffffff811115610c8f57600080fd5b6020830191508360208260051b8501011115610caa57600080fd5b9250929050565b60008060208385031215610cc457600080fd5b823567ffffffffffffffff811115610cdb57600080fd5b610ce785828601610c65565b90969095509350505050565b6001600160a01b038116811461077657600080fd5b600080600060408486031215610d1d57600080fd5b8335610d2881610cf3565b9250602084013567ffffffffffffffff811115610d4457600080fd5b610d5086828701610c65565b9497909650939450505050565b600060208284031215610d6f57600080fd5b8135610d7a81610cf3565b9392505050565b602080825282518282018190526000918401906040840190835b81811015610db9578351835260209384019390920191600101610d9b565b509095945050505050565b600060208284031215610dd657600080fd5b5035919050565b634e487b7160e01b600052601160045260246000fd5b80820180821115610e0657610e06610ddd565b92915050565b634e487b7160e01b600052603260045260246000fd5b600060208284031215610e3457600080fd5b8151610d7a81610cf3565b6020808252600d908201526c2737ba103a34329037bbb732b960991b604082015260600190565b81810381811115610e0657610e06610ddd565b8082028115828204841417610e0657610e06610ddd565b600082610ead57634e487b7160e01b600052601260045260246000fd5b500490565b600060208284031215610ec457600080fd5b5051919050565b634e487b7160e01b600052604160045260246000fd5b600060018201610ef357610ef3610ddd565b5060010190565b600060208284031215610f0c57600080fd5b81518015158114610d7a57600080fdfea26469706673582212207b5eccf54d1688c68d1d6a2f722c15d724efd87725e3c0aac5ed190a79fb44b364736f6c634300081a0033",
    "linkReferences": {}
  },
  "methodIdentifiers": {
    "claim(uint256[])": "6ba4c138",
    "getAmountInContract()": "4f4aa73e",
    "getRewardAmount(address,uint256[])": "4c7d857d",
    "originOwner()": "282e7811",
    "owner()": "8da5cb5b",
    "renounceOwnership()": "715018a6",
    "rewardsPerHour()": "8e7271fa",
    "setRewardsPerHour(uint256)": "b5a5e509",
    "stake(uint256[])": "0fbf0a93",
    "tokenStakedByOwner(address)": "ab5d2ce6",
    "totalStaked()": "817b1cd2",
    "transferOwnership(address)": "f2fde38b"
  },
  "id": 42
}