{
  "abi": [
    {
      "type": "constructor",
      "inputs": [
        {
          "name": "_token",
          "type": "address",
          "internalType": "contract DummySpaace"
        },
        {
          "name": "_nft",
          "type": "address",
          "internalType": "contract MetaLegends"
        }
      ],
      "stateMutability": "nonpayable"
    },
    {
      "type": "function",
      "name": "claim",
      "inputs": [
        {
          "name": "tokenIds",
          "type": "uint256[]",
          "internalType": "uint256[]"
        }
      ],
      "outputs": [],
      "stateMutability": "nonpayable"
    },
    {
      "type": "function",
      "name": "claimAndUnstake",
      "inputs": [
        {
          "name": "tokenIds",
          "type": "uint256[]",
          "internalType": "uint256[]"
        }
      ],
      "outputs": [],
      "stateMutability": "nonpayable"
    },
    {
      "type": "function",
      "name": "getAmountInContract",
      "inputs": [],
      "outputs": [
        {
          "name": "",
          "type": "uint256",
          "internalType": "uint256"
        }
      ],
      "stateMutability": "view"
    },
    {
      "type": "function",
      "name": "getRewardAmount",
      "inputs": [
        {
          "name": "owner",
          "type": "address",
          "internalType": "address"
        },
        {
          "name": "tokenIds",
          "type": "uint256[]",
          "internalType": "uint256[]"
        }
      ],
      "outputs": [
        {
          "name": "",
          "type": "uint256",
          "internalType": "uint256"
        }
      ],
      "stateMutability": "view"
    },
    {
      "type": "function",
      "name": "getRewardDetails",
      "inputs": [
        {
          "name": "owner",
          "type": "address",
          "internalType": "address"
        }
      ],
      "outputs": [
        {
          "name": "",
          "type": "tuple[]",
          "internalType": "struct MetaLifeStaking.Staking[]",
          "components": [
            {
              "name": "tokenId",
              "type": "uint256",
              "internalType": "uint256"
            },
            {
              "name": "stakingStartTime",
              "type": "uint256",
              "internalType": "uint256"
            },
            {
              "name": "owner",
              "type": "address",
              "internalType": "address"
            }
          ]
        }
      ],
      "stateMutability": "view"
    },
    {
      "type": "function",
      "name": "originOwner",
      "inputs": [],
      "outputs": [
        {
          "name": "",
          "type": "address",
          "internalType": "address"
        }
      ],
      "stateMutability": "view"
    },
    {
      "type": "function",
      "name": "owner",
      "inputs": [],
      "outputs": [
        {
          "name": "",
          "type": "address",
          "internalType": "address"
        }
      ],
      "stateMutability": "view"
    },
    {
      "type": "function",
      "name": "pause",
      "inputs": [],
      "outputs": [],
      "stateMutability": "nonpayable"
    },
    {
      "type": "function",
      "name": "paused",
      "inputs": [],
      "outputs": [
        {
          "name": "",
          "type": "bool",
          "internalType": "bool"
        }
      ],
      "stateMutability": "view"
    },
    {
      "type": "function",
      "name": "renounceOwnership",
      "inputs": [],
      "outputs": [],
      "stateMutability": "nonpayable"
    },
    {
      "type": "function",
      "name": "rewardsPerHour",
      "inputs": [],
      "outputs": [
        {
          "name": "",
          "type": "uint256",
          "internalType": "uint256"
        }
      ],
      "stateMutability": "view"
    },
    {
      "type": "function",
      "name": "setRewardsPerHour",
      "inputs": [
        {
          "name": "_rewardsPerHour",
          "type": "uint256",
          "internalType": "uint256"
        }
      ],
      "outputs": [],
      "stateMutability": "nonpayable"
    },
    {
      "type": "function",
      "name": "stake",
      "inputs": [
        {
          "name": "tokenIds",
          "type": "uint256[]",
          "internalType": "uint256[]"
        }
      ],
      "outputs": [],
      "stateMutability": "nonpayable"
    },
    {
      "type": "function",
      "name": "tokenStakedByOwner",
      "inputs": [
        {
          "name": "owner",
          "type": "address",
          "internalType": "address"
        }
      ],
      "outputs": [
        {
          "name": "",
          "type": "uint256[]",
          "internalType": "uint256[]"
        }
      ],
      "stateMutability": "view"
    },
    {
      "type": "function",
      "name": "totalStaked",
      "inputs": [],
      "outputs": [
        {
          "name": "",
          "type": "uint256",
          "internalType": "uint256"
        }
      ],
      "stateMutability": "view"
    },
    {
      "type": "function",
      "name": "transferOwnership",
      "inputs": [
        {
          "name": "newOwner",
          "type": "address",
          "internalType": "address"
        }
      ],
      "outputs": [],
      "stateMutability": "nonpayable"
    },
    {
      "type": "function",
      "name": "unpause",
      "inputs": [],
      "outputs": [],
      "stateMutability": "nonpayable"
    },
    {
      "type": "event",
      "name": "Claimed",
      "inputs": [
        {
          "name": "owner",
          "type": "address",
          "indexed": true,
          "internalType": "address"
        },
        {
          "name": "amount",
          "type": "uint256",
          "indexed": false,
          "internalType": "uint256"
        }
      ],
      "anonymous": false
    },
    {
      "type": "event",
      "name": "OwnershipTransferred",
      "inputs": [
        {
          "name": "previousOwner",
          "type": "address",
          "indexed": true,
          "internalType": "address"
        },
        {
          "name": "newOwner",
          "type": "address",
          "indexed": true,
          "internalType": "address"
        }
      ],
      "anonymous": false
    },
    {
      "type": "event",
      "name": "Paused",
      "inputs": [
        {
          "name": "account",
          "type": "address",
          "indexed": false,
          "internalType": "address"
        }
      ],
      "anonymous": false
    },
    {
      "type": "event",
      "name": "Staked",
      "inputs": [
        {
          "name": "owner",
          "type": "address",
          "indexed": true,
          "internalType": "address"
        },
        {
          "name": "tokenId",
          "type": "uint256",
          "indexed": false,
          "internalType": "uint256"
        },
        {
          "name": "timestamp",
          "type": "uint256",
          "indexed": false,
          "internalType": "uint256"
        }
      ],
      "anonymous": false
    },
    {
      "type": "event",
      "name": "Unpaused",
      "inputs": [
        {
          "name": "account",
          "type": "address",
          "indexed": false,
          "internalType": "address"
        }
      ],
      "anonymous": false
    },
    {
      "type": "event",
      "name": "Unstaked",
      "inputs": [
        {
          "name": "owner",
          "type": "address",
          "indexed": true,
          "internalType": "address"
        },
        {
          "name": "tokenId",
          "type": "uint256",
          "indexed": false,
          "internalType": "uint256"
        },
        {
          "name": "timestamp",
          "type": "uint256",
          "indexed": false,
          "internalType": "uint256"
        }
      ],
      "anonymous": false
    },
    {
      "type": "error",
      "name": "EnforcedPause",
      "inputs": []
    },
    {
      "type": "error",
      "name": "ExpectedPause",
      "inputs": []
    },
    {
      "type": "error",
      "name": "OwnableInvalidOwner",
      "inputs": [
        {
          "name": "owner",
          "type": "address",
          "internalType": "address"
        }
      ]
    },
    {
      "type": "error",
      "name": "OwnableUnauthorizedAccount",
      "inputs": [
        {
          "name": "account",
          "type": "address",
          "internalType": "address"
        }
      ]
    },
    {
      "type": "error",
      "name": "ReentrancyGuardReentrantCall",
      "inputs": []
    }
  ],
  "bytecode": {
    "object": "0x6080604052600380546001600160a01b0319167379cfd6a38748bbddf15712222333476730d9028b17905561271060065534801561003c57600080fd5b5060405161133438038061133483398101604081905261005b91610140565b6003546001600160a01b03168061008c57604051631e4fbdf760e01b81526000600482015260240160405180910390fd5b610095816100d8565b506000805460ff60a01b1916905560018055600880546001600160a01b039384166001600160a01b0319918216179091556007805492909316911617905561017a565b600080546001600160a01b038381166001600160a01b0319831681178455604051919092169283917f8be0079c531659141344cd1fd0a4f28419497f9722a3daafe3b4186f6b6457e09190a35050565b6001600160a01b038116811461013d57600080fd5b50565b6000806040838503121561015357600080fd5b825161015e81610128565b602084015190925061016f81610128565b809150509250929050565b6111ab806101896000396000f3fe608060405234801561001057600080fd5b506004361061010b5760003560e01c8063817b1cd2116100a2578063aadfb4da11610071578063aadfb4da146101e9578063ab5d2ce6146101fc578063b5a5e5091461021c578063d919007e1461022f578063f2fde38b1461024f57600080fd5b8063817b1cd2146101be5780638456cb59146101c75780638da5cb5b146101cf5780638e7271fa146101e057600080fd5b80634f4aa73e116100de5780634f4aa73e1461017e5780635c975abb146101865780636ba4c138146101a3578063715018a6146101b657600080fd5b80630fbf0a9314610110578063282e7811146101255780633f4ba83a146101555780634c7d857d1461015d575b600080fd5b61012361011e366004610eb9565b610262565b005b600354610138906001600160a01b031681565b6040516001600160a01b0390911681526020015b60405180910390f35b6101236104d8565b61017061016b366004610f10565b6104ea565b60405190815260200161014c565b6101706104ff565b600054600160a01b900460ff16604051901515815260200161014c565b6101236101b1366004610eb9565b610571565b610123610586565b61017060025481565b610123610598565b6000546001600160a01b0316610138565b61017060065481565b6101236101f7366004610eb9565b6105a8565b61020f61020a366004610f65565b6105bd565b60405161014c9190610f89565b61012361022a366004610fcc565b610629565b61024261023d366004610f65565b610636565b60405161014c9190610fe5565b61012361025d366004610f65565b6107b0565b61026a6107ee565b610272610819565b81819050600260008282546102879190611055565b90915550600090505b818110156104ca5760008383838181106102ac576102ac611068565b6007546040516331a9108f60e11b8152602092909202939093013560048201819052935033926001600160a01b03169150636352211e90602401602060405180830381865afa158015610303573d6000803e3d6000fd5b505050506040513d601f19601f82011682018060405250810190610327919061107e565b6001600160a01b0316146103565760405162461bcd60e51b815260040161034d9061109b565b60405180910390fd5b600081815260046020526040902060010154156103a65760405162461bcd60e51b815260206004820152600e60248201526d105b1c9958591e4814dd185ad95960921b604482015260640161034d565b6007546040516323b872dd60e01b8152336004820152306024820152604481018390526001600160a01b03909116906323b872dd90606401600060405180830381600087803b1580156103f857600080fd5b505af115801561040c573d6000803e3d6000fd5b5050604080518481524260208201523393507f1449c6dd7851abc30abf37f57715f492010519147cc2652fbc38202c18a6ee9092500160405180910390a260408051606081018252828152426020808301918252338385018181526000878152600484528681209551865593516001808701919091559051600290950180546001600160a01b0319166001600160a01b0390961695909517909455825260058152928120805480840182559082529290209091019190915501610290565b506104d460018055565b5050565b6104e0610843565b6104e8610870565b565b60006104f78484846108c5565b949350505050565b6008546040516370a0823160e01b81523060048201526000916001600160a01b0316906370a0823190602401602060405180830381865afa158015610548573d6000803e3d6000fd5b505050506040513d601f19601f8201168201806040525081019061056c91906110c2565b905090565b6105796107ee565b6104d4338383600061097c565b61058e610843565b6104e86000610b46565b6105a0610843565b6104e8610b96565b6105b06107ee565b6104d4338383600161097c565b6001600160a01b03811660009081526005602090815260409182902080548351818402810184019094528084526060939283018282801561061d57602002820191906000526020600020905b815481526020019060010190808311610609575b50505050509050919050565b610631610843565b600655565b6001600160a01b038116600090815260056020908152604080832080548251818502810185019093528083526060949383018282801561069557602002820191906000526020600020905b815481526020019060010190808311610681575b505050505090506000815167ffffffffffffffff8111156106b8576106b86110db565b60405190808252806020026020018201604052801561071657816020015b6107036040518060600160405280600081526020016000815260200160006001600160a01b031681525090565b8152602001906001900390816106d65790505b50905060005b82518110156107a8576004600084838151811061073b5761073b611068565b6020908102919091018101518252818101929092526040908101600020815160608101835281548152600182015493810193909352600201546001600160a01b031690820152825183908390811061079557610795611068565b602090810291909101015260010161071c565b509392505050565b6107b8610843565b6001600160a01b0381166107e257604051631e4fbdf760e01b81526000600482015260240161034d565b6107eb81610b46565b50565b600054600160a01b900460ff16156104e85760405163d93c066560e01b815260040160405180910390fd5b60026001540361083c57604051633ee5aeb560e01b815260040160405180910390fd5b6002600155565b6000546001600160a01b031633146104e85760405163118cdaa760e01b815233600482015260240161034d565b610878610bd9565b6000805460ff60a01b191690557f5db9ee0a495bf2e6ff9c91a7834c1ba4fdd244a5e8aa4e537bd38aeae4b073aa335b6040516001600160a01b03909116815260200160405180910390a1565b60008060005b838110156109735760008585838181106108e7576108e7611068565b60209081029290920135600081815260048452604090819020815160608101835281548152600182015495810195909552600201546001600160a01b03908116918501829052919450908a161490506109525760405162461bcd60e51b815260040161034d9061109b565b61095b81610c03565b93506109678486611055565b945050506001016108cb565b50509392505050565b610984610819565b60006109918585856108c5565b905061099b6104ff565b8111156109ad576109aa6104ff565b90505b60005b83811015610a625760405180606001604052808686848181106109d5576109d5611068565b905060200201358152602001428152602001876001600160a01b031681525060046000878785818110610a0a57610a0a611068565b602090810292909201358352508181019290925260409081016000208351815591830151600180840191909155920151600290910180546001600160a01b0319166001600160a01b03909216919091179055016109b0565b508015610ae25760085460405163a9059cbb60e01b81526001600160a01b038781166004830152602482018490529091169063a9059cbb906044016020604051808303816000875af1158015610abc573d6000803e3d6000fd5b505050506040513d601f19601f82011682018060405250810190610ae091906110f1565b505b8115610af357610af3858585610c35565b846001600160a01b03167fd8138f8a3f377c5259ca548e70e4c2de94f129f5a11036a15b69513cba2b426a82604051610b2e91815260200190565b60405180910390a250610b4060018055565b50505050565b600080546001600160a01b038381166001600160a01b0319831681178455604051919092169283917f8be0079c531659141344cd1fd0a4f28419497f9722a3daafe3b4186f6b6457e09190a35050565b610b9e6107ee565b6000805460ff60a01b1916600160a01b1790557f62e78cea01bee320cd4e420270b5ea74000d11b0c9f74754ebdbfc544b05a2586108a83390565b600054600160a01b900460ff166104e857604051638dfc202b60e01b815260040160405180910390fd5b6000610e10600654836020015142610c1b9190611113565b610c259190611126565b610c2f919061113d565b92915050565b8181905060026000828254610c4a9190611113565b90915550600090505b81811015610b40576000838383818110610c6f57610c6f611068565b6020908102929092013560008181526004909352604090922060020154919250506001600160a01b03163314610cb75760405162461bcd60e51b815260040161034d9061109b565b604080518281524260208201526001600160a01b038716917f7fc4727e062e336010f2c282598ef5f14facb3de68cf8195c2f23e1454b2b74e910160405180910390a260008181526004602081905260408083208381556001810193909355600290920180546001600160a01b031916905560075491516323b872dd60e01b815230918101919091526001600160a01b03878116602483015260448201849052909116906323b872dd90606401600060405180830381600087803b158015610d7e57600080fd5b505af1158015610d92573d6000803e3d6000fd5b50505050610da08582610da9565b50600101610c53565b6001600160a01b0382166000908152600560205260408120905b8154811015610b405782828281548110610ddf57610ddf611068565b906000526020600020015403610e655781548290610dff90600190611113565b81548110610e0f57610e0f611068565b9060005260206000200154828281548110610e2c57610e2c611068565b906000526020600020018190555081805480610e4a57610e4a61115f565b60019003818190600052602060002001600090559055610b40565b600101610dc3565b60008083601f840112610e7f57600080fd5b50813567ffffffffffffffff811115610e9757600080fd5b6020830191508360208260051b8501011115610eb257600080fd5b9250929050565b60008060208385031215610ecc57600080fd5b823567ffffffffffffffff811115610ee357600080fd5b610eef85828601610e6d565b90969095509350505050565b6001600160a01b03811681146107eb57600080fd5b600080600060408486031215610f2557600080fd5b8335610f3081610efb565b9250602084013567ffffffffffffffff811115610f4c57600080fd5b610f5886828701610e6d565b9497909650939450505050565b600060208284031215610f7757600080fd5b8135610f8281610efb565b9392505050565b602080825282518282018190526000918401906040840190835b81811015610fc1578351835260209384019390920191600101610fa3565b509095945050505050565b600060208284031215610fde57600080fd5b5035919050565b602080825282518282018190526000918401906040840190835b81811015610fc157835180518452602080820151818601526040918201516001600160a01b03169185019190915290930192606090920191600101610fff565b634e487b7160e01b600052601160045260246000fd5b80820180821115610c2f57610c2f61103f565b634e487b7160e01b600052603260045260246000fd5b60006020828403121561109057600080fd5b8151610f8281610efb565b6020808252600d908201526c2737ba103a34329037bbb732b960991b604082015260600190565b6000602082840312156110d457600080fd5b5051919050565b634e487b7160e01b600052604160045260246000fd5b60006020828403121561110357600080fd5b81518015158114610f8257600080fd5b81810381811115610c2f57610c2f61103f565b8082028115828204841417610c2f57610c2f61103f565b60008261115a57634e487b7160e01b600052601260045260246000fd5b500490565b634e487b7160e01b600052603160045260246000fdfea2646970667358221220fa52a9fe8b3314d8ac683ac37df50f0a0fb592d921cee403af03981c71839b5764736f6c634300081a0033",
    "linkReferences": {}
  },
  "methodIdentifiers": {
    "claim(uint256[])": "6ba4c138",
    "claimAndUnstake(uint256[])": "aadfb4da",
    "getAmountInContract()": "4f4aa73e",
    "getRewardAmount(address,uint256[])": "4c7d857d",
    "getRewardDetails(address)": "d919007e",
    "originOwner()": "282e7811",
    "owner()": "8da5cb5b",
    "pause()": "8456cb59",
    "paused()": "5c975abb",
    "renounceOwnership()": "715018a6",
    "rewardsPerHour()": "8e7271fa",
    "setRewardsPerHour(uint256)": "b5a5e509",
    "stake(uint256[])": "0fbf0a93",
    "tokenStakedByOwner(address)": "ab5d2ce6",
    "totalStaked()": "817b1cd2",
    "transferOwnership(address)": "f2fde38b",
    "unpause()": "3f4ba83a"
  },
  "id": 44
}