{
  "contractName": "MetaLifeHealingDrone",
  "abi": [
    {
      "inputs": [],
      "stateMutability": "nonpayable",
      "type": "constructor"
    },
    {
      "inputs": [],
      "name": "AccountBalanceOverflow",
      "type": "error"
    },
    {
      "inputs": [],
      "name": "BalanceQueryForZeroAddress",
      "type": "error"
    },
    {
      "inputs": [],
      "name": "ContractsCannotMint",
      "type": "error"
    },
    {
      "inputs": [],
      "name": "MustMintAtLeastOneToken",
      "type": "error"
    },
    {
      "inputs": [],
      "name": "NotEnoughAvailableTokens",
      "type": "error"
    },
    {
      "inputs": [],
      "name": "NotOwnerNorApproved",
      "type": "error"
    },
    {
      "inputs": [],
      "name": "TokenAlreadyExists",
      "type": "error"
    },
    {
      "inputs": [],
      "name": "TokenDoesNotExist",
      "type": "error"
    },
    {
      "inputs": [],
      "name": "TransferFromIncorrectOwner",
      "type": "error"
    },
    {
      "inputs": [],
      "name": "TransferToNonERC721ReceiverImplementer",
      "type": "error"
    },
    {
      "inputs": [],
      "name": "TransferToZeroAddress",
      "type": "error"
    },
    {
      "anonymous": false,
      "inputs": [
        {
          "indexed": true,
          "internalType": "address",
          "name": "owner",
          "type": "address"
        },
        {
          "indexed": true,
          "internalType": "address",
          "name": "account",
          "type": "address"
        },
        {
          "indexed": true,
          "internalType": "uint256",
          "name": "id",
          "type": "uint256"
        }
      ],
      "name": "Approval",
      "type": "event"
    },
    {
      "anonymous": false,
      "inputs": [
        {
          "indexed": true,
          "internalType": "address",
          "name": "owner",
          "type": "address"
        },
        {
          "indexed": true,
          "internalType": "address",
          "name": "operator",
          "type": "address"
        },
        {
          "indexed": false,
          "internalType": "bool",
          "name": "isApproved",
          "type": "bool"
        }
      ],
      "name": "ApprovalForAll",
      "type": "event"
    },
    {
      "anonymous": false,
      "inputs": [
        {
          "indexed": true,
          "internalType": "address",
          "name": "from",
          "type": "address"
        },
        {
          "indexed": false,
          "internalType": "uint256",
          "name": "timestamp",
          "type": "uint256"
        },
        {
          "indexed": false,
          "internalType": "uint256",
          "name": "quantity",
          "type": "uint256"
        }
      ],
      "name": "Minted",
      "type": "event"
    },
    {
      "anonymous": false,
      "inputs": [
        {
          "indexed": true,
          "internalType": "address",
          "name": "previousOwner",
          "type": "address"
        },
        {
          "indexed": true,
          "internalType": "address",
          "name": "newOwner",
          "type": "address"
        }
      ],
      "name": "OwnershipTransferred",
      "type": "event"
    },
    {
      "anonymous": false,
      "inputs": [
        {
          "indexed": true,
          "internalType": "address",
          "name": "from",
          "type": "address"
        },
        {
          "indexed": true,
          "internalType": "address",
          "name": "to",
          "type": "address"
        },
        {
          "indexed": true,
          "internalType": "uint256",
          "name": "id",
          "type": "uint256"
        }
      ],
      "name": "Transfer",
      "type": "event"
    },
    {
      "inputs": [
        {
          "internalType": "address",
          "name": "account",
          "type": "address"
        },
        {
          "internalType": "uint256",
          "name": "id",
          "type": "uint256"
        }
      ],
      "name": "approve",
      "outputs": [],
      "stateMutability": "payable",
      "type": "function",
      "payable": true
    },
    {
      "inputs": [
        {
          "internalType": "address",
          "name": "owner",
          "type": "address"
        }
      ],
      "name": "balanceOf",
      "outputs": [
        {
          "internalType": "uint256",
          "name": "result",
          "type": "uint256"
        }
      ],
      "stateMutability": "view",
      "type": "function",
      "constant": true
    },
    {
      "inputs": [],
      "name": "baseURI",
      "outputs": [
        {
          "internalType": "string",
          "name": "",
          "type": "string"
        }
      ],
      "stateMutability": "view",
      "type": "function",
      "constant": true
    },
    {
      "inputs": [
        {
          "internalType": "address",
          "name": "",
          "type": "address"
        }
      ],
      "name": "eligibilities",
      "outputs": [
        {
          "internalType": "uint256",
          "name": "total",
          "type": "uint256"
        },
        {
          "internalType": "uint256",
          "name": "claimed",
          "type": "uint256"
        }
      ],
      "stateMutability": "view",
      "type": "function",
      "constant": true
    },
    {
      "inputs": [
        {
          "internalType": "uint256",
          "name": "id",
          "type": "uint256"
        }
      ],
      "name": "getApproved",
      "outputs": [
        {
          "internalType": "address",
          "name": "result",
          "type": "address"
        }
      ],
      "stateMutability": "view",
      "type": "function",
      "constant": true
    },
    {
      "inputs": [
        {
          "internalType": "address",
          "name": "owner",
          "type": "address"
        },
        {
          "internalType": "address",
          "name": "operator",
          "type": "address"
        }
      ],
      "name": "isApprovedForAll",
      "outputs": [
        {
          "internalType": "bool",
          "name": "result",
          "type": "bool"
        }
      ],
      "stateMutability": "view",
      "type": "function",
      "constant": true
    },
    {
      "inputs": [],
      "name": "limitMint",
      "outputs": [
        {
          "internalType": "uint256",
          "name": "",
          "type": "uint256"
        }
      ],
      "stateMutability": "view",
      "type": "function",
      "constant": true
    },
    {
      "inputs": [],
      "name": "maxSupply",
      "outputs": [
        {
          "internalType": "uint256",
          "name": "",
          "type": "uint256"
        }
      ],
      "stateMutability": "view",
      "type": "function",
      "constant": true
    },
    {
      "inputs": [],
      "name": "name",
      "outputs": [
        {
          "internalType": "string",
          "name": "",
          "type": "string"
        }
      ],
      "stateMutability": "view",
      "type": "function",
      "constant": true
    },
    {
      "inputs": [
        {
          "internalType": "address",
          "name": "minter",
          "type": "address"
        }
      ],
      "name": "numberMinted",
      "outputs": [
        {
          "internalType": "uint32",
          "name": "",
          "type": "uint32"
        }
      ],
      "stateMutability": "view",
      "type": "function",
      "constant": true
    },
    {
      "inputs": [],
      "name": "owner",
      "outputs": [
        {
          "internalType": "address",
          "name": "",
          "type": "address"
        }
      ],
      "stateMutability": "view",
      "type": "function",
      "constant": true
    },
    {
      "inputs": [
        {
          "internalType": "uint256",
          "name": "id",
          "type": "uint256"
        }
      ],
      "name": "ownerOf",
      "outputs": [
        {
          "internalType": "address",
          "name": "result",
          "type": "address"
        }
      ],
      "stateMutability": "view",
      "type": "function",
      "constant": true
    },
    {
      "inputs": [],
      "name": "remainingSupply",
      "outputs": [
        {
          "internalType": "uint256",
          "name": "",
          "type": "uint256"
        }
      ],
      "stateMutability": "view",
      "type": "function",
      "constant": true
    },
    {
      "inputs": [],
      "name": "renounceOwnership",
      "outputs": [],
      "stateMutability": "nonpayable",
      "type": "function"
    },
    {
      "inputs": [
        {
          "internalType": "address",
          "name": "from",
          "type": "address"
        },
        {
          "internalType": "address",
          "name": "to",
          "type": "address"
        },
        {
          "internalType": "uint256",
          "name": "id",
          "type": "uint256"
        }
      ],
      "name": "safeTransferFrom",
      "outputs": [],
      "stateMutability": "payable",
      "type": "function",
      "payable": true
    },
    {
      "inputs": [
        {
          "internalType": "address",
          "name": "from",
          "type": "address"
        },
        {
          "internalType": "address",
          "name": "to",
          "type": "address"
        },
        {
          "internalType": "uint256",
          "name": "id",
          "type": "uint256"
        },
        {
          "internalType": "bytes",
          "name": "data",
          "type": "bytes"
        }
      ],
      "name": "safeTransferFrom",
      "outputs": [],
      "stateMutability": "payable",
      "type": "function",
      "payable": true
    },
    {
      "inputs": [
        {
          "internalType": "address",
          "name": "operator",
          "type": "address"
        },
        {
          "internalType": "bool",
          "name": "isApproved",
          "type": "bool"
        }
      ],
      "name": "setApprovalForAll",
      "outputs": [],
      "stateMutability": "nonpayable",
      "type": "function"
    },
    {
      "inputs": [
        {
          "internalType": "bytes4",
          "name": "interfaceId",
          "type": "bytes4"
        }
      ],
      "name": "supportsInterface",
      "outputs": [
        {
          "internalType": "bool",
          "name": "result",
          "type": "bool"
        }
      ],
      "stateMutability": "view",
      "type": "function",
      "constant": true
    },
    {
      "inputs": [],
      "name": "symbol",
      "outputs": [
        {
          "internalType": "string",
          "name": "",
          "type": "string"
        }
      ],
      "stateMutability": "view",
      "type": "function",
      "constant": true
    },
    {
      "inputs": [],
      "name": "totalSupply",
      "outputs": [
        {
          "internalType": "uint256",
          "name": "",
          "type": "uint256"
        }
      ],
      "stateMutability": "view",
      "type": "function",
      "constant": true
    },
    {
      "inputs": [
        {
          "internalType": "address",
          "name": "from",
          "type": "address"
        },
        {
          "internalType": "address",
          "name": "to",
          "type": "address"
        },
        {
          "internalType": "uint256",
          "name": "id",
          "type": "uint256"
        }
      ],
      "name": "transferFrom",
      "outputs": [],
      "stateMutability": "payable",
      "type": "function",
      "payable": true
    },
    {
      "inputs": [
        {
          "internalType": "address",
          "name": "newOwner",
          "type": "address"
        }
      ],
      "name": "transferOwnership",
      "outputs": [],
      "stateMutability": "nonpayable",
      "type": "function"
    },
    {
      "inputs": [],
      "name": "withdrawAll",
      "outputs": [],
      "stateMutability": "payable",
      "type": "function",
      "payable": true
    },
    {
      "inputs": [
        {
          "internalType": "address payable",
          "name": "_newCollector",
          "type": "address"
        }
      ],
      "name": "setCollector",
      "outputs": [],
      "stateMutability": "nonpayable",
      "type": "function"
    },
    {
      "inputs": [
        {
          "internalType": "string",
          "name": "_newBaseURI",
          "type": "string"
        }
      ],
      "name": "_setBaseURI",
      "outputs": [],
      "stateMutability": "nonpayable",
      "type": "function"
    },
    {
      "inputs": [
        {
          "internalType": "uint256",
          "name": "tokenId",
          "type": "uint256"
        }
      ],
      "name": "tokenURI",
      "outputs": [
        {
          "internalType": "string",
          "name": "",
          "type": "string"
        }
      ],
      "stateMutability": "view",
      "type": "function",
      "constant": true
    },
    {
      "inputs": [
        {
          "internalType": "address[]",
          "name": "_addresses",
          "type": "address[]"
        },
        {
          "internalType": "uint256[]",
          "name": "_quantities",
          "type": "uint256[]"
        }
      ],
      "name": "addEligibilities",
      "outputs": [],
      "stateMutability": "nonpayable",
      "type": "function"
    },
    {
      "inputs": [
        {
          "internalType": "address",
          "name": "wallet",
          "type": "address"
        }
      ],
      "name": "remaining",
      "outputs": [
        {
          "internalType": "uint256",
          "name": "",
          "type": "uint256"
        }
      ],
      "stateMutability": "view",
      "type": "function",
      "constant": true
    },
    {
      "inputs": [
        {
          "internalType": "uint256",
          "name": "_quantity",
          "type": "uint256"
        }
      ],
      "name": "mint",
      "outputs": [],
      "stateMutability": "nonpayable",
      "type": "function"
    },
    {
      "inputs": [
        {
          "internalType": "uint256",
          "name": "tokenId",
          "type": "uint256"
        }
      ],
      "name": "tokenExist",
      "outputs": [
        {
          "internalType": "bool",
          "name": "",
          "type": "bool"
        }
      ],
      "stateMutability": "view",
      "type": "function",
      "constant": true
    }
  ],
  "bytecode": "0x60a060405260006007553480156200001657600080fd5b506040518060400160405280601781526020017f4d6574612d4c696665204865616c696e672044726f6e650000000000000000008152506040518060400160405280600381526020017f4d4c4800000000000000000000000000000000000000000000000000000000008152506115386001600081905550620000ae620000a2620000f560201b60201c565b620000fd60201b60201c565b8260029081620000bf91906200043d565b508160039081620000d191906200043d565b50806080818152505080600581905550505050636681d55f60078190555062000524565b600033905090565b6000600160009054906101000a900473ffffffffffffffffffffffffffffffffffffffff16905081600160006101000a81548173ffffffffffffffffffffffffffffffffffffffff021916908373ffffffffffffffffffffffffffffffffffffffff1602179055508173ffffffffffffffffffffffffffffffffffffffff168173ffffffffffffffffffffffffffffffffffffffff167f8be0079c531659141344cd1fd0a4f28419497f9722a3daafe3b4186f6b6457e060405160405180910390a35050565b600081519050919050565b7f4e487b7100000000000000000000000000000000000000000000000000000000600052604160045260246000fd5b7f4e487b7100000000000000000000000000000000000000000000000000000000600052602260045260246000fd5b600060028204905060018216806200024557607f821691505b6020821081036200025b576200025a620001fd565b5b50919050565b60008190508160005260206000209050919050565b60006020601f8301049050919050565b600082821b905092915050565b600060088302620002c57fffffffffffffffffffffffffffffffffffffffffffffffffffffffffffffffff8262000286565b620002d1868362000286565b95508019841693508086168417925050509392505050565b6000819050919050565b6000819050919050565b60006200031e620003186200031284620002e9565b620002f3565b620002e9565b9050919050565b6000819050919050565b6200033a83620002fd565b62000352620003498262000325565b84845462000293565b825550505050565b600090565b620003696200035a565b620003768184846200032f565b505050565b5b818110156200039e57620003926000826200035f565b6001810190506200037c565b5050565b601f821115620003ed57620003b78162000261565b620003c28462000276565b81016020851015620003d2578190505b620003ea620003e18562000276565b8301826200037b565b50505b505050565b600082821c905092915050565b60006200041260001984600802620003f2565b1980831691505092915050565b60006200042d8383620003ff565b9150826002028217905092915050565b6200044882620001c3565b67ffffffffffffffff811115620004645762000463620001ce565b5b6200047082546200022c565b6200047d828285620003a2565b600060209050601f831160018114620004b55760008415620004a0578287015190505b620004ac85826200041f565b8655506200051c565b601f198416620004c58662000261565b60005b82811015620004ef57848901518255600182019150602085019450602081019050620004c8565b868310156200050f57848901516200050b601f891682620003ff565b8355505b6001600288020188555050505b505050505050565b608051612d946200054e6000396000818161083b01528181610df5015261114a0152612d946000f3fe6080604052600436106101cd5760003560e01c806395d89b41116100f7578063c930d09f11610095578063dc33e68111610064578063dc33e68114610648578063e985e9c514610685578063f2fde38b146106c2578063fb5b82d0146106eb576101cd565b8063c930d09f14610577578063cc0c5236146105b5578063d5abeb01146105f2578063da0239a61461061d576101cd565b8063a22cb465116100d1578063a22cb465146104b8578063b399b0bc146104e1578063b88d4fde1461051e578063c87b56dd1461053a576101cd565b806395d89b41146104395780639b52592414610464578063a0712d681461048f576101cd565b80633b898da61161016f57806370a082311161013e57806370a08231146103b0578063715018a6146103ed578063853828b6146104045780638da5cb5b1461040e576101cd565b80633b898da61461030357806342842e0e1461032c5780636352211e146103485780636c0360eb14610385576101cd565b8063095ea7b3116101ab578063095ea7b31461027757806318160ddd1461029357806323b872dd146102be57806331b5b907146102da576101cd565b806301ffc9a7146101d257806306fdde031461020f578063081812fc1461023a575b600080fd5b3480156101de57600080fd5b506101f960048036038101906101f49190611cfe565b610714565b6040516102069190611d46565b60405180910390f35b34801561021b57600080fd5b50610224610739565b6040516102319190611df1565b60405180910390f35b34801561024657600080fd5b50610261600480360381019061025c9190611e49565b6107cb565b60405161026e9190611eb7565b60405180910390f35b610291600480360381019061028c9190611efe565b610825565b005b34801561029f57600080fd5b506102a8610834565b6040516102b59190611f4d565b60405180910390f35b6102d860048036038101906102d39190611f68565b610869565b005b3480156102e657600080fd5b5061030160048036038101906102fc91906120f0565b6109b1565b005b34801561030f57600080fd5b5061032a600480360381019061032591906121ef565b6109cc565b005b61034660048036038101906103419190611f68565b610acb565b005b34801561035457600080fd5b5061036f600480360381019061036a9190611e49565b610b05565b60405161037c9190611eb7565b60405180910390f35b34801561039157600080fd5b5061039a610b2a565b6040516103a79190611df1565b60405180910390f35b3480156103bc57600080fd5b506103d760048036038101906103d29190612270565b610bb8565b6040516103e49190611f4d565b60405180910390f35b3480156103f957600080fd5b50610402610c08565b005b61040c610c1c565b005b34801561041a57600080fd5b50610423610c8f565b6040516104309190611eb7565b60405180910390f35b34801561044557600080fd5b5061044e610cb9565b60405161045b9190611df1565b60405180910390f35b34801561047057600080fd5b50610479610d4b565b6040516104869190611f4d565b60405180910390f35b34801561049b57600080fd5b506104b660048036038101906104b19190611e49565b610d51565b005b3480156104c457600080fd5b506104df60048036038101906104da91906122c9565b610f0b565b005b3480156104ed57600080fd5b5061050860048036038101906105039190612270565b610f61565b6040516105159190611f4d565b60405180910390f35b6105386004803603810190610533919061235f565b610ffa565b005b34801561054657600080fd5b50610561600480360381019061055c9190611e49565b61106b565b60405161056e9190611df1565b60405180910390f35b34801561058357600080fd5b5061059e60048036038101906105999190612270565b611112565b6040516105ac9291906123e7565b60405180910390f35b3480156105c157600080fd5b506105dc60048036038101906105d79190611e49565b611136565b6040516105e99190611d46565b60405180910390f35b3480156105fe57600080fd5b50610607611148565b6040516106149190611f4d565b60405180910390f35b34801561062957600080fd5b5061063261116c565b60405161063f9190611f4d565b60405180910390f35b34801561065457600080fd5b5061066f600480360381019061066a9190612270565b611172565b60405161067c919061242f565b60405180910390f35b34801561069157600080fd5b506106ac60048036038101906106a7919061244a565b6111a6565b6040516106b99190611d46565b60405180910390f35b3480156106ce57600080fd5b506106e960048036038101906106e49190612270565b6111ca565b005b3480156106f757600080fd5b50610712600480360381019061070d91906124c8565b61124d565b005b60008160e01c635b5e139f81146380ac58cd82146301ffc9a783141717915050919050565b60606002805461074890612524565b80601f016020809104026020016040519081016040528092919081815260200182805461077490612524565b80156107c15780601f10610796576101008083540402835291602001916107c1565b820191906000526020600020905b8154815290600101906020018083116107a457829003601f168201915b5050505050905090565b6000816000527f7d8825530a5a2e7a000000000000000000000000000000000000000000000000601c52602060002082018201805460601b60601c6108185763ceea21b66000526004601cfd5b8060010154915050919050565b610830338383611299565b5050565b60006005547f00000000000000000000000000000000000000000000000000000000000000006108649190612584565b905090565b610874838383611350565b60001960601c8381169350828116925081600052337f7d8825530a5a2e7a00000000000000000000000000000000000000000000000017601c52602060002082018201805480831686811481026108e657806108d85763ceea21b66000526004601cfd5b63a11481006000526004601cfd5b856108f95763ea553b346000526004601cfd5b86600052826001015480331488331417610926576030600c205461092557634b6e7f186000526004601cfd5b5b801561093457600084600101555b5085871882188355601c600c20600181540381555085600052601c600c20600181540163ffffffff8116610970576301336cea6000526004601cfd5b80825550508486887fddf252ad1be2c89b69c2b068fc378daa952ba7f163c4a11628f55a4df523b3ef600080a4505050506109ac838383611355565b505050565b6109b961135a565b80600690816109c89190612764565b5050565b6109d461135a565b818190508484905014610a1c576040517f08c379a0000000000000000000000000000000000000000000000000000000008152600401610a13906128a8565b60405180910390fd5b60005b84849050811015610ac457828282818110610a3d57610a3c6128c8565b5b9050602002013560096000878785818110610a5b57610a5a6128c8565b5b9050602002016020810190610a709190612270565b73ffffffffffffffffffffffffffffffffffffffff1673ffffffffffffffffffffffffffffffffffffffff168152602001908152602001600020600001819055508080610abc906128f7565b915050610a1f565b5050505050565b610ad6838383610869565b610adf826113d8565b15610b0057610aff838383604051806020016040528060008152506113e3565b5b505050565b6000610b1082611475565b905080610b255763ceea21b66000526004601cfd5b919050565b60068054610b3790612524565b80601f0160208091040260200160405190810160405280929190818152602001828054610b6390612524565b8015610bb05780601f10610b8557610100808354040283529160200191610bb0565b820191906000526020600020905b815481529060010190602001808311610b9357829003601f168201915b505050505081565b600081610bcd57638f4eb6046000526004601cfd5b7f7d8825530a5a2e7a000000000000000000000000000000000000000000000000601c528160005263ffffffff601c600c2054169050919050565b610c1061135a565b610c1a60006114b6565b565b610c2461135a565b600860009054906101000a900473ffffffffffffffffffffffffffffffffffffffff1673ffffffffffffffffffffffffffffffffffffffff166108fc479081150290604051600060405180830381858888f19350505050158015610c8c573d6000803e3d6000fd5b50565b6000600160009054906101000a900473ffffffffffffffffffffffffffffffffffffffff16905090565b606060038054610cc890612524565b80601f0160208091040260200160405190810160405280929190818152602001828054610cf490612524565b8015610d415780601f10610d1657610100808354040283529160200191610d41565b820191906000526020600020905b815481529060010190602001808311610d2457829003601f168201915b5050505050905090565b60075481565b6007544210610d95576040517f08c379a0000000000000000000000000000000000000000000000000000000008152600401610d8c9061298b565b60405180910390fd5b80610d9f33610f61565b1015610de0576040517f08c379a0000000000000000000000000000000000000000000000000000000008152600401610dd7906129f7565b60405180910390fd5b80610de9610834565b610df39190612a17565b7f00000000000000000000000000000000000000000000000000000000000000001015610e55576040517f08c379a0000000000000000000000000000000000000000000000000000000008152600401610e4c90612a97565b60405180910390fd5b80600960003373ffffffffffffffffffffffffffffffffffffffff1673ffffffffffffffffffffffffffffffffffffffff1681526020019081526020016000206001016000828254610ea79190612a17565b92505081905550610eb8338261157c565b3373ffffffffffffffffffffffffffffffffffffffff167f25b428dfde728ccfaddad7e29e4ac23c24ed7fd1a6e3e3f91894a9a073f5dfff4283604051610f009291906123e7565b60405180910390a250565b801515905081601c52670a5a2e7a0000000060085233600052806030600c2055806000528160601b60601c337f17307eab39ab6107e8899845ad3d59bd9653f200f220920489ca2b5937696c3160206000a35050565b6000600960008373ffffffffffffffffffffffffffffffffffffffff1673ffffffffffffffffffffffffffffffffffffffff16815260200190815260200160002060010154600960008473ffffffffffffffffffffffffffffffffffffffff1673ffffffffffffffffffffffffffffffffffffffff16815260200190815260200160002060000154610ff39190612584565b9050919050565b611005858585610869565b61100e846113d8565b156110645761106385858585858080601f016020809104026020016040519081016040528093929190818152602001838380828437600081840152601f19601f820116905080830192505050505050506113e3565b5b5050505050565b606061107682611707565b6110b5576040517f08c379a00000000000000000000000000000000000000000000000000000000081526004016110ac90612b03565b60405180910390fd5b60006110bf611745565b905060008151116110df576040518060200160405280600081525061110a565b806110e9846117d7565b6040516020016110fa929190612b5f565b6040516020818303038152906040525b915050919050565b60096020528060005260406000206000915090508060000154908060010154905082565b600061114182611707565b9050919050565b7f000000000000000000000000000000000000000000000000000000000000000081565b60055481565b600060c061117f836118a5565b7bffffffffffffffffffffffffffffffffffffffffffffffffffffffff16901c9050919050565b600081601c52670a5a2e7a00000000600852826000526030600c2054905092915050565b6111d261135a565b600073ffffffffffffffffffffffffffffffffffffffff168173ffffffffffffffffffffffffffffffffffffffff1603611241576040517f08c379a000000000000000000000000000000000000000000000000000000000815260040161123890612bf5565b60405180910390fd5b61124a816114b6565b50565b61125561135a565b80600860006101000a81548173ffffffffffffffffffffffffffffffffffffffff021916908373ffffffffffffffffffffffffffffffffffffffff16021790555050565b60001960601c8281169250838116935081600052837f7d8825530a5a2e7a00000000000000000000000000000000000000000000000017601c5260206000208201820180548216806112f35763ceea21b66000526004601cfd5b80861486151761131a57806000526030600c205461131957634b6e7f186000526004601cfd5b5b8482600101558385827f8c5be1e5ebec7d5bd14f71427d1e84f3dd0314c0f7b2291e5b200ac8c7c3b925600080a4505050505050565b505050565b505050565b6113626118df565b73ffffffffffffffffffffffffffffffffffffffff16611380610c8f565b73ffffffffffffffffffffffffffffffffffffffff16146113d6576040517f08c379a00000000000000000000000000000000000000000000000000000000081526004016113cd90612c61565b60405180910390fd5b565b6000813b9050919050565b60405163150b7a028082523360208301528560601b60601c604083015283606083015260808083015282518060a0840152801561142a578060c08401826020870160045afa505b60208360a48301601c860160008a5af1611453573d1561144e573d6000803e3d6000fd5b600083525b8160e01b83511461146c5763d1a57ed66000526004601cfd5b50505050505050565b6000816000527f7d8825530a5a2e7a000000000000000000000000000000000000000000000000601c526020600020820182015460601b60601c9050919050565b6000600160009054906101000a900473ffffffffffffffffffffffffffffffffffffffff16905081600160006101000a81548173ffffffffffffffffffffffffffffffffffffffff021916908373ffffffffffffffffffffffffffffffffffffffff1602179055508173ffffffffffffffffffffffffffffffffffffffff168173ffffffffffffffffffffffffffffffffffffffff167f8be0079c531659141344cd1fd0a4f28419497f9722a3daafe3b4186f6b6457e060405160405180910390a35050565b3273ffffffffffffffffffffffffffffffffffffffff163373ffffffffffffffffffffffffffffffffffffffff16146115e1576040517fd9d552c900000000000000000000000000000000000000000000000000000000815260040160405180910390fd5b6000810361161b576040517f4600cfe900000000000000000000000000000000000000000000000000000000815260040160405180910390fd5b806005541015611657576040517f7775abdd00000000000000000000000000000000000000000000000000000000815260040160405180910390fd5b600060405180602001604052804244604051602001611677929190612ca2565b6040516020818303038152906040528051906020012060001c81525090506000600554905060005b838110156116ef5760006116bc83856118e790919063ffffffff16565b905060006116ca8285611912565b90506116d687826119be565b836116e090612cce565b9350826001019250505061169f565b506116fa8484611a9c565b8060058190555050505050565b6000816000527f7d8825530a5a2e7a000000000000000000000000000000000000000000000000601c526020600020820182015460601b9050919050565b60606006805461175490612524565b80601f016020809104026020016040519081016040528092919081815260200182805461178090612524565b80156117cd5780601f106117a2576101008083540402835291602001916117cd565b820191906000526020600020905b8154815290600101906020018083116117b057829003601f168201915b5050505050905090565b6060600060016117e684611afd565b01905060008167ffffffffffffffff81111561180557611804611fc5565b5b6040519080825280601f01601f1916602001820160405280156118375781602001600182028036833780820191505090505b509050600082602001820190505b60011561189a578080600190039150507f3031323334353637383961626364656600000000000000000000000000000000600a86061a8153600a858161188e5761188d612cf7565b5b04945060008503611845575b819350505050919050565b60007f7d8825530a5a2e7a000000000000000000000000000000000000000000000000601c5281600052601c600c205460201c9050919050565b600033905090565b60005b6001156119075760208320905080835281826000030681106118ea575b818106905092915050565b60008060046000858152602001908152602001600020549050600060018461193a9190612584565b9050600060046000838152602001908152602001600020549050600083146119625782611964565b855b9350818614611995576000811461197b578061197d565b815b60046000888152602001908152602001600020819055505b600081146119b55760046000838152602001908152602001600020600090555b50505092915050565b6119ca60008383611350565b8160601b60601c9150816119e65763ea553b346000526004601cfd5b806000527f7d8825530a5a2e7a000000000000000000000000000000000000000000000000601c5260206000208101810180548060601b15611a305763c991cbb16000526004601cfd5b838117825583600052601c600c20600181540163ffffffff8116611a5c576301336cea6000526004601cfd5b8082555050828460007fddf252ad1be2c89b69c2b068fc378daa952ba7f163c4a11628f55a4df523b3ef600080a45050611a9860008383611355565b5050565b6000611aa783611172565b905060008282611ab79190612d26565b90506000611ac4856118a5565b9050611af6858277ffffffffffffffffffffffffffffffffffffffffffffffff1660c08563ffffffff16901b17611c50565b5050505050565b600080600090507a184f03e93ff9f4daa797ed6e38ed64bf6a1f0100000000000000008310611b5b577a184f03e93ff9f4daa797ed6e38ed64bf6a1f0100000000000000008381611b5157611b50612cf7565b5b0492506040810190505b6d04ee2d6d415b85acef81000000008310611b98576d04ee2d6d415b85acef81000000008381611b8e57611b8d612cf7565b5b0492506020810190505b662386f26fc100008310611bc757662386f26fc100008381611bbd57611bbc612cf7565b5b0492506010810190505b6305f5e1008310611bf0576305f5e1008381611be657611be5612cf7565b5b0492506008810190505b6127108310611c15576127108381611c0b57611c0a612cf7565b5b0492506004810190505b60648310611c385760648381611c2e57611c2d612cf7565b5b0492506002810190505b600a8310611c47576001810190505b80915050919050565b7f7d8825530a5a2e7a000000000000000000000000000000000000000000000000601c5281600052601c600c2080548060201c831860201b8118825550505050565b6000604051905090565b600080fd5b600080fd5b60007fffffffff0000000000000000000000000000000000000000000000000000000082169050919050565b611cdb81611ca6565b8114611ce657600080fd5b50565b600081359050611cf881611cd2565b92915050565b600060208284031215611d1457611d13611c9c565b5b6000611d2284828501611ce9565b91505092915050565b60008115159050919050565b611d4081611d2b565b82525050565b6000602082019050611d5b6000830184611d37565b92915050565b600081519050919050565b600082825260208201905092915050565b60005b83811015611d9b578082015181840152602081019050611d80565b60008484015250505050565b6000601f19601f8301169050919050565b6000611dc382611d61565b611dcd8185611d6c565b9350611ddd818560208601611d7d565b611de681611da7565b840191505092915050565b60006020820190508181036000830152611e0b8184611db8565b905092915050565b6000819050919050565b611e2681611e13565b8114611e3157600080fd5b50565b600081359050611e4381611e1d565b92915050565b600060208284031215611e5f57611e5e611c9c565b5b6000611e6d84828501611e34565b91505092915050565b600073ffffffffffffffffffffffffffffffffffffffff82169050919050565b6000611ea182611e76565b9050919050565b611eb181611e96565b82525050565b6000602082019050611ecc6000830184611ea8565b92915050565b611edb81611e96565b8114611ee657600080fd5b50565b600081359050611ef881611ed2565b92915050565b60008060408385031215611f1557611f14611c9c565b5b6000611f2385828601611ee9565b9250506020611f3485828601611e34565b9150509250929050565b611f4781611e13565b82525050565b6000602082019050611f626000830184611f3e565b92915050565b600080600060608486031215611f8157611f80611c9c565b5b6000611f8f86828701611ee9565b9350506020611fa086828701611ee9565b9250506040611fb186828701611e34565b9150509250925092565b600080fd5b600080fd5b7f4e487b7100000000000000000000000000000000000000000000000000000000600052604160045260246000fd5b611ffd82611da7565b810181811067ffffffffffffffff8211171561201c5761201b611fc5565b5b80604052505050565b600061202f611c92565b905061203b8282611ff4565b919050565b600067ffffffffffffffff82111561205b5761205a611fc5565b5b61206482611da7565b9050602081019050919050565b82818337600083830152505050565b600061209361208e84612040565b612025565b9050828152602081018484840111156120af576120ae611fc0565b5b6120ba848285612071565b509392505050565b600082601f8301126120d7576120d6611fbb565b5b81356120e7848260208601612080565b91505092915050565b60006020828403121561210657612105611c9c565b5b600082013567ffffffffffffffff81111561212457612123611ca1565b5b612130848285016120c2565b91505092915050565b600080fd5b600080fd5b60008083601f84011261215957612158611fbb565b5b8235905067ffffffffffffffff81111561217657612175612139565b5b6020830191508360208202830111156121925761219161213e565b5b9250929050565b60008083601f8401126121af576121ae611fbb565b5b8235905067ffffffffffffffff8111156121cc576121cb612139565b5b6020830191508360208202830111156121e8576121e761213e565b5b9250929050565b6000806000806040858703121561220957612208611c9c565b5b600085013567ffffffffffffffff81111561222757612226611ca1565b5b61223387828801612143565b9450945050602085013567ffffffffffffffff81111561225657612255611ca1565b5b61226287828801612199565b925092505092959194509250565b60006020828403121561228657612285611c9c565b5b600061229484828501611ee9565b91505092915050565b6122a681611d2b565b81146122b157600080fd5b50565b6000813590506122c38161229d565b92915050565b600080604083850312156122e0576122df611c9c565b5b60006122ee85828601611ee9565b92505060206122ff858286016122b4565b9150509250929050565b60008083601f84011261231f5761231e611fbb565b5b8235905067ffffffffffffffff81111561233c5761233b612139565b5b6020830191508360018202830111156123585761235761213e565b5b9250929050565b60008060008060006080868803121561237b5761237a611c9c565b5b600061238988828901611ee9565b955050602061239a88828901611ee9565b94505060406123ab88828901611e34565b935050606086013567ffffffffffffffff8111156123cc576123cb611ca1565b5b6123d888828901612309565b92509250509295509295909350565b60006040820190506123fc6000830185611f3e565b6124096020830184611f3e565b9392505050565b600063ffffffff82169050919050565b61242981612410565b82525050565b60006020820190506124446000830184612420565b92915050565b6000806040838503121561246157612460611c9c565b5b600061246f85828601611ee9565b925050602061248085828601611ee9565b9150509250929050565b600061249582611e76565b9050919050565b6124a58161248a565b81146124b057600080fd5b50565b6000813590506124c28161249c565b92915050565b6000602082840312156124de576124dd611c9c565b5b60006124ec848285016124b3565b91505092915050565b7f4e487b7100000000000000000000000000000000000000000000000000000000600052602260045260246000fd5b6000600282049050600182168061253c57607f821691505b60208210810361254f5761254e6124f5565b5b50919050565b7f4e487b7100000000000000000000000000000000000000000000000000000000600052601160045260246000fd5b600061258f82611e13565b915061259a83611e13565b92508282039050818111156125b2576125b1612555565b5b92915050565b60008190508160005260206000209050919050565b60006020601f8301049050919050565b600082821b905092915050565b60006008830261261a7fffffffffffffffffffffffffffffffffffffffffffffffffffffffffffffffff826125dd565b61262486836125dd565b95508019841693508086168417925050509392505050565b6000819050919050565b600061266161265c61265784611e13565b61263c565b611e13565b9050919050565b6000819050919050565b61267b83612646565b61268f61268782612668565b8484546125ea565b825550505050565b600090565b6126a4612697565b6126af818484612672565b505050565b5b818110156126d3576126c860008261269c565b6001810190506126b5565b5050565b601f821115612718576126e9816125b8565b6126f2846125cd565b81016020851015612701578190505b61271561270d856125cd565b8301826126b4565b50505b505050565b600082821c905092915050565b600061273b6000198460080261271d565b1980831691505092915050565b6000612754838361272a565b9150826002028217905092915050565b61276d82611d61565b67ffffffffffffffff81111561278657612785611fc5565b5b6127908254612524565b61279b8282856126d7565b600060209050601f8311600181146127ce57600084156127bc578287015190505b6127c68582612748565b86555061282e565b601f1984166127dc866125b8565b60005b82811015612804578489015182556001820191506020850194506020810190506127df565b86831015612821578489015161281d601f89168261272a565b8355505b6001600288020188555050505b505050505050565b7f4e62206164647265737320616e64206e62207175616e746974696573206d757360008201527f7420626520657175616c00000000000000000000000000000000000000000000602082015250565b6000612892602a83611d6c565b915061289d82612836565b604082019050919050565b600060208201905081810360008301526128c181612885565b9050919050565b7f4e487b7100000000000000000000000000000000000000000000000000000000600052603260045260246000fd5b600061290282611e13565b91507fffffffffffffffffffffffffffffffffffffffffffffffffffffffffffffffff820361293457612933612555565b5b600182019050919050565b7f4865616c696e672064726f6e65206d696e7420636c6f73650000000000000000600082015250565b6000612975601883611d6c565b91506129808261293f565b602082019050919050565b600060208201905081810360008301526129a481612968565b9050919050565b7f5175616e746974792067726561746572207468616e2072656d61696e696e6700600082015250565b60006129e1601f83611d6c565b91506129ec826129ab565b602082019050919050565b60006020820190508181036000830152612a10816129d4565b9050919050565b6000612a2282611e13565b9150612a2d83611e13565b9250828201905080821115612a4557612a44612555565b5b92915050565b7f537570706c79206c696d69742065786365656400000000000000000000000000600082015250565b6000612a81601383611d6c565b9150612a8c82612a4b565b602082019050919050565b60006020820190508181036000830152612ab081612a74565b9050919050565b7f756e6b6e6f7720746f6b656e0000000000000000000000000000000000000000600082015250565b6000612aed600c83611d6c565b9150612af882612ab7565b602082019050919050565b60006020820190508181036000830152612b1c81612ae0565b9050919050565b600081905092915050565b6000612b3982611d61565b612b438185612b23565b9350612b53818560208601611d7d565b80840191505092915050565b6000612b6b8285612b2e565b9150612b778284612b2e565b91508190509392505050565b7f4f776e61626c653a206e6577206f776e657220697320746865207a65726f206160008201527f6464726573730000000000000000000000000000000000000000000000000000602082015250565b6000612bdf602683611d6c565b9150612bea82612b83565b604082019050919050565b60006020820190508181036000830152612c0e81612bd2565b9050919050565b7f4f776e61626c653a2063616c6c6572206973206e6f7420746865206f776e6572600082015250565b6000612c4b602083611d6c565b9150612c5682612c15565b602082019050919050565b60006020820190508181036000830152612c7a81612c3e565b9050919050565b6000819050919050565b612c9c612c9782611e13565b612c81565b82525050565b6000612cae8285612c8b565b602082019150612cbe8284612c8b565b6020820191508190509392505050565b6000612cd982611e13565b915060008203612cec57612ceb612555565b5b600182039050919050565b7f4e487b7100000000000000000000000000000000000000000000000000000000600052601260045260246000fd5b6000612d3182612410565b9150612d3c83612410565b9250828201905063ffffffff811115612d5857612d57612555565b5b9291505056fea264697066735822122022e845da73ea070fbed550cc7a3bedccc809cedac02f959017ac95bd7dec0a9e64736f6c63430008130033",
  "immutableReferences": {
    "2143": [
      {
        "length": 32,
        "start": 2107
      },
      {
        "length": 32,
        "start": 3573
      },
      {
        "length": 32,
        "start": 4426
      }
    ]
  },
  "source": "// SPDX-License-Identifier: MIT\npragma solidity 0.8.19;\n\nimport \"@openzeppelin/contracts/utils/Strings.sol\";\nimport \"@openzeppelin/contracts/access/Ownable.sol\";\nimport \"@openzeppelin/contracts/security/ReentrancyGuard.sol\";\nimport \"./ERC721r.sol\";\n\ncontract MetaLifeHealingDrone is ReentrancyGuard, Ownable, ERC721r {\n\n    using Strings for uint256;\n    string public baseURI;\n\n    uint256 public limitMint = 0;\n    address payable private collector;\n\n    struct Eligibility {\n        uint256 total;\n        uint256 claimed;\n    }\n\n    mapping(address => Eligibility) public eligibilities;\n    event Minted(address indexed from, uint256 timestamp, uint256 quantity);\n\n    constructor() ERC721r('Meta-Life Healing Drone', 'MLH', 54_32){\n        // GMT Sunday 30 June 2024 21:59:59\n        limitMint = 1719784799;\n    }\n\n    function withdrawAll() public payable onlyOwner {\n        collector.transfer(address(this).balance);\n    }\n\n    function setCollector(address payable _newCollector) public onlyOwner {\n        collector = _newCollector;\n    }\n\n    function _setBaseURI(string memory _newBaseURI) public onlyOwner {\n        baseURI = _newBaseURI;\n    }\n\n    function _baseURI() internal view virtual returns (string memory) {\n        return baseURI;\n    }\n\n    function tokenURI(uint256 tokenId) public view virtual override returns (string memory) {\n        require(_exists(tokenId), 'unknow token');\n\n        string memory uri = _baseURI();\n        return bytes(uri).length > 0 ? string(abi.encodePacked(uri, tokenId.toString())) : \"\";\n    }\n\n    function addEligibilities(address[] calldata _addresses, uint256[] calldata _quantities) external onlyOwner {\n        require(_addresses.length == _quantities.length, 'Nb address and nb quantities must be equal');\n        for (uint i = 0; i < _addresses.length; i++) {\n            eligibilities[_addresses[i]].total = _quantities[i];\n        }\n    }\n\n    function remaining(address wallet) public view virtual returns (uint256) {\n        return eligibilities[wallet].total - eligibilities[wallet].claimed;\n    }\n\n    function mint(uint256 _quantity) external {\n        require(block.timestamp < limitMint, \"Healing drone mint close\");\n        require(remaining(msg.sender) >= _quantity, \"Quantity greater than remaining\");\n        require(maxSupply >= totalSupply() + _quantity, \"Supply limit exceed\");\n\n        eligibilities[msg.sender].claimed += _quantity;\n        _mintRandom(msg.sender, _quantity);\n        emit Minted(msg.sender, block.timestamp, _quantity);\n    }\n\n    function tokenExist(uint256 tokenId) public view returns(bool) {\n        return _exists(tokenId);\n    }\n}\n",
  "sourcePath": "/Users/rchea/workspaces/MetaLegends/contract-healing-drone/contracts/MetaLifeHealingDrone.sol",
  "compiler": {
    "name": "solc",
    "version": "0.8.19+commit.7dd6d404.Emscripten.clang"
  },
  "schemaVersion": "3.4.13",
  "updatedAt": "2023-10-15T17:52:11.669Z",
  "networkType": "ethereum",
  "devdoc": {
    "errors": {
      "AccountBalanceOverflow()": [
        {
          "details": "The recipient's balance has overflowed."
        }
      ],
      "BalanceQueryForZeroAddress()": [
        {
          "details": "Cannot query the balance for the zero address."
        }
      ],
      "NotOwnerNorApproved()": [
        {
          "details": "Only the token owner or an approved account can manage the token."
        }
      ],
      "TokenAlreadyExists()": [
        {
          "details": "The token already exists."
        }
      ],
      "TokenDoesNotExist()": [
        {
          "details": "The token does not exist."
        }
      ],
      "TransferFromIncorrectOwner()": [
        {
          "details": "The token must be owned by `from`."
        }
      ],
      "TransferToNonERC721ReceiverImplementer()": [
        {
          "details": "Cannot safely transfer to a contract that does not implement the ERC721Receiver interface."
        }
      ],
      "TransferToZeroAddress()": [
        {
          "details": "Cannot mint or transfer to the zero address."
        }
      ]
    },
    "events": {
      "Approval(address,address,uint256)": {
        "details": "Emitted when `owner` enables `account` to manage the `id` token."
      },
      "ApprovalForAll(address,address,bool)": {
        "details": "Emitted when `owner` enables or disables `operator` to manage all of their tokens."
      },
      "Transfer(address,address,uint256)": {
        "details": "Emitted when token `id` is transferred from `from` to `to`."
      }
    },
    "kind": "dev",
    "methods": {
      "approve(address,uint256)": {
        "details": "Sets `account` as the approved account to manage token `id`. Requirements: - Token `id` must exist. - The caller must be the owner of the token,   or an approved operator for the token owner. Emits a {Approval} event."
      },
      "balanceOf(address)": {
        "details": "Returns the number of tokens owned by `owner`. Requirements: - `owner` must not be the zero address."
      },
      "getApproved(uint256)": {
        "details": "Returns the account approved to managed token `id`. Requirements: - Token `id` must exist."
      },
      "isApprovedForAll(address,address)": {
        "details": "Returns whether `operator` is approved to manage the tokens of `owner`."
      },
      "name()": {
        "details": "Returns the token collection name."
      },
      "owner()": {
        "details": "Returns the address of the current owner."
      },
      "ownerOf(uint256)": {
        "details": "Returns the owner of token `id`. Requirements: - Token `id` must exist."
      },
      "renounceOwnership()": {
        "details": "Leaves the contract without owner. It will not be possible to call `onlyOwner` functions. Can only be called by the current owner. NOTE: Renouncing ownership will leave the contract without an owner, thereby disabling any functionality that is only available to the owner."
      },
      "safeTransferFrom(address,address,uint256)": {
        "details": "Equivalent to `safeTransferFrom(from, to, id, \"\")`."
      },
      "safeTransferFrom(address,address,uint256,bytes)": {
        "details": "Transfers token `id` from `from` to `to`. Requirements: - Token `id` must exist. - `from` must be the owner of the token. - `to` cannot be the zero address. - The caller must be the owner of the token, or be approved to manage the token. - If `to` refers to a smart contract, it must implement   {IERC721Receiver-onERC721Received}, which is called upon a safe transfer. Emits a {Transfer} event."
      },
      "setApprovalForAll(address,bool)": {
        "details": "Sets whether `operator` is approved to manage the tokens of the caller. Emits a {ApprovalForAll} event."
      },
      "supportsInterface(bytes4)": {
        "details": "Returns true if this contract implements the interface defined by `interfaceId`. See: https://eips.ethereum.org/EIPS/eip-165 This function call must use less than 30000 gas."
      },
      "symbol()": {
        "details": "Returns the token collection symbol."
      },
      "transferFrom(address,address,uint256)": {
        "details": "Transfers token `id` from `from` to `to`. Requirements: - Token `id` must exist. - `from` must be the owner of the token. - `to` cannot be the zero address. - The caller must be the owner of the token, or be approved to manage the token. Emits a {Transfer} event."
      },
      "transferOwnership(address)": {
        "details": "Transfers ownership of the contract to a new account (`newOwner`). Can only be called by the current owner."
      }
    },
    "version": 1
  },
  "userdoc": {
    "kind": "user",
    "methods": {},
    "version": 1
  }
}